{"contracts/Plinko.sol":{"Plinko":{"abi":[{"inputs":[{"internalType":"address","name":"_guardian","type":"address"},{"internalType":"address","name":"_admin","type":"address"},{"internalType":"address","name":"_token","type":"address"},{"internalType":"uint256","name":"_minBetValue","type":"uint256"},{"internalType":"uint256","name":"_maxBetValue","type":"uint256"}],"stateMutability":"payable","type":"constructor"},{"anonymous":false,"inputs":[],"name":"AdminChangeCancelled","type":"event"},{"anonymous":false,"inputs":[{"indexed":false,"internalType":"address","name":"newAdmin","type":"address"},{"indexed":false,"internalType":"uint256","name":"requestTime","type":"uint256"}],"name":"AdminChangeRequested","type":"event"},{"anonymous":false,"inputs":[{"indexed":false,"internalType":"address","name":"newAdmin","type":"address"}],"name":"AdminChanged","type":"event"},{"anonymous":false,"inputs":[{"indexed":false,"internalType":"address","name":"admin","type":"address"},{"indexed":false,"internalType":"uint256","name":"maxBetValue","type":"uint256"}],"name":"ChangedMaxBetValue","type":"event"},{"anonymous":false,"inputs":[{"indexed":false,"internalType":"address","name":"admin","type":"address"},{"indexed":false,"internalType":"uint256","name":"minBetValue","type":"uint256"}],"name":"ChangedMinBetValue","type":"event"},{"anonymous":false,"inputs":[{"indexed":false,"internalType":"address","name":"by","type":"address"}],"name":"ContractLocked","type":"event"},{"anonymous":false,"inputs":[{"indexed":false,"internalType":"address","name":"by","type":"address"}],"name":"ContractUnlocked","type":"event"},{"anonymous":false,"inputs":[],"name":"GuardianChangeCancelled","type":"event"},{"anonymous":false,"inputs":[{"indexed":false,"internalType":"address","name":"newGuardian","type":"address"},{"indexed":false,"internalType":"uint256","name":"requestTime","type":"uint256"}],"name":"GuardianChangeRequested","type":"event"},{"anonymous":false,"inputs":[{"indexed":false,"internalType":"address","name":"newGuardian","type":"address"}],"name":"GuardianChanged","type":"event"},{"anonymous":false,"inputs":[{"indexed":false,"internalType":"address","name":"user","type":"address"},{"indexed":false,"internalType":"uint256[]","name":"balls","type":"uint256[]"},{"indexed":false,"internalType":"uint256","name":"amount","type":"uint256"}],"name":"Result","type":"event"},{"anonymous":false,"inputs":[],"name":"WinProbabilityChangeCancelled","type":"event"},{"anonymous":false,"inputs":[{"indexed":false,"internalType":"uint256","name":"winProbability","type":"uint256"}],"name":"WinProbabilityChanged","type":"event"},{"anonymous":false,"inputs":[{"indexed":false,"internalType":"uint256","name":"winProbability","type":"uint256"}],"name":"WinProbabilityRequested","type":"event"},{"anonymous":false,"inputs":[{"indexed":false,"internalType":"address","name":"to","type":"address"},{"indexed":false,"internalType":"uint256","name":"amount","type":"uint256"}],"name":"WithdrawFund","type":"event"},{"anonymous":false,"inputs":[],"name":"WithdrawFundCancelled","type":"event"},{"anonymous":false,"inputs":[{"indexed":false,"internalType":"uint256","name":"requestTime","type":"uint256"}],"name":"WithdrawFundRequested","type":"event"},{"inputs":[],"name":"admin","outputs":[{"internalType":"address","name":"","type":"address"}],"stateMutability":"view","type":"function"},{"inputs":[],"name":"cancelAdminChange","outputs":[],"stateMutability":"nonpayable","type":"function"},{"inputs":[],"name":"cancelGuardianChange","outputs":[],"stateMutability":"nonpayable","type":"function"},{"inputs":[],"name":"cancelWinProbabilityChange","outputs":[],"stateMutability":"nonpayable","type":"function"},{"inputs":[],"name":"cancelWithdrawFund","outputs":[],"stateMutability":"nonpayable","type":"function"},{"inputs":[{"internalType":"uint256","name":"_maxBetValue","type":"uint256"}],"name":"changeMaxBetValue","outputs":[],"stateMutability":"nonpayable","type":"function"},{"inputs":[{"internalType":"uint256","name":"_minBetValue","type":"uint256"}],"name":"changeMinBetValue","outputs":[],"stateMutability":"nonpayable","type":"function"},{"inputs":[],"name":"confirmAdminChange","outputs":[],"stateMutability":"nonpayable","type":"function"},{"inputs":[],"name":"confirmChangeGuardian","outputs":[],"stateMutability":"nonpayable","type":"function"},{"inputs":[],"name":"confirmChangeWinProbability","outputs":[],"stateMutability":"nonpayable","type":"function"},{"inputs":[],"name":"guardian","outputs":[{"internalType":"address","name":"","type":"address"}],"stateMutability":"view","type":"function"},{"inputs":[],"name":"isLocked","outputs":[{"internalType":"bool","name":"","type":"bool"}],"stateMutability":"view","type":"function"},{"inputs":[{"internalType":"address","name":"","type":"address"}],"name":"lastTimestamp","outputs":[{"internalType":"uint256","name":"","type":"uint256"}],"stateMutability":"view","type":"function"},{"inputs":[],"name":"lockContract","outputs":[],"stateMutability":"nonpayable","type":"function"},{"inputs":[],"name":"maxRewardMultiply","outputs":[{"internalType":"uint256","name":"","type":"uint256"}],"stateMutability":"view","type":"function"},{"inputs":[],"name":"maxiumBetPerBall","outputs":[{"internalType":"uint256","name":"","type":"uint256"}],"stateMutability":"view","type":"function"},{"inputs":[],"name":"maxiumBetValue","outputs":[{"internalType":"uint256","name":"","type":"uint256"}],"stateMutability":"view","type":"function"},{"inputs":[],"name":"maxiumPlacedBall","outputs":[{"internalType":"uint256","name":"","type":"uint256"}],"stateMutability":"view","type":"function"},{"inputs":[],"name":"miniumBetValue","outputs":[{"internalType":"uint256","name":"","type":"uint256"}],"stateMutability":"view","type":"function"},{"inputs":[],"name":"pendingAdmin","outputs":[{"internalType":"address","name":"","type":"address"}],"stateMutability":"view","type":"function"},{"inputs":[],"name":"pendingAdminChangeTime","outputs":[{"internalType":"uint256","name":"","type":"uint256"}],"stateMutability":"view","type":"function"},{"inputs":[],"name":"pendingGuardian","outputs":[{"internalType":"address","name":"","type":"address"}],"stateMutability":"view","type":"function"},{"inputs":[],"name":"pendingGuardianChangeTime","outputs":[{"internalType":"uint256","name":"","type":"uint256"}],"stateMutability":"view","type":"function"},{"inputs":[],"name":"pendingWinProbability","outputs":[{"internalType":"uint256","name":"","type":"uint256"}],"stateMutability":"view","type":"function"},{"inputs":[],"name":"pendingWinProbabilityChangeTime","outputs":[{"internalType":"uint256","name":"","type":"uint256"}],"stateMutability":"view","type":"function"},{"inputs":[],"name":"pendingWithdrawFundTime","outputs":[{"internalType":"uint256","name":"","type":"uint256"}],"stateMutability":"view","type":"function"},{"inputs":[{"internalType":"uint256","name":"_numBall","type":"uint256"},{"internalType":"uint256","name":"_amount","type":"uint256"},{"internalType":"uint256","name":"_timestamp","type":"uint256"},{"internalType":"bytes","name":"signature","type":"bytes"}],"name":"placeBet","outputs":[],"stateMutability":"payable","type":"function"},{"inputs":[{"internalType":"address","name":"newAdmin","type":"address"}],"name":"requestAdminChange","outputs":[],"stateMutability":"nonpayable","type":"function"},{"inputs":[{"internalType":"address","name":"newGuardian","type":"address"}],"name":"requestChangeGuardian","outputs":[],"stateMutability":"nonpayable","type":"function"},{"inputs":[{"internalType":"uint256","name":"_winProbability","type":"uint256"}],"name":"requestChangeWinProbability","outputs":[],"stateMutability":"nonpayable","type":"function"},{"inputs":[],"name":"requestWithdrawFund","outputs":[],"stateMutability":"nonpayable","type":"function"},{"inputs":[{"internalType":"uint256","name":"","type":"uint256"}],"name":"rewards","outputs":[{"internalType":"uint256","name":"","type":"uint256"}],"stateMutability":"view","type":"function"},{"inputs":[],"name":"token","outputs":[{"internalType":"contract IERC20","name":"","type":"address"}],"stateMutability":"view","type":"function"},{"inputs":[],"name":"unlockContract","outputs":[],"stateMutability":"nonpayable","type":"function"},{"inputs":[],"name":"winProbability","outputs":[{"internalType":"uint256","name":"","type":"uint256"}],"stateMutability":"view","type":"function"},{"inputs":[{"internalType":"uint256","name":"amount","type":"uint256"}],"name":"withdrawFund","outputs":[],"stateMutability":"nonpayable","type":"function"}],"evm":{"bytecode":{"linkReferences":{},"object":"60e0604090808252806200278980380380916200001d82856200046d565b833960a0928391810103126200043657620000388162000491565b926020906200004982840162000491565b926200005782820162000491565b906080606082015191015160019560009387855560ff19601054166010558215620003ee57831562000395578383106200033e576001600160a01b039081166080819052600280546001600160a01b03199081169484169490941790556003805490931691909a16179055600a8655600b55600c55815163313ce56760e01b815294958390869060049082905afa94851562000332578195620002ee575b5060ff809516604d8111620002da57600a0a600d556005600e81905582516001600160401b03969088810188811182821017620002c6578552838152600a86820152600b858201526015606082015260386080820152600f546005600f55806005106200029a575b5090600f84528584209087855b8581106200028557505050505050603860c05260068383516200018d816200043b565b8281520165506c696e6b6f60d01b81522093838351620001ad816200043b565b82815201603160f81b8152208251938401947f8b73c3c69bb8fe3d512ecc4cf759cc79239f7b179b0ffacaa9a75d522b39400f8652838501526060840152466080840152308684015285835260c08301948386109086111762000271575083905251902082526122c29182620004a783396080518281816101c20152818161063001528181610f4d0152818161130c015281816114d5015281816115c20152818161167a01526116ac015251816113eb015260c05181818161056b01526112be0152f35b634e487b7160e01b81526041600452602490fd5b8883865116950194818501550188906200016a565b600f855287600588872092830192015b828110620002ba5750506200015d565b868155018890620002aa565b634e487b7160e01b85526041600452602485fd5b634e487b7160e01b82526011600452602482fd5b9094508281813d83116200032a575b6200030981836200046d565b8101031262000326575160ff8116810362000326579338620000f5565b8480fd5b503d620002fd565b509051903d90823e3d90fd5b6084878780519162461bcd60e51b8352600483015260248201526000805160206200276983398151915260448201527f6561746572207468616e20746865206d696e696d756d206265742076616c75656064820152fd5b855162461bcd60e51b815260048101889052602c60248201527f546865206d696e696d756d206265742076616c7565206d75737420626520677260448201526b06561746572207468616e20360a41b6064820152608490fd5b855162461bcd60e51b815260048101889052602c60248201526000805160206200276983398151915260448201526b06561746572207468616e20360a41b6064820152608490fd5b600080fd5b604081019081106001600160401b038211176200045757604052565b634e487b7160e01b600052604160045260246000fd5b601f909101601f19168101906001600160401b038211908210176200045757604052565b51906001600160a01b0382168203620004365756fe6040608081526004908136101561001557600080fd5b600091823560e01c9081630cee172514610eb15781631157b26714610e505781631617f19014610e3157816322f0f2f914610dd45781632678224714610dac57816328fc8b6814610d095781632e02394e14610cea5781633ab0f33014610ccb5781633b116d2714610c5e578163452a932014610c355781634addd5f614610be0578163677660e014610b1157816369f2941d14610af257816371d0008614610a4c578163753868e3146109ec578163762c31ba146109c357816376a4b8ae146109a4578163847d1e90146108f65781638c51d1e4146108545781639a138974146107575781639d1c35e2146105df5781639e0906281461058e578163a48158e514610553578163a4e2d6341461052f578163a74b67831461046f578163a9860b9714610450578163ba8a305c14610431578163bff42fe414610412578163dccfac82146103d8578163e065fc9314610303578163e1d8192c146102e4578163ed3cacc1146102c5578163f301af421461028857508063f851a44014610260578063fb49fe27146101f55763fc0c546a146101af57600080fd5b346101f157816003193601126101f157517f00000000000000000000000000000000000000000000000000000000000000006001600160a01b03168152602090f35b5080fd5b823461025d578060031936011261025d5761021b60018060a01b03600354163314611179565b6bffffffffffffffffffffffff60a01b60065416600655806007557f7a81c642828249ae51a34cf52e35ebbf08bd3cb36fb5a4b4c8e80261893f5b818180a180f35b80fd5b50346101f157816003193601126101f15760025490516001600160a01b039091168152602090f35b9050346102c15760203660031901126102c1573591600f5483101561025d57506102b360209261107c565b91905490519160031b1c8152f35b8280fd5b5050346101f157816003193601126101f1576020906007549051908152f35b5050346101f157816003193601126101f1576020906009549051908152f35b919050346102c15760203660031901126102c15781359161032f60018060a01b036002541633146110c9565b821561038a57507fa9f6ef469a02717105903bbce25c47a4db6a0d759d929c5cd9bf295a7033b1749161038491610369600c548311611c6c565b600b8290555133815260208101919091529081906040820190565b0390a180f35b6020608492519162461bcd60e51b8352820152602360248201527f546865206d617869756d206265742076616c756520677265617465722074686160448201526206e20360ec1b6064820152fd5b9050346102c15760203660031901126102c157356001600160a01b038116908190036102c157828291602094526011845220549051908152f35b5050346101f157816003193601126101f1576020906005549051908152f35b5050346101f157816003193601126101f157602090600b549051908152f35b5050346101f157816003193601126101f157602090600a549051908152f35b8383346101f157816003193601126101f1576002546001600160a01b03919061049b33848316146110c9565b8454928316926104ac841515611dd2565b6005546104ba811515611dd2565b6203f480810180911161051c577f7ce7ec0b50378fb6c0186ffb5f48325f6593fcb4ca4386f21861af3129188f5c9492602094926104fb8993421015611d1f565b6001600160a01b03199182168517600255169055600585905551908152a180f35b634e487b7160e01b865260118752602486fd5b5050346101f157816003193601126101f15760209060ff6010541690519015158152f35b5050346101f157816003193601126101f157602090517f00000000000000000000000000000000000000000000000000000000000000008152f35b833461025d578060031936011261025d576105b460018060a01b03600354163314611179565b806008557f94a9b8fb6e694c6c0fbee0e13e1c5b9ae2dda4395e3495228a46dc717617c6fa8180a180f35b839150346101f157816003193601126101f1576002546001600160a01b03919061060c90831633146110c9565b60085461070a57835180926370a0823160e01b8252308383015281602460209586937f0000000000000000000000000000000000000000000000000000000000000000165afa9081156107005784916106cf575b501561069657507fe20350bd5ff90b7bdbcb8229cf46c222a5f5b18f094a1ac5962451445fda107691924260085551428152a180f35b60649184519162461bcd60e51b835282015260156024820152744e6f20746f6b656e7320746f20776974686472617760581b6044820152fd5b90508281813d83116106f9575b6106e68183611264565b810103126106f5575185610660565b8380fd5b503d6106dc565b85513d86823e3d90fd5b608490602085519162461bcd60e51b8352820152602160248201527f5769746864726177616c207265717565737420697320696e2070726f677265736044820152607360f81b6064820152fd5b919050346102c157826003193601126102c15761077f60018060a01b036002541633146110c9565b6009549161078e831515611d7c565b600a5461079c811515611d7c565b6203f48081018091116108415742106107e95750816020917f9dc86596ca5f70a96c96b2cb0be04f02b7da0a6261f97d43cebcc921020b1925936001558460095584600a5551908152a180f35b6020608492519162461bcd60e51b8352820152602d60248201527f4d75737420776169742033206461797320746f20636f6e6669726d207365656460448201526c207265656c73206368616e676560981b6064820152fd5b634e487b7160e01b855260118252602485fd5b919050346102c15760203660031901126102c15781356001600160a01b03818116939092908483036108f2577f72b357b8c271031aad940e03e51f8c172b495a1dd60d6e902d339c7f49604102946108b4610384956002541633146110c9565b6108bf8115156111c5565b81546001600160a01b03191617905542600581905590516001600160a01b03909216825260208201529081906040820190565b8580fd5b8383346101f157816003193601126101f1576003546001600160a01b0391906109223384831614611179565b60065492831692610934841515611cd3565b600754610942811515611cd3565b6203f480810180911161051c5791602093916109827f01c6520cf747e4632b43b535b91afe3950ccabc4ab29bbd89e3c1f6b0ba056559694421015611d1f565b6001600160a01b0319918216841760035516600655600785905551908152a180f35b5050346101f157816003193601126101f157602090600e549051908152f35b5050346101f157816003193601126101f15760065490516001600160a01b039091168152602090f35b5050346101f157816003193601126101f15760207f46a289a85516d6b63cec7f685e3f5398070f9fc5fb8e3d14021add023fec568f91610a3760018060a01b03600354163314611179565b600160ff19601054161760105551338152a180f35b919050346102c15760203660031901126102c157813591610a7860018060a01b036002541633146110c9565b6032831015610ab75750816020917f9b161a37c93b297fe93d8f6f47f959bb91bd34a421b3892b0c91674ce107fb249360095542600a5551908152a180f35b6020606492519162461bcd60e51b83528201526016602482015275496e76616c69642077696e50726f626162696c69747960501b6044820152fd5b5050346101f157816003193601126101f1576020906001549051908152f35b919050346102c15760203660031901126102c157813591610b3d60018060a01b036002541633146110c9565b8215610b9257508161038491610b777f96fd935283ebe139eff1231ba7e60b91334b7e1e1c67c91c68b58f8d4a7b211f94600b5411611c6c565b600c8290555133815260208101919091529081906040820190565b6020608492519162461bcd60e51b8352820152602360248201527f546865206d696e69756d206265742076616c756520677265617465722074686160448201526206e20360ec1b6064820152fd5b833461025d578060031936011261025d57610c0660018060a01b036002541633146110c9565b8060095580600a557f9ef48cacefe12ab0a801d57bc51beb3a36523278e29346ed78249364434565028180a180f35b5050346101f157816003193601126101f15760035490516001600160a01b039091168152602090f35b839060803660031901126101f1576064359067ffffffffffffffff908183116106f557366023840112156106f557828101359182116106f55736602483850101116106f5576024610cc893610cb860ff6010541615611115565b0190604435906024359035611286565b80f35b5050346101f157816003193601126101f1576020906008549051908152f35b5050346101f157816003193601126101f157602090600d549051908152f35b9050346102c15760203660031901126102c1576001600160a01b03903581811692838203610da8577f6c437b1584202b77482374dd2215b75e975b0be0768b92ed5e4b048b0e10987993610d6561038494600354163314611179565b610d708115156111c5565b600680546001600160a01b03191691909117905542600781905590516001600160a01b03909216825260208201529081906040820190565b8480fd5b9050346102c157826003193601126102c1575490516001600160a01b03909116815260209150f35b5050346101f157816003193601126101f15760207ff08396b9fd122c2ef99aec183d994d39fa54cc25773e4b8a6ed20ad08aef02c991610e1f60018060a01b03600354163314611179565b60ff196010541660105551338152a180f35b5050346101f157816003193601126101f157602090600c549051908152f35b8390346101f157816003193601126101f157610e7760018060a01b03600354163314611179565b80546001600160a01b031916905560058190557f07ad662e4db36fe46ee1697376f8457b103123c200de262ca4baf9f5cad0a1e88180a180f35b839150346101f15760203660031901126101f1576002548135916001600160a01b0391821690610ee23383146110c9565b60028554146110395760028555610efe60ff6010541615611115565b60085480156110005762093a808101809111610fed574210610f9f5750839491610f7184610f95937f09ad672d4e7c4892da934d1051932ebe9ec4b6ec8c3f40d569176db3e93e5abe976008557f0000000000000000000000000000000000000000000000000000000000000000611e1e565b600254925192166001600160a01b0316825260208201929092529081906040820190565b0390a16001815580f35b608490602087519162461bcd60e51b8352820152602260248201527f4d75737420776169742037206461797320746f2077697468647261772066756e604482015261647360f01b6064820152fd5b634e487b7160e01b865260118252602486fd5b865162461bcd60e51b815260208184015260136024820152724e6f2070656e64696e6720776974686472617760681b6044820152606490fd5b606490602087519162461bcd60e51b8352820152601f60248201527f5265656e7472616e637947756172643a207265656e7472616e742063616c6c006044820152fd5b600f548110156110b357600f6000527f8d1108e10bcb7c27dddfc02ed9d693a074039d026cf4ea4240b40f7d581ac8020190600090565b634e487b7160e01b600052603260045260246000fd5b156110d057565b60405162461bcd60e51b815260206004820152601b60248201527f4f6e6c792061646d696e2063616e2065786563757465207468697300000000006044820152606490fd5b1561111c57565b60405162461bcd60e51b815260206004820152601260248201527110dbdb9d1c9858dd081a5cc81b1bd8dad95960721b6044820152606490fd5b9190820180921161116357565b634e487b7160e01b600052601160045260246000fd5b1561118057565b60405162461bcd60e51b815260206004820152601e60248201527f4f6e6c7920677561726469616e2063616e2065786563757465207468697300006044820152606490fd5b156111cc57565b60405162461bcd60e51b815260206004820152600f60248201526e496e76616c6964206164647265737360881b6044820152606490fd5b8181029291811591840414171561116357565b6060810190811067ffffffffffffffff82111761123257604052565b634e487b7160e01b600052604160045260246000fd5b60a0810190811067ffffffffffffffff82111761123257604052565b90601f8019910116810190811067ffffffffffffffff82111761123257604052565b9392909192600c548310611c0157600b548311611bbc578415611b6457600e548511611b0257600d5485840411611a9757600a6112e37f000000000000000000000000000000000000000000000000000000000000000085611203565b6040516370a0823160e01b81523060048201526001600160a01b039492909104906020816024817f000000000000000000000000000000000000000000000000000000000000000089165afa90811561177a57600091611a65575b5010611a20578442106119db57603c85018086116111635742116119a25733600052601160205260406000205485111561195d57846040805161138081611216565b33815286602082015201526040517f0e81d1cdf23bdc0a6bef5035503a1014285a41cc67c1e91e29d9211b707e3cf96020820152336040820152846060820152856080820152608081526113d381611248565b602081519101206040519061190160f01b60208301527f0000000000000000000000000000000000000000000000000000000000000000602283015260428201526042815280608081011067ffffffffffffffff60808301111761123257608081016040526020815191012061144883611e61565b906114566040519283611264565b838252368484011161176d5760006020856114849661147c968387013784010152611fd7565b91909161200f565b81806002541691160361192457336000526011602052826040600020556114f96040516323b872dd60e01b6020820152336024820152306044820152836064820152606481526114d381611248565b7f0000000000000000000000000000000000000000000000000000000000000000611ea9565b61150284611e7d565b926115106040519485611264565b84845261151c85611e7d565b601f19013660208601376040519061153382611216565b60048252600260208301526003604083015260405180604081011067ffffffffffffffff60408301111761123257604081016040526001815260006020820152600091600154916000194301914383115b8a86106117c65750505050505050600093835185915b818310611786575050506020602491604051928380926370a0823160e01b82523060048301527f0000000000000000000000000000000000000000000000000000000000000000165afa90811561177a57600091611743575b5083116116a3575081611673575b604051916060830133845260606020850152825180915260206080850193019060005b81811061165d575050509180917fa7770222a2f5520a0254ee36217269a0af4529aceacbce72c4a9dbb4f26af6719360408301520390a1565b8251855260209485019490920191600101611624565b61169e82337f0000000000000000000000000000000000000000000000000000000000000000611e1e565b611601565b6116d0919250337f0000000000000000000000000000000000000000000000000000000000000000611e1e565b604051906060820133835260606020840152815180915260206080840192019060005b81811061172d5750505090807fa7770222a2f5520a0254ee36217269a0af4529aceacbce72c4a9dbb4f26af67192600060408301520390a1565b82518452602093840193909201916001016116f3565b90506020813d602011611772575b8161175e60209383611264565b8101031261176d5751386115f3565b600080fd5b3d9150611751565b6040513d6000823e3d90fd5b9091956117bd600191600a6117b66117a76117a18c8c611e95565b5161107c565b90549060031b1c868a04611203565b0490611156565b9601919061159a565b60028601861161116357611163576064946103e860405160208101903360601b8252864060348201524460548201526002840160748201526074815261180b81611248565b519020066118198184611156565b9086600098899360405160208101913360601b83528a40603483015244605483015260748201526074815261184d81611248565b5190200610156118c0576118619084611156565b906111635760039060405160208101913360601b83528740603483015244605483015260748201526074815261189681611248565b519020069060038210156110b35760019160051b8801516118b7828d611e95565b525b0194611584565b6118cb915083611156565b60405160208101913360601b8352864060348301524460548301526074820152607481526118f881611248565b5190209060026001831610156110b357602060019260051b1684015161191e828d611e95565b526118b9565b60405162461bcd60e51b8152602060048201526011602482015270496e76616c6964207369676e617475726560781b6044820152606490fd5b60405162461bcd60e51b815260206004820152601760248201527f54696d657374616d70206d757374206265206e657765720000000000000000006044820152606490fd5b60405162461bcd60e51b8152602060048201526011602482015270151a5b595cdd185b5c08195e1c1a5c9959607a1b6044820152606490fd5b60405162461bcd60e51b815260206004820152601960248201527f54696d657374616d702066726f6d2074686520667574757265000000000000006044820152606490fd5b60405162461bcd60e51b815260206004820152601f60248201527f436f6e74726163742068617320696e73756666696369656e742066756e6473006044820152606490fd5b90506020813d602011611a8f575b81611a8060209383611264565b8101031261176d57513861133e565b3d9150611a73565b60405162461bcd60e51b815260206004820152603760248201527f5468652062657420616d6f756e74207065722062616c6c2063616e6e6f74206560448201527f78636565642074686520616c6c6f776564206c696d69740000000000000000006064820152608490fd5b60405162461bcd60e51b815260206004820152603460248201527f546865206d6178696d756d20616c6c6f776564206e756d626572206f662062616044820152731b1b1cc81a185cc81899595b881c995858da195960621b6064820152608490fd5b60405162461bcd60e51b815260206004820152602a60248201527f546865206e756d626572206f662062616c6c73206d75737420626520677265616044820152690746572207468616e20360b41b6064820152608490fd5b60405162461bcd60e51b815260206004820152601960248201527f4265742065786365656473206d6178696d756d206c696d6974000000000000006044820152606490fd5b60405162461bcd60e51b815260206004820152603e60248201527f5468652062657420616d6f756e74206d7573742062652067726561746572207460448201527f68616e20746865206d696e696d756d2072657175697265642076616c756500006064820152608490fd5b15611c7357565b60405162461bcd60e51b815260206004820152603260248201527f546865206d617869756d206265742076616c75652067726561746572207468616044820152716e206d696e69756d206265742076616c756560701b6064820152608490fd5b15611cda57565b60405162461bcd60e51b815260206004820152601a60248201527f4e6f2070656e64696e6720677561726469616e206368616e67650000000000006044820152606490fd5b15611d2657565b60405162461bcd60e51b815260206004820152602860248201527f4d75737420776169742033206461797320746f20636f6e6669726d2061646d696044820152676e206368616e676560c01b6064820152608490fd5b15611d8357565b60405162461bcd60e51b815260206004820152602160248201527f4e6f2070656e64696e672077696e2070726f626162696c697479206368616e676044820152606560f81b6064820152608490fd5b15611dd957565b60405162461bcd60e51b815260206004820152601760248201527f4e6f2070656e64696e672061646d696e206368616e67650000000000000000006044820152606490fd5b60405163a9059cbb60e01b60208201526001600160a01b03929092166024830152604480830193909352918152611e5f91611e5a606483611264565b611ea9565b565b67ffffffffffffffff811161123257601f01601f191660200190565b67ffffffffffffffff81116112325760051b60200190565b80518210156110b35760209160051b010190565b60018060a01b031690604051604081019080821067ffffffffffffffff83111761123257611f39916040526020938482527f5361666545524332303a206c6f772d6c6576656c2063616c6c206661696c6564858301526000808587829751910182855af13d15611fcf573d91611f1e83611e61565b92611f2c6040519485611264565b83523d868885013e6121b8565b805191821591848315611fab575b505050905015611f545750565b6084906040519062461bcd60e51b82526004820152602a60248201527f5361666545524332303a204552433230206f7065726174696f6e20646964206e6044820152691bdd081cdd58d8d9595960b21b6064820152fd5b9193818094500103126101f15782015190811515820361025d575080388084611f47565b6060916121b8565b90604181511460001461200557612001916020820151906060604084015193015160001a90612129565b9091565b5050600090600290565b600581101561211357806120205750565b6001810361206d5760405162461bcd60e51b815260206004820152601860248201527f45434453413a20696e76616c6964207369676e617475726500000000000000006044820152606490fd5b600281036120ba5760405162461bcd60e51b815260206004820152601f60248201527f45434453413a20696e76616c6964207369676e6174757265206c656e677468006044820152606490fd5b6003146120c357565b60405162461bcd60e51b815260206004820152602260248201527f45434453413a20696e76616c6964207369676e6174757265202773272076616c604482015261756560f01b6064820152608490fd5b634e487b7160e01b600052602160045260246000fd5b9291907f7fffffffffffffffffffffffffffffff5d576e7357a4501ddfe92f46681b20a083116121ac5791608094939160ff602094604051948552168484015260408301526060820152600093849182805260015afa1561219f5781516001600160a01b03811615612199579190565b50600190565b50604051903d90823e3d90fd5b50505050600090600390565b9192901561221a57508151156121cc575090565b3b156121d55790565b60405162461bcd60e51b815260206004820152601d60248201527f416464726573733a2063616c6c20746f206e6f6e2d636f6e74726163740000006044820152606490fd5b82519091501561222d5750805190602001fd5b6040519062461bcd60e51b82528160208060048301528251908160248401526000935b828510612273575050604492506000838284010152601f80199101168101030190fd5b848101820151868601604401529381019385935061225056fea2646970667358221220bedc6e412b86072189862a6cfe2d11d940a0155d2865d7b459c2ce1ba20d2d4964736f6c63430008180033546865206d6178696d756d206265742076616c7565206d757374206265206772","opcodes":"PUSH1 0xE0 PUSH1 0x40 SWAP1 DUP1 DUP3 MSTORE DUP1 PUSH3 0x2789 DUP1 CODESIZE SUB DUP1 SWAP2 PUSH3 0x1D DUP3 DUP6 PUSH3 0x46D JUMP JUMPDEST DUP4 CODECOPY PUSH1 0xA0 SWAP3 DUP4 SWAP2 DUP2 ADD SUB SLT PUSH3 0x436 JUMPI PUSH3 0x38 DUP2 PUSH3 0x491 JUMP JUMPDEST SWAP3 PUSH1 0x20 SWAP1 PUSH3 0x49 DUP3 DUP5 ADD PUSH3 0x491 JUMP JUMPDEST SWAP3 PUSH3 0x57 DUP3 DUP3 ADD PUSH3 0x491 JUMP JUMPDEST SWAP1 PUSH1 0x80 PUSH1 0x60 DUP3 ADD MLOAD SWAP2 ADD MLOAD PUSH1 0x1 SWAP6 PUSH1 0x0 SWAP4 DUP8 DUP6 SSTORE PUSH1 0xFF NOT PUSH1 0x10 SLOAD AND PUSH1 0x10 SSTORE DUP3 ISZERO PUSH3 0x3EE JUMPI DUP4 ISZERO PUSH3 0x395 JUMPI DUP4 DUP4 LT PUSH3 0x33E JUMPI PUSH1 0x1 PUSH1 0x1 PUSH1 0xA0 SHL SUB SWAP1 DUP2 AND PUSH1 0x80 DUP2 SWAP1 MSTORE PUSH1 0x2 DUP1 SLOAD PUSH1 0x1 PUSH1 0x1 PUSH1 0xA0 SHL SUB NOT SWAP1 DUP2 AND SWAP5 DUP5 AND SWAP5 SWAP1 SWAP5 OR SWAP1 SSTORE PUSH1 0x3 DUP1 SLOAD SWAP1 SWAP4 AND SWAP2 SWAP1 SWAP11 AND OR SWAP1 SSTORE PUSH1 0xA DUP7 SSTORE PUSH1 0xB SSTORE PUSH1 0xC SSTORE DUP2 MLOAD PUSH4 0x313CE567 PUSH1 0xE0 SHL DUP2 MSTORE SWAP5 SWAP6 DUP4 SWAP1 DUP7 SWAP1 PUSH1 0x4 SWAP1 DUP3 SWAP1 GAS STATICCALL SWAP5 DUP6 ISZERO PUSH3 0x332 JUMPI DUP2 SWAP6 PUSH3 0x2EE JUMPI JUMPDEST POP PUSH1 0xFF DUP1 SWAP6 AND PUSH1 0x4D DUP2 GT PUSH3 0x2DA JUMPI PUSH1 0xA EXP PUSH1 0xD SSTORE PUSH1 0x5 PUSH1 0xE DUP2 SWAP1 SSTORE DUP3 MLOAD PUSH1 0x1 PUSH1 0x1 PUSH1 0x40 SHL SUB SWAP7 SWAP1 DUP9 DUP2 ADD DUP9 DUP2 GT DUP3 DUP3 LT OR PUSH3 0x2C6 JUMPI DUP6 MSTORE DUP4 DUP2 MSTORE PUSH1 0xA DUP7 DUP3 ADD MSTORE PUSH1 0xB DUP6 DUP3 ADD MSTORE PUSH1 0x15 PUSH1 0x60 DUP3 ADD MSTORE PUSH1 0x38 PUSH1 0x80 DUP3 ADD MSTORE PUSH1 0xF SLOAD PUSH1 0x5 PUSH1 0xF SSTORE DUP1 PUSH1 0x5 LT PUSH3 0x29A JUMPI JUMPDEST POP SWAP1 PUSH1 0xF DUP5 MSTORE DUP6 DUP5 KECCAK256 SWAP1 DUP8 DUP6 JUMPDEST DUP6 DUP2 LT PUSH3 0x285 JUMPI POP POP POP POP POP POP PUSH1 0x38 PUSH1 0xC0 MSTORE PUSH1 0x6 DUP4 DUP4 MLOAD PUSH3 0x18D DUP2 PUSH3 0x43B JUMP JUMPDEST DUP3 DUP2 MSTORE ADD PUSH6 0x506C696E6B6F PUSH1 0xD0 SHL DUP2 MSTORE KECCAK256 SWAP4 DUP4 DUP4 MLOAD PUSH3 0x1AD DUP2 PUSH3 0x43B JUMP JUMPDEST DUP3 DUP2 MSTORE ADD PUSH1 0x31 PUSH1 0xF8 SHL DUP2 MSTORE KECCAK256 DUP3 MLOAD SWAP4 DUP5 ADD SWAP5 PUSH32 0x8B73C3C69BB8FE3D512ECC4CF759CC79239F7B179B0FFACAA9A75D522B39400F DUP7 MSTORE DUP4 DUP6 ADD MSTORE PUSH1 0x60 DUP5 ADD MSTORE CHAINID PUSH1 0x80 DUP5 ADD MSTORE ADDRESS DUP7 DUP5 ADD MSTORE DUP6 DUP4 MSTORE PUSH1 0xC0 DUP4 ADD SWAP5 DUP4 DUP7 LT SWAP1 DUP7 GT OR PUSH3 0x271 JUMPI POP DUP4 SWAP1 MSTORE MLOAD SWAP1 KECCAK256 DUP3 MSTORE PUSH2 0x22C2 SWAP2 DUP3 PUSH3 0x4A7 DUP4 CODECOPY PUSH1 0x80 MLOAD DUP3 DUP2 DUP2 PUSH2 0x1C2 ADD MSTORE DUP2 DUP2 PUSH2 0x630 ADD MSTORE DUP2 DUP2 PUSH2 0xF4D ADD MSTORE DUP2 DUP2 PUSH2 0x130C ADD MSTORE DUP2 DUP2 PUSH2 0x14D5 ADD MSTORE DUP2 DUP2 PUSH2 0x15C2 ADD MSTORE DUP2 DUP2 PUSH2 0x167A ADD MSTORE PUSH2 0x16AC ADD MSTORE MLOAD DUP2 PUSH2 0x13EB ADD MSTORE PUSH1 0xC0 MLOAD DUP2 DUP2 DUP2 PUSH2 0x56B ADD MSTORE PUSH2 0x12BE ADD MSTORE RETURN JUMPDEST PUSH4 0x4E487B71 PUSH1 0xE0 SHL DUP2 MSTORE PUSH1 0x41 PUSH1 0x4 MSTORE PUSH1 0x24 SWAP1 REVERT JUMPDEST DUP9 DUP4 DUP7 MLOAD AND SWAP6 ADD SWAP5 DUP2 DUP6 ADD SSTORE ADD DUP9 SWAP1 PUSH3 0x16A JUMP JUMPDEST PUSH1 0xF DUP6 MSTORE DUP8 PUSH1 0x5 DUP9 DUP8 KECCAK256 SWAP3 DUP4 ADD SWAP3 ADD JUMPDEST DUP3 DUP2 LT PUSH3 0x2BA JUMPI POP POP PUSH3 0x15D JUMP JUMPDEST DUP7 DUP2 SSTORE ADD DUP9 SWAP1 PUSH3 0x2AA JUMP JUMPDEST PUSH4 0x4E487B71 PUSH1 0xE0 SHL DUP6 MSTORE PUSH1 0x41 PUSH1 0x4 MSTORE PUSH1 0x24 DUP6 REVERT JUMPDEST PUSH4 0x4E487B71 PUSH1 0xE0 SHL DUP3 MSTORE PUSH1 0x11 PUSH1 0x4 MSTORE PUSH1 0x24 DUP3 REVERT JUMPDEST SWAP1 SWAP5 POP DUP3 DUP2 DUP2 RETURNDATASIZE DUP4 GT PUSH3 0x32A JUMPI JUMPDEST PUSH3 0x309 DUP2 DUP4 PUSH3 0x46D JUMP JUMPDEST DUP2 ADD SUB SLT PUSH3 0x326 JUMPI MLOAD PUSH1 0xFF DUP2 AND DUP2 SUB PUSH3 0x326 JUMPI SWAP4 CODESIZE PUSH3 0xF5 JUMP JUMPDEST DUP5 DUP1 REVERT JUMPDEST POP RETURNDATASIZE PUSH3 0x2FD JUMP JUMPDEST POP SWAP1 MLOAD SWAP1 RETURNDATASIZE SWAP1 DUP3 RETURNDATACOPY RETURNDATASIZE SWAP1 REVERT JUMPDEST PUSH1 0x84 DUP8 DUP8 DUP1 MLOAD SWAP2 PUSH3 0x461BCD PUSH1 0xE5 SHL DUP4 MSTORE PUSH1 0x4 DUP4 ADD MSTORE PUSH1 0x24 DUP3 ADD MSTORE PUSH1 0x0 DUP1 MLOAD PUSH1 0x20 PUSH3 0x2769 DUP4 CODECOPY DUP2 MLOAD SWAP2 MSTORE PUSH1 0x44 DUP3 ADD MSTORE PUSH32 0x6561746572207468616E20746865206D696E696D756D206265742076616C7565 PUSH1 0x64 DUP3 ADD MSTORE REVERT JUMPDEST DUP6 MLOAD PUSH3 0x461BCD PUSH1 0xE5 SHL DUP2 MSTORE PUSH1 0x4 DUP2 ADD DUP9 SWAP1 MSTORE PUSH1 0x2C PUSH1 0x24 DUP3 ADD MSTORE PUSH32 0x546865206D696E696D756D206265742076616C7565206D757374206265206772 PUSH1 0x44 DUP3 ADD MSTORE PUSH12 0x6561746572207468616E203 PUSH1 0xA4 SHL PUSH1 0x64 DUP3 ADD MSTORE PUSH1 0x84 SWAP1 REVERT JUMPDEST DUP6 MLOAD PUSH3 0x461BCD PUSH1 0xE5 SHL DUP2 MSTORE PUSH1 0x4 DUP2 ADD DUP9 SWAP1 MSTORE PUSH1 0x2C PUSH1 0x24 DUP3 ADD MSTORE PUSH1 0x0 DUP1 MLOAD PUSH1 0x20 PUSH3 0x2769 DUP4 CODECOPY DUP2 MLOAD SWAP2 MSTORE PUSH1 0x44 DUP3 ADD MSTORE PUSH12 0x6561746572207468616E203 PUSH1 0xA4 SHL PUSH1 0x64 DUP3 ADD MSTORE PUSH1 0x84 SWAP1 REVERT JUMPDEST PUSH1 0x0 DUP1 REVERT JUMPDEST PUSH1 0x40 DUP2 ADD SWAP1 DUP2 LT PUSH1 0x1 PUSH1 0x1 PUSH1 0x40 SHL SUB DUP3 GT OR PUSH3 0x457 JUMPI PUSH1 0x40 MSTORE JUMP JUMPDEST PUSH4 0x4E487B71 PUSH1 0xE0 SHL PUSH1 0x0 MSTORE PUSH1 0x41 PUSH1 0x4 MSTORE PUSH1 0x24 PUSH1 0x0 REVERT JUMPDEST PUSH1 0x1F SWAP1 SWAP2 ADD PUSH1 0x1F NOT AND DUP2 ADD SWAP1 PUSH1 0x1 PUSH1 0x1 PUSH1 0x40 SHL SUB DUP3 GT SWAP1 DUP3 LT OR PUSH3 0x457 JUMPI PUSH1 0x40 MSTORE JUMP JUMPDEST MLOAD SWAP1 PUSH1 0x1 PUSH1 0x1 PUSH1 0xA0 SHL SUB DUP3 AND DUP3 SUB PUSH3 0x436 JUMPI JUMP INVALID PUSH1 0x40 PUSH1 0x80 DUP2 MSTORE PUSH1 0x4 SWAP1 DUP2 CALLDATASIZE LT ISZERO PUSH2 0x15 JUMPI PUSH1 0x0 DUP1 REVERT JUMPDEST PUSH1 0x0 SWAP2 DUP3 CALLDATALOAD PUSH1 0xE0 SHR SWAP1 DUP2 PUSH4 0xCEE1725 EQ PUSH2 0xEB1 JUMPI DUP2 PUSH4 0x1157B267 EQ PUSH2 0xE50 JUMPI DUP2 PUSH4 0x1617F190 EQ PUSH2 0xE31 JUMPI DUP2 PUSH4 0x22F0F2F9 EQ PUSH2 0xDD4 JUMPI DUP2 PUSH4 0x26782247 EQ PUSH2 0xDAC JUMPI DUP2 PUSH4 0x28FC8B68 EQ PUSH2 0xD09 JUMPI DUP2 PUSH4 0x2E02394E EQ PUSH2 0xCEA JUMPI DUP2 PUSH4 0x3AB0F330 EQ PUSH2 0xCCB JUMPI DUP2 PUSH4 0x3B116D27 EQ PUSH2 0xC5E JUMPI DUP2 PUSH4 0x452A9320 EQ PUSH2 0xC35 JUMPI DUP2 PUSH4 0x4ADDD5F6 EQ PUSH2 0xBE0 JUMPI DUP2 PUSH4 0x677660E0 EQ PUSH2 0xB11 JUMPI DUP2 PUSH4 0x69F2941D EQ PUSH2 0xAF2 JUMPI DUP2 PUSH4 0x71D00086 EQ PUSH2 0xA4C JUMPI DUP2 PUSH4 0x753868E3 EQ PUSH2 0x9EC JUMPI DUP2 PUSH4 0x762C31BA EQ PUSH2 0x9C3 JUMPI DUP2 PUSH4 0x76A4B8AE EQ PUSH2 0x9A4 JUMPI DUP2 PUSH4 0x847D1E90 EQ PUSH2 0x8F6 JUMPI DUP2 PUSH4 0x8C51D1E4 EQ PUSH2 0x854 JUMPI DUP2 PUSH4 0x9A138974 EQ PUSH2 0x757 JUMPI DUP2 PUSH4 0x9D1C35E2 EQ PUSH2 0x5DF JUMPI DUP2 PUSH4 0x9E090628 EQ PUSH2 0x58E JUMPI DUP2 PUSH4 0xA48158E5 EQ PUSH2 0x553 JUMPI DUP2 PUSH4 0xA4E2D634 EQ PUSH2 0x52F JUMPI DUP2 PUSH4 0xA74B6783 EQ PUSH2 0x46F JUMPI DUP2 PUSH4 0xA9860B97 EQ PUSH2 0x450 JUMPI DUP2 PUSH4 0xBA8A305C EQ PUSH2 0x431 JUMPI DUP2 PUSH4 0xBFF42FE4 EQ PUSH2 0x412 JUMPI DUP2 PUSH4 0xDCCFAC82 EQ PUSH2 0x3D8 JUMPI DUP2 PUSH4 0xE065FC93 EQ PUSH2 0x303 JUMPI DUP2 PUSH4 0xE1D8192C EQ PUSH2 0x2E4 JUMPI DUP2 PUSH4 0xED3CACC1 EQ PUSH2 0x2C5 JUMPI DUP2 PUSH4 0xF301AF42 EQ PUSH2 0x288 JUMPI POP DUP1 PUSH4 0xF851A440 EQ PUSH2 0x260 JUMPI DUP1 PUSH4 0xFB49FE27 EQ PUSH2 0x1F5 JUMPI PUSH4 0xFC0C546A EQ PUSH2 0x1AF JUMPI PUSH1 0x0 DUP1 REVERT JUMPDEST CALLVALUE PUSH2 0x1F1 JUMPI DUP2 PUSH1 0x3 NOT CALLDATASIZE ADD SLT PUSH2 0x1F1 JUMPI MLOAD PUSH32 0x0 PUSH1 0x1 PUSH1 0x1 PUSH1 0xA0 SHL SUB AND DUP2 MSTORE PUSH1 0x20 SWAP1 RETURN JUMPDEST POP DUP1 REVERT JUMPDEST DUP3 CALLVALUE PUSH2 0x25D JUMPI DUP1 PUSH1 0x3 NOT CALLDATASIZE ADD SLT PUSH2 0x25D JUMPI PUSH2 0x21B PUSH1 0x1 DUP1 PUSH1 0xA0 SHL SUB PUSH1 0x3 SLOAD AND CALLER EQ PUSH2 0x1179 JUMP JUMPDEST PUSH12 0xFFFFFFFFFFFFFFFFFFFFFFFF PUSH1 0xA0 SHL PUSH1 0x6 SLOAD AND PUSH1 0x6 SSTORE DUP1 PUSH1 0x7 SSTORE PUSH32 0x7A81C642828249AE51A34CF52E35EBBF08BD3CB36FB5A4B4C8E80261893F5B81 DUP2 DUP1 LOG1 DUP1 RETURN JUMPDEST DUP1 REVERT JUMPDEST POP CALLVALUE PUSH2 0x1F1 JUMPI DUP2 PUSH1 0x3 NOT CALLDATASIZE ADD SLT PUSH2 0x1F1 JUMPI PUSH1 0x2 SLOAD SWAP1 MLOAD PUSH1 0x1 PUSH1 0x1 PUSH1 0xA0 SHL SUB SWAP1 SWAP2 AND DUP2 MSTORE PUSH1 0x20 SWAP1 RETURN JUMPDEST SWAP1 POP CALLVALUE PUSH2 0x2C1 JUMPI PUSH1 0x20 CALLDATASIZE PUSH1 0x3 NOT ADD SLT PUSH2 0x2C1 JUMPI CALLDATALOAD SWAP2 PUSH1 0xF SLOAD DUP4 LT ISZERO PUSH2 0x25D JUMPI POP PUSH2 0x2B3 PUSH1 0x20 SWAP3 PUSH2 0x107C JUMP JUMPDEST SWAP2 SWAP1 SLOAD SWAP1 MLOAD SWAP2 PUSH1 0x3 SHL SHR DUP2 MSTORE RETURN JUMPDEST DUP3 DUP1 REVERT JUMPDEST POP POP CALLVALUE PUSH2 0x1F1 JUMPI DUP2 PUSH1 0x3 NOT CALLDATASIZE ADD SLT PUSH2 0x1F1 JUMPI PUSH1 0x20 SWAP1 PUSH1 0x7 SLOAD SWAP1 MLOAD SWAP1 DUP2 MSTORE RETURN JUMPDEST POP POP CALLVALUE PUSH2 0x1F1 JUMPI DUP2 PUSH1 0x3 NOT CALLDATASIZE ADD SLT PUSH2 0x1F1 JUMPI PUSH1 0x20 SWAP1 PUSH1 0x9 SLOAD SWAP1 MLOAD SWAP1 DUP2 MSTORE RETURN JUMPDEST SWAP2 SWAP1 POP CALLVALUE PUSH2 0x2C1 JUMPI PUSH1 0x20 CALLDATASIZE PUSH1 0x3 NOT ADD SLT PUSH2 0x2C1 JUMPI DUP2 CALLDATALOAD SWAP2 PUSH2 0x32F PUSH1 0x1 DUP1 PUSH1 0xA0 SHL SUB PUSH1 0x2 SLOAD AND CALLER EQ PUSH2 0x10C9 JUMP JUMPDEST DUP3 ISZERO PUSH2 0x38A JUMPI POP PUSH32 0xA9F6EF469A02717105903BBCE25C47A4DB6A0D759D929C5CD9BF295A7033B174 SWAP2 PUSH2 0x384 SWAP2 PUSH2 0x369 PUSH1 0xC SLOAD DUP4 GT PUSH2 0x1C6C JUMP JUMPDEST PUSH1 0xB DUP3 SWAP1 SSTORE MLOAD CALLER DUP2 MSTORE PUSH1 0x20 DUP2 ADD SWAP2 SWAP1 SWAP2 MSTORE SWAP1 DUP2 SWAP1 PUSH1 0x40 DUP3 ADD SWAP1 JUMP JUMPDEST SUB SWAP1 LOG1 DUP1 RETURN JUMPDEST PUSH1 0x20 PUSH1 0x84 SWAP3 MLOAD SWAP2 PUSH3 0x461BCD PUSH1 0xE5 SHL DUP4 MSTORE DUP3 ADD MSTORE PUSH1 0x23 PUSH1 0x24 DUP3 ADD MSTORE PUSH32 0x546865206D617869756D206265742076616C7565206772656174657220746861 PUSH1 0x44 DUP3 ADD MSTORE PUSH3 0x6E203 PUSH1 0xEC SHL PUSH1 0x64 DUP3 ADD MSTORE REVERT JUMPDEST SWAP1 POP CALLVALUE PUSH2 0x2C1 JUMPI PUSH1 0x20 CALLDATASIZE PUSH1 0x3 NOT ADD SLT PUSH2 0x2C1 JUMPI CALLDATALOAD PUSH1 0x1 PUSH1 0x1 PUSH1 0xA0 SHL SUB DUP2 AND SWAP1 DUP2 SWAP1 SUB PUSH2 0x2C1 JUMPI DUP3 DUP3 SWAP2 PUSH1 0x20 SWAP5 MSTORE PUSH1 0x11 DUP5 MSTORE KECCAK256 SLOAD SWAP1 MLOAD SWAP1 DUP2 MSTORE RETURN JUMPDEST POP POP CALLVALUE PUSH2 0x1F1 JUMPI DUP2 PUSH1 0x3 NOT CALLDATASIZE ADD SLT PUSH2 0x1F1 JUMPI PUSH1 0x20 SWAP1 PUSH1 0x5 SLOAD SWAP1 MLOAD SWAP1 DUP2 MSTORE RETURN JUMPDEST POP POP CALLVALUE PUSH2 0x1F1 JUMPI DUP2 PUSH1 0x3 NOT CALLDATASIZE ADD SLT PUSH2 0x1F1 JUMPI PUSH1 0x20 SWAP1 PUSH1 0xB SLOAD SWAP1 MLOAD SWAP1 DUP2 MSTORE RETURN JUMPDEST POP POP CALLVALUE PUSH2 0x1F1 JUMPI DUP2 PUSH1 0x3 NOT CALLDATASIZE ADD SLT PUSH2 0x1F1 JUMPI PUSH1 0x20 SWAP1 PUSH1 0xA SLOAD SWAP1 MLOAD SWAP1 DUP2 MSTORE RETURN JUMPDEST DUP4 DUP4 CALLVALUE PUSH2 0x1F1 JUMPI DUP2 PUSH1 0x3 NOT CALLDATASIZE ADD SLT PUSH2 0x1F1 JUMPI PUSH1 0x2 SLOAD PUSH1 0x1 PUSH1 0x1 PUSH1 0xA0 SHL SUB SWAP2 SWAP1 PUSH2 0x49B CALLER DUP5 DUP4 AND EQ PUSH2 0x10C9 JUMP JUMPDEST DUP5 SLOAD SWAP3 DUP4 AND SWAP3 PUSH2 0x4AC DUP5 ISZERO ISZERO PUSH2 0x1DD2 JUMP JUMPDEST PUSH1 0x5 SLOAD PUSH2 0x4BA DUP2 ISZERO ISZERO PUSH2 0x1DD2 JUMP JUMPDEST PUSH3 0x3F480 DUP2 ADD DUP1 SWAP2 GT PUSH2 0x51C JUMPI PUSH32 0x7CE7EC0B50378FB6C0186FFB5F48325F6593FCB4CA4386F21861AF3129188F5C SWAP5 SWAP3 PUSH1 0x20 SWAP5 SWAP3 PUSH2 0x4FB DUP10 SWAP4 TIMESTAMP LT ISZERO PUSH2 0x1D1F JUMP JUMPDEST PUSH1 0x1 PUSH1 0x1 PUSH1 0xA0 SHL SUB NOT SWAP2 DUP3 AND DUP6 OR PUSH1 0x2 SSTORE AND SWAP1 SSTORE PUSH1 0x5 DUP6 SWAP1 SSTORE MLOAD SWAP1 DUP2 MSTORE LOG1 DUP1 RETURN JUMPDEST PUSH4 0x4E487B71 PUSH1 0xE0 SHL DUP7 MSTORE PUSH1 0x11 DUP8 MSTORE PUSH1 0x24 DUP7 REVERT JUMPDEST POP POP CALLVALUE PUSH2 0x1F1 JUMPI DUP2 PUSH1 0x3 NOT CALLDATASIZE ADD SLT PUSH2 0x1F1 JUMPI PUSH1 0x20 SWAP1 PUSH1 0xFF PUSH1 0x10 SLOAD AND SWAP1 MLOAD SWAP1 ISZERO ISZERO DUP2 MSTORE RETURN JUMPDEST POP POP CALLVALUE PUSH2 0x1F1 JUMPI DUP2 PUSH1 0x3 NOT CALLDATASIZE ADD SLT PUSH2 0x1F1 JUMPI PUSH1 0x20 SWAP1 MLOAD PUSH32 0x0 DUP2 MSTORE RETURN JUMPDEST DUP4 CALLVALUE PUSH2 0x25D JUMPI DUP1 PUSH1 0x3 NOT CALLDATASIZE ADD SLT PUSH2 0x25D JUMPI PUSH2 0x5B4 PUSH1 0x1 DUP1 PUSH1 0xA0 SHL SUB PUSH1 0x3 SLOAD AND CALLER EQ PUSH2 0x1179 JUMP JUMPDEST DUP1 PUSH1 0x8 SSTORE PUSH32 0x94A9B8FB6E694C6C0FBEE0E13E1C5B9AE2DDA4395E3495228A46DC717617C6FA DUP2 DUP1 LOG1 DUP1 RETURN JUMPDEST DUP4 SWAP2 POP CALLVALUE PUSH2 0x1F1 JUMPI DUP2 PUSH1 0x3 NOT CALLDATASIZE ADD SLT PUSH2 0x1F1 JUMPI PUSH1 0x2 SLOAD PUSH1 0x1 PUSH1 0x1 PUSH1 0xA0 SHL SUB SWAP2 SWAP1 PUSH2 0x60C SWAP1 DUP4 AND CALLER EQ PUSH2 0x10C9 JUMP JUMPDEST PUSH1 0x8 SLOAD PUSH2 0x70A JUMPI DUP4 MLOAD DUP1 SWAP3 PUSH4 0x70A08231 PUSH1 0xE0 SHL DUP3 MSTORE ADDRESS DUP4 DUP4 ADD MSTORE DUP2 PUSH1 0x24 PUSH1 0x20 SWAP6 DUP7 SWAP4 PUSH32 0x0 AND GAS STATICCALL SWAP1 DUP2 ISZERO PUSH2 0x700 JUMPI DUP5 SWAP2 PUSH2 0x6CF JUMPI JUMPDEST POP ISZERO PUSH2 0x696 JUMPI POP PUSH32 0xE20350BD5FF90B7BDBCB8229CF46C222A5F5B18F094A1AC5962451445FDA1076 SWAP2 SWAP3 TIMESTAMP PUSH1 0x8 SSTORE MLOAD TIMESTAMP DUP2 MSTORE LOG1 DUP1 RETURN JUMPDEST PUSH1 0x64 SWAP2 DUP5 MLOAD SWAP2 PUSH3 0x461BCD PUSH1 0xE5 SHL DUP4 MSTORE DUP3 ADD MSTORE PUSH1 0x15 PUSH1 0x24 DUP3 ADD MSTORE PUSH21 0x4E6F20746F6B656E7320746F207769746864726177 PUSH1 0x58 SHL PUSH1 0x44 DUP3 ADD MSTORE REVERT JUMPDEST SWAP1 POP DUP3 DUP2 DUP2 RETURNDATASIZE DUP4 GT PUSH2 0x6F9 JUMPI JUMPDEST PUSH2 0x6E6 DUP2 DUP4 PUSH2 0x1264 JUMP JUMPDEST DUP2 ADD SUB SLT PUSH2 0x6F5 JUMPI MLOAD DUP6 PUSH2 0x660 JUMP JUMPDEST DUP4 DUP1 REVERT JUMPDEST POP RETURNDATASIZE PUSH2 0x6DC JUMP JUMPDEST DUP6 MLOAD RETURNDATASIZE DUP7 DUP3 RETURNDATACOPY RETURNDATASIZE SWAP1 REVERT JUMPDEST PUSH1 0x84 SWAP1 PUSH1 0x20 DUP6 MLOAD SWAP2 PUSH3 0x461BCD PUSH1 0xE5 SHL DUP4 MSTORE DUP3 ADD MSTORE PUSH1 0x21 PUSH1 0x24 DUP3 ADD MSTORE PUSH32 0x5769746864726177616C207265717565737420697320696E2070726F67726573 PUSH1 0x44 DUP3 ADD MSTORE PUSH1 0x73 PUSH1 0xF8 SHL PUSH1 0x64 DUP3 ADD MSTORE REVERT JUMPDEST SWAP2 SWAP1 POP CALLVALUE PUSH2 0x2C1 JUMPI DUP3 PUSH1 0x3 NOT CALLDATASIZE ADD SLT PUSH2 0x2C1 JUMPI PUSH2 0x77F PUSH1 0x1 DUP1 PUSH1 0xA0 SHL SUB PUSH1 0x2 SLOAD AND CALLER EQ PUSH2 0x10C9 JUMP JUMPDEST PUSH1 0x9 SLOAD SWAP2 PUSH2 0x78E DUP4 ISZERO ISZERO PUSH2 0x1D7C JUMP JUMPDEST PUSH1 0xA SLOAD PUSH2 0x79C DUP2 ISZERO ISZERO PUSH2 0x1D7C JUMP JUMPDEST PUSH3 0x3F480 DUP2 ADD DUP1 SWAP2 GT PUSH2 0x841 JUMPI TIMESTAMP LT PUSH2 0x7E9 JUMPI POP DUP2 PUSH1 0x20 SWAP2 PUSH32 0x9DC86596CA5F70A96C96B2CB0BE04F02B7DA0A6261F97D43CEBCC921020B1925 SWAP4 PUSH1 0x1 SSTORE DUP5 PUSH1 0x9 SSTORE DUP5 PUSH1 0xA SSTORE MLOAD SWAP1 DUP2 MSTORE LOG1 DUP1 RETURN JUMPDEST PUSH1 0x20 PUSH1 0x84 SWAP3 MLOAD SWAP2 PUSH3 0x461BCD PUSH1 0xE5 SHL DUP4 MSTORE DUP3 ADD MSTORE PUSH1 0x2D PUSH1 0x24 DUP3 ADD MSTORE PUSH32 0x4D75737420776169742033206461797320746F20636F6E6669726D2073656564 PUSH1 0x44 DUP3 ADD MSTORE PUSH13 0x207265656C73206368616E6765 PUSH1 0x98 SHL PUSH1 0x64 DUP3 ADD MSTORE REVERT JUMPDEST PUSH4 0x4E487B71 PUSH1 0xE0 SHL DUP6 MSTORE PUSH1 0x11 DUP3 MSTORE PUSH1 0x24 DUP6 REVERT JUMPDEST SWAP2 SWAP1 POP CALLVALUE PUSH2 0x2C1 JUMPI PUSH1 0x20 CALLDATASIZE PUSH1 0x3 NOT ADD SLT PUSH2 0x2C1 JUMPI DUP2 CALLDATALOAD PUSH1 0x1 PUSH1 0x1 PUSH1 0xA0 SHL SUB DUP2 DUP2 AND SWAP4 SWAP1 SWAP3 SWAP1 DUP5 DUP4 SUB PUSH2 0x8F2 JUMPI PUSH32 0x72B357B8C271031AAD940E03E51F8C172B495A1DD60D6E902D339C7F49604102 SWAP5 PUSH2 0x8B4 PUSH2 0x384 SWAP6 PUSH1 0x2 SLOAD AND CALLER EQ PUSH2 0x10C9 JUMP JUMPDEST PUSH2 0x8BF DUP2 ISZERO ISZERO PUSH2 0x11C5 JUMP JUMPDEST DUP2 SLOAD PUSH1 0x1 PUSH1 0x1 PUSH1 0xA0 SHL SUB NOT AND OR SWAP1 SSTORE TIMESTAMP PUSH1 0x5 DUP2 SWAP1 SSTORE SWAP1 MLOAD PUSH1 0x1 PUSH1 0x1 PUSH1 0xA0 SHL SUB SWAP1 SWAP3 AND DUP3 MSTORE PUSH1 0x20 DUP3 ADD MSTORE SWAP1 DUP2 SWAP1 PUSH1 0x40 DUP3 ADD SWAP1 JUMP JUMPDEST DUP6 DUP1 REVERT JUMPDEST DUP4 DUP4 CALLVALUE PUSH2 0x1F1 JUMPI DUP2 PUSH1 0x3 NOT CALLDATASIZE ADD SLT PUSH2 0x1F1 JUMPI PUSH1 0x3 SLOAD PUSH1 0x1 PUSH1 0x1 PUSH1 0xA0 SHL SUB SWAP2 SWAP1 PUSH2 0x922 CALLER DUP5 DUP4 AND EQ PUSH2 0x1179 JUMP JUMPDEST PUSH1 0x6 SLOAD SWAP3 DUP4 AND SWAP3 PUSH2 0x934 DUP5 ISZERO ISZERO PUSH2 0x1CD3 JUMP JUMPDEST PUSH1 0x7 SLOAD PUSH2 0x942 DUP2 ISZERO ISZERO PUSH2 0x1CD3 JUMP JUMPDEST PUSH3 0x3F480 DUP2 ADD DUP1 SWAP2 GT PUSH2 0x51C JUMPI SWAP2 PUSH1 0x20 SWAP4 SWAP2 PUSH2 0x982 PUSH32 0x1C6520CF747E4632B43B535B91AFE3950CCABC4AB29BBD89E3C1F6B0BA05655 SWAP7 SWAP5 TIMESTAMP LT ISZERO PUSH2 0x1D1F JUMP JUMPDEST PUSH1 0x1 PUSH1 0x1 PUSH1 0xA0 SHL SUB NOT SWAP2 DUP3 AND DUP5 OR PUSH1 0x3 SSTORE AND PUSH1 0x6 SSTORE PUSH1 0x7 DUP6 SWAP1 SSTORE MLOAD SWAP1 DUP2 MSTORE LOG1 DUP1 RETURN JUMPDEST POP POP CALLVALUE PUSH2 0x1F1 JUMPI DUP2 PUSH1 0x3 NOT CALLDATASIZE ADD SLT PUSH2 0x1F1 JUMPI PUSH1 0x20 SWAP1 PUSH1 0xE SLOAD SWAP1 MLOAD SWAP1 DUP2 MSTORE RETURN JUMPDEST POP POP CALLVALUE PUSH2 0x1F1 JUMPI DUP2 PUSH1 0x3 NOT CALLDATASIZE ADD SLT PUSH2 0x1F1 JUMPI PUSH1 0x6 SLOAD SWAP1 MLOAD PUSH1 0x1 PUSH1 0x1 PUSH1 0xA0 SHL SUB SWAP1 SWAP2 AND DUP2 MSTORE PUSH1 0x20 SWAP1 RETURN JUMPDEST POP POP CALLVALUE PUSH2 0x1F1 JUMPI DUP2 PUSH1 0x3 NOT CALLDATASIZE ADD SLT PUSH2 0x1F1 JUMPI PUSH1 0x20 PUSH32 0x46A289A85516D6B63CEC7F685E3F5398070F9FC5FB8E3D14021ADD023FEC568F SWAP2 PUSH2 0xA37 PUSH1 0x1 DUP1 PUSH1 0xA0 SHL SUB PUSH1 0x3 SLOAD AND CALLER EQ PUSH2 0x1179 JUMP JUMPDEST PUSH1 0x1 PUSH1 0xFF NOT PUSH1 0x10 SLOAD AND OR PUSH1 0x10 SSTORE MLOAD CALLER DUP2 MSTORE LOG1 DUP1 RETURN JUMPDEST SWAP2 SWAP1 POP CALLVALUE PUSH2 0x2C1 JUMPI PUSH1 0x20 CALLDATASIZE PUSH1 0x3 NOT ADD SLT PUSH2 0x2C1 JUMPI DUP2 CALLDATALOAD SWAP2 PUSH2 0xA78 PUSH1 0x1 DUP1 PUSH1 0xA0 SHL SUB PUSH1 0x2 SLOAD AND CALLER EQ PUSH2 0x10C9 JUMP JUMPDEST PUSH1 0x32 DUP4 LT ISZERO PUSH2 0xAB7 JUMPI POP DUP2 PUSH1 0x20 SWAP2 PUSH32 0x9B161A37C93B297FE93D8F6F47F959BB91BD34A421B3892B0C91674CE107FB24 SWAP4 PUSH1 0x9 SSTORE TIMESTAMP PUSH1 0xA SSTORE MLOAD SWAP1 DUP2 MSTORE LOG1 DUP1 RETURN JUMPDEST PUSH1 0x20 PUSH1 0x64 SWAP3 MLOAD SWAP2 PUSH3 0x461BCD PUSH1 0xE5 SHL DUP4 MSTORE DUP3 ADD MSTORE PUSH1 0x16 PUSH1 0x24 DUP3 ADD MSTORE PUSH22 0x496E76616C69642077696E50726F626162696C697479 PUSH1 0x50 SHL PUSH1 0x44 DUP3 ADD MSTORE REVERT JUMPDEST POP POP CALLVALUE PUSH2 0x1F1 JUMPI DUP2 PUSH1 0x3 NOT CALLDATASIZE ADD SLT PUSH2 0x1F1 JUMPI PUSH1 0x20 SWAP1 PUSH1 0x1 SLOAD SWAP1 MLOAD SWAP1 DUP2 MSTORE RETURN JUMPDEST SWAP2 SWAP1 POP CALLVALUE PUSH2 0x2C1 JUMPI PUSH1 0x20 CALLDATASIZE PUSH1 0x3 NOT ADD SLT PUSH2 0x2C1 JUMPI DUP2 CALLDATALOAD SWAP2 PUSH2 0xB3D PUSH1 0x1 DUP1 PUSH1 0xA0 SHL SUB PUSH1 0x2 SLOAD AND CALLER EQ PUSH2 0x10C9 JUMP JUMPDEST DUP3 ISZERO PUSH2 0xB92 JUMPI POP DUP2 PUSH2 0x384 SWAP2 PUSH2 0xB77 PUSH32 0x96FD935283EBE139EFF1231BA7E60B91334B7E1E1C67C91C68B58F8D4A7B211F SWAP5 PUSH1 0xB SLOAD GT PUSH2 0x1C6C JUMP JUMPDEST PUSH1 0xC DUP3 SWAP1 SSTORE MLOAD CALLER DUP2 MSTORE PUSH1 0x20 DUP2 ADD SWAP2 SWAP1 SWAP2 MSTORE SWAP1 DUP2 SWAP1 PUSH1 0x40 DUP3 ADD SWAP1 JUMP JUMPDEST PUSH1 0x20 PUSH1 0x84 SWAP3 MLOAD SWAP2 PUSH3 0x461BCD PUSH1 0xE5 SHL DUP4 MSTORE DUP3 ADD MSTORE PUSH1 0x23 PUSH1 0x24 DUP3 ADD MSTORE PUSH32 0x546865206D696E69756D206265742076616C7565206772656174657220746861 PUSH1 0x44 DUP3 ADD MSTORE PUSH3 0x6E203 PUSH1 0xEC SHL PUSH1 0x64 DUP3 ADD MSTORE REVERT JUMPDEST DUP4 CALLVALUE PUSH2 0x25D JUMPI DUP1 PUSH1 0x3 NOT CALLDATASIZE ADD SLT PUSH2 0x25D JUMPI PUSH2 0xC06 PUSH1 0x1 DUP1 PUSH1 0xA0 SHL SUB PUSH1 0x2 SLOAD AND CALLER EQ PUSH2 0x10C9 JUMP JUMPDEST DUP1 PUSH1 0x9 SSTORE DUP1 PUSH1 0xA SSTORE PUSH32 0x9EF48CACEFE12AB0A801D57BC51BEB3A36523278E29346ED7824936443456502 DUP2 DUP1 LOG1 DUP1 RETURN JUMPDEST POP POP CALLVALUE PUSH2 0x1F1 JUMPI DUP2 PUSH1 0x3 NOT CALLDATASIZE ADD SLT PUSH2 0x1F1 JUMPI PUSH1 0x3 SLOAD SWAP1 MLOAD PUSH1 0x1 PUSH1 0x1 PUSH1 0xA0 SHL SUB SWAP1 SWAP2 AND DUP2 MSTORE PUSH1 0x20 SWAP1 RETURN JUMPDEST DUP4 SWAP1 PUSH1 0x80 CALLDATASIZE PUSH1 0x3 NOT ADD SLT PUSH2 0x1F1 JUMPI PUSH1 0x64 CALLDATALOAD SWAP1 PUSH8 0xFFFFFFFFFFFFFFFF SWAP1 DUP2 DUP4 GT PUSH2 0x6F5 JUMPI CALLDATASIZE PUSH1 0x23 DUP5 ADD SLT ISZERO PUSH2 0x6F5 JUMPI DUP3 DUP2 ADD CALLDATALOAD SWAP2 DUP3 GT PUSH2 0x6F5 JUMPI CALLDATASIZE PUSH1 0x24 DUP4 DUP6 ADD ADD GT PUSH2 0x6F5 JUMPI PUSH1 0x24 PUSH2 0xCC8 SWAP4 PUSH2 0xCB8 PUSH1 0xFF PUSH1 0x10 SLOAD AND ISZERO PUSH2 0x1115 JUMP JUMPDEST ADD SWAP1 PUSH1 0x44 CALLDATALOAD SWAP1 PUSH1 0x24 CALLDATALOAD SWAP1 CALLDATALOAD PUSH2 0x1286 JUMP JUMPDEST DUP1 RETURN JUMPDEST POP POP CALLVALUE PUSH2 0x1F1 JUMPI DUP2 PUSH1 0x3 NOT CALLDATASIZE ADD SLT PUSH2 0x1F1 JUMPI PUSH1 0x20 SWAP1 PUSH1 0x8 SLOAD SWAP1 MLOAD SWAP1 DUP2 MSTORE RETURN JUMPDEST POP POP CALLVALUE PUSH2 0x1F1 JUMPI DUP2 PUSH1 0x3 NOT CALLDATASIZE ADD SLT PUSH2 0x1F1 JUMPI PUSH1 0x20 SWAP1 PUSH1 0xD SLOAD SWAP1 MLOAD SWAP1 DUP2 MSTORE RETURN JUMPDEST SWAP1 POP CALLVALUE PUSH2 0x2C1 JUMPI PUSH1 0x20 CALLDATASIZE PUSH1 0x3 NOT ADD SLT PUSH2 0x2C1 JUMPI PUSH1 0x1 PUSH1 0x1 PUSH1 0xA0 SHL SUB SWAP1 CALLDATALOAD DUP2 DUP2 AND SWAP3 DUP4 DUP3 SUB PUSH2 0xDA8 JUMPI PUSH32 0x6C437B1584202B77482374DD2215B75E975B0BE0768B92ED5E4B048B0E109879 SWAP4 PUSH2 0xD65 PUSH2 0x384 SWAP5 PUSH1 0x3 SLOAD AND CALLER EQ PUSH2 0x1179 JUMP JUMPDEST PUSH2 0xD70 DUP2 ISZERO ISZERO PUSH2 0x11C5 JUMP JUMPDEST PUSH1 0x6 DUP1 SLOAD PUSH1 0x1 PUSH1 0x1 PUSH1 0xA0 SHL SUB NOT AND SWAP2 SWAP1 SWAP2 OR SWAP1 SSTORE TIMESTAMP PUSH1 0x7 DUP2 SWAP1 SSTORE SWAP1 MLOAD PUSH1 0x1 PUSH1 0x1 PUSH1 0xA0 SHL SUB SWAP1 SWAP3 AND DUP3 MSTORE PUSH1 0x20 DUP3 ADD MSTORE SWAP1 DUP2 SWAP1 PUSH1 0x40 DUP3 ADD SWAP1 JUMP JUMPDEST DUP5 DUP1 REVERT JUMPDEST SWAP1 POP CALLVALUE PUSH2 0x2C1 JUMPI DUP3 PUSH1 0x3 NOT CALLDATASIZE ADD SLT PUSH2 0x2C1 JUMPI SLOAD SWAP1 MLOAD PUSH1 0x1 PUSH1 0x1 PUSH1 0xA0 SHL SUB SWAP1 SWAP2 AND DUP2 MSTORE PUSH1 0x20 SWAP2 POP RETURN JUMPDEST POP POP CALLVALUE PUSH2 0x1F1 JUMPI DUP2 PUSH1 0x3 NOT CALLDATASIZE ADD SLT PUSH2 0x1F1 JUMPI PUSH1 0x20 PUSH32 0xF08396B9FD122C2EF99AEC183D994D39FA54CC25773E4B8A6ED20AD08AEF02C9 SWAP2 PUSH2 0xE1F PUSH1 0x1 DUP1 PUSH1 0xA0 SHL SUB PUSH1 0x3 SLOAD AND CALLER EQ PUSH2 0x1179 JUMP JUMPDEST PUSH1 0xFF NOT PUSH1 0x10 SLOAD AND PUSH1 0x10 SSTORE MLOAD CALLER DUP2 MSTORE LOG1 DUP1 RETURN JUMPDEST POP POP CALLVALUE PUSH2 0x1F1 JUMPI DUP2 PUSH1 0x3 NOT CALLDATASIZE ADD SLT PUSH2 0x1F1 JUMPI PUSH1 0x20 SWAP1 PUSH1 0xC SLOAD SWAP1 MLOAD SWAP1 DUP2 MSTORE RETURN JUMPDEST DUP4 SWAP1 CALLVALUE PUSH2 0x1F1 JUMPI DUP2 PUSH1 0x3 NOT CALLDATASIZE ADD SLT PUSH2 0x1F1 JUMPI PUSH2 0xE77 PUSH1 0x1 DUP1 PUSH1 0xA0 SHL SUB PUSH1 0x3 SLOAD AND CALLER EQ PUSH2 0x1179 JUMP JUMPDEST DUP1 SLOAD PUSH1 0x1 PUSH1 0x1 PUSH1 0xA0 SHL SUB NOT AND SWAP1 SSTORE PUSH1 0x5 DUP2 SWAP1 SSTORE PUSH32 0x7AD662E4DB36FE46EE1697376F8457B103123C200DE262CA4BAF9F5CAD0A1E8 DUP2 DUP1 LOG1 DUP1 RETURN JUMPDEST DUP4 SWAP2 POP CALLVALUE PUSH2 0x1F1 JUMPI PUSH1 0x20 CALLDATASIZE PUSH1 0x3 NOT ADD SLT PUSH2 0x1F1 JUMPI PUSH1 0x2 SLOAD DUP2 CALLDATALOAD SWAP2 PUSH1 0x1 PUSH1 0x1 PUSH1 0xA0 SHL SUB SWAP2 DUP3 AND SWAP1 PUSH2 0xEE2 CALLER DUP4 EQ PUSH2 0x10C9 JUMP JUMPDEST PUSH1 0x2 DUP6 SLOAD EQ PUSH2 0x1039 JUMPI PUSH1 0x2 DUP6 SSTORE PUSH2 0xEFE PUSH1 0xFF PUSH1 0x10 SLOAD AND ISZERO PUSH2 0x1115 JUMP JUMPDEST PUSH1 0x8 SLOAD DUP1 ISZERO PUSH2 0x1000 JUMPI PUSH3 0x93A80 DUP2 ADD DUP1 SWAP2 GT PUSH2 0xFED JUMPI TIMESTAMP LT PUSH2 0xF9F JUMPI POP DUP4 SWAP5 SWAP2 PUSH2 0xF71 DUP5 PUSH2 0xF95 SWAP4 PUSH32 0x9AD672D4E7C4892DA934D1051932EBE9EC4B6EC8C3F40D569176DB3E93E5ABE SWAP8 PUSH1 0x8 SSTORE PUSH32 0x0 PUSH2 0x1E1E JUMP JUMPDEST PUSH1 0x2 SLOAD SWAP3 MLOAD SWAP3 AND PUSH1 0x1 PUSH1 0x1 PUSH1 0xA0 SHL SUB AND DUP3 MSTORE PUSH1 0x20 DUP3 ADD SWAP3 SWAP1 SWAP3 MSTORE SWAP1 DUP2 SWAP1 PUSH1 0x40 DUP3 ADD SWAP1 JUMP JUMPDEST SUB SWAP1 LOG1 PUSH1 0x1 DUP2 SSTORE DUP1 RETURN JUMPDEST PUSH1 0x84 SWAP1 PUSH1 0x20 DUP8 MLOAD SWAP2 PUSH3 0x461BCD PUSH1 0xE5 SHL DUP4 MSTORE DUP3 ADD MSTORE PUSH1 0x22 PUSH1 0x24 DUP3 ADD MSTORE PUSH32 0x4D75737420776169742037206461797320746F2077697468647261772066756E PUSH1 0x44 DUP3 ADD MSTORE PUSH2 0x6473 PUSH1 0xF0 SHL PUSH1 0x64 DUP3 ADD MSTORE REVERT JUMPDEST PUSH4 0x4E487B71 PUSH1 0xE0 SHL DUP7 MSTORE PUSH1 0x11 DUP3 MSTORE PUSH1 0x24 DUP7 REVERT JUMPDEST DUP7 MLOAD PUSH3 0x461BCD PUSH1 0xE5 SHL DUP2 MSTORE PUSH1 0x20 DUP2 DUP5 ADD MSTORE PUSH1 0x13 PUSH1 0x24 DUP3 ADD MSTORE PUSH19 0x4E6F2070656E64696E67207769746864726177 PUSH1 0x68 SHL PUSH1 0x44 DUP3 ADD MSTORE PUSH1 0x64 SWAP1 REVERT JUMPDEST PUSH1 0x64 SWAP1 PUSH1 0x20 DUP8 MLOAD SWAP2 PUSH3 0x461BCD PUSH1 0xE5 SHL DUP4 MSTORE DUP3 ADD MSTORE PUSH1 0x1F PUSH1 0x24 DUP3 ADD MSTORE PUSH32 0x5265656E7472616E637947756172643A207265656E7472616E742063616C6C00 PUSH1 0x44 DUP3 ADD MSTORE REVERT JUMPDEST PUSH1 0xF SLOAD DUP2 LT ISZERO PUSH2 0x10B3 JUMPI PUSH1 0xF PUSH1 0x0 MSTORE PUSH32 0x8D1108E10BCB7C27DDDFC02ED9D693A074039D026CF4EA4240B40F7D581AC802 ADD SWAP1 PUSH1 0x0 SWAP1 JUMP JUMPDEST PUSH4 0x4E487B71 PUSH1 0xE0 SHL PUSH1 0x0 MSTORE PUSH1 0x32 PUSH1 0x4 MSTORE PUSH1 0x24 PUSH1 0x0 REVERT JUMPDEST ISZERO PUSH2 0x10D0 JUMPI JUMP JUMPDEST PUSH1 0x40 MLOAD PUSH3 0x461BCD PUSH1 0xE5 SHL DUP2 MSTORE PUSH1 0x20 PUSH1 0x4 DUP3 ADD MSTORE PUSH1 0x1B PUSH1 0x24 DUP3 ADD MSTORE PUSH32 0x4F6E6C792061646D696E2063616E206578656375746520746869730000000000 PUSH1 0x44 DUP3 ADD MSTORE PUSH1 0x64 SWAP1 REVERT JUMPDEST ISZERO PUSH2 0x111C JUMPI JUMP JUMPDEST PUSH1 0x40 MLOAD PUSH3 0x461BCD PUSH1 0xE5 SHL DUP2 MSTORE PUSH1 0x20 PUSH1 0x4 DUP3 ADD MSTORE PUSH1 0x12 PUSH1 0x24 DUP3 ADD MSTORE PUSH18 0x10DBDB9D1C9858DD081A5CC81B1BD8DAD959 PUSH1 0x72 SHL PUSH1 0x44 DUP3 ADD MSTORE PUSH1 0x64 SWAP1 REVERT JUMPDEST SWAP2 SWAP1 DUP3 ADD DUP1 SWAP3 GT PUSH2 0x1163 JUMPI JUMP JUMPDEST PUSH4 0x4E487B71 PUSH1 0xE0 SHL PUSH1 0x0 MSTORE PUSH1 0x11 PUSH1 0x4 MSTORE PUSH1 0x24 PUSH1 0x0 REVERT JUMPDEST ISZERO PUSH2 0x1180 JUMPI JUMP JUMPDEST PUSH1 0x40 MLOAD PUSH3 0x461BCD PUSH1 0xE5 SHL DUP2 MSTORE PUSH1 0x20 PUSH1 0x4 DUP3 ADD MSTORE PUSH1 0x1E PUSH1 0x24 DUP3 ADD MSTORE PUSH32 0x4F6E6C7920677561726469616E2063616E206578656375746520746869730000 PUSH1 0x44 DUP3 ADD MSTORE PUSH1 0x64 SWAP1 REVERT JUMPDEST ISZERO PUSH2 0x11CC JUMPI JUMP JUMPDEST PUSH1 0x40 MLOAD PUSH3 0x461BCD PUSH1 0xE5 SHL DUP2 MSTORE PUSH1 0x20 PUSH1 0x4 DUP3 ADD MSTORE PUSH1 0xF PUSH1 0x24 DUP3 ADD MSTORE PUSH15 0x496E76616C69642061646472657373 PUSH1 0x88 SHL PUSH1 0x44 DUP3 ADD MSTORE PUSH1 0x64 SWAP1 REVERT JUMPDEST DUP2 DUP2 MUL SWAP3 SWAP2 DUP2 ISZERO SWAP2 DUP5 DIV EQ OR ISZERO PUSH2 0x1163 JUMPI JUMP JUMPDEST PUSH1 0x60 DUP2 ADD SWAP1 DUP2 LT PUSH8 0xFFFFFFFFFFFFFFFF DUP3 GT OR PUSH2 0x1232 JUMPI PUSH1 0x40 MSTORE JUMP JUMPDEST PUSH4 0x4E487B71 PUSH1 0xE0 SHL PUSH1 0x0 MSTORE PUSH1 0x41 PUSH1 0x4 MSTORE PUSH1 0x24 PUSH1 0x0 REVERT JUMPDEST PUSH1 0xA0 DUP2 ADD SWAP1 DUP2 LT PUSH8 0xFFFFFFFFFFFFFFFF DUP3 GT OR PUSH2 0x1232 JUMPI PUSH1 0x40 MSTORE JUMP JUMPDEST SWAP1 PUSH1 0x1F DUP1 NOT SWAP2 ADD AND DUP2 ADD SWAP1 DUP2 LT PUSH8 0xFFFFFFFFFFFFFFFF DUP3 GT OR PUSH2 0x1232 JUMPI PUSH1 0x40 MSTORE JUMP JUMPDEST SWAP4 SWAP3 SWAP1 SWAP2 SWAP3 PUSH1 0xC SLOAD DUP4 LT PUSH2 0x1C01 JUMPI PUSH1 0xB SLOAD DUP4 GT PUSH2 0x1BBC JUMPI DUP5 ISZERO PUSH2 0x1B64 JUMPI PUSH1 0xE SLOAD DUP6 GT PUSH2 0x1B02 JUMPI PUSH1 0xD SLOAD DUP6 DUP5 DIV GT PUSH2 0x1A97 JUMPI PUSH1 0xA PUSH2 0x12E3 PUSH32 0x0 DUP6 PUSH2 0x1203 JUMP JUMPDEST PUSH1 0x40 MLOAD PUSH4 0x70A08231 PUSH1 0xE0 SHL DUP2 MSTORE ADDRESS PUSH1 0x4 DUP3 ADD MSTORE PUSH1 0x1 PUSH1 0x1 PUSH1 0xA0 SHL SUB SWAP5 SWAP3 SWAP1 SWAP2 DIV SWAP1 PUSH1 0x20 DUP2 PUSH1 0x24 DUP2 PUSH32 0x0 DUP10 AND GAS STATICCALL SWAP1 DUP2 ISZERO PUSH2 0x177A JUMPI PUSH1 0x0 SWAP2 PUSH2 0x1A65 JUMPI JUMPDEST POP LT PUSH2 0x1A20 JUMPI DUP5 TIMESTAMP LT PUSH2 0x19DB JUMPI PUSH1 0x3C DUP6 ADD DUP1 DUP7 GT PUSH2 0x1163 JUMPI TIMESTAMP GT PUSH2 0x19A2 JUMPI CALLER PUSH1 0x0 MSTORE PUSH1 0x11 PUSH1 0x20 MSTORE PUSH1 0x40 PUSH1 0x0 KECCAK256 SLOAD DUP6 GT ISZERO PUSH2 0x195D JUMPI DUP5 PUSH1 0x40 DUP1 MLOAD PUSH2 0x1380 DUP2 PUSH2 0x1216 JUMP JUMPDEST CALLER DUP2 MSTORE DUP7 PUSH1 0x20 DUP3 ADD MSTORE ADD MSTORE PUSH1 0x40 MLOAD PUSH32 0xE81D1CDF23BDC0A6BEF5035503A1014285A41CC67C1E91E29D9211B707E3CF9 PUSH1 0x20 DUP3 ADD MSTORE CALLER PUSH1 0x40 DUP3 ADD MSTORE DUP5 PUSH1 0x60 DUP3 ADD MSTORE DUP6 PUSH1 0x80 DUP3 ADD MSTORE PUSH1 0x80 DUP2 MSTORE PUSH2 0x13D3 DUP2 PUSH2 0x1248 JUMP JUMPDEST PUSH1 0x20 DUP2 MLOAD SWAP2 ADD KECCAK256 PUSH1 0x40 MLOAD SWAP1 PUSH2 0x1901 PUSH1 0xF0 SHL PUSH1 0x20 DUP4 ADD MSTORE PUSH32 0x0 PUSH1 0x22 DUP4 ADD MSTORE PUSH1 0x42 DUP3 ADD MSTORE PUSH1 0x42 DUP2 MSTORE DUP1 PUSH1 0x80 DUP2 ADD LT PUSH8 0xFFFFFFFFFFFFFFFF PUSH1 0x80 DUP4 ADD GT OR PUSH2 0x1232 JUMPI PUSH1 0x80 DUP2 ADD PUSH1 0x40 MSTORE PUSH1 0x20 DUP2 MLOAD SWAP2 ADD KECCAK256 PUSH2 0x1448 DUP4 PUSH2 0x1E61 JUMP JUMPDEST SWAP1 PUSH2 0x1456 PUSH1 0x40 MLOAD SWAP3 DUP4 PUSH2 0x1264 JUMP JUMPDEST DUP4 DUP3 MSTORE CALLDATASIZE DUP5 DUP5 ADD GT PUSH2 0x176D JUMPI PUSH1 0x0 PUSH1 0x20 DUP6 PUSH2 0x1484 SWAP7 PUSH2 0x147C SWAP7 DUP4 DUP8 ADD CALLDATACOPY DUP5 ADD ADD MSTORE PUSH2 0x1FD7 JUMP JUMPDEST SWAP2 SWAP1 SWAP2 PUSH2 0x200F JUMP JUMPDEST DUP2 DUP1 PUSH1 0x2 SLOAD AND SWAP2 AND SUB PUSH2 0x1924 JUMPI CALLER PUSH1 0x0 MSTORE PUSH1 0x11 PUSH1 0x20 MSTORE DUP3 PUSH1 0x40 PUSH1 0x0 KECCAK256 SSTORE PUSH2 0x14F9 PUSH1 0x40 MLOAD PUSH4 0x23B872DD PUSH1 0xE0 SHL PUSH1 0x20 DUP3 ADD MSTORE CALLER PUSH1 0x24 DUP3 ADD MSTORE ADDRESS PUSH1 0x44 DUP3 ADD MSTORE DUP4 PUSH1 0x64 DUP3 ADD MSTORE PUSH1 0x64 DUP2 MSTORE PUSH2 0x14D3 DUP2 PUSH2 0x1248 JUMP JUMPDEST PUSH32 0x0 PUSH2 0x1EA9 JUMP JUMPDEST PUSH2 0x1502 DUP5 PUSH2 0x1E7D JUMP JUMPDEST SWAP3 PUSH2 0x1510 PUSH1 0x40 MLOAD SWAP5 DUP6 PUSH2 0x1264 JUMP JUMPDEST DUP5 DUP5 MSTORE PUSH2 0x151C DUP6 PUSH2 0x1E7D JUMP JUMPDEST PUSH1 0x1F NOT ADD CALLDATASIZE PUSH1 0x20 DUP7 ADD CALLDATACOPY PUSH1 0x40 MLOAD SWAP1 PUSH2 0x1533 DUP3 PUSH2 0x1216 JUMP JUMPDEST PUSH1 0x4 DUP3 MSTORE PUSH1 0x2 PUSH1 0x20 DUP4 ADD MSTORE PUSH1 0x3 PUSH1 0x40 DUP4 ADD MSTORE PUSH1 0x40 MLOAD DUP1 PUSH1 0x40 DUP2 ADD LT PUSH8 0xFFFFFFFFFFFFFFFF PUSH1 0x40 DUP4 ADD GT OR PUSH2 0x1232 JUMPI PUSH1 0x40 DUP2 ADD PUSH1 0x40 MSTORE PUSH1 0x1 DUP2 MSTORE PUSH1 0x0 PUSH1 0x20 DUP3 ADD MSTORE PUSH1 0x0 SWAP2 PUSH1 0x1 SLOAD SWAP2 PUSH1 0x0 NOT NUMBER ADD SWAP2 NUMBER DUP4 GT JUMPDEST DUP11 DUP7 LT PUSH2 0x17C6 JUMPI POP POP POP POP POP POP POP PUSH1 0x0 SWAP4 DUP4 MLOAD DUP6 SWAP2 JUMPDEST DUP2 DUP4 LT PUSH2 0x1786 JUMPI POP POP POP PUSH1 0x20 PUSH1 0x24 SWAP2 PUSH1 0x40 MLOAD SWAP3 DUP4 DUP1 SWAP3 PUSH4 0x70A08231 PUSH1 0xE0 SHL DUP3 MSTORE ADDRESS PUSH1 0x4 DUP4 ADD MSTORE PUSH32 0x0 AND GAS STATICCALL SWAP1 DUP2 ISZERO PUSH2 0x177A JUMPI PUSH1 0x0 SWAP2 PUSH2 0x1743 JUMPI JUMPDEST POP DUP4 GT PUSH2 0x16A3 JUMPI POP DUP2 PUSH2 0x1673 JUMPI JUMPDEST PUSH1 0x40 MLOAD SWAP2 PUSH1 0x60 DUP4 ADD CALLER DUP5 MSTORE PUSH1 0x60 PUSH1 0x20 DUP6 ADD MSTORE DUP3 MLOAD DUP1 SWAP2 MSTORE PUSH1 0x20 PUSH1 0x80 DUP6 ADD SWAP4 ADD SWAP1 PUSH1 0x0 JUMPDEST DUP2 DUP2 LT PUSH2 0x165D JUMPI POP POP POP SWAP2 DUP1 SWAP2 PUSH32 0xA7770222A2F5520A0254EE36217269A0AF4529ACEACBCE72C4A9DBB4F26AF671 SWAP4 PUSH1 0x40 DUP4 ADD MSTORE SUB SWAP1 LOG1 JUMP JUMPDEST DUP3 MLOAD DUP6 MSTORE PUSH1 0x20 SWAP5 DUP6 ADD SWAP5 SWAP1 SWAP3 ADD SWAP2 PUSH1 0x1 ADD PUSH2 0x1624 JUMP JUMPDEST PUSH2 0x169E DUP3 CALLER PUSH32 0x0 PUSH2 0x1E1E JUMP JUMPDEST PUSH2 0x1601 JUMP JUMPDEST PUSH2 0x16D0 SWAP2 SWAP3 POP CALLER PUSH32 0x0 PUSH2 0x1E1E JUMP JUMPDEST PUSH1 0x40 MLOAD SWAP1 PUSH1 0x60 DUP3 ADD CALLER DUP4 MSTORE PUSH1 0x60 PUSH1 0x20 DUP5 ADD MSTORE DUP2 MLOAD DUP1 SWAP2 MSTORE PUSH1 0x20 PUSH1 0x80 DUP5 ADD SWAP3 ADD SWAP1 PUSH1 0x0 JUMPDEST DUP2 DUP2 LT PUSH2 0x172D JUMPI POP POP POP SWAP1 DUP1 PUSH32 0xA7770222A2F5520A0254EE36217269A0AF4529ACEACBCE72C4A9DBB4F26AF671 SWAP3 PUSH1 0x0 PUSH1 0x40 DUP4 ADD MSTORE SUB SWAP1 LOG1 JUMP JUMPDEST DUP3 MLOAD DUP5 MSTORE PUSH1 0x20 SWAP4 DUP5 ADD SWAP4 SWAP1 SWAP3 ADD SWAP2 PUSH1 0x1 ADD PUSH2 0x16F3 JUMP JUMPDEST SWAP1 POP PUSH1 0x20 DUP2 RETURNDATASIZE PUSH1 0x20 GT PUSH2 0x1772 JUMPI JUMPDEST DUP2 PUSH2 0x175E PUSH1 0x20 SWAP4 DUP4 PUSH2 0x1264 JUMP JUMPDEST DUP2 ADD SUB SLT PUSH2 0x176D JUMPI MLOAD CODESIZE PUSH2 0x15F3 JUMP JUMPDEST PUSH1 0x0 DUP1 REVERT JUMPDEST RETURNDATASIZE SWAP2 POP PUSH2 0x1751 JUMP JUMPDEST PUSH1 0x40 MLOAD RETURNDATASIZE PUSH1 0x0 DUP3 RETURNDATACOPY RETURNDATASIZE SWAP1 REVERT JUMPDEST SWAP1 SWAP2 SWAP6 PUSH2 0x17BD PUSH1 0x1 SWAP2 PUSH1 0xA PUSH2 0x17B6 PUSH2 0x17A7 PUSH2 0x17A1 DUP13 DUP13 PUSH2 0x1E95 JUMP JUMPDEST MLOAD PUSH2 0x107C JUMP JUMPDEST SWAP1 SLOAD SWAP1 PUSH1 0x3 SHL SHR DUP7 DUP11 DIV PUSH2 0x1203 JUMP JUMPDEST DIV SWAP1 PUSH2 0x1156 JUMP JUMPDEST SWAP7 ADD SWAP2 SWAP1 PUSH2 0x159A JUMP JUMPDEST PUSH1 0x2 DUP7 ADD DUP7 GT PUSH2 0x1163 JUMPI PUSH2 0x1163 JUMPI PUSH1 0x64 SWAP5 PUSH2 0x3E8 PUSH1 0x40 MLOAD PUSH1 0x20 DUP2 ADD SWAP1 CALLER PUSH1 0x60 SHL DUP3 MSTORE DUP7 BLOCKHASH PUSH1 0x34 DUP3 ADD MSTORE PREVRANDAO PUSH1 0x54 DUP3 ADD MSTORE PUSH1 0x2 DUP5 ADD PUSH1 0x74 DUP3 ADD MSTORE PUSH1 0x74 DUP2 MSTORE PUSH2 0x180B DUP2 PUSH2 0x1248 JUMP JUMPDEST MLOAD SWAP1 KECCAK256 MOD PUSH2 0x1819 DUP2 DUP5 PUSH2 0x1156 JUMP JUMPDEST SWAP1 DUP7 PUSH1 0x0 SWAP9 DUP10 SWAP4 PUSH1 0x40 MLOAD PUSH1 0x20 DUP2 ADD SWAP2 CALLER PUSH1 0x60 SHL DUP4 MSTORE DUP11 BLOCKHASH PUSH1 0x34 DUP4 ADD MSTORE PREVRANDAO PUSH1 0x54 DUP4 ADD MSTORE PUSH1 0x74 DUP3 ADD MSTORE PUSH1 0x74 DUP2 MSTORE PUSH2 0x184D DUP2 PUSH2 0x1248 JUMP JUMPDEST MLOAD SWAP1 KECCAK256 MOD LT ISZERO PUSH2 0x18C0 JUMPI PUSH2 0x1861 SWAP1 DUP5 PUSH2 0x1156 JUMP JUMPDEST SWAP1 PUSH2 0x1163 JUMPI PUSH1 0x3 SWAP1 PUSH1 0x40 MLOAD PUSH1 0x20 DUP2 ADD SWAP2 CALLER PUSH1 0x60 SHL DUP4 MSTORE DUP8 BLOCKHASH PUSH1 0x34 DUP4 ADD MSTORE PREVRANDAO PUSH1 0x54 DUP4 ADD MSTORE PUSH1 0x74 DUP3 ADD MSTORE PUSH1 0x74 DUP2 MSTORE PUSH2 0x1896 DUP2 PUSH2 0x1248 JUMP JUMPDEST MLOAD SWAP1 KECCAK256 MOD SWAP1 PUSH1 0x3 DUP3 LT ISZERO PUSH2 0x10B3 JUMPI PUSH1 0x1 SWAP2 PUSH1 0x5 SHL DUP9 ADD MLOAD PUSH2 0x18B7 DUP3 DUP14 PUSH2 0x1E95 JUMP JUMPDEST MSTORE JUMPDEST ADD SWAP5 PUSH2 0x1584 JUMP JUMPDEST PUSH2 0x18CB SWAP2 POP DUP4 PUSH2 0x1156 JUMP JUMPDEST PUSH1 0x40 MLOAD PUSH1 0x20 DUP2 ADD SWAP2 CALLER PUSH1 0x60 SHL DUP4 MSTORE DUP7 BLOCKHASH PUSH1 0x34 DUP4 ADD MSTORE PREVRANDAO PUSH1 0x54 DUP4 ADD MSTORE PUSH1 0x74 DUP3 ADD MSTORE PUSH1 0x74 DUP2 MSTORE PUSH2 0x18F8 DUP2 PUSH2 0x1248 JUMP JUMPDEST MLOAD SWAP1 KECCAK256 SWAP1 PUSH1 0x2 PUSH1 0x1 DUP4 AND LT ISZERO PUSH2 0x10B3 JUMPI PUSH1 0x20 PUSH1 0x1 SWAP3 PUSH1 0x5 SHL AND DUP5 ADD MLOAD PUSH2 0x191E DUP3 DUP14 PUSH2 0x1E95 JUMP JUMPDEST MSTORE PUSH2 0x18B9 JUMP JUMPDEST PUSH1 0x40 MLOAD PUSH3 0x461BCD PUSH1 0xE5 SHL DUP2 MSTORE PUSH1 0x20 PUSH1 0x4 DUP3 ADD MSTORE PUSH1 0x11 PUSH1 0x24 DUP3 ADD MSTORE PUSH17 0x496E76616C6964207369676E6174757265 PUSH1 0x78 SHL PUSH1 0x44 DUP3 ADD MSTORE PUSH1 0x64 SWAP1 REVERT JUMPDEST PUSH1 0x40 MLOAD PUSH3 0x461BCD PUSH1 0xE5 SHL DUP2 MSTORE PUSH1 0x20 PUSH1 0x4 DUP3 ADD MSTORE PUSH1 0x17 PUSH1 0x24 DUP3 ADD MSTORE PUSH32 0x54696D657374616D70206D757374206265206E65776572000000000000000000 PUSH1 0x44 DUP3 ADD MSTORE PUSH1 0x64 SWAP1 REVERT JUMPDEST PUSH1 0x40 MLOAD PUSH3 0x461BCD PUSH1 0xE5 SHL DUP2 MSTORE PUSH1 0x20 PUSH1 0x4 DUP3 ADD MSTORE PUSH1 0x11 PUSH1 0x24 DUP3 ADD MSTORE PUSH17 0x151A5B595CDD185B5C08195E1C1A5C9959 PUSH1 0x7A SHL PUSH1 0x44 DUP3 ADD MSTORE PUSH1 0x64 SWAP1 REVERT JUMPDEST PUSH1 0x40 MLOAD PUSH3 0x461BCD PUSH1 0xE5 SHL DUP2 MSTORE PUSH1 0x20 PUSH1 0x4 DUP3 ADD MSTORE PUSH1 0x19 PUSH1 0x24 DUP3 ADD MSTORE PUSH32 0x54696D657374616D702066726F6D207468652066757475726500000000000000 PUSH1 0x44 DUP3 ADD MSTORE PUSH1 0x64 SWAP1 REVERT JUMPDEST PUSH1 0x40 MLOAD PUSH3 0x461BCD PUSH1 0xE5 SHL DUP2 MSTORE PUSH1 0x20 PUSH1 0x4 DUP3 ADD MSTORE PUSH1 0x1F PUSH1 0x24 DUP3 ADD MSTORE PUSH32 0x436F6E74726163742068617320696E73756666696369656E742066756E647300 PUSH1 0x44 DUP3 ADD MSTORE PUSH1 0x64 SWAP1 REVERT JUMPDEST SWAP1 POP PUSH1 0x20 DUP2 RETURNDATASIZE PUSH1 0x20 GT PUSH2 0x1A8F JUMPI JUMPDEST DUP2 PUSH2 0x1A80 PUSH1 0x20 SWAP4 DUP4 PUSH2 0x1264 JUMP JUMPDEST DUP2 ADD SUB SLT PUSH2 0x176D JUMPI MLOAD CODESIZE PUSH2 0x133E JUMP JUMPDEST RETURNDATASIZE SWAP2 POP PUSH2 0x1A73 JUMP JUMPDEST PUSH1 0x40 MLOAD PUSH3 0x461BCD PUSH1 0xE5 SHL DUP2 MSTORE PUSH1 0x20 PUSH1 0x4 DUP3 ADD MSTORE PUSH1 0x37 PUSH1 0x24 DUP3 ADD MSTORE PUSH32 0x5468652062657420616D6F756E74207065722062616C6C2063616E6E6F742065 PUSH1 0x44 DUP3 ADD MSTORE PUSH32 0x78636565642074686520616C6C6F776564206C696D6974000000000000000000 PUSH1 0x64 DUP3 ADD MSTORE PUSH1 0x84 SWAP1 REVERT JUMPDEST PUSH1 0x40 MLOAD PUSH3 0x461BCD PUSH1 0xE5 SHL DUP2 MSTORE PUSH1 0x20 PUSH1 0x4 DUP3 ADD MSTORE PUSH1 0x34 PUSH1 0x24 DUP3 ADD MSTORE PUSH32 0x546865206D6178696D756D20616C6C6F776564206E756D626572206F66206261 PUSH1 0x44 DUP3 ADD MSTORE PUSH20 0x1B1B1CC81A185CC81899595B881C995858DA1959 PUSH1 0x62 SHL PUSH1 0x64 DUP3 ADD MSTORE PUSH1 0x84 SWAP1 REVERT JUMPDEST PUSH1 0x40 MLOAD PUSH3 0x461BCD PUSH1 0xE5 SHL DUP2 MSTORE PUSH1 0x20 PUSH1 0x4 DUP3 ADD MSTORE PUSH1 0x2A PUSH1 0x24 DUP3 ADD MSTORE PUSH32 0x546865206E756D626572206F662062616C6C73206D7573742062652067726561 PUSH1 0x44 DUP3 ADD MSTORE PUSH10 0x746572207468616E203 PUSH1 0xB4 SHL PUSH1 0x64 DUP3 ADD MSTORE PUSH1 0x84 SWAP1 REVERT JUMPDEST PUSH1 0x40 MLOAD PUSH3 0x461BCD PUSH1 0xE5 SHL DUP2 MSTORE PUSH1 0x20 PUSH1 0x4 DUP3 ADD MSTORE PUSH1 0x19 PUSH1 0x24 DUP3 ADD MSTORE PUSH32 0x4265742065786365656473206D6178696D756D206C696D697400000000000000 PUSH1 0x44 DUP3 ADD MSTORE PUSH1 0x64 SWAP1 REVERT JUMPDEST PUSH1 0x40 MLOAD PUSH3 0x461BCD PUSH1 0xE5 SHL DUP2 MSTORE PUSH1 0x20 PUSH1 0x4 DUP3 ADD MSTORE PUSH1 0x3E PUSH1 0x24 DUP3 ADD MSTORE PUSH32 0x5468652062657420616D6F756E74206D75737420626520677265617465722074 PUSH1 0x44 DUP3 ADD MSTORE PUSH32 0x68616E20746865206D696E696D756D2072657175697265642076616C75650000 PUSH1 0x64 DUP3 ADD MSTORE PUSH1 0x84 SWAP1 REVERT JUMPDEST ISZERO PUSH2 0x1C73 JUMPI JUMP JUMPDEST PUSH1 0x40 MLOAD PUSH3 0x461BCD PUSH1 0xE5 SHL DUP2 MSTORE PUSH1 0x20 PUSH1 0x4 DUP3 ADD MSTORE PUSH1 0x32 PUSH1 0x24 DUP3 ADD MSTORE PUSH32 0x546865206D617869756D206265742076616C7565206772656174657220746861 PUSH1 0x44 DUP3 ADD MSTORE PUSH18 0x6E206D696E69756D206265742076616C7565 PUSH1 0x70 SHL PUSH1 0x64 DUP3 ADD MSTORE PUSH1 0x84 SWAP1 REVERT JUMPDEST ISZERO PUSH2 0x1CDA JUMPI JUMP JUMPDEST PUSH1 0x40 MLOAD PUSH3 0x461BCD PUSH1 0xE5 SHL DUP2 MSTORE PUSH1 0x20 PUSH1 0x4 DUP3 ADD MSTORE PUSH1 0x1A PUSH1 0x24 DUP3 ADD MSTORE PUSH32 0x4E6F2070656E64696E6720677561726469616E206368616E6765000000000000 PUSH1 0x44 DUP3 ADD MSTORE PUSH1 0x64 SWAP1 REVERT JUMPDEST ISZERO PUSH2 0x1D26 JUMPI JUMP JUMPDEST PUSH1 0x40 MLOAD PUSH3 0x461BCD PUSH1 0xE5 SHL DUP2 MSTORE PUSH1 0x20 PUSH1 0x4 DUP3 ADD MSTORE PUSH1 0x28 PUSH1 0x24 DUP3 ADD MSTORE PUSH32 0x4D75737420776169742033206461797320746F20636F6E6669726D2061646D69 PUSH1 0x44 DUP3 ADD MSTORE PUSH8 0x6E206368616E6765 PUSH1 0xC0 SHL PUSH1 0x64 DUP3 ADD MSTORE PUSH1 0x84 SWAP1 REVERT JUMPDEST ISZERO PUSH2 0x1D83 JUMPI JUMP JUMPDEST PUSH1 0x40 MLOAD PUSH3 0x461BCD PUSH1 0xE5 SHL DUP2 MSTORE PUSH1 0x20 PUSH1 0x4 DUP3 ADD MSTORE PUSH1 0x21 PUSH1 0x24 DUP3 ADD MSTORE PUSH32 0x4E6F2070656E64696E672077696E2070726F626162696C697479206368616E67 PUSH1 0x44 DUP3 ADD MSTORE PUSH1 0x65 PUSH1 0xF8 SHL PUSH1 0x64 DUP3 ADD MSTORE PUSH1 0x84 SWAP1 REVERT JUMPDEST ISZERO PUSH2 0x1DD9 JUMPI JUMP JUMPDEST PUSH1 0x40 MLOAD PUSH3 0x461BCD PUSH1 0xE5 SHL DUP2 MSTORE PUSH1 0x20 PUSH1 0x4 DUP3 ADD MSTORE PUSH1 0x17 PUSH1 0x24 DUP3 ADD MSTORE PUSH32 0x4E6F2070656E64696E672061646D696E206368616E6765000000000000000000 PUSH1 0x44 DUP3 ADD MSTORE PUSH1 0x64 SWAP1 REVERT JUMPDEST PUSH1 0x40 MLOAD PUSH4 0xA9059CBB PUSH1 0xE0 SHL PUSH1 0x20 DUP3 ADD MSTORE PUSH1 0x1 PUSH1 0x1 PUSH1 0xA0 SHL SUB SWAP3 SWAP1 SWAP3 AND PUSH1 0x24 DUP4 ADD MSTORE PUSH1 0x44 DUP1 DUP4 ADD SWAP4 SWAP1 SWAP4 MSTORE SWAP2 DUP2 MSTORE PUSH2 0x1E5F SWAP2 PUSH2 0x1E5A PUSH1 0x64 DUP4 PUSH2 0x1264 JUMP JUMPDEST PUSH2 0x1EA9 JUMP JUMPDEST JUMP JUMPDEST PUSH8 0xFFFFFFFFFFFFFFFF DUP2 GT PUSH2 0x1232 JUMPI PUSH1 0x1F ADD PUSH1 0x1F NOT AND PUSH1 0x20 ADD SWAP1 JUMP JUMPDEST PUSH8 0xFFFFFFFFFFFFFFFF DUP2 GT PUSH2 0x1232 JUMPI PUSH1 0x5 SHL PUSH1 0x20 ADD SWAP1 JUMP JUMPDEST DUP1 MLOAD DUP3 LT ISZERO PUSH2 0x10B3 JUMPI PUSH1 0x20 SWAP2 PUSH1 0x5 SHL ADD ADD SWAP1 JUMP JUMPDEST PUSH1 0x1 DUP1 PUSH1 0xA0 SHL SUB AND SWAP1 PUSH1 0x40 MLOAD PUSH1 0x40 DUP2 ADD SWAP1 DUP1 DUP3 LT PUSH8 0xFFFFFFFFFFFFFFFF DUP4 GT OR PUSH2 0x1232 JUMPI PUSH2 0x1F39 SWAP2 PUSH1 0x40 MSTORE PUSH1 0x20 SWAP4 DUP5 DUP3 MSTORE PUSH32 0x5361666545524332303A206C6F772D6C6576656C2063616C6C206661696C6564 DUP6 DUP4 ADD MSTORE PUSH1 0x0 DUP1 DUP6 DUP8 DUP3 SWAP8 MLOAD SWAP2 ADD DUP3 DUP6 GAS CALL RETURNDATASIZE ISZERO PUSH2 0x1FCF JUMPI RETURNDATASIZE SWAP2 PUSH2 0x1F1E DUP4 PUSH2 0x1E61 JUMP JUMPDEST SWAP3 PUSH2 0x1F2C PUSH1 0x40 MLOAD SWAP5 DUP6 PUSH2 0x1264 JUMP JUMPDEST DUP4 MSTORE RETURNDATASIZE DUP7 DUP9 DUP6 ADD RETURNDATACOPY PUSH2 0x21B8 JUMP JUMPDEST DUP1 MLOAD SWAP2 DUP3 ISZERO SWAP2 DUP5 DUP4 ISZERO PUSH2 0x1FAB JUMPI JUMPDEST POP POP POP SWAP1 POP ISZERO PUSH2 0x1F54 JUMPI POP JUMP JUMPDEST PUSH1 0x84 SWAP1 PUSH1 0x40 MLOAD SWAP1 PUSH3 0x461BCD PUSH1 0xE5 SHL DUP3 MSTORE PUSH1 0x4 DUP3 ADD MSTORE PUSH1 0x2A PUSH1 0x24 DUP3 ADD MSTORE PUSH32 0x5361666545524332303A204552433230206F7065726174696F6E20646964206E PUSH1 0x44 DUP3 ADD MSTORE PUSH10 0x1BDD081CDD58D8D95959 PUSH1 0xB2 SHL PUSH1 0x64 DUP3 ADD MSTORE REVERT JUMPDEST SWAP2 SWAP4 DUP2 DUP1 SWAP5 POP ADD SUB SLT PUSH2 0x1F1 JUMPI DUP3 ADD MLOAD SWAP1 DUP2 ISZERO ISZERO DUP3 SUB PUSH2 0x25D JUMPI POP DUP1 CODESIZE DUP1 DUP5 PUSH2 0x1F47 JUMP JUMPDEST PUSH1 0x60 SWAP2 PUSH2 0x21B8 JUMP JUMPDEST SWAP1 PUSH1 0x41 DUP2 MLOAD EQ PUSH1 0x0 EQ PUSH2 0x2005 JUMPI PUSH2 0x2001 SWAP2 PUSH1 0x20 DUP3 ADD MLOAD SWAP1 PUSH1 0x60 PUSH1 0x40 DUP5 ADD MLOAD SWAP4 ADD MLOAD PUSH1 0x0 BYTE SWAP1 PUSH2 0x2129 JUMP JUMPDEST SWAP1 SWAP2 JUMP JUMPDEST POP POP PUSH1 0x0 SWAP1 PUSH1 0x2 SWAP1 JUMP JUMPDEST PUSH1 0x5 DUP2 LT ISZERO PUSH2 0x2113 JUMPI DUP1 PUSH2 0x2020 JUMPI POP JUMP JUMPDEST PUSH1 0x1 DUP2 SUB PUSH2 0x206D JUMPI PUSH1 0x40 MLOAD PUSH3 0x461BCD PUSH1 0xE5 SHL DUP2 MSTORE PUSH1 0x20 PUSH1 0x4 DUP3 ADD MSTORE PUSH1 0x18 PUSH1 0x24 DUP3 ADD MSTORE PUSH32 0x45434453413A20696E76616C6964207369676E61747572650000000000000000 PUSH1 0x44 DUP3 ADD MSTORE PUSH1 0x64 SWAP1 REVERT JUMPDEST PUSH1 0x2 DUP2 SUB PUSH2 0x20BA JUMPI PUSH1 0x40 MLOAD PUSH3 0x461BCD PUSH1 0xE5 SHL DUP2 MSTORE PUSH1 0x20 PUSH1 0x4 DUP3 ADD MSTORE PUSH1 0x1F PUSH1 0x24 DUP3 ADD MSTORE PUSH32 0x45434453413A20696E76616C6964207369676E6174757265206C656E67746800 PUSH1 0x44 DUP3 ADD MSTORE PUSH1 0x64 SWAP1 REVERT JUMPDEST PUSH1 0x3 EQ PUSH2 0x20C3 JUMPI JUMP JUMPDEST PUSH1 0x40 MLOAD PUSH3 0x461BCD PUSH1 0xE5 SHL DUP2 MSTORE PUSH1 0x20 PUSH1 0x4 DUP3 ADD MSTORE PUSH1 0x22 PUSH1 0x24 DUP3 ADD MSTORE PUSH32 0x45434453413A20696E76616C6964207369676E6174757265202773272076616C PUSH1 0x44 DUP3 ADD MSTORE PUSH2 0x7565 PUSH1 0xF0 SHL PUSH1 0x64 DUP3 ADD MSTORE PUSH1 0x84 SWAP1 REVERT JUMPDEST PUSH4 0x4E487B71 PUSH1 0xE0 SHL PUSH1 0x0 MSTORE PUSH1 0x21 PUSH1 0x4 MSTORE PUSH1 0x24 PUSH1 0x0 REVERT JUMPDEST SWAP3 SWAP2 SWAP1 PUSH32 0x7FFFFFFFFFFFFFFFFFFFFFFFFFFFFFFF5D576E7357A4501DDFE92F46681B20A0 DUP4 GT PUSH2 0x21AC JUMPI SWAP2 PUSH1 0x80 SWAP5 SWAP4 SWAP2 PUSH1 0xFF PUSH1 0x20 SWAP5 PUSH1 0x40 MLOAD SWAP5 DUP6 MSTORE AND DUP5 DUP5 ADD MSTORE PUSH1 0x40 DUP4 ADD MSTORE PUSH1 0x60 DUP3 ADD MSTORE PUSH1 0x0 SWAP4 DUP5 SWAP2 DUP3 DUP1 MSTORE PUSH1 0x1 GAS STATICCALL ISZERO PUSH2 0x219F JUMPI DUP2 MLOAD PUSH1 0x1 PUSH1 0x1 PUSH1 0xA0 SHL SUB DUP2 AND ISZERO PUSH2 0x2199 JUMPI SWAP2 SWAP1 JUMP JUMPDEST POP PUSH1 0x1 SWAP1 JUMP JUMPDEST POP PUSH1 0x40 MLOAD SWAP1 RETURNDATASIZE SWAP1 DUP3 RETURNDATACOPY RETURNDATASIZE SWAP1 REVERT JUMPDEST POP POP POP POP PUSH1 0x0 SWAP1 PUSH1 0x3 SWAP1 JUMP JUMPDEST SWAP2 SWAP3 SWAP1 ISZERO PUSH2 0x221A JUMPI POP DUP2 MLOAD ISZERO PUSH2 0x21CC JUMPI POP SWAP1 JUMP JUMPDEST EXTCODESIZE ISZERO PUSH2 0x21D5 JUMPI SWAP1 JUMP JUMPDEST PUSH1 0x40 MLOAD PUSH3 0x461BCD PUSH1 0xE5 SHL DUP2 MSTORE PUSH1 0x20 PUSH1 0x4 DUP3 ADD MSTORE PUSH1 0x1D PUSH1 0x24 DUP3 ADD MSTORE PUSH32 0x416464726573733A2063616C6C20746F206E6F6E2D636F6E7472616374000000 PUSH1 0x44 DUP3 ADD MSTORE PUSH1 0x64 SWAP1 REVERT JUMPDEST DUP3 MLOAD SWAP1 SWAP2 POP ISZERO PUSH2 0x222D JUMPI POP DUP1 MLOAD SWAP1 PUSH1 0x20 ADD REVERT JUMPDEST PUSH1 0x40 MLOAD SWAP1 PUSH3 0x461BCD PUSH1 0xE5 SHL DUP3 MSTORE DUP2 PUSH1 0x20 DUP1 PUSH1 0x4 DUP4 ADD MSTORE DUP3 MLOAD SWAP1 DUP2 PUSH1 0x24 DUP5 ADD MSTORE PUSH1 0x0 SWAP4 JUMPDEST DUP3 DUP6 LT PUSH2 0x2273 JUMPI POP POP PUSH1 0x44 SWAP3 POP PUSH1 0x0 DUP4 DUP3 DUP5 ADD ADD MSTORE PUSH1 0x1F DUP1 NOT SWAP2 ADD AND DUP2 ADD SUB ADD SWAP1 REVERT JUMPDEST DUP5 DUP2 ADD DUP3 ADD MLOAD DUP7 DUP7 ADD PUSH1 0x44 ADD MSTORE SWAP4 DUP2 ADD SWAP4 DUP6 SWAP4 POP PUSH2 0x2250 JUMP INVALID LOG2 PUSH5 0x6970667358 0x22 SLT KECCAK256 0xBE 0xDC PUSH15 0x412B86072189862A6CFE2D11D940A0 ISZERO TSTORE 0x28 PUSH6 0xD7B459C2CE1B LOG2 0xD 0x2D BLOBHASH PUSH5 0x736F6C6343 STOP ADDMOD XOR STOP CALLER SLOAD PUSH9 0x65206D6178696D756D KECCAK256 PUSH3 0x657420 PUSH23 0x616C7565206D7573742062652067720000000000000000 "},"methodIdentifiers":{"admin()":"f851a440","cancelAdminChange()":"1157b267","cancelGuardianChange()":"fb49fe27","cancelWinProbabilityChange()":"4addd5f6","cancelWithdrawFund()":"9e090628","changeMaxBetValue(uint256)":"e065fc93","changeMinBetValue(uint256)":"677660e0","confirmAdminChange()":"a74b6783","confirmChangeGuardian()":"847d1e90","confirmChangeWinProbability()":"9a138974","guardian()":"452a9320","isLocked()":"a4e2d634","lastTimestamp(address)":"dccfac82","lockContract()":"753868e3","maxRewardMultiply()":"a48158e5","maxiumBetPerBall()":"2e02394e","maxiumBetValue()":"ba8a305c","maxiumPlacedBall()":"76a4b8ae","miniumBetValue()":"1617f190","pendingAdmin()":"26782247","pendingAdminChangeTime()":"bff42fe4","pendingGuardian()":"762c31ba","pendingGuardianChangeTime()":"ed3cacc1","pendingWinProbability()":"e1d8192c","pendingWinProbabilityChangeTime()":"a9860b97","pendingWithdrawFundTime()":"3ab0f330","placeBet(uint256,uint256,uint256,bytes)":"3b116d27","requestAdminChange(address)":"8c51d1e4","requestChangeGuardian(address)":"28fc8b68","requestChangeWinProbability(uint256)":"71d00086","requestWithdrawFund()":"9d1c35e2","rewards(uint256)":"f301af42","token()":"fc0c546a","unlockContract()":"22f0f2f9","winProbability()":"69f2941d","withdrawFund(uint256)":"0cee1725"}}}}}