{"contracts/Baccarat.sol":{"Baccarat":{"abi":[{"inputs":[{"internalType":"address","name":"_guardian","type":"address"},{"internalType":"address","name":"_admin","type":"address"},{"internalType":"address","name":"_token","type":"address"},{"internalType":"uint256","name":"_minBetValue","type":"uint256"},{"internalType":"uint256","name":"_maxBetValue","type":"uint256"}],"stateMutability":"payable","type":"constructor"},{"anonymous":false,"inputs":[],"name":"AdminChangeCancelled","type":"event"},{"anonymous":false,"inputs":[{"indexed":false,"internalType":"address","name":"newAdmin","type":"address"},{"indexed":false,"internalType":"uint256","name":"requestTime","type":"uint256"}],"name":"AdminChangeRequested","type":"event"},{"anonymous":false,"inputs":[{"indexed":false,"internalType":"address","name":"newAdmin","type":"address"}],"name":"AdminChanged","type":"event"},{"anonymous":false,"inputs":[{"indexed":false,"internalType":"address","name":"admin","type":"address"},{"indexed":false,"internalType":"uint256","name":"maxBetValue","type":"uint256"}],"name":"ChangedMaxBetValue","type":"event"},{"anonymous":false,"inputs":[{"indexed":false,"internalType":"address","name":"admin","type":"address"},{"indexed":false,"internalType":"uint256","name":"minBetValue","type":"uint256"}],"name":"ChangedMinBetValue","type":"event"},{"anonymous":false,"inputs":[{"indexed":false,"internalType":"address","name":"by","type":"address"}],"name":"ContractLocked","type":"event"},{"anonymous":false,"inputs":[{"indexed":false,"internalType":"address","name":"by","type":"address"}],"name":"ContractUnlocked","type":"event"},{"anonymous":false,"inputs":[],"name":"GuardianChangeCancelled","type":"event"},{"anonymous":false,"inputs":[{"indexed":false,"internalType":"address","name":"newGuardian","type":"address"},{"indexed":false,"internalType":"uint256","name":"requestTime","type":"uint256"}],"name":"GuardianChangeRequested","type":"event"},{"anonymous":false,"inputs":[{"indexed":false,"internalType":"address","name":"newGuardian","type":"address"}],"name":"GuardianChanged","type":"event"},{"anonymous":false,"inputs":[{"indexed":false,"internalType":"address","name":"from","type":"address"},{"indexed":false,"internalType":"uint256","name":"amount","type":"uint256"}],"name":"Received","type":"event"},{"anonymous":false,"inputs":[{"indexed":false,"internalType":"address","name":"user","type":"address"},{"components":[{"internalType":"uint256","name":"id","type":"uint256"},{"internalType":"uint256","name":"value","type":"uint256"}],"indexed":false,"internalType":"struct Baccarat.Card[3]","name":"playerCards","type":"tuple[3]"},{"components":[{"internalType":"uint256","name":"id","type":"uint256"},{"internalType":"uint256","name":"value","type":"uint256"}],"indexed":false,"internalType":"struct Baccarat.Card[3]","name":"bankerCards","type":"tuple[3]"},{"indexed":false,"internalType":"uint256","name":"wonAmount","type":"uint256"},{"indexed":false,"internalType":"uint256","name":"playerScore","type":"uint256"},{"indexed":false,"internalType":"uint256","name":"bankerScore","type":"uint256"}],"name":"Result","type":"event"},{"anonymous":false,"inputs":[{"indexed":false,"internalType":"uint256[3]","name":"seedReels","type":"uint256[3]"}],"name":"SeedReelsChanged","type":"event"},{"anonymous":false,"inputs":[],"name":"WinProbabilityChangeCancelled","type":"event"},{"anonymous":false,"inputs":[{"indexed":false,"internalType":"uint256","name":"winProbability","type":"uint256"}],"name":"WinProbabilityChanged","type":"event"},{"anonymous":false,"inputs":[{"indexed":false,"internalType":"uint256","name":"winProbability","type":"uint256"}],"name":"WinProbabilityRequested","type":"event"},{"anonymous":false,"inputs":[{"indexed":false,"internalType":"address","name":"to","type":"address"},{"indexed":false,"internalType":"uint256","name":"amount","type":"uint256"}],"name":"WithdrawFund","type":"event"},{"anonymous":false,"inputs":[],"name":"WithdrawFundCancelled","type":"event"},{"anonymous":false,"inputs":[{"indexed":false,"internalType":"uint256","name":"requestTime","type":"uint256"}],"name":"WithdrawFundRequested","type":"event"},{"inputs":[],"name":"admin","outputs":[{"internalType":"address","name":"","type":"address"}],"stateMutability":"view","type":"function"},{"inputs":[],"name":"cancelAdminChange","outputs":[],"stateMutability":"nonpayable","type":"function"},{"inputs":[],"name":"cancelGuardianChange","outputs":[],"stateMutability":"nonpayable","type":"function"},{"inputs":[],"name":"cancelWinProbabilityChange","outputs":[],"stateMutability":"nonpayable","type":"function"},{"inputs":[],"name":"cancelWithdrawFund","outputs":[],"stateMutability":"nonpayable","type":"function"},{"inputs":[{"internalType":"uint256","name":"_maxBetValue","type":"uint256"}],"name":"changeMaxBetValue","outputs":[],"stateMutability":"nonpayable","type":"function"},{"inputs":[{"internalType":"uint256","name":"_minBetValue","type":"uint256"}],"name":"changeMinBetValue","outputs":[],"stateMutability":"nonpayable","type":"function"},{"inputs":[],"name":"confirmAdminChange","outputs":[],"stateMutability":"nonpayable","type":"function"},{"inputs":[],"name":"confirmChangeGuardian","outputs":[],"stateMutability":"nonpayable","type":"function"},{"inputs":[],"name":"confirmChangeWinProbability","outputs":[],"stateMutability":"nonpayable","type":"function"},{"inputs":[],"name":"guardian","outputs":[{"internalType":"address","name":"","type":"address"}],"stateMutability":"view","type":"function"},{"inputs":[],"name":"isLocked","outputs":[{"internalType":"bool","name":"","type":"bool"}],"stateMutability":"view","type":"function"},{"inputs":[{"internalType":"address","name":"","type":"address"}],"name":"lastTimestamp","outputs":[{"internalType":"uint256","name":"","type":"uint256"}],"stateMutability":"view","type":"function"},{"inputs":[],"name":"lockContract","outputs":[],"stateMutability":"nonpayable","type":"function"},{"inputs":[],"name":"maxRewardMultiply","outputs":[{"internalType":"uint256","name":"","type":"uint256"}],"stateMutability":"view","type":"function"},{"inputs":[],"name":"maxiumBetValue","outputs":[{"internalType":"uint256","name":"","type":"uint256"}],"stateMutability":"view","type":"function"},{"inputs":[],"name":"miniumBetValue","outputs":[{"internalType":"uint256","name":"","type":"uint256"}],"stateMutability":"view","type":"function"},{"inputs":[],"name":"pendingAdmin","outputs":[{"internalType":"address","name":"","type":"address"}],"stateMutability":"view","type":"function"},{"inputs":[],"name":"pendingAdminChangeTime","outputs":[{"internalType":"uint256","name":"","type":"uint256"}],"stateMutability":"view","type":"function"},{"inputs":[],"name":"pendingGuardian","outputs":[{"internalType":"address","name":"","type":"address"}],"stateMutability":"view","type":"function"},{"inputs":[],"name":"pendingGuardianChangeTime","outputs":[{"internalType":"uint256","name":"","type":"uint256"}],"stateMutability":"view","type":"function"},{"inputs":[],"name":"pendingWinProbability","outputs":[{"internalType":"uint256","name":"","type":"uint256"}],"stateMutability":"view","type":"function"},{"inputs":[],"name":"pendingWinProbabilityChangeTime","outputs":[{"internalType":"uint256","name":"","type":"uint256"}],"stateMutability":"view","type":"function"},{"inputs":[],"name":"pendingWithdrawFundTime","outputs":[{"internalType":"uint256","name":"","type":"uint256"}],"stateMutability":"view","type":"function"},{"inputs":[{"components":[{"internalType":"uint256","name":"amount","type":"uint256"},{"internalType":"enum Baccarat.BetType","name":"betType","type":"uint8"}],"internalType":"struct Baccarat.Bet[]","name":"bets","type":"tuple[]"},{"internalType":"uint256","name":"_amount","type":"uint256"},{"internalType":"uint256","name":"_timestamp","type":"uint256"},{"internalType":"bytes","name":"signature","type":"bytes"}],"name":"placeBet","outputs":[],"stateMutability":"payable","type":"function"},{"inputs":[{"internalType":"address","name":"newAdmin","type":"address"}],"name":"requestAdminChange","outputs":[],"stateMutability":"nonpayable","type":"function"},{"inputs":[{"internalType":"address","name":"newGuardian","type":"address"}],"name":"requestChangeGuardian","outputs":[],"stateMutability":"nonpayable","type":"function"},{"inputs":[{"internalType":"uint256","name":"_winProbability","type":"uint256"}],"name":"requestChangeWinProbability","outputs":[],"stateMutability":"nonpayable","type":"function"},{"inputs":[],"name":"requestWithdrawFund","outputs":[],"stateMutability":"nonpayable","type":"function"},{"inputs":[{"internalType":"uint256","name":"","type":"uint256"}],"name":"rewards","outputs":[{"internalType":"enum Baccarat.BetType","name":"betType","type":"uint8"},{"internalType":"uint256","name":"multiply","type":"uint256"}],"stateMutability":"view","type":"function"},{"inputs":[],"name":"token","outputs":[{"internalType":"contract IERC20","name":"","type":"address"}],"stateMutability":"view","type":"function"},{"inputs":[],"name":"unlockContract","outputs":[],"stateMutability":"nonpayable","type":"function"},{"inputs":[],"name":"winProbability","outputs":[{"internalType":"uint256","name":"","type":"uint256"}],"stateMutability":"view","type":"function"},{"inputs":[{"internalType":"uint256","name":"amount","type":"uint256"}],"name":"withdrawFund","outputs":[],"stateMutability":"nonpayable","type":"function"}],"evm":{"bytecode":{"linkReferences":{},"object":"60e06001600160401b03601f62002d0338819003918201601f19168401919083831185841017620004d0578160a09286926040958652833981010312620004cb576200004b8362000502565b9260206200005b81830162000502565b936200006984840162000502565b956080606085015194015195600160009581875560ff199889600e5416600e558015620004835781156200042a57818110620003d357869798999a60018060a01b0380911660805260018060a01b031990806002961682875416178655600396169086541617855560058355600b55600c558751620000e881620004e6565b60089581878093520167109858d8d85c985d60c21b81522081878a516200010f81620004e6565b82815201603160f81b81522090895191888301917f8b73c3c69bb8fe3d512ecc4cf759cc79239f7b179b0ffacaa9a75d522b39400f83528b84015260608301524660808301523060a083015260a0825260c082019582871090871117620003bf57998360e081938c9d898d9e528151902060a0528b6004998a60c0526200019681620004e6565b520152806029541660295581602a5585888c51620001b481620004e6565b85815201528281602b541617602b5585602c5581888c51620001d681620004e6565b8281520152602d541617602d5581602e5580868a51620001f681620004e6565b828152015280600f55601055808589516200021181620004e6565b828152015280601155601255808488516200022c81620004e6565b828152015280601355601455808387516200024781620004e6565b82815201528060155560165560058286516200026381620004e6565b82815201526005601755600560185560068286516200028281620004e6565b828152015260066019556006601a556007828651620002a181620004e6565b82815201526007601b556007601c5580828651620002bf81620004e6565b828152015280601d55601e556009818551620002db81620004e6565b82815201526009601f556009815581818551620002f881620004e6565b600a81520152600a60215581602255818185516200031681620004e6565b600b81520152600b60235581602455818185516200033481620004e6565b600c81520152600c6025558160265583516200035081620004e6565b600d81520152600d602755602855516127cb90816200051882396080518181816101ac0152818161063b01528181610f47015281816113d1015281816115b6015281816119a101528181611a510152611a86015260a051816114ce015260c05181818161057601526113910152f35b634e487b7160e01b89526041600452602489fd5b6084878a80519162461bcd60e51b83526004830152602482015260008051602062002ce383398151915260448201527f6561746572207468616e20746865206d696e696d756d206265742076616c75656064820152fd5b885162461bcd60e51b815260048101889052602c60248201527f546865206d696e696d756d206265742076616c7565206d75737420626520677260448201526b06561746572207468616e20360a41b6064820152608490fd5b885162461bcd60e51b815260048101889052602c602482015260008051602062002ce383398151915260448201526b06561746572207468616e20360a41b6064820152608490fd5b600080fd5b634e487b7160e01b600052604160045260246000fd5b604081019081106001600160401b03821117620004d057604052565b51906001600160a01b0382168203620004cb5756fe6040608081526004908136101561001557600080fd5b600091823560e01c9081630cee172514610eab5781631157b26714610e4a5781631617f19014610e2b57816322f0f2f914610dce5781632678224714610da657816328fc8b6814610d075781633ab0f33014610ce8578163452a932014610cbf5781634addd5f614610c6a578163677660e014610b9b57816369f2941d14610b7c57816371d0008614610ad6578163753868e314610a76578163762c31ba14610a4d5781637ce3c6dc146109af578163847d1e90146109015781638c51d1e41461085f5781639a138974146107625781639d1c35e2146105ea5781639e09062814610599578163a48158e51461055e578163a4e2d6341461053a578163a74b67831461047a578163a9860b971461045b578163ba8a305c1461043c578163bff42fe41461041d578163dccfac82146103e3578163e065fc931461030a578163e1d8192c146102eb578163ed3cacc1146102cc578163f301af421461027257508063f851a4401461024a578063fb49fe27146101df5763fc0c546a1461019957600080fd5b346101db57816003193601126101db57517f00000000000000000000000000000000000000000000000000000000000000006001600160a01b03168152602090f35b5080fd5b823461024757806003193601126102475761020560018060a01b03600354163314611126565b6bffffffffffffffffffffffff60a01b60065416600655806007557f7a81c642828249ae51a34cf52e35ebbf08bd3cb36fb5a4b4c8e80261893f5b818180a180f35b80fd5b50346101db57816003193601126101db5760025490516001600160a01b039091168152602090f35b9050823461024757602036600319011261024757813560038110156101db5760011b602a60ff8260290154169101549184519360038310156102b957505082526020820152f35b634e487b7160e01b825260219052602490fd5b5050346101db57816003193601126101db576020906007549051908152f35b5050346101db57816003193601126101db576020906009549051908152f35b919050346103df5760203660031901126103df5781359161033660018060a01b03600254163314611076565b821561039157507fa9f6ef469a02717105903bbce25c47a4db6a0d759d929c5cd9bf295a7033b1749161038b91610370600c5483116111b0565b600b8290555133815260208101919091529081906040820190565b0390a180f35b6020608492519162461bcd60e51b8352820152602360248201527f546865206d617869756d206265742076616c756520677265617465722074686160448201526206e20360ec1b6064820152fd5b8280fd5b9050346103df5760203660031901126103df57356001600160a01b038116908190036103df5782829160209452600d845220549051908152f35b5050346101db57816003193601126101db576020906005549051908152f35b5050346101db57816003193601126101db57602090600b549051908152f35b5050346101db57816003193601126101db57602090600a549051908152f35b8383346101db57816003193601126101db576002546001600160a01b0391906104a63384831614611076565b8454928316926104b78415156121cf565b6005546104c58115156121cf565b6203f4808101809111610527577f7ce7ec0b50378fb6c0186ffb5f48325f6593fcb4ca4386f21861af3129188f5c949260209492610506899342101561211c565b6001600160a01b03199182168517600255169055600585905551908152a180f35b634e487b7160e01b865260118752602486fd5b5050346101db57816003193601126101db5760209060ff600e541690519015158152f35b5050346101db57816003193601126101db57602090517f00000000000000000000000000000000000000000000000000000000000000008152f35b83346102475780600319360112610247576105bf60018060a01b03600354163314611126565b806008557f94a9b8fb6e694c6c0fbee0e13e1c5b9ae2dda4395e3495228a46dc717617c6fa8180a180f35b839150346101db57816003193601126101db576002546001600160a01b0391906106179083163314611076565b60085461071557835180926370a0823160e01b8252308383015281602460209586937f0000000000000000000000000000000000000000000000000000000000000000165afa90811561070b5784916106da575b50156106a157507fe20350bd5ff90b7bdbcb8229cf46c222a5f5b18f094a1ac5962451445fda107691924260085551428152a180f35b60649184519162461bcd60e51b835282015260156024820152744e6f20746f6b656e7320746f20776974686472617760581b6044820152fd5b90508281813d8311610704575b6106f181836112ba565b8101031261070057518561066b565b8380fd5b503d6106e7565b85513d86823e3d90fd5b608490602085519162461bcd60e51b8352820152602160248201527f5769746864726177616c207265717565737420697320696e2070726f677265736044820152607360f81b6064820152fd5b919050346103df57826003193601126103df5761078a60018060a01b03600254163314611076565b60095491610799831515612179565b600a546107a7811515612179565b6203f480810180911161084c5742106107f45750816020917f9dc86596ca5f70a96c96b2cb0be04f02b7da0a6261f97d43cebcc921020b1925936001558460095584600a5551908152a180f35b6020608492519162461bcd60e51b8352820152602d60248201527f4d75737420776169742033206461797320746f20636f6e6669726d207365656460448201526c207265656c73206368616e676560981b6064820152fd5b634e487b7160e01b855260118252602485fd5b919050346103df5760203660031901126103df5781356001600160a01b03818116939092908483036108fd577f72b357b8c271031aad940e03e51f8c172b495a1dd60d6e902d339c7f49604102946108bf61038b95600254163314611076565b6108ca811515611172565b81546001600160a01b03191617905542600581905590516001600160a01b03909216825260208201529081906040820190565b8580fd5b8383346101db57816003193601126101db576003546001600160a01b03919061092d3384831614611126565b6006549283169261093f8415156120d0565b60075461094d8115156120d0565b6203f480810180911161052757916020939161098d7f01c6520cf747e4632b43b535b91afe3950ccabc4ab29bbd89e3c1f6b0ba05655969442101561211c565b6001600160a01b0319918216841760035516600655600785905551908152a180f35b839060803660031901126101db5767ffffffffffffffff813581811161070057366023820112156107005780830135828111610a49573660248260061b84010111610a4957606435938385116108fd57366023860112156108fd57840135928311610a49573660248486010111610a49576024610a4694610a3560ff600e5416156110c2565b019160443591602480359201611361565b80f35b8480fd5b5050346101db57816003193601126101db5760065490516001600160a01b039091168152602090f35b5050346101db57816003193601126101db5760207f46a289a85516d6b63cec7f685e3f5398070f9fc5fb8e3d14021add023fec568f91610ac160018060a01b03600354163314611126565b600160ff19600e541617600e5551338152a180f35b919050346103df5760203660031901126103df57813591610b0260018060a01b03600254163314611076565b6032831015610b415750816020917f9b161a37c93b297fe93d8f6f47f959bb91bd34a421b3892b0c91674ce107fb249360095542600a5551908152a180f35b6020606492519162461bcd60e51b83528201526016602482015275496e76616c69642077696e50726f626162696c69747960501b6044820152fd5b5050346101db57816003193601126101db576020906001549051908152f35b919050346103df5760203660031901126103df57813591610bc760018060a01b03600254163314611076565b8215610c1c57508161038b91610c017f96fd935283ebe139eff1231ba7e60b91334b7e1e1c67c91c68b58f8d4a7b211f94600b54116111b0565b600c8290555133815260208101919091529081906040820190565b6020608492519162461bcd60e51b8352820152602360248201527f546865206d696e69756d206265742076616c756520677265617465722074686160448201526206e20360ec1b6064820152fd5b8334610247578060031936011261024757610c9060018060a01b03600254163314611076565b8060095580600a557f9ef48cacefe12ab0a801d57bc51beb3a36523278e29346ed78249364434565028180a180f35b5050346101db57816003193601126101db5760035490516001600160a01b039091168152602090f35b5050346101db57816003193601126101db576020906008549051908152f35b9050346103df5760203660031901126103df576001600160a01b03903581811692838203610a49577f6c437b1584202b77482374dd2215b75e975b0be0768b92ed5e4b048b0e10987993610d6361038b94600354163314611126565b610d6e811515611172565b600680546001600160a01b03191691909117905542600781905590516001600160a01b03909216825260208201529081906040820190565b9050346103df57826003193601126103df575490516001600160a01b03909116815260209150f35b5050346101db57816003193601126101db5760207ff08396b9fd122c2ef99aec183d994d39fa54cc25773e4b8a6ed20ad08aef02c991610e1960018060a01b03600354163314611126565b60ff19600e5416600e5551338152a180f35b5050346101db57816003193601126101db57602090600c549051908152f35b8390346101db57816003193601126101db57610e7160018060a01b03600354163314611126565b80546001600160a01b031916905560058190557f07ad662e4db36fe46ee1697376f8457b103123c200de262ca4baf9f5cad0a1e88180a180f35b839150346101db5760203660031901126101db576002548135916001600160a01b0391821690610edc338314611076565b60028554146110335760028555610ef860ff600e5416156110c2565b6008548015610ffa5762093a808101809111610fe7574210610f995750839491610f6b84610f8f937f09ad672d4e7c4892da934d1051932ebe9ec4b6ec8c3f40d569176db3e93e5abe976008557f000000000000000000000000000000000000000000000000000000000000000061221b565b600254925192166001600160a01b0316825260208201929092529081906040820190565b0390a16001815580f35b608490602087519162461bcd60e51b8352820152602260248201527f4d75737420776169742037206461797320746f2077697468647261772066756e604482015261647360f01b6064820152fd5b634e487b7160e01b865260118252602486fd5b865162461bcd60e51b815260208184015260136024820152724e6f2070656e64696e6720776974686472617760681b6044820152606490fd5b606490602087519162461bcd60e51b8352820152601f60248201527f5265656e7472616e637947756172643a207265656e7472616e742063616c6c006044820152fd5b1561107d57565b60405162461bcd60e51b815260206004820152601b60248201527f4f6e6c792061646d696e2063616e2065786563757465207468697300000000006044820152606490fd5b156110c957565b60405162461bcd60e51b815260206004820152601260248201527110dbdb9d1c9858dd081a5cc81b1bd8dad95960721b6044820152606490fd5b9190820180921161111057565b634e487b7160e01b600052601160045260246000fd5b1561112d57565b60405162461bcd60e51b815260206004820152601e60248201527f4f6e6c7920677561726469616e2063616e2065786563757465207468697300006044820152606490fd5b1561117957565b60405162461bcd60e51b815260206004820152600f60248201526e496e76616c6964206164647265737360881b6044820152606490fd5b156111b757565b60405162461bcd60e51b815260206004820152603260248201527f546865206d617869756d206265742076616c75652067726561746572207468616044820152716e206d696e69756d206265742076616c756560701b6064820152608490fd5b91908110156112275760061b0190565b634e487b7160e01b600052603260045260246000fd5b8181029291811591840414171561111057565b6040810190811067ffffffffffffffff82111761126c57604052565b634e487b7160e01b600052604160045260246000fd5b60a0810190811067ffffffffffffffff82111761126c57604052565b6060810190811067ffffffffffffffff82111761126c57604052565b90601f8019910116810190811067ffffffffffffffff82111761126c57604052565b919082604091031261130d576040516112f481611250565b82358152916020013582600382101561130d5760200152565b600080fd5b67ffffffffffffffff811161126c57601f01601f191660200190565b6000915b6003831061133f57505050565b6001906040835191825181526020809301518382015201920192019190611332565b93959490919295600c54841061206557600b54841161202057836000805b858110611ffc575003611fa8576113b67f00000000000000000000000000000000000000000000000000000000000000008561123d565b6040516370a0823160e01b81523060048201526020816024817f00000000000000000000000000000000000000000000000000000000000000006001600160a01b03165afa908115611b3f57600091611f76575b5010611f3157864210611eec57603c8701808811611110574211611eb35733600052600d602052604060002054871115611e6e5760405180606081011067ffffffffffffffff60608301111761126c5760408160608a93018252338152866020820152015260405160208101907f0e81d1cdf23bdc0a6bef5035503a1014285a41cc67c1e91e29d9211b707e3cf98252336040820152856060820152886080820152608081526114b981611282565b519020604051602081019161190160f01b83527f000000000000000000000000000000000000000000000000000000000000000060228301526042820152604281526080810181811067ffffffffffffffff82111761126c5760405251902061152183611312565b9061152f60405192836112ba565b838252368484011161130d57600060208561155d9661155596838701378401015261252d565b919091612565565b6002546001600160a01b03908116911603611e355733600052600d602052846040600020556115da6040516323b872dd60e01b6020820152336024820152306044820152836064820152606481526115b481611282565b7f00000000000000000000000000000000000000000000000000000000000000006123ab565b6115ee6040516115e98161129e565b61225e565b6115fd6040516115e98161129e565b6040519461160a8661129e565b6116138661225e565b604051906116208261129e565b6116298261225e565b6040518060c081011067ffffffffffffffff60c08301111761126c5760c0810160405260005b60c08110611e125750600091600019430191438311935b60068110611d2e57508060a091518b52602081015160208c0152604081015160408c01526060810151865260808101516020870152015160408501526116b16040516115e98161129e565b6116c06040516115e98161129e565b6000926116d26040516115e98161129e565b6116e16040516115e98161129e565b611d1a57606460405160208101903360601b8252844060348201524460548201528360748201526074815261171581611282565b519020066001541191611728858b6122ae565b94909315611c22575060009182602060405161174381611250565b828152015260018703611bb857505050831561122757602061176536886112dc565b01805160038110156118df57611b72575011958615611b6c57805b9615611b6557505b935b61179485876122ae565b93909267ffffffffffffffff811161126c57604051956117ba60208360051b01886112ba565b8187526020870190368360061b82011161130d5780915b8360061b82018310611b4b5750505050600096875b86518910156119075761180560206117fe8b8a612357565b51016122a1565b60038110156118df5715806118fe575b156118465761183d600191611837602a546118308d8c612357565b515161123d565b90611103565b985b01976117e6565b61185560206117fe8b8a612357565b60038110156118df57600214806118f5575b1561188857611882600191611837602e546118308d8c612357565b9861183f565b9761189860206117fe838a612357565b60038110156118df57600114806118d6575b6118b7575b60019061183f565b976118ce600191611837602c546118308d8c612357565b9890506118af565b508585146118aa565b634e487b7160e01b600052602160045260246000fd5b50848611611867565b50858511611815565b92975094509460008060405161191c81611250565b600e81526d03932bbb0b93220b6b7bab73a1d160951b6020820152604051611975816119616020820194632d839cb360e21b865260406024840152606483019061236b565b88604483015203601f1981018352826112ba565b51906a636f6e736f6c652e6c6f675afa506040516370a0823160e01b81523060048201526020816024817f00000000000000000000000000000000000000000000000000000000000000006001600160a01b03165afa908115611b3f57600091611adf575b50907f8e3897e7ec1b94c33e7a96847f87c200c4a4b55135ac87bc06946c2e91be755f9683926102009796959411611a7a5750611a359082611a4a575b611a2b60405196338852602088019061132e565b60e086019061132e565b6101a08401526101c08301526101e0820152a1565b611a7583337f000000000000000000000000000000000000000000000000000000000000000061221b565b611a17565b611ac89250611aaa90337f000000000000000000000000000000000000000000000000000000000000000061221b565b611abe60405195338752602087019061132e565b60e085019061132e565b60006101a08401526101c08301526101e0820152a1565b959493929190506020863d602011611b37575b81611aff602093836112ba565b8101031261130d57945193949293919290917f8e3897e7ec1b94c33e7a96847f87c200c4a4b55135ac87bc06946c2e91be755f6119da565b3d9150611af2565b6040513d6000823e3d90fd5b6020604091611b5a36866112dc565b8152019201916117d1565b9050611788565b81611780565b9796975160038110156118df57600203611bab5711948515611ba557805b9515611b9e57505b9461178a565b9050611b98565b81611b90565b505050839493949361178a565b6040519060208201923360601b8452406034830152446054830152607482015260748152611be581611282565b519020908515611c0e5750611c09602091611c0487369206888b611217565b6112dc565b611765565b634e487b7160e01b81526012600452602490fd5b9150819050600019815b878110611cb75750506003811015611ca35780611c6a57505010958615611c6457805b9615611c5d57505b9361178a565b9050611c57565b81611c4f565b979897600203611c8b575010948515611ba557809515611b9e57509461178a565b501195948615611c6457809615611c5d57509361178a565b634e487b7160e01b82526021600452602482fd5b6020611cc4828a8d611217565b01356003811015610a4957611ce590611cde838b8e611217565b35906124c6565b828110611cf6575b50600101611c2c565b915091506020611d0783898c611217565b0135600381101561070057916001611ced565b634e487b7160e01b83526011600452602483fd5b93600285018511611110576111105760405193600d602086013360601b8152603490864082890152611d856103e860549244848c015260749a600288018c8201528b8152611d7b81611282565b5190200687611103565b976000986040519260208401943360601b86528a40908501524490840152818301528152611db281611282565b51902006600d811015611dfe5790600191821b601060405191611dd483611250565b80600f0154835201546020820152611dec8285612290565b52611df78184612290565b5001611666565b634e487b7160e01b86526032600452602486fd5b602090604051611e2181611250565b60008152600083820152818401520161164f565b60405162461bcd60e51b8152602060048201526011602482015270496e76616c6964207369676e617475726560781b6044820152606490fd5b60405162461bcd60e51b815260206004820152601760248201527f54696d657374616d70206d757374206265206e657765720000000000000000006044820152606490fd5b60405162461bcd60e51b8152602060048201526011602482015270151a5b595cdd185b5c08195e1c1a5c9959607a1b6044820152606490fd5b60405162461bcd60e51b815260206004820152601960248201527f54696d657374616d702066726f6d2074686520667574757265000000000000006044820152606490fd5b60405162461bcd60e51b815260206004820152601f60248201527f436f6e74726163742068617320696e73756666696369656e742066756e6473006044820152606490fd5b90506020813d602011611fa0575b81611f91602093836112ba565b8101031261130d57513861140a565b3d9150611f84565b60405162461bcd60e51b815260206004820152602660248201527f546f74616c2062657420616d6f756e74206d757374206d617463682073656e746044820152652076616c756560d01b6064820152608490fd5b915061201660019161200f84888b611217565b3590611103565b910190859161137f565b60405162461bcd60e51b815260206004820152601960248201527f4265742065786365656473206d6178696d756d206c696d6974000000000000006044820152606490fd5b60405162461bcd60e51b815260206004820152603e60248201527f5468652062657420616d6f756e74206d7573742062652067726561746572207460448201527f68616e20746865206d696e696d756d2072657175697265642076616c756500006064820152608490fd5b156120d757565b60405162461bcd60e51b815260206004820152601a60248201527f4e6f2070656e64696e6720677561726469616e206368616e67650000000000006044820152606490fd5b1561212357565b60405162461bcd60e51b815260206004820152602860248201527f4d75737420776169742033206461797320746f20636f6e6669726d2061646d696044820152676e206368616e676560c01b6064820152608490fd5b1561218057565b60405162461bcd60e51b815260206004820152602160248201527f4e6f2070656e64696e672077696e2070726f626162696c697479206368616e676044820152606560f81b6064820152608490fd5b156121d657565b60405162461bcd60e51b815260206004820152601760248201527f4e6f2070656e64696e672061646d696e206368616e67650000000000000000006044820152606490fd5b60405163a9059cbb60e01b60208201526001600160a01b0392909216602483015260448083019390935291815261225c916122576064836112ba565b6123ab565b565b6000805b6060811061226f57505050565b60209060405161227e81611250565b83815283838201528185015201612262565b9060068110156112275760051b0190565b5160038110156118df5790565b91906020600a6122c982865101518380880151015190611103565b0691600a6122e283835101518480850151015190611103565b0694600884108061234d575b6122fa575b5050509190565b60068410612330575b5060068510612313575b806122f3565b6040015101519092600a9161232791611103565b0691388061230d565b600a9193836040612345930151015190611103565b069138612303565b50600886106122ee565b80518210156112275760209160051b010190565b919082519283825260005b848110612397575050826000602080949584010152601f8019910116010190565b602081830181015184830182015201612376565b60018060a01b0316906124286040516123c381611250565b6020938482527f5361666545524332303a206c6f772d6c6576656c2063616c6c206661696c6564858301526000808587829751910182855af13d156124be573d9161240d83611312565b9261241b60405194856112ba565b83523d868885013e6126f8565b80519182159184831561249a575b5050509050156124435750565b6084906040519062461bcd60e51b82526004820152602a60248201527f5361666545524332303a204552433230206f7065726174696f6e20646964206e6044820152691bdd081cdd58d8d9595960b21b6064820152fd5b9193818094500103126101db57820151908115158203610247575080388084612436565b6060916126f8565b60038110156118df57600181036124ee57508060021b90808204600414901517156111105790565b8061250a57508060011b90808204600214901517156111105790565b6002146125175750600090565b8060011b90808204600214901517156111105790565b90604181511460001461255b57612557916020820151906060604084015193015160001a90612669565b9091565b5050600090600290565b60058110156118df57806125765750565b600181036125c35760405162461bcd60e51b815260206004820152601860248201527f45434453413a20696e76616c6964207369676e617475726500000000000000006044820152606490fd5b600281036126105760405162461bcd60e51b815260206004820152601f60248201527f45434453413a20696e76616c6964207369676e6174757265206c656e677468006044820152606490fd5b60031461261957565b60405162461bcd60e51b815260206004820152602260248201527f45434453413a20696e76616c6964207369676e6174757265202773272076616c604482015261756560f01b6064820152608490fd5b9291907f7fffffffffffffffffffffffffffffff5d576e7357a4501ddfe92f46681b20a083116126ec5791608094939160ff602094604051948552168484015260408301526060820152600093849182805260015afa156126df5781516001600160a01b038116156126d9579190565b50600190565b50604051903d90823e3d90fd5b50505050600090600390565b9192901561275a575081511561270c575090565b3b156127155790565b60405162461bcd60e51b815260206004820152601d60248201527f416464726573733a2063616c6c20746f206e6f6e2d636f6e74726163740000006044820152606490fd5b82519091501561276d5750805190602001fd5b60405162461bcd60e51b81526020600482015290819061279190602483019061236b565b0390fdfea2646970667358221220da0a7df50b5fb5cc0aaffc4fc19ba280175157eba7a3151b310c42ed6191320f64736f6c63430008180033546865206d6178696d756d206265742076616c7565206d757374206265206772","opcodes":"PUSH1 0xE0 PUSH1 0x1 PUSH1 0x1 PUSH1 0x40 SHL SUB PUSH1 0x1F PUSH3 0x2D03 CODESIZE DUP2 SWAP1 SUB SWAP2 DUP3 ADD PUSH1 0x1F NOT AND DUP5 ADD SWAP2 SWAP1 DUP4 DUP4 GT DUP6 DUP5 LT OR PUSH3 0x4D0 JUMPI DUP2 PUSH1 0xA0 SWAP3 DUP7 SWAP3 PUSH1 0x40 SWAP6 DUP7 MSTORE DUP4 CODECOPY DUP2 ADD SUB SLT PUSH3 0x4CB JUMPI PUSH3 0x4B DUP4 PUSH3 0x502 JUMP JUMPDEST SWAP3 PUSH1 0x20 PUSH3 0x5B DUP2 DUP4 ADD PUSH3 0x502 JUMP JUMPDEST SWAP4 PUSH3 0x69 DUP5 DUP5 ADD PUSH3 0x502 JUMP JUMPDEST SWAP6 PUSH1 0x80 PUSH1 0x60 DUP6 ADD MLOAD SWAP5 ADD MLOAD SWAP6 PUSH1 0x1 PUSH1 0x0 SWAP6 DUP2 DUP8 SSTORE PUSH1 0xFF NOT SWAP9 DUP10 PUSH1 0xE SLOAD AND PUSH1 0xE SSTORE DUP1 ISZERO PUSH3 0x483 JUMPI DUP2 ISZERO PUSH3 0x42A JUMPI DUP2 DUP2 LT PUSH3 0x3D3 JUMPI DUP7 SWAP8 SWAP9 SWAP10 SWAP11 PUSH1 0x1 DUP1 PUSH1 0xA0 SHL SUB DUP1 SWAP2 AND PUSH1 0x80 MSTORE PUSH1 0x1 DUP1 PUSH1 0xA0 SHL SUB NOT SWAP1 DUP1 PUSH1 0x2 SWAP7 AND DUP3 DUP8 SLOAD AND OR DUP7 SSTORE PUSH1 0x3 SWAP7 AND SWAP1 DUP7 SLOAD AND OR DUP6 SSTORE PUSH1 0x5 DUP4 SSTORE PUSH1 0xB SSTORE PUSH1 0xC SSTORE DUP8 MLOAD PUSH3 0xE8 DUP2 PUSH3 0x4E6 JUMP JUMPDEST PUSH1 0x8 SWAP6 DUP2 DUP8 DUP1 SWAP4 MSTORE ADD PUSH8 0x109858D8D85C985D PUSH1 0xC2 SHL DUP2 MSTORE KECCAK256 DUP2 DUP8 DUP11 MLOAD PUSH3 0x10F DUP2 PUSH3 0x4E6 JUMP JUMPDEST DUP3 DUP2 MSTORE ADD PUSH1 0x31 PUSH1 0xF8 SHL DUP2 MSTORE KECCAK256 SWAP1 DUP10 MLOAD SWAP2 DUP9 DUP4 ADD SWAP2 PUSH32 0x8B73C3C69BB8FE3D512ECC4CF759CC79239F7B179B0FFACAA9A75D522B39400F DUP4 MSTORE DUP12 DUP5 ADD MSTORE PUSH1 0x60 DUP4 ADD MSTORE CHAINID PUSH1 0x80 DUP4 ADD MSTORE ADDRESS PUSH1 0xA0 DUP4 ADD MSTORE PUSH1 0xA0 DUP3 MSTORE PUSH1 0xC0 DUP3 ADD SWAP6 DUP3 DUP8 LT SWAP1 DUP8 GT OR PUSH3 0x3BF JUMPI SWAP10 DUP4 PUSH1 0xE0 DUP2 SWAP4 DUP13 SWAP14 DUP10 DUP14 SWAP15 MSTORE DUP2 MLOAD SWAP1 KECCAK256 PUSH1 0xA0 MSTORE DUP12 PUSH1 0x4 SWAP10 DUP11 PUSH1 0xC0 MSTORE PUSH3 0x196 DUP2 PUSH3 0x4E6 JUMP JUMPDEST MSTORE ADD MSTORE DUP1 PUSH1 0x29 SLOAD AND PUSH1 0x29 SSTORE DUP2 PUSH1 0x2A SSTORE DUP6 DUP9 DUP13 MLOAD PUSH3 0x1B4 DUP2 PUSH3 0x4E6 JUMP JUMPDEST DUP6 DUP2 MSTORE ADD MSTORE DUP3 DUP2 PUSH1 0x2B SLOAD AND OR PUSH1 0x2B SSTORE DUP6 PUSH1 0x2C SSTORE DUP2 DUP9 DUP13 MLOAD PUSH3 0x1D6 DUP2 PUSH3 0x4E6 JUMP JUMPDEST DUP3 DUP2 MSTORE ADD MSTORE PUSH1 0x2D SLOAD AND OR PUSH1 0x2D SSTORE DUP2 PUSH1 0x2E SSTORE DUP1 DUP7 DUP11 MLOAD PUSH3 0x1F6 DUP2 PUSH3 0x4E6 JUMP JUMPDEST DUP3 DUP2 MSTORE ADD MSTORE DUP1 PUSH1 0xF SSTORE PUSH1 0x10 SSTORE DUP1 DUP6 DUP10 MLOAD PUSH3 0x211 DUP2 PUSH3 0x4E6 JUMP JUMPDEST DUP3 DUP2 MSTORE ADD MSTORE DUP1 PUSH1 0x11 SSTORE PUSH1 0x12 SSTORE DUP1 DUP5 DUP9 MLOAD PUSH3 0x22C DUP2 PUSH3 0x4E6 JUMP JUMPDEST DUP3 DUP2 MSTORE ADD MSTORE DUP1 PUSH1 0x13 SSTORE PUSH1 0x14 SSTORE DUP1 DUP4 DUP8 MLOAD PUSH3 0x247 DUP2 PUSH3 0x4E6 JUMP JUMPDEST DUP3 DUP2 MSTORE ADD MSTORE DUP1 PUSH1 0x15 SSTORE PUSH1 0x16 SSTORE PUSH1 0x5 DUP3 DUP7 MLOAD PUSH3 0x263 DUP2 PUSH3 0x4E6 JUMP JUMPDEST DUP3 DUP2 MSTORE ADD MSTORE PUSH1 0x5 PUSH1 0x17 SSTORE PUSH1 0x5 PUSH1 0x18 SSTORE PUSH1 0x6 DUP3 DUP7 MLOAD PUSH3 0x282 DUP2 PUSH3 0x4E6 JUMP JUMPDEST DUP3 DUP2 MSTORE ADD MSTORE PUSH1 0x6 PUSH1 0x19 SSTORE PUSH1 0x6 PUSH1 0x1A SSTORE PUSH1 0x7 DUP3 DUP7 MLOAD PUSH3 0x2A1 DUP2 PUSH3 0x4E6 JUMP JUMPDEST DUP3 DUP2 MSTORE ADD MSTORE PUSH1 0x7 PUSH1 0x1B SSTORE PUSH1 0x7 PUSH1 0x1C SSTORE DUP1 DUP3 DUP7 MLOAD PUSH3 0x2BF DUP2 PUSH3 0x4E6 JUMP JUMPDEST DUP3 DUP2 MSTORE ADD MSTORE DUP1 PUSH1 0x1D SSTORE PUSH1 0x1E SSTORE PUSH1 0x9 DUP2 DUP6 MLOAD PUSH3 0x2DB DUP2 PUSH3 0x4E6 JUMP JUMPDEST DUP3 DUP2 MSTORE ADD MSTORE PUSH1 0x9 PUSH1 0x1F SSTORE PUSH1 0x9 DUP2 SSTORE DUP2 DUP2 DUP6 MLOAD PUSH3 0x2F8 DUP2 PUSH3 0x4E6 JUMP JUMPDEST PUSH1 0xA DUP2 MSTORE ADD MSTORE PUSH1 0xA PUSH1 0x21 SSTORE DUP2 PUSH1 0x22 SSTORE DUP2 DUP2 DUP6 MLOAD PUSH3 0x316 DUP2 PUSH3 0x4E6 JUMP JUMPDEST PUSH1 0xB DUP2 MSTORE ADD MSTORE PUSH1 0xB PUSH1 0x23 SSTORE DUP2 PUSH1 0x24 SSTORE DUP2 DUP2 DUP6 MLOAD PUSH3 0x334 DUP2 PUSH3 0x4E6 JUMP JUMPDEST PUSH1 0xC DUP2 MSTORE ADD MSTORE PUSH1 0xC PUSH1 0x25 SSTORE DUP2 PUSH1 0x26 SSTORE DUP4 MLOAD PUSH3 0x350 DUP2 PUSH3 0x4E6 JUMP JUMPDEST PUSH1 0xD DUP2 MSTORE ADD MSTORE PUSH1 0xD PUSH1 0x27 SSTORE PUSH1 0x28 SSTORE MLOAD PUSH2 0x27CB SWAP1 DUP2 PUSH3 0x518 DUP3 CODECOPY PUSH1 0x80 MLOAD DUP2 DUP2 DUP2 PUSH2 0x1AC ADD MSTORE DUP2 DUP2 PUSH2 0x63B ADD MSTORE DUP2 DUP2 PUSH2 0xF47 ADD MSTORE DUP2 DUP2 PUSH2 0x13D1 ADD MSTORE DUP2 DUP2 PUSH2 0x15B6 ADD MSTORE DUP2 DUP2 PUSH2 0x19A1 ADD MSTORE DUP2 DUP2 PUSH2 0x1A51 ADD MSTORE PUSH2 0x1A86 ADD MSTORE PUSH1 0xA0 MLOAD DUP2 PUSH2 0x14CE ADD MSTORE PUSH1 0xC0 MLOAD DUP2 DUP2 DUP2 PUSH2 0x576 ADD MSTORE PUSH2 0x1391 ADD MSTORE RETURN JUMPDEST PUSH4 0x4E487B71 PUSH1 0xE0 SHL DUP10 MSTORE PUSH1 0x41 PUSH1 0x4 MSTORE PUSH1 0x24 DUP10 REVERT JUMPDEST PUSH1 0x84 DUP8 DUP11 DUP1 MLOAD SWAP2 PUSH3 0x461BCD PUSH1 0xE5 SHL DUP4 MSTORE PUSH1 0x4 DUP4 ADD MSTORE PUSH1 0x24 DUP3 ADD MSTORE PUSH1 0x0 DUP1 MLOAD PUSH1 0x20 PUSH3 0x2CE3 DUP4 CODECOPY DUP2 MLOAD SWAP2 MSTORE PUSH1 0x44 DUP3 ADD MSTORE PUSH32 0x6561746572207468616E20746865206D696E696D756D206265742076616C7565 PUSH1 0x64 DUP3 ADD MSTORE REVERT JUMPDEST DUP9 MLOAD PUSH3 0x461BCD PUSH1 0xE5 SHL DUP2 MSTORE PUSH1 0x4 DUP2 ADD DUP9 SWAP1 MSTORE PUSH1 0x2C PUSH1 0x24 DUP3 ADD MSTORE PUSH32 0x546865206D696E696D756D206265742076616C7565206D757374206265206772 PUSH1 0x44 DUP3 ADD MSTORE PUSH12 0x6561746572207468616E203 PUSH1 0xA4 SHL PUSH1 0x64 DUP3 ADD MSTORE PUSH1 0x84 SWAP1 REVERT JUMPDEST DUP9 MLOAD PUSH3 0x461BCD PUSH1 0xE5 SHL DUP2 MSTORE PUSH1 0x4 DUP2 ADD DUP9 SWAP1 MSTORE PUSH1 0x2C PUSH1 0x24 DUP3 ADD MSTORE PUSH1 0x0 DUP1 MLOAD PUSH1 0x20 PUSH3 0x2CE3 DUP4 CODECOPY DUP2 MLOAD SWAP2 MSTORE PUSH1 0x44 DUP3 ADD MSTORE PUSH12 0x6561746572207468616E203 PUSH1 0xA4 SHL PUSH1 0x64 DUP3 ADD MSTORE PUSH1 0x84 SWAP1 REVERT JUMPDEST PUSH1 0x0 DUP1 REVERT JUMPDEST PUSH4 0x4E487B71 PUSH1 0xE0 SHL PUSH1 0x0 MSTORE PUSH1 0x41 PUSH1 0x4 MSTORE PUSH1 0x24 PUSH1 0x0 REVERT JUMPDEST PUSH1 0x40 DUP2 ADD SWAP1 DUP2 LT PUSH1 0x1 PUSH1 0x1 PUSH1 0x40 SHL SUB DUP3 GT OR PUSH3 0x4D0 JUMPI PUSH1 0x40 MSTORE JUMP JUMPDEST MLOAD SWAP1 PUSH1 0x1 PUSH1 0x1 PUSH1 0xA0 SHL SUB DUP3 AND DUP3 SUB PUSH3 0x4CB JUMPI JUMP INVALID PUSH1 0x40 PUSH1 0x80 DUP2 MSTORE PUSH1 0x4 SWAP1 DUP2 CALLDATASIZE LT ISZERO PUSH2 0x15 JUMPI PUSH1 0x0 DUP1 REVERT JUMPDEST PUSH1 0x0 SWAP2 DUP3 CALLDATALOAD PUSH1 0xE0 SHR SWAP1 DUP2 PUSH4 0xCEE1725 EQ PUSH2 0xEAB JUMPI DUP2 PUSH4 0x1157B267 EQ PUSH2 0xE4A JUMPI DUP2 PUSH4 0x1617F190 EQ PUSH2 0xE2B JUMPI DUP2 PUSH4 0x22F0F2F9 EQ PUSH2 0xDCE JUMPI DUP2 PUSH4 0x26782247 EQ PUSH2 0xDA6 JUMPI DUP2 PUSH4 0x28FC8B68 EQ PUSH2 0xD07 JUMPI DUP2 PUSH4 0x3AB0F330 EQ PUSH2 0xCE8 JUMPI DUP2 PUSH4 0x452A9320 EQ PUSH2 0xCBF JUMPI DUP2 PUSH4 0x4ADDD5F6 EQ PUSH2 0xC6A JUMPI DUP2 PUSH4 0x677660E0 EQ PUSH2 0xB9B JUMPI DUP2 PUSH4 0x69F2941D EQ PUSH2 0xB7C JUMPI DUP2 PUSH4 0x71D00086 EQ PUSH2 0xAD6 JUMPI DUP2 PUSH4 0x753868E3 EQ PUSH2 0xA76 JUMPI DUP2 PUSH4 0x762C31BA EQ PUSH2 0xA4D JUMPI DUP2 PUSH4 0x7CE3C6DC EQ PUSH2 0x9AF JUMPI DUP2 PUSH4 0x847D1E90 EQ PUSH2 0x901 JUMPI DUP2 PUSH4 0x8C51D1E4 EQ PUSH2 0x85F JUMPI DUP2 PUSH4 0x9A138974 EQ PUSH2 0x762 JUMPI DUP2 PUSH4 0x9D1C35E2 EQ PUSH2 0x5EA JUMPI DUP2 PUSH4 0x9E090628 EQ PUSH2 0x599 JUMPI DUP2 PUSH4 0xA48158E5 EQ PUSH2 0x55E JUMPI DUP2 PUSH4 0xA4E2D634 EQ PUSH2 0x53A JUMPI DUP2 PUSH4 0xA74B6783 EQ PUSH2 0x47A JUMPI DUP2 PUSH4 0xA9860B97 EQ PUSH2 0x45B JUMPI DUP2 PUSH4 0xBA8A305C EQ PUSH2 0x43C JUMPI DUP2 PUSH4 0xBFF42FE4 EQ PUSH2 0x41D JUMPI DUP2 PUSH4 0xDCCFAC82 EQ PUSH2 0x3E3 JUMPI DUP2 PUSH4 0xE065FC93 EQ PUSH2 0x30A JUMPI DUP2 PUSH4 0xE1D8192C EQ PUSH2 0x2EB JUMPI DUP2 PUSH4 0xED3CACC1 EQ PUSH2 0x2CC JUMPI DUP2 PUSH4 0xF301AF42 EQ PUSH2 0x272 JUMPI POP DUP1 PUSH4 0xF851A440 EQ PUSH2 0x24A JUMPI DUP1 PUSH4 0xFB49FE27 EQ PUSH2 0x1DF JUMPI PUSH4 0xFC0C546A EQ PUSH2 0x199 JUMPI PUSH1 0x0 DUP1 REVERT JUMPDEST CALLVALUE PUSH2 0x1DB JUMPI DUP2 PUSH1 0x3 NOT CALLDATASIZE ADD SLT PUSH2 0x1DB JUMPI MLOAD PUSH32 0x0 PUSH1 0x1 PUSH1 0x1 PUSH1 0xA0 SHL SUB AND DUP2 MSTORE PUSH1 0x20 SWAP1 RETURN JUMPDEST POP DUP1 REVERT JUMPDEST DUP3 CALLVALUE PUSH2 0x247 JUMPI DUP1 PUSH1 0x3 NOT CALLDATASIZE ADD SLT PUSH2 0x247 JUMPI PUSH2 0x205 PUSH1 0x1 DUP1 PUSH1 0xA0 SHL SUB PUSH1 0x3 SLOAD AND CALLER EQ PUSH2 0x1126 JUMP JUMPDEST PUSH12 0xFFFFFFFFFFFFFFFFFFFFFFFF PUSH1 0xA0 SHL PUSH1 0x6 SLOAD AND PUSH1 0x6 SSTORE DUP1 PUSH1 0x7 SSTORE PUSH32 0x7A81C642828249AE51A34CF52E35EBBF08BD3CB36FB5A4B4C8E80261893F5B81 DUP2 DUP1 LOG1 DUP1 RETURN JUMPDEST DUP1 REVERT JUMPDEST POP CALLVALUE PUSH2 0x1DB JUMPI DUP2 PUSH1 0x3 NOT CALLDATASIZE ADD SLT PUSH2 0x1DB JUMPI PUSH1 0x2 SLOAD SWAP1 MLOAD PUSH1 0x1 PUSH1 0x1 PUSH1 0xA0 SHL SUB SWAP1 SWAP2 AND DUP2 MSTORE PUSH1 0x20 SWAP1 RETURN JUMPDEST SWAP1 POP DUP3 CALLVALUE PUSH2 0x247 JUMPI PUSH1 0x20 CALLDATASIZE PUSH1 0x3 NOT ADD SLT PUSH2 0x247 JUMPI DUP2 CALLDATALOAD PUSH1 0x3 DUP2 LT ISZERO PUSH2 0x1DB JUMPI PUSH1 0x1 SHL PUSH1 0x2A PUSH1 0xFF DUP3 PUSH1 0x29 ADD SLOAD AND SWAP2 ADD SLOAD SWAP2 DUP5 MLOAD SWAP4 PUSH1 0x3 DUP4 LT ISZERO PUSH2 0x2B9 JUMPI POP POP DUP3 MSTORE PUSH1 0x20 DUP3 ADD MSTORE RETURN JUMPDEST PUSH4 0x4E487B71 PUSH1 0xE0 SHL DUP3 MSTORE PUSH1 0x21 SWAP1 MSTORE PUSH1 0x24 SWAP1 REVERT JUMPDEST POP POP CALLVALUE PUSH2 0x1DB JUMPI DUP2 PUSH1 0x3 NOT CALLDATASIZE ADD SLT PUSH2 0x1DB JUMPI PUSH1 0x20 SWAP1 PUSH1 0x7 SLOAD SWAP1 MLOAD SWAP1 DUP2 MSTORE RETURN JUMPDEST POP POP CALLVALUE PUSH2 0x1DB JUMPI DUP2 PUSH1 0x3 NOT CALLDATASIZE ADD SLT PUSH2 0x1DB JUMPI PUSH1 0x20 SWAP1 PUSH1 0x9 SLOAD SWAP1 MLOAD SWAP1 DUP2 MSTORE RETURN JUMPDEST SWAP2 SWAP1 POP CALLVALUE PUSH2 0x3DF JUMPI PUSH1 0x20 CALLDATASIZE PUSH1 0x3 NOT ADD SLT PUSH2 0x3DF JUMPI DUP2 CALLDATALOAD SWAP2 PUSH2 0x336 PUSH1 0x1 DUP1 PUSH1 0xA0 SHL SUB PUSH1 0x2 SLOAD AND CALLER EQ PUSH2 0x1076 JUMP JUMPDEST DUP3 ISZERO PUSH2 0x391 JUMPI POP PUSH32 0xA9F6EF469A02717105903BBCE25C47A4DB6A0D759D929C5CD9BF295A7033B174 SWAP2 PUSH2 0x38B SWAP2 PUSH2 0x370 PUSH1 0xC SLOAD DUP4 GT PUSH2 0x11B0 JUMP JUMPDEST PUSH1 0xB DUP3 SWAP1 SSTORE MLOAD CALLER DUP2 MSTORE PUSH1 0x20 DUP2 ADD SWAP2 SWAP1 SWAP2 MSTORE SWAP1 DUP2 SWAP1 PUSH1 0x40 DUP3 ADD SWAP1 JUMP JUMPDEST SUB SWAP1 LOG1 DUP1 RETURN JUMPDEST PUSH1 0x20 PUSH1 0x84 SWAP3 MLOAD SWAP2 PUSH3 0x461BCD PUSH1 0xE5 SHL DUP4 MSTORE DUP3 ADD MSTORE PUSH1 0x23 PUSH1 0x24 DUP3 ADD MSTORE PUSH32 0x546865206D617869756D206265742076616C7565206772656174657220746861 PUSH1 0x44 DUP3 ADD MSTORE PUSH3 0x6E203 PUSH1 0xEC SHL PUSH1 0x64 DUP3 ADD MSTORE REVERT JUMPDEST DUP3 DUP1 REVERT JUMPDEST SWAP1 POP CALLVALUE PUSH2 0x3DF JUMPI PUSH1 0x20 CALLDATASIZE PUSH1 0x3 NOT ADD SLT PUSH2 0x3DF JUMPI CALLDATALOAD PUSH1 0x1 PUSH1 0x1 PUSH1 0xA0 SHL SUB DUP2 AND SWAP1 DUP2 SWAP1 SUB PUSH2 0x3DF JUMPI DUP3 DUP3 SWAP2 PUSH1 0x20 SWAP5 MSTORE PUSH1 0xD DUP5 MSTORE KECCAK256 SLOAD SWAP1 MLOAD SWAP1 DUP2 MSTORE RETURN JUMPDEST POP POP CALLVALUE PUSH2 0x1DB JUMPI DUP2 PUSH1 0x3 NOT CALLDATASIZE ADD SLT PUSH2 0x1DB JUMPI PUSH1 0x20 SWAP1 PUSH1 0x5 SLOAD SWAP1 MLOAD SWAP1 DUP2 MSTORE RETURN JUMPDEST POP POP CALLVALUE PUSH2 0x1DB JUMPI DUP2 PUSH1 0x3 NOT CALLDATASIZE ADD SLT PUSH2 0x1DB JUMPI PUSH1 0x20 SWAP1 PUSH1 0xB SLOAD SWAP1 MLOAD SWAP1 DUP2 MSTORE RETURN JUMPDEST POP POP CALLVALUE PUSH2 0x1DB JUMPI DUP2 PUSH1 0x3 NOT CALLDATASIZE ADD SLT PUSH2 0x1DB JUMPI PUSH1 0x20 SWAP1 PUSH1 0xA SLOAD SWAP1 MLOAD SWAP1 DUP2 MSTORE RETURN JUMPDEST DUP4 DUP4 CALLVALUE PUSH2 0x1DB JUMPI DUP2 PUSH1 0x3 NOT CALLDATASIZE ADD SLT PUSH2 0x1DB JUMPI PUSH1 0x2 SLOAD PUSH1 0x1 PUSH1 0x1 PUSH1 0xA0 SHL SUB SWAP2 SWAP1 PUSH2 0x4A6 CALLER DUP5 DUP4 AND EQ PUSH2 0x1076 JUMP JUMPDEST DUP5 SLOAD SWAP3 DUP4 AND SWAP3 PUSH2 0x4B7 DUP5 ISZERO ISZERO PUSH2 0x21CF JUMP JUMPDEST PUSH1 0x5 SLOAD PUSH2 0x4C5 DUP2 ISZERO ISZERO PUSH2 0x21CF JUMP JUMPDEST PUSH3 0x3F480 DUP2 ADD DUP1 SWAP2 GT PUSH2 0x527 JUMPI PUSH32 0x7CE7EC0B50378FB6C0186FFB5F48325F6593FCB4CA4386F21861AF3129188F5C SWAP5 SWAP3 PUSH1 0x20 SWAP5 SWAP3 PUSH2 0x506 DUP10 SWAP4 TIMESTAMP LT ISZERO PUSH2 0x211C JUMP JUMPDEST PUSH1 0x1 PUSH1 0x1 PUSH1 0xA0 SHL SUB NOT SWAP2 DUP3 AND DUP6 OR PUSH1 0x2 SSTORE AND SWAP1 SSTORE PUSH1 0x5 DUP6 SWAP1 SSTORE MLOAD SWAP1 DUP2 MSTORE LOG1 DUP1 RETURN JUMPDEST PUSH4 0x4E487B71 PUSH1 0xE0 SHL DUP7 MSTORE PUSH1 0x11 DUP8 MSTORE PUSH1 0x24 DUP7 REVERT JUMPDEST POP POP CALLVALUE PUSH2 0x1DB JUMPI DUP2 PUSH1 0x3 NOT CALLDATASIZE ADD SLT PUSH2 0x1DB JUMPI PUSH1 0x20 SWAP1 PUSH1 0xFF PUSH1 0xE SLOAD AND SWAP1 MLOAD SWAP1 ISZERO ISZERO DUP2 MSTORE RETURN JUMPDEST POP POP CALLVALUE PUSH2 0x1DB JUMPI DUP2 PUSH1 0x3 NOT CALLDATASIZE ADD SLT PUSH2 0x1DB JUMPI PUSH1 0x20 SWAP1 MLOAD PUSH32 0x0 DUP2 MSTORE RETURN JUMPDEST DUP4 CALLVALUE PUSH2 0x247 JUMPI DUP1 PUSH1 0x3 NOT CALLDATASIZE ADD SLT PUSH2 0x247 JUMPI PUSH2 0x5BF PUSH1 0x1 DUP1 PUSH1 0xA0 SHL SUB PUSH1 0x3 SLOAD AND CALLER EQ PUSH2 0x1126 JUMP JUMPDEST DUP1 PUSH1 0x8 SSTORE PUSH32 0x94A9B8FB6E694C6C0FBEE0E13E1C5B9AE2DDA4395E3495228A46DC717617C6FA DUP2 DUP1 LOG1 DUP1 RETURN JUMPDEST DUP4 SWAP2 POP CALLVALUE PUSH2 0x1DB JUMPI DUP2 PUSH1 0x3 NOT CALLDATASIZE ADD SLT PUSH2 0x1DB JUMPI PUSH1 0x2 SLOAD PUSH1 0x1 PUSH1 0x1 PUSH1 0xA0 SHL SUB SWAP2 SWAP1 PUSH2 0x617 SWAP1 DUP4 AND CALLER EQ PUSH2 0x1076 JUMP JUMPDEST PUSH1 0x8 SLOAD PUSH2 0x715 JUMPI DUP4 MLOAD DUP1 SWAP3 PUSH4 0x70A08231 PUSH1 0xE0 SHL DUP3 MSTORE ADDRESS DUP4 DUP4 ADD MSTORE DUP2 PUSH1 0x24 PUSH1 0x20 SWAP6 DUP7 SWAP4 PUSH32 0x0 AND GAS STATICCALL SWAP1 DUP2 ISZERO PUSH2 0x70B JUMPI DUP5 SWAP2 PUSH2 0x6DA JUMPI JUMPDEST POP ISZERO PUSH2 0x6A1 JUMPI POP PUSH32 0xE20350BD5FF90B7BDBCB8229CF46C222A5F5B18F094A1AC5962451445FDA1076 SWAP2 SWAP3 TIMESTAMP PUSH1 0x8 SSTORE MLOAD TIMESTAMP DUP2 MSTORE LOG1 DUP1 RETURN JUMPDEST PUSH1 0x64 SWAP2 DUP5 MLOAD SWAP2 PUSH3 0x461BCD PUSH1 0xE5 SHL DUP4 MSTORE DUP3 ADD MSTORE PUSH1 0x15 PUSH1 0x24 DUP3 ADD MSTORE PUSH21 0x4E6F20746F6B656E7320746F207769746864726177 PUSH1 0x58 SHL PUSH1 0x44 DUP3 ADD MSTORE REVERT JUMPDEST SWAP1 POP DUP3 DUP2 DUP2 RETURNDATASIZE DUP4 GT PUSH2 0x704 JUMPI JUMPDEST PUSH2 0x6F1 DUP2 DUP4 PUSH2 0x12BA JUMP JUMPDEST DUP2 ADD SUB SLT PUSH2 0x700 JUMPI MLOAD DUP6 PUSH2 0x66B JUMP JUMPDEST DUP4 DUP1 REVERT JUMPDEST POP RETURNDATASIZE PUSH2 0x6E7 JUMP JUMPDEST DUP6 MLOAD RETURNDATASIZE DUP7 DUP3 RETURNDATACOPY RETURNDATASIZE SWAP1 REVERT JUMPDEST PUSH1 0x84 SWAP1 PUSH1 0x20 DUP6 MLOAD SWAP2 PUSH3 0x461BCD PUSH1 0xE5 SHL DUP4 MSTORE DUP3 ADD MSTORE PUSH1 0x21 PUSH1 0x24 DUP3 ADD MSTORE PUSH32 0x5769746864726177616C207265717565737420697320696E2070726F67726573 PUSH1 0x44 DUP3 ADD MSTORE PUSH1 0x73 PUSH1 0xF8 SHL PUSH1 0x64 DUP3 ADD MSTORE REVERT JUMPDEST SWAP2 SWAP1 POP CALLVALUE PUSH2 0x3DF JUMPI DUP3 PUSH1 0x3 NOT CALLDATASIZE ADD SLT PUSH2 0x3DF JUMPI PUSH2 0x78A PUSH1 0x1 DUP1 PUSH1 0xA0 SHL SUB PUSH1 0x2 SLOAD AND CALLER EQ PUSH2 0x1076 JUMP JUMPDEST PUSH1 0x9 SLOAD SWAP2 PUSH2 0x799 DUP4 ISZERO ISZERO PUSH2 0x2179 JUMP JUMPDEST PUSH1 0xA SLOAD PUSH2 0x7A7 DUP2 ISZERO ISZERO PUSH2 0x2179 JUMP JUMPDEST PUSH3 0x3F480 DUP2 ADD DUP1 SWAP2 GT PUSH2 0x84C JUMPI TIMESTAMP LT PUSH2 0x7F4 JUMPI POP DUP2 PUSH1 0x20 SWAP2 PUSH32 0x9DC86596CA5F70A96C96B2CB0BE04F02B7DA0A6261F97D43CEBCC921020B1925 SWAP4 PUSH1 0x1 SSTORE DUP5 PUSH1 0x9 SSTORE DUP5 PUSH1 0xA SSTORE MLOAD SWAP1 DUP2 MSTORE LOG1 DUP1 RETURN JUMPDEST PUSH1 0x20 PUSH1 0x84 SWAP3 MLOAD SWAP2 PUSH3 0x461BCD PUSH1 0xE5 SHL DUP4 MSTORE DUP3 ADD MSTORE PUSH1 0x2D PUSH1 0x24 DUP3 ADD MSTORE PUSH32 0x4D75737420776169742033206461797320746F20636F6E6669726D2073656564 PUSH1 0x44 DUP3 ADD MSTORE PUSH13 0x207265656C73206368616E6765 PUSH1 0x98 SHL PUSH1 0x64 DUP3 ADD MSTORE REVERT JUMPDEST PUSH4 0x4E487B71 PUSH1 0xE0 SHL DUP6 MSTORE PUSH1 0x11 DUP3 MSTORE PUSH1 0x24 DUP6 REVERT JUMPDEST SWAP2 SWAP1 POP CALLVALUE PUSH2 0x3DF JUMPI PUSH1 0x20 CALLDATASIZE PUSH1 0x3 NOT ADD SLT PUSH2 0x3DF JUMPI DUP2 CALLDATALOAD PUSH1 0x1 PUSH1 0x1 PUSH1 0xA0 SHL SUB DUP2 DUP2 AND SWAP4 SWAP1 SWAP3 SWAP1 DUP5 DUP4 SUB PUSH2 0x8FD JUMPI PUSH32 0x72B357B8C271031AAD940E03E51F8C172B495A1DD60D6E902D339C7F49604102 SWAP5 PUSH2 0x8BF PUSH2 0x38B SWAP6 PUSH1 0x2 SLOAD AND CALLER EQ PUSH2 0x1076 JUMP JUMPDEST PUSH2 0x8CA DUP2 ISZERO ISZERO PUSH2 0x1172 JUMP JUMPDEST DUP2 SLOAD PUSH1 0x1 PUSH1 0x1 PUSH1 0xA0 SHL SUB NOT AND OR SWAP1 SSTORE TIMESTAMP PUSH1 0x5 DUP2 SWAP1 SSTORE SWAP1 MLOAD PUSH1 0x1 PUSH1 0x1 PUSH1 0xA0 SHL SUB SWAP1 SWAP3 AND DUP3 MSTORE PUSH1 0x20 DUP3 ADD MSTORE SWAP1 DUP2 SWAP1 PUSH1 0x40 DUP3 ADD SWAP1 JUMP JUMPDEST DUP6 DUP1 REVERT JUMPDEST DUP4 DUP4 CALLVALUE PUSH2 0x1DB JUMPI DUP2 PUSH1 0x3 NOT CALLDATASIZE ADD SLT PUSH2 0x1DB JUMPI PUSH1 0x3 SLOAD PUSH1 0x1 PUSH1 0x1 PUSH1 0xA0 SHL SUB SWAP2 SWAP1 PUSH2 0x92D CALLER DUP5 DUP4 AND EQ PUSH2 0x1126 JUMP JUMPDEST PUSH1 0x6 SLOAD SWAP3 DUP4 AND SWAP3 PUSH2 0x93F DUP5 ISZERO ISZERO PUSH2 0x20D0 JUMP JUMPDEST PUSH1 0x7 SLOAD PUSH2 0x94D DUP2 ISZERO ISZERO PUSH2 0x20D0 JUMP JUMPDEST PUSH3 0x3F480 DUP2 ADD DUP1 SWAP2 GT PUSH2 0x527 JUMPI SWAP2 PUSH1 0x20 SWAP4 SWAP2 PUSH2 0x98D PUSH32 0x1C6520CF747E4632B43B535B91AFE3950CCABC4AB29BBD89E3C1F6B0BA05655 SWAP7 SWAP5 TIMESTAMP LT ISZERO PUSH2 0x211C JUMP JUMPDEST PUSH1 0x1 PUSH1 0x1 PUSH1 0xA0 SHL SUB NOT SWAP2 DUP3 AND DUP5 OR PUSH1 0x3 SSTORE AND PUSH1 0x6 SSTORE PUSH1 0x7 DUP6 SWAP1 SSTORE MLOAD SWAP1 DUP2 MSTORE LOG1 DUP1 RETURN JUMPDEST DUP4 SWAP1 PUSH1 0x80 CALLDATASIZE PUSH1 0x3 NOT ADD SLT PUSH2 0x1DB JUMPI PUSH8 0xFFFFFFFFFFFFFFFF DUP2 CALLDATALOAD DUP2 DUP2 GT PUSH2 0x700 JUMPI CALLDATASIZE PUSH1 0x23 DUP3 ADD SLT ISZERO PUSH2 0x700 JUMPI DUP1 DUP4 ADD CALLDATALOAD DUP3 DUP2 GT PUSH2 0xA49 JUMPI CALLDATASIZE PUSH1 0x24 DUP3 PUSH1 0x6 SHL DUP5 ADD ADD GT PUSH2 0xA49 JUMPI PUSH1 0x64 CALLDATALOAD SWAP4 DUP4 DUP6 GT PUSH2 0x8FD JUMPI CALLDATASIZE PUSH1 0x23 DUP7 ADD SLT ISZERO PUSH2 0x8FD JUMPI DUP5 ADD CALLDATALOAD SWAP3 DUP4 GT PUSH2 0xA49 JUMPI CALLDATASIZE PUSH1 0x24 DUP5 DUP7 ADD ADD GT PUSH2 0xA49 JUMPI PUSH1 0x24 PUSH2 0xA46 SWAP5 PUSH2 0xA35 PUSH1 0xFF PUSH1 0xE SLOAD AND ISZERO PUSH2 0x10C2 JUMP JUMPDEST ADD SWAP2 PUSH1 0x44 CALLDATALOAD SWAP2 PUSH1 0x24 DUP1 CALLDATALOAD SWAP3 ADD PUSH2 0x1361 JUMP JUMPDEST DUP1 RETURN JUMPDEST DUP5 DUP1 REVERT JUMPDEST POP POP CALLVALUE PUSH2 0x1DB JUMPI DUP2 PUSH1 0x3 NOT CALLDATASIZE ADD SLT PUSH2 0x1DB JUMPI PUSH1 0x6 SLOAD SWAP1 MLOAD PUSH1 0x1 PUSH1 0x1 PUSH1 0xA0 SHL SUB SWAP1 SWAP2 AND DUP2 MSTORE PUSH1 0x20 SWAP1 RETURN JUMPDEST POP POP CALLVALUE PUSH2 0x1DB JUMPI DUP2 PUSH1 0x3 NOT CALLDATASIZE ADD SLT PUSH2 0x1DB JUMPI PUSH1 0x20 PUSH32 0x46A289A85516D6B63CEC7F685E3F5398070F9FC5FB8E3D14021ADD023FEC568F SWAP2 PUSH2 0xAC1 PUSH1 0x1 DUP1 PUSH1 0xA0 SHL SUB PUSH1 0x3 SLOAD AND CALLER EQ PUSH2 0x1126 JUMP JUMPDEST PUSH1 0x1 PUSH1 0xFF NOT PUSH1 0xE SLOAD AND OR PUSH1 0xE SSTORE MLOAD CALLER DUP2 MSTORE LOG1 DUP1 RETURN JUMPDEST SWAP2 SWAP1 POP CALLVALUE PUSH2 0x3DF JUMPI PUSH1 0x20 CALLDATASIZE PUSH1 0x3 NOT ADD SLT PUSH2 0x3DF JUMPI DUP2 CALLDATALOAD SWAP2 PUSH2 0xB02 PUSH1 0x1 DUP1 PUSH1 0xA0 SHL SUB PUSH1 0x2 SLOAD AND CALLER EQ PUSH2 0x1076 JUMP JUMPDEST PUSH1 0x32 DUP4 LT ISZERO PUSH2 0xB41 JUMPI POP DUP2 PUSH1 0x20 SWAP2 PUSH32 0x9B161A37C93B297FE93D8F6F47F959BB91BD34A421B3892B0C91674CE107FB24 SWAP4 PUSH1 0x9 SSTORE TIMESTAMP PUSH1 0xA SSTORE MLOAD SWAP1 DUP2 MSTORE LOG1 DUP1 RETURN JUMPDEST PUSH1 0x20 PUSH1 0x64 SWAP3 MLOAD SWAP2 PUSH3 0x461BCD PUSH1 0xE5 SHL DUP4 MSTORE DUP3 ADD MSTORE PUSH1 0x16 PUSH1 0x24 DUP3 ADD MSTORE PUSH22 0x496E76616C69642077696E50726F626162696C697479 PUSH1 0x50 SHL PUSH1 0x44 DUP3 ADD MSTORE REVERT JUMPDEST POP POP CALLVALUE PUSH2 0x1DB JUMPI DUP2 PUSH1 0x3 NOT CALLDATASIZE ADD SLT PUSH2 0x1DB JUMPI PUSH1 0x20 SWAP1 PUSH1 0x1 SLOAD SWAP1 MLOAD SWAP1 DUP2 MSTORE RETURN JUMPDEST SWAP2 SWAP1 POP CALLVALUE PUSH2 0x3DF JUMPI PUSH1 0x20 CALLDATASIZE PUSH1 0x3 NOT ADD SLT PUSH2 0x3DF JUMPI DUP2 CALLDATALOAD SWAP2 PUSH2 0xBC7 PUSH1 0x1 DUP1 PUSH1 0xA0 SHL SUB PUSH1 0x2 SLOAD AND CALLER EQ PUSH2 0x1076 JUMP JUMPDEST DUP3 ISZERO PUSH2 0xC1C JUMPI POP DUP2 PUSH2 0x38B SWAP2 PUSH2 0xC01 PUSH32 0x96FD935283EBE139EFF1231BA7E60B91334B7E1E1C67C91C68B58F8D4A7B211F SWAP5 PUSH1 0xB SLOAD GT PUSH2 0x11B0 JUMP JUMPDEST PUSH1 0xC DUP3 SWAP1 SSTORE MLOAD CALLER DUP2 MSTORE PUSH1 0x20 DUP2 ADD SWAP2 SWAP1 SWAP2 MSTORE SWAP1 DUP2 SWAP1 PUSH1 0x40 DUP3 ADD SWAP1 JUMP JUMPDEST PUSH1 0x20 PUSH1 0x84 SWAP3 MLOAD SWAP2 PUSH3 0x461BCD PUSH1 0xE5 SHL DUP4 MSTORE DUP3 ADD MSTORE PUSH1 0x23 PUSH1 0x24 DUP3 ADD MSTORE PUSH32 0x546865206D696E69756D206265742076616C7565206772656174657220746861 PUSH1 0x44 DUP3 ADD MSTORE PUSH3 0x6E203 PUSH1 0xEC SHL PUSH1 0x64 DUP3 ADD MSTORE REVERT JUMPDEST DUP4 CALLVALUE PUSH2 0x247 JUMPI DUP1 PUSH1 0x3 NOT CALLDATASIZE ADD SLT PUSH2 0x247 JUMPI PUSH2 0xC90 PUSH1 0x1 DUP1 PUSH1 0xA0 SHL SUB PUSH1 0x2 SLOAD AND CALLER EQ PUSH2 0x1076 JUMP JUMPDEST DUP1 PUSH1 0x9 SSTORE DUP1 PUSH1 0xA SSTORE PUSH32 0x9EF48CACEFE12AB0A801D57BC51BEB3A36523278E29346ED7824936443456502 DUP2 DUP1 LOG1 DUP1 RETURN JUMPDEST POP POP CALLVALUE PUSH2 0x1DB JUMPI DUP2 PUSH1 0x3 NOT CALLDATASIZE ADD SLT PUSH2 0x1DB JUMPI PUSH1 0x3 SLOAD SWAP1 MLOAD PUSH1 0x1 PUSH1 0x1 PUSH1 0xA0 SHL SUB SWAP1 SWAP2 AND DUP2 MSTORE PUSH1 0x20 SWAP1 RETURN JUMPDEST POP POP CALLVALUE PUSH2 0x1DB JUMPI DUP2 PUSH1 0x3 NOT CALLDATASIZE ADD SLT PUSH2 0x1DB JUMPI PUSH1 0x20 SWAP1 PUSH1 0x8 SLOAD SWAP1 MLOAD SWAP1 DUP2 MSTORE RETURN JUMPDEST SWAP1 POP CALLVALUE PUSH2 0x3DF JUMPI PUSH1 0x20 CALLDATASIZE PUSH1 0x3 NOT ADD SLT PUSH2 0x3DF JUMPI PUSH1 0x1 PUSH1 0x1 PUSH1 0xA0 SHL SUB SWAP1 CALLDATALOAD DUP2 DUP2 AND SWAP3 DUP4 DUP3 SUB PUSH2 0xA49 JUMPI PUSH32 0x6C437B1584202B77482374DD2215B75E975B0BE0768B92ED5E4B048B0E109879 SWAP4 PUSH2 0xD63 PUSH2 0x38B SWAP5 PUSH1 0x3 SLOAD AND CALLER EQ PUSH2 0x1126 JUMP JUMPDEST PUSH2 0xD6E DUP2 ISZERO ISZERO PUSH2 0x1172 JUMP JUMPDEST PUSH1 0x6 DUP1 SLOAD PUSH1 0x1 PUSH1 0x1 PUSH1 0xA0 SHL SUB NOT AND SWAP2 SWAP1 SWAP2 OR SWAP1 SSTORE TIMESTAMP PUSH1 0x7 DUP2 SWAP1 SSTORE SWAP1 MLOAD PUSH1 0x1 PUSH1 0x1 PUSH1 0xA0 SHL SUB SWAP1 SWAP3 AND DUP3 MSTORE PUSH1 0x20 DUP3 ADD MSTORE SWAP1 DUP2 SWAP1 PUSH1 0x40 DUP3 ADD SWAP1 JUMP JUMPDEST SWAP1 POP CALLVALUE PUSH2 0x3DF JUMPI DUP3 PUSH1 0x3 NOT CALLDATASIZE ADD SLT PUSH2 0x3DF JUMPI SLOAD SWAP1 MLOAD PUSH1 0x1 PUSH1 0x1 PUSH1 0xA0 SHL SUB SWAP1 SWAP2 AND DUP2 MSTORE PUSH1 0x20 SWAP2 POP RETURN JUMPDEST POP POP CALLVALUE PUSH2 0x1DB JUMPI DUP2 PUSH1 0x3 NOT CALLDATASIZE ADD SLT PUSH2 0x1DB JUMPI PUSH1 0x20 PUSH32 0xF08396B9FD122C2EF99AEC183D994D39FA54CC25773E4B8A6ED20AD08AEF02C9 SWAP2 PUSH2 0xE19 PUSH1 0x1 DUP1 PUSH1 0xA0 SHL SUB PUSH1 0x3 SLOAD AND CALLER EQ PUSH2 0x1126 JUMP JUMPDEST PUSH1 0xFF NOT PUSH1 0xE SLOAD AND PUSH1 0xE SSTORE MLOAD CALLER DUP2 MSTORE LOG1 DUP1 RETURN JUMPDEST POP POP CALLVALUE PUSH2 0x1DB JUMPI DUP2 PUSH1 0x3 NOT CALLDATASIZE ADD SLT PUSH2 0x1DB JUMPI PUSH1 0x20 SWAP1 PUSH1 0xC SLOAD SWAP1 MLOAD SWAP1 DUP2 MSTORE RETURN JUMPDEST DUP4 SWAP1 CALLVALUE PUSH2 0x1DB JUMPI DUP2 PUSH1 0x3 NOT CALLDATASIZE ADD SLT PUSH2 0x1DB JUMPI PUSH2 0xE71 PUSH1 0x1 DUP1 PUSH1 0xA0 SHL SUB PUSH1 0x3 SLOAD AND CALLER EQ PUSH2 0x1126 JUMP JUMPDEST DUP1 SLOAD PUSH1 0x1 PUSH1 0x1 PUSH1 0xA0 SHL SUB NOT AND SWAP1 SSTORE PUSH1 0x5 DUP2 SWAP1 SSTORE PUSH32 0x7AD662E4DB36FE46EE1697376F8457B103123C200DE262CA4BAF9F5CAD0A1E8 DUP2 DUP1 LOG1 DUP1 RETURN JUMPDEST DUP4 SWAP2 POP CALLVALUE PUSH2 0x1DB JUMPI PUSH1 0x20 CALLDATASIZE PUSH1 0x3 NOT ADD SLT PUSH2 0x1DB JUMPI PUSH1 0x2 SLOAD DUP2 CALLDATALOAD SWAP2 PUSH1 0x1 PUSH1 0x1 PUSH1 0xA0 SHL SUB SWAP2 DUP3 AND SWAP1 PUSH2 0xEDC CALLER DUP4 EQ PUSH2 0x1076 JUMP JUMPDEST PUSH1 0x2 DUP6 SLOAD EQ PUSH2 0x1033 JUMPI PUSH1 0x2 DUP6 SSTORE PUSH2 0xEF8 PUSH1 0xFF PUSH1 0xE SLOAD AND ISZERO PUSH2 0x10C2 JUMP JUMPDEST PUSH1 0x8 SLOAD DUP1 ISZERO PUSH2 0xFFA JUMPI PUSH3 0x93A80 DUP2 ADD DUP1 SWAP2 GT PUSH2 0xFE7 JUMPI TIMESTAMP LT PUSH2 0xF99 JUMPI POP DUP4 SWAP5 SWAP2 PUSH2 0xF6B DUP5 PUSH2 0xF8F SWAP4 PUSH32 0x9AD672D4E7C4892DA934D1051932EBE9EC4B6EC8C3F40D569176DB3E93E5ABE SWAP8 PUSH1 0x8 SSTORE PUSH32 0x0 PUSH2 0x221B JUMP JUMPDEST PUSH1 0x2 SLOAD SWAP3 MLOAD SWAP3 AND PUSH1 0x1 PUSH1 0x1 PUSH1 0xA0 SHL SUB AND DUP3 MSTORE PUSH1 0x20 DUP3 ADD SWAP3 SWAP1 SWAP3 MSTORE SWAP1 DUP2 SWAP1 PUSH1 0x40 DUP3 ADD SWAP1 JUMP JUMPDEST SUB SWAP1 LOG1 PUSH1 0x1 DUP2 SSTORE DUP1 RETURN JUMPDEST PUSH1 0x84 SWAP1 PUSH1 0x20 DUP8 MLOAD SWAP2 PUSH3 0x461BCD PUSH1 0xE5 SHL DUP4 MSTORE DUP3 ADD MSTORE PUSH1 0x22 PUSH1 0x24 DUP3 ADD MSTORE PUSH32 0x4D75737420776169742037206461797320746F2077697468647261772066756E PUSH1 0x44 DUP3 ADD MSTORE PUSH2 0x6473 PUSH1 0xF0 SHL PUSH1 0x64 DUP3 ADD MSTORE REVERT JUMPDEST PUSH4 0x4E487B71 PUSH1 0xE0 SHL DUP7 MSTORE PUSH1 0x11 DUP3 MSTORE PUSH1 0x24 DUP7 REVERT JUMPDEST DUP7 MLOAD PUSH3 0x461BCD PUSH1 0xE5 SHL DUP2 MSTORE PUSH1 0x20 DUP2 DUP5 ADD MSTORE PUSH1 0x13 PUSH1 0x24 DUP3 ADD MSTORE PUSH19 0x4E6F2070656E64696E67207769746864726177 PUSH1 0x68 SHL PUSH1 0x44 DUP3 ADD MSTORE PUSH1 0x64 SWAP1 REVERT JUMPDEST PUSH1 0x64 SWAP1 PUSH1 0x20 DUP8 MLOAD SWAP2 PUSH3 0x461BCD PUSH1 0xE5 SHL DUP4 MSTORE DUP3 ADD MSTORE PUSH1 0x1F PUSH1 0x24 DUP3 ADD MSTORE PUSH32 0x5265656E7472616E637947756172643A207265656E7472616E742063616C6C00 PUSH1 0x44 DUP3 ADD MSTORE REVERT JUMPDEST ISZERO PUSH2 0x107D JUMPI JUMP JUMPDEST PUSH1 0x40 MLOAD PUSH3 0x461BCD PUSH1 0xE5 SHL DUP2 MSTORE PUSH1 0x20 PUSH1 0x4 DUP3 ADD MSTORE PUSH1 0x1B PUSH1 0x24 DUP3 ADD MSTORE PUSH32 0x4F6E6C792061646D696E2063616E206578656375746520746869730000000000 PUSH1 0x44 DUP3 ADD MSTORE PUSH1 0x64 SWAP1 REVERT JUMPDEST ISZERO PUSH2 0x10C9 JUMPI JUMP JUMPDEST PUSH1 0x40 MLOAD PUSH3 0x461BCD PUSH1 0xE5 SHL DUP2 MSTORE PUSH1 0x20 PUSH1 0x4 DUP3 ADD MSTORE PUSH1 0x12 PUSH1 0x24 DUP3 ADD MSTORE PUSH18 0x10DBDB9D1C9858DD081A5CC81B1BD8DAD959 PUSH1 0x72 SHL PUSH1 0x44 DUP3 ADD MSTORE PUSH1 0x64 SWAP1 REVERT JUMPDEST SWAP2 SWAP1 DUP3 ADD DUP1 SWAP3 GT PUSH2 0x1110 JUMPI JUMP JUMPDEST PUSH4 0x4E487B71 PUSH1 0xE0 SHL PUSH1 0x0 MSTORE PUSH1 0x11 PUSH1 0x4 MSTORE PUSH1 0x24 PUSH1 0x0 REVERT JUMPDEST ISZERO PUSH2 0x112D JUMPI JUMP JUMPDEST PUSH1 0x40 MLOAD PUSH3 0x461BCD PUSH1 0xE5 SHL DUP2 MSTORE PUSH1 0x20 PUSH1 0x4 DUP3 ADD MSTORE PUSH1 0x1E PUSH1 0x24 DUP3 ADD MSTORE PUSH32 0x4F6E6C7920677561726469616E2063616E206578656375746520746869730000 PUSH1 0x44 DUP3 ADD MSTORE PUSH1 0x64 SWAP1 REVERT JUMPDEST ISZERO PUSH2 0x1179 JUMPI JUMP JUMPDEST PUSH1 0x40 MLOAD PUSH3 0x461BCD PUSH1 0xE5 SHL DUP2 MSTORE PUSH1 0x20 PUSH1 0x4 DUP3 ADD MSTORE PUSH1 0xF PUSH1 0x24 DUP3 ADD MSTORE PUSH15 0x496E76616C69642061646472657373 PUSH1 0x88 SHL PUSH1 0x44 DUP3 ADD MSTORE PUSH1 0x64 SWAP1 REVERT JUMPDEST ISZERO PUSH2 0x11B7 JUMPI JUMP JUMPDEST PUSH1 0x40 MLOAD PUSH3 0x461BCD PUSH1 0xE5 SHL DUP2 MSTORE PUSH1 0x20 PUSH1 0x4 DUP3 ADD MSTORE PUSH1 0x32 PUSH1 0x24 DUP3 ADD MSTORE PUSH32 0x546865206D617869756D206265742076616C7565206772656174657220746861 PUSH1 0x44 DUP3 ADD MSTORE PUSH18 0x6E206D696E69756D206265742076616C7565 PUSH1 0x70 SHL PUSH1 0x64 DUP3 ADD MSTORE PUSH1 0x84 SWAP1 REVERT JUMPDEST SWAP2 SWAP1 DUP2 LT ISZERO PUSH2 0x1227 JUMPI PUSH1 0x6 SHL ADD SWAP1 JUMP JUMPDEST PUSH4 0x4E487B71 PUSH1 0xE0 SHL PUSH1 0x0 MSTORE PUSH1 0x32 PUSH1 0x4 MSTORE PUSH1 0x24 PUSH1 0x0 REVERT JUMPDEST DUP2 DUP2 MUL SWAP3 SWAP2 DUP2 ISZERO SWAP2 DUP5 DIV EQ OR ISZERO PUSH2 0x1110 JUMPI JUMP JUMPDEST PUSH1 0x40 DUP2 ADD SWAP1 DUP2 LT PUSH8 0xFFFFFFFFFFFFFFFF DUP3 GT OR PUSH2 0x126C JUMPI PUSH1 0x40 MSTORE JUMP JUMPDEST PUSH4 0x4E487B71 PUSH1 0xE0 SHL PUSH1 0x0 MSTORE PUSH1 0x41 PUSH1 0x4 MSTORE PUSH1 0x24 PUSH1 0x0 REVERT JUMPDEST PUSH1 0xA0 DUP2 ADD SWAP1 DUP2 LT PUSH8 0xFFFFFFFFFFFFFFFF DUP3 GT OR PUSH2 0x126C JUMPI PUSH1 0x40 MSTORE JUMP JUMPDEST PUSH1 0x60 DUP2 ADD SWAP1 DUP2 LT PUSH8 0xFFFFFFFFFFFFFFFF DUP3 GT OR PUSH2 0x126C JUMPI PUSH1 0x40 MSTORE JUMP JUMPDEST SWAP1 PUSH1 0x1F DUP1 NOT SWAP2 ADD AND DUP2 ADD SWAP1 DUP2 LT PUSH8 0xFFFFFFFFFFFFFFFF DUP3 GT OR PUSH2 0x126C JUMPI PUSH1 0x40 MSTORE JUMP JUMPDEST SWAP2 SWAP1 DUP3 PUSH1 0x40 SWAP2 SUB SLT PUSH2 0x130D JUMPI PUSH1 0x40 MLOAD PUSH2 0x12F4 DUP2 PUSH2 0x1250 JUMP JUMPDEST DUP3 CALLDATALOAD DUP2 MSTORE SWAP2 PUSH1 0x20 ADD CALLDATALOAD DUP3 PUSH1 0x3 DUP3 LT ISZERO PUSH2 0x130D JUMPI PUSH1 0x20 ADD MSTORE JUMP JUMPDEST PUSH1 0x0 DUP1 REVERT JUMPDEST PUSH8 0xFFFFFFFFFFFFFFFF DUP2 GT PUSH2 0x126C JUMPI PUSH1 0x1F ADD PUSH1 0x1F NOT AND PUSH1 0x20 ADD SWAP1 JUMP JUMPDEST PUSH1 0x0 SWAP2 JUMPDEST PUSH1 0x3 DUP4 LT PUSH2 0x133F JUMPI POP POP POP JUMP JUMPDEST PUSH1 0x1 SWAP1 PUSH1 0x40 DUP4 MLOAD SWAP2 DUP3 MLOAD DUP2 MSTORE PUSH1 0x20 DUP1 SWAP4 ADD MLOAD DUP4 DUP3 ADD MSTORE ADD SWAP3 ADD SWAP3 ADD SWAP2 SWAP1 PUSH2 0x1332 JUMP JUMPDEST SWAP4 SWAP6 SWAP5 SWAP1 SWAP2 SWAP3 SWAP6 PUSH1 0xC SLOAD DUP5 LT PUSH2 0x2065 JUMPI PUSH1 0xB SLOAD DUP5 GT PUSH2 0x2020 JUMPI DUP4 PUSH1 0x0 DUP1 JUMPDEST DUP6 DUP2 LT PUSH2 0x1FFC JUMPI POP SUB PUSH2 0x1FA8 JUMPI PUSH2 0x13B6 PUSH32 0x0 DUP6 PUSH2 0x123D JUMP JUMPDEST PUSH1 0x40 MLOAD PUSH4 0x70A08231 PUSH1 0xE0 SHL DUP2 MSTORE ADDRESS PUSH1 0x4 DUP3 ADD MSTORE PUSH1 0x20 DUP2 PUSH1 0x24 DUP2 PUSH32 0x0 PUSH1 0x1 PUSH1 0x1 PUSH1 0xA0 SHL SUB AND GAS STATICCALL SWAP1 DUP2 ISZERO PUSH2 0x1B3F JUMPI PUSH1 0x0 SWAP2 PUSH2 0x1F76 JUMPI JUMPDEST POP LT PUSH2 0x1F31 JUMPI DUP7 TIMESTAMP LT PUSH2 0x1EEC JUMPI PUSH1 0x3C DUP8 ADD DUP1 DUP9 GT PUSH2 0x1110 JUMPI TIMESTAMP GT PUSH2 0x1EB3 JUMPI CALLER PUSH1 0x0 MSTORE PUSH1 0xD PUSH1 0x20 MSTORE PUSH1 0x40 PUSH1 0x0 KECCAK256 SLOAD DUP8 GT ISZERO PUSH2 0x1E6E JUMPI PUSH1 0x40 MLOAD DUP1 PUSH1 0x60 DUP2 ADD LT PUSH8 0xFFFFFFFFFFFFFFFF PUSH1 0x60 DUP4 ADD GT OR PUSH2 0x126C JUMPI PUSH1 0x40 DUP2 PUSH1 0x60 DUP11 SWAP4 ADD DUP3 MSTORE CALLER DUP2 MSTORE DUP7 PUSH1 0x20 DUP3 ADD MSTORE ADD MSTORE PUSH1 0x40 MLOAD PUSH1 0x20 DUP2 ADD SWAP1 PUSH32 0xE81D1CDF23BDC0A6BEF5035503A1014285A41CC67C1E91E29D9211B707E3CF9 DUP3 MSTORE CALLER PUSH1 0x40 DUP3 ADD MSTORE DUP6 PUSH1 0x60 DUP3 ADD MSTORE DUP9 PUSH1 0x80 DUP3 ADD MSTORE PUSH1 0x80 DUP2 MSTORE PUSH2 0x14B9 DUP2 PUSH2 0x1282 JUMP JUMPDEST MLOAD SWAP1 KECCAK256 PUSH1 0x40 MLOAD PUSH1 0x20 DUP2 ADD SWAP2 PUSH2 0x1901 PUSH1 0xF0 SHL DUP4 MSTORE PUSH32 0x0 PUSH1 0x22 DUP4 ADD MSTORE PUSH1 0x42 DUP3 ADD MSTORE PUSH1 0x42 DUP2 MSTORE PUSH1 0x80 DUP2 ADD DUP2 DUP2 LT PUSH8 0xFFFFFFFFFFFFFFFF DUP3 GT OR PUSH2 0x126C JUMPI PUSH1 0x40 MSTORE MLOAD SWAP1 KECCAK256 PUSH2 0x1521 DUP4 PUSH2 0x1312 JUMP JUMPDEST SWAP1 PUSH2 0x152F PUSH1 0x40 MLOAD SWAP3 DUP4 PUSH2 0x12BA JUMP JUMPDEST DUP4 DUP3 MSTORE CALLDATASIZE DUP5 DUP5 ADD GT PUSH2 0x130D JUMPI PUSH1 0x0 PUSH1 0x20 DUP6 PUSH2 0x155D SWAP7 PUSH2 0x1555 SWAP7 DUP4 DUP8 ADD CALLDATACOPY DUP5 ADD ADD MSTORE PUSH2 0x252D JUMP JUMPDEST SWAP2 SWAP1 SWAP2 PUSH2 0x2565 JUMP JUMPDEST PUSH1 0x2 SLOAD PUSH1 0x1 PUSH1 0x1 PUSH1 0xA0 SHL SUB SWAP1 DUP2 AND SWAP2 AND SUB PUSH2 0x1E35 JUMPI CALLER PUSH1 0x0 MSTORE PUSH1 0xD PUSH1 0x20 MSTORE DUP5 PUSH1 0x40 PUSH1 0x0 KECCAK256 SSTORE PUSH2 0x15DA PUSH1 0x40 MLOAD PUSH4 0x23B872DD PUSH1 0xE0 SHL PUSH1 0x20 DUP3 ADD MSTORE CALLER PUSH1 0x24 DUP3 ADD MSTORE ADDRESS PUSH1 0x44 DUP3 ADD MSTORE DUP4 PUSH1 0x64 DUP3 ADD MSTORE PUSH1 0x64 DUP2 MSTORE PUSH2 0x15B4 DUP2 PUSH2 0x1282 JUMP JUMPDEST PUSH32 0x0 PUSH2 0x23AB JUMP JUMPDEST PUSH2 0x15EE PUSH1 0x40 MLOAD PUSH2 0x15E9 DUP2 PUSH2 0x129E JUMP JUMPDEST PUSH2 0x225E JUMP JUMPDEST PUSH2 0x15FD PUSH1 0x40 MLOAD PUSH2 0x15E9 DUP2 PUSH2 0x129E JUMP JUMPDEST PUSH1 0x40 MLOAD SWAP5 PUSH2 0x160A DUP7 PUSH2 0x129E JUMP JUMPDEST PUSH2 0x1613 DUP7 PUSH2 0x225E JUMP JUMPDEST PUSH1 0x40 MLOAD SWAP1 PUSH2 0x1620 DUP3 PUSH2 0x129E JUMP JUMPDEST PUSH2 0x1629 DUP3 PUSH2 0x225E JUMP JUMPDEST PUSH1 0x40 MLOAD DUP1 PUSH1 0xC0 DUP2 ADD LT PUSH8 0xFFFFFFFFFFFFFFFF PUSH1 0xC0 DUP4 ADD GT OR PUSH2 0x126C JUMPI PUSH1 0xC0 DUP2 ADD PUSH1 0x40 MSTORE PUSH1 0x0 JUMPDEST PUSH1 0xC0 DUP2 LT PUSH2 0x1E12 JUMPI POP PUSH1 0x0 SWAP2 PUSH1 0x0 NOT NUMBER ADD SWAP2 NUMBER DUP4 GT SWAP4 JUMPDEST PUSH1 0x6 DUP2 LT PUSH2 0x1D2E JUMPI POP DUP1 PUSH1 0xA0 SWAP2 MLOAD DUP12 MSTORE PUSH1 0x20 DUP2 ADD MLOAD PUSH1 0x20 DUP13 ADD MSTORE PUSH1 0x40 DUP2 ADD MLOAD PUSH1 0x40 DUP13 ADD MSTORE PUSH1 0x60 DUP2 ADD MLOAD DUP7 MSTORE PUSH1 0x80 DUP2 ADD MLOAD PUSH1 0x20 DUP8 ADD MSTORE ADD MLOAD PUSH1 0x40 DUP6 ADD MSTORE PUSH2 0x16B1 PUSH1 0x40 MLOAD PUSH2 0x15E9 DUP2 PUSH2 0x129E JUMP JUMPDEST PUSH2 0x16C0 PUSH1 0x40 MLOAD PUSH2 0x15E9 DUP2 PUSH2 0x129E JUMP JUMPDEST PUSH1 0x0 SWAP3 PUSH2 0x16D2 PUSH1 0x40 MLOAD PUSH2 0x15E9 DUP2 PUSH2 0x129E JUMP JUMPDEST PUSH2 0x16E1 PUSH1 0x40 MLOAD PUSH2 0x15E9 DUP2 PUSH2 0x129E JUMP JUMPDEST PUSH2 0x1D1A JUMPI PUSH1 0x64 PUSH1 0x40 MLOAD PUSH1 0x20 DUP2 ADD SWAP1 CALLER PUSH1 0x60 SHL DUP3 MSTORE DUP5 BLOCKHASH PUSH1 0x34 DUP3 ADD MSTORE PREVRANDAO PUSH1 0x54 DUP3 ADD MSTORE DUP4 PUSH1 0x74 DUP3 ADD MSTORE PUSH1 0x74 DUP2 MSTORE PUSH2 0x1715 DUP2 PUSH2 0x1282 JUMP JUMPDEST MLOAD SWAP1 KECCAK256 MOD PUSH1 0x1 SLOAD GT SWAP2 PUSH2 0x1728 DUP6 DUP12 PUSH2 0x22AE JUMP JUMPDEST SWAP5 SWAP1 SWAP4 ISZERO PUSH2 0x1C22 JUMPI POP PUSH1 0x0 SWAP2 DUP3 PUSH1 0x20 PUSH1 0x40 MLOAD PUSH2 0x1743 DUP2 PUSH2 0x1250 JUMP JUMPDEST DUP3 DUP2 MSTORE ADD MSTORE PUSH1 0x1 DUP8 SUB PUSH2 0x1BB8 JUMPI POP POP POP DUP4 ISZERO PUSH2 0x1227 JUMPI PUSH1 0x20 PUSH2 0x1765 CALLDATASIZE DUP9 PUSH2 0x12DC JUMP JUMPDEST ADD DUP1 MLOAD PUSH1 0x3 DUP2 LT ISZERO PUSH2 0x18DF JUMPI PUSH2 0x1B72 JUMPI POP GT SWAP6 DUP7 ISZERO PUSH2 0x1B6C JUMPI DUP1 JUMPDEST SWAP7 ISZERO PUSH2 0x1B65 JUMPI POP JUMPDEST SWAP4 JUMPDEST PUSH2 0x1794 DUP6 DUP8 PUSH2 0x22AE JUMP JUMPDEST SWAP4 SWAP1 SWAP3 PUSH8 0xFFFFFFFFFFFFFFFF DUP2 GT PUSH2 0x126C JUMPI PUSH1 0x40 MLOAD SWAP6 PUSH2 0x17BA PUSH1 0x20 DUP4 PUSH1 0x5 SHL ADD DUP9 PUSH2 0x12BA JUMP JUMPDEST DUP2 DUP8 MSTORE PUSH1 0x20 DUP8 ADD SWAP1 CALLDATASIZE DUP4 PUSH1 0x6 SHL DUP3 ADD GT PUSH2 0x130D JUMPI DUP1 SWAP2 JUMPDEST DUP4 PUSH1 0x6 SHL DUP3 ADD DUP4 LT PUSH2 0x1B4B JUMPI POP POP POP POP PUSH1 0x0 SWAP7 DUP8 JUMPDEST DUP7 MLOAD DUP10 LT ISZERO PUSH2 0x1907 JUMPI PUSH2 0x1805 PUSH1 0x20 PUSH2 0x17FE DUP12 DUP11 PUSH2 0x2357 JUMP JUMPDEST MLOAD ADD PUSH2 0x22A1 JUMP JUMPDEST PUSH1 0x3 DUP2 LT ISZERO PUSH2 0x18DF JUMPI ISZERO DUP1 PUSH2 0x18FE JUMPI JUMPDEST ISZERO PUSH2 0x1846 JUMPI PUSH2 0x183D PUSH1 0x1 SWAP2 PUSH2 0x1837 PUSH1 0x2A SLOAD PUSH2 0x1830 DUP14 DUP13 PUSH2 0x2357 JUMP JUMPDEST MLOAD MLOAD PUSH2 0x123D JUMP JUMPDEST SWAP1 PUSH2 0x1103 JUMP JUMPDEST SWAP9 JUMPDEST ADD SWAP8 PUSH2 0x17E6 JUMP JUMPDEST PUSH2 0x1855 PUSH1 0x20 PUSH2 0x17FE DUP12 DUP11 PUSH2 0x2357 JUMP JUMPDEST PUSH1 0x3 DUP2 LT ISZERO PUSH2 0x18DF JUMPI PUSH1 0x2 EQ DUP1 PUSH2 0x18F5 JUMPI JUMPDEST ISZERO PUSH2 0x1888 JUMPI PUSH2 0x1882 PUSH1 0x1 SWAP2 PUSH2 0x1837 PUSH1 0x2E SLOAD PUSH2 0x1830 DUP14 DUP13 PUSH2 0x2357 JUMP JUMPDEST SWAP9 PUSH2 0x183F JUMP JUMPDEST SWAP8 PUSH2 0x1898 PUSH1 0x20 PUSH2 0x17FE DUP4 DUP11 PUSH2 0x2357 JUMP JUMPDEST PUSH1 0x3 DUP2 LT ISZERO PUSH2 0x18DF JUMPI PUSH1 0x1 EQ DUP1 PUSH2 0x18D6 JUMPI JUMPDEST PUSH2 0x18B7 JUMPI JUMPDEST PUSH1 0x1 SWAP1 PUSH2 0x183F JUMP JUMPDEST SWAP8 PUSH2 0x18CE PUSH1 0x1 SWAP2 PUSH2 0x1837 PUSH1 0x2C SLOAD PUSH2 0x1830 DUP14 DUP13 PUSH2 0x2357 JUMP JUMPDEST SWAP9 SWAP1 POP PUSH2 0x18AF JUMP JUMPDEST POP DUP6 DUP6 EQ PUSH2 0x18AA JUMP JUMPDEST PUSH4 0x4E487B71 PUSH1 0xE0 SHL PUSH1 0x0 MSTORE PUSH1 0x21 PUSH1 0x4 MSTORE PUSH1 0x24 PUSH1 0x0 REVERT JUMPDEST POP DUP5 DUP7 GT PUSH2 0x1867 JUMP JUMPDEST POP DUP6 DUP6 GT PUSH2 0x1815 JUMP JUMPDEST SWAP3 SWAP8 POP SWAP5 POP SWAP5 PUSH1 0x0 DUP1 PUSH1 0x40 MLOAD PUSH2 0x191C DUP2 PUSH2 0x1250 JUMP JUMPDEST PUSH1 0xE DUP2 MSTORE PUSH14 0x3932BBB0B93220B6B7BAB73A1D1 PUSH1 0x95 SHL PUSH1 0x20 DUP3 ADD MSTORE PUSH1 0x40 MLOAD PUSH2 0x1975 DUP2 PUSH2 0x1961 PUSH1 0x20 DUP3 ADD SWAP5 PUSH4 0x2D839CB3 PUSH1 0xE2 SHL DUP7 MSTORE PUSH1 0x40 PUSH1 0x24 DUP5 ADD MSTORE PUSH1 0x64 DUP4 ADD SWAP1 PUSH2 0x236B JUMP JUMPDEST DUP9 PUSH1 0x44 DUP4 ADD MSTORE SUB PUSH1 0x1F NOT DUP2 ADD DUP4 MSTORE DUP3 PUSH2 0x12BA JUMP JUMPDEST MLOAD SWAP1 PUSH11 0x636F6E736F6C652E6C6F67 GAS STATICCALL POP PUSH1 0x40 MLOAD PUSH4 0x70A08231 PUSH1 0xE0 SHL DUP2 MSTORE ADDRESS PUSH1 0x4 DUP3 ADD MSTORE PUSH1 0x20 DUP2 PUSH1 0x24 DUP2 PUSH32 0x0 PUSH1 0x1 PUSH1 0x1 PUSH1 0xA0 SHL SUB AND GAS STATICCALL SWAP1 DUP2 ISZERO PUSH2 0x1B3F JUMPI PUSH1 0x0 SWAP2 PUSH2 0x1ADF JUMPI JUMPDEST POP SWAP1 PUSH32 0x8E3897E7EC1B94C33E7A96847F87C200C4A4B55135AC87BC06946C2E91BE755F SWAP7 DUP4 SWAP3 PUSH2 0x200 SWAP8 SWAP7 SWAP6 SWAP5 GT PUSH2 0x1A7A JUMPI POP PUSH2 0x1A35 SWAP1 DUP3 PUSH2 0x1A4A JUMPI JUMPDEST PUSH2 0x1A2B PUSH1 0x40 MLOAD SWAP7 CALLER DUP9 MSTORE PUSH1 0x20 DUP9 ADD SWAP1 PUSH2 0x132E JUMP JUMPDEST PUSH1 0xE0 DUP7 ADD SWAP1 PUSH2 0x132E JUMP JUMPDEST PUSH2 0x1A0 DUP5 ADD MSTORE PUSH2 0x1C0 DUP4 ADD MSTORE PUSH2 0x1E0 DUP3 ADD MSTORE LOG1 JUMP JUMPDEST PUSH2 0x1A75 DUP4 CALLER PUSH32 0x0 PUSH2 0x221B JUMP JUMPDEST PUSH2 0x1A17 JUMP JUMPDEST PUSH2 0x1AC8 SWAP3 POP PUSH2 0x1AAA SWAP1 CALLER PUSH32 0x0 PUSH2 0x221B JUMP JUMPDEST PUSH2 0x1ABE PUSH1 0x40 MLOAD SWAP6 CALLER DUP8 MSTORE PUSH1 0x20 DUP8 ADD SWAP1 PUSH2 0x132E JUMP JUMPDEST PUSH1 0xE0 DUP6 ADD SWAP1 PUSH2 0x132E JUMP JUMPDEST PUSH1 0x0 PUSH2 0x1A0 DUP5 ADD MSTORE PUSH2 0x1C0 DUP4 ADD MSTORE PUSH2 0x1E0 DUP3 ADD MSTORE LOG1 JUMP JUMPDEST SWAP6 SWAP5 SWAP4 SWAP3 SWAP2 SWAP1 POP PUSH1 0x20 DUP7 RETURNDATASIZE PUSH1 0x20 GT PUSH2 0x1B37 JUMPI JUMPDEST DUP2 PUSH2 0x1AFF PUSH1 0x20 SWAP4 DUP4 PUSH2 0x12BA JUMP JUMPDEST DUP2 ADD SUB SLT PUSH2 0x130D JUMPI SWAP5 MLOAD SWAP4 SWAP5 SWAP3 SWAP4 SWAP2 SWAP3 SWAP1 SWAP2 PUSH32 0x8E3897E7EC1B94C33E7A96847F87C200C4A4B55135AC87BC06946C2E91BE755F PUSH2 0x19DA JUMP JUMPDEST RETURNDATASIZE SWAP2 POP PUSH2 0x1AF2 JUMP JUMPDEST PUSH1 0x40 MLOAD RETURNDATASIZE PUSH1 0x0 DUP3 RETURNDATACOPY RETURNDATASIZE SWAP1 REVERT JUMPDEST PUSH1 0x20 PUSH1 0x40 SWAP2 PUSH2 0x1B5A CALLDATASIZE DUP7 PUSH2 0x12DC JUMP JUMPDEST DUP2 MSTORE ADD SWAP3 ADD SWAP2 PUSH2 0x17D1 JUMP JUMPDEST SWAP1 POP PUSH2 0x1788 JUMP JUMPDEST DUP2 PUSH2 0x1780 JUMP JUMPDEST SWAP8 SWAP7 SWAP8 MLOAD PUSH1 0x3 DUP2 LT ISZERO PUSH2 0x18DF JUMPI PUSH1 0x2 SUB PUSH2 0x1BAB JUMPI GT SWAP5 DUP6 ISZERO PUSH2 0x1BA5 JUMPI DUP1 JUMPDEST SWAP6 ISZERO PUSH2 0x1B9E JUMPI POP JUMPDEST SWAP5 PUSH2 0x178A JUMP JUMPDEST SWAP1 POP PUSH2 0x1B98 JUMP JUMPDEST DUP2 PUSH2 0x1B90 JUMP JUMPDEST POP POP POP DUP4 SWAP5 SWAP4 SWAP5 SWAP4 PUSH2 0x178A JUMP JUMPDEST PUSH1 0x40 MLOAD SWAP1 PUSH1 0x20 DUP3 ADD SWAP3 CALLER PUSH1 0x60 SHL DUP5 MSTORE BLOCKHASH PUSH1 0x34 DUP4 ADD MSTORE PREVRANDAO PUSH1 0x54 DUP4 ADD MSTORE PUSH1 0x74 DUP3 ADD MSTORE PUSH1 0x74 DUP2 MSTORE PUSH2 0x1BE5 DUP2 PUSH2 0x1282 JUMP JUMPDEST MLOAD SWAP1 KECCAK256 SWAP1 DUP6 ISZERO PUSH2 0x1C0E JUMPI POP PUSH2 0x1C09 PUSH1 0x20 SWAP2 PUSH2 0x1C04 DUP8 CALLDATASIZE SWAP3 MOD DUP9 DUP12 PUSH2 0x1217 JUMP JUMPDEST PUSH2 0x12DC JUMP JUMPDEST PUSH2 0x1765 JUMP JUMPDEST PUSH4 0x4E487B71 PUSH1 0xE0 SHL DUP2 MSTORE PUSH1 0x12 PUSH1 0x4 MSTORE PUSH1 0x24 SWAP1 REVERT JUMPDEST SWAP2 POP DUP2 SWAP1 POP PUSH1 0x0 NOT DUP2 JUMPDEST DUP8 DUP2 LT PUSH2 0x1CB7 JUMPI POP POP PUSH1 0x3 DUP2 LT ISZERO PUSH2 0x1CA3 JUMPI DUP1 PUSH2 0x1C6A JUMPI POP POP LT SWAP6 DUP7 ISZERO PUSH2 0x1C64 JUMPI DUP1 JUMPDEST SWAP7 ISZERO PUSH2 0x1C5D JUMPI POP JUMPDEST SWAP4 PUSH2 0x178A JUMP JUMPDEST SWAP1 POP PUSH2 0x1C57 JUMP JUMPDEST DUP2 PUSH2 0x1C4F JUMP JUMPDEST SWAP8 SWAP9 SWAP8 PUSH1 0x2 SUB PUSH2 0x1C8B JUMPI POP LT SWAP5 DUP6 ISZERO PUSH2 0x1BA5 JUMPI DUP1 SWAP6 ISZERO PUSH2 0x1B9E JUMPI POP SWAP5 PUSH2 0x178A JUMP JUMPDEST POP GT SWAP6 SWAP5 DUP7 ISZERO PUSH2 0x1C64 JUMPI DUP1 SWAP7 ISZERO PUSH2 0x1C5D JUMPI POP SWAP4 PUSH2 0x178A JUMP JUMPDEST PUSH4 0x4E487B71 PUSH1 0xE0 SHL DUP3 MSTORE PUSH1 0x21 PUSH1 0x4 MSTORE PUSH1 0x24 DUP3 REVERT JUMPDEST PUSH1 0x20 PUSH2 0x1CC4 DUP3 DUP11 DUP14 PUSH2 0x1217 JUMP JUMPDEST ADD CALLDATALOAD PUSH1 0x3 DUP2 LT ISZERO PUSH2 0xA49 JUMPI PUSH2 0x1CE5 SWAP1 PUSH2 0x1CDE DUP4 DUP12 DUP15 PUSH2 0x1217 JUMP JUMPDEST CALLDATALOAD SWAP1 PUSH2 0x24C6 JUMP JUMPDEST DUP3 DUP2 LT PUSH2 0x1CF6 JUMPI JUMPDEST POP PUSH1 0x1 ADD PUSH2 0x1C2C JUMP JUMPDEST SWAP2 POP SWAP2 POP PUSH1 0x20 PUSH2 0x1D07 DUP4 DUP10 DUP13 PUSH2 0x1217 JUMP JUMPDEST ADD CALLDATALOAD PUSH1 0x3 DUP2 LT ISZERO PUSH2 0x700 JUMPI SWAP2 PUSH1 0x1 PUSH2 0x1CED JUMP JUMPDEST PUSH4 0x4E487B71 PUSH1 0xE0 SHL DUP4 MSTORE PUSH1 0x11 PUSH1 0x4 MSTORE PUSH1 0x24 DUP4 REVERT JUMPDEST SWAP4 PUSH1 0x2 DUP6 ADD DUP6 GT PUSH2 0x1110 JUMPI PUSH2 0x1110 JUMPI PUSH1 0x40 MLOAD SWAP4 PUSH1 0xD PUSH1 0x20 DUP7 ADD CALLER PUSH1 0x60 SHL DUP2 MSTORE PUSH1 0x34 SWAP1 DUP7 BLOCKHASH DUP3 DUP10 ADD MSTORE PUSH2 0x1D85 PUSH2 0x3E8 PUSH1 0x54 SWAP3 PREVRANDAO DUP5 DUP13 ADD MSTORE PUSH1 0x74 SWAP11 PUSH1 0x2 DUP9 ADD DUP13 DUP3 ADD MSTORE DUP12 DUP2 MSTORE PUSH2 0x1D7B DUP2 PUSH2 0x1282 JUMP JUMPDEST MLOAD SWAP1 KECCAK256 MOD DUP8 PUSH2 0x1103 JUMP JUMPDEST SWAP8 PUSH1 0x0 SWAP9 PUSH1 0x40 MLOAD SWAP3 PUSH1 0x20 DUP5 ADD SWAP5 CALLER PUSH1 0x60 SHL DUP7 MSTORE DUP11 BLOCKHASH SWAP1 DUP6 ADD MSTORE PREVRANDAO SWAP1 DUP5 ADD MSTORE DUP2 DUP4 ADD MSTORE DUP2 MSTORE PUSH2 0x1DB2 DUP2 PUSH2 0x1282 JUMP JUMPDEST MLOAD SWAP1 KECCAK256 MOD PUSH1 0xD DUP2 LT ISZERO PUSH2 0x1DFE JUMPI SWAP1 PUSH1 0x1 SWAP2 DUP3 SHL PUSH1 0x10 PUSH1 0x40 MLOAD SWAP2 PUSH2 0x1DD4 DUP4 PUSH2 0x1250 JUMP JUMPDEST DUP1 PUSH1 0xF ADD SLOAD DUP4 MSTORE ADD SLOAD PUSH1 0x20 DUP3 ADD MSTORE PUSH2 0x1DEC DUP3 DUP6 PUSH2 0x2290 JUMP JUMPDEST MSTORE PUSH2 0x1DF7 DUP2 DUP5 PUSH2 0x2290 JUMP JUMPDEST POP ADD PUSH2 0x1666 JUMP JUMPDEST PUSH4 0x4E487B71 PUSH1 0xE0 SHL DUP7 MSTORE PUSH1 0x32 PUSH1 0x4 MSTORE PUSH1 0x24 DUP7 REVERT JUMPDEST PUSH1 0x20 SWAP1 PUSH1 0x40 MLOAD PUSH2 0x1E21 DUP2 PUSH2 0x1250 JUMP JUMPDEST PUSH1 0x0 DUP2 MSTORE PUSH1 0x0 DUP4 DUP3 ADD MSTORE DUP2 DUP5 ADD MSTORE ADD PUSH2 0x164F JUMP JUMPDEST PUSH1 0x40 MLOAD PUSH3 0x461BCD PUSH1 0xE5 SHL DUP2 MSTORE PUSH1 0x20 PUSH1 0x4 DUP3 ADD MSTORE PUSH1 0x11 PUSH1 0x24 DUP3 ADD MSTORE PUSH17 0x496E76616C6964207369676E6174757265 PUSH1 0x78 SHL PUSH1 0x44 DUP3 ADD MSTORE PUSH1 0x64 SWAP1 REVERT JUMPDEST PUSH1 0x40 MLOAD PUSH3 0x461BCD PUSH1 0xE5 SHL DUP2 MSTORE PUSH1 0x20 PUSH1 0x4 DUP3 ADD MSTORE PUSH1 0x17 PUSH1 0x24 DUP3 ADD MSTORE PUSH32 0x54696D657374616D70206D757374206265206E65776572000000000000000000 PUSH1 0x44 DUP3 ADD MSTORE PUSH1 0x64 SWAP1 REVERT JUMPDEST PUSH1 0x40 MLOAD PUSH3 0x461BCD PUSH1 0xE5 SHL DUP2 MSTORE PUSH1 0x20 PUSH1 0x4 DUP3 ADD MSTORE PUSH1 0x11 PUSH1 0x24 DUP3 ADD MSTORE PUSH17 0x151A5B595CDD185B5C08195E1C1A5C9959 PUSH1 0x7A SHL PUSH1 0x44 DUP3 ADD MSTORE PUSH1 0x64 SWAP1 REVERT JUMPDEST PUSH1 0x40 MLOAD PUSH3 0x461BCD PUSH1 0xE5 SHL DUP2 MSTORE PUSH1 0x20 PUSH1 0x4 DUP3 ADD MSTORE PUSH1 0x19 PUSH1 0x24 DUP3 ADD MSTORE PUSH32 0x54696D657374616D702066726F6D207468652066757475726500000000000000 PUSH1 0x44 DUP3 ADD MSTORE PUSH1 0x64 SWAP1 REVERT JUMPDEST PUSH1 0x40 MLOAD PUSH3 0x461BCD PUSH1 0xE5 SHL DUP2 MSTORE PUSH1 0x20 PUSH1 0x4 DUP3 ADD MSTORE PUSH1 0x1F PUSH1 0x24 DUP3 ADD MSTORE PUSH32 0x436F6E74726163742068617320696E73756666696369656E742066756E647300 PUSH1 0x44 DUP3 ADD MSTORE PUSH1 0x64 SWAP1 REVERT JUMPDEST SWAP1 POP PUSH1 0x20 DUP2 RETURNDATASIZE PUSH1 0x20 GT PUSH2 0x1FA0 JUMPI JUMPDEST DUP2 PUSH2 0x1F91 PUSH1 0x20 SWAP4 DUP4 PUSH2 0x12BA JUMP JUMPDEST DUP2 ADD SUB SLT PUSH2 0x130D JUMPI MLOAD CODESIZE PUSH2 0x140A JUMP JUMPDEST RETURNDATASIZE SWAP2 POP PUSH2 0x1F84 JUMP JUMPDEST PUSH1 0x40 MLOAD PUSH3 0x461BCD PUSH1 0xE5 SHL DUP2 MSTORE PUSH1 0x20 PUSH1 0x4 DUP3 ADD MSTORE PUSH1 0x26 PUSH1 0x24 DUP3 ADD MSTORE PUSH32 0x546F74616C2062657420616D6F756E74206D757374206D617463682073656E74 PUSH1 0x44 DUP3 ADD MSTORE PUSH6 0x2076616C7565 PUSH1 0xD0 SHL PUSH1 0x64 DUP3 ADD MSTORE PUSH1 0x84 SWAP1 REVERT JUMPDEST SWAP2 POP PUSH2 0x2016 PUSH1 0x1 SWAP2 PUSH2 0x200F DUP5 DUP9 DUP12 PUSH2 0x1217 JUMP JUMPDEST CALLDATALOAD SWAP1 PUSH2 0x1103 JUMP JUMPDEST SWAP2 ADD SWAP1 DUP6 SWAP2 PUSH2 0x137F JUMP JUMPDEST PUSH1 0x40 MLOAD PUSH3 0x461BCD PUSH1 0xE5 SHL DUP2 MSTORE PUSH1 0x20 PUSH1 0x4 DUP3 ADD MSTORE PUSH1 0x19 PUSH1 0x24 DUP3 ADD MSTORE PUSH32 0x4265742065786365656473206D6178696D756D206C696D697400000000000000 PUSH1 0x44 DUP3 ADD MSTORE PUSH1 0x64 SWAP1 REVERT JUMPDEST PUSH1 0x40 MLOAD PUSH3 0x461BCD PUSH1 0xE5 SHL DUP2 MSTORE PUSH1 0x20 PUSH1 0x4 DUP3 ADD MSTORE PUSH1 0x3E PUSH1 0x24 DUP3 ADD MSTORE PUSH32 0x5468652062657420616D6F756E74206D75737420626520677265617465722074 PUSH1 0x44 DUP3 ADD MSTORE PUSH32 0x68616E20746865206D696E696D756D2072657175697265642076616C75650000 PUSH1 0x64 DUP3 ADD MSTORE PUSH1 0x84 SWAP1 REVERT JUMPDEST ISZERO PUSH2 0x20D7 JUMPI JUMP JUMPDEST PUSH1 0x40 MLOAD PUSH3 0x461BCD PUSH1 0xE5 SHL DUP2 MSTORE PUSH1 0x20 PUSH1 0x4 DUP3 ADD MSTORE PUSH1 0x1A PUSH1 0x24 DUP3 ADD MSTORE PUSH32 0x4E6F2070656E64696E6720677561726469616E206368616E6765000000000000 PUSH1 0x44 DUP3 ADD MSTORE PUSH1 0x64 SWAP1 REVERT JUMPDEST ISZERO PUSH2 0x2123 JUMPI JUMP JUMPDEST PUSH1 0x40 MLOAD PUSH3 0x461BCD PUSH1 0xE5 SHL DUP2 MSTORE PUSH1 0x20 PUSH1 0x4 DUP3 ADD MSTORE PUSH1 0x28 PUSH1 0x24 DUP3 ADD MSTORE PUSH32 0x4D75737420776169742033206461797320746F20636F6E6669726D2061646D69 PUSH1 0x44 DUP3 ADD MSTORE PUSH8 0x6E206368616E6765 PUSH1 0xC0 SHL PUSH1 0x64 DUP3 ADD MSTORE PUSH1 0x84 SWAP1 REVERT JUMPDEST ISZERO PUSH2 0x2180 JUMPI JUMP JUMPDEST PUSH1 0x40 MLOAD PUSH3 0x461BCD PUSH1 0xE5 SHL DUP2 MSTORE PUSH1 0x20 PUSH1 0x4 DUP3 ADD MSTORE PUSH1 0x21 PUSH1 0x24 DUP3 ADD MSTORE PUSH32 0x4E6F2070656E64696E672077696E2070726F626162696C697479206368616E67 PUSH1 0x44 DUP3 ADD MSTORE PUSH1 0x65 PUSH1 0xF8 SHL PUSH1 0x64 DUP3 ADD MSTORE PUSH1 0x84 SWAP1 REVERT JUMPDEST ISZERO PUSH2 0x21D6 JUMPI JUMP JUMPDEST PUSH1 0x40 MLOAD PUSH3 0x461BCD PUSH1 0xE5 SHL DUP2 MSTORE PUSH1 0x20 PUSH1 0x4 DUP3 ADD MSTORE PUSH1 0x17 PUSH1 0x24 DUP3 ADD MSTORE PUSH32 0x4E6F2070656E64696E672061646D696E206368616E6765000000000000000000 PUSH1 0x44 DUP3 ADD MSTORE PUSH1 0x64 SWAP1 REVERT JUMPDEST PUSH1 0x40 MLOAD PUSH4 0xA9059CBB PUSH1 0xE0 SHL PUSH1 0x20 DUP3 ADD MSTORE PUSH1 0x1 PUSH1 0x1 PUSH1 0xA0 SHL SUB SWAP3 SWAP1 SWAP3 AND PUSH1 0x24 DUP4 ADD MSTORE PUSH1 0x44 DUP1 DUP4 ADD SWAP4 SWAP1 SWAP4 MSTORE SWAP2 DUP2 MSTORE PUSH2 0x225C SWAP2 PUSH2 0x2257 PUSH1 0x64 DUP4 PUSH2 0x12BA JUMP JUMPDEST PUSH2 0x23AB JUMP JUMPDEST JUMP JUMPDEST PUSH1 0x0 DUP1 JUMPDEST PUSH1 0x60 DUP2 LT PUSH2 0x226F JUMPI POP POP POP JUMP JUMPDEST PUSH1 0x20 SWAP1 PUSH1 0x40 MLOAD PUSH2 0x227E DUP2 PUSH2 0x1250 JUMP JUMPDEST DUP4 DUP2 MSTORE DUP4 DUP4 DUP3 ADD MSTORE DUP2 DUP6 ADD MSTORE ADD PUSH2 0x2262 JUMP JUMPDEST SWAP1 PUSH1 0x6 DUP2 LT ISZERO PUSH2 0x1227 JUMPI PUSH1 0x5 SHL ADD SWAP1 JUMP JUMPDEST MLOAD PUSH1 0x3 DUP2 LT ISZERO PUSH2 0x18DF JUMPI SWAP1 JUMP JUMPDEST SWAP2 SWAP1 PUSH1 0x20 PUSH1 0xA PUSH2 0x22C9 DUP3 DUP7 MLOAD ADD MLOAD DUP4 DUP1 DUP9 ADD MLOAD ADD MLOAD SWAP1 PUSH2 0x1103 JUMP JUMPDEST MOD SWAP2 PUSH1 0xA PUSH2 0x22E2 DUP4 DUP4 MLOAD ADD MLOAD DUP5 DUP1 DUP6 ADD MLOAD ADD MLOAD SWAP1 PUSH2 0x1103 JUMP JUMPDEST MOD SWAP5 PUSH1 0x8 DUP5 LT DUP1 PUSH2 0x234D JUMPI JUMPDEST PUSH2 0x22FA JUMPI JUMPDEST POP POP POP SWAP2 SWAP1 JUMP JUMPDEST PUSH1 0x6 DUP5 LT PUSH2 0x2330 JUMPI JUMPDEST POP PUSH1 0x6 DUP6 LT PUSH2 0x2313 JUMPI JUMPDEST DUP1 PUSH2 0x22F3 JUMP JUMPDEST PUSH1 0x40 ADD MLOAD ADD MLOAD SWAP1 SWAP3 PUSH1 0xA SWAP2 PUSH2 0x2327 SWAP2 PUSH2 0x1103 JUMP JUMPDEST MOD SWAP2 CODESIZE DUP1 PUSH2 0x230D JUMP JUMPDEST PUSH1 0xA SWAP2 SWAP4 DUP4 PUSH1 0x40 PUSH2 0x2345 SWAP4 ADD MLOAD ADD MLOAD SWAP1 PUSH2 0x1103 JUMP JUMPDEST MOD SWAP2 CODESIZE PUSH2 0x2303 JUMP JUMPDEST POP PUSH1 0x8 DUP7 LT PUSH2 0x22EE JUMP JUMPDEST DUP1 MLOAD DUP3 LT ISZERO PUSH2 0x1227 JUMPI PUSH1 0x20 SWAP2 PUSH1 0x5 SHL ADD ADD SWAP1 JUMP JUMPDEST SWAP2 SWAP1 DUP3 MLOAD SWAP3 DUP4 DUP3 MSTORE PUSH1 0x0 JUMPDEST DUP5 DUP2 LT PUSH2 0x2397 JUMPI POP POP DUP3 PUSH1 0x0 PUSH1 0x20 DUP1 SWAP5 SWAP6 DUP5 ADD ADD MSTORE PUSH1 0x1F DUP1 NOT SWAP2 ADD AND ADD ADD SWAP1 JUMP JUMPDEST PUSH1 0x20 DUP2 DUP4 ADD DUP2 ADD MLOAD DUP5 DUP4 ADD DUP3 ADD MSTORE ADD PUSH2 0x2376 JUMP JUMPDEST PUSH1 0x1 DUP1 PUSH1 0xA0 SHL SUB AND SWAP1 PUSH2 0x2428 PUSH1 0x40 MLOAD PUSH2 0x23C3 DUP2 PUSH2 0x1250 JUMP JUMPDEST PUSH1 0x20 SWAP4 DUP5 DUP3 MSTORE PUSH32 0x5361666545524332303A206C6F772D6C6576656C2063616C6C206661696C6564 DUP6 DUP4 ADD MSTORE PUSH1 0x0 DUP1 DUP6 DUP8 DUP3 SWAP8 MLOAD SWAP2 ADD DUP3 DUP6 GAS CALL RETURNDATASIZE ISZERO PUSH2 0x24BE JUMPI RETURNDATASIZE SWAP2 PUSH2 0x240D DUP4 PUSH2 0x1312 JUMP JUMPDEST SWAP3 PUSH2 0x241B PUSH1 0x40 MLOAD SWAP5 DUP6 PUSH2 0x12BA JUMP JUMPDEST DUP4 MSTORE RETURNDATASIZE DUP7 DUP9 DUP6 ADD RETURNDATACOPY PUSH2 0x26F8 JUMP JUMPDEST DUP1 MLOAD SWAP2 DUP3 ISZERO SWAP2 DUP5 DUP4 ISZERO PUSH2 0x249A JUMPI JUMPDEST POP POP POP SWAP1 POP ISZERO PUSH2 0x2443 JUMPI POP JUMP JUMPDEST PUSH1 0x84 SWAP1 PUSH1 0x40 MLOAD SWAP1 PUSH3 0x461BCD PUSH1 0xE5 SHL DUP3 MSTORE PUSH1 0x4 DUP3 ADD MSTORE PUSH1 0x2A PUSH1 0x24 DUP3 ADD MSTORE PUSH32 0x5361666545524332303A204552433230206F7065726174696F6E20646964206E PUSH1 0x44 DUP3 ADD MSTORE PUSH10 0x1BDD081CDD58D8D95959 PUSH1 0xB2 SHL PUSH1 0x64 DUP3 ADD MSTORE REVERT JUMPDEST SWAP2 SWAP4 DUP2 DUP1 SWAP5 POP ADD SUB SLT PUSH2 0x1DB JUMPI DUP3 ADD MLOAD SWAP1 DUP2 ISZERO ISZERO DUP3 SUB PUSH2 0x247 JUMPI POP DUP1 CODESIZE DUP1 DUP5 PUSH2 0x2436 JUMP JUMPDEST PUSH1 0x60 SWAP2 PUSH2 0x26F8 JUMP JUMPDEST PUSH1 0x3 DUP2 LT ISZERO PUSH2 0x18DF JUMPI PUSH1 0x1 DUP2 SUB PUSH2 0x24EE JUMPI POP DUP1 PUSH1 0x2 SHL SWAP1 DUP1 DUP3 DIV PUSH1 0x4 EQ SWAP1 ISZERO OR ISZERO PUSH2 0x1110 JUMPI SWAP1 JUMP JUMPDEST DUP1 PUSH2 0x250A JUMPI POP DUP1 PUSH1 0x1 SHL SWAP1 DUP1 DUP3 DIV PUSH1 0x2 EQ SWAP1 ISZERO OR ISZERO PUSH2 0x1110 JUMPI SWAP1 JUMP JUMPDEST PUSH1 0x2 EQ PUSH2 0x2517 JUMPI POP PUSH1 0x0 SWAP1 JUMP JUMPDEST DUP1 PUSH1 0x1 SHL SWAP1 DUP1 DUP3 DIV PUSH1 0x2 EQ SWAP1 ISZERO OR ISZERO PUSH2 0x1110 JUMPI SWAP1 JUMP JUMPDEST SWAP1 PUSH1 0x41 DUP2 MLOAD EQ PUSH1 0x0 EQ PUSH2 0x255B JUMPI PUSH2 0x2557 SWAP2 PUSH1 0x20 DUP3 ADD MLOAD SWAP1 PUSH1 0x60 PUSH1 0x40 DUP5 ADD MLOAD SWAP4 ADD MLOAD PUSH1 0x0 BYTE SWAP1 PUSH2 0x2669 JUMP JUMPDEST SWAP1 SWAP2 JUMP JUMPDEST POP POP PUSH1 0x0 SWAP1 PUSH1 0x2 SWAP1 JUMP JUMPDEST PUSH1 0x5 DUP2 LT ISZERO PUSH2 0x18DF JUMPI DUP1 PUSH2 0x2576 JUMPI POP JUMP JUMPDEST PUSH1 0x1 DUP2 SUB PUSH2 0x25C3 JUMPI PUSH1 0x40 MLOAD PUSH3 0x461BCD PUSH1 0xE5 SHL DUP2 MSTORE PUSH1 0x20 PUSH1 0x4 DUP3 ADD MSTORE PUSH1 0x18 PUSH1 0x24 DUP3 ADD MSTORE PUSH32 0x45434453413A20696E76616C6964207369676E61747572650000000000000000 PUSH1 0x44 DUP3 ADD MSTORE PUSH1 0x64 SWAP1 REVERT JUMPDEST PUSH1 0x2 DUP2 SUB PUSH2 0x2610 JUMPI PUSH1 0x40 MLOAD PUSH3 0x461BCD PUSH1 0xE5 SHL DUP2 MSTORE PUSH1 0x20 PUSH1 0x4 DUP3 ADD MSTORE PUSH1 0x1F PUSH1 0x24 DUP3 ADD MSTORE PUSH32 0x45434453413A20696E76616C6964207369676E6174757265206C656E67746800 PUSH1 0x44 DUP3 ADD MSTORE PUSH1 0x64 SWAP1 REVERT JUMPDEST PUSH1 0x3 EQ PUSH2 0x2619 JUMPI JUMP JUMPDEST PUSH1 0x40 MLOAD PUSH3 0x461BCD PUSH1 0xE5 SHL DUP2 MSTORE PUSH1 0x20 PUSH1 0x4 DUP3 ADD MSTORE PUSH1 0x22 PUSH1 0x24 DUP3 ADD MSTORE PUSH32 0x45434453413A20696E76616C6964207369676E6174757265202773272076616C PUSH1 0x44 DUP3 ADD MSTORE PUSH2 0x7565 PUSH1 0xF0 SHL PUSH1 0x64 DUP3 ADD MSTORE PUSH1 0x84 SWAP1 REVERT JUMPDEST SWAP3 SWAP2 SWAP1 PUSH32 0x7FFFFFFFFFFFFFFFFFFFFFFFFFFFFFFF5D576E7357A4501DDFE92F46681B20A0 DUP4 GT PUSH2 0x26EC JUMPI SWAP2 PUSH1 0x80 SWAP5 SWAP4 SWAP2 PUSH1 0xFF PUSH1 0x20 SWAP5 PUSH1 0x40 MLOAD SWAP5 DUP6 MSTORE AND DUP5 DUP5 ADD MSTORE PUSH1 0x40 DUP4 ADD MSTORE PUSH1 0x60 DUP3 ADD MSTORE PUSH1 0x0 SWAP4 DUP5 SWAP2 DUP3 DUP1 MSTORE PUSH1 0x1 GAS STATICCALL ISZERO PUSH2 0x26DF JUMPI DUP2 MLOAD PUSH1 0x1 PUSH1 0x1 PUSH1 0xA0 SHL SUB DUP2 AND ISZERO PUSH2 0x26D9 JUMPI SWAP2 SWAP1 JUMP JUMPDEST POP PUSH1 0x1 SWAP1 JUMP JUMPDEST POP PUSH1 0x40 MLOAD SWAP1 RETURNDATASIZE SWAP1 DUP3 RETURNDATACOPY RETURNDATASIZE SWAP1 REVERT JUMPDEST POP POP POP POP PUSH1 0x0 SWAP1 PUSH1 0x3 SWAP1 JUMP JUMPDEST SWAP2 SWAP3 SWAP1 ISZERO PUSH2 0x275A JUMPI POP DUP2 MLOAD ISZERO PUSH2 0x270C JUMPI POP SWAP1 JUMP JUMPDEST EXTCODESIZE ISZERO PUSH2 0x2715 JUMPI SWAP1 JUMP JUMPDEST PUSH1 0x40 MLOAD PUSH3 0x461BCD PUSH1 0xE5 SHL DUP2 MSTORE PUSH1 0x20 PUSH1 0x4 DUP3 ADD MSTORE PUSH1 0x1D PUSH1 0x24 DUP3 ADD MSTORE PUSH32 0x416464726573733A2063616C6C20746F206E6F6E2D636F6E7472616374000000 PUSH1 0x44 DUP3 ADD MSTORE PUSH1 0x64 SWAP1 REVERT JUMPDEST DUP3 MLOAD SWAP1 SWAP2 POP ISZERO PUSH2 0x276D JUMPI POP DUP1 MLOAD SWAP1 PUSH1 0x20 ADD REVERT JUMPDEST PUSH1 0x40 MLOAD PUSH3 0x461BCD PUSH1 0xE5 SHL DUP2 MSTORE PUSH1 0x20 PUSH1 0x4 DUP3 ADD MSTORE SWAP1 DUP2 SWAP1 PUSH2 0x2791 SWAP1 PUSH1 0x24 DUP4 ADD SWAP1 PUSH2 0x236B JUMP JUMPDEST SUB SWAP1 REVERT INVALID LOG2 PUSH5 0x6970667358 0x22 SLT KECCAK256 0xDA EXP PUSH30 0xF50B5FB5CC0AAFFC4FC19BA280175157EBA7A3151B310C42ED6191320F64 PUSH20 0x6F6C63430008180033546865206D6178696D756D KECCAK256 PUSH3 0x657420 PUSH23 0x616C7565206D7573742062652067720000000000000000 "},"methodIdentifiers":{"admin()":"f851a440","cancelAdminChange()":"1157b267","cancelGuardianChange()":"fb49fe27","cancelWinProbabilityChange()":"4addd5f6","cancelWithdrawFund()":"9e090628","changeMaxBetValue(uint256)":"e065fc93","changeMinBetValue(uint256)":"677660e0","confirmAdminChange()":"a74b6783","confirmChangeGuardian()":"847d1e90","confirmChangeWinProbability()":"9a138974","guardian()":"452a9320","isLocked()":"a4e2d634","lastTimestamp(address)":"dccfac82","lockContract()":"753868e3","maxRewardMultiply()":"a48158e5","maxiumBetValue()":"ba8a305c","miniumBetValue()":"1617f190","pendingAdmin()":"26782247","pendingAdminChangeTime()":"bff42fe4","pendingGuardian()":"762c31ba","pendingGuardianChangeTime()":"ed3cacc1","pendingWinProbability()":"e1d8192c","pendingWinProbabilityChangeTime()":"a9860b97","pendingWithdrawFundTime()":"3ab0f330","placeBet((uint256,uint8)[],uint256,uint256,bytes)":"7ce3c6dc","requestAdminChange(address)":"8c51d1e4","requestChangeGuardian(address)":"28fc8b68","requestChangeWinProbability(uint256)":"71d00086","requestWithdrawFund()":"9d1c35e2","rewards(uint256)":"f301af42","token()":"fc0c546a","unlockContract()":"22f0f2f9","winProbability()":"69f2941d","withdrawFund(uint256)":"0cee1725"}}}}}