{"contracts/Highlow.sol":{"Highlow":{"abi":[{"inputs":[{"internalType":"address","name":"_guardian","type":"address"},{"internalType":"address","name":"_admin","type":"address"},{"internalType":"address","name":"_token","type":"address"},{"internalType":"uint256","name":"_minBetValue","type":"uint256"},{"internalType":"uint256","name":"_maxBetValue","type":"uint256"}],"stateMutability":"payable","type":"constructor"},{"anonymous":false,"inputs":[],"name":"AdminChangeCancelled","type":"event"},{"anonymous":false,"inputs":[{"indexed":false,"internalType":"address","name":"newAdmin","type":"address"},{"indexed":false,"internalType":"uint256","name":"requestTime","type":"uint256"}],"name":"AdminChangeRequested","type":"event"},{"anonymous":false,"inputs":[{"indexed":false,"internalType":"address","name":"newAdmin","type":"address"}],"name":"AdminChanged","type":"event"},{"anonymous":false,"inputs":[{"indexed":false,"internalType":"address","name":"admin","type":"address"},{"indexed":false,"internalType":"uint256","name":"maxBetValue","type":"uint256"}],"name":"ChangedMaxBetValue","type":"event"},{"anonymous":false,"inputs":[{"indexed":false,"internalType":"address","name":"admin","type":"address"},{"indexed":false,"internalType":"uint256","name":"minBetValue","type":"uint256"}],"name":"ChangedMinBetValue","type":"event"},{"anonymous":false,"inputs":[{"indexed":false,"internalType":"address","name":"by","type":"address"}],"name":"ContractLocked","type":"event"},{"anonymous":false,"inputs":[{"indexed":false,"internalType":"address","name":"by","type":"address"}],"name":"ContractUnlocked","type":"event"},{"anonymous":false,"inputs":[],"name":"GuardianChangeCancelled","type":"event"},{"anonymous":false,"inputs":[{"indexed":false,"internalType":"address","name":"newGuardian","type":"address"},{"indexed":false,"internalType":"uint256","name":"requestTime","type":"uint256"}],"name":"GuardianChangeRequested","type":"event"},{"anonymous":false,"inputs":[{"indexed":false,"internalType":"address","name":"newGuardian","type":"address"}],"name":"GuardianChanged","type":"event"},{"anonymous":false,"inputs":[{"indexed":false,"internalType":"address","name":"user","type":"address"},{"indexed":false,"internalType":"uint256","name":"ssid","type":"uint256"},{"components":[{"internalType":"uint256","name":"id","type":"uint256"},{"internalType":"uint256","name":"value","type":"uint256"}],"indexed":false,"internalType":"struct Highlow.Card","name":"betCard","type":"tuple"},{"components":[{"internalType":"uint256","name":"id","type":"uint256"},{"internalType":"uint256","name":"value","type":"uint256"}],"indexed":false,"internalType":"struct Highlow.Card","name":"nextCard","type":"tuple"},{"indexed":false,"internalType":"uint256","name":"amount","type":"uint256"}],"name":"Result","type":"event"},{"anonymous":false,"inputs":[{"indexed":false,"internalType":"uint256","name":"ssid","type":"uint256"},{"components":[{"internalType":"uint256","name":"id","type":"uint256"},{"internalType":"uint256","name":"value","type":"uint256"}],"indexed":false,"internalType":"struct Highlow.Card","name":"card","type":"tuple"}],"name":"StartGame","type":"event"},{"anonymous":false,"inputs":[],"name":"WinProbabilityChangeCancelled","type":"event"},{"anonymous":false,"inputs":[{"indexed":false,"internalType":"uint256","name":"winProbability","type":"uint256"}],"name":"WinProbabilityChanged","type":"event"},{"anonymous":false,"inputs":[{"indexed":false,"internalType":"uint256","name":"winProbability","type":"uint256"}],"name":"WinProbabilityRequested","type":"event"},{"anonymous":false,"inputs":[{"indexed":false,"internalType":"address","name":"to","type":"address"},{"indexed":false,"internalType":"uint256","name":"amount","type":"uint256"}],"name":"WithdrawFund","type":"event"},{"anonymous":false,"inputs":[],"name":"WithdrawFundCancelled","type":"event"},{"anonymous":false,"inputs":[{"indexed":false,"internalType":"uint256","name":"requestTime","type":"uint256"}],"name":"WithdrawFundRequested","type":"event"},{"inputs":[],"name":"admin","outputs":[{"internalType":"address","name":"","type":"address"}],"stateMutability":"view","type":"function"},{"inputs":[],"name":"cancelAdminChange","outputs":[],"stateMutability":"nonpayable","type":"function"},{"inputs":[],"name":"cancelGuardianChange","outputs":[],"stateMutability":"nonpayable","type":"function"},{"inputs":[],"name":"cancelWinProbabilityChange","outputs":[],"stateMutability":"nonpayable","type":"function"},{"inputs":[],"name":"cancelWithdrawFund","outputs":[],"stateMutability":"nonpayable","type":"function"},{"inputs":[{"internalType":"uint256","name":"_maxBetValue","type":"uint256"}],"name":"changeMaxBetValue","outputs":[],"stateMutability":"nonpayable","type":"function"},{"inputs":[{"internalType":"uint256","name":"_minBetValue","type":"uint256"}],"name":"changeMinBetValue","outputs":[],"stateMutability":"nonpayable","type":"function"},{"inputs":[],"name":"confirmAdminChange","outputs":[],"stateMutability":"nonpayable","type":"function"},{"inputs":[],"name":"confirmChangeGuardian","outputs":[],"stateMutability":"nonpayable","type":"function"},{"inputs":[],"name":"confirmChangeWinProbability","outputs":[],"stateMutability":"nonpayable","type":"function"},{"inputs":[],"name":"guardian","outputs":[{"internalType":"address","name":"","type":"address"}],"stateMutability":"view","type":"function"},{"inputs":[],"name":"isLocked","outputs":[{"internalType":"bool","name":"","type":"bool"}],"stateMutability":"view","type":"function"},{"inputs":[{"internalType":"address","name":"","type":"address"}],"name":"lastTimestamp","outputs":[{"internalType":"uint256","name":"","type":"uint256"}],"stateMutability":"view","type":"function"},{"inputs":[],"name":"lockContract","outputs":[],"stateMutability":"nonpayable","type":"function"},{"inputs":[],"name":"maxiumBetValue","outputs":[{"internalType":"uint256","name":"","type":"uint256"}],"stateMutability":"view","type":"function"},{"inputs":[],"name":"miniumBetValue","outputs":[{"internalType":"uint256","name":"","type":"uint256"}],"stateMutability":"view","type":"function"},{"inputs":[],"name":"pendingAdmin","outputs":[{"internalType":"address","name":"","type":"address"}],"stateMutability":"view","type":"function"},{"inputs":[],"name":"pendingAdminChangeTime","outputs":[{"internalType":"uint256","name":"","type":"uint256"}],"stateMutability":"view","type":"function"},{"inputs":[],"name":"pendingGuardian","outputs":[{"internalType":"address","name":"","type":"address"}],"stateMutability":"view","type":"function"},{"inputs":[],"name":"pendingGuardianChangeTime","outputs":[{"internalType":"uint256","name":"","type":"uint256"}],"stateMutability":"view","type":"function"},{"inputs":[],"name":"pendingWinProbability","outputs":[{"internalType":"uint256","name":"","type":"uint256"}],"stateMutability":"view","type":"function"},{"inputs":[],"name":"pendingWinProbabilityChangeTime","outputs":[{"internalType":"uint256","name":"","type":"uint256"}],"stateMutability":"view","type":"function"},{"inputs":[],"name":"pendingWithdrawFundTime","outputs":[{"internalType":"uint256","name":"","type":"uint256"}],"stateMutability":"view","type":"function"},{"inputs":[{"internalType":"uint256","name":"_ssid","type":"uint256"},{"internalType":"enum Highlow.BetType","name":"_betType","type":"uint8"},{"internalType":"uint256","name":"_amount","type":"uint256"},{"internalType":"uint256","name":"_timestamp","type":"uint256"},{"internalType":"bytes","name":"signature","type":"bytes"}],"name":"placeBet","outputs":[],"stateMutability":"payable","type":"function"},{"inputs":[{"internalType":"address","name":"newAdmin","type":"address"}],"name":"requestAdminChange","outputs":[],"stateMutability":"nonpayable","type":"function"},{"inputs":[{"internalType":"address","name":"newGuardian","type":"address"}],"name":"requestChangeGuardian","outputs":[],"stateMutability":"nonpayable","type":"function"},{"inputs":[{"internalType":"uint256","name":"_winProbability","type":"uint256"}],"name":"requestChangeWinProbability","outputs":[],"stateMutability":"nonpayable","type":"function"},{"inputs":[],"name":"requestWithdrawFund","outputs":[],"stateMutability":"nonpayable","type":"function"},{"inputs":[],"name":"rewardMultiply","outputs":[{"internalType":"uint256","name":"","type":"uint256"}],"stateMutability":"view","type":"function"},{"inputs":[{"internalType":"uint256","name":"_timestamp","type":"uint256"},{"internalType":"bytes","name":"signature","type":"bytes"}],"name":"startGame","outputs":[],"stateMutability":"nonpayable","type":"function"},{"inputs":[],"name":"token","outputs":[{"internalType":"contract IERC20","name":"","type":"address"}],"stateMutability":"view","type":"function"},{"inputs":[],"name":"unlockContract","outputs":[],"stateMutability":"nonpayable","type":"function"},{"inputs":[],"name":"winProbability","outputs":[{"internalType":"uint256","name":"","type":"uint256"}],"stateMutability":"view","type":"function"},{"inputs":[{"internalType":"uint256","name":"amount","type":"uint256"}],"name":"withdrawFund","outputs":[],"stateMutability":"nonpayable","type":"function"}],"evm":{"bytecode":{"linkReferences":{},"object":"60e0601f1962002a8038819003601f810192909216830192916001600160401b03918385108386111762000373578160a0928592604097885283398101031262000481576200004e82620004a2565b6020906200005e828501620004a2565b6200006b868601620004a2565b60806060870151960151956001918260005560ff19600d5416600d55871562000439578115620003e05781881062000389576001600160a01b03908116608052600280546001600160a01b03199081169583169590951781556003805490951691909516178355600a808355600b97909755600c5560c0839052865184939190620000f68162000486565b60079481868093520166486967686c6f7760c81b81522081868a516200011c8162000486565b82815201603160f81b81522096895197878901927f8b73c3c69bb8fe3d512ecc4cf759cc79239f7b179b0ffacaa9a75d522b39400f84528b8a015260608901524660808901523060a089015260a0885260c088019088821090821117620003735788978382600b9460e0948e528351902060a0526200019b8162000486565b520152600f55600b60105580848851620001b58162000486565b82815201528060115560125580838751620001d08162000486565b8281520152806013556014556004828651620001ec8162000486565b82815201526004601555600460165560058286516200020b8162000486565b82815201526005601755600560185560068286516200022a8162000486565b828152015260066019556006601a5580828651620002488162000486565b828152015280601b55601c556008818551620002648162000486565b82815201526008601d556008601e556009818551620002838162000486565b82815201526009601f556009815581818551620002a08162000486565b8281520152816021558160225581818551620002bc8162000486565b600b81520152600b6023558160245581818551620002da8162000486565b600c81520152600c602555816026558351620002f68162000486565b600d81520152600d602755602855516125a89081620004b882396080518181816101ac015281816105a401528181610bc5015281816110970152818161156c01528181611653015281816117fe015281816118de015261190f015260a05181611ffa015260c051818181610f580152818161152c01526119bf0152f35b634e487b7160e01b600052604160045260246000fd5b6084868a80519162461bcd60e51b83526004830152602482015260008051602062002a6083398151915260448201527f6561746572207468616e20746865206d696e696d756d206265742076616c75656064820152fd5b885162461bcd60e51b815260048101879052602c60248201527f546865206d696e696d756d206265742076616c7565206d75737420626520677260448201526b06561746572207468616e20360a41b6064820152608490fd5b885162461bcd60e51b815260048101879052602c602482015260008051602062002a6083398151915260448201526b06561746572207468616e20360a41b6064820152608490fd5b600080fd5b604081019081106001600160401b038211176200037357604052565b51906001600160a01b0382168203620004815756fe6040608081526004908136101561001557600080fd5b600091823560e01c9081630cee172514610ffb5781631157b26714610f9a5781631617f19014610f7b5781631966ae4914610f4057816322f0f2f914610ee35781632678224714610ebb57816328fc8b6814610e1857816332b031a314610db85781633ab0f33014610d99578163452a932014610d705781634addd5f614610d1b57816351903bd914610b35578163677660e014610a6657816369f2941d14610a4757816371d00086146109a1578163753868e314610941578163762c31ba14610918578163847d1e901461086a5781638c51d1e4146107c85781639a138974146106cb5781639d1c35e2146105535781639e09062814610502578163a4e2d634146104de578163a74b67831461041e578163a9860b97146103ff578163ba8a305c146103e0578163bff42fe4146103c1578163dccfac8214610387578163e065fc93146102ae57508063e1d8192c14610290578063ed3cacc114610272578063f851a4401461024a578063fb49fe27146101df5763fc0c546a1461019957600080fd5b346101db57816003193601126101db57517f00000000000000000000000000000000000000000000000000000000000000006001600160a01b03168152602090f35b5080fd5b823461024757806003193601126102475761020560018060a01b03600354163314611286565b6bffffffffffffffffffffffff60a01b60065416600655806007557f7a81c642828249ae51a34cf52e35ebbf08bd3cb36fb5a4b4c8e80261893f5b818180a180f35b80fd5b50346101db57816003193601126101db5760025490516001600160a01b039091168152602090f35b50346101db57816003193601126101db576020906007549051908152f35b50346101db57816003193601126101db576020906009549051908152f35b91905034610383576020366003190112610383578135916102da60018060a01b036002541633146111f9565b821561033557507fa9f6ef469a02717105903bbce25c47a4db6a0d759d929c5cd9bf295a7033b1749161032f91610314600c548311611d77565b600b8290555133815260208101919091529081906040820190565b0390a180f35b6020608492519162461bcd60e51b8352820152602360248201527f546865206d617869756d206265742076616c756520677265617465722074686160448201526206e20360ec1b6064820152fd5b8280fd5b90503461038357602036600319011261038357356001600160a01b038116908190036103835782829160209452600e845220549051908152f35b5050346101db57816003193601126101db576020906005549051908152f35b5050346101db57816003193601126101db57602090600b549051908152f35b5050346101db57816003193601126101db57602090600a549051908152f35b8383346101db57816003193601126101db576002546001600160a01b03919061044a33848316146111f9565b84549283169261045b841515611edd565b600554610469811515611edd565b6203f48081018091116104cb577f7ce7ec0b50378fb6c0186ffb5f48325f6593fcb4ca4386f21861af3129188f5c9492602094926104aa8993421015611e2a565b6001600160a01b03199182168517600255169055600585905551908152a180f35b634e487b7160e01b865260118752602486fd5b5050346101db57816003193601126101db5760209060ff600d541690519015158152f35b833461024757806003193601126102475761052860018060a01b03600354163314611286565b806008557f94a9b8fb6e694c6c0fbee0e13e1c5b9ae2dda4395e3495228a46dc717617c6fa8180a180f35b839150346101db57816003193601126101db576002546001600160a01b03919061058090831633146111f9565b60085461067e57835180926370a0823160e01b8252308383015281602460209586937f0000000000000000000000000000000000000000000000000000000000000000165afa908115610674578491610643575b501561060a57507fe20350bd5ff90b7bdbcb8229cf46c222a5f5b18f094a1ac5962451445fda107691924260085551428152a180f35b60649184519162461bcd60e51b835282015260156024820152744e6f20746f6b656e7320746f20776974686472617760581b6044820152fd5b90508281813d831161066d575b61065a81836113a3565b810103126106695751856105d4565b8380fd5b503d610650565b85513d86823e3d90fd5b608490602085519162461bcd60e51b8352820152602160248201527f5769746864726177616c207265717565737420697320696e2070726f677265736044820152607360f81b6064820152fd5b919050346103835782600319360112610383576106f360018060a01b036002541633146111f9565b60095491610702831515611e87565b600a54610710811515611e87565b6203f48081018091116107b557421061075d5750816020917f9dc86596ca5f70a96c96b2cb0be04f02b7da0a6261f97d43cebcc921020b1925936001558460095584600a5551908152a180f35b6020608492519162461bcd60e51b8352820152602d60248201527f4d75737420776169742033206461797320746f20636f6e6669726d207365656460448201526c207265656c73206368616e676560981b6064820152fd5b634e487b7160e01b855260118252602485fd5b919050346103835760203660031901126103835781356001600160a01b0381811693909290848303610866577f72b357b8c271031aad940e03e51f8c172b495a1dd60d6e902d339c7f496041029461082861032f956002541633146111f9565b6108338115156112d2565b81546001600160a01b03191617905542600581905590516001600160a01b03909216825260208201529081906040820190565b8580fd5b8383346101db57816003193601126101db576003546001600160a01b0391906108963384831614611286565b600654928316926108a8841515611dde565b6007546108b6811515611dde565b6203f48081018091116104cb5791602093916108f67f01c6520cf747e4632b43b535b91afe3950ccabc4ab29bbd89e3c1f6b0ba056559694421015611e2a565b6001600160a01b0319918216841760035516600655600785905551908152a180f35b5050346101db57816003193601126101db5760065490516001600160a01b039091168152602090f35b5050346101db57816003193601126101db5760207f46a289a85516d6b63cec7f685e3f5398070f9fc5fb8e3d14021add023fec568f9161098c60018060a01b03600354163314611286565b600160ff19600d541617600d5551338152a180f35b91905034610383576020366003190112610383578135916109cd60018060a01b036002541633146111f9565b6032831015610a0c5750816020917f9b161a37c93b297fe93d8f6f47f959bb91bd34a421b3892b0c91674ce107fb249360095542600a5551908152a180f35b6020606492519162461bcd60e51b83528201526016602482015275496e76616c69642077696e50726f626162696c69747960501b6044820152fd5b5050346101db57816003193601126101db576020906001549051908152f35b9190503461038357602036600319011261038357813591610a9260018060a01b036002541633146111f9565b8215610ae757508161032f91610acc7f96fd935283ebe139eff1231ba7e60b91334b7e1e1c67c91c68b58f8d4a7b211f94600b5411611d77565b600c8290555133815260208101919091529081906040820190565b6020608492519162461bcd60e51b8352820152602360248201527f546865206d696e69756d206265742076616c756520677265617465722074686160448201526206e20360ec1b6064820152fd5b8383346101db57806003193601126101db5782359060243567ffffffffffffffff811161066957610b6990369086016111c6565b610b7860ff600d541615611245565b610b84844210156113c5565b603c84018085116104cb57610b9b90421115611411565b338552602091600e8352610bb3848720548611611451565b835163313ce56760e01b8152838189817f00000000000000000000000000000000000000000000000000000000000000006001600160a01b03165afa8015610d11578790610cd5575b60ff915016604d8111610cc257610c5885937fe62b3b98deefd8f43cf76a15e0c191fa45e18bc954d5ec8a1e36c8baeec616ab979593610c5d936060985190610c4482611339565b338252600a0a868201528787820152611f88565b61149d565b338652600e81528282872055610c7b610c7584612173565b936120b4565b8251610c868161136b565b848152600283808301848152338b5260298252868b2093518455518051600185015501519101558251938452805182850152015190820152a180f35b634e487b7160e01b875260118852602487fd5b508381813d8311610d0a575b610ceb81836113a3565b81010312610d06575160ff81168103610d065760ff90610bfc565b8680fd5b503d610ce1565b85513d89823e3d90fd5b8334610247578060031936011261024757610d4160018060a01b036002541633146111f9565b8060095580600a557f9ef48cacefe12ab0a801d57bc51beb3a36523278e29346ed78249364434565028180a180f35b5050346101db57816003193601126101db5760035490516001600160a01b039091168152602090f35b5050346101db57816003193601126101db576020906008549051908152f35b839060a03660031901126101db576024356002811015610383576084359167ffffffffffffffff831161066957610df5610e1593369083016111c6565b929091610e0760ff600d541615611245565b6064359160443591356114fb565b80f35b905034610383576020366003190112610383576001600160a01b03903581811692838203610eb7577f6c437b1584202b77482374dd2215b75e975b0be0768b92ed5e4b048b0e10987993610e7461032f94600354163314611286565b610e7f8115156112d2565b600680546001600160a01b03191691909117905542600781905590516001600160a01b03909216825260208201529081906040820190565b8480fd5b9050346103835782600319360112610383575490516001600160a01b03909116815260209150f35b5050346101db57816003193601126101db5760207ff08396b9fd122c2ef99aec183d994d39fa54cc25773e4b8a6ed20ad08aef02c991610f2e60018060a01b03600354163314611286565b60ff19600d5416600d5551338152a180f35b5050346101db57816003193601126101db57602090517f00000000000000000000000000000000000000000000000000000000000000008152f35b5050346101db57816003193601126101db57602090600c549051908152f35b8390346101db57816003193601126101db57610fc160018060a01b03600354163314611286565b80546001600160a01b031916905560058190557f07ad662e4db36fe46ee1697376f8457b103123c200de262ca4baf9f5cad0a1e88180a180f35b839150346101db5760203660031901126101db576002548135916001600160a01b039182169061102c3383146111f9565b6002855414611183576002855561104860ff600d541615611245565b600854801561114a5762093a8081018091116111375742106110e957508394916110bb846110df937f09ad672d4e7c4892da934d1051932ebe9ec4b6ec8c3f40d569176db3e93e5abe976008557f0000000000000000000000000000000000000000000000000000000000000000611f29565b600254925192166001600160a01b0316825260208201929092529081906040820190565b0390a16001815580f35b608490602087519162461bcd60e51b8352820152602260248201527f4d75737420776169742037206461797320746f2077697468647261772066756e604482015261647360f01b6064820152fd5b634e487b7160e01b865260118252602486fd5b865162461bcd60e51b815260208184015260136024820152724e6f2070656e64696e6720776974686472617760681b6044820152606490fd5b606490602087519162461bcd60e51b8352820152601f60248201527f5265656e7472616e637947756172643a207265656e7472616e742063616c6c006044820152fd5b9181601f840112156111f45782359167ffffffffffffffff83116111f457602083818601950101116111f457565b600080fd5b1561120057565b60405162461bcd60e51b815260206004820152601b60248201527f4f6e6c792061646d696e2063616e2065786563757465207468697300000000006044820152606490fd5b1561124c57565b60405162461bcd60e51b815260206004820152601260248201527110dbdb9d1c9858dd081a5cc81b1bd8dad95960721b6044820152606490fd5b1561128d57565b60405162461bcd60e51b815260206004820152601e60248201527f4f6e6c7920677561726469616e2063616e2065786563757465207468697300006044820152606490fd5b156112d957565b60405162461bcd60e51b815260206004820152600f60248201526e496e76616c6964206164647265737360881b6044820152606490fd5b8181029291811591840414171561132357565b634e487b7160e01b600052601160045260246000fd5b6060810190811067ffffffffffffffff82111761135557604052565b634e487b7160e01b600052604160045260246000fd5b6040810190811067ffffffffffffffff82111761135557604052565b60a0810190811067ffffffffffffffff82111761135557604052565b90601f8019910116810190811067ffffffffffffffff82111761135557604052565b156113cc57565b60405162461bcd60e51b815260206004820152601960248201527f54696d657374616d702066726f6d2074686520667574757265000000000000006044820152606490fd5b1561141857565b60405162461bcd60e51b8152602060048201526011602482015270151a5b595cdd185b5c08195e1c1a5c9959607a1b6044820152606490fd5b1561145857565b60405162461bcd60e51b815260206004820152601760248201527f54696d657374616d70206d757374206265206e657765720000000000000000006044820152606490fd5b156114a457565b60405162461bcd60e51b8152602060048201526011602482015270496e76616c6964207369676e617475726560781b6044820152606490fd5b906040516114ea8161136b565b602060018294805484520154910152565b949094939193600c548510611d0c57600b548511611cc75733600052602960205260406000205403611c82576115517f000000000000000000000000000000000000000000000000000000000000000085611310565b6040516370a0823160e01b81523060048201526020816024817f00000000000000000000000000000000000000000000000000000000000000006001600160a01b03165afa9081156119ac57600091611c50575b5010611c0b576115b7834210156113c5565b603c8301908184116113235761160f926115d6610c5893421115611411565b33600052600e6020526115ef6040600020548611611451565b6040516115fb81611339565b338152866020820152856040820152611f88565b33600052600e602052806040600020556116776040516323b872dd60e01b60208201523360248201523060448201528360648201526064815261165181611387565b7f00000000000000000000000000000000000000000000000000000000000000006121b8565b33600052602960205261169060016040600020016114dd565b600060206040516116a08161136b565b8281520152600060206040516116b58161136b565b8281520152600019430143811161132357606460405160208101903360601b825283406034820152446054820152856074820152607481526116f681611387565b5190200660015411600060405191826101c081011067ffffffffffffffff6101c085011117611355576101c08301604052600d835260005b6101a08110611be6575015611b46576002871015611a225786611afe5760005b600d8110611aac57505b80611a4e575050600d9060405160208101913360601b83524060348201524460548201528460748201526074815261178f81611387565b51902006600d811015611a38576117ab9060011b600f016114dd565b925b6117bf6117b9846120b4565b93612173565b946000926002821015611a225781159182611a0f575b82156119ea575b50506119b8575b6040516370a0823160e01b81523060048201526020816024817f00000000000000000000000000000000000000000000000000000000000000006001600160a01b03165afa9081156119ac57600091611973575b50600294837f32d9b2d25d1f9cf3a167cfeb80d45c711f98b6ab4a5c9cdb91395f58007e82f99360e09360209796116119075750806118d7575b856040519233845289828501528051604085015201516060830152845160808301528585015160a083015260c0820152a1604051936118af8561136b565b8452818401908152336000526029825260406000209351845551805160018501550151910155565b61190281337f0000000000000000000000000000000000000000000000000000000000000000611f29565b611871565b6119339150337f0000000000000000000000000000000000000000000000000000000000000000611f29565b846040519133835288828401528051604084015201516060820152835160808201528484015160a0820152600060c0820152a1604051936118af8561136b565b90506020939293813d6020116119a4575b81611991602093836113a3565b810103126111f457519192916002611837565b3d9150611984565b6040513d6000823e3d90fd5b90506119e47f000000000000000000000000000000000000000000000000000000000000000082611310565b906117e3565b6001149150816119fd575b5038806117dc565b602091500151602085015111386119f5565b91506020810151602087015110916117d5565b634e487b7160e01b600052602160045260246000fd5b634e487b7160e01b600052603260045260246000fd5b60018103611a6a57508091505115611a385760200151926117ad565b611aa59260405160208101913360601b835240603482015244605482015286607482015260748152611a9b81611387565b5190200690612091565b51926117ad565b8060011b6010810154602087015111611ac9575b5060010161174e565b60019192611adc611af792600f016114dd565b611ae68287612091565b52611af18186612091565b506120a5565b9190611ac0565b60005b600d8110611b0f5750611758565b8060011b6010810154602087015110611b2c575b50600101611b01565b60019192611adc611b3f92600f016114dd565b9190611b23565b6002871015611a225786611b9d5760005b600d8110611b655750611758565b8060011b601081015460208701511115611b83575b50600101611b57565b60019192611adc611b9692600f016114dd565b9190611b7a565b60005b600d8110611bae5750611758565b8060011b601081015460208701511015611bcc575b50600101611ba0565b60019192611adc611bdf92600f016114dd565b9190611bc3565b602090604051611bf58161136b565b600081526000838201528282870101520161172e565b60405162461bcd60e51b815260206004820152601f60248201527f436f6e74726163742068617320696e73756666696369656e742066756e6473006044820152606490fd5b90506020813d602011611c7a575b81611c6b602093836113a3565b810103126111f45751386115a5565b3d9150611c5e565b60405162461bcd60e51b815260206004820152601860248201527f5468652073657373696f6e206973206e6f74206d6174636800000000000000006044820152606490fd5b60405162461bcd60e51b815260206004820152601960248201527f4265742065786365656473206d6178696d756d206c696d6974000000000000006044820152606490fd5b60405162461bcd60e51b815260206004820152603e60248201527f5468652062657420616d6f756e74206d7573742062652067726561746572207460448201527f68616e20746865206d696e696d756d2072657175697265642076616c756500006064820152608490fd5b15611d7e57565b60405162461bcd60e51b815260206004820152603260248201527f546865206d617869756d206265742076616c75652067726561746572207468616044820152716e206d696e69756d206265742076616c756560701b6064820152608490fd5b15611de557565b60405162461bcd60e51b815260206004820152601a60248201527f4e6f2070656e64696e6720677561726469616e206368616e67650000000000006044820152606490fd5b15611e3157565b60405162461bcd60e51b815260206004820152602860248201527f4d75737420776169742033206461797320746f20636f6e6669726d2061646d696044820152676e206368616e676560c01b6064820152608490fd5b15611e8e57565b60405162461bcd60e51b815260206004820152602160248201527f4e6f2070656e64696e672077696e2070726f626162696c697479206368616e676044820152606560f81b6064820152608490fd5b15611ee457565b60405162461bcd60e51b815260206004820152601760248201527f4e6f2070656e64696e672061646d696e206368616e67650000000000000000006044820152606490fd5b60405163a9059cbb60e01b60208201526001600160a01b03929092166024830152604480830193909352918152611f6a91611f656064836113a3565b6121b8565b565b67ffffffffffffffff811161135557601f01601f191660200190565b9060018060a01b039182815116602082015160408093015183519160208301937f0e81d1cdf23bdc0a6bef5035503a1014285a41cc67c1e91e29d9211b707e3cf98552858401526060830152608082015260808152611fe681611387565b5190208151602081019161190160f01b83527f000000000000000000000000000000000000000000000000000000000000000060228301526042820152604281526080810181811067ffffffffffffffff82111761135557835251902061205861204f86611f6c565b925192836113a3565b84825236858401116111f45760006020866120869761207e9683870137840101526122d3565b92909261230b565b806002541691161490565b8051821015611a385760209160051b010190565b60001981146113235760010190565b6020906040516120c38161136b565b6000928184809352015260001943019043821161215f57906003916040519060208201923360601b845240603483015244605483015260748201526074815261210b81611387565b51902016906004820180921161214b57600d82101561213757506121349060011b600f016114dd565b90565b634e487b7160e01b81526032600452602490fd5b634e487b7160e01b81526011600452602490fd5b634e487b7160e01b83526011600452602483fd5b600019430143811161132357620186a0916040519060208201923360601b84524060348301524460548301526074820152607481526121b181611387565b5190200690565b60018060a01b0316906122356040516121d08161136b565b6020938482527f5361666545524332303a206c6f772d6c6576656c2063616c6c206661696c6564858301526000808587829751910182855af13d156122cb573d9161221a83611f6c565b9261222860405194856113a3565b83523d868885013e61249e565b8051918215918483156122a7575b5050509050156122505750565b6084906040519062461bcd60e51b82526004820152602a60248201527f5361666545524332303a204552433230206f7065726174696f6e20646964206e6044820152691bdd081cdd58d8d9595960b21b6064820152fd5b9193818094500103126101db57820151908115158203610247575080388084612243565b60609161249e565b906041815114600014612301576122fd916020820151906060604084015193015160001a9061240f565b9091565b5050600090600290565b6005811015611a22578061231c5750565b600181036123695760405162461bcd60e51b815260206004820152601860248201527f45434453413a20696e76616c6964207369676e617475726500000000000000006044820152606490fd5b600281036123b65760405162461bcd60e51b815260206004820152601f60248201527f45434453413a20696e76616c6964207369676e6174757265206c656e677468006044820152606490fd5b6003146123bf57565b60405162461bcd60e51b815260206004820152602260248201527f45434453413a20696e76616c6964207369676e6174757265202773272076616c604482015261756560f01b6064820152608490fd5b9291907f7fffffffffffffffffffffffffffffff5d576e7357a4501ddfe92f46681b20a083116124925791608094939160ff602094604051948552168484015260408301526060820152600093849182805260015afa156124855781516001600160a01b0381161561247f579190565b50600190565b50604051903d90823e3d90fd5b50505050600090600390565b9192901561250057508151156124b2575090565b3b156124bb5790565b60405162461bcd60e51b815260206004820152601d60248201527f416464726573733a2063616c6c20746f206e6f6e2d636f6e74726163740000006044820152606490fd5b8251909150156125135750805190602001fd5b6040519062461bcd60e51b82528160208060048301528251908160248401526000935b828510612559575050604492506000838284010152601f80199101168101030190fd5b848101820151868601604401529381019385935061253656fea2646970667358221220059d89a89d34d6f4cc707a96599b47f2d299920256eb68184d9160dc13a64d7464736f6c63430008180033546865206d6178696d756d206265742076616c7565206d757374206265206772","opcodes":"PUSH1 0xE0 PUSH1 0x1F NOT PUSH3 0x2A80 CODESIZE DUP2 SWAP1 SUB PUSH1 0x1F DUP2 ADD SWAP3 SWAP1 SWAP3 AND DUP4 ADD SWAP3 SWAP2 PUSH1 0x1 PUSH1 0x1 PUSH1 0x40 SHL SUB SWAP2 DUP4 DUP6 LT DUP4 DUP7 GT OR PUSH3 0x373 JUMPI DUP2 PUSH1 0xA0 SWAP3 DUP6 SWAP3 PUSH1 0x40 SWAP8 DUP9 MSTORE DUP4 CODECOPY DUP2 ADD SUB SLT PUSH3 0x481 JUMPI PUSH3 0x4E DUP3 PUSH3 0x4A2 JUMP JUMPDEST PUSH1 0x20 SWAP1 PUSH3 0x5E DUP3 DUP6 ADD PUSH3 0x4A2 JUMP JUMPDEST PUSH3 0x6B DUP7 DUP7 ADD PUSH3 0x4A2 JUMP JUMPDEST PUSH1 0x80 PUSH1 0x60 DUP8 ADD MLOAD SWAP7 ADD MLOAD SWAP6 PUSH1 0x1 SWAP2 DUP3 PUSH1 0x0 SSTORE PUSH1 0xFF NOT PUSH1 0xD SLOAD AND PUSH1 0xD SSTORE DUP8 ISZERO PUSH3 0x439 JUMPI DUP2 ISZERO PUSH3 0x3E0 JUMPI DUP2 DUP9 LT PUSH3 0x389 JUMPI PUSH1 0x1 PUSH1 0x1 PUSH1 0xA0 SHL SUB SWAP1 DUP2 AND PUSH1 0x80 MSTORE PUSH1 0x2 DUP1 SLOAD PUSH1 0x1 PUSH1 0x1 PUSH1 0xA0 SHL SUB NOT SWAP1 DUP2 AND SWAP6 DUP4 AND SWAP6 SWAP1 SWAP6 OR DUP2 SSTORE PUSH1 0x3 DUP1 SLOAD SWAP1 SWAP6 AND SWAP2 SWAP1 SWAP6 AND OR DUP4 SSTORE PUSH1 0xA DUP1 DUP4 SSTORE PUSH1 0xB SWAP8 SWAP1 SWAP8 SSTORE PUSH1 0xC SSTORE PUSH1 0xC0 DUP4 SWAP1 MSTORE DUP7 MLOAD DUP5 SWAP4 SWAP2 SWAP1 PUSH3 0xF6 DUP2 PUSH3 0x486 JUMP JUMPDEST PUSH1 0x7 SWAP5 DUP2 DUP7 DUP1 SWAP4 MSTORE ADD PUSH7 0x486967686C6F77 PUSH1 0xC8 SHL DUP2 MSTORE KECCAK256 DUP2 DUP7 DUP11 MLOAD PUSH3 0x11C DUP2 PUSH3 0x486 JUMP JUMPDEST DUP3 DUP2 MSTORE ADD PUSH1 0x31 PUSH1 0xF8 SHL DUP2 MSTORE KECCAK256 SWAP7 DUP10 MLOAD SWAP8 DUP8 DUP10 ADD SWAP3 PUSH32 0x8B73C3C69BB8FE3D512ECC4CF759CC79239F7B179B0FFACAA9A75D522B39400F DUP5 MSTORE DUP12 DUP11 ADD MSTORE PUSH1 0x60 DUP10 ADD MSTORE CHAINID PUSH1 0x80 DUP10 ADD MSTORE ADDRESS PUSH1 0xA0 DUP10 ADD MSTORE PUSH1 0xA0 DUP9 MSTORE PUSH1 0xC0 DUP9 ADD SWAP1 DUP9 DUP3 LT SWAP1 DUP3 GT OR PUSH3 0x373 JUMPI DUP9 SWAP8 DUP4 DUP3 PUSH1 0xB SWAP5 PUSH1 0xE0 SWAP5 DUP15 MSTORE DUP4 MLOAD SWAP1 KECCAK256 PUSH1 0xA0 MSTORE PUSH3 0x19B DUP2 PUSH3 0x486 JUMP JUMPDEST MSTORE ADD MSTORE PUSH1 0xF SSTORE PUSH1 0xB PUSH1 0x10 SSTORE DUP1 DUP5 DUP9 MLOAD PUSH3 0x1B5 DUP2 PUSH3 0x486 JUMP JUMPDEST DUP3 DUP2 MSTORE ADD MSTORE DUP1 PUSH1 0x11 SSTORE PUSH1 0x12 SSTORE DUP1 DUP4 DUP8 MLOAD PUSH3 0x1D0 DUP2 PUSH3 0x486 JUMP JUMPDEST DUP3 DUP2 MSTORE ADD MSTORE DUP1 PUSH1 0x13 SSTORE PUSH1 0x14 SSTORE PUSH1 0x4 DUP3 DUP7 MLOAD PUSH3 0x1EC DUP2 PUSH3 0x486 JUMP JUMPDEST DUP3 DUP2 MSTORE ADD MSTORE PUSH1 0x4 PUSH1 0x15 SSTORE PUSH1 0x4 PUSH1 0x16 SSTORE PUSH1 0x5 DUP3 DUP7 MLOAD PUSH3 0x20B DUP2 PUSH3 0x486 JUMP JUMPDEST DUP3 DUP2 MSTORE ADD MSTORE PUSH1 0x5 PUSH1 0x17 SSTORE PUSH1 0x5 PUSH1 0x18 SSTORE PUSH1 0x6 DUP3 DUP7 MLOAD PUSH3 0x22A DUP2 PUSH3 0x486 JUMP JUMPDEST DUP3 DUP2 MSTORE ADD MSTORE PUSH1 0x6 PUSH1 0x19 SSTORE PUSH1 0x6 PUSH1 0x1A SSTORE DUP1 DUP3 DUP7 MLOAD PUSH3 0x248 DUP2 PUSH3 0x486 JUMP JUMPDEST DUP3 DUP2 MSTORE ADD MSTORE DUP1 PUSH1 0x1B SSTORE PUSH1 0x1C SSTORE PUSH1 0x8 DUP2 DUP6 MLOAD PUSH3 0x264 DUP2 PUSH3 0x486 JUMP JUMPDEST DUP3 DUP2 MSTORE ADD MSTORE PUSH1 0x8 PUSH1 0x1D SSTORE PUSH1 0x8 PUSH1 0x1E SSTORE PUSH1 0x9 DUP2 DUP6 MLOAD PUSH3 0x283 DUP2 PUSH3 0x486 JUMP JUMPDEST DUP3 DUP2 MSTORE ADD MSTORE PUSH1 0x9 PUSH1 0x1F SSTORE PUSH1 0x9 DUP2 SSTORE DUP2 DUP2 DUP6 MLOAD PUSH3 0x2A0 DUP2 PUSH3 0x486 JUMP JUMPDEST DUP3 DUP2 MSTORE ADD MSTORE DUP2 PUSH1 0x21 SSTORE DUP2 PUSH1 0x22 SSTORE DUP2 DUP2 DUP6 MLOAD PUSH3 0x2BC DUP2 PUSH3 0x486 JUMP JUMPDEST PUSH1 0xB DUP2 MSTORE ADD MSTORE PUSH1 0xB PUSH1 0x23 SSTORE DUP2 PUSH1 0x24 SSTORE DUP2 DUP2 DUP6 MLOAD PUSH3 0x2DA DUP2 PUSH3 0x486 JUMP JUMPDEST PUSH1 0xC DUP2 MSTORE ADD MSTORE PUSH1 0xC PUSH1 0x25 SSTORE DUP2 PUSH1 0x26 SSTORE DUP4 MLOAD PUSH3 0x2F6 DUP2 PUSH3 0x486 JUMP JUMPDEST PUSH1 0xD DUP2 MSTORE ADD MSTORE PUSH1 0xD PUSH1 0x27 SSTORE PUSH1 0x28 SSTORE MLOAD PUSH2 0x25A8 SWAP1 DUP2 PUSH3 0x4B8 DUP3 CODECOPY PUSH1 0x80 MLOAD DUP2 DUP2 DUP2 PUSH2 0x1AC ADD MSTORE DUP2 DUP2 PUSH2 0x5A4 ADD MSTORE DUP2 DUP2 PUSH2 0xBC5 ADD MSTORE DUP2 DUP2 PUSH2 0x1097 ADD MSTORE DUP2 DUP2 PUSH2 0x156C ADD MSTORE DUP2 DUP2 PUSH2 0x1653 ADD MSTORE DUP2 DUP2 PUSH2 0x17FE ADD MSTORE DUP2 DUP2 PUSH2 0x18DE ADD MSTORE PUSH2 0x190F ADD MSTORE PUSH1 0xA0 MLOAD DUP2 PUSH2 0x1FFA ADD MSTORE PUSH1 0xC0 MLOAD DUP2 DUP2 DUP2 PUSH2 0xF58 ADD MSTORE DUP2 DUP2 PUSH2 0x152C ADD MSTORE PUSH2 0x19BF ADD MSTORE RETURN JUMPDEST PUSH4 0x4E487B71 PUSH1 0xE0 SHL PUSH1 0x0 MSTORE PUSH1 0x41 PUSH1 0x4 MSTORE PUSH1 0x24 PUSH1 0x0 REVERT JUMPDEST PUSH1 0x84 DUP7 DUP11 DUP1 MLOAD SWAP2 PUSH3 0x461BCD PUSH1 0xE5 SHL DUP4 MSTORE PUSH1 0x4 DUP4 ADD MSTORE PUSH1 0x24 DUP3 ADD MSTORE PUSH1 0x0 DUP1 MLOAD PUSH1 0x20 PUSH3 0x2A60 DUP4 CODECOPY DUP2 MLOAD SWAP2 MSTORE PUSH1 0x44 DUP3 ADD MSTORE PUSH32 0x6561746572207468616E20746865206D696E696D756D206265742076616C7565 PUSH1 0x64 DUP3 ADD MSTORE REVERT JUMPDEST DUP9 MLOAD PUSH3 0x461BCD PUSH1 0xE5 SHL DUP2 MSTORE PUSH1 0x4 DUP2 ADD DUP8 SWAP1 MSTORE PUSH1 0x2C PUSH1 0x24 DUP3 ADD MSTORE PUSH32 0x546865206D696E696D756D206265742076616C7565206D757374206265206772 PUSH1 0x44 DUP3 ADD MSTORE PUSH12 0x6561746572207468616E203 PUSH1 0xA4 SHL PUSH1 0x64 DUP3 ADD MSTORE PUSH1 0x84 SWAP1 REVERT JUMPDEST DUP9 MLOAD PUSH3 0x461BCD PUSH1 0xE5 SHL DUP2 MSTORE PUSH1 0x4 DUP2 ADD DUP8 SWAP1 MSTORE PUSH1 0x2C PUSH1 0x24 DUP3 ADD MSTORE PUSH1 0x0 DUP1 MLOAD PUSH1 0x20 PUSH3 0x2A60 DUP4 CODECOPY DUP2 MLOAD SWAP2 MSTORE PUSH1 0x44 DUP3 ADD MSTORE PUSH12 0x6561746572207468616E203 PUSH1 0xA4 SHL PUSH1 0x64 DUP3 ADD MSTORE PUSH1 0x84 SWAP1 REVERT JUMPDEST PUSH1 0x0 DUP1 REVERT JUMPDEST PUSH1 0x40 DUP2 ADD SWAP1 DUP2 LT PUSH1 0x1 PUSH1 0x1 PUSH1 0x40 SHL SUB DUP3 GT OR PUSH3 0x373 JUMPI PUSH1 0x40 MSTORE JUMP JUMPDEST MLOAD SWAP1 PUSH1 0x1 PUSH1 0x1 PUSH1 0xA0 SHL SUB DUP3 AND DUP3 SUB PUSH3 0x481 JUMPI JUMP INVALID PUSH1 0x40 PUSH1 0x80 DUP2 MSTORE PUSH1 0x4 SWAP1 DUP2 CALLDATASIZE LT ISZERO PUSH2 0x15 JUMPI PUSH1 0x0 DUP1 REVERT JUMPDEST PUSH1 0x0 SWAP2 DUP3 CALLDATALOAD PUSH1 0xE0 SHR SWAP1 DUP2 PUSH4 0xCEE1725 EQ PUSH2 0xFFB JUMPI DUP2 PUSH4 0x1157B267 EQ PUSH2 0xF9A JUMPI DUP2 PUSH4 0x1617F190 EQ PUSH2 0xF7B JUMPI DUP2 PUSH4 0x1966AE49 EQ PUSH2 0xF40 JUMPI DUP2 PUSH4 0x22F0F2F9 EQ PUSH2 0xEE3 JUMPI DUP2 PUSH4 0x26782247 EQ PUSH2 0xEBB JUMPI DUP2 PUSH4 0x28FC8B68 EQ PUSH2 0xE18 JUMPI DUP2 PUSH4 0x32B031A3 EQ PUSH2 0xDB8 JUMPI DUP2 PUSH4 0x3AB0F330 EQ PUSH2 0xD99 JUMPI DUP2 PUSH4 0x452A9320 EQ PUSH2 0xD70 JUMPI DUP2 PUSH4 0x4ADDD5F6 EQ PUSH2 0xD1B JUMPI DUP2 PUSH4 0x51903BD9 EQ PUSH2 0xB35 JUMPI DUP2 PUSH4 0x677660E0 EQ PUSH2 0xA66 JUMPI DUP2 PUSH4 0x69F2941D EQ PUSH2 0xA47 JUMPI DUP2 PUSH4 0x71D00086 EQ PUSH2 0x9A1 JUMPI DUP2 PUSH4 0x753868E3 EQ PUSH2 0x941 JUMPI DUP2 PUSH4 0x762C31BA EQ PUSH2 0x918 JUMPI DUP2 PUSH4 0x847D1E90 EQ PUSH2 0x86A JUMPI DUP2 PUSH4 0x8C51D1E4 EQ PUSH2 0x7C8 JUMPI DUP2 PUSH4 0x9A138974 EQ PUSH2 0x6CB JUMPI DUP2 PUSH4 0x9D1C35E2 EQ PUSH2 0x553 JUMPI DUP2 PUSH4 0x9E090628 EQ PUSH2 0x502 JUMPI DUP2 PUSH4 0xA4E2D634 EQ PUSH2 0x4DE JUMPI DUP2 PUSH4 0xA74B6783 EQ PUSH2 0x41E JUMPI DUP2 PUSH4 0xA9860B97 EQ PUSH2 0x3FF JUMPI DUP2 PUSH4 0xBA8A305C EQ PUSH2 0x3E0 JUMPI DUP2 PUSH4 0xBFF42FE4 EQ PUSH2 0x3C1 JUMPI DUP2 PUSH4 0xDCCFAC82 EQ PUSH2 0x387 JUMPI DUP2 PUSH4 0xE065FC93 EQ PUSH2 0x2AE JUMPI POP DUP1 PUSH4 0xE1D8192C EQ PUSH2 0x290 JUMPI DUP1 PUSH4 0xED3CACC1 EQ PUSH2 0x272 JUMPI DUP1 PUSH4 0xF851A440 EQ PUSH2 0x24A JUMPI DUP1 PUSH4 0xFB49FE27 EQ PUSH2 0x1DF JUMPI PUSH4 0xFC0C546A EQ PUSH2 0x199 JUMPI PUSH1 0x0 DUP1 REVERT JUMPDEST CALLVALUE PUSH2 0x1DB JUMPI DUP2 PUSH1 0x3 NOT CALLDATASIZE ADD SLT PUSH2 0x1DB JUMPI MLOAD PUSH32 0x0 PUSH1 0x1 PUSH1 0x1 PUSH1 0xA0 SHL SUB AND DUP2 MSTORE PUSH1 0x20 SWAP1 RETURN JUMPDEST POP DUP1 REVERT JUMPDEST DUP3 CALLVALUE PUSH2 0x247 JUMPI DUP1 PUSH1 0x3 NOT CALLDATASIZE ADD SLT PUSH2 0x247 JUMPI PUSH2 0x205 PUSH1 0x1 DUP1 PUSH1 0xA0 SHL SUB PUSH1 0x3 SLOAD AND CALLER EQ PUSH2 0x1286 JUMP JUMPDEST PUSH12 0xFFFFFFFFFFFFFFFFFFFFFFFF PUSH1 0xA0 SHL PUSH1 0x6 SLOAD AND PUSH1 0x6 SSTORE DUP1 PUSH1 0x7 SSTORE PUSH32 0x7A81C642828249AE51A34CF52E35EBBF08BD3CB36FB5A4B4C8E80261893F5B81 DUP2 DUP1 LOG1 DUP1 RETURN JUMPDEST DUP1 REVERT JUMPDEST POP CALLVALUE PUSH2 0x1DB JUMPI DUP2 PUSH1 0x3 NOT CALLDATASIZE ADD SLT PUSH2 0x1DB JUMPI PUSH1 0x2 SLOAD SWAP1 MLOAD PUSH1 0x1 PUSH1 0x1 PUSH1 0xA0 SHL SUB SWAP1 SWAP2 AND DUP2 MSTORE PUSH1 0x20 SWAP1 RETURN JUMPDEST POP CALLVALUE PUSH2 0x1DB JUMPI DUP2 PUSH1 0x3 NOT CALLDATASIZE ADD SLT PUSH2 0x1DB JUMPI PUSH1 0x20 SWAP1 PUSH1 0x7 SLOAD SWAP1 MLOAD SWAP1 DUP2 MSTORE RETURN JUMPDEST POP CALLVALUE PUSH2 0x1DB JUMPI DUP2 PUSH1 0x3 NOT CALLDATASIZE ADD SLT PUSH2 0x1DB JUMPI PUSH1 0x20 SWAP1 PUSH1 0x9 SLOAD SWAP1 MLOAD SWAP1 DUP2 MSTORE RETURN JUMPDEST SWAP2 SWAP1 POP CALLVALUE PUSH2 0x383 JUMPI PUSH1 0x20 CALLDATASIZE PUSH1 0x3 NOT ADD SLT PUSH2 0x383 JUMPI DUP2 CALLDATALOAD SWAP2 PUSH2 0x2DA PUSH1 0x1 DUP1 PUSH1 0xA0 SHL SUB PUSH1 0x2 SLOAD AND CALLER EQ PUSH2 0x11F9 JUMP JUMPDEST DUP3 ISZERO PUSH2 0x335 JUMPI POP PUSH32 0xA9F6EF469A02717105903BBCE25C47A4DB6A0D759D929C5CD9BF295A7033B174 SWAP2 PUSH2 0x32F SWAP2 PUSH2 0x314 PUSH1 0xC SLOAD DUP4 GT PUSH2 0x1D77 JUMP JUMPDEST PUSH1 0xB DUP3 SWAP1 SSTORE MLOAD CALLER DUP2 MSTORE PUSH1 0x20 DUP2 ADD SWAP2 SWAP1 SWAP2 MSTORE SWAP1 DUP2 SWAP1 PUSH1 0x40 DUP3 ADD SWAP1 JUMP JUMPDEST SUB SWAP1 LOG1 DUP1 RETURN JUMPDEST PUSH1 0x20 PUSH1 0x84 SWAP3 MLOAD SWAP2 PUSH3 0x461BCD PUSH1 0xE5 SHL DUP4 MSTORE DUP3 ADD MSTORE PUSH1 0x23 PUSH1 0x24 DUP3 ADD MSTORE PUSH32 0x546865206D617869756D206265742076616C7565206772656174657220746861 PUSH1 0x44 DUP3 ADD MSTORE PUSH3 0x6E203 PUSH1 0xEC SHL PUSH1 0x64 DUP3 ADD MSTORE REVERT JUMPDEST DUP3 DUP1 REVERT JUMPDEST SWAP1 POP CALLVALUE PUSH2 0x383 JUMPI PUSH1 0x20 CALLDATASIZE PUSH1 0x3 NOT ADD SLT PUSH2 0x383 JUMPI CALLDATALOAD PUSH1 0x1 PUSH1 0x1 PUSH1 0xA0 SHL SUB DUP2 AND SWAP1 DUP2 SWAP1 SUB PUSH2 0x383 JUMPI DUP3 DUP3 SWAP2 PUSH1 0x20 SWAP5 MSTORE PUSH1 0xE DUP5 MSTORE KECCAK256 SLOAD SWAP1 MLOAD SWAP1 DUP2 MSTORE RETURN JUMPDEST POP POP CALLVALUE PUSH2 0x1DB JUMPI DUP2 PUSH1 0x3 NOT CALLDATASIZE ADD SLT PUSH2 0x1DB JUMPI PUSH1 0x20 SWAP1 PUSH1 0x5 SLOAD SWAP1 MLOAD SWAP1 DUP2 MSTORE RETURN JUMPDEST POP POP CALLVALUE PUSH2 0x1DB JUMPI DUP2 PUSH1 0x3 NOT CALLDATASIZE ADD SLT PUSH2 0x1DB JUMPI PUSH1 0x20 SWAP1 PUSH1 0xB SLOAD SWAP1 MLOAD SWAP1 DUP2 MSTORE RETURN JUMPDEST POP POP CALLVALUE PUSH2 0x1DB JUMPI DUP2 PUSH1 0x3 NOT CALLDATASIZE ADD SLT PUSH2 0x1DB JUMPI PUSH1 0x20 SWAP1 PUSH1 0xA SLOAD SWAP1 MLOAD SWAP1 DUP2 MSTORE RETURN JUMPDEST DUP4 DUP4 CALLVALUE PUSH2 0x1DB JUMPI DUP2 PUSH1 0x3 NOT CALLDATASIZE ADD SLT PUSH2 0x1DB JUMPI PUSH1 0x2 SLOAD PUSH1 0x1 PUSH1 0x1 PUSH1 0xA0 SHL SUB SWAP2 SWAP1 PUSH2 0x44A CALLER DUP5 DUP4 AND EQ PUSH2 0x11F9 JUMP JUMPDEST DUP5 SLOAD SWAP3 DUP4 AND SWAP3 PUSH2 0x45B DUP5 ISZERO ISZERO PUSH2 0x1EDD JUMP JUMPDEST PUSH1 0x5 SLOAD PUSH2 0x469 DUP2 ISZERO ISZERO PUSH2 0x1EDD JUMP JUMPDEST PUSH3 0x3F480 DUP2 ADD DUP1 SWAP2 GT PUSH2 0x4CB JUMPI PUSH32 0x7CE7EC0B50378FB6C0186FFB5F48325F6593FCB4CA4386F21861AF3129188F5C SWAP5 SWAP3 PUSH1 0x20 SWAP5 SWAP3 PUSH2 0x4AA DUP10 SWAP4 TIMESTAMP LT ISZERO PUSH2 0x1E2A JUMP JUMPDEST PUSH1 0x1 PUSH1 0x1 PUSH1 0xA0 SHL SUB NOT SWAP2 DUP3 AND DUP6 OR PUSH1 0x2 SSTORE AND SWAP1 SSTORE PUSH1 0x5 DUP6 SWAP1 SSTORE MLOAD SWAP1 DUP2 MSTORE LOG1 DUP1 RETURN JUMPDEST PUSH4 0x4E487B71 PUSH1 0xE0 SHL DUP7 MSTORE PUSH1 0x11 DUP8 MSTORE PUSH1 0x24 DUP7 REVERT JUMPDEST POP POP CALLVALUE PUSH2 0x1DB JUMPI DUP2 PUSH1 0x3 NOT CALLDATASIZE ADD SLT PUSH2 0x1DB JUMPI PUSH1 0x20 SWAP1 PUSH1 0xFF PUSH1 0xD SLOAD AND SWAP1 MLOAD SWAP1 ISZERO ISZERO DUP2 MSTORE RETURN JUMPDEST DUP4 CALLVALUE PUSH2 0x247 JUMPI DUP1 PUSH1 0x3 NOT CALLDATASIZE ADD SLT PUSH2 0x247 JUMPI PUSH2 0x528 PUSH1 0x1 DUP1 PUSH1 0xA0 SHL SUB PUSH1 0x3 SLOAD AND CALLER EQ PUSH2 0x1286 JUMP JUMPDEST DUP1 PUSH1 0x8 SSTORE PUSH32 0x94A9B8FB6E694C6C0FBEE0E13E1C5B9AE2DDA4395E3495228A46DC717617C6FA DUP2 DUP1 LOG1 DUP1 RETURN JUMPDEST DUP4 SWAP2 POP CALLVALUE PUSH2 0x1DB JUMPI DUP2 PUSH1 0x3 NOT CALLDATASIZE ADD SLT PUSH2 0x1DB JUMPI PUSH1 0x2 SLOAD PUSH1 0x1 PUSH1 0x1 PUSH1 0xA0 SHL SUB SWAP2 SWAP1 PUSH2 0x580 SWAP1 DUP4 AND CALLER EQ PUSH2 0x11F9 JUMP JUMPDEST PUSH1 0x8 SLOAD PUSH2 0x67E JUMPI DUP4 MLOAD DUP1 SWAP3 PUSH4 0x70A08231 PUSH1 0xE0 SHL DUP3 MSTORE ADDRESS DUP4 DUP4 ADD MSTORE DUP2 PUSH1 0x24 PUSH1 0x20 SWAP6 DUP7 SWAP4 PUSH32 0x0 AND GAS STATICCALL SWAP1 DUP2 ISZERO PUSH2 0x674 JUMPI DUP5 SWAP2 PUSH2 0x643 JUMPI JUMPDEST POP ISZERO PUSH2 0x60A JUMPI POP PUSH32 0xE20350BD5FF90B7BDBCB8229CF46C222A5F5B18F094A1AC5962451445FDA1076 SWAP2 SWAP3 TIMESTAMP PUSH1 0x8 SSTORE MLOAD TIMESTAMP DUP2 MSTORE LOG1 DUP1 RETURN JUMPDEST PUSH1 0x64 SWAP2 DUP5 MLOAD SWAP2 PUSH3 0x461BCD PUSH1 0xE5 SHL DUP4 MSTORE DUP3 ADD MSTORE PUSH1 0x15 PUSH1 0x24 DUP3 ADD MSTORE PUSH21 0x4E6F20746F6B656E7320746F207769746864726177 PUSH1 0x58 SHL PUSH1 0x44 DUP3 ADD MSTORE REVERT JUMPDEST SWAP1 POP DUP3 DUP2 DUP2 RETURNDATASIZE DUP4 GT PUSH2 0x66D JUMPI JUMPDEST PUSH2 0x65A DUP2 DUP4 PUSH2 0x13A3 JUMP JUMPDEST DUP2 ADD SUB SLT PUSH2 0x669 JUMPI MLOAD DUP6 PUSH2 0x5D4 JUMP JUMPDEST DUP4 DUP1 REVERT JUMPDEST POP RETURNDATASIZE PUSH2 0x650 JUMP JUMPDEST DUP6 MLOAD RETURNDATASIZE DUP7 DUP3 RETURNDATACOPY RETURNDATASIZE SWAP1 REVERT JUMPDEST PUSH1 0x84 SWAP1 PUSH1 0x20 DUP6 MLOAD SWAP2 PUSH3 0x461BCD PUSH1 0xE5 SHL DUP4 MSTORE DUP3 ADD MSTORE PUSH1 0x21 PUSH1 0x24 DUP3 ADD MSTORE PUSH32 0x5769746864726177616C207265717565737420697320696E2070726F67726573 PUSH1 0x44 DUP3 ADD MSTORE PUSH1 0x73 PUSH1 0xF8 SHL PUSH1 0x64 DUP3 ADD MSTORE REVERT JUMPDEST SWAP2 SWAP1 POP CALLVALUE PUSH2 0x383 JUMPI DUP3 PUSH1 0x3 NOT CALLDATASIZE ADD SLT PUSH2 0x383 JUMPI PUSH2 0x6F3 PUSH1 0x1 DUP1 PUSH1 0xA0 SHL SUB PUSH1 0x2 SLOAD AND CALLER EQ PUSH2 0x11F9 JUMP JUMPDEST PUSH1 0x9 SLOAD SWAP2 PUSH2 0x702 DUP4 ISZERO ISZERO PUSH2 0x1E87 JUMP JUMPDEST PUSH1 0xA SLOAD PUSH2 0x710 DUP2 ISZERO ISZERO PUSH2 0x1E87 JUMP JUMPDEST PUSH3 0x3F480 DUP2 ADD DUP1 SWAP2 GT PUSH2 0x7B5 JUMPI TIMESTAMP LT PUSH2 0x75D JUMPI POP DUP2 PUSH1 0x20 SWAP2 PUSH32 0x9DC86596CA5F70A96C96B2CB0BE04F02B7DA0A6261F97D43CEBCC921020B1925 SWAP4 PUSH1 0x1 SSTORE DUP5 PUSH1 0x9 SSTORE DUP5 PUSH1 0xA SSTORE MLOAD SWAP1 DUP2 MSTORE LOG1 DUP1 RETURN JUMPDEST PUSH1 0x20 PUSH1 0x84 SWAP3 MLOAD SWAP2 PUSH3 0x461BCD PUSH1 0xE5 SHL DUP4 MSTORE DUP3 ADD MSTORE PUSH1 0x2D PUSH1 0x24 DUP3 ADD MSTORE PUSH32 0x4D75737420776169742033206461797320746F20636F6E6669726D2073656564 PUSH1 0x44 DUP3 ADD MSTORE PUSH13 0x207265656C73206368616E6765 PUSH1 0x98 SHL PUSH1 0x64 DUP3 ADD MSTORE REVERT JUMPDEST PUSH4 0x4E487B71 PUSH1 0xE0 SHL DUP6 MSTORE PUSH1 0x11 DUP3 MSTORE PUSH1 0x24 DUP6 REVERT JUMPDEST SWAP2 SWAP1 POP CALLVALUE PUSH2 0x383 JUMPI PUSH1 0x20 CALLDATASIZE PUSH1 0x3 NOT ADD SLT PUSH2 0x383 JUMPI DUP2 CALLDATALOAD PUSH1 0x1 PUSH1 0x1 PUSH1 0xA0 SHL SUB DUP2 DUP2 AND SWAP4 SWAP1 SWAP3 SWAP1 DUP5 DUP4 SUB PUSH2 0x866 JUMPI PUSH32 0x72B357B8C271031AAD940E03E51F8C172B495A1DD60D6E902D339C7F49604102 SWAP5 PUSH2 0x828 PUSH2 0x32F SWAP6 PUSH1 0x2 SLOAD AND CALLER EQ PUSH2 0x11F9 JUMP JUMPDEST PUSH2 0x833 DUP2 ISZERO ISZERO PUSH2 0x12D2 JUMP JUMPDEST DUP2 SLOAD PUSH1 0x1 PUSH1 0x1 PUSH1 0xA0 SHL SUB NOT AND OR SWAP1 SSTORE TIMESTAMP PUSH1 0x5 DUP2 SWAP1 SSTORE SWAP1 MLOAD PUSH1 0x1 PUSH1 0x1 PUSH1 0xA0 SHL SUB SWAP1 SWAP3 AND DUP3 MSTORE PUSH1 0x20 DUP3 ADD MSTORE SWAP1 DUP2 SWAP1 PUSH1 0x40 DUP3 ADD SWAP1 JUMP JUMPDEST DUP6 DUP1 REVERT JUMPDEST DUP4 DUP4 CALLVALUE PUSH2 0x1DB JUMPI DUP2 PUSH1 0x3 NOT CALLDATASIZE ADD SLT PUSH2 0x1DB JUMPI PUSH1 0x3 SLOAD PUSH1 0x1 PUSH1 0x1 PUSH1 0xA0 SHL SUB SWAP2 SWAP1 PUSH2 0x896 CALLER DUP5 DUP4 AND EQ PUSH2 0x1286 JUMP JUMPDEST PUSH1 0x6 SLOAD SWAP3 DUP4 AND SWAP3 PUSH2 0x8A8 DUP5 ISZERO ISZERO PUSH2 0x1DDE JUMP JUMPDEST PUSH1 0x7 SLOAD PUSH2 0x8B6 DUP2 ISZERO ISZERO PUSH2 0x1DDE JUMP JUMPDEST PUSH3 0x3F480 DUP2 ADD DUP1 SWAP2 GT PUSH2 0x4CB JUMPI SWAP2 PUSH1 0x20 SWAP4 SWAP2 PUSH2 0x8F6 PUSH32 0x1C6520CF747E4632B43B535B91AFE3950CCABC4AB29BBD89E3C1F6B0BA05655 SWAP7 SWAP5 TIMESTAMP LT ISZERO PUSH2 0x1E2A JUMP JUMPDEST PUSH1 0x1 PUSH1 0x1 PUSH1 0xA0 SHL SUB NOT SWAP2 DUP3 AND DUP5 OR PUSH1 0x3 SSTORE AND PUSH1 0x6 SSTORE PUSH1 0x7 DUP6 SWAP1 SSTORE MLOAD SWAP1 DUP2 MSTORE LOG1 DUP1 RETURN JUMPDEST POP POP CALLVALUE PUSH2 0x1DB JUMPI DUP2 PUSH1 0x3 NOT CALLDATASIZE ADD SLT PUSH2 0x1DB JUMPI PUSH1 0x6 SLOAD SWAP1 MLOAD PUSH1 0x1 PUSH1 0x1 PUSH1 0xA0 SHL SUB SWAP1 SWAP2 AND DUP2 MSTORE PUSH1 0x20 SWAP1 RETURN JUMPDEST POP POP CALLVALUE PUSH2 0x1DB JUMPI DUP2 PUSH1 0x3 NOT CALLDATASIZE ADD SLT PUSH2 0x1DB JUMPI PUSH1 0x20 PUSH32 0x46A289A85516D6B63CEC7F685E3F5398070F9FC5FB8E3D14021ADD023FEC568F SWAP2 PUSH2 0x98C PUSH1 0x1 DUP1 PUSH1 0xA0 SHL SUB PUSH1 0x3 SLOAD AND CALLER EQ PUSH2 0x1286 JUMP JUMPDEST PUSH1 0x1 PUSH1 0xFF NOT PUSH1 0xD SLOAD AND OR PUSH1 0xD SSTORE MLOAD CALLER DUP2 MSTORE LOG1 DUP1 RETURN JUMPDEST SWAP2 SWAP1 POP CALLVALUE PUSH2 0x383 JUMPI PUSH1 0x20 CALLDATASIZE PUSH1 0x3 NOT ADD SLT PUSH2 0x383 JUMPI DUP2 CALLDATALOAD SWAP2 PUSH2 0x9CD PUSH1 0x1 DUP1 PUSH1 0xA0 SHL SUB PUSH1 0x2 SLOAD AND CALLER EQ PUSH2 0x11F9 JUMP JUMPDEST PUSH1 0x32 DUP4 LT ISZERO PUSH2 0xA0C JUMPI POP DUP2 PUSH1 0x20 SWAP2 PUSH32 0x9B161A37C93B297FE93D8F6F47F959BB91BD34A421B3892B0C91674CE107FB24 SWAP4 PUSH1 0x9 SSTORE TIMESTAMP PUSH1 0xA SSTORE MLOAD SWAP1 DUP2 MSTORE LOG1 DUP1 RETURN JUMPDEST PUSH1 0x20 PUSH1 0x64 SWAP3 MLOAD SWAP2 PUSH3 0x461BCD PUSH1 0xE5 SHL DUP4 MSTORE DUP3 ADD MSTORE PUSH1 0x16 PUSH1 0x24 DUP3 ADD MSTORE PUSH22 0x496E76616C69642077696E50726F626162696C697479 PUSH1 0x50 SHL PUSH1 0x44 DUP3 ADD MSTORE REVERT JUMPDEST POP POP CALLVALUE PUSH2 0x1DB JUMPI DUP2 PUSH1 0x3 NOT CALLDATASIZE ADD SLT PUSH2 0x1DB JUMPI PUSH1 0x20 SWAP1 PUSH1 0x1 SLOAD SWAP1 MLOAD SWAP1 DUP2 MSTORE RETURN JUMPDEST SWAP2 SWAP1 POP CALLVALUE PUSH2 0x383 JUMPI PUSH1 0x20 CALLDATASIZE PUSH1 0x3 NOT ADD SLT PUSH2 0x383 JUMPI DUP2 CALLDATALOAD SWAP2 PUSH2 0xA92 PUSH1 0x1 DUP1 PUSH1 0xA0 SHL SUB PUSH1 0x2 SLOAD AND CALLER EQ PUSH2 0x11F9 JUMP JUMPDEST DUP3 ISZERO PUSH2 0xAE7 JUMPI POP DUP2 PUSH2 0x32F SWAP2 PUSH2 0xACC PUSH32 0x96FD935283EBE139EFF1231BA7E60B91334B7E1E1C67C91C68B58F8D4A7B211F SWAP5 PUSH1 0xB SLOAD GT PUSH2 0x1D77 JUMP JUMPDEST PUSH1 0xC DUP3 SWAP1 SSTORE MLOAD CALLER DUP2 MSTORE PUSH1 0x20 DUP2 ADD SWAP2 SWAP1 SWAP2 MSTORE SWAP1 DUP2 SWAP1 PUSH1 0x40 DUP3 ADD SWAP1 JUMP JUMPDEST PUSH1 0x20 PUSH1 0x84 SWAP3 MLOAD SWAP2 PUSH3 0x461BCD PUSH1 0xE5 SHL DUP4 MSTORE DUP3 ADD MSTORE PUSH1 0x23 PUSH1 0x24 DUP3 ADD MSTORE PUSH32 0x546865206D696E69756D206265742076616C7565206772656174657220746861 PUSH1 0x44 DUP3 ADD MSTORE PUSH3 0x6E203 PUSH1 0xEC SHL PUSH1 0x64 DUP3 ADD MSTORE REVERT JUMPDEST DUP4 DUP4 CALLVALUE PUSH2 0x1DB JUMPI DUP1 PUSH1 0x3 NOT CALLDATASIZE ADD SLT PUSH2 0x1DB JUMPI DUP3 CALLDATALOAD SWAP1 PUSH1 0x24 CALLDATALOAD PUSH8 0xFFFFFFFFFFFFFFFF DUP2 GT PUSH2 0x669 JUMPI PUSH2 0xB69 SWAP1 CALLDATASIZE SWAP1 DUP7 ADD PUSH2 0x11C6 JUMP JUMPDEST PUSH2 0xB78 PUSH1 0xFF PUSH1 0xD SLOAD AND ISZERO PUSH2 0x1245 JUMP JUMPDEST PUSH2 0xB84 DUP5 TIMESTAMP LT ISZERO PUSH2 0x13C5 JUMP JUMPDEST PUSH1 0x3C DUP5 ADD DUP1 DUP6 GT PUSH2 0x4CB JUMPI PUSH2 0xB9B SWAP1 TIMESTAMP GT ISZERO PUSH2 0x1411 JUMP JUMPDEST CALLER DUP6 MSTORE PUSH1 0x20 SWAP2 PUSH1 0xE DUP4 MSTORE PUSH2 0xBB3 DUP5 DUP8 KECCAK256 SLOAD DUP7 GT PUSH2 0x1451 JUMP JUMPDEST DUP4 MLOAD PUSH4 0x313CE567 PUSH1 0xE0 SHL DUP2 MSTORE DUP4 DUP2 DUP10 DUP2 PUSH32 0x0 PUSH1 0x1 PUSH1 0x1 PUSH1 0xA0 SHL SUB AND GAS STATICCALL DUP1 ISZERO PUSH2 0xD11 JUMPI DUP8 SWAP1 PUSH2 0xCD5 JUMPI JUMPDEST PUSH1 0xFF SWAP2 POP AND PUSH1 0x4D DUP2 GT PUSH2 0xCC2 JUMPI PUSH2 0xC58 DUP6 SWAP4 PUSH32 0xE62B3B98DEEFD8F43CF76A15E0C191FA45E18BC954D5EC8A1E36C8BAEEC616AB SWAP8 SWAP6 SWAP4 PUSH2 0xC5D SWAP4 PUSH1 0x60 SWAP9 MLOAD SWAP1 PUSH2 0xC44 DUP3 PUSH2 0x1339 JUMP JUMPDEST CALLER DUP3 MSTORE PUSH1 0xA EXP DUP7 DUP3 ADD MSTORE DUP8 DUP8 DUP3 ADD MSTORE PUSH2 0x1F88 JUMP JUMPDEST PUSH2 0x149D JUMP JUMPDEST CALLER DUP7 MSTORE PUSH1 0xE DUP2 MSTORE DUP3 DUP3 DUP8 KECCAK256 SSTORE PUSH2 0xC7B PUSH2 0xC75 DUP5 PUSH2 0x2173 JUMP JUMPDEST SWAP4 PUSH2 0x20B4 JUMP JUMPDEST DUP3 MLOAD PUSH2 0xC86 DUP2 PUSH2 0x136B JUMP JUMPDEST DUP5 DUP2 MSTORE PUSH1 0x2 DUP4 DUP1 DUP4 ADD DUP5 DUP2 MSTORE CALLER DUP12 MSTORE PUSH1 0x29 DUP3 MSTORE DUP7 DUP12 KECCAK256 SWAP4 MLOAD DUP5 SSTORE MLOAD DUP1 MLOAD PUSH1 0x1 DUP6 ADD SSTORE ADD MLOAD SWAP2 ADD SSTORE DUP3 MLOAD SWAP4 DUP5 MSTORE DUP1 MLOAD DUP3 DUP6 ADD MSTORE ADD MLOAD SWAP1 DUP3 ADD MSTORE LOG1 DUP1 RETURN JUMPDEST PUSH4 0x4E487B71 PUSH1 0xE0 SHL DUP8 MSTORE PUSH1 0x11 DUP9 MSTORE PUSH1 0x24 DUP8 REVERT JUMPDEST POP DUP4 DUP2 DUP2 RETURNDATASIZE DUP4 GT PUSH2 0xD0A JUMPI JUMPDEST PUSH2 0xCEB DUP2 DUP4 PUSH2 0x13A3 JUMP JUMPDEST DUP2 ADD SUB SLT PUSH2 0xD06 JUMPI MLOAD PUSH1 0xFF DUP2 AND DUP2 SUB PUSH2 0xD06 JUMPI PUSH1 0xFF SWAP1 PUSH2 0xBFC JUMP JUMPDEST DUP7 DUP1 REVERT JUMPDEST POP RETURNDATASIZE PUSH2 0xCE1 JUMP JUMPDEST DUP6 MLOAD RETURNDATASIZE DUP10 DUP3 RETURNDATACOPY RETURNDATASIZE SWAP1 REVERT JUMPDEST DUP4 CALLVALUE PUSH2 0x247 JUMPI DUP1 PUSH1 0x3 NOT CALLDATASIZE ADD SLT PUSH2 0x247 JUMPI PUSH2 0xD41 PUSH1 0x1 DUP1 PUSH1 0xA0 SHL SUB PUSH1 0x2 SLOAD AND CALLER EQ PUSH2 0x11F9 JUMP JUMPDEST DUP1 PUSH1 0x9 SSTORE DUP1 PUSH1 0xA SSTORE PUSH32 0x9EF48CACEFE12AB0A801D57BC51BEB3A36523278E29346ED7824936443456502 DUP2 DUP1 LOG1 DUP1 RETURN JUMPDEST POP POP CALLVALUE PUSH2 0x1DB JUMPI DUP2 PUSH1 0x3 NOT CALLDATASIZE ADD SLT PUSH2 0x1DB JUMPI PUSH1 0x3 SLOAD SWAP1 MLOAD PUSH1 0x1 PUSH1 0x1 PUSH1 0xA0 SHL SUB SWAP1 SWAP2 AND DUP2 MSTORE PUSH1 0x20 SWAP1 RETURN JUMPDEST POP POP CALLVALUE PUSH2 0x1DB JUMPI DUP2 PUSH1 0x3 NOT CALLDATASIZE ADD SLT PUSH2 0x1DB JUMPI PUSH1 0x20 SWAP1 PUSH1 0x8 SLOAD SWAP1 MLOAD SWAP1 DUP2 MSTORE RETURN JUMPDEST DUP4 SWAP1 PUSH1 0xA0 CALLDATASIZE PUSH1 0x3 NOT ADD SLT PUSH2 0x1DB JUMPI PUSH1 0x24 CALLDATALOAD PUSH1 0x2 DUP2 LT ISZERO PUSH2 0x383 JUMPI PUSH1 0x84 CALLDATALOAD SWAP2 PUSH8 0xFFFFFFFFFFFFFFFF DUP4 GT PUSH2 0x669 JUMPI PUSH2 0xDF5 PUSH2 0xE15 SWAP4 CALLDATASIZE SWAP1 DUP4 ADD PUSH2 0x11C6 JUMP JUMPDEST SWAP3 SWAP1 SWAP2 PUSH2 0xE07 PUSH1 0xFF PUSH1 0xD SLOAD AND ISZERO PUSH2 0x1245 JUMP JUMPDEST PUSH1 0x64 CALLDATALOAD SWAP2 PUSH1 0x44 CALLDATALOAD SWAP2 CALLDATALOAD PUSH2 0x14FB JUMP JUMPDEST DUP1 RETURN JUMPDEST SWAP1 POP CALLVALUE PUSH2 0x383 JUMPI PUSH1 0x20 CALLDATASIZE PUSH1 0x3 NOT ADD SLT PUSH2 0x383 JUMPI PUSH1 0x1 PUSH1 0x1 PUSH1 0xA0 SHL SUB SWAP1 CALLDATALOAD DUP2 DUP2 AND SWAP3 DUP4 DUP3 SUB PUSH2 0xEB7 JUMPI PUSH32 0x6C437B1584202B77482374DD2215B75E975B0BE0768B92ED5E4B048B0E109879 SWAP4 PUSH2 0xE74 PUSH2 0x32F SWAP5 PUSH1 0x3 SLOAD AND CALLER EQ PUSH2 0x1286 JUMP JUMPDEST PUSH2 0xE7F DUP2 ISZERO ISZERO PUSH2 0x12D2 JUMP JUMPDEST PUSH1 0x6 DUP1 SLOAD PUSH1 0x1 PUSH1 0x1 PUSH1 0xA0 SHL SUB NOT AND SWAP2 SWAP1 SWAP2 OR SWAP1 SSTORE TIMESTAMP PUSH1 0x7 DUP2 SWAP1 SSTORE SWAP1 MLOAD PUSH1 0x1 PUSH1 0x1 PUSH1 0xA0 SHL SUB SWAP1 SWAP3 AND DUP3 MSTORE PUSH1 0x20 DUP3 ADD MSTORE SWAP1 DUP2 SWAP1 PUSH1 0x40 DUP3 ADD SWAP1 JUMP JUMPDEST DUP5 DUP1 REVERT JUMPDEST SWAP1 POP CALLVALUE PUSH2 0x383 JUMPI DUP3 PUSH1 0x3 NOT CALLDATASIZE ADD SLT PUSH2 0x383 JUMPI SLOAD SWAP1 MLOAD PUSH1 0x1 PUSH1 0x1 PUSH1 0xA0 SHL SUB SWAP1 SWAP2 AND DUP2 MSTORE PUSH1 0x20 SWAP2 POP RETURN JUMPDEST POP POP CALLVALUE PUSH2 0x1DB JUMPI DUP2 PUSH1 0x3 NOT CALLDATASIZE ADD SLT PUSH2 0x1DB JUMPI PUSH1 0x20 PUSH32 0xF08396B9FD122C2EF99AEC183D994D39FA54CC25773E4B8A6ED20AD08AEF02C9 SWAP2 PUSH2 0xF2E PUSH1 0x1 DUP1 PUSH1 0xA0 SHL SUB PUSH1 0x3 SLOAD AND CALLER EQ PUSH2 0x1286 JUMP JUMPDEST PUSH1 0xFF NOT PUSH1 0xD SLOAD AND PUSH1 0xD SSTORE MLOAD CALLER DUP2 MSTORE LOG1 DUP1 RETURN JUMPDEST POP POP CALLVALUE PUSH2 0x1DB JUMPI DUP2 PUSH1 0x3 NOT CALLDATASIZE ADD SLT PUSH2 0x1DB JUMPI PUSH1 0x20 SWAP1 MLOAD PUSH32 0x0 DUP2 MSTORE RETURN JUMPDEST POP POP CALLVALUE PUSH2 0x1DB JUMPI DUP2 PUSH1 0x3 NOT CALLDATASIZE ADD SLT PUSH2 0x1DB JUMPI PUSH1 0x20 SWAP1 PUSH1 0xC SLOAD SWAP1 MLOAD SWAP1 DUP2 MSTORE RETURN JUMPDEST DUP4 SWAP1 CALLVALUE PUSH2 0x1DB JUMPI DUP2 PUSH1 0x3 NOT CALLDATASIZE ADD SLT PUSH2 0x1DB JUMPI PUSH2 0xFC1 PUSH1 0x1 DUP1 PUSH1 0xA0 SHL SUB PUSH1 0x3 SLOAD AND CALLER EQ PUSH2 0x1286 JUMP JUMPDEST DUP1 SLOAD PUSH1 0x1 PUSH1 0x1 PUSH1 0xA0 SHL SUB NOT AND SWAP1 SSTORE PUSH1 0x5 DUP2 SWAP1 SSTORE PUSH32 0x7AD662E4DB36FE46EE1697376F8457B103123C200DE262CA4BAF9F5CAD0A1E8 DUP2 DUP1 LOG1 DUP1 RETURN JUMPDEST DUP4 SWAP2 POP CALLVALUE PUSH2 0x1DB JUMPI PUSH1 0x20 CALLDATASIZE PUSH1 0x3 NOT ADD SLT PUSH2 0x1DB JUMPI PUSH1 0x2 SLOAD DUP2 CALLDATALOAD SWAP2 PUSH1 0x1 PUSH1 0x1 PUSH1 0xA0 SHL SUB SWAP2 DUP3 AND SWAP1 PUSH2 0x102C CALLER DUP4 EQ PUSH2 0x11F9 JUMP JUMPDEST PUSH1 0x2 DUP6 SLOAD EQ PUSH2 0x1183 JUMPI PUSH1 0x2 DUP6 SSTORE PUSH2 0x1048 PUSH1 0xFF PUSH1 0xD SLOAD AND ISZERO PUSH2 0x1245 JUMP JUMPDEST PUSH1 0x8 SLOAD DUP1 ISZERO PUSH2 0x114A JUMPI PUSH3 0x93A80 DUP2 ADD DUP1 SWAP2 GT PUSH2 0x1137 JUMPI TIMESTAMP LT PUSH2 0x10E9 JUMPI POP DUP4 SWAP5 SWAP2 PUSH2 0x10BB DUP5 PUSH2 0x10DF SWAP4 PUSH32 0x9AD672D4E7C4892DA934D1051932EBE9EC4B6EC8C3F40D569176DB3E93E5ABE SWAP8 PUSH1 0x8 SSTORE PUSH32 0x0 PUSH2 0x1F29 JUMP JUMPDEST PUSH1 0x2 SLOAD SWAP3 MLOAD SWAP3 AND PUSH1 0x1 PUSH1 0x1 PUSH1 0xA0 SHL SUB AND DUP3 MSTORE PUSH1 0x20 DUP3 ADD SWAP3 SWAP1 SWAP3 MSTORE SWAP1 DUP2 SWAP1 PUSH1 0x40 DUP3 ADD SWAP1 JUMP JUMPDEST SUB SWAP1 LOG1 PUSH1 0x1 DUP2 SSTORE DUP1 RETURN JUMPDEST PUSH1 0x84 SWAP1 PUSH1 0x20 DUP8 MLOAD SWAP2 PUSH3 0x461BCD PUSH1 0xE5 SHL DUP4 MSTORE DUP3 ADD MSTORE PUSH1 0x22 PUSH1 0x24 DUP3 ADD MSTORE PUSH32 0x4D75737420776169742037206461797320746F2077697468647261772066756E PUSH1 0x44 DUP3 ADD MSTORE PUSH2 0x6473 PUSH1 0xF0 SHL PUSH1 0x64 DUP3 ADD MSTORE REVERT JUMPDEST PUSH4 0x4E487B71 PUSH1 0xE0 SHL DUP7 MSTORE PUSH1 0x11 DUP3 MSTORE PUSH1 0x24 DUP7 REVERT JUMPDEST DUP7 MLOAD PUSH3 0x461BCD PUSH1 0xE5 SHL DUP2 MSTORE PUSH1 0x20 DUP2 DUP5 ADD MSTORE PUSH1 0x13 PUSH1 0x24 DUP3 ADD MSTORE PUSH19 0x4E6F2070656E64696E67207769746864726177 PUSH1 0x68 SHL PUSH1 0x44 DUP3 ADD MSTORE PUSH1 0x64 SWAP1 REVERT JUMPDEST PUSH1 0x64 SWAP1 PUSH1 0x20 DUP8 MLOAD SWAP2 PUSH3 0x461BCD PUSH1 0xE5 SHL DUP4 MSTORE DUP3 ADD MSTORE PUSH1 0x1F PUSH1 0x24 DUP3 ADD MSTORE PUSH32 0x5265656E7472616E637947756172643A207265656E7472616E742063616C6C00 PUSH1 0x44 DUP3 ADD MSTORE REVERT JUMPDEST SWAP2 DUP2 PUSH1 0x1F DUP5 ADD SLT ISZERO PUSH2 0x11F4 JUMPI DUP3 CALLDATALOAD SWAP2 PUSH8 0xFFFFFFFFFFFFFFFF DUP4 GT PUSH2 0x11F4 JUMPI PUSH1 0x20 DUP4 DUP2 DUP7 ADD SWAP6 ADD ADD GT PUSH2 0x11F4 JUMPI JUMP JUMPDEST PUSH1 0x0 DUP1 REVERT JUMPDEST ISZERO PUSH2 0x1200 JUMPI JUMP JUMPDEST PUSH1 0x40 MLOAD PUSH3 0x461BCD PUSH1 0xE5 SHL DUP2 MSTORE PUSH1 0x20 PUSH1 0x4 DUP3 ADD MSTORE PUSH1 0x1B PUSH1 0x24 DUP3 ADD MSTORE PUSH32 0x4F6E6C792061646D696E2063616E206578656375746520746869730000000000 PUSH1 0x44 DUP3 ADD MSTORE PUSH1 0x64 SWAP1 REVERT JUMPDEST ISZERO PUSH2 0x124C JUMPI JUMP JUMPDEST PUSH1 0x40 MLOAD PUSH3 0x461BCD PUSH1 0xE5 SHL DUP2 MSTORE PUSH1 0x20 PUSH1 0x4 DUP3 ADD MSTORE PUSH1 0x12 PUSH1 0x24 DUP3 ADD MSTORE PUSH18 0x10DBDB9D1C9858DD081A5CC81B1BD8DAD959 PUSH1 0x72 SHL PUSH1 0x44 DUP3 ADD MSTORE PUSH1 0x64 SWAP1 REVERT JUMPDEST ISZERO PUSH2 0x128D JUMPI JUMP JUMPDEST PUSH1 0x40 MLOAD PUSH3 0x461BCD PUSH1 0xE5 SHL DUP2 MSTORE PUSH1 0x20 PUSH1 0x4 DUP3 ADD MSTORE PUSH1 0x1E PUSH1 0x24 DUP3 ADD MSTORE PUSH32 0x4F6E6C7920677561726469616E2063616E206578656375746520746869730000 PUSH1 0x44 DUP3 ADD MSTORE PUSH1 0x64 SWAP1 REVERT JUMPDEST ISZERO PUSH2 0x12D9 JUMPI JUMP JUMPDEST PUSH1 0x40 MLOAD PUSH3 0x461BCD PUSH1 0xE5 SHL DUP2 MSTORE PUSH1 0x20 PUSH1 0x4 DUP3 ADD MSTORE PUSH1 0xF PUSH1 0x24 DUP3 ADD MSTORE PUSH15 0x496E76616C69642061646472657373 PUSH1 0x88 SHL PUSH1 0x44 DUP3 ADD MSTORE PUSH1 0x64 SWAP1 REVERT JUMPDEST DUP2 DUP2 MUL SWAP3 SWAP2 DUP2 ISZERO SWAP2 DUP5 DIV EQ OR ISZERO PUSH2 0x1323 JUMPI JUMP JUMPDEST PUSH4 0x4E487B71 PUSH1 0xE0 SHL PUSH1 0x0 MSTORE PUSH1 0x11 PUSH1 0x4 MSTORE PUSH1 0x24 PUSH1 0x0 REVERT JUMPDEST PUSH1 0x60 DUP2 ADD SWAP1 DUP2 LT PUSH8 0xFFFFFFFFFFFFFFFF DUP3 GT OR PUSH2 0x1355 JUMPI PUSH1 0x40 MSTORE JUMP JUMPDEST PUSH4 0x4E487B71 PUSH1 0xE0 SHL PUSH1 0x0 MSTORE PUSH1 0x41 PUSH1 0x4 MSTORE PUSH1 0x24 PUSH1 0x0 REVERT JUMPDEST PUSH1 0x40 DUP2 ADD SWAP1 DUP2 LT PUSH8 0xFFFFFFFFFFFFFFFF DUP3 GT OR PUSH2 0x1355 JUMPI PUSH1 0x40 MSTORE JUMP JUMPDEST PUSH1 0xA0 DUP2 ADD SWAP1 DUP2 LT PUSH8 0xFFFFFFFFFFFFFFFF DUP3 GT OR PUSH2 0x1355 JUMPI PUSH1 0x40 MSTORE JUMP JUMPDEST SWAP1 PUSH1 0x1F DUP1 NOT SWAP2 ADD AND DUP2 ADD SWAP1 DUP2 LT PUSH8 0xFFFFFFFFFFFFFFFF DUP3 GT OR PUSH2 0x1355 JUMPI PUSH1 0x40 MSTORE JUMP JUMPDEST ISZERO PUSH2 0x13CC JUMPI JUMP JUMPDEST PUSH1 0x40 MLOAD PUSH3 0x461BCD PUSH1 0xE5 SHL DUP2 MSTORE PUSH1 0x20 PUSH1 0x4 DUP3 ADD MSTORE PUSH1 0x19 PUSH1 0x24 DUP3 ADD MSTORE PUSH32 0x54696D657374616D702066726F6D207468652066757475726500000000000000 PUSH1 0x44 DUP3 ADD MSTORE PUSH1 0x64 SWAP1 REVERT JUMPDEST ISZERO PUSH2 0x1418 JUMPI JUMP JUMPDEST PUSH1 0x40 MLOAD PUSH3 0x461BCD PUSH1 0xE5 SHL DUP2 MSTORE PUSH1 0x20 PUSH1 0x4 DUP3 ADD MSTORE PUSH1 0x11 PUSH1 0x24 DUP3 ADD MSTORE PUSH17 0x151A5B595CDD185B5C08195E1C1A5C9959 PUSH1 0x7A SHL PUSH1 0x44 DUP3 ADD MSTORE PUSH1 0x64 SWAP1 REVERT JUMPDEST ISZERO PUSH2 0x1458 JUMPI JUMP JUMPDEST PUSH1 0x40 MLOAD PUSH3 0x461BCD PUSH1 0xE5 SHL DUP2 MSTORE PUSH1 0x20 PUSH1 0x4 DUP3 ADD MSTORE PUSH1 0x17 PUSH1 0x24 DUP3 ADD MSTORE PUSH32 0x54696D657374616D70206D757374206265206E65776572000000000000000000 PUSH1 0x44 DUP3 ADD MSTORE PUSH1 0x64 SWAP1 REVERT JUMPDEST ISZERO PUSH2 0x14A4 JUMPI JUMP JUMPDEST PUSH1 0x40 MLOAD PUSH3 0x461BCD PUSH1 0xE5 SHL DUP2 MSTORE PUSH1 0x20 PUSH1 0x4 DUP3 ADD MSTORE PUSH1 0x11 PUSH1 0x24 DUP3 ADD MSTORE PUSH17 0x496E76616C6964207369676E6174757265 PUSH1 0x78 SHL PUSH1 0x44 DUP3 ADD MSTORE PUSH1 0x64 SWAP1 REVERT JUMPDEST SWAP1 PUSH1 0x40 MLOAD PUSH2 0x14EA DUP2 PUSH2 0x136B JUMP JUMPDEST PUSH1 0x20 PUSH1 0x1 DUP3 SWAP5 DUP1 SLOAD DUP5 MSTORE ADD SLOAD SWAP2 ADD MSTORE JUMP JUMPDEST SWAP5 SWAP1 SWAP5 SWAP4 SWAP2 SWAP4 PUSH1 0xC SLOAD DUP6 LT PUSH2 0x1D0C JUMPI PUSH1 0xB SLOAD DUP6 GT PUSH2 0x1CC7 JUMPI CALLER PUSH1 0x0 MSTORE PUSH1 0x29 PUSH1 0x20 MSTORE PUSH1 0x40 PUSH1 0x0 KECCAK256 SLOAD SUB PUSH2 0x1C82 JUMPI PUSH2 0x1551 PUSH32 0x0 DUP6 PUSH2 0x1310 JUMP JUMPDEST PUSH1 0x40 MLOAD PUSH4 0x70A08231 PUSH1 0xE0 SHL DUP2 MSTORE ADDRESS PUSH1 0x4 DUP3 ADD MSTORE PUSH1 0x20 DUP2 PUSH1 0x24 DUP2 PUSH32 0x0 PUSH1 0x1 PUSH1 0x1 PUSH1 0xA0 SHL SUB AND GAS STATICCALL SWAP1 DUP2 ISZERO PUSH2 0x19AC JUMPI PUSH1 0x0 SWAP2 PUSH2 0x1C50 JUMPI JUMPDEST POP LT PUSH2 0x1C0B JUMPI PUSH2 0x15B7 DUP4 TIMESTAMP LT ISZERO PUSH2 0x13C5 JUMP JUMPDEST PUSH1 0x3C DUP4 ADD SWAP1 DUP2 DUP5 GT PUSH2 0x1323 JUMPI PUSH2 0x160F SWAP3 PUSH2 0x15D6 PUSH2 0xC58 SWAP4 TIMESTAMP GT ISZERO PUSH2 0x1411 JUMP JUMPDEST CALLER PUSH1 0x0 MSTORE PUSH1 0xE PUSH1 0x20 MSTORE PUSH2 0x15EF PUSH1 0x40 PUSH1 0x0 KECCAK256 SLOAD DUP7 GT PUSH2 0x1451 JUMP JUMPDEST PUSH1 0x40 MLOAD PUSH2 0x15FB DUP2 PUSH2 0x1339 JUMP JUMPDEST CALLER DUP2 MSTORE DUP7 PUSH1 0x20 DUP3 ADD MSTORE DUP6 PUSH1 0x40 DUP3 ADD MSTORE PUSH2 0x1F88 JUMP JUMPDEST CALLER PUSH1 0x0 MSTORE PUSH1 0xE PUSH1 0x20 MSTORE DUP1 PUSH1 0x40 PUSH1 0x0 KECCAK256 SSTORE PUSH2 0x1677 PUSH1 0x40 MLOAD PUSH4 0x23B872DD PUSH1 0xE0 SHL PUSH1 0x20 DUP3 ADD MSTORE CALLER PUSH1 0x24 DUP3 ADD MSTORE ADDRESS PUSH1 0x44 DUP3 ADD MSTORE DUP4 PUSH1 0x64 DUP3 ADD MSTORE PUSH1 0x64 DUP2 MSTORE PUSH2 0x1651 DUP2 PUSH2 0x1387 JUMP JUMPDEST PUSH32 0x0 PUSH2 0x21B8 JUMP JUMPDEST CALLER PUSH1 0x0 MSTORE PUSH1 0x29 PUSH1 0x20 MSTORE PUSH2 0x1690 PUSH1 0x1 PUSH1 0x40 PUSH1 0x0 KECCAK256 ADD PUSH2 0x14DD JUMP JUMPDEST PUSH1 0x0 PUSH1 0x20 PUSH1 0x40 MLOAD PUSH2 0x16A0 DUP2 PUSH2 0x136B JUMP JUMPDEST DUP3 DUP2 MSTORE ADD MSTORE PUSH1 0x0 PUSH1 0x20 PUSH1 0x40 MLOAD PUSH2 0x16B5 DUP2 PUSH2 0x136B JUMP JUMPDEST DUP3 DUP2 MSTORE ADD MSTORE PUSH1 0x0 NOT NUMBER ADD NUMBER DUP2 GT PUSH2 0x1323 JUMPI PUSH1 0x64 PUSH1 0x40 MLOAD PUSH1 0x20 DUP2 ADD SWAP1 CALLER PUSH1 0x60 SHL DUP3 MSTORE DUP4 BLOCKHASH PUSH1 0x34 DUP3 ADD MSTORE PREVRANDAO PUSH1 0x54 DUP3 ADD MSTORE DUP6 PUSH1 0x74 DUP3 ADD MSTORE PUSH1 0x74 DUP2 MSTORE PUSH2 0x16F6 DUP2 PUSH2 0x1387 JUMP JUMPDEST MLOAD SWAP1 KECCAK256 MOD PUSH1 0x1 SLOAD GT PUSH1 0x0 PUSH1 0x40 MLOAD SWAP2 DUP3 PUSH2 0x1C0 DUP2 ADD LT PUSH8 0xFFFFFFFFFFFFFFFF PUSH2 0x1C0 DUP6 ADD GT OR PUSH2 0x1355 JUMPI PUSH2 0x1C0 DUP4 ADD PUSH1 0x40 MSTORE PUSH1 0xD DUP4 MSTORE PUSH1 0x0 JUMPDEST PUSH2 0x1A0 DUP2 LT PUSH2 0x1BE6 JUMPI POP ISZERO PUSH2 0x1B46 JUMPI PUSH1 0x2 DUP8 LT ISZERO PUSH2 0x1A22 JUMPI DUP7 PUSH2 0x1AFE JUMPI PUSH1 0x0 JUMPDEST PUSH1 0xD DUP2 LT PUSH2 0x1AAC JUMPI POP JUMPDEST DUP1 PUSH2 0x1A4E JUMPI POP POP PUSH1 0xD SWAP1 PUSH1 0x40 MLOAD PUSH1 0x20 DUP2 ADD SWAP2 CALLER PUSH1 0x60 SHL DUP4 MSTORE BLOCKHASH PUSH1 0x34 DUP3 ADD MSTORE PREVRANDAO PUSH1 0x54 DUP3 ADD MSTORE DUP5 PUSH1 0x74 DUP3 ADD MSTORE PUSH1 0x74 DUP2 MSTORE PUSH2 0x178F DUP2 PUSH2 0x1387 JUMP JUMPDEST MLOAD SWAP1 KECCAK256 MOD PUSH1 0xD DUP2 LT ISZERO PUSH2 0x1A38 JUMPI PUSH2 0x17AB SWAP1 PUSH1 0x1 SHL PUSH1 0xF ADD PUSH2 0x14DD JUMP JUMPDEST SWAP3 JUMPDEST PUSH2 0x17BF PUSH2 0x17B9 DUP5 PUSH2 0x20B4 JUMP JUMPDEST SWAP4 PUSH2 0x2173 JUMP JUMPDEST SWAP5 PUSH1 0x0 SWAP3 PUSH1 0x2 DUP3 LT ISZERO PUSH2 0x1A22 JUMPI DUP2 ISZERO SWAP2 DUP3 PUSH2 0x1A0F JUMPI JUMPDEST DUP3 ISZERO PUSH2 0x19EA JUMPI JUMPDEST POP POP PUSH2 0x19B8 JUMPI JUMPDEST PUSH1 0x40 MLOAD PUSH4 0x70A08231 PUSH1 0xE0 SHL DUP2 MSTORE ADDRESS PUSH1 0x4 DUP3 ADD MSTORE PUSH1 0x20 DUP2 PUSH1 0x24 DUP2 PUSH32 0x0 PUSH1 0x1 PUSH1 0x1 PUSH1 0xA0 SHL SUB AND GAS STATICCALL SWAP1 DUP2 ISZERO PUSH2 0x19AC JUMPI PUSH1 0x0 SWAP2 PUSH2 0x1973 JUMPI JUMPDEST POP PUSH1 0x2 SWAP5 DUP4 PUSH32 0x32D9B2D25D1F9CF3A167CFEB80D45C711F98B6AB4A5C9CDB91395F58007E82F9 SWAP4 PUSH1 0xE0 SWAP4 PUSH1 0x20 SWAP8 SWAP7 GT PUSH2 0x1907 JUMPI POP DUP1 PUSH2 0x18D7 JUMPI JUMPDEST DUP6 PUSH1 0x40 MLOAD SWAP3 CALLER DUP5 MSTORE DUP10 DUP3 DUP6 ADD MSTORE DUP1 MLOAD PUSH1 0x40 DUP6 ADD MSTORE ADD MLOAD PUSH1 0x60 DUP4 ADD MSTORE DUP5 MLOAD PUSH1 0x80 DUP4 ADD MSTORE DUP6 DUP6 ADD MLOAD PUSH1 0xA0 DUP4 ADD MSTORE PUSH1 0xC0 DUP3 ADD MSTORE LOG1 PUSH1 0x40 MLOAD SWAP4 PUSH2 0x18AF DUP6 PUSH2 0x136B JUMP JUMPDEST DUP5 MSTORE DUP2 DUP5 ADD SWAP1 DUP2 MSTORE CALLER PUSH1 0x0 MSTORE PUSH1 0x29 DUP3 MSTORE PUSH1 0x40 PUSH1 0x0 KECCAK256 SWAP4 MLOAD DUP5 SSTORE MLOAD DUP1 MLOAD PUSH1 0x1 DUP6 ADD SSTORE ADD MLOAD SWAP2 ADD SSTORE JUMP JUMPDEST PUSH2 0x1902 DUP2 CALLER PUSH32 0x0 PUSH2 0x1F29 JUMP JUMPDEST PUSH2 0x1871 JUMP JUMPDEST PUSH2 0x1933 SWAP2 POP CALLER PUSH32 0x0 PUSH2 0x1F29 JUMP JUMPDEST DUP5 PUSH1 0x40 MLOAD SWAP2 CALLER DUP4 MSTORE DUP9 DUP3 DUP5 ADD MSTORE DUP1 MLOAD PUSH1 0x40 DUP5 ADD MSTORE ADD MLOAD PUSH1 0x60 DUP3 ADD MSTORE DUP4 MLOAD PUSH1 0x80 DUP3 ADD MSTORE DUP5 DUP5 ADD MLOAD PUSH1 0xA0 DUP3 ADD MSTORE PUSH1 0x0 PUSH1 0xC0 DUP3 ADD MSTORE LOG1 PUSH1 0x40 MLOAD SWAP4 PUSH2 0x18AF DUP6 PUSH2 0x136B JUMP JUMPDEST SWAP1 POP PUSH1 0x20 SWAP4 SWAP3 SWAP4 DUP2 RETURNDATASIZE PUSH1 0x20 GT PUSH2 0x19A4 JUMPI JUMPDEST DUP2 PUSH2 0x1991 PUSH1 0x20 SWAP4 DUP4 PUSH2 0x13A3 JUMP JUMPDEST DUP2 ADD SUB SLT PUSH2 0x11F4 JUMPI MLOAD SWAP2 SWAP3 SWAP2 PUSH1 0x2 PUSH2 0x1837 JUMP JUMPDEST RETURNDATASIZE SWAP2 POP PUSH2 0x1984 JUMP JUMPDEST PUSH1 0x40 MLOAD RETURNDATASIZE PUSH1 0x0 DUP3 RETURNDATACOPY RETURNDATASIZE SWAP1 REVERT JUMPDEST SWAP1 POP PUSH2 0x19E4 PUSH32 0x0 DUP3 PUSH2 0x1310 JUMP JUMPDEST SWAP1 PUSH2 0x17E3 JUMP JUMPDEST PUSH1 0x1 EQ SWAP2 POP DUP2 PUSH2 0x19FD JUMPI JUMPDEST POP CODESIZE DUP1 PUSH2 0x17DC JUMP JUMPDEST PUSH1 0x20 SWAP2 POP ADD MLOAD PUSH1 0x20 DUP6 ADD MLOAD GT CODESIZE PUSH2 0x19F5 JUMP JUMPDEST SWAP2 POP PUSH1 0x20 DUP2 ADD MLOAD PUSH1 0x20 DUP8 ADD MLOAD LT SWAP2 PUSH2 0x17D5 JUMP JUMPDEST PUSH4 0x4E487B71 PUSH1 0xE0 SHL PUSH1 0x0 MSTORE PUSH1 0x21 PUSH1 0x4 MSTORE PUSH1 0x24 PUSH1 0x0 REVERT JUMPDEST PUSH4 0x4E487B71 PUSH1 0xE0 SHL PUSH1 0x0 MSTORE PUSH1 0x32 PUSH1 0x4 MSTORE PUSH1 0x24 PUSH1 0x0 REVERT JUMPDEST PUSH1 0x1 DUP2 SUB PUSH2 0x1A6A JUMPI POP DUP1 SWAP2 POP MLOAD ISZERO PUSH2 0x1A38 JUMPI PUSH1 0x20 ADD MLOAD SWAP3 PUSH2 0x17AD JUMP JUMPDEST PUSH2 0x1AA5 SWAP3 PUSH1 0x40 MLOAD PUSH1 0x20 DUP2 ADD SWAP2 CALLER PUSH1 0x60 SHL DUP4 MSTORE BLOCKHASH PUSH1 0x34 DUP3 ADD MSTORE PREVRANDAO PUSH1 0x54 DUP3 ADD MSTORE DUP7 PUSH1 0x74 DUP3 ADD MSTORE PUSH1 0x74 DUP2 MSTORE PUSH2 0x1A9B DUP2 PUSH2 0x1387 JUMP JUMPDEST MLOAD SWAP1 KECCAK256 MOD SWAP1 PUSH2 0x2091 JUMP JUMPDEST MLOAD SWAP3 PUSH2 0x17AD JUMP JUMPDEST DUP1 PUSH1 0x1 SHL PUSH1 0x10 DUP2 ADD SLOAD PUSH1 0x20 DUP8 ADD MLOAD GT PUSH2 0x1AC9 JUMPI JUMPDEST POP PUSH1 0x1 ADD PUSH2 0x174E JUMP JUMPDEST PUSH1 0x1 SWAP2 SWAP3 PUSH2 0x1ADC PUSH2 0x1AF7 SWAP3 PUSH1 0xF ADD PUSH2 0x14DD JUMP JUMPDEST PUSH2 0x1AE6 DUP3 DUP8 PUSH2 0x2091 JUMP JUMPDEST MSTORE PUSH2 0x1AF1 DUP2 DUP7 PUSH2 0x2091 JUMP JUMPDEST POP PUSH2 0x20A5 JUMP JUMPDEST SWAP2 SWAP1 PUSH2 0x1AC0 JUMP JUMPDEST PUSH1 0x0 JUMPDEST PUSH1 0xD DUP2 LT PUSH2 0x1B0F JUMPI POP PUSH2 0x1758 JUMP JUMPDEST DUP1 PUSH1 0x1 SHL PUSH1 0x10 DUP2 ADD SLOAD PUSH1 0x20 DUP8 ADD MLOAD LT PUSH2 0x1B2C JUMPI JUMPDEST POP PUSH1 0x1 ADD PUSH2 0x1B01 JUMP JUMPDEST PUSH1 0x1 SWAP2 SWAP3 PUSH2 0x1ADC PUSH2 0x1B3F SWAP3 PUSH1 0xF ADD PUSH2 0x14DD JUMP JUMPDEST SWAP2 SWAP1 PUSH2 0x1B23 JUMP JUMPDEST PUSH1 0x2 DUP8 LT ISZERO PUSH2 0x1A22 JUMPI DUP7 PUSH2 0x1B9D JUMPI PUSH1 0x0 JUMPDEST PUSH1 0xD DUP2 LT PUSH2 0x1B65 JUMPI POP PUSH2 0x1758 JUMP JUMPDEST DUP1 PUSH1 0x1 SHL PUSH1 0x10 DUP2 ADD SLOAD PUSH1 0x20 DUP8 ADD MLOAD GT ISZERO PUSH2 0x1B83 JUMPI JUMPDEST POP PUSH1 0x1 ADD PUSH2 0x1B57 JUMP JUMPDEST PUSH1 0x1 SWAP2 SWAP3 PUSH2 0x1ADC PUSH2 0x1B96 SWAP3 PUSH1 0xF ADD PUSH2 0x14DD JUMP JUMPDEST SWAP2 SWAP1 PUSH2 0x1B7A JUMP JUMPDEST PUSH1 0x0 JUMPDEST PUSH1 0xD DUP2 LT PUSH2 0x1BAE JUMPI POP PUSH2 0x1758 JUMP JUMPDEST DUP1 PUSH1 0x1 SHL PUSH1 0x10 DUP2 ADD SLOAD PUSH1 0x20 DUP8 ADD MLOAD LT ISZERO PUSH2 0x1BCC JUMPI JUMPDEST POP PUSH1 0x1 ADD PUSH2 0x1BA0 JUMP JUMPDEST PUSH1 0x1 SWAP2 SWAP3 PUSH2 0x1ADC PUSH2 0x1BDF SWAP3 PUSH1 0xF ADD PUSH2 0x14DD JUMP JUMPDEST SWAP2 SWAP1 PUSH2 0x1BC3 JUMP JUMPDEST PUSH1 0x20 SWAP1 PUSH1 0x40 MLOAD PUSH2 0x1BF5 DUP2 PUSH2 0x136B JUMP JUMPDEST PUSH1 0x0 DUP2 MSTORE PUSH1 0x0 DUP4 DUP3 ADD MSTORE DUP3 DUP3 DUP8 ADD ADD MSTORE ADD PUSH2 0x172E JUMP JUMPDEST PUSH1 0x40 MLOAD PUSH3 0x461BCD PUSH1 0xE5 SHL DUP2 MSTORE PUSH1 0x20 PUSH1 0x4 DUP3 ADD MSTORE PUSH1 0x1F PUSH1 0x24 DUP3 ADD MSTORE PUSH32 0x436F6E74726163742068617320696E73756666696369656E742066756E647300 PUSH1 0x44 DUP3 ADD MSTORE PUSH1 0x64 SWAP1 REVERT JUMPDEST SWAP1 POP PUSH1 0x20 DUP2 RETURNDATASIZE PUSH1 0x20 GT PUSH2 0x1C7A JUMPI JUMPDEST DUP2 PUSH2 0x1C6B PUSH1 0x20 SWAP4 DUP4 PUSH2 0x13A3 JUMP JUMPDEST DUP2 ADD SUB SLT PUSH2 0x11F4 JUMPI MLOAD CODESIZE PUSH2 0x15A5 JUMP JUMPDEST RETURNDATASIZE SWAP2 POP PUSH2 0x1C5E JUMP JUMPDEST PUSH1 0x40 MLOAD PUSH3 0x461BCD PUSH1 0xE5 SHL DUP2 MSTORE PUSH1 0x20 PUSH1 0x4 DUP3 ADD MSTORE PUSH1 0x18 PUSH1 0x24 DUP3 ADD MSTORE PUSH32 0x5468652073657373696F6E206973206E6F74206D617463680000000000000000 PUSH1 0x44 DUP3 ADD MSTORE PUSH1 0x64 SWAP1 REVERT JUMPDEST PUSH1 0x40 MLOAD PUSH3 0x461BCD PUSH1 0xE5 SHL DUP2 MSTORE PUSH1 0x20 PUSH1 0x4 DUP3 ADD MSTORE PUSH1 0x19 PUSH1 0x24 DUP3 ADD MSTORE PUSH32 0x4265742065786365656473206D6178696D756D206C696D697400000000000000 PUSH1 0x44 DUP3 ADD MSTORE PUSH1 0x64 SWAP1 REVERT JUMPDEST PUSH1 0x40 MLOAD PUSH3 0x461BCD PUSH1 0xE5 SHL DUP2 MSTORE PUSH1 0x20 PUSH1 0x4 DUP3 ADD MSTORE PUSH1 0x3E PUSH1 0x24 DUP3 ADD MSTORE PUSH32 0x5468652062657420616D6F756E74206D75737420626520677265617465722074 PUSH1 0x44 DUP3 ADD MSTORE PUSH32 0x68616E20746865206D696E696D756D2072657175697265642076616C75650000 PUSH1 0x64 DUP3 ADD MSTORE PUSH1 0x84 SWAP1 REVERT JUMPDEST ISZERO PUSH2 0x1D7E JUMPI JUMP JUMPDEST PUSH1 0x40 MLOAD PUSH3 0x461BCD PUSH1 0xE5 SHL DUP2 MSTORE PUSH1 0x20 PUSH1 0x4 DUP3 ADD MSTORE PUSH1 0x32 PUSH1 0x24 DUP3 ADD MSTORE PUSH32 0x546865206D617869756D206265742076616C7565206772656174657220746861 PUSH1 0x44 DUP3 ADD MSTORE PUSH18 0x6E206D696E69756D206265742076616C7565 PUSH1 0x70 SHL PUSH1 0x64 DUP3 ADD MSTORE PUSH1 0x84 SWAP1 REVERT JUMPDEST ISZERO PUSH2 0x1DE5 JUMPI JUMP JUMPDEST PUSH1 0x40 MLOAD PUSH3 0x461BCD PUSH1 0xE5 SHL DUP2 MSTORE PUSH1 0x20 PUSH1 0x4 DUP3 ADD MSTORE PUSH1 0x1A PUSH1 0x24 DUP3 ADD MSTORE PUSH32 0x4E6F2070656E64696E6720677561726469616E206368616E6765000000000000 PUSH1 0x44 DUP3 ADD MSTORE PUSH1 0x64 SWAP1 REVERT JUMPDEST ISZERO PUSH2 0x1E31 JUMPI JUMP JUMPDEST PUSH1 0x40 MLOAD PUSH3 0x461BCD PUSH1 0xE5 SHL DUP2 MSTORE PUSH1 0x20 PUSH1 0x4 DUP3 ADD MSTORE PUSH1 0x28 PUSH1 0x24 DUP3 ADD MSTORE PUSH32 0x4D75737420776169742033206461797320746F20636F6E6669726D2061646D69 PUSH1 0x44 DUP3 ADD MSTORE PUSH8 0x6E206368616E6765 PUSH1 0xC0 SHL PUSH1 0x64 DUP3 ADD MSTORE PUSH1 0x84 SWAP1 REVERT JUMPDEST ISZERO PUSH2 0x1E8E JUMPI JUMP JUMPDEST PUSH1 0x40 MLOAD PUSH3 0x461BCD PUSH1 0xE5 SHL DUP2 MSTORE PUSH1 0x20 PUSH1 0x4 DUP3 ADD MSTORE PUSH1 0x21 PUSH1 0x24 DUP3 ADD MSTORE PUSH32 0x4E6F2070656E64696E672077696E2070726F626162696C697479206368616E67 PUSH1 0x44 DUP3 ADD MSTORE PUSH1 0x65 PUSH1 0xF8 SHL PUSH1 0x64 DUP3 ADD MSTORE PUSH1 0x84 SWAP1 REVERT JUMPDEST ISZERO PUSH2 0x1EE4 JUMPI JUMP JUMPDEST PUSH1 0x40 MLOAD PUSH3 0x461BCD PUSH1 0xE5 SHL DUP2 MSTORE PUSH1 0x20 PUSH1 0x4 DUP3 ADD MSTORE PUSH1 0x17 PUSH1 0x24 DUP3 ADD MSTORE PUSH32 0x4E6F2070656E64696E672061646D696E206368616E6765000000000000000000 PUSH1 0x44 DUP3 ADD MSTORE PUSH1 0x64 SWAP1 REVERT JUMPDEST PUSH1 0x40 MLOAD PUSH4 0xA9059CBB PUSH1 0xE0 SHL PUSH1 0x20 DUP3 ADD MSTORE PUSH1 0x1 PUSH1 0x1 PUSH1 0xA0 SHL SUB SWAP3 SWAP1 SWAP3 AND PUSH1 0x24 DUP4 ADD MSTORE PUSH1 0x44 DUP1 DUP4 ADD SWAP4 SWAP1 SWAP4 MSTORE SWAP2 DUP2 MSTORE PUSH2 0x1F6A SWAP2 PUSH2 0x1F65 PUSH1 0x64 DUP4 PUSH2 0x13A3 JUMP JUMPDEST PUSH2 0x21B8 JUMP JUMPDEST JUMP JUMPDEST PUSH8 0xFFFFFFFFFFFFFFFF DUP2 GT PUSH2 0x1355 JUMPI PUSH1 0x1F ADD PUSH1 0x1F NOT AND PUSH1 0x20 ADD SWAP1 JUMP JUMPDEST SWAP1 PUSH1 0x1 DUP1 PUSH1 0xA0 SHL SUB SWAP2 DUP3 DUP2 MLOAD AND PUSH1 0x20 DUP3 ADD MLOAD PUSH1 0x40 DUP1 SWAP4 ADD MLOAD DUP4 MLOAD SWAP2 PUSH1 0x20 DUP4 ADD SWAP4 PUSH32 0xE81D1CDF23BDC0A6BEF5035503A1014285A41CC67C1E91E29D9211B707E3CF9 DUP6 MSTORE DUP6 DUP5 ADD MSTORE PUSH1 0x60 DUP4 ADD MSTORE PUSH1 0x80 DUP3 ADD MSTORE PUSH1 0x80 DUP2 MSTORE PUSH2 0x1FE6 DUP2 PUSH2 0x1387 JUMP JUMPDEST MLOAD SWAP1 KECCAK256 DUP2 MLOAD PUSH1 0x20 DUP2 ADD SWAP2 PUSH2 0x1901 PUSH1 0xF0 SHL DUP4 MSTORE PUSH32 0x0 PUSH1 0x22 DUP4 ADD MSTORE PUSH1 0x42 DUP3 ADD MSTORE PUSH1 0x42 DUP2 MSTORE PUSH1 0x80 DUP2 ADD DUP2 DUP2 LT PUSH8 0xFFFFFFFFFFFFFFFF DUP3 GT OR PUSH2 0x1355 JUMPI DUP4 MSTORE MLOAD SWAP1 KECCAK256 PUSH2 0x2058 PUSH2 0x204F DUP7 PUSH2 0x1F6C JUMP JUMPDEST SWAP3 MLOAD SWAP3 DUP4 PUSH2 0x13A3 JUMP JUMPDEST DUP5 DUP3 MSTORE CALLDATASIZE DUP6 DUP5 ADD GT PUSH2 0x11F4 JUMPI PUSH1 0x0 PUSH1 0x20 DUP7 PUSH2 0x2086 SWAP8 PUSH2 0x207E SWAP7 DUP4 DUP8 ADD CALLDATACOPY DUP5 ADD ADD MSTORE PUSH2 0x22D3 JUMP JUMPDEST SWAP3 SWAP1 SWAP3 PUSH2 0x230B JUMP JUMPDEST DUP1 PUSH1 0x2 SLOAD AND SWAP2 AND EQ SWAP1 JUMP JUMPDEST DUP1 MLOAD DUP3 LT ISZERO PUSH2 0x1A38 JUMPI PUSH1 0x20 SWAP2 PUSH1 0x5 SHL ADD ADD SWAP1 JUMP JUMPDEST PUSH1 0x0 NOT DUP2 EQ PUSH2 0x1323 JUMPI PUSH1 0x1 ADD SWAP1 JUMP JUMPDEST PUSH1 0x20 SWAP1 PUSH1 0x40 MLOAD PUSH2 0x20C3 DUP2 PUSH2 0x136B JUMP JUMPDEST PUSH1 0x0 SWAP3 DUP2 DUP5 DUP1 SWAP4 MSTORE ADD MSTORE PUSH1 0x0 NOT NUMBER ADD SWAP1 NUMBER DUP3 GT PUSH2 0x215F JUMPI SWAP1 PUSH1 0x3 SWAP2 PUSH1 0x40 MLOAD SWAP1 PUSH1 0x20 DUP3 ADD SWAP3 CALLER PUSH1 0x60 SHL DUP5 MSTORE BLOCKHASH PUSH1 0x34 DUP4 ADD MSTORE PREVRANDAO PUSH1 0x54 DUP4 ADD MSTORE PUSH1 0x74 DUP3 ADD MSTORE PUSH1 0x74 DUP2 MSTORE PUSH2 0x210B DUP2 PUSH2 0x1387 JUMP JUMPDEST MLOAD SWAP1 KECCAK256 AND SWAP1 PUSH1 0x4 DUP3 ADD DUP1 SWAP3 GT PUSH2 0x214B JUMPI PUSH1 0xD DUP3 LT ISZERO PUSH2 0x2137 JUMPI POP PUSH2 0x2134 SWAP1 PUSH1 0x1 SHL PUSH1 0xF ADD PUSH2 0x14DD JUMP JUMPDEST SWAP1 JUMP JUMPDEST PUSH4 0x4E487B71 PUSH1 0xE0 SHL DUP2 MSTORE PUSH1 0x32 PUSH1 0x4 MSTORE PUSH1 0x24 SWAP1 REVERT JUMPDEST PUSH4 0x4E487B71 PUSH1 0xE0 SHL DUP2 MSTORE PUSH1 0x11 PUSH1 0x4 MSTORE PUSH1 0x24 SWAP1 REVERT JUMPDEST PUSH4 0x4E487B71 PUSH1 0xE0 SHL DUP4 MSTORE PUSH1 0x11 PUSH1 0x4 MSTORE PUSH1 0x24 DUP4 REVERT JUMPDEST PUSH1 0x0 NOT NUMBER ADD NUMBER DUP2 GT PUSH2 0x1323 JUMPI PUSH3 0x186A0 SWAP2 PUSH1 0x40 MLOAD SWAP1 PUSH1 0x20 DUP3 ADD SWAP3 CALLER PUSH1 0x60 SHL DUP5 MSTORE BLOCKHASH PUSH1 0x34 DUP4 ADD MSTORE PREVRANDAO PUSH1 0x54 DUP4 ADD MSTORE PUSH1 0x74 DUP3 ADD MSTORE PUSH1 0x74 DUP2 MSTORE PUSH2 0x21B1 DUP2 PUSH2 0x1387 JUMP JUMPDEST MLOAD SWAP1 KECCAK256 MOD SWAP1 JUMP JUMPDEST PUSH1 0x1 DUP1 PUSH1 0xA0 SHL SUB AND SWAP1 PUSH2 0x2235 PUSH1 0x40 MLOAD PUSH2 0x21D0 DUP2 PUSH2 0x136B JUMP JUMPDEST PUSH1 0x20 SWAP4 DUP5 DUP3 MSTORE PUSH32 0x5361666545524332303A206C6F772D6C6576656C2063616C6C206661696C6564 DUP6 DUP4 ADD MSTORE PUSH1 0x0 DUP1 DUP6 DUP8 DUP3 SWAP8 MLOAD SWAP2 ADD DUP3 DUP6 GAS CALL RETURNDATASIZE ISZERO PUSH2 0x22CB JUMPI RETURNDATASIZE SWAP2 PUSH2 0x221A DUP4 PUSH2 0x1F6C JUMP JUMPDEST SWAP3 PUSH2 0x2228 PUSH1 0x40 MLOAD SWAP5 DUP6 PUSH2 0x13A3 JUMP JUMPDEST DUP4 MSTORE RETURNDATASIZE DUP7 DUP9 DUP6 ADD RETURNDATACOPY PUSH2 0x249E JUMP JUMPDEST DUP1 MLOAD SWAP2 DUP3 ISZERO SWAP2 DUP5 DUP4 ISZERO PUSH2 0x22A7 JUMPI JUMPDEST POP POP POP SWAP1 POP ISZERO PUSH2 0x2250 JUMPI POP JUMP JUMPDEST PUSH1 0x84 SWAP1 PUSH1 0x40 MLOAD SWAP1 PUSH3 0x461BCD PUSH1 0xE5 SHL DUP3 MSTORE PUSH1 0x4 DUP3 ADD MSTORE PUSH1 0x2A PUSH1 0x24 DUP3 ADD MSTORE PUSH32 0x5361666545524332303A204552433230206F7065726174696F6E20646964206E PUSH1 0x44 DUP3 ADD MSTORE PUSH10 0x1BDD081CDD58D8D95959 PUSH1 0xB2 SHL PUSH1 0x64 DUP3 ADD MSTORE REVERT JUMPDEST SWAP2 SWAP4 DUP2 DUP1 SWAP5 POP ADD SUB SLT PUSH2 0x1DB JUMPI DUP3 ADD MLOAD SWAP1 DUP2 ISZERO ISZERO DUP3 SUB PUSH2 0x247 JUMPI POP DUP1 CODESIZE DUP1 DUP5 PUSH2 0x2243 JUMP JUMPDEST PUSH1 0x60 SWAP2 PUSH2 0x249E JUMP JUMPDEST SWAP1 PUSH1 0x41 DUP2 MLOAD EQ PUSH1 0x0 EQ PUSH2 0x2301 JUMPI PUSH2 0x22FD SWAP2 PUSH1 0x20 DUP3 ADD MLOAD SWAP1 PUSH1 0x60 PUSH1 0x40 DUP5 ADD MLOAD SWAP4 ADD MLOAD PUSH1 0x0 BYTE SWAP1 PUSH2 0x240F JUMP JUMPDEST SWAP1 SWAP2 JUMP JUMPDEST POP POP PUSH1 0x0 SWAP1 PUSH1 0x2 SWAP1 JUMP JUMPDEST PUSH1 0x5 DUP2 LT ISZERO PUSH2 0x1A22 JUMPI DUP1 PUSH2 0x231C JUMPI POP JUMP JUMPDEST PUSH1 0x1 DUP2 SUB PUSH2 0x2369 JUMPI PUSH1 0x40 MLOAD PUSH3 0x461BCD PUSH1 0xE5 SHL DUP2 MSTORE PUSH1 0x20 PUSH1 0x4 DUP3 ADD MSTORE PUSH1 0x18 PUSH1 0x24 DUP3 ADD MSTORE PUSH32 0x45434453413A20696E76616C6964207369676E61747572650000000000000000 PUSH1 0x44 DUP3 ADD MSTORE PUSH1 0x64 SWAP1 REVERT JUMPDEST PUSH1 0x2 DUP2 SUB PUSH2 0x23B6 JUMPI PUSH1 0x40 MLOAD PUSH3 0x461BCD PUSH1 0xE5 SHL DUP2 MSTORE PUSH1 0x20 PUSH1 0x4 DUP3 ADD MSTORE PUSH1 0x1F PUSH1 0x24 DUP3 ADD MSTORE PUSH32 0x45434453413A20696E76616C6964207369676E6174757265206C656E67746800 PUSH1 0x44 DUP3 ADD MSTORE PUSH1 0x64 SWAP1 REVERT JUMPDEST PUSH1 0x3 EQ PUSH2 0x23BF JUMPI JUMP JUMPDEST PUSH1 0x40 MLOAD PUSH3 0x461BCD PUSH1 0xE5 SHL DUP2 MSTORE PUSH1 0x20 PUSH1 0x4 DUP3 ADD MSTORE PUSH1 0x22 PUSH1 0x24 DUP3 ADD MSTORE PUSH32 0x45434453413A20696E76616C6964207369676E6174757265202773272076616C PUSH1 0x44 DUP3 ADD MSTORE PUSH2 0x7565 PUSH1 0xF0 SHL PUSH1 0x64 DUP3 ADD MSTORE PUSH1 0x84 SWAP1 REVERT JUMPDEST SWAP3 SWAP2 SWAP1 PUSH32 0x7FFFFFFFFFFFFFFFFFFFFFFFFFFFFFFF5D576E7357A4501DDFE92F46681B20A0 DUP4 GT PUSH2 0x2492 JUMPI SWAP2 PUSH1 0x80 SWAP5 SWAP4 SWAP2 PUSH1 0xFF PUSH1 0x20 SWAP5 PUSH1 0x40 MLOAD SWAP5 DUP6 MSTORE AND DUP5 DUP5 ADD MSTORE PUSH1 0x40 DUP4 ADD MSTORE PUSH1 0x60 DUP3 ADD MSTORE PUSH1 0x0 SWAP4 DUP5 SWAP2 DUP3 DUP1 MSTORE PUSH1 0x1 GAS STATICCALL ISZERO PUSH2 0x2485 JUMPI DUP2 MLOAD PUSH1 0x1 PUSH1 0x1 PUSH1 0xA0 SHL SUB DUP2 AND ISZERO PUSH2 0x247F JUMPI SWAP2 SWAP1 JUMP JUMPDEST POP PUSH1 0x1 SWAP1 JUMP JUMPDEST POP PUSH1 0x40 MLOAD SWAP1 RETURNDATASIZE SWAP1 DUP3 RETURNDATACOPY RETURNDATASIZE SWAP1 REVERT JUMPDEST POP POP POP POP PUSH1 0x0 SWAP1 PUSH1 0x3 SWAP1 JUMP JUMPDEST SWAP2 SWAP3 SWAP1 ISZERO PUSH2 0x2500 JUMPI POP DUP2 MLOAD ISZERO PUSH2 0x24B2 JUMPI POP SWAP1 JUMP JUMPDEST EXTCODESIZE ISZERO PUSH2 0x24BB JUMPI SWAP1 JUMP JUMPDEST PUSH1 0x40 MLOAD PUSH3 0x461BCD PUSH1 0xE5 SHL DUP2 MSTORE PUSH1 0x20 PUSH1 0x4 DUP3 ADD MSTORE PUSH1 0x1D PUSH1 0x24 DUP3 ADD MSTORE PUSH32 0x416464726573733A2063616C6C20746F206E6F6E2D636F6E7472616374000000 PUSH1 0x44 DUP3 ADD MSTORE PUSH1 0x64 SWAP1 REVERT JUMPDEST DUP3 MLOAD SWAP1 SWAP2 POP ISZERO PUSH2 0x2513 JUMPI POP DUP1 MLOAD SWAP1 PUSH1 0x20 ADD REVERT JUMPDEST PUSH1 0x40 MLOAD SWAP1 PUSH3 0x461BCD PUSH1 0xE5 SHL DUP3 MSTORE DUP2 PUSH1 0x20 DUP1 PUSH1 0x4 DUP4 ADD MSTORE DUP3 MLOAD SWAP1 DUP2 PUSH1 0x24 DUP5 ADD MSTORE PUSH1 0x0 SWAP4 JUMPDEST DUP3 DUP6 LT PUSH2 0x2559 JUMPI POP POP PUSH1 0x44 SWAP3 POP PUSH1 0x0 DUP4 DUP3 DUP5 ADD ADD MSTORE PUSH1 0x1F DUP1 NOT SWAP2 ADD AND DUP2 ADD SUB ADD SWAP1 REVERT JUMPDEST DUP5 DUP2 ADD DUP3 ADD MLOAD DUP7 DUP7 ADD PUSH1 0x44 ADD MSTORE SWAP4 DUP2 ADD SWAP4 DUP6 SWAP4 POP PUSH2 0x2536 JUMP INVALID LOG2 PUSH5 0x6970667358 0x22 SLT KECCAK256 SDIV SWAP14 DUP10 0xA8 SWAP14 CALLVALUE 0xD6 DELEGATECALL 0xCC PUSH17 0x7A96599B47F2D299920256EB68184D9160 0xDC SGT 0xA6 0x4D PUSH21 0x64736F6C63430008180033546865206D6178696D75 PUSH14 0x206265742076616C7565206D7573 PUSH21 0x206265206772000000000000000000000000000000 "},"methodIdentifiers":{"admin()":"f851a440","cancelAdminChange()":"1157b267","cancelGuardianChange()":"fb49fe27","cancelWinProbabilityChange()":"4addd5f6","cancelWithdrawFund()":"9e090628","changeMaxBetValue(uint256)":"e065fc93","changeMinBetValue(uint256)":"677660e0","confirmAdminChange()":"a74b6783","confirmChangeGuardian()":"847d1e90","confirmChangeWinProbability()":"9a138974","guardian()":"452a9320","isLocked()":"a4e2d634","lastTimestamp(address)":"dccfac82","lockContract()":"753868e3","maxiumBetValue()":"ba8a305c","miniumBetValue()":"1617f190","pendingAdmin()":"26782247","pendingAdminChangeTime()":"bff42fe4","pendingGuardian()":"762c31ba","pendingGuardianChangeTime()":"ed3cacc1","pendingWinProbability()":"e1d8192c","pendingWinProbabilityChangeTime()":"a9860b97","pendingWithdrawFundTime()":"3ab0f330","placeBet(uint256,uint8,uint256,uint256,bytes)":"32b031a3","requestAdminChange(address)":"8c51d1e4","requestChangeGuardian(address)":"28fc8b68","requestChangeWinProbability(uint256)":"71d00086","requestWithdrawFund()":"9d1c35e2","rewardMultiply()":"1966ae49","startGame(uint256,bytes)":"51903bd9","token()":"fc0c546a","unlockContract()":"22f0f2f9","winProbability()":"69f2941d","withdrawFund(uint256)":"0cee1725"}}}}}