{"contracts/Plinko.sol":{"Plinko":{"abi":[{"inputs":[{"internalType":"address","name":"_guardian","type":"address"},{"internalType":"address","name":"_admin","type":"address"},{"internalType":"address","name":"_token","type":"address"},{"internalType":"uint256","name":"_minBetValue","type":"uint256"},{"internalType":"uint256","name":"_maxBetValue","type":"uint256"}],"stateMutability":"payable","type":"constructor"},{"anonymous":false,"inputs":[],"name":"AdminChangeCancelled","type":"event"},{"anonymous":false,"inputs":[{"indexed":false,"internalType":"address","name":"newAdmin","type":"address"},{"indexed":false,"internalType":"uint256","name":"requestTime","type":"uint256"}],"name":"AdminChangeRequested","type":"event"},{"anonymous":false,"inputs":[{"indexed":false,"internalType":"address","name":"newAdmin","type":"address"}],"name":"AdminChanged","type":"event"},{"anonymous":false,"inputs":[{"indexed":false,"internalType":"address","name":"admin","type":"address"},{"indexed":false,"internalType":"uint256","name":"maxBetValue","type":"uint256"}],"name":"ChangedMaxBetValue","type":"event"},{"anonymous":false,"inputs":[{"indexed":false,"internalType":"address","name":"admin","type":"address"},{"indexed":false,"internalType":"uint256","name":"minBetValue","type":"uint256"}],"name":"ChangedMinBetValue","type":"event"},{"anonymous":false,"inputs":[{"indexed":false,"internalType":"address","name":"by","type":"address"}],"name":"ContractLocked","type":"event"},{"anonymous":false,"inputs":[{"indexed":false,"internalType":"address","name":"by","type":"address"}],"name":"ContractUnlocked","type":"event"},{"anonymous":false,"inputs":[],"name":"GuardianChangeCancelled","type":"event"},{"anonymous":false,"inputs":[{"indexed":false,"internalType":"address","name":"newGuardian","type":"address"},{"indexed":false,"internalType":"uint256","name":"requestTime","type":"uint256"}],"name":"GuardianChangeRequested","type":"event"},{"anonymous":false,"inputs":[{"indexed":false,"internalType":"address","name":"newGuardian","type":"address"}],"name":"GuardianChanged","type":"event"},{"anonymous":false,"inputs":[{"indexed":false,"internalType":"address","name":"user","type":"address"},{"indexed":false,"internalType":"uint256","name":"amount","type":"uint256"}],"name":"Result","type":"event"},{"anonymous":false,"inputs":[],"name":"WinProbabilityChangeCancelled","type":"event"},{"anonymous":false,"inputs":[{"indexed":false,"internalType":"uint256","name":"winProbability","type":"uint256"}],"name":"WinProbabilityChanged","type":"event"},{"anonymous":false,"inputs":[{"indexed":false,"internalType":"uint256","name":"winProbability","type":"uint256"}],"name":"WinProbabilityRequested","type":"event"},{"anonymous":false,"inputs":[{"indexed":false,"internalType":"address","name":"to","type":"address"},{"indexed":false,"internalType":"uint256","name":"amount","type":"uint256"}],"name":"WithdrawFund","type":"event"},{"anonymous":false,"inputs":[],"name":"WithdrawFundCancelled","type":"event"},{"anonymous":false,"inputs":[{"indexed":false,"internalType":"uint256","name":"requestTime","type":"uint256"}],"name":"WithdrawFundRequested","type":"event"},{"inputs":[],"name":"admin","outputs":[{"internalType":"address","name":"","type":"address"}],"stateMutability":"view","type":"function"},{"inputs":[],"name":"cancelAdminChange","outputs":[],"stateMutability":"nonpayable","type":"function"},{"inputs":[],"name":"cancelGuardianChange","outputs":[],"stateMutability":"nonpayable","type":"function"},{"inputs":[],"name":"cancelWinProbabilityChange","outputs":[],"stateMutability":"nonpayable","type":"function"},{"inputs":[],"name":"cancelWithdrawFund","outputs":[],"stateMutability":"nonpayable","type":"function"},{"inputs":[{"internalType":"uint256","name":"_maxBetValue","type":"uint256"}],"name":"changeMaxBetValue","outputs":[],"stateMutability":"nonpayable","type":"function"},{"inputs":[{"internalType":"uint256","name":"_minBetValue","type":"uint256"}],"name":"changeMinBetValue","outputs":[],"stateMutability":"nonpayable","type":"function"},{"inputs":[],"name":"confirmAdminChange","outputs":[],"stateMutability":"nonpayable","type":"function"},{"inputs":[],"name":"confirmChangeGuardian","outputs":[],"stateMutability":"nonpayable","type":"function"},{"inputs":[],"name":"confirmChangeWinProbability","outputs":[],"stateMutability":"nonpayable","type":"function"},{"inputs":[],"name":"guardian","outputs":[{"internalType":"address","name":"","type":"address"}],"stateMutability":"view","type":"function"},{"inputs":[],"name":"isLocked","outputs":[{"internalType":"bool","name":"","type":"bool"}],"stateMutability":"view","type":"function"},{"inputs":[{"internalType":"address","name":"","type":"address"}],"name":"lastTimestamp","outputs":[{"internalType":"uint256","name":"","type":"uint256"}],"stateMutability":"view","type":"function"},{"inputs":[],"name":"lockContract","outputs":[],"stateMutability":"nonpayable","type":"function"},{"inputs":[],"name":"maxRewardMultiply","outputs":[{"internalType":"uint256","name":"","type":"uint256"}],"stateMutability":"view","type":"function"},{"inputs":[],"name":"maxiumBetValue","outputs":[{"internalType":"uint256","name":"","type":"uint256"}],"stateMutability":"view","type":"function"},{"inputs":[],"name":"miniumBetValue","outputs":[{"internalType":"uint256","name":"","type":"uint256"}],"stateMutability":"view","type":"function"},{"inputs":[],"name":"pendingAdmin","outputs":[{"internalType":"address","name":"","type":"address"}],"stateMutability":"view","type":"function"},{"inputs":[],"name":"pendingAdminChangeTime","outputs":[{"internalType":"uint256","name":"","type":"uint256"}],"stateMutability":"view","type":"function"},{"inputs":[],"name":"pendingGuardian","outputs":[{"internalType":"address","name":"","type":"address"}],"stateMutability":"view","type":"function"},{"inputs":[],"name":"pendingGuardianChangeTime","outputs":[{"internalType":"uint256","name":"","type":"uint256"}],"stateMutability":"view","type":"function"},{"inputs":[],"name":"pendingWinProbability","outputs":[{"internalType":"uint256","name":"","type":"uint256"}],"stateMutability":"view","type":"function"},{"inputs":[],"name":"pendingWinProbabilityChangeTime","outputs":[{"internalType":"uint256","name":"","type":"uint256"}],"stateMutability":"view","type":"function"},{"inputs":[],"name":"pendingWithdrawFundTime","outputs":[{"internalType":"uint256","name":"","type":"uint256"}],"stateMutability":"view","type":"function"},{"inputs":[{"internalType":"uint256","name":"_numBall","type":"uint256"},{"internalType":"uint256","name":"_amount","type":"uint256"},{"internalType":"uint256","name":"_timestamp","type":"uint256"},{"internalType":"bytes","name":"signature","type":"bytes"}],"name":"placeBet","outputs":[],"stateMutability":"payable","type":"function"},{"inputs":[{"internalType":"address","name":"newAdmin","type":"address"}],"name":"requestAdminChange","outputs":[],"stateMutability":"nonpayable","type":"function"},{"inputs":[{"internalType":"address","name":"newGuardian","type":"address"}],"name":"requestChangeGuardian","outputs":[],"stateMutability":"nonpayable","type":"function"},{"inputs":[{"internalType":"uint256","name":"_winProbability","type":"uint256"}],"name":"requestChangeWinProbability","outputs":[],"stateMutability":"nonpayable","type":"function"},{"inputs":[],"name":"requestWithdrawFund","outputs":[],"stateMutability":"nonpayable","type":"function"},{"inputs":[{"internalType":"uint256","name":"","type":"uint256"}],"name":"rewards","outputs":[{"internalType":"uint256","name":"","type":"uint256"}],"stateMutability":"view","type":"function"},{"inputs":[],"name":"token","outputs":[{"internalType":"contract IERC20","name":"","type":"address"}],"stateMutability":"view","type":"function"},{"inputs":[],"name":"unlockContract","outputs":[],"stateMutability":"nonpayable","type":"function"},{"inputs":[],"name":"winProbability","outputs":[{"internalType":"uint256","name":"","type":"uint256"}],"stateMutability":"view","type":"function"},{"inputs":[{"internalType":"uint256","name":"amount","type":"uint256"}],"name":"withdrawFund","outputs":[],"stateMutability":"nonpayable","type":"function"}],"evm":{"bytecode":{"linkReferences":{},"object":"60e06001600160401b0362002632601f38829003908101601f191684019083821185831017620003a2578085936040938452843960a0948591810103126200039d576200004c82620003d4565b906020916200005d838501620003d4565b936200006b838201620003d4565b94608060608301519201519060019660009488865560ff19600e5416600e55831562000355578415620002fc57848410620002a5576001600160a01b03918216608052600280546001600160a01b0319908116948416949094179055600380549093169116179055600a8655600b55600c5581518681018681118282101762000291578352818152600a84820152600b838201526015606082015260386080820152600d54906005916005600d558060051062000265575b50600d835284832086845b8481106200024f575050505050603860c05260068383516200015081620003b8565b8281520165506c696e6b6f60d01b815220938383516200017081620003b8565b82815201603160f81b8152208251938401947f8b73c3c69bb8fe3d512ecc4cf759cc79239f7b179b0ffacaa9a75d522b39400f8652838501526060840152466080840152308684015285835260c0830194838610908611176200023b575083905251902082526122289182620003ea83396080518281816101ac0152818161061a01528181610ef90152818161126a01528181611305015281816114db015281816115c901528181611659015261168a015251816113e9015260c05181818161055501526112c10152f35b634e487b7160e01b81526041600452602490fd5b8760ff855116940193818401550187906200012e565b600d845286600587862092830192015b8281106200028557505062000123565b85815501879062000275565b634e487b7160e01b83526041600452602483fd5b6084888880519162461bcd60e51b8352600483015260248201526000805160206200261283398151915260448201527f6561746572207468616e20746865206d696e696d756d206265742076616c75656064820152fd5b865162461bcd60e51b815260048101899052602c60248201527f546865206d696e696d756d206265742076616c7565206d75737420626520677260448201526b06561746572207468616e20360a41b6064820152608490fd5b865162461bcd60e51b815260048101899052602c60248201526000805160206200261283398151915260448201526b06561746572207468616e20360a41b6064820152608490fd5b600080fd5b634e487b7160e01b600052604160045260246000fd5b604081019081106001600160401b03821117620003a257604052565b51906001600160a01b03821682036200039d5756fe6040608081526004908136101561001557600080fd5b600091823560e01c9081630cee172514610e5d5781631157b26714610dfc5781631617f19014610ddd57816322f0f2f914610d805781632678224714610d5857816328fc8b6814610cb55781633ab0f33014610c965781633b116d2714610c29578163452a932014610c005781634addd5f614610bab578163677660e014610adc57816369f2941d14610abd57816371d0008614610a17578163753868e3146109b7578163762c31ba1461098e578163847d1e90146108e05781638c51d1e41461083e5781639a138974146107415781639d1c35e2146105c95781639e09062814610578578163a48158e51461053d578163a4e2d63414610519578163a74b678314610459578163a9860b971461043a578163ba8a305c1461041b578163bff42fe4146103fc578163dccfac82146103c2578163e065fc93146102ed578163e1d8192c146102ce578163ed3cacc1146102af578163f301af421461027257508063f851a4401461024a578063fb49fe27146101df5763fc0c546a1461019957600080fd5b346101db57816003193601126101db57517f00000000000000000000000000000000000000000000000000000000000000006001600160a01b03168152602090f35b5080fd5b823461024757806003193601126102475761020560018060a01b03600354163314611125565b6bffffffffffffffffffffffff60a01b60065416600655806007557f7a81c642828249ae51a34cf52e35ebbf08bd3cb36fb5a4b4c8e80261893f5b818180a180f35b80fd5b50346101db57816003193601126101db5760025490516001600160a01b039091168152602090f35b9050346102ab5760203660031901126102ab573591600d54831015610247575061029d602092611028565b91905490519160031b1c8152f35b8280fd5b5050346101db57816003193601126101db576020906007549051908152f35b5050346101db57816003193601126101db576020906009549051908152f35b919050346102ab5760203660031901126102ab5781359161031960018060a01b03600254163314611075565b821561037457507fa9f6ef469a02717105903bbce25c47a4db6a0d759d929c5cd9bf295a7033b1749161036e91610353600c548311611bd2565b600b8290555133815260208101919091529081906040820190565b0390a180f35b6020608492519162461bcd60e51b8352820152602360248201527f546865206d617869756d206265742076616c756520677265617465722074686160448201526206e20360ec1b6064820152fd5b9050346102ab5760203660031901126102ab57356001600160a01b038116908190036102ab5782829160209452600f845220549051908152f35b5050346101db57816003193601126101db576020906005549051908152f35b5050346101db57816003193601126101db57602090600b549051908152f35b5050346101db57816003193601126101db57602090600a549051908152f35b8383346101db57816003193601126101db576002546001600160a01b0391906104853384831614611075565b845492831692610496841515611d38565b6005546104a4811515611d38565b6203f4808101809111610506577f7ce7ec0b50378fb6c0186ffb5f48325f6593fcb4ca4386f21861af3129188f5c9492602094926104e58993421015611c85565b6001600160a01b03199182168517600255169055600585905551908152a180f35b634e487b7160e01b865260118752602486fd5b5050346101db57816003193601126101db5760209060ff600e541690519015158152f35b5050346101db57816003193601126101db57602090517f00000000000000000000000000000000000000000000000000000000000000008152f35b833461024757806003193601126102475761059e60018060a01b03600354163314611125565b806008557f94a9b8fb6e694c6c0fbee0e13e1c5b9ae2dda4395e3495228a46dc717617c6fa8180a180f35b839150346101db57816003193601126101db576002546001600160a01b0391906105f69083163314611075565b6008546106f457835180926370a0823160e01b8252308383015281602460209586937f0000000000000000000000000000000000000000000000000000000000000000165afa9081156106ea5784916106b9575b501561068057507fe20350bd5ff90b7bdbcb8229cf46c222a5f5b18f094a1ac5962451445fda107691924260085551428152a180f35b60649184519162461bcd60e51b835282015260156024820152744e6f20746f6b656e7320746f20776974686472617760581b6044820152fd5b90508281813d83116106e3575b6106d081836111fd565b810103126106df57518561064a565b8380fd5b503d6106c6565b85513d86823e3d90fd5b608490602085519162461bcd60e51b8352820152602160248201527f5769746864726177616c207265717565737420697320696e2070726f677265736044820152607360f81b6064820152fd5b919050346102ab57826003193601126102ab5761076960018060a01b03600254163314611075565b60095491610778831515611ce2565b600a54610786811515611ce2565b6203f480810180911161082b5742106107d35750816020917f9dc86596ca5f70a96c96b2cb0be04f02b7da0a6261f97d43cebcc921020b1925936001558460095584600a5551908152a180f35b6020608492519162461bcd60e51b8352820152602d60248201527f4d75737420776169742033206461797320746f20636f6e6669726d207365656460448201526c207265656c73206368616e676560981b6064820152fd5b634e487b7160e01b855260118252602485fd5b919050346102ab5760203660031901126102ab5781356001600160a01b03818116939092908483036108dc577f72b357b8c271031aad940e03e51f8c172b495a1dd60d6e902d339c7f496041029461089e61036e95600254163314611075565b6108a9811515611171565b81546001600160a01b03191617905542600581905590516001600160a01b03909216825260208201529081906040820190565b8580fd5b8383346101db57816003193601126101db576003546001600160a01b03919061090c3384831614611125565b6006549283169261091e841515611c39565b60075461092c811515611c39565b6203f480810180911161050657916020939161096c7f01c6520cf747e4632b43b535b91afe3950ccabc4ab29bbd89e3c1f6b0ba056559694421015611c85565b6001600160a01b0319918216841760035516600655600785905551908152a180f35b5050346101db57816003193601126101db5760065490516001600160a01b039091168152602090f35b5050346101db57816003193601126101db5760207f46a289a85516d6b63cec7f685e3f5398070f9fc5fb8e3d14021add023fec568f91610a0260018060a01b03600354163314611125565b600160ff19600e541617600e5551338152a180f35b919050346102ab5760203660031901126102ab57813591610a4360018060a01b03600254163314611075565b6032831015610a825750816020917f9b161a37c93b297fe93d8f6f47f959bb91bd34a421b3892b0c91674ce107fb249360095542600a5551908152a180f35b6020606492519162461bcd60e51b83528201526016602482015275496e76616c69642077696e50726f626162696c69747960501b6044820152fd5b5050346101db57816003193601126101db576020906001549051908152f35b919050346102ab5760203660031901126102ab57813591610b0860018060a01b03600254163314611075565b8215610b5d57508161036e91610b427f96fd935283ebe139eff1231ba7e60b91334b7e1e1c67c91c68b58f8d4a7b211f94600b5411611bd2565b600c8290555133815260208101919091529081906040820190565b6020608492519162461bcd60e51b8352820152602360248201527f546865206d696e69756d206265742076616c756520677265617465722074686160448201526206e20360ec1b6064820152fd5b8334610247578060031936011261024757610bd160018060a01b03600254163314611075565b8060095580600a557f9ef48cacefe12ab0a801d57bc51beb3a36523278e29346ed78249364434565028180a180f35b5050346101db57816003193601126101db5760035490516001600160a01b039091168152602090f35b839060803660031901126101db576064359067ffffffffffffffff908183116106df57366023840112156106df57828101359182116106df5736602483850101116106df576024610c9393610c8360ff600e5416156110c1565b0190604435906024359035611232565b80f35b5050346101db57816003193601126101db576020906008549051908152f35b9050346102ab5760203660031901126102ab576001600160a01b03903581811692838203610d54577f6c437b1584202b77482374dd2215b75e975b0be0768b92ed5e4b048b0e10987993610d1161036e94600354163314611125565b610d1c811515611171565b600680546001600160a01b03191691909117905542600781905590516001600160a01b03909216825260208201529081906040820190565b8480fd5b9050346102ab57826003193601126102ab575490516001600160a01b03909116815260209150f35b5050346101db57816003193601126101db5760207ff08396b9fd122c2ef99aec183d994d39fa54cc25773e4b8a6ed20ad08aef02c991610dcb60018060a01b03600354163314611125565b60ff19600e5416600e5551338152a180f35b5050346101db57816003193601126101db57602090600c549051908152f35b8390346101db57816003193601126101db57610e2360018060a01b03600354163314611125565b80546001600160a01b031916905560058190557f07ad662e4db36fe46ee1697376f8457b103123c200de262ca4baf9f5cad0a1e88180a180f35b839150346101db5760203660031901126101db576002548135916001600160a01b0391821690610e8e338314611075565b6002855414610fe55760028555610eaa60ff600e5416156110c1565b6008548015610fac5762093a808101809111610f99574210610f4b5750839491610f1d84610f41937f09ad672d4e7c4892da934d1051932ebe9ec4b6ec8c3f40d569176db3e93e5abe976008557f0000000000000000000000000000000000000000000000000000000000000000611d84565b600254925192166001600160a01b0316825260208201929092529081906040820190565b0390a16001815580f35b608490602087519162461bcd60e51b8352820152602260248201527f4d75737420776169742037206461797320746f2077697468647261772066756e604482015261647360f01b6064820152fd5b634e487b7160e01b865260118252602486fd5b865162461bcd60e51b815260208184015260136024820152724e6f2070656e64696e6720776974686472617760681b6044820152606490fd5b606490602087519162461bcd60e51b8352820152601f60248201527f5265656e7472616e637947756172643a207265656e7472616e742063616c6c006044820152fd5b600d5481101561105f57600d6000527fd7b6990105719101dabeb77144f2a3385c8033acd3af97e9423a695e81ad1eb50190600090565b634e487b7160e01b600052603260045260246000fd5b1561107c57565b60405162461bcd60e51b815260206004820152601b60248201527f4f6e6c792061646d696e2063616e2065786563757465207468697300000000006044820152606490fd5b156110c857565b60405162461bcd60e51b815260206004820152601260248201527110dbdb9d1c9858dd081a5cc81b1bd8dad95960721b6044820152606490fd5b9190820180921161110f57565b634e487b7160e01b600052601160045260246000fd5b1561112c57565b60405162461bcd60e51b815260206004820152601e60248201527f4f6e6c7920677561726469616e2063616e2065786563757465207468697300006044820152606490fd5b1561117857565b60405162461bcd60e51b815260206004820152600f60248201526e496e76616c6964206164647265737360881b6044820152606490fd5b6060810190811067ffffffffffffffff8211176111cb57604052565b634e487b7160e01b600052604160045260246000fd5b60a0810190811067ffffffffffffffff8211176111cb57604052565b90601f8019910116810190811067ffffffffffffffff8211176111cb57604052565b8181029291811591840414171561110f57565b939092600c548410611b6757600b548411611b22578415611af05760198511611ab25760405163313ce56760e01b81526020816004817f00000000000000000000000000000000000000000000000000000000000000006001600160a01b03165afa90811561171757600091611a75575b5060ff16604d811161110f57600a0a85850411611a3857600a6112e67f00000000000000000000000000000000000000000000000000000000000000008661121f565b6040516370a0823160e01b8152306004820152919004906020816024817f00000000000000000000000000000000000000000000000000000000000000006001600160a01b03165afa90811561171757600091611a06575b50106119c15782421061197c57603c830180841161110f5742116119435733600052600f6020526040600020548311156118fe578260408051611380816111af565b338152866020820152015260405160208101907f0e81d1cdf23bdc0a6bef5035503a1014285a41cc67c1e91e29d9211b707e3cf98252336040820152856060820152846080820152608081526113d5816111e1565b5190206040519061190160f01b60208301527f0000000000000000000000000000000000000000000000000000000000000000602283015260428201526042815280608081011067ffffffffffffffff6080830111176111cb57608081016040526020815191012061144683611dc7565b9061145460405192836111fd565b838252368484011161170a5760006020856114829661147a968387013784010152611f3d565b919091611f75565b6002546001600160a01b039081169116036118c55733600052600f602052806040600020556114ff6040516323b872dd60e01b6020820152336024820152306044820152836064820152606481526114d9816111e1565b7f0000000000000000000000000000000000000000000000000000000000000000611e0f565b61150883611de3565b9061151660405192836111fd565b838252601f1961152585611de3565b0136602084013760405190611539826111af565b60038252600460208301526005604083015260405180604081011067ffffffffffffffff6040830111176111cb57604081016040526000815260016020820152600091600154916000194301914383115b898610611765575050505050505060009281519084925b8284106117235750506040516370a0823160e01b8152306004820152915060209050816024817f00000000000000000000000000000000000000000000000000000000000000006001600160a01b03165afa908115611717576000916116e0575b508211611682575061164d817fe8f062c04470f78a887153f0f4b52a017e7a9fcbcceb38366ff8e3013101f8c492611652575b60408051338152602081019290925290918291820190565b0390a1565b61167d81337f0000000000000000000000000000000000000000000000000000000000000000611d84565b611635565b6116ae9150337f0000000000000000000000000000000000000000000000000000000000000000611d84565b7fe8f062c04470f78a887153f0f4b52a017e7a9fcbcceb38366ff8e3013101f8c46040805133815260006020820152a1565b90506020813d60201161170f575b816116fb602093836111fd565b8101031261170a575138611602565b600080fd5b3d91506116ee565b6040513d6000823e3d90fd5b9091929461175b600191600a61175461174561173f8b88611dfb565b51611028565b90549060031b1c878a0461121f565b0490611102565b95019291906115a1565b60028601861161110f5761110f576064946103e86040513360601b602082015285406034820152446054820152600283016074820152607481526117a8816111e1565b60208151910120066117ba8184611102565b9086600098899360405160208101913360601b83528a4060348301524460548301526074820152607481526117ee816111e1565b519020061015611861576118029084611102565b9061110f5760039060405160208101913360601b835287406034830152446054830152607482015260748152611837816111e1565b5190200690600382101561105f5760019160051b880151611858828b611dfb565b525b019461158a565b61186c915083611102565b60405160208101913360601b835286406034830152446054830152607482015260748152611899816111e1565b51902090600260018316101561105f57602060019260051b168401516118bf828b611dfb565b5261185a565b60405162461bcd60e51b8152602060048201526011602482015270496e76616c6964207369676e617475726560781b6044820152606490fd5b60405162461bcd60e51b815260206004820152601760248201527f54696d657374616d70206d757374206265206e657765720000000000000000006044820152606490fd5b60405162461bcd60e51b8152602060048201526011602482015270151a5b595cdd185b5c08195e1c1a5c9959607a1b6044820152606490fd5b60405162461bcd60e51b815260206004820152601960248201527f54696d657374616d702066726f6d2074686520667574757265000000000000006044820152606490fd5b60405162461bcd60e51b815260206004820152601f60248201527f436f6e74726163742068617320696e73756666696369656e742066756e6473006044820152606490fd5b90506020813d602011611a30575b81611a21602093836111fd565b8101031261170a57513861133e565b3d9150611a14565b60405162461bcd60e51b81526020600482015260156024820152744d617820626574207065722062616c6c206973203160581b6044820152606490fd5b6020813d602011611aaa575b81611a8e602093836111fd565b810103126101db57519060ff82168203610247575060ff6112a3565b3d9150611a81565b60405162461bcd60e51b81526020600482015260166024820152754e756d2062616c6c206973206d6178696d756d20323560501b6044820152606490fd5b60405162461bcd60e51b815260206004820152600a60248201526904e756d2062616c6c20360b41b6044820152606490fd5b60405162461bcd60e51b815260206004820152601960248201527f4265742065786365656473206d6178696d756d206c696d6974000000000000006044820152606490fd5b60405162461bcd60e51b815260206004820152603e60248201527f5468652062657420616d6f756e74206d7573742062652067726561746572207460448201527f68616e20746865206d696e696d756d2072657175697265642076616c756500006064820152608490fd5b15611bd957565b60405162461bcd60e51b815260206004820152603260248201527f546865206d617869756d206265742076616c75652067726561746572207468616044820152716e206d696e69756d206265742076616c756560701b6064820152608490fd5b15611c4057565b60405162461bcd60e51b815260206004820152601a60248201527f4e6f2070656e64696e6720677561726469616e206368616e67650000000000006044820152606490fd5b15611c8c57565b60405162461bcd60e51b815260206004820152602860248201527f4d75737420776169742033206461797320746f20636f6e6669726d2061646d696044820152676e206368616e676560c01b6064820152608490fd5b15611ce957565b60405162461bcd60e51b815260206004820152602160248201527f4e6f2070656e64696e672077696e2070726f626162696c697479206368616e676044820152606560f81b6064820152608490fd5b15611d3f57565b60405162461bcd60e51b815260206004820152601760248201527f4e6f2070656e64696e672061646d696e206368616e67650000000000000000006044820152606490fd5b60405163a9059cbb60e01b60208201526001600160a01b03929092166024830152604480830193909352918152611dc591611dc06064836111fd565b611e0f565b565b67ffffffffffffffff81116111cb57601f01601f191660200190565b67ffffffffffffffff81116111cb5760051b60200190565b805182101561105f5760209160051b010190565b60018060a01b031690604051604081019080821067ffffffffffffffff8311176111cb57611e9f916040526020938482527f5361666545524332303a206c6f772d6c6576656c2063616c6c206661696c6564858301526000808587829751910182855af13d15611f35573d91611e8483611dc7565b92611e9260405194856111fd565b83523d868885013e61211e565b805191821591848315611f11575b505050905015611eba5750565b6084906040519062461bcd60e51b82526004820152602a60248201527f5361666545524332303a204552433230206f7065726174696f6e20646964206e6044820152691bdd081cdd58d8d9595960b21b6064820152fd5b9193818094500103126101db57820151908115158203610247575080388084611ead565b60609161211e565b906041815114600014611f6b57611f67916020820151906060604084015193015160001a9061208f565b9091565b5050600090600290565b60058110156120795780611f865750565b60018103611fd35760405162461bcd60e51b815260206004820152601860248201527f45434453413a20696e76616c6964207369676e617475726500000000000000006044820152606490fd5b600281036120205760405162461bcd60e51b815260206004820152601f60248201527f45434453413a20696e76616c6964207369676e6174757265206c656e677468006044820152606490fd5b60031461202957565b60405162461bcd60e51b815260206004820152602260248201527f45434453413a20696e76616c6964207369676e6174757265202773272076616c604482015261756560f01b6064820152608490fd5b634e487b7160e01b600052602160045260246000fd5b9291907f7fffffffffffffffffffffffffffffff5d576e7357a4501ddfe92f46681b20a083116121125791608094939160ff602094604051948552168484015260408301526060820152600093849182805260015afa156121055781516001600160a01b038116156120ff579190565b50600190565b50604051903d90823e3d90fd5b50505050600090600390565b919290156121805750815115612132575090565b3b1561213b5790565b60405162461bcd60e51b815260206004820152601d60248201527f416464726573733a2063616c6c20746f206e6f6e2d636f6e74726163740000006044820152606490fd5b8251909150156121935750805190602001fd5b6040519062461bcd60e51b82528160208060048301528251908160248401526000935b8285106121d9575050604492506000838284010152601f80199101168101030190fd5b84810182015186860160440152938101938593506121b656fea264697066735822122082f935a424cd1ee31192f27b4183863f7c9df8f9e32fe5b708ee12f9c88ed91264736f6c63430008180033546865206d6178696d756d206265742076616c7565206d757374206265206772","opcodes":"PUSH1 0xE0 PUSH1 0x1 PUSH1 0x1 PUSH1 0x40 SHL SUB PUSH3 0x2632 PUSH1 0x1F CODESIZE DUP3 SWAP1 SUB SWAP1 DUP2 ADD PUSH1 0x1F NOT AND DUP5 ADD SWAP1 DUP4 DUP3 GT DUP6 DUP4 LT OR PUSH3 0x3A2 JUMPI DUP1 DUP6 SWAP4 PUSH1 0x40 SWAP4 DUP5 MSTORE DUP5 CODECOPY PUSH1 0xA0 SWAP5 DUP6 SWAP2 DUP2 ADD SUB SLT PUSH3 0x39D JUMPI PUSH3 0x4C DUP3 PUSH3 0x3D4 JUMP JUMPDEST SWAP1 PUSH1 0x20 SWAP2 PUSH3 0x5D DUP4 DUP6 ADD PUSH3 0x3D4 JUMP JUMPDEST SWAP4 PUSH3 0x6B DUP4 DUP3 ADD PUSH3 0x3D4 JUMP JUMPDEST SWAP5 PUSH1 0x80 PUSH1 0x60 DUP4 ADD MLOAD SWAP3 ADD MLOAD SWAP1 PUSH1 0x1 SWAP7 PUSH1 0x0 SWAP5 DUP9 DUP7 SSTORE PUSH1 0xFF NOT PUSH1 0xE SLOAD AND PUSH1 0xE SSTORE DUP4 ISZERO PUSH3 0x355 JUMPI DUP5 ISZERO PUSH3 0x2FC JUMPI DUP5 DUP5 LT PUSH3 0x2A5 JUMPI PUSH1 0x1 PUSH1 0x1 PUSH1 0xA0 SHL SUB SWAP2 DUP3 AND PUSH1 0x80 MSTORE PUSH1 0x2 DUP1 SLOAD PUSH1 0x1 PUSH1 0x1 PUSH1 0xA0 SHL SUB NOT SWAP1 DUP2 AND SWAP5 DUP5 AND SWAP5 SWAP1 SWAP5 OR SWAP1 SSTORE PUSH1 0x3 DUP1 SLOAD SWAP1 SWAP4 AND SWAP2 AND OR SWAP1 SSTORE PUSH1 0xA DUP7 SSTORE PUSH1 0xB SSTORE PUSH1 0xC SSTORE DUP2 MLOAD DUP7 DUP2 ADD DUP7 DUP2 GT DUP3 DUP3 LT OR PUSH3 0x291 JUMPI DUP4 MSTORE DUP2 DUP2 MSTORE PUSH1 0xA DUP5 DUP3 ADD MSTORE PUSH1 0xB DUP4 DUP3 ADD MSTORE PUSH1 0x15 PUSH1 0x60 DUP3 ADD MSTORE PUSH1 0x38 PUSH1 0x80 DUP3 ADD MSTORE PUSH1 0xD SLOAD SWAP1 PUSH1 0x5 SWAP2 PUSH1 0x5 PUSH1 0xD SSTORE DUP1 PUSH1 0x5 LT PUSH3 0x265 JUMPI JUMPDEST POP PUSH1 0xD DUP4 MSTORE DUP5 DUP4 KECCAK256 DUP7 DUP5 JUMPDEST DUP5 DUP2 LT PUSH3 0x24F JUMPI POP POP POP POP POP PUSH1 0x38 PUSH1 0xC0 MSTORE PUSH1 0x6 DUP4 DUP4 MLOAD PUSH3 0x150 DUP2 PUSH3 0x3B8 JUMP JUMPDEST DUP3 DUP2 MSTORE ADD PUSH6 0x506C696E6B6F PUSH1 0xD0 SHL DUP2 MSTORE KECCAK256 SWAP4 DUP4 DUP4 MLOAD PUSH3 0x170 DUP2 PUSH3 0x3B8 JUMP JUMPDEST DUP3 DUP2 MSTORE ADD PUSH1 0x31 PUSH1 0xF8 SHL DUP2 MSTORE KECCAK256 DUP3 MLOAD SWAP4 DUP5 ADD SWAP5 PUSH32 0x8B73C3C69BB8FE3D512ECC4CF759CC79239F7B179B0FFACAA9A75D522B39400F DUP7 MSTORE DUP4 DUP6 ADD MSTORE PUSH1 0x60 DUP5 ADD MSTORE CHAINID PUSH1 0x80 DUP5 ADD MSTORE ADDRESS DUP7 DUP5 ADD MSTORE DUP6 DUP4 MSTORE PUSH1 0xC0 DUP4 ADD SWAP5 DUP4 DUP7 LT SWAP1 DUP7 GT OR PUSH3 0x23B JUMPI POP DUP4 SWAP1 MSTORE MLOAD SWAP1 KECCAK256 DUP3 MSTORE PUSH2 0x2228 SWAP2 DUP3 PUSH3 0x3EA DUP4 CODECOPY PUSH1 0x80 MLOAD DUP3 DUP2 DUP2 PUSH2 0x1AC ADD MSTORE DUP2 DUP2 PUSH2 0x61A ADD MSTORE DUP2 DUP2 PUSH2 0xEF9 ADD MSTORE DUP2 DUP2 PUSH2 0x126A ADD MSTORE DUP2 DUP2 PUSH2 0x1305 ADD MSTORE DUP2 DUP2 PUSH2 0x14DB ADD MSTORE DUP2 DUP2 PUSH2 0x15C9 ADD MSTORE DUP2 DUP2 PUSH2 0x1659 ADD MSTORE PUSH2 0x168A ADD MSTORE MLOAD DUP2 PUSH2 0x13E9 ADD MSTORE PUSH1 0xC0 MLOAD DUP2 DUP2 DUP2 PUSH2 0x555 ADD MSTORE PUSH2 0x12C1 ADD MSTORE RETURN JUMPDEST PUSH4 0x4E487B71 PUSH1 0xE0 SHL DUP2 MSTORE PUSH1 0x41 PUSH1 0x4 MSTORE PUSH1 0x24 SWAP1 REVERT JUMPDEST DUP8 PUSH1 0xFF DUP6 MLOAD AND SWAP5 ADD SWAP4 DUP2 DUP5 ADD SSTORE ADD DUP8 SWAP1 PUSH3 0x12E JUMP JUMPDEST PUSH1 0xD DUP5 MSTORE DUP7 PUSH1 0x5 DUP8 DUP7 KECCAK256 SWAP3 DUP4 ADD SWAP3 ADD JUMPDEST DUP3 DUP2 LT PUSH3 0x285 JUMPI POP POP PUSH3 0x123 JUMP JUMPDEST DUP6 DUP2 SSTORE ADD DUP8 SWAP1 PUSH3 0x275 JUMP JUMPDEST PUSH4 0x4E487B71 PUSH1 0xE0 SHL DUP4 MSTORE PUSH1 0x41 PUSH1 0x4 MSTORE PUSH1 0x24 DUP4 REVERT JUMPDEST PUSH1 0x84 DUP9 DUP9 DUP1 MLOAD SWAP2 PUSH3 0x461BCD PUSH1 0xE5 SHL DUP4 MSTORE PUSH1 0x4 DUP4 ADD MSTORE PUSH1 0x24 DUP3 ADD MSTORE PUSH1 0x0 DUP1 MLOAD PUSH1 0x20 PUSH3 0x2612 DUP4 CODECOPY DUP2 MLOAD SWAP2 MSTORE PUSH1 0x44 DUP3 ADD MSTORE PUSH32 0x6561746572207468616E20746865206D696E696D756D206265742076616C7565 PUSH1 0x64 DUP3 ADD MSTORE REVERT JUMPDEST DUP7 MLOAD PUSH3 0x461BCD PUSH1 0xE5 SHL DUP2 MSTORE PUSH1 0x4 DUP2 ADD DUP10 SWAP1 MSTORE PUSH1 0x2C PUSH1 0x24 DUP3 ADD MSTORE PUSH32 0x546865206D696E696D756D206265742076616C7565206D757374206265206772 PUSH1 0x44 DUP3 ADD MSTORE PUSH12 0x6561746572207468616E203 PUSH1 0xA4 SHL PUSH1 0x64 DUP3 ADD MSTORE PUSH1 0x84 SWAP1 REVERT JUMPDEST DUP7 MLOAD PUSH3 0x461BCD PUSH1 0xE5 SHL DUP2 MSTORE PUSH1 0x4 DUP2 ADD DUP10 SWAP1 MSTORE PUSH1 0x2C PUSH1 0x24 DUP3 ADD MSTORE PUSH1 0x0 DUP1 MLOAD PUSH1 0x20 PUSH3 0x2612 DUP4 CODECOPY DUP2 MLOAD SWAP2 MSTORE PUSH1 0x44 DUP3 ADD MSTORE PUSH12 0x6561746572207468616E203 PUSH1 0xA4 SHL PUSH1 0x64 DUP3 ADD MSTORE PUSH1 0x84 SWAP1 REVERT JUMPDEST PUSH1 0x0 DUP1 REVERT JUMPDEST PUSH4 0x4E487B71 PUSH1 0xE0 SHL PUSH1 0x0 MSTORE PUSH1 0x41 PUSH1 0x4 MSTORE PUSH1 0x24 PUSH1 0x0 REVERT JUMPDEST PUSH1 0x40 DUP2 ADD SWAP1 DUP2 LT PUSH1 0x1 PUSH1 0x1 PUSH1 0x40 SHL SUB DUP3 GT OR PUSH3 0x3A2 JUMPI PUSH1 0x40 MSTORE JUMP JUMPDEST MLOAD SWAP1 PUSH1 0x1 PUSH1 0x1 PUSH1 0xA0 SHL SUB DUP3 AND DUP3 SUB PUSH3 0x39D JUMPI JUMP INVALID PUSH1 0x40 PUSH1 0x80 DUP2 MSTORE PUSH1 0x4 SWAP1 DUP2 CALLDATASIZE LT ISZERO PUSH2 0x15 JUMPI PUSH1 0x0 DUP1 REVERT JUMPDEST PUSH1 0x0 SWAP2 DUP3 CALLDATALOAD PUSH1 0xE0 SHR SWAP1 DUP2 PUSH4 0xCEE1725 EQ PUSH2 0xE5D JUMPI DUP2 PUSH4 0x1157B267 EQ PUSH2 0xDFC JUMPI DUP2 PUSH4 0x1617F190 EQ PUSH2 0xDDD JUMPI DUP2 PUSH4 0x22F0F2F9 EQ PUSH2 0xD80 JUMPI DUP2 PUSH4 0x26782247 EQ PUSH2 0xD58 JUMPI DUP2 PUSH4 0x28FC8B68 EQ PUSH2 0xCB5 JUMPI DUP2 PUSH4 0x3AB0F330 EQ PUSH2 0xC96 JUMPI DUP2 PUSH4 0x3B116D27 EQ PUSH2 0xC29 JUMPI DUP2 PUSH4 0x452A9320 EQ PUSH2 0xC00 JUMPI DUP2 PUSH4 0x4ADDD5F6 EQ PUSH2 0xBAB JUMPI DUP2 PUSH4 0x677660E0 EQ PUSH2 0xADC JUMPI DUP2 PUSH4 0x69F2941D EQ PUSH2 0xABD JUMPI DUP2 PUSH4 0x71D00086 EQ PUSH2 0xA17 JUMPI DUP2 PUSH4 0x753868E3 EQ PUSH2 0x9B7 JUMPI DUP2 PUSH4 0x762C31BA EQ PUSH2 0x98E JUMPI DUP2 PUSH4 0x847D1E90 EQ PUSH2 0x8E0 JUMPI DUP2 PUSH4 0x8C51D1E4 EQ PUSH2 0x83E JUMPI DUP2 PUSH4 0x9A138974 EQ PUSH2 0x741 JUMPI DUP2 PUSH4 0x9D1C35E2 EQ PUSH2 0x5C9 JUMPI DUP2 PUSH4 0x9E090628 EQ PUSH2 0x578 JUMPI DUP2 PUSH4 0xA48158E5 EQ PUSH2 0x53D JUMPI DUP2 PUSH4 0xA4E2D634 EQ PUSH2 0x519 JUMPI DUP2 PUSH4 0xA74B6783 EQ PUSH2 0x459 JUMPI DUP2 PUSH4 0xA9860B97 EQ PUSH2 0x43A JUMPI DUP2 PUSH4 0xBA8A305C EQ PUSH2 0x41B JUMPI DUP2 PUSH4 0xBFF42FE4 EQ PUSH2 0x3FC JUMPI DUP2 PUSH4 0xDCCFAC82 EQ PUSH2 0x3C2 JUMPI DUP2 PUSH4 0xE065FC93 EQ PUSH2 0x2ED JUMPI DUP2 PUSH4 0xE1D8192C EQ PUSH2 0x2CE JUMPI DUP2 PUSH4 0xED3CACC1 EQ PUSH2 0x2AF JUMPI DUP2 PUSH4 0xF301AF42 EQ PUSH2 0x272 JUMPI POP DUP1 PUSH4 0xF851A440 EQ PUSH2 0x24A JUMPI DUP1 PUSH4 0xFB49FE27 EQ PUSH2 0x1DF JUMPI PUSH4 0xFC0C546A EQ PUSH2 0x199 JUMPI PUSH1 0x0 DUP1 REVERT JUMPDEST CALLVALUE PUSH2 0x1DB JUMPI DUP2 PUSH1 0x3 NOT CALLDATASIZE ADD SLT PUSH2 0x1DB JUMPI MLOAD PUSH32 0x0 PUSH1 0x1 PUSH1 0x1 PUSH1 0xA0 SHL SUB AND DUP2 MSTORE PUSH1 0x20 SWAP1 RETURN JUMPDEST POP DUP1 REVERT JUMPDEST DUP3 CALLVALUE PUSH2 0x247 JUMPI DUP1 PUSH1 0x3 NOT CALLDATASIZE ADD SLT PUSH2 0x247 JUMPI PUSH2 0x205 PUSH1 0x1 DUP1 PUSH1 0xA0 SHL SUB PUSH1 0x3 SLOAD AND CALLER EQ PUSH2 0x1125 JUMP JUMPDEST PUSH12 0xFFFFFFFFFFFFFFFFFFFFFFFF PUSH1 0xA0 SHL PUSH1 0x6 SLOAD AND PUSH1 0x6 SSTORE DUP1 PUSH1 0x7 SSTORE PUSH32 0x7A81C642828249AE51A34CF52E35EBBF08BD3CB36FB5A4B4C8E80261893F5B81 DUP2 DUP1 LOG1 DUP1 RETURN JUMPDEST DUP1 REVERT JUMPDEST POP CALLVALUE PUSH2 0x1DB JUMPI DUP2 PUSH1 0x3 NOT CALLDATASIZE ADD SLT PUSH2 0x1DB JUMPI PUSH1 0x2 SLOAD SWAP1 MLOAD PUSH1 0x1 PUSH1 0x1 PUSH1 0xA0 SHL SUB SWAP1 SWAP2 AND DUP2 MSTORE PUSH1 0x20 SWAP1 RETURN JUMPDEST SWAP1 POP CALLVALUE PUSH2 0x2AB JUMPI PUSH1 0x20 CALLDATASIZE PUSH1 0x3 NOT ADD SLT PUSH2 0x2AB JUMPI CALLDATALOAD SWAP2 PUSH1 0xD SLOAD DUP4 LT ISZERO PUSH2 0x247 JUMPI POP PUSH2 0x29D PUSH1 0x20 SWAP3 PUSH2 0x1028 JUMP JUMPDEST SWAP2 SWAP1 SLOAD SWAP1 MLOAD SWAP2 PUSH1 0x3 SHL SHR DUP2 MSTORE RETURN JUMPDEST DUP3 DUP1 REVERT JUMPDEST POP POP CALLVALUE PUSH2 0x1DB JUMPI DUP2 PUSH1 0x3 NOT CALLDATASIZE ADD SLT PUSH2 0x1DB JUMPI PUSH1 0x20 SWAP1 PUSH1 0x7 SLOAD SWAP1 MLOAD SWAP1 DUP2 MSTORE RETURN JUMPDEST POP POP CALLVALUE PUSH2 0x1DB JUMPI DUP2 PUSH1 0x3 NOT CALLDATASIZE ADD SLT PUSH2 0x1DB JUMPI PUSH1 0x20 SWAP1 PUSH1 0x9 SLOAD SWAP1 MLOAD SWAP1 DUP2 MSTORE RETURN JUMPDEST SWAP2 SWAP1 POP CALLVALUE PUSH2 0x2AB JUMPI PUSH1 0x20 CALLDATASIZE PUSH1 0x3 NOT ADD SLT PUSH2 0x2AB JUMPI DUP2 CALLDATALOAD SWAP2 PUSH2 0x319 PUSH1 0x1 DUP1 PUSH1 0xA0 SHL SUB PUSH1 0x2 SLOAD AND CALLER EQ PUSH2 0x1075 JUMP JUMPDEST DUP3 ISZERO PUSH2 0x374 JUMPI POP PUSH32 0xA9F6EF469A02717105903BBCE25C47A4DB6A0D759D929C5CD9BF295A7033B174 SWAP2 PUSH2 0x36E SWAP2 PUSH2 0x353 PUSH1 0xC SLOAD DUP4 GT PUSH2 0x1BD2 JUMP JUMPDEST PUSH1 0xB DUP3 SWAP1 SSTORE MLOAD CALLER DUP2 MSTORE PUSH1 0x20 DUP2 ADD SWAP2 SWAP1 SWAP2 MSTORE SWAP1 DUP2 SWAP1 PUSH1 0x40 DUP3 ADD SWAP1 JUMP JUMPDEST SUB SWAP1 LOG1 DUP1 RETURN JUMPDEST PUSH1 0x20 PUSH1 0x84 SWAP3 MLOAD SWAP2 PUSH3 0x461BCD PUSH1 0xE5 SHL DUP4 MSTORE DUP3 ADD MSTORE PUSH1 0x23 PUSH1 0x24 DUP3 ADD MSTORE PUSH32 0x546865206D617869756D206265742076616C7565206772656174657220746861 PUSH1 0x44 DUP3 ADD MSTORE PUSH3 0x6E203 PUSH1 0xEC SHL PUSH1 0x64 DUP3 ADD MSTORE REVERT JUMPDEST SWAP1 POP CALLVALUE PUSH2 0x2AB JUMPI PUSH1 0x20 CALLDATASIZE PUSH1 0x3 NOT ADD SLT PUSH2 0x2AB JUMPI CALLDATALOAD PUSH1 0x1 PUSH1 0x1 PUSH1 0xA0 SHL SUB DUP2 AND SWAP1 DUP2 SWAP1 SUB PUSH2 0x2AB JUMPI DUP3 DUP3 SWAP2 PUSH1 0x20 SWAP5 MSTORE PUSH1 0xF DUP5 MSTORE KECCAK256 SLOAD SWAP1 MLOAD SWAP1 DUP2 MSTORE RETURN JUMPDEST POP POP CALLVALUE PUSH2 0x1DB JUMPI DUP2 PUSH1 0x3 NOT CALLDATASIZE ADD SLT PUSH2 0x1DB JUMPI PUSH1 0x20 SWAP1 PUSH1 0x5 SLOAD SWAP1 MLOAD SWAP1 DUP2 MSTORE RETURN JUMPDEST POP POP CALLVALUE PUSH2 0x1DB JUMPI DUP2 PUSH1 0x3 NOT CALLDATASIZE ADD SLT PUSH2 0x1DB JUMPI PUSH1 0x20 SWAP1 PUSH1 0xB SLOAD SWAP1 MLOAD SWAP1 DUP2 MSTORE RETURN JUMPDEST POP POP CALLVALUE PUSH2 0x1DB JUMPI DUP2 PUSH1 0x3 NOT CALLDATASIZE ADD SLT PUSH2 0x1DB JUMPI PUSH1 0x20 SWAP1 PUSH1 0xA SLOAD SWAP1 MLOAD SWAP1 DUP2 MSTORE RETURN JUMPDEST DUP4 DUP4 CALLVALUE PUSH2 0x1DB JUMPI DUP2 PUSH1 0x3 NOT CALLDATASIZE ADD SLT PUSH2 0x1DB JUMPI PUSH1 0x2 SLOAD PUSH1 0x1 PUSH1 0x1 PUSH1 0xA0 SHL SUB SWAP2 SWAP1 PUSH2 0x485 CALLER DUP5 DUP4 AND EQ PUSH2 0x1075 JUMP JUMPDEST DUP5 SLOAD SWAP3 DUP4 AND SWAP3 PUSH2 0x496 DUP5 ISZERO ISZERO PUSH2 0x1D38 JUMP JUMPDEST PUSH1 0x5 SLOAD PUSH2 0x4A4 DUP2 ISZERO ISZERO PUSH2 0x1D38 JUMP JUMPDEST PUSH3 0x3F480 DUP2 ADD DUP1 SWAP2 GT PUSH2 0x506 JUMPI PUSH32 0x7CE7EC0B50378FB6C0186FFB5F48325F6593FCB4CA4386F21861AF3129188F5C SWAP5 SWAP3 PUSH1 0x20 SWAP5 SWAP3 PUSH2 0x4E5 DUP10 SWAP4 TIMESTAMP LT ISZERO PUSH2 0x1C85 JUMP JUMPDEST PUSH1 0x1 PUSH1 0x1 PUSH1 0xA0 SHL SUB NOT SWAP2 DUP3 AND DUP6 OR PUSH1 0x2 SSTORE AND SWAP1 SSTORE PUSH1 0x5 DUP6 SWAP1 SSTORE MLOAD SWAP1 DUP2 MSTORE LOG1 DUP1 RETURN JUMPDEST PUSH4 0x4E487B71 PUSH1 0xE0 SHL DUP7 MSTORE PUSH1 0x11 DUP8 MSTORE PUSH1 0x24 DUP7 REVERT JUMPDEST POP POP CALLVALUE PUSH2 0x1DB JUMPI DUP2 PUSH1 0x3 NOT CALLDATASIZE ADD SLT PUSH2 0x1DB JUMPI PUSH1 0x20 SWAP1 PUSH1 0xFF PUSH1 0xE SLOAD AND SWAP1 MLOAD SWAP1 ISZERO ISZERO DUP2 MSTORE RETURN JUMPDEST POP POP CALLVALUE PUSH2 0x1DB JUMPI DUP2 PUSH1 0x3 NOT CALLDATASIZE ADD SLT PUSH2 0x1DB JUMPI PUSH1 0x20 SWAP1 MLOAD PUSH32 0x0 DUP2 MSTORE RETURN JUMPDEST DUP4 CALLVALUE PUSH2 0x247 JUMPI DUP1 PUSH1 0x3 NOT CALLDATASIZE ADD SLT PUSH2 0x247 JUMPI PUSH2 0x59E PUSH1 0x1 DUP1 PUSH1 0xA0 SHL SUB PUSH1 0x3 SLOAD AND CALLER EQ PUSH2 0x1125 JUMP JUMPDEST DUP1 PUSH1 0x8 SSTORE PUSH32 0x94A9B8FB6E694C6C0FBEE0E13E1C5B9AE2DDA4395E3495228A46DC717617C6FA DUP2 DUP1 LOG1 DUP1 RETURN JUMPDEST DUP4 SWAP2 POP CALLVALUE PUSH2 0x1DB JUMPI DUP2 PUSH1 0x3 NOT CALLDATASIZE ADD SLT PUSH2 0x1DB JUMPI PUSH1 0x2 SLOAD PUSH1 0x1 PUSH1 0x1 PUSH1 0xA0 SHL SUB SWAP2 SWAP1 PUSH2 0x5F6 SWAP1 DUP4 AND CALLER EQ PUSH2 0x1075 JUMP JUMPDEST PUSH1 0x8 SLOAD PUSH2 0x6F4 JUMPI DUP4 MLOAD DUP1 SWAP3 PUSH4 0x70A08231 PUSH1 0xE0 SHL DUP3 MSTORE ADDRESS DUP4 DUP4 ADD MSTORE DUP2 PUSH1 0x24 PUSH1 0x20 SWAP6 DUP7 SWAP4 PUSH32 0x0 AND GAS STATICCALL SWAP1 DUP2 ISZERO PUSH2 0x6EA JUMPI DUP5 SWAP2 PUSH2 0x6B9 JUMPI JUMPDEST POP ISZERO PUSH2 0x680 JUMPI POP PUSH32 0xE20350BD5FF90B7BDBCB8229CF46C222A5F5B18F094A1AC5962451445FDA1076 SWAP2 SWAP3 TIMESTAMP PUSH1 0x8 SSTORE MLOAD TIMESTAMP DUP2 MSTORE LOG1 DUP1 RETURN JUMPDEST PUSH1 0x64 SWAP2 DUP5 MLOAD SWAP2 PUSH3 0x461BCD PUSH1 0xE5 SHL DUP4 MSTORE DUP3 ADD MSTORE PUSH1 0x15 PUSH1 0x24 DUP3 ADD MSTORE PUSH21 0x4E6F20746F6B656E7320746F207769746864726177 PUSH1 0x58 SHL PUSH1 0x44 DUP3 ADD MSTORE REVERT JUMPDEST SWAP1 POP DUP3 DUP2 DUP2 RETURNDATASIZE DUP4 GT PUSH2 0x6E3 JUMPI JUMPDEST PUSH2 0x6D0 DUP2 DUP4 PUSH2 0x11FD JUMP JUMPDEST DUP2 ADD SUB SLT PUSH2 0x6DF JUMPI MLOAD DUP6 PUSH2 0x64A JUMP JUMPDEST DUP4 DUP1 REVERT JUMPDEST POP RETURNDATASIZE PUSH2 0x6C6 JUMP JUMPDEST DUP6 MLOAD RETURNDATASIZE DUP7 DUP3 RETURNDATACOPY RETURNDATASIZE SWAP1 REVERT JUMPDEST PUSH1 0x84 SWAP1 PUSH1 0x20 DUP6 MLOAD SWAP2 PUSH3 0x461BCD PUSH1 0xE5 SHL DUP4 MSTORE DUP3 ADD MSTORE PUSH1 0x21 PUSH1 0x24 DUP3 ADD MSTORE PUSH32 0x5769746864726177616C207265717565737420697320696E2070726F67726573 PUSH1 0x44 DUP3 ADD MSTORE PUSH1 0x73 PUSH1 0xF8 SHL PUSH1 0x64 DUP3 ADD MSTORE REVERT JUMPDEST SWAP2 SWAP1 POP CALLVALUE PUSH2 0x2AB JUMPI DUP3 PUSH1 0x3 NOT CALLDATASIZE ADD SLT PUSH2 0x2AB JUMPI PUSH2 0x769 PUSH1 0x1 DUP1 PUSH1 0xA0 SHL SUB PUSH1 0x2 SLOAD AND CALLER EQ PUSH2 0x1075 JUMP JUMPDEST PUSH1 0x9 SLOAD SWAP2 PUSH2 0x778 DUP4 ISZERO ISZERO PUSH2 0x1CE2 JUMP JUMPDEST PUSH1 0xA SLOAD PUSH2 0x786 DUP2 ISZERO ISZERO PUSH2 0x1CE2 JUMP JUMPDEST PUSH3 0x3F480 DUP2 ADD DUP1 SWAP2 GT PUSH2 0x82B JUMPI TIMESTAMP LT PUSH2 0x7D3 JUMPI POP DUP2 PUSH1 0x20 SWAP2 PUSH32 0x9DC86596CA5F70A96C96B2CB0BE04F02B7DA0A6261F97D43CEBCC921020B1925 SWAP4 PUSH1 0x1 SSTORE DUP5 PUSH1 0x9 SSTORE DUP5 PUSH1 0xA SSTORE MLOAD SWAP1 DUP2 MSTORE LOG1 DUP1 RETURN JUMPDEST PUSH1 0x20 PUSH1 0x84 SWAP3 MLOAD SWAP2 PUSH3 0x461BCD PUSH1 0xE5 SHL DUP4 MSTORE DUP3 ADD MSTORE PUSH1 0x2D PUSH1 0x24 DUP3 ADD MSTORE PUSH32 0x4D75737420776169742033206461797320746F20636F6E6669726D2073656564 PUSH1 0x44 DUP3 ADD MSTORE PUSH13 0x207265656C73206368616E6765 PUSH1 0x98 SHL PUSH1 0x64 DUP3 ADD MSTORE REVERT JUMPDEST PUSH4 0x4E487B71 PUSH1 0xE0 SHL DUP6 MSTORE PUSH1 0x11 DUP3 MSTORE PUSH1 0x24 DUP6 REVERT JUMPDEST SWAP2 SWAP1 POP CALLVALUE PUSH2 0x2AB JUMPI PUSH1 0x20 CALLDATASIZE PUSH1 0x3 NOT ADD SLT PUSH2 0x2AB JUMPI DUP2 CALLDATALOAD PUSH1 0x1 PUSH1 0x1 PUSH1 0xA0 SHL SUB DUP2 DUP2 AND SWAP4 SWAP1 SWAP3 SWAP1 DUP5 DUP4 SUB PUSH2 0x8DC JUMPI PUSH32 0x72B357B8C271031AAD940E03E51F8C172B495A1DD60D6E902D339C7F49604102 SWAP5 PUSH2 0x89E PUSH2 0x36E SWAP6 PUSH1 0x2 SLOAD AND CALLER EQ PUSH2 0x1075 JUMP JUMPDEST PUSH2 0x8A9 DUP2 ISZERO ISZERO PUSH2 0x1171 JUMP JUMPDEST DUP2 SLOAD PUSH1 0x1 PUSH1 0x1 PUSH1 0xA0 SHL SUB NOT AND OR SWAP1 SSTORE TIMESTAMP PUSH1 0x5 DUP2 SWAP1 SSTORE SWAP1 MLOAD PUSH1 0x1 PUSH1 0x1 PUSH1 0xA0 SHL SUB SWAP1 SWAP3 AND DUP3 MSTORE PUSH1 0x20 DUP3 ADD MSTORE SWAP1 DUP2 SWAP1 PUSH1 0x40 DUP3 ADD SWAP1 JUMP JUMPDEST DUP6 DUP1 REVERT JUMPDEST DUP4 DUP4 CALLVALUE PUSH2 0x1DB JUMPI DUP2 PUSH1 0x3 NOT CALLDATASIZE ADD SLT PUSH2 0x1DB JUMPI PUSH1 0x3 SLOAD PUSH1 0x1 PUSH1 0x1 PUSH1 0xA0 SHL SUB SWAP2 SWAP1 PUSH2 0x90C CALLER DUP5 DUP4 AND EQ PUSH2 0x1125 JUMP JUMPDEST PUSH1 0x6 SLOAD SWAP3 DUP4 AND SWAP3 PUSH2 0x91E DUP5 ISZERO ISZERO PUSH2 0x1C39 JUMP JUMPDEST PUSH1 0x7 SLOAD PUSH2 0x92C DUP2 ISZERO ISZERO PUSH2 0x1C39 JUMP JUMPDEST PUSH3 0x3F480 DUP2 ADD DUP1 SWAP2 GT PUSH2 0x506 JUMPI SWAP2 PUSH1 0x20 SWAP4 SWAP2 PUSH2 0x96C PUSH32 0x1C6520CF747E4632B43B535B91AFE3950CCABC4AB29BBD89E3C1F6B0BA05655 SWAP7 SWAP5 TIMESTAMP LT ISZERO PUSH2 0x1C85 JUMP JUMPDEST PUSH1 0x1 PUSH1 0x1 PUSH1 0xA0 SHL SUB NOT SWAP2 DUP3 AND DUP5 OR PUSH1 0x3 SSTORE AND PUSH1 0x6 SSTORE PUSH1 0x7 DUP6 SWAP1 SSTORE MLOAD SWAP1 DUP2 MSTORE LOG1 DUP1 RETURN JUMPDEST POP POP CALLVALUE PUSH2 0x1DB JUMPI DUP2 PUSH1 0x3 NOT CALLDATASIZE ADD SLT PUSH2 0x1DB JUMPI PUSH1 0x6 SLOAD SWAP1 MLOAD PUSH1 0x1 PUSH1 0x1 PUSH1 0xA0 SHL SUB SWAP1 SWAP2 AND DUP2 MSTORE PUSH1 0x20 SWAP1 RETURN JUMPDEST POP POP CALLVALUE PUSH2 0x1DB JUMPI DUP2 PUSH1 0x3 NOT CALLDATASIZE ADD SLT PUSH2 0x1DB JUMPI PUSH1 0x20 PUSH32 0x46A289A85516D6B63CEC7F685E3F5398070F9FC5FB8E3D14021ADD023FEC568F SWAP2 PUSH2 0xA02 PUSH1 0x1 DUP1 PUSH1 0xA0 SHL SUB PUSH1 0x3 SLOAD AND CALLER EQ PUSH2 0x1125 JUMP JUMPDEST PUSH1 0x1 PUSH1 0xFF NOT PUSH1 0xE SLOAD AND OR PUSH1 0xE SSTORE MLOAD CALLER DUP2 MSTORE LOG1 DUP1 RETURN JUMPDEST SWAP2 SWAP1 POP CALLVALUE PUSH2 0x2AB JUMPI PUSH1 0x20 CALLDATASIZE PUSH1 0x3 NOT ADD SLT PUSH2 0x2AB JUMPI DUP2 CALLDATALOAD SWAP2 PUSH2 0xA43 PUSH1 0x1 DUP1 PUSH1 0xA0 SHL SUB PUSH1 0x2 SLOAD AND CALLER EQ PUSH2 0x1075 JUMP JUMPDEST PUSH1 0x32 DUP4 LT ISZERO PUSH2 0xA82 JUMPI POP DUP2 PUSH1 0x20 SWAP2 PUSH32 0x9B161A37C93B297FE93D8F6F47F959BB91BD34A421B3892B0C91674CE107FB24 SWAP4 PUSH1 0x9 SSTORE TIMESTAMP PUSH1 0xA SSTORE MLOAD SWAP1 DUP2 MSTORE LOG1 DUP1 RETURN JUMPDEST PUSH1 0x20 PUSH1 0x64 SWAP3 MLOAD SWAP2 PUSH3 0x461BCD PUSH1 0xE5 SHL DUP4 MSTORE DUP3 ADD MSTORE PUSH1 0x16 PUSH1 0x24 DUP3 ADD MSTORE PUSH22 0x496E76616C69642077696E50726F626162696C697479 PUSH1 0x50 SHL PUSH1 0x44 DUP3 ADD MSTORE REVERT JUMPDEST POP POP CALLVALUE PUSH2 0x1DB JUMPI DUP2 PUSH1 0x3 NOT CALLDATASIZE ADD SLT PUSH2 0x1DB JUMPI PUSH1 0x20 SWAP1 PUSH1 0x1 SLOAD SWAP1 MLOAD SWAP1 DUP2 MSTORE RETURN JUMPDEST SWAP2 SWAP1 POP CALLVALUE PUSH2 0x2AB JUMPI PUSH1 0x20 CALLDATASIZE PUSH1 0x3 NOT ADD SLT PUSH2 0x2AB JUMPI DUP2 CALLDATALOAD SWAP2 PUSH2 0xB08 PUSH1 0x1 DUP1 PUSH1 0xA0 SHL SUB PUSH1 0x2 SLOAD AND CALLER EQ PUSH2 0x1075 JUMP JUMPDEST DUP3 ISZERO PUSH2 0xB5D JUMPI POP DUP2 PUSH2 0x36E SWAP2 PUSH2 0xB42 PUSH32 0x96FD935283EBE139EFF1231BA7E60B91334B7E1E1C67C91C68B58F8D4A7B211F SWAP5 PUSH1 0xB SLOAD GT PUSH2 0x1BD2 JUMP JUMPDEST PUSH1 0xC DUP3 SWAP1 SSTORE MLOAD CALLER DUP2 MSTORE PUSH1 0x20 DUP2 ADD SWAP2 SWAP1 SWAP2 MSTORE SWAP1 DUP2 SWAP1 PUSH1 0x40 DUP3 ADD SWAP1 JUMP JUMPDEST PUSH1 0x20 PUSH1 0x84 SWAP3 MLOAD SWAP2 PUSH3 0x461BCD PUSH1 0xE5 SHL DUP4 MSTORE DUP3 ADD MSTORE PUSH1 0x23 PUSH1 0x24 DUP3 ADD MSTORE PUSH32 0x546865206D696E69756D206265742076616C7565206772656174657220746861 PUSH1 0x44 DUP3 ADD MSTORE PUSH3 0x6E203 PUSH1 0xEC SHL PUSH1 0x64 DUP3 ADD MSTORE REVERT JUMPDEST DUP4 CALLVALUE PUSH2 0x247 JUMPI DUP1 PUSH1 0x3 NOT CALLDATASIZE ADD SLT PUSH2 0x247 JUMPI PUSH2 0xBD1 PUSH1 0x1 DUP1 PUSH1 0xA0 SHL SUB PUSH1 0x2 SLOAD AND CALLER EQ PUSH2 0x1075 JUMP JUMPDEST DUP1 PUSH1 0x9 SSTORE DUP1 PUSH1 0xA SSTORE PUSH32 0x9EF48CACEFE12AB0A801D57BC51BEB3A36523278E29346ED7824936443456502 DUP2 DUP1 LOG1 DUP1 RETURN JUMPDEST POP POP CALLVALUE PUSH2 0x1DB JUMPI DUP2 PUSH1 0x3 NOT CALLDATASIZE ADD SLT PUSH2 0x1DB JUMPI PUSH1 0x3 SLOAD SWAP1 MLOAD PUSH1 0x1 PUSH1 0x1 PUSH1 0xA0 SHL SUB SWAP1 SWAP2 AND DUP2 MSTORE PUSH1 0x20 SWAP1 RETURN JUMPDEST DUP4 SWAP1 PUSH1 0x80 CALLDATASIZE PUSH1 0x3 NOT ADD SLT PUSH2 0x1DB JUMPI PUSH1 0x64 CALLDATALOAD SWAP1 PUSH8 0xFFFFFFFFFFFFFFFF SWAP1 DUP2 DUP4 GT PUSH2 0x6DF JUMPI CALLDATASIZE PUSH1 0x23 DUP5 ADD SLT ISZERO PUSH2 0x6DF JUMPI DUP3 DUP2 ADD CALLDATALOAD SWAP2 DUP3 GT PUSH2 0x6DF JUMPI CALLDATASIZE PUSH1 0x24 DUP4 DUP6 ADD ADD GT PUSH2 0x6DF JUMPI PUSH1 0x24 PUSH2 0xC93 SWAP4 PUSH2 0xC83 PUSH1 0xFF PUSH1 0xE SLOAD AND ISZERO PUSH2 0x10C1 JUMP JUMPDEST ADD SWAP1 PUSH1 0x44 CALLDATALOAD SWAP1 PUSH1 0x24 CALLDATALOAD SWAP1 CALLDATALOAD PUSH2 0x1232 JUMP JUMPDEST DUP1 RETURN JUMPDEST POP POP CALLVALUE PUSH2 0x1DB JUMPI DUP2 PUSH1 0x3 NOT CALLDATASIZE ADD SLT PUSH2 0x1DB JUMPI PUSH1 0x20 SWAP1 PUSH1 0x8 SLOAD SWAP1 MLOAD SWAP1 DUP2 MSTORE RETURN JUMPDEST SWAP1 POP CALLVALUE PUSH2 0x2AB JUMPI PUSH1 0x20 CALLDATASIZE PUSH1 0x3 NOT ADD SLT PUSH2 0x2AB JUMPI PUSH1 0x1 PUSH1 0x1 PUSH1 0xA0 SHL SUB SWAP1 CALLDATALOAD DUP2 DUP2 AND SWAP3 DUP4 DUP3 SUB PUSH2 0xD54 JUMPI PUSH32 0x6C437B1584202B77482374DD2215B75E975B0BE0768B92ED5E4B048B0E109879 SWAP4 PUSH2 0xD11 PUSH2 0x36E SWAP5 PUSH1 0x3 SLOAD AND CALLER EQ PUSH2 0x1125 JUMP JUMPDEST PUSH2 0xD1C DUP2 ISZERO ISZERO PUSH2 0x1171 JUMP JUMPDEST PUSH1 0x6 DUP1 SLOAD PUSH1 0x1 PUSH1 0x1 PUSH1 0xA0 SHL SUB NOT AND SWAP2 SWAP1 SWAP2 OR SWAP1 SSTORE TIMESTAMP PUSH1 0x7 DUP2 SWAP1 SSTORE SWAP1 MLOAD PUSH1 0x1 PUSH1 0x1 PUSH1 0xA0 SHL SUB SWAP1 SWAP3 AND DUP3 MSTORE PUSH1 0x20 DUP3 ADD MSTORE SWAP1 DUP2 SWAP1 PUSH1 0x40 DUP3 ADD SWAP1 JUMP JUMPDEST DUP5 DUP1 REVERT JUMPDEST SWAP1 POP CALLVALUE PUSH2 0x2AB JUMPI DUP3 PUSH1 0x3 NOT CALLDATASIZE ADD SLT PUSH2 0x2AB JUMPI SLOAD SWAP1 MLOAD PUSH1 0x1 PUSH1 0x1 PUSH1 0xA0 SHL SUB SWAP1 SWAP2 AND DUP2 MSTORE PUSH1 0x20 SWAP2 POP RETURN JUMPDEST POP POP CALLVALUE PUSH2 0x1DB JUMPI DUP2 PUSH1 0x3 NOT CALLDATASIZE ADD SLT PUSH2 0x1DB JUMPI PUSH1 0x20 PUSH32 0xF08396B9FD122C2EF99AEC183D994D39FA54CC25773E4B8A6ED20AD08AEF02C9 SWAP2 PUSH2 0xDCB PUSH1 0x1 DUP1 PUSH1 0xA0 SHL SUB PUSH1 0x3 SLOAD AND CALLER EQ PUSH2 0x1125 JUMP JUMPDEST PUSH1 0xFF NOT PUSH1 0xE SLOAD AND PUSH1 0xE SSTORE MLOAD CALLER DUP2 MSTORE LOG1 DUP1 RETURN JUMPDEST POP POP CALLVALUE PUSH2 0x1DB JUMPI DUP2 PUSH1 0x3 NOT CALLDATASIZE ADD SLT PUSH2 0x1DB JUMPI PUSH1 0x20 SWAP1 PUSH1 0xC SLOAD SWAP1 MLOAD SWAP1 DUP2 MSTORE RETURN JUMPDEST DUP4 SWAP1 CALLVALUE PUSH2 0x1DB JUMPI DUP2 PUSH1 0x3 NOT CALLDATASIZE ADD SLT PUSH2 0x1DB JUMPI PUSH2 0xE23 PUSH1 0x1 DUP1 PUSH1 0xA0 SHL SUB PUSH1 0x3 SLOAD AND CALLER EQ PUSH2 0x1125 JUMP JUMPDEST DUP1 SLOAD PUSH1 0x1 PUSH1 0x1 PUSH1 0xA0 SHL SUB NOT AND SWAP1 SSTORE PUSH1 0x5 DUP2 SWAP1 SSTORE PUSH32 0x7AD662E4DB36FE46EE1697376F8457B103123C200DE262CA4BAF9F5CAD0A1E8 DUP2 DUP1 LOG1 DUP1 RETURN JUMPDEST DUP4 SWAP2 POP CALLVALUE PUSH2 0x1DB JUMPI PUSH1 0x20 CALLDATASIZE PUSH1 0x3 NOT ADD SLT PUSH2 0x1DB JUMPI PUSH1 0x2 SLOAD DUP2 CALLDATALOAD SWAP2 PUSH1 0x1 PUSH1 0x1 PUSH1 0xA0 SHL SUB SWAP2 DUP3 AND SWAP1 PUSH2 0xE8E CALLER DUP4 EQ PUSH2 0x1075 JUMP JUMPDEST PUSH1 0x2 DUP6 SLOAD EQ PUSH2 0xFE5 JUMPI PUSH1 0x2 DUP6 SSTORE PUSH2 0xEAA PUSH1 0xFF PUSH1 0xE SLOAD AND ISZERO PUSH2 0x10C1 JUMP JUMPDEST PUSH1 0x8 SLOAD DUP1 ISZERO PUSH2 0xFAC JUMPI PUSH3 0x93A80 DUP2 ADD DUP1 SWAP2 GT PUSH2 0xF99 JUMPI TIMESTAMP LT PUSH2 0xF4B JUMPI POP DUP4 SWAP5 SWAP2 PUSH2 0xF1D DUP5 PUSH2 0xF41 SWAP4 PUSH32 0x9AD672D4E7C4892DA934D1051932EBE9EC4B6EC8C3F40D569176DB3E93E5ABE SWAP8 PUSH1 0x8 SSTORE PUSH32 0x0 PUSH2 0x1D84 JUMP JUMPDEST PUSH1 0x2 SLOAD SWAP3 MLOAD SWAP3 AND PUSH1 0x1 PUSH1 0x1 PUSH1 0xA0 SHL SUB AND DUP3 MSTORE PUSH1 0x20 DUP3 ADD SWAP3 SWAP1 SWAP3 MSTORE SWAP1 DUP2 SWAP1 PUSH1 0x40 DUP3 ADD SWAP1 JUMP JUMPDEST SUB SWAP1 LOG1 PUSH1 0x1 DUP2 SSTORE DUP1 RETURN JUMPDEST PUSH1 0x84 SWAP1 PUSH1 0x20 DUP8 MLOAD SWAP2 PUSH3 0x461BCD PUSH1 0xE5 SHL DUP4 MSTORE DUP3 ADD MSTORE PUSH1 0x22 PUSH1 0x24 DUP3 ADD MSTORE PUSH32 0x4D75737420776169742037206461797320746F2077697468647261772066756E PUSH1 0x44 DUP3 ADD MSTORE PUSH2 0x6473 PUSH1 0xF0 SHL PUSH1 0x64 DUP3 ADD MSTORE REVERT JUMPDEST PUSH4 0x4E487B71 PUSH1 0xE0 SHL DUP7 MSTORE PUSH1 0x11 DUP3 MSTORE PUSH1 0x24 DUP7 REVERT JUMPDEST DUP7 MLOAD PUSH3 0x461BCD PUSH1 0xE5 SHL DUP2 MSTORE PUSH1 0x20 DUP2 DUP5 ADD MSTORE PUSH1 0x13 PUSH1 0x24 DUP3 ADD MSTORE PUSH19 0x4E6F2070656E64696E67207769746864726177 PUSH1 0x68 SHL PUSH1 0x44 DUP3 ADD MSTORE PUSH1 0x64 SWAP1 REVERT JUMPDEST PUSH1 0x64 SWAP1 PUSH1 0x20 DUP8 MLOAD SWAP2 PUSH3 0x461BCD PUSH1 0xE5 SHL DUP4 MSTORE DUP3 ADD MSTORE PUSH1 0x1F PUSH1 0x24 DUP3 ADD MSTORE PUSH32 0x5265656E7472616E637947756172643A207265656E7472616E742063616C6C00 PUSH1 0x44 DUP3 ADD MSTORE REVERT JUMPDEST PUSH1 0xD SLOAD DUP2 LT ISZERO PUSH2 0x105F JUMPI PUSH1 0xD PUSH1 0x0 MSTORE PUSH32 0xD7B6990105719101DABEB77144F2A3385C8033ACD3AF97E9423A695E81AD1EB5 ADD SWAP1 PUSH1 0x0 SWAP1 JUMP JUMPDEST PUSH4 0x4E487B71 PUSH1 0xE0 SHL PUSH1 0x0 MSTORE PUSH1 0x32 PUSH1 0x4 MSTORE PUSH1 0x24 PUSH1 0x0 REVERT JUMPDEST ISZERO PUSH2 0x107C JUMPI JUMP JUMPDEST PUSH1 0x40 MLOAD PUSH3 0x461BCD PUSH1 0xE5 SHL DUP2 MSTORE PUSH1 0x20 PUSH1 0x4 DUP3 ADD MSTORE PUSH1 0x1B PUSH1 0x24 DUP3 ADD MSTORE PUSH32 0x4F6E6C792061646D696E2063616E206578656375746520746869730000000000 PUSH1 0x44 DUP3 ADD MSTORE PUSH1 0x64 SWAP1 REVERT JUMPDEST ISZERO PUSH2 0x10C8 JUMPI JUMP JUMPDEST PUSH1 0x40 MLOAD PUSH3 0x461BCD PUSH1 0xE5 SHL DUP2 MSTORE PUSH1 0x20 PUSH1 0x4 DUP3 ADD MSTORE PUSH1 0x12 PUSH1 0x24 DUP3 ADD MSTORE PUSH18 0x10DBDB9D1C9858DD081A5CC81B1BD8DAD959 PUSH1 0x72 SHL PUSH1 0x44 DUP3 ADD MSTORE PUSH1 0x64 SWAP1 REVERT JUMPDEST SWAP2 SWAP1 DUP3 ADD DUP1 SWAP3 GT PUSH2 0x110F JUMPI JUMP JUMPDEST PUSH4 0x4E487B71 PUSH1 0xE0 SHL PUSH1 0x0 MSTORE PUSH1 0x11 PUSH1 0x4 MSTORE PUSH1 0x24 PUSH1 0x0 REVERT JUMPDEST ISZERO PUSH2 0x112C JUMPI JUMP JUMPDEST PUSH1 0x40 MLOAD PUSH3 0x461BCD PUSH1 0xE5 SHL DUP2 MSTORE PUSH1 0x20 PUSH1 0x4 DUP3 ADD MSTORE PUSH1 0x1E PUSH1 0x24 DUP3 ADD MSTORE PUSH32 0x4F6E6C7920677561726469616E2063616E206578656375746520746869730000 PUSH1 0x44 DUP3 ADD MSTORE PUSH1 0x64 SWAP1 REVERT JUMPDEST ISZERO PUSH2 0x1178 JUMPI JUMP JUMPDEST PUSH1 0x40 MLOAD PUSH3 0x461BCD PUSH1 0xE5 SHL DUP2 MSTORE PUSH1 0x20 PUSH1 0x4 DUP3 ADD MSTORE PUSH1 0xF PUSH1 0x24 DUP3 ADD MSTORE PUSH15 0x496E76616C69642061646472657373 PUSH1 0x88 SHL PUSH1 0x44 DUP3 ADD MSTORE PUSH1 0x64 SWAP1 REVERT JUMPDEST PUSH1 0x60 DUP2 ADD SWAP1 DUP2 LT PUSH8 0xFFFFFFFFFFFFFFFF DUP3 GT OR PUSH2 0x11CB JUMPI PUSH1 0x40 MSTORE JUMP JUMPDEST PUSH4 0x4E487B71 PUSH1 0xE0 SHL PUSH1 0x0 MSTORE PUSH1 0x41 PUSH1 0x4 MSTORE PUSH1 0x24 PUSH1 0x0 REVERT JUMPDEST PUSH1 0xA0 DUP2 ADD SWAP1 DUP2 LT PUSH8 0xFFFFFFFFFFFFFFFF DUP3 GT OR PUSH2 0x11CB JUMPI PUSH1 0x40 MSTORE JUMP JUMPDEST SWAP1 PUSH1 0x1F DUP1 NOT SWAP2 ADD AND DUP2 ADD SWAP1 DUP2 LT PUSH8 0xFFFFFFFFFFFFFFFF DUP3 GT OR PUSH2 0x11CB JUMPI PUSH1 0x40 MSTORE JUMP JUMPDEST DUP2 DUP2 MUL SWAP3 SWAP2 DUP2 ISZERO SWAP2 DUP5 DIV EQ OR ISZERO PUSH2 0x110F JUMPI JUMP JUMPDEST SWAP4 SWAP1 SWAP3 PUSH1 0xC SLOAD DUP5 LT PUSH2 0x1B67 JUMPI PUSH1 0xB SLOAD DUP5 GT PUSH2 0x1B22 JUMPI DUP5 ISZERO PUSH2 0x1AF0 JUMPI PUSH1 0x19 DUP6 GT PUSH2 0x1AB2 JUMPI PUSH1 0x40 MLOAD PUSH4 0x313CE567 PUSH1 0xE0 SHL DUP2 MSTORE PUSH1 0x20 DUP2 PUSH1 0x4 DUP2 PUSH32 0x0 PUSH1 0x1 PUSH1 0x1 PUSH1 0xA0 SHL SUB AND GAS STATICCALL SWAP1 DUP2 ISZERO PUSH2 0x1717 JUMPI PUSH1 0x0 SWAP2 PUSH2 0x1A75 JUMPI JUMPDEST POP PUSH1 0xFF AND PUSH1 0x4D DUP2 GT PUSH2 0x110F JUMPI PUSH1 0xA EXP DUP6 DUP6 DIV GT PUSH2 0x1A38 JUMPI PUSH1 0xA PUSH2 0x12E6 PUSH32 0x0 DUP7 PUSH2 0x121F JUMP JUMPDEST PUSH1 0x40 MLOAD PUSH4 0x70A08231 PUSH1 0xE0 SHL DUP2 MSTORE ADDRESS PUSH1 0x4 DUP3 ADD MSTORE SWAP2 SWAP1 DIV SWAP1 PUSH1 0x20 DUP2 PUSH1 0x24 DUP2 PUSH32 0x0 PUSH1 0x1 PUSH1 0x1 PUSH1 0xA0 SHL SUB AND GAS STATICCALL SWAP1 DUP2 ISZERO PUSH2 0x1717 JUMPI PUSH1 0x0 SWAP2 PUSH2 0x1A06 JUMPI JUMPDEST POP LT PUSH2 0x19C1 JUMPI DUP3 TIMESTAMP LT PUSH2 0x197C JUMPI PUSH1 0x3C DUP4 ADD DUP1 DUP5 GT PUSH2 0x110F JUMPI TIMESTAMP GT PUSH2 0x1943 JUMPI CALLER PUSH1 0x0 MSTORE PUSH1 0xF PUSH1 0x20 MSTORE PUSH1 0x40 PUSH1 0x0 KECCAK256 SLOAD DUP4 GT ISZERO PUSH2 0x18FE JUMPI DUP3 PUSH1 0x40 DUP1 MLOAD PUSH2 0x1380 DUP2 PUSH2 0x11AF JUMP JUMPDEST CALLER DUP2 MSTORE DUP7 PUSH1 0x20 DUP3 ADD MSTORE ADD MSTORE PUSH1 0x40 MLOAD PUSH1 0x20 DUP2 ADD SWAP1 PUSH32 0xE81D1CDF23BDC0A6BEF5035503A1014285A41CC67C1E91E29D9211B707E3CF9 DUP3 MSTORE CALLER PUSH1 0x40 DUP3 ADD MSTORE DUP6 PUSH1 0x60 DUP3 ADD MSTORE DUP5 PUSH1 0x80 DUP3 ADD MSTORE PUSH1 0x80 DUP2 MSTORE PUSH2 0x13D5 DUP2 PUSH2 0x11E1 JUMP JUMPDEST MLOAD SWAP1 KECCAK256 PUSH1 0x40 MLOAD SWAP1 PUSH2 0x1901 PUSH1 0xF0 SHL PUSH1 0x20 DUP4 ADD MSTORE PUSH32 0x0 PUSH1 0x22 DUP4 ADD MSTORE PUSH1 0x42 DUP3 ADD MSTORE PUSH1 0x42 DUP2 MSTORE DUP1 PUSH1 0x80 DUP2 ADD LT PUSH8 0xFFFFFFFFFFFFFFFF PUSH1 0x80 DUP4 ADD GT OR PUSH2 0x11CB JUMPI PUSH1 0x80 DUP2 ADD PUSH1 0x40 MSTORE PUSH1 0x20 DUP2 MLOAD SWAP2 ADD KECCAK256 PUSH2 0x1446 DUP4 PUSH2 0x1DC7 JUMP JUMPDEST SWAP1 PUSH2 0x1454 PUSH1 0x40 MLOAD SWAP3 DUP4 PUSH2 0x11FD JUMP JUMPDEST DUP4 DUP3 MSTORE CALLDATASIZE DUP5 DUP5 ADD GT PUSH2 0x170A JUMPI PUSH1 0x0 PUSH1 0x20 DUP6 PUSH2 0x1482 SWAP7 PUSH2 0x147A SWAP7 DUP4 DUP8 ADD CALLDATACOPY DUP5 ADD ADD MSTORE PUSH2 0x1F3D JUMP JUMPDEST SWAP2 SWAP1 SWAP2 PUSH2 0x1F75 JUMP JUMPDEST PUSH1 0x2 SLOAD PUSH1 0x1 PUSH1 0x1 PUSH1 0xA0 SHL SUB SWAP1 DUP2 AND SWAP2 AND SUB PUSH2 0x18C5 JUMPI CALLER PUSH1 0x0 MSTORE PUSH1 0xF PUSH1 0x20 MSTORE DUP1 PUSH1 0x40 PUSH1 0x0 KECCAK256 SSTORE PUSH2 0x14FF PUSH1 0x40 MLOAD PUSH4 0x23B872DD PUSH1 0xE0 SHL PUSH1 0x20 DUP3 ADD MSTORE CALLER PUSH1 0x24 DUP3 ADD MSTORE ADDRESS PUSH1 0x44 DUP3 ADD MSTORE DUP4 PUSH1 0x64 DUP3 ADD MSTORE PUSH1 0x64 DUP2 MSTORE PUSH2 0x14D9 DUP2 PUSH2 0x11E1 JUMP JUMPDEST PUSH32 0x0 PUSH2 0x1E0F JUMP JUMPDEST PUSH2 0x1508 DUP4 PUSH2 0x1DE3 JUMP JUMPDEST SWAP1 PUSH2 0x1516 PUSH1 0x40 MLOAD SWAP3 DUP4 PUSH2 0x11FD JUMP JUMPDEST DUP4 DUP3 MSTORE PUSH1 0x1F NOT PUSH2 0x1525 DUP6 PUSH2 0x1DE3 JUMP JUMPDEST ADD CALLDATASIZE PUSH1 0x20 DUP5 ADD CALLDATACOPY PUSH1 0x40 MLOAD SWAP1 PUSH2 0x1539 DUP3 PUSH2 0x11AF JUMP JUMPDEST PUSH1 0x3 DUP3 MSTORE PUSH1 0x4 PUSH1 0x20 DUP4 ADD MSTORE PUSH1 0x5 PUSH1 0x40 DUP4 ADD MSTORE PUSH1 0x40 MLOAD DUP1 PUSH1 0x40 DUP2 ADD LT PUSH8 0xFFFFFFFFFFFFFFFF PUSH1 0x40 DUP4 ADD GT OR PUSH2 0x11CB JUMPI PUSH1 0x40 DUP2 ADD PUSH1 0x40 MSTORE PUSH1 0x0 DUP2 MSTORE PUSH1 0x1 PUSH1 0x20 DUP3 ADD MSTORE PUSH1 0x0 SWAP2 PUSH1 0x1 SLOAD SWAP2 PUSH1 0x0 NOT NUMBER ADD SWAP2 NUMBER DUP4 GT JUMPDEST DUP10 DUP7 LT PUSH2 0x1765 JUMPI POP POP POP POP POP POP POP PUSH1 0x0 SWAP3 DUP2 MLOAD SWAP1 DUP5 SWAP3 JUMPDEST DUP3 DUP5 LT PUSH2 0x1723 JUMPI POP POP PUSH1 0x40 MLOAD PUSH4 0x70A08231 PUSH1 0xE0 SHL DUP2 MSTORE ADDRESS PUSH1 0x4 DUP3 ADD MSTORE SWAP2 POP PUSH1 0x20 SWAP1 POP DUP2 PUSH1 0x24 DUP2 PUSH32 0x0 PUSH1 0x1 PUSH1 0x1 PUSH1 0xA0 SHL SUB AND GAS STATICCALL SWAP1 DUP2 ISZERO PUSH2 0x1717 JUMPI PUSH1 0x0 SWAP2 PUSH2 0x16E0 JUMPI JUMPDEST POP DUP3 GT PUSH2 0x1682 JUMPI POP PUSH2 0x164D DUP2 PUSH32 0xE8F062C04470F78A887153F0F4B52A017E7A9FCBCCEB38366FF8E3013101F8C4 SWAP3 PUSH2 0x1652 JUMPI JUMPDEST PUSH1 0x40 DUP1 MLOAD CALLER DUP2 MSTORE PUSH1 0x20 DUP2 ADD SWAP3 SWAP1 SWAP3 MSTORE SWAP1 SWAP2 DUP3 SWAP2 DUP3 ADD SWAP1 JUMP JUMPDEST SUB SWAP1 LOG1 JUMP JUMPDEST PUSH2 0x167D DUP2 CALLER PUSH32 0x0 PUSH2 0x1D84 JUMP JUMPDEST PUSH2 0x1635 JUMP JUMPDEST PUSH2 0x16AE SWAP2 POP CALLER PUSH32 0x0 PUSH2 0x1D84 JUMP JUMPDEST PUSH32 0xE8F062C04470F78A887153F0F4B52A017E7A9FCBCCEB38366FF8E3013101F8C4 PUSH1 0x40 DUP1 MLOAD CALLER DUP2 MSTORE PUSH1 0x0 PUSH1 0x20 DUP3 ADD MSTORE LOG1 JUMP JUMPDEST SWAP1 POP PUSH1 0x20 DUP2 RETURNDATASIZE PUSH1 0x20 GT PUSH2 0x170F JUMPI JUMPDEST DUP2 PUSH2 0x16FB PUSH1 0x20 SWAP4 DUP4 PUSH2 0x11FD JUMP JUMPDEST DUP2 ADD SUB SLT PUSH2 0x170A JUMPI MLOAD CODESIZE PUSH2 0x1602 JUMP JUMPDEST PUSH1 0x0 DUP1 REVERT JUMPDEST RETURNDATASIZE SWAP2 POP PUSH2 0x16EE JUMP JUMPDEST PUSH1 0x40 MLOAD RETURNDATASIZE PUSH1 0x0 DUP3 RETURNDATACOPY RETURNDATASIZE SWAP1 REVERT JUMPDEST SWAP1 SWAP2 SWAP3 SWAP5 PUSH2 0x175B PUSH1 0x1 SWAP2 PUSH1 0xA PUSH2 0x1754 PUSH2 0x1745 PUSH2 0x173F DUP12 DUP9 PUSH2 0x1DFB JUMP JUMPDEST MLOAD PUSH2 0x1028 JUMP JUMPDEST SWAP1 SLOAD SWAP1 PUSH1 0x3 SHL SHR DUP8 DUP11 DIV PUSH2 0x121F JUMP JUMPDEST DIV SWAP1 PUSH2 0x1102 JUMP JUMPDEST SWAP6 ADD SWAP3 SWAP2 SWAP1 PUSH2 0x15A1 JUMP JUMPDEST PUSH1 0x2 DUP7 ADD DUP7 GT PUSH2 0x110F JUMPI PUSH2 0x110F JUMPI PUSH1 0x64 SWAP5 PUSH2 0x3E8 PUSH1 0x40 MLOAD CALLER PUSH1 0x60 SHL PUSH1 0x20 DUP3 ADD MSTORE DUP6 BLOCKHASH PUSH1 0x34 DUP3 ADD MSTORE PREVRANDAO PUSH1 0x54 DUP3 ADD MSTORE PUSH1 0x2 DUP4 ADD PUSH1 0x74 DUP3 ADD MSTORE PUSH1 0x74 DUP2 MSTORE PUSH2 0x17A8 DUP2 PUSH2 0x11E1 JUMP JUMPDEST PUSH1 0x20 DUP2 MLOAD SWAP2 ADD KECCAK256 MOD PUSH2 0x17BA DUP2 DUP5 PUSH2 0x1102 JUMP JUMPDEST SWAP1 DUP7 PUSH1 0x0 SWAP9 DUP10 SWAP4 PUSH1 0x40 MLOAD PUSH1 0x20 DUP2 ADD SWAP2 CALLER PUSH1 0x60 SHL DUP4 MSTORE DUP11 BLOCKHASH PUSH1 0x34 DUP4 ADD MSTORE PREVRANDAO PUSH1 0x54 DUP4 ADD MSTORE PUSH1 0x74 DUP3 ADD MSTORE PUSH1 0x74 DUP2 MSTORE PUSH2 0x17EE DUP2 PUSH2 0x11E1 JUMP JUMPDEST MLOAD SWAP1 KECCAK256 MOD LT ISZERO PUSH2 0x1861 JUMPI PUSH2 0x1802 SWAP1 DUP5 PUSH2 0x1102 JUMP JUMPDEST SWAP1 PUSH2 0x110F JUMPI PUSH1 0x3 SWAP1 PUSH1 0x40 MLOAD PUSH1 0x20 DUP2 ADD SWAP2 CALLER PUSH1 0x60 SHL DUP4 MSTORE DUP8 BLOCKHASH PUSH1 0x34 DUP4 ADD MSTORE PREVRANDAO PUSH1 0x54 DUP4 ADD MSTORE PUSH1 0x74 DUP3 ADD MSTORE PUSH1 0x74 DUP2 MSTORE PUSH2 0x1837 DUP2 PUSH2 0x11E1 JUMP JUMPDEST MLOAD SWAP1 KECCAK256 MOD SWAP1 PUSH1 0x3 DUP3 LT ISZERO PUSH2 0x105F JUMPI PUSH1 0x1 SWAP2 PUSH1 0x5 SHL DUP9 ADD MLOAD PUSH2 0x1858 DUP3 DUP12 PUSH2 0x1DFB JUMP JUMPDEST MSTORE JUMPDEST ADD SWAP5 PUSH2 0x158A JUMP JUMPDEST PUSH2 0x186C SWAP2 POP DUP4 PUSH2 0x1102 JUMP JUMPDEST PUSH1 0x40 MLOAD PUSH1 0x20 DUP2 ADD SWAP2 CALLER PUSH1 0x60 SHL DUP4 MSTORE DUP7 BLOCKHASH PUSH1 0x34 DUP4 ADD MSTORE PREVRANDAO PUSH1 0x54 DUP4 ADD MSTORE PUSH1 0x74 DUP3 ADD MSTORE PUSH1 0x74 DUP2 MSTORE PUSH2 0x1899 DUP2 PUSH2 0x11E1 JUMP JUMPDEST MLOAD SWAP1 KECCAK256 SWAP1 PUSH1 0x2 PUSH1 0x1 DUP4 AND LT ISZERO PUSH2 0x105F JUMPI PUSH1 0x20 PUSH1 0x1 SWAP3 PUSH1 0x5 SHL AND DUP5 ADD MLOAD PUSH2 0x18BF DUP3 DUP12 PUSH2 0x1DFB JUMP JUMPDEST MSTORE PUSH2 0x185A JUMP JUMPDEST PUSH1 0x40 MLOAD PUSH3 0x461BCD PUSH1 0xE5 SHL DUP2 MSTORE PUSH1 0x20 PUSH1 0x4 DUP3 ADD MSTORE PUSH1 0x11 PUSH1 0x24 DUP3 ADD MSTORE PUSH17 0x496E76616C6964207369676E6174757265 PUSH1 0x78 SHL PUSH1 0x44 DUP3 ADD MSTORE PUSH1 0x64 SWAP1 REVERT JUMPDEST PUSH1 0x40 MLOAD PUSH3 0x461BCD PUSH1 0xE5 SHL DUP2 MSTORE PUSH1 0x20 PUSH1 0x4 DUP3 ADD MSTORE PUSH1 0x17 PUSH1 0x24 DUP3 ADD MSTORE PUSH32 0x54696D657374616D70206D757374206265206E65776572000000000000000000 PUSH1 0x44 DUP3 ADD MSTORE PUSH1 0x64 SWAP1 REVERT JUMPDEST PUSH1 0x40 MLOAD PUSH3 0x461BCD PUSH1 0xE5 SHL DUP2 MSTORE PUSH1 0x20 PUSH1 0x4 DUP3 ADD MSTORE PUSH1 0x11 PUSH1 0x24 DUP3 ADD MSTORE PUSH17 0x151A5B595CDD185B5C08195E1C1A5C9959 PUSH1 0x7A SHL PUSH1 0x44 DUP3 ADD MSTORE PUSH1 0x64 SWAP1 REVERT JUMPDEST PUSH1 0x40 MLOAD PUSH3 0x461BCD PUSH1 0xE5 SHL DUP2 MSTORE PUSH1 0x20 PUSH1 0x4 DUP3 ADD MSTORE PUSH1 0x19 PUSH1 0x24 DUP3 ADD MSTORE PUSH32 0x54696D657374616D702066726F6D207468652066757475726500000000000000 PUSH1 0x44 DUP3 ADD MSTORE PUSH1 0x64 SWAP1 REVERT JUMPDEST PUSH1 0x40 MLOAD PUSH3 0x461BCD PUSH1 0xE5 SHL DUP2 MSTORE PUSH1 0x20 PUSH1 0x4 DUP3 ADD MSTORE PUSH1 0x1F PUSH1 0x24 DUP3 ADD MSTORE PUSH32 0x436F6E74726163742068617320696E73756666696369656E742066756E647300 PUSH1 0x44 DUP3 ADD MSTORE PUSH1 0x64 SWAP1 REVERT JUMPDEST SWAP1 POP PUSH1 0x20 DUP2 RETURNDATASIZE PUSH1 0x20 GT PUSH2 0x1A30 JUMPI JUMPDEST DUP2 PUSH2 0x1A21 PUSH1 0x20 SWAP4 DUP4 PUSH2 0x11FD JUMP JUMPDEST DUP2 ADD SUB SLT PUSH2 0x170A JUMPI MLOAD CODESIZE PUSH2 0x133E JUMP JUMPDEST RETURNDATASIZE SWAP2 POP PUSH2 0x1A14 JUMP JUMPDEST PUSH1 0x40 MLOAD PUSH3 0x461BCD PUSH1 0xE5 SHL DUP2 MSTORE PUSH1 0x20 PUSH1 0x4 DUP3 ADD MSTORE PUSH1 0x15 PUSH1 0x24 DUP3 ADD MSTORE PUSH21 0x4D617820626574207065722062616C6C2069732031 PUSH1 0x58 SHL PUSH1 0x44 DUP3 ADD MSTORE PUSH1 0x64 SWAP1 REVERT JUMPDEST PUSH1 0x20 DUP2 RETURNDATASIZE PUSH1 0x20 GT PUSH2 0x1AAA JUMPI JUMPDEST DUP2 PUSH2 0x1A8E PUSH1 0x20 SWAP4 DUP4 PUSH2 0x11FD JUMP JUMPDEST DUP2 ADD SUB SLT PUSH2 0x1DB JUMPI MLOAD SWAP1 PUSH1 0xFF DUP3 AND DUP3 SUB PUSH2 0x247 JUMPI POP PUSH1 0xFF PUSH2 0x12A3 JUMP JUMPDEST RETURNDATASIZE SWAP2 POP PUSH2 0x1A81 JUMP JUMPDEST PUSH1 0x40 MLOAD PUSH3 0x461BCD PUSH1 0xE5 SHL DUP2 MSTORE PUSH1 0x20 PUSH1 0x4 DUP3 ADD MSTORE PUSH1 0x16 PUSH1 0x24 DUP3 ADD MSTORE PUSH22 0x4E756D2062616C6C206973206D6178696D756D203235 PUSH1 0x50 SHL PUSH1 0x44 DUP3 ADD MSTORE PUSH1 0x64 SWAP1 REVERT JUMPDEST PUSH1 0x40 MLOAD PUSH3 0x461BCD PUSH1 0xE5 SHL DUP2 MSTORE PUSH1 0x20 PUSH1 0x4 DUP3 ADD MSTORE PUSH1 0xA PUSH1 0x24 DUP3 ADD MSTORE PUSH10 0x4E756D2062616C6C203 PUSH1 0xB4 SHL PUSH1 0x44 DUP3 ADD MSTORE PUSH1 0x64 SWAP1 REVERT JUMPDEST PUSH1 0x40 MLOAD PUSH3 0x461BCD PUSH1 0xE5 SHL DUP2 MSTORE PUSH1 0x20 PUSH1 0x4 DUP3 ADD MSTORE PUSH1 0x19 PUSH1 0x24 DUP3 ADD MSTORE PUSH32 0x4265742065786365656473206D6178696D756D206C696D697400000000000000 PUSH1 0x44 DUP3 ADD MSTORE PUSH1 0x64 SWAP1 REVERT JUMPDEST PUSH1 0x40 MLOAD PUSH3 0x461BCD PUSH1 0xE5 SHL DUP2 MSTORE PUSH1 0x20 PUSH1 0x4 DUP3 ADD MSTORE PUSH1 0x3E PUSH1 0x24 DUP3 ADD MSTORE PUSH32 0x5468652062657420616D6F756E74206D75737420626520677265617465722074 PUSH1 0x44 DUP3 ADD MSTORE PUSH32 0x68616E20746865206D696E696D756D2072657175697265642076616C75650000 PUSH1 0x64 DUP3 ADD MSTORE PUSH1 0x84 SWAP1 REVERT JUMPDEST ISZERO PUSH2 0x1BD9 JUMPI JUMP JUMPDEST PUSH1 0x40 MLOAD PUSH3 0x461BCD PUSH1 0xE5 SHL DUP2 MSTORE PUSH1 0x20 PUSH1 0x4 DUP3 ADD MSTORE PUSH1 0x32 PUSH1 0x24 DUP3 ADD MSTORE PUSH32 0x546865206D617869756D206265742076616C7565206772656174657220746861 PUSH1 0x44 DUP3 ADD MSTORE PUSH18 0x6E206D696E69756D206265742076616C7565 PUSH1 0x70 SHL PUSH1 0x64 DUP3 ADD MSTORE PUSH1 0x84 SWAP1 REVERT JUMPDEST ISZERO PUSH2 0x1C40 JUMPI JUMP JUMPDEST PUSH1 0x40 MLOAD PUSH3 0x461BCD PUSH1 0xE5 SHL DUP2 MSTORE PUSH1 0x20 PUSH1 0x4 DUP3 ADD MSTORE PUSH1 0x1A PUSH1 0x24 DUP3 ADD MSTORE PUSH32 0x4E6F2070656E64696E6720677561726469616E206368616E6765000000000000 PUSH1 0x44 DUP3 ADD MSTORE PUSH1 0x64 SWAP1 REVERT JUMPDEST ISZERO PUSH2 0x1C8C JUMPI JUMP JUMPDEST PUSH1 0x40 MLOAD PUSH3 0x461BCD PUSH1 0xE5 SHL DUP2 MSTORE PUSH1 0x20 PUSH1 0x4 DUP3 ADD MSTORE PUSH1 0x28 PUSH1 0x24 DUP3 ADD MSTORE PUSH32 0x4D75737420776169742033206461797320746F20636F6E6669726D2061646D69 PUSH1 0x44 DUP3 ADD MSTORE PUSH8 0x6E206368616E6765 PUSH1 0xC0 SHL PUSH1 0x64 DUP3 ADD MSTORE PUSH1 0x84 SWAP1 REVERT JUMPDEST ISZERO PUSH2 0x1CE9 JUMPI JUMP JUMPDEST PUSH1 0x40 MLOAD PUSH3 0x461BCD PUSH1 0xE5 SHL DUP2 MSTORE PUSH1 0x20 PUSH1 0x4 DUP3 ADD MSTORE PUSH1 0x21 PUSH1 0x24 DUP3 ADD MSTORE PUSH32 0x4E6F2070656E64696E672077696E2070726F626162696C697479206368616E67 PUSH1 0x44 DUP3 ADD MSTORE PUSH1 0x65 PUSH1 0xF8 SHL PUSH1 0x64 DUP3 ADD MSTORE PUSH1 0x84 SWAP1 REVERT JUMPDEST ISZERO PUSH2 0x1D3F JUMPI JUMP JUMPDEST PUSH1 0x40 MLOAD PUSH3 0x461BCD PUSH1 0xE5 SHL DUP2 MSTORE PUSH1 0x20 PUSH1 0x4 DUP3 ADD MSTORE PUSH1 0x17 PUSH1 0x24 DUP3 ADD MSTORE PUSH32 0x4E6F2070656E64696E672061646D696E206368616E6765000000000000000000 PUSH1 0x44 DUP3 ADD MSTORE PUSH1 0x64 SWAP1 REVERT JUMPDEST PUSH1 0x40 MLOAD PUSH4 0xA9059CBB PUSH1 0xE0 SHL PUSH1 0x20 DUP3 ADD MSTORE PUSH1 0x1 PUSH1 0x1 PUSH1 0xA0 SHL SUB SWAP3 SWAP1 SWAP3 AND PUSH1 0x24 DUP4 ADD MSTORE PUSH1 0x44 DUP1 DUP4 ADD SWAP4 SWAP1 SWAP4 MSTORE SWAP2 DUP2 MSTORE PUSH2 0x1DC5 SWAP2 PUSH2 0x1DC0 PUSH1 0x64 DUP4 PUSH2 0x11FD JUMP JUMPDEST PUSH2 0x1E0F JUMP JUMPDEST JUMP JUMPDEST PUSH8 0xFFFFFFFFFFFFFFFF DUP2 GT PUSH2 0x11CB JUMPI PUSH1 0x1F ADD PUSH1 0x1F NOT AND PUSH1 0x20 ADD SWAP1 JUMP JUMPDEST PUSH8 0xFFFFFFFFFFFFFFFF DUP2 GT PUSH2 0x11CB JUMPI PUSH1 0x5 SHL PUSH1 0x20 ADD SWAP1 JUMP JUMPDEST DUP1 MLOAD DUP3 LT ISZERO PUSH2 0x105F JUMPI PUSH1 0x20 SWAP2 PUSH1 0x5 SHL ADD ADD SWAP1 JUMP JUMPDEST PUSH1 0x1 DUP1 PUSH1 0xA0 SHL SUB AND SWAP1 PUSH1 0x40 MLOAD PUSH1 0x40 DUP2 ADD SWAP1 DUP1 DUP3 LT PUSH8 0xFFFFFFFFFFFFFFFF DUP4 GT OR PUSH2 0x11CB JUMPI PUSH2 0x1E9F SWAP2 PUSH1 0x40 MSTORE PUSH1 0x20 SWAP4 DUP5 DUP3 MSTORE PUSH32 0x5361666545524332303A206C6F772D6C6576656C2063616C6C206661696C6564 DUP6 DUP4 ADD MSTORE PUSH1 0x0 DUP1 DUP6 DUP8 DUP3 SWAP8 MLOAD SWAP2 ADD DUP3 DUP6 GAS CALL RETURNDATASIZE ISZERO PUSH2 0x1F35 JUMPI RETURNDATASIZE SWAP2 PUSH2 0x1E84 DUP4 PUSH2 0x1DC7 JUMP JUMPDEST SWAP3 PUSH2 0x1E92 PUSH1 0x40 MLOAD SWAP5 DUP6 PUSH2 0x11FD JUMP JUMPDEST DUP4 MSTORE RETURNDATASIZE DUP7 DUP9 DUP6 ADD RETURNDATACOPY PUSH2 0x211E JUMP JUMPDEST DUP1 MLOAD SWAP2 DUP3 ISZERO SWAP2 DUP5 DUP4 ISZERO PUSH2 0x1F11 JUMPI JUMPDEST POP POP POP SWAP1 POP ISZERO PUSH2 0x1EBA JUMPI POP JUMP JUMPDEST PUSH1 0x84 SWAP1 PUSH1 0x40 MLOAD SWAP1 PUSH3 0x461BCD PUSH1 0xE5 SHL DUP3 MSTORE PUSH1 0x4 DUP3 ADD MSTORE PUSH1 0x2A PUSH1 0x24 DUP3 ADD MSTORE PUSH32 0x5361666545524332303A204552433230206F7065726174696F6E20646964206E PUSH1 0x44 DUP3 ADD MSTORE PUSH10 0x1BDD081CDD58D8D95959 PUSH1 0xB2 SHL PUSH1 0x64 DUP3 ADD MSTORE REVERT JUMPDEST SWAP2 SWAP4 DUP2 DUP1 SWAP5 POP ADD SUB SLT PUSH2 0x1DB JUMPI DUP3 ADD MLOAD SWAP1 DUP2 ISZERO ISZERO DUP3 SUB PUSH2 0x247 JUMPI POP DUP1 CODESIZE DUP1 DUP5 PUSH2 0x1EAD JUMP JUMPDEST PUSH1 0x60 SWAP2 PUSH2 0x211E JUMP JUMPDEST SWAP1 PUSH1 0x41 DUP2 MLOAD EQ PUSH1 0x0 EQ PUSH2 0x1F6B JUMPI PUSH2 0x1F67 SWAP2 PUSH1 0x20 DUP3 ADD MLOAD SWAP1 PUSH1 0x60 PUSH1 0x40 DUP5 ADD MLOAD SWAP4 ADD MLOAD PUSH1 0x0 BYTE SWAP1 PUSH2 0x208F JUMP JUMPDEST SWAP1 SWAP2 JUMP JUMPDEST POP POP PUSH1 0x0 SWAP1 PUSH1 0x2 SWAP1 JUMP JUMPDEST PUSH1 0x5 DUP2 LT ISZERO PUSH2 0x2079 JUMPI DUP1 PUSH2 0x1F86 JUMPI POP JUMP JUMPDEST PUSH1 0x1 DUP2 SUB PUSH2 0x1FD3 JUMPI PUSH1 0x40 MLOAD PUSH3 0x461BCD PUSH1 0xE5 SHL DUP2 MSTORE PUSH1 0x20 PUSH1 0x4 DUP3 ADD MSTORE PUSH1 0x18 PUSH1 0x24 DUP3 ADD MSTORE PUSH32 0x45434453413A20696E76616C6964207369676E61747572650000000000000000 PUSH1 0x44 DUP3 ADD MSTORE PUSH1 0x64 SWAP1 REVERT JUMPDEST PUSH1 0x2 DUP2 SUB PUSH2 0x2020 JUMPI PUSH1 0x40 MLOAD PUSH3 0x461BCD PUSH1 0xE5 SHL DUP2 MSTORE PUSH1 0x20 PUSH1 0x4 DUP3 ADD MSTORE PUSH1 0x1F PUSH1 0x24 DUP3 ADD MSTORE PUSH32 0x45434453413A20696E76616C6964207369676E6174757265206C656E67746800 PUSH1 0x44 DUP3 ADD MSTORE PUSH1 0x64 SWAP1 REVERT JUMPDEST PUSH1 0x3 EQ PUSH2 0x2029 JUMPI JUMP JUMPDEST PUSH1 0x40 MLOAD PUSH3 0x461BCD PUSH1 0xE5 SHL DUP2 MSTORE PUSH1 0x20 PUSH1 0x4 DUP3 ADD MSTORE PUSH1 0x22 PUSH1 0x24 DUP3 ADD MSTORE PUSH32 0x45434453413A20696E76616C6964207369676E6174757265202773272076616C PUSH1 0x44 DUP3 ADD MSTORE PUSH2 0x7565 PUSH1 0xF0 SHL PUSH1 0x64 DUP3 ADD MSTORE PUSH1 0x84 SWAP1 REVERT JUMPDEST PUSH4 0x4E487B71 PUSH1 0xE0 SHL PUSH1 0x0 MSTORE PUSH1 0x21 PUSH1 0x4 MSTORE PUSH1 0x24 PUSH1 0x0 REVERT JUMPDEST SWAP3 SWAP2 SWAP1 PUSH32 0x7FFFFFFFFFFFFFFFFFFFFFFFFFFFFFFF5D576E7357A4501DDFE92F46681B20A0 DUP4 GT PUSH2 0x2112 JUMPI SWAP2 PUSH1 0x80 SWAP5 SWAP4 SWAP2 PUSH1 0xFF PUSH1 0x20 SWAP5 PUSH1 0x40 MLOAD SWAP5 DUP6 MSTORE AND DUP5 DUP5 ADD MSTORE PUSH1 0x40 DUP4 ADD MSTORE PUSH1 0x60 DUP3 ADD MSTORE PUSH1 0x0 SWAP4 DUP5 SWAP2 DUP3 DUP1 MSTORE PUSH1 0x1 GAS STATICCALL ISZERO PUSH2 0x2105 JUMPI DUP2 MLOAD PUSH1 0x1 PUSH1 0x1 PUSH1 0xA0 SHL SUB DUP2 AND ISZERO PUSH2 0x20FF JUMPI SWAP2 SWAP1 JUMP JUMPDEST POP PUSH1 0x1 SWAP1 JUMP JUMPDEST POP PUSH1 0x40 MLOAD SWAP1 RETURNDATASIZE SWAP1 DUP3 RETURNDATACOPY RETURNDATASIZE SWAP1 REVERT JUMPDEST POP POP POP POP PUSH1 0x0 SWAP1 PUSH1 0x3 SWAP1 JUMP JUMPDEST SWAP2 SWAP3 SWAP1 ISZERO PUSH2 0x2180 JUMPI POP DUP2 MLOAD ISZERO PUSH2 0x2132 JUMPI POP SWAP1 JUMP JUMPDEST EXTCODESIZE ISZERO PUSH2 0x213B JUMPI SWAP1 JUMP JUMPDEST PUSH1 0x40 MLOAD PUSH3 0x461BCD PUSH1 0xE5 SHL DUP2 MSTORE PUSH1 0x20 PUSH1 0x4 DUP3 ADD MSTORE PUSH1 0x1D PUSH1 0x24 DUP3 ADD MSTORE PUSH32 0x416464726573733A2063616C6C20746F206E6F6E2D636F6E7472616374000000 PUSH1 0x44 DUP3 ADD MSTORE PUSH1 0x64 SWAP1 REVERT JUMPDEST DUP3 MLOAD SWAP1 SWAP2 POP ISZERO PUSH2 0x2193 JUMPI POP DUP1 MLOAD SWAP1 PUSH1 0x20 ADD REVERT JUMPDEST PUSH1 0x40 MLOAD SWAP1 PUSH3 0x461BCD PUSH1 0xE5 SHL DUP3 MSTORE DUP2 PUSH1 0x20 DUP1 PUSH1 0x4 DUP4 ADD MSTORE DUP3 MLOAD SWAP1 DUP2 PUSH1 0x24 DUP5 ADD MSTORE PUSH1 0x0 SWAP4 JUMPDEST DUP3 DUP6 LT PUSH2 0x21D9 JUMPI POP POP PUSH1 0x44 SWAP3 POP PUSH1 0x0 DUP4 DUP3 DUP5 ADD ADD MSTORE PUSH1 0x1F DUP1 NOT SWAP2 ADD AND DUP2 ADD SUB ADD SWAP1 REVERT JUMPDEST DUP5 DUP2 ADD DUP3 ADD MLOAD DUP7 DUP7 ADD PUSH1 0x44 ADD MSTORE SWAP4 DUP2 ADD SWAP4 DUP6 SWAP4 POP PUSH2 0x21B6 JUMP INVALID LOG2 PUSH5 0x6970667358 0x22 SLT KECCAK256 DUP3 0xF9 CALLDATALOAD LOG4 0x24 0xCD 0x1E 0xE3 GT SWAP3 CALLCODE PUSH28 0x4183863F7C9DF8F9E32FE5B708EE12F9C88ED91264736F6C63430008 XOR STOP CALLER SLOAD PUSH9 0x65206D6178696D756D KECCAK256 PUSH3 0x657420 PUSH23 0x616C7565206D7573742062652067720000000000000000 "},"methodIdentifiers":{"admin()":"f851a440","cancelAdminChange()":"1157b267","cancelGuardianChange()":"fb49fe27","cancelWinProbabilityChange()":"4addd5f6","cancelWithdrawFund()":"9e090628","changeMaxBetValue(uint256)":"e065fc93","changeMinBetValue(uint256)":"677660e0","confirmAdminChange()":"a74b6783","confirmChangeGuardian()":"847d1e90","confirmChangeWinProbability()":"9a138974","guardian()":"452a9320","isLocked()":"a4e2d634","lastTimestamp(address)":"dccfac82","lockContract()":"753868e3","maxRewardMultiply()":"a48158e5","maxiumBetValue()":"ba8a305c","miniumBetValue()":"1617f190","pendingAdmin()":"26782247","pendingAdminChangeTime()":"bff42fe4","pendingGuardian()":"762c31ba","pendingGuardianChangeTime()":"ed3cacc1","pendingWinProbability()":"e1d8192c","pendingWinProbabilityChangeTime()":"a9860b97","pendingWithdrawFundTime()":"3ab0f330","placeBet(uint256,uint256,uint256,bytes)":"3b116d27","requestAdminChange(address)":"8c51d1e4","requestChangeGuardian(address)":"28fc8b68","requestChangeWinProbability(uint256)":"71d00086","requestWithdrawFund()":"9d1c35e2","rewards(uint256)":"f301af42","token()":"fc0c546a","unlockContract()":"22f0f2f9","winProbability()":"69f2941d","withdrawFund(uint256)":"0cee1725"}}}}}