{"contracts/Baccarat.sol":{"Baccarat":{"abi":[{"inputs":[{"internalType":"address","name":"_guardian","type":"address"},{"internalType":"address","name":"_admin","type":"address"},{"internalType":"address","name":"_token","type":"address"},{"internalType":"uint256","name":"_minBetValue","type":"uint256"},{"internalType":"uint256","name":"_maxBetValue","type":"uint256"}],"stateMutability":"payable","type":"constructor"},{"anonymous":false,"inputs":[],"name":"AdminChangeCancelled","type":"event"},{"anonymous":false,"inputs":[{"indexed":false,"internalType":"address","name":"newAdmin","type":"address"},{"indexed":false,"internalType":"uint256","name":"requestTime","type":"uint256"}],"name":"AdminChangeRequested","type":"event"},{"anonymous":false,"inputs":[{"indexed":false,"internalType":"address","name":"newAdmin","type":"address"}],"name":"AdminChanged","type":"event"},{"anonymous":false,"inputs":[{"indexed":false,"internalType":"address","name":"admin","type":"address"},{"indexed":false,"internalType":"uint256","name":"maxBetValue","type":"uint256"}],"name":"ChangedMaxBetValue","type":"event"},{"anonymous":false,"inputs":[{"indexed":false,"internalType":"address","name":"admin","type":"address"},{"indexed":false,"internalType":"uint256","name":"minBetValue","type":"uint256"}],"name":"ChangedMinBetValue","type":"event"},{"anonymous":false,"inputs":[{"indexed":false,"internalType":"address","name":"by","type":"address"}],"name":"ContractLocked","type":"event"},{"anonymous":false,"inputs":[{"indexed":false,"internalType":"address","name":"by","type":"address"}],"name":"ContractUnlocked","type":"event"},{"anonymous":false,"inputs":[],"name":"GuardianChangeCancelled","type":"event"},{"anonymous":false,"inputs":[{"indexed":false,"internalType":"address","name":"newGuardian","type":"address"},{"indexed":false,"internalType":"uint256","name":"requestTime","type":"uint256"}],"name":"GuardianChangeRequested","type":"event"},{"anonymous":false,"inputs":[{"indexed":false,"internalType":"address","name":"newGuardian","type":"address"}],"name":"GuardianChanged","type":"event"},{"anonymous":false,"inputs":[{"indexed":false,"internalType":"address","name":"from","type":"address"},{"indexed":false,"internalType":"uint256","name":"amount","type":"uint256"}],"name":"Received","type":"event"},{"anonymous":false,"inputs":[{"indexed":false,"internalType":"address","name":"user","type":"address"},{"components":[{"internalType":"uint256","name":"id","type":"uint256"},{"internalType":"uint256","name":"value","type":"uint256"}],"indexed":false,"internalType":"struct Baccarat.Card[3]","name":"playerCards","type":"tuple[3]"},{"components":[{"internalType":"uint256","name":"id","type":"uint256"},{"internalType":"uint256","name":"value","type":"uint256"}],"indexed":false,"internalType":"struct Baccarat.Card[3]","name":"bankerCards","type":"tuple[3]"},{"indexed":false,"internalType":"uint256","name":"wonAmount","type":"uint256"},{"indexed":false,"internalType":"uint256","name":"playerScore","type":"uint256"},{"indexed":false,"internalType":"uint256","name":"bankerScore","type":"uint256"}],"name":"Result","type":"event"},{"anonymous":false,"inputs":[],"name":"WinProbabilityChangeCancelled","type":"event"},{"anonymous":false,"inputs":[{"indexed":false,"internalType":"uint256","name":"winProbability","type":"uint256"}],"name":"WinProbabilityChanged","type":"event"},{"anonymous":false,"inputs":[{"indexed":false,"internalType":"uint256","name":"winProbability","type":"uint256"}],"name":"WinProbabilityRequested","type":"event"},{"anonymous":false,"inputs":[{"indexed":false,"internalType":"address","name":"to","type":"address"},{"indexed":false,"internalType":"uint256","name":"amount","type":"uint256"}],"name":"WithdrawFund","type":"event"},{"anonymous":false,"inputs":[],"name":"WithdrawFundCancelled","type":"event"},{"anonymous":false,"inputs":[{"indexed":false,"internalType":"uint256","name":"requestTime","type":"uint256"}],"name":"WithdrawFundRequested","type":"event"},{"inputs":[],"name":"admin","outputs":[{"internalType":"address","name":"","type":"address"}],"stateMutability":"view","type":"function"},{"inputs":[],"name":"cancelAdminChange","outputs":[],"stateMutability":"nonpayable","type":"function"},{"inputs":[],"name":"cancelGuardianChange","outputs":[],"stateMutability":"nonpayable","type":"function"},{"inputs":[],"name":"cancelWinProbabilityChange","outputs":[],"stateMutability":"nonpayable","type":"function"},{"inputs":[],"name":"cancelWithdrawFund","outputs":[],"stateMutability":"nonpayable","type":"function"},{"inputs":[{"internalType":"uint256","name":"_maxBetValue","type":"uint256"}],"name":"changeMaxBetValue","outputs":[],"stateMutability":"nonpayable","type":"function"},{"inputs":[{"internalType":"uint256","name":"_minBetValue","type":"uint256"}],"name":"changeMinBetValue","outputs":[],"stateMutability":"nonpayable","type":"function"},{"inputs":[],"name":"confirmAdminChange","outputs":[],"stateMutability":"nonpayable","type":"function"},{"inputs":[],"name":"confirmChangeGuardian","outputs":[],"stateMutability":"nonpayable","type":"function"},{"inputs":[],"name":"confirmChangeWinProbability","outputs":[],"stateMutability":"nonpayable","type":"function"},{"inputs":[],"name":"guardian","outputs":[{"internalType":"address","name":"","type":"address"}],"stateMutability":"view","type":"function"},{"inputs":[],"name":"isLocked","outputs":[{"internalType":"bool","name":"","type":"bool"}],"stateMutability":"view","type":"function"},{"inputs":[{"internalType":"address","name":"","type":"address"}],"name":"lastTimestamp","outputs":[{"internalType":"uint256","name":"","type":"uint256"}],"stateMutability":"view","type":"function"},{"inputs":[],"name":"lockContract","outputs":[],"stateMutability":"nonpayable","type":"function"},{"inputs":[],"name":"maxRewardMultiply","outputs":[{"internalType":"uint256","name":"","type":"uint256"}],"stateMutability":"view","type":"function"},{"inputs":[],"name":"maxiumBetValue","outputs":[{"internalType":"uint256","name":"","type":"uint256"}],"stateMutability":"view","type":"function"},{"inputs":[],"name":"miniumBetValue","outputs":[{"internalType":"uint256","name":"","type":"uint256"}],"stateMutability":"view","type":"function"},{"inputs":[],"name":"pendingAdmin","outputs":[{"internalType":"address","name":"","type":"address"}],"stateMutability":"view","type":"function"},{"inputs":[],"name":"pendingAdminChangeTime","outputs":[{"internalType":"uint256","name":"","type":"uint256"}],"stateMutability":"view","type":"function"},{"inputs":[],"name":"pendingGuardian","outputs":[{"internalType":"address","name":"","type":"address"}],"stateMutability":"view","type":"function"},{"inputs":[],"name":"pendingGuardianChangeTime","outputs":[{"internalType":"uint256","name":"","type":"uint256"}],"stateMutability":"view","type":"function"},{"inputs":[],"name":"pendingWinProbability","outputs":[{"internalType":"uint256","name":"","type":"uint256"}],"stateMutability":"view","type":"function"},{"inputs":[],"name":"pendingWinProbabilityChangeTime","outputs":[{"internalType":"uint256","name":"","type":"uint256"}],"stateMutability":"view","type":"function"},{"inputs":[],"name":"pendingWithdrawFundTime","outputs":[{"internalType":"uint256","name":"","type":"uint256"}],"stateMutability":"view","type":"function"},{"inputs":[{"components":[{"internalType":"uint256","name":"amount","type":"uint256"},{"internalType":"enum Baccarat.BetType","name":"betType","type":"uint8"}],"internalType":"struct Baccarat.Bet[]","name":"bets","type":"tuple[]"},{"internalType":"uint256","name":"_amount","type":"uint256"},{"internalType":"uint256","name":"_timestamp","type":"uint256"},{"internalType":"bytes","name":"signature","type":"bytes"}],"name":"placeBet","outputs":[],"stateMutability":"payable","type":"function"},{"inputs":[{"internalType":"address","name":"newAdmin","type":"address"}],"name":"requestAdminChange","outputs":[],"stateMutability":"nonpayable","type":"function"},{"inputs":[{"internalType":"address","name":"newGuardian","type":"address"}],"name":"requestChangeGuardian","outputs":[],"stateMutability":"nonpayable","type":"function"},{"inputs":[{"internalType":"uint256","name":"_winProbability","type":"uint256"}],"name":"requestChangeWinProbability","outputs":[],"stateMutability":"nonpayable","type":"function"},{"inputs":[],"name":"requestWithdrawFund","outputs":[],"stateMutability":"nonpayable","type":"function"},{"inputs":[],"name":"token","outputs":[{"internalType":"contract IERC20","name":"","type":"address"}],"stateMutability":"view","type":"function"},{"inputs":[],"name":"unlockContract","outputs":[],"stateMutability":"nonpayable","type":"function"},{"inputs":[],"name":"winProbability","outputs":[{"internalType":"uint256","name":"","type":"uint256"}],"stateMutability":"view","type":"function"},{"inputs":[{"internalType":"uint256","name":"amount","type":"uint256"}],"name":"withdrawFund","outputs":[],"stateMutability":"nonpayable","type":"function"}],"evm":{"bytecode":{"linkReferences":{},"object":"60e06001600160401b03601f62002ce238819003918201601f191684019190838311858410176200048e578160a0928692604095865283398101031262000489576200004b83620004c0565b9260206200005b818301620004c0565b9462000069848401620004c0565b95608060608501519401519360019060009582875560ff19600f5416600f55801562000441578115620003e8578181106200039157859697989960018060a01b0380911660805260018060a01b0319908060029616828754161786556003961690865416178555600a8355600b55600c558651620000e781620004a4565b60089481868093520167109858d8d85c985d60c21b81522097818689516200010f81620004a4565b82815201603160f81b81522098885199878b01917f8b73c3c69bb8fe3d512ecc4cf759cc79239f7b179b0ffacaa9a75d522b39400f83528a8c015260608b01524660808b01523060a08b015260a08a5260c08a01918a8310908311176200037d57918060e08b8285888e818f9e9d9c9a8f908f9d9b84528751902060a052600e60049d8e60c0528280525281838220558581528c83822055528d2055620001b681620004a4565b5201528060105560115580858951620001cf81620004a4565b82815201528060125560135580848851620001ea81620004a4565b828152015280601455601555808387516200020581620004a4565b82815201528060165560175560058286516200022181620004a4565b82815201526005601855600560195560068286516200024081620004a4565b82815201526006601a556006601b5560078286516200025f81620004a4565b82815201526007601c556007601d55808286516200027d81620004a4565b828152015280601e55601f5560098185516200029981620004a4565b828152015260098155600960215581818551620002b681620004a4565b600a81520152600a6022558160235581818551620002d481620004a4565b600b81520152600b6024558160255581818551620002f281620004a4565b600c81520152600c6026558160275583516200030e81620004a4565b600d81520152600d602855602955516127ec9081620004d682396080518181816101a1015281816105d401528181610ee00152818161134e0152818161153c0152818161191f015281816119cf0152611a04015260a0518161144a015260c05181818161050f015261130e0152f35b634e487b7160e01b88526041600452602488fd5b6084868980519162461bcd60e51b83526004830152602482015260008051602062002cc283398151915260448201527f6561746572207468616e20746865206d696e696d756d206265742076616c75656064820152fd5b875162461bcd60e51b815260048101879052602c60248201527f546865206d696e696d756d206265742076616c7565206d75737420626520677260448201526b06561746572207468616e20360a41b6064820152608490fd5b875162461bcd60e51b815260048101879052602c602482015260008051602062002cc283398151915260448201526b06561746572207468616e20360a41b6064820152608490fd5b600080fd5b634e487b7160e01b600052604160045260246000fd5b604081019081106001600160401b038211176200048e57604052565b51906001600160a01b0382168203620004895756fe6040608081526004908136101561001557600080fd5b600091823560e01c9081630cee172514610e445781631157b26714610de35781631617f19014610dc457816322f0f2f914610d675781632678224714610d3f57816328fc8b6814610ca05781633ab0f33014610c81578163452a932014610c585781634addd5f614610c03578163677660e014610b3457816369f2941d14610b1557816371d0008614610a6f578163753868e314610a0f578163762c31ba146109e65781637ce3c6dc14610948578163847d1e901461089a5781638c51d1e4146107f85781639a138974146106fb5781639d1c35e2146105835781639e09062814610532578163a48158e5146104f7578163a4e2d634146104d3578163a74b678314610413578163a9860b97146103f4578163ba8a305c146103d5578163bff42fe4146103b6578163dccfac821461037c578163e065fc93146102a357508063e1d8192c14610285578063ed3cacc114610267578063f851a4401461023f578063fb49fe27146101d45763fc0c546a1461018e57600080fd5b346101d057816003193601126101d057517f00000000000000000000000000000000000000000000000000000000000000006001600160a01b03168152602090f35b5080fd5b823461023c578060031936011261023c576101fa60018060a01b036003541633146110bf565b6bffffffffffffffffffffffff60a01b60065416600655806007557f7a81c642828249ae51a34cf52e35ebbf08bd3cb36fb5a4b4c8e80261893f5b818180a180f35b80fd5b50346101d057816003193601126101d05760025490516001600160a01b039091168152602090f35b50346101d057816003193601126101d0576020906007549051908152f35b50346101d057816003193601126101d0576020906009549051908152f35b91905034610378576020366003190112610378578135916102cf60018060a01b0360025416331461100f565b821561032a57507fa9f6ef469a02717105903bbce25c47a4db6a0d759d929c5cd9bf295a7033b1749161032491610309600c548311611149565b600b8290555133815260208101919091529081906040820190565b0390a180f35b6020608492519162461bcd60e51b8352820152602360248201527f546865206d617869756d206265742076616c756520677265617465722074686160448201526206e20360ec1b6064820152fd5b8280fd5b90503461037857602036600319011261037857356001600160a01b038116908190036103785782829160209452600d845220549051908152f35b5050346101d057816003193601126101d0576020906005549051908152f35b5050346101d057816003193601126101d057602090600b549051908152f35b5050346101d057816003193601126101d057602090600a549051908152f35b8383346101d057816003193601126101d0576002546001600160a01b03919061043f338483161461100f565b845492831692610450841515612233565b60055461045e811515612233565b6203f48081018091116104c0577f7ce7ec0b50378fb6c0186ffb5f48325f6593fcb4ca4386f21861af3129188f5c94926020949261049f8993421015612180565b6001600160a01b03199182168517600255169055600585905551908152a180f35b634e487b7160e01b865260118752602486fd5b5050346101d057816003193601126101d05760209060ff600f541690519015158152f35b5050346101d057816003193601126101d057602090517f00000000000000000000000000000000000000000000000000000000000000008152f35b833461023c578060031936011261023c5761055860018060a01b036003541633146110bf565b806008557f94a9b8fb6e694c6c0fbee0e13e1c5b9ae2dda4395e3495228a46dc717617c6fa8180a180f35b839150346101d057816003193601126101d0576002546001600160a01b0391906105b0908316331461100f565b6008546106ae57835180926370a0823160e01b8252308383015281602460209586937f0000000000000000000000000000000000000000000000000000000000000000165afa9081156106a4578491610673575b501561063a57507fe20350bd5ff90b7bdbcb8229cf46c222a5f5b18f094a1ac5962451445fda107691924260085551428152a180f35b60649184519162461bcd60e51b835282015260156024820152744e6f20746f6b656e7320746f20776974686472617760581b6044820152fd5b90508281813d831161069d575b61068a8183611253565b81010312610699575185610604565b8380fd5b503d610680565b85513d86823e3d90fd5b608490602085519162461bcd60e51b8352820152602160248201527f5769746864726177616c207265717565737420697320696e2070726f677265736044820152607360f81b6064820152fd5b9190503461037857826003193601126103785761072360018060a01b0360025416331461100f565b600954916107328315156121dd565b600a546107408115156121dd565b6203f48081018091116107e557421061078d5750816020917f9dc86596ca5f70a96c96b2cb0be04f02b7da0a6261f97d43cebcc921020b1925936001558460095584600a5551908152a180f35b6020608492519162461bcd60e51b8352820152602d60248201527f4d75737420776169742033206461797320746f20636f6e6669726d207365656460448201526c207265656c73206368616e676560981b6064820152fd5b634e487b7160e01b855260118252602485fd5b919050346103785760203660031901126103785781356001600160a01b0381811693909290848303610896577f72b357b8c271031aad940e03e51f8c172b495a1dd60d6e902d339c7f49604102946108586103249560025416331461100f565b61086381151561110b565b81546001600160a01b03191617905542600581905590516001600160a01b03909216825260208201529081906040820190565b8580fd5b8383346101d057816003193601126101d0576003546001600160a01b0391906108c633848316146110bf565b600654928316926108d8841515612134565b6007546108e6811515612134565b6203f48081018091116104c05791602093916109267f01c6520cf747e4632b43b535b91afe3950ccabc4ab29bbd89e3c1f6b0ba056559694421015612180565b6001600160a01b0319918216841760035516600655600785905551908152a180f35b839060803660031901126101d05767ffffffffffffffff8135818111610699573660238201121561069957808301358281116109e2573660248260061b840101116109e257606435938385116108965736602386011215610896578401359283116109e25736602484860101116109e25760246109df946109ce60ff600f54161561105b565b0191604435916024803592016112de565b80f35b8480fd5b5050346101d057816003193601126101d05760065490516001600160a01b039091168152602090f35b5050346101d057816003193601126101d05760207f46a289a85516d6b63cec7f685e3f5398070f9fc5fb8e3d14021add023fec568f91610a5a60018060a01b036003541633146110bf565b600160ff19600f541617600f5551338152a180f35b9190503461037857602036600319011261037857813591610a9b60018060a01b0360025416331461100f565b6032831015610ada5750816020917f9b161a37c93b297fe93d8f6f47f959bb91bd34a421b3892b0c91674ce107fb249360095542600a5551908152a180f35b6020606492519162461bcd60e51b83528201526016602482015275496e76616c69642077696e50726f626162696c69747960501b6044820152fd5b5050346101d057816003193601126101d0576020906001549051908152f35b9190503461037857602036600319011261037857813591610b6060018060a01b0360025416331461100f565b8215610bb557508161032491610b9a7f96fd935283ebe139eff1231ba7e60b91334b7e1e1c67c91c68b58f8d4a7b211f94600b5411611149565b600c8290555133815260208101919091529081906040820190565b6020608492519162461bcd60e51b8352820152602360248201527f546865206d696e69756d206265742076616c756520677265617465722074686160448201526206e20360ec1b6064820152fd5b833461023c578060031936011261023c57610c2960018060a01b0360025416331461100f565b8060095580600a557f9ef48cacefe12ab0a801d57bc51beb3a36523278e29346ed78249364434565028180a180f35b5050346101d057816003193601126101d05760035490516001600160a01b039091168152602090f35b5050346101d057816003193601126101d0576020906008549051908152f35b905034610378576020366003190112610378576001600160a01b039035818116928382036109e2577f6c437b1584202b77482374dd2215b75e975b0be0768b92ed5e4b048b0e10987993610cfc610324946003541633146110bf565b610d0781151561110b565b600680546001600160a01b03191691909117905542600781905590516001600160a01b03909216825260208201529081906040820190565b9050346103785782600319360112610378575490516001600160a01b03909116815260209150f35b5050346101d057816003193601126101d05760207ff08396b9fd122c2ef99aec183d994d39fa54cc25773e4b8a6ed20ad08aef02c991610db260018060a01b036003541633146110bf565b60ff19600f5416600f5551338152a180f35b5050346101d057816003193601126101d057602090600c549051908152f35b8390346101d057816003193601126101d057610e0a60018060a01b036003541633146110bf565b80546001600160a01b031916905560058190557f07ad662e4db36fe46ee1697376f8457b103123c200de262ca4baf9f5cad0a1e88180a180f35b839150346101d05760203660031901126101d0576002548135916001600160a01b0391821690610e7533831461100f565b6002855414610fcc5760028555610e9160ff600f54161561105b565b6008548015610f935762093a808101809111610f80574210610f325750839491610f0484610f28937f09ad672d4e7c4892da934d1051932ebe9ec4b6ec8c3f40d569176db3e93e5abe976008557f000000000000000000000000000000000000000000000000000000000000000061227f565b600254925192166001600160a01b0316825260208201929092529081906040820190565b0390a16001815580f35b608490602087519162461bcd60e51b8352820152602260248201527f4d75737420776169742037206461797320746f2077697468647261772066756e604482015261647360f01b6064820152fd5b634e487b7160e01b865260118252602486fd5b865162461bcd60e51b815260208184015260136024820152724e6f2070656e64696e6720776974686472617760681b6044820152606490fd5b606490602087519162461bcd60e51b8352820152601f60248201527f5265656e7472616e637947756172643a207265656e7472616e742063616c6c006044820152fd5b1561101657565b60405162461bcd60e51b815260206004820152601b60248201527f4f6e6c792061646d696e2063616e2065786563757465207468697300000000006044820152606490fd5b1561106257565b60405162461bcd60e51b815260206004820152601260248201527110dbdb9d1c9858dd081a5cc81b1bd8dad95960721b6044820152606490fd5b919082018092116110a957565b634e487b7160e01b600052601160045260246000fd5b156110c657565b60405162461bcd60e51b815260206004820152601e60248201527f4f6e6c7920677561726469616e2063616e2065786563757465207468697300006044820152606490fd5b1561111257565b60405162461bcd60e51b815260206004820152600f60248201526e496e76616c6964206164647265737360881b6044820152606490fd5b1561115057565b60405162461bcd60e51b815260206004820152603260248201527f546865206d617869756d206265742076616c75652067726561746572207468616044820152716e206d696e69756d206265742076616c756560701b6064820152608490fd5b91908110156111c05760061b0190565b634e487b7160e01b600052603260045260246000fd5b818102929181159184041417156110a957565b6040810190811067ffffffffffffffff82111761120557604052565b634e487b7160e01b600052604160045260246000fd5b60a0810190811067ffffffffffffffff82111761120557604052565b6060810190811067ffffffffffffffff82111761120557604052565b90601f8019910116810190811067ffffffffffffffff82111761120557604052565b91908260409103126112a65760405161128d816111e9565b8235815291602001358260038210156112a65760200152565b600080fd5b6000915b600383106112bc57505050565b60019060408351918251815260208093015183820152019201920191906112af565b93959490919295600c5484106120c957600b54841161208457836000805b85811061206057500361200c576113337f0000000000000000000000000000000000000000000000000000000000000000856111d6565b6040516370a0823160e01b81523060048201526020816024817f00000000000000000000000000000000000000000000000000000000000000006001600160a01b03165afa908115611abd57600091611fda575b5010611f9557864210611f5057603c87018088116110a9574211611f175733600052600d602052604060002054871115611ed25760405180606081011067ffffffffffffffff6060830111176112055760408160608a93018252338152866020820152015260405160208101907f0e81d1cdf23bdc0a6bef5035503a1014285a41cc67c1e91e29d9211b707e3cf98252336040820152856060820152886080820152608081526114368161121b565b5190206040519061190160f01b60208301527f0000000000000000000000000000000000000000000000000000000000000000602283015260428201526042815280608081011067ffffffffffffffff6080830111176112055760808101604052602081519101206114a7836122c2565b906114b56040519283611253565b83825236848401116112a65760006020856114e3966114db968387013784010152612517565b91909161254f565b6002546001600160a01b03908116911603611e995733600052600d602052846040600020556115606040516323b872dd60e01b60208201523360248201523060448201528360648201526064815261153a8161121b565b7f00000000000000000000000000000000000000000000000000000000000000006123fc565b61157460405161156f81611237565b6122de565b61158360405161156f81611237565b6040519461159086611237565b611599866122de565b604051906115a682611237565b6115af826122de565b6040518060c081011067ffffffffffffffff60c0830111176112055760c0810160405260005b60c08110611e76575060008019430191438311915b60068110611d9257508060a091518b52602081015160208c0152604081015160408c015260608101518652608081015160208701520151604085015261163560405161156f81611237565b61164460405161156f81611237565b60009061165660405161156f81611237565b61166560405161156f81611237565b611d7e57606460405160208101903360601b825284406034820152446054820152856074820152607481526116998161121b565b5190200660015411916116ac858b61233f565b9490936040516116bb816111e9565b84815284602082015290600014611bdc575060018703611b745750508415611b605760206116e93689611275565b0180516003811015611b4c57611af057505011958615611aea57805b9615611ae357505b935b611719858761233f565b93909267ffffffffffffffff8111611205576040519561173f60208360051b0188611253565b8187526020870190368360061b8201116112a65780915b8360061b82018310611ac95750505050600096875b86518910156118fa5761178a60206117838b8a6123e8565b5101612332565b60038110156118d25715806118f1575b156117f4576117eb6001916117e56117b28c8b6123e8565b515160008052600e6020527fe710864318d4a32f37d6ce54cb3fadbef648dd12d8dbdf53973564d56b7f881c54906111d6565b9061109c565b985b019761176b565b61180360206117838b8a6123e8565b60038110156118d257600214806118e8575b15611867576118616001916117e561182d8c8b6123e8565b51516002600052600e6020527f9adb202b1492743bc00c81d33cdc6423fa8c79109027eb6a845391e8fc1f048154906111d6565b986117ed565b976118776020611783838a6123e8565b60038110156118d257600114806118c9575b611896575b6001906117ed565b976118c16001916117e56118aa8c8b6123e8565b515184600052600e602052604060002054906111d6565b98905061188e565b50858514611889565b634e487b7160e01b600052602160045260246000fd5b50848611611815565b5085851161179a565b6040516370a0823160e01b8152306004820152939850919690955090916020816024817f00000000000000000000000000000000000000000000000000000000000000006001600160a01b03165afa908115611abd57600091611a5d575b50907f8e3897e7ec1b94c33e7a96847f87c200c4a4b55135ac87bc06946c2e91be755f96839261020097969594116119f857506119b390826119c8575b6119a96040519633885260208801906112ab565b60e08601906112ab565b6101a08401526101c08301526101e0820152a1565b6119f383337f000000000000000000000000000000000000000000000000000000000000000061227f565b611995565b611a469250611a2890337f000000000000000000000000000000000000000000000000000000000000000061227f565b611a3c6040519533875260208701906112ab565b60e08501906112ab565b60006101a08401526101c08301526101e0820152a1565b959493929190506020863d602011611ab5575b81611a7d60209383611253565b810103126112a657945193949293919290917f8e3897e7ec1b94c33e7a96847f87c200c4a4b55135ac87bc06946c2e91be755f611958565b3d9150611a70565b6040513d6000823e3d90fd5b6020604091611ad83686611275565b815201920191611756565b905061170d565b81611705565b98979851906003821015611b385750600203611b2b5711948515611b2557805b9515611b1e57505b9461170f565b9050611b18565b81611b10565b505050839493949361170f565b634e487b7160e01b81526021600452602490fd5b634e487b7160e01b83526021600452602483fd5b634e487b7160e01b81526032600452602490fd5b6040519060208201923360601b8452406034830152446054830152607482015260748152611ba18161121b565b5190208515611bc857611bc3602091611bbe88369206898c6111b0565b611275565b6116e9565b634e487b7160e01b82526012600452602482fd5b99989796959493929150506003851015611cfa5760405198611bfd8a611237565b6060368b37815b868110611ccd5750815b60038110611c29575b506020919293949596979899506116e9565b611c33818c612321565b5115611c42575b600101611c0e565b905080611c7757509091929394959697506020604051611c61816111e9565b8281528282820152899897969594939291611c17565b60028103611cae57509091929394959697506020604051611c97816111e9565b828152600282820152899897969594939291611c17565b6001604051611cbc816111e9565b838152816020820152919050611c3a565b6020611cda82898c6111b0565b0135600381101561069957906001611cf381938e612321565b5201611c04565b909192939495969781825b878110611d165750506020906116e9565b896020611d30838b611d298282876111b0565b35946111b0565b01356003811015610896578552600e6020526040852054611d50916111d6565b828110611d61575b50600101611d05565b915091506001611d778a611bbe858b36936111b0565b9290611d58565b634e487b7160e01b81526011600452602490fd5b916002830183116110a9576110a95760405191600d602084013360601b8152603490864082870152611de96103e860549244848a0152607498600288018a820152898152611ddf8161121b565b519020068961109c565b956000966040519260208401943360601b86528a40908501524490840152818301528152611e168161121b565b51902006600d811015611e625790600191821b601160405191611e38836111e9565b8060100154835201546020820152611e508285612310565b52611e5b8184612310565b50016115ea565b634e487b7160e01b84526032600452602484fd5b602090604051611e85816111e9565b6000815260008382015281840152016115d5565b60405162461bcd60e51b8152602060048201526011602482015270496e76616c6964207369676e617475726560781b6044820152606490fd5b60405162461bcd60e51b815260206004820152601760248201527f54696d657374616d70206d757374206265206e657765720000000000000000006044820152606490fd5b60405162461bcd60e51b8152602060048201526011602482015270151a5b595cdd185b5c08195e1c1a5c9959607a1b6044820152606490fd5b60405162461bcd60e51b815260206004820152601960248201527f54696d657374616d702066726f6d2074686520667574757265000000000000006044820152606490fd5b60405162461bcd60e51b815260206004820152601f60248201527f436f6e74726163742068617320696e73756666696369656e742066756e6473006044820152606490fd5b90506020813d602011612004575b81611ff560209383611253565b810103126112a6575138611387565b3d9150611fe8565b60405162461bcd60e51b815260206004820152602660248201527f546f74616c2062657420616d6f756e74206d757374206d617463682073656e746044820152652076616c756560d01b6064820152608490fd5b915061207a60019161207384888b6111b0565b359061109c565b91019085916112fc565b60405162461bcd60e51b815260206004820152601960248201527f4265742065786365656473206d6178696d756d206c696d6974000000000000006044820152606490fd5b60405162461bcd60e51b815260206004820152603e60248201527f5468652062657420616d6f756e74206d7573742062652067726561746572207460448201527f68616e20746865206d696e696d756d2072657175697265642076616c756500006064820152608490fd5b1561213b57565b60405162461bcd60e51b815260206004820152601a60248201527f4e6f2070656e64696e6720677561726469616e206368616e67650000000000006044820152606490fd5b1561218757565b60405162461bcd60e51b815260206004820152602860248201527f4d75737420776169742033206461797320746f20636f6e6669726d2061646d696044820152676e206368616e676560c01b6064820152608490fd5b156121e457565b60405162461bcd60e51b815260206004820152602160248201527f4e6f2070656e64696e672077696e2070726f626162696c697479206368616e676044820152606560f81b6064820152608490fd5b1561223a57565b60405162461bcd60e51b815260206004820152601760248201527f4e6f2070656e64696e672061646d696e206368616e67650000000000000000006044820152606490fd5b60405163a9059cbb60e01b60208201526001600160a01b039290921660248301526044808301939093529181526122c0916122bb606483611253565b6123fc565b565b67ffffffffffffffff811161120557601f01601f191660200190565b6000805b606081106122ef57505050565b6020906040516122fe816111e9565b838152838382015281850152016122e2565b9060068110156111c05760051b0190565b9060038110156111c05760051b0190565b5160038110156118d25790565b91906020600a61235a8286510151838088015101519061109c565b0691600a6123738383510151848085015101519061109c565b069460088410806123de575b61238b575b5050509190565b600684106123c1575b50600685106123a4575b80612384565b6040015101519092600a916123b89161109c565b0691388061239e565b600a91938360406123d693015101519061109c565b069138612394565b506008861061237f565b80518210156111c05760209160051b010190565b60018060a01b031690612479604051612414816111e9565b6020938482527f5361666545524332303a206c6f772d6c6576656c2063616c6c206661696c6564858301526000808587829751910182855af13d1561250f573d9161245e836122c2565b9261246c6040519485611253565b83523d868885013e6126e2565b8051918215918483156124eb575b5050509050156124945750565b6084906040519062461bcd60e51b82526004820152602a60248201527f5361666545524332303a204552433230206f7065726174696f6e20646964206e6044820152691bdd081cdd58d8d9595960b21b6064820152fd5b9193818094500103126101d05782015190811515820361023c575080388084612487565b6060916126e2565b90604181511460001461254557612541916020820151906060604084015193015160001a90612653565b9091565b5050600090600290565b60058110156118d257806125605750565b600181036125ad5760405162461bcd60e51b815260206004820152601860248201527f45434453413a20696e76616c6964207369676e617475726500000000000000006044820152606490fd5b600281036125fa5760405162461bcd60e51b815260206004820152601f60248201527f45434453413a20696e76616c6964207369676e6174757265206c656e677468006044820152606490fd5b60031461260357565b60405162461bcd60e51b815260206004820152602260248201527f45434453413a20696e76616c6964207369676e6174757265202773272076616c604482015261756560f01b6064820152608490fd5b9291907f7fffffffffffffffffffffffffffffff5d576e7357a4501ddfe92f46681b20a083116126d65791608094939160ff602094604051948552168484015260408301526060820152600093849182805260015afa156126c95781516001600160a01b038116156126c3579190565b50600190565b50604051903d90823e3d90fd5b50505050600090600390565b9192901561274457508151156126f6575090565b3b156126ff5790565b60405162461bcd60e51b815260206004820152601d60248201527f416464726573733a2063616c6c20746f206e6f6e2d636f6e74726163740000006044820152606490fd5b8251909150156127575750805190602001fd5b6040519062461bcd60e51b82528160208060048301528251908160248401526000935b82851061279d575050604492506000838284010152601f80199101168101030190fd5b848101820151868601604401529381019385935061277a56fea26469706673582212209bd240f3450e7cd88f07ede3b5cddbe740490f788c52561a71a2a88fba98faef64736f6c63430008180033546865206d6178696d756d206265742076616c7565206d757374206265206772","opcodes":"PUSH1 0xE0 PUSH1 0x1 PUSH1 0x1 PUSH1 0x40 SHL SUB PUSH1 0x1F PUSH3 0x2CE2 CODESIZE DUP2 SWAP1 SUB SWAP2 DUP3 ADD PUSH1 0x1F NOT AND DUP5 ADD SWAP2 SWAP1 DUP4 DUP4 GT DUP6 DUP5 LT OR PUSH3 0x48E JUMPI DUP2 PUSH1 0xA0 SWAP3 DUP7 SWAP3 PUSH1 0x40 SWAP6 DUP7 MSTORE DUP4 CODECOPY DUP2 ADD SUB SLT PUSH3 0x489 JUMPI PUSH3 0x4B DUP4 PUSH3 0x4C0 JUMP JUMPDEST SWAP3 PUSH1 0x20 PUSH3 0x5B DUP2 DUP4 ADD PUSH3 0x4C0 JUMP JUMPDEST SWAP5 PUSH3 0x69 DUP5 DUP5 ADD PUSH3 0x4C0 JUMP JUMPDEST SWAP6 PUSH1 0x80 PUSH1 0x60 DUP6 ADD MLOAD SWAP5 ADD MLOAD SWAP4 PUSH1 0x1 SWAP1 PUSH1 0x0 SWAP6 DUP3 DUP8 SSTORE PUSH1 0xFF NOT PUSH1 0xF SLOAD AND PUSH1 0xF SSTORE DUP1 ISZERO PUSH3 0x441 JUMPI DUP2 ISZERO PUSH3 0x3E8 JUMPI DUP2 DUP2 LT PUSH3 0x391 JUMPI DUP6 SWAP7 SWAP8 SWAP9 SWAP10 PUSH1 0x1 DUP1 PUSH1 0xA0 SHL SUB DUP1 SWAP2 AND PUSH1 0x80 MSTORE PUSH1 0x1 DUP1 PUSH1 0xA0 SHL SUB NOT SWAP1 DUP1 PUSH1 0x2 SWAP7 AND DUP3 DUP8 SLOAD AND OR DUP7 SSTORE PUSH1 0x3 SWAP7 AND SWAP1 DUP7 SLOAD AND OR DUP6 SSTORE PUSH1 0xA DUP4 SSTORE PUSH1 0xB SSTORE PUSH1 0xC SSTORE DUP7 MLOAD PUSH3 0xE7 DUP2 PUSH3 0x4A4 JUMP JUMPDEST PUSH1 0x8 SWAP5 DUP2 DUP7 DUP1 SWAP4 MSTORE ADD PUSH8 0x109858D8D85C985D PUSH1 0xC2 SHL DUP2 MSTORE KECCAK256 SWAP8 DUP2 DUP7 DUP10 MLOAD PUSH3 0x10F DUP2 PUSH3 0x4A4 JUMP JUMPDEST DUP3 DUP2 MSTORE ADD PUSH1 0x31 PUSH1 0xF8 SHL DUP2 MSTORE KECCAK256 SWAP9 DUP9 MLOAD SWAP10 DUP8 DUP12 ADD SWAP2 PUSH32 0x8B73C3C69BB8FE3D512ECC4CF759CC79239F7B179B0FFACAA9A75D522B39400F DUP4 MSTORE DUP11 DUP13 ADD MSTORE PUSH1 0x60 DUP12 ADD MSTORE CHAINID PUSH1 0x80 DUP12 ADD MSTORE ADDRESS PUSH1 0xA0 DUP12 ADD MSTORE PUSH1 0xA0 DUP11 MSTORE PUSH1 0xC0 DUP11 ADD SWAP2 DUP11 DUP4 LT SWAP1 DUP4 GT OR PUSH3 0x37D JUMPI SWAP2 DUP1 PUSH1 0xE0 DUP12 DUP3 DUP6 DUP9 DUP15 DUP2 DUP16 SWAP15 SWAP14 SWAP13 SWAP11 DUP16 SWAP1 DUP16 SWAP14 SWAP12 DUP5 MSTORE DUP8 MLOAD SWAP1 KECCAK256 PUSH1 0xA0 MSTORE PUSH1 0xE PUSH1 0x4 SWAP14 DUP15 PUSH1 0xC0 MSTORE DUP3 DUP1 MSTORE MSTORE DUP2 DUP4 DUP3 KECCAK256 SSTORE DUP6 DUP2 MSTORE DUP13 DUP4 DUP3 KECCAK256 SSTORE MSTORE DUP14 KECCAK256 SSTORE PUSH3 0x1B6 DUP2 PUSH3 0x4A4 JUMP JUMPDEST MSTORE ADD MSTORE DUP1 PUSH1 0x10 SSTORE PUSH1 0x11 SSTORE DUP1 DUP6 DUP10 MLOAD PUSH3 0x1CF DUP2 PUSH3 0x4A4 JUMP JUMPDEST DUP3 DUP2 MSTORE ADD MSTORE DUP1 PUSH1 0x12 SSTORE PUSH1 0x13 SSTORE DUP1 DUP5 DUP9 MLOAD PUSH3 0x1EA DUP2 PUSH3 0x4A4 JUMP JUMPDEST DUP3 DUP2 MSTORE ADD MSTORE DUP1 PUSH1 0x14 SSTORE PUSH1 0x15 SSTORE DUP1 DUP4 DUP8 MLOAD PUSH3 0x205 DUP2 PUSH3 0x4A4 JUMP JUMPDEST DUP3 DUP2 MSTORE ADD MSTORE DUP1 PUSH1 0x16 SSTORE PUSH1 0x17 SSTORE PUSH1 0x5 DUP3 DUP7 MLOAD PUSH3 0x221 DUP2 PUSH3 0x4A4 JUMP JUMPDEST DUP3 DUP2 MSTORE ADD MSTORE PUSH1 0x5 PUSH1 0x18 SSTORE PUSH1 0x5 PUSH1 0x19 SSTORE PUSH1 0x6 DUP3 DUP7 MLOAD PUSH3 0x240 DUP2 PUSH3 0x4A4 JUMP JUMPDEST DUP3 DUP2 MSTORE ADD MSTORE PUSH1 0x6 PUSH1 0x1A SSTORE PUSH1 0x6 PUSH1 0x1B SSTORE PUSH1 0x7 DUP3 DUP7 MLOAD PUSH3 0x25F DUP2 PUSH3 0x4A4 JUMP JUMPDEST DUP3 DUP2 MSTORE ADD MSTORE PUSH1 0x7 PUSH1 0x1C SSTORE PUSH1 0x7 PUSH1 0x1D SSTORE DUP1 DUP3 DUP7 MLOAD PUSH3 0x27D DUP2 PUSH3 0x4A4 JUMP JUMPDEST DUP3 DUP2 MSTORE ADD MSTORE DUP1 PUSH1 0x1E SSTORE PUSH1 0x1F SSTORE PUSH1 0x9 DUP2 DUP6 MLOAD PUSH3 0x299 DUP2 PUSH3 0x4A4 JUMP JUMPDEST DUP3 DUP2 MSTORE ADD MSTORE PUSH1 0x9 DUP2 SSTORE PUSH1 0x9 PUSH1 0x21 SSTORE DUP2 DUP2 DUP6 MLOAD PUSH3 0x2B6 DUP2 PUSH3 0x4A4 JUMP JUMPDEST PUSH1 0xA DUP2 MSTORE ADD MSTORE PUSH1 0xA PUSH1 0x22 SSTORE DUP2 PUSH1 0x23 SSTORE DUP2 DUP2 DUP6 MLOAD PUSH3 0x2D4 DUP2 PUSH3 0x4A4 JUMP JUMPDEST PUSH1 0xB DUP2 MSTORE ADD MSTORE PUSH1 0xB PUSH1 0x24 SSTORE DUP2 PUSH1 0x25 SSTORE DUP2 DUP2 DUP6 MLOAD PUSH3 0x2F2 DUP2 PUSH3 0x4A4 JUMP JUMPDEST PUSH1 0xC DUP2 MSTORE ADD MSTORE PUSH1 0xC PUSH1 0x26 SSTORE DUP2 PUSH1 0x27 SSTORE DUP4 MLOAD PUSH3 0x30E DUP2 PUSH3 0x4A4 JUMP JUMPDEST PUSH1 0xD DUP2 MSTORE ADD MSTORE PUSH1 0xD PUSH1 0x28 SSTORE PUSH1 0x29 SSTORE MLOAD PUSH2 0x27EC SWAP1 DUP2 PUSH3 0x4D6 DUP3 CODECOPY PUSH1 0x80 MLOAD DUP2 DUP2 DUP2 PUSH2 0x1A1 ADD MSTORE DUP2 DUP2 PUSH2 0x5D4 ADD MSTORE DUP2 DUP2 PUSH2 0xEE0 ADD MSTORE DUP2 DUP2 PUSH2 0x134E ADD MSTORE DUP2 DUP2 PUSH2 0x153C ADD MSTORE DUP2 DUP2 PUSH2 0x191F ADD MSTORE DUP2 DUP2 PUSH2 0x19CF ADD MSTORE PUSH2 0x1A04 ADD MSTORE PUSH1 0xA0 MLOAD DUP2 PUSH2 0x144A ADD MSTORE PUSH1 0xC0 MLOAD DUP2 DUP2 DUP2 PUSH2 0x50F ADD MSTORE PUSH2 0x130E ADD MSTORE RETURN JUMPDEST PUSH4 0x4E487B71 PUSH1 0xE0 SHL DUP9 MSTORE PUSH1 0x41 PUSH1 0x4 MSTORE PUSH1 0x24 DUP9 REVERT JUMPDEST PUSH1 0x84 DUP7 DUP10 DUP1 MLOAD SWAP2 PUSH3 0x461BCD PUSH1 0xE5 SHL DUP4 MSTORE PUSH1 0x4 DUP4 ADD MSTORE PUSH1 0x24 DUP3 ADD MSTORE PUSH1 0x0 DUP1 MLOAD PUSH1 0x20 PUSH3 0x2CC2 DUP4 CODECOPY DUP2 MLOAD SWAP2 MSTORE PUSH1 0x44 DUP3 ADD MSTORE PUSH32 0x6561746572207468616E20746865206D696E696D756D206265742076616C7565 PUSH1 0x64 DUP3 ADD MSTORE REVERT JUMPDEST DUP8 MLOAD PUSH3 0x461BCD PUSH1 0xE5 SHL DUP2 MSTORE PUSH1 0x4 DUP2 ADD DUP8 SWAP1 MSTORE PUSH1 0x2C PUSH1 0x24 DUP3 ADD MSTORE PUSH32 0x546865206D696E696D756D206265742076616C7565206D757374206265206772 PUSH1 0x44 DUP3 ADD MSTORE PUSH12 0x6561746572207468616E203 PUSH1 0xA4 SHL PUSH1 0x64 DUP3 ADD MSTORE PUSH1 0x84 SWAP1 REVERT JUMPDEST DUP8 MLOAD PUSH3 0x461BCD PUSH1 0xE5 SHL DUP2 MSTORE PUSH1 0x4 DUP2 ADD DUP8 SWAP1 MSTORE PUSH1 0x2C PUSH1 0x24 DUP3 ADD MSTORE PUSH1 0x0 DUP1 MLOAD PUSH1 0x20 PUSH3 0x2CC2 DUP4 CODECOPY DUP2 MLOAD SWAP2 MSTORE PUSH1 0x44 DUP3 ADD MSTORE PUSH12 0x6561746572207468616E203 PUSH1 0xA4 SHL PUSH1 0x64 DUP3 ADD MSTORE PUSH1 0x84 SWAP1 REVERT JUMPDEST PUSH1 0x0 DUP1 REVERT JUMPDEST PUSH4 0x4E487B71 PUSH1 0xE0 SHL PUSH1 0x0 MSTORE PUSH1 0x41 PUSH1 0x4 MSTORE PUSH1 0x24 PUSH1 0x0 REVERT JUMPDEST PUSH1 0x40 DUP2 ADD SWAP1 DUP2 LT PUSH1 0x1 PUSH1 0x1 PUSH1 0x40 SHL SUB DUP3 GT OR PUSH3 0x48E JUMPI PUSH1 0x40 MSTORE JUMP JUMPDEST MLOAD SWAP1 PUSH1 0x1 PUSH1 0x1 PUSH1 0xA0 SHL SUB DUP3 AND DUP3 SUB PUSH3 0x489 JUMPI JUMP INVALID PUSH1 0x40 PUSH1 0x80 DUP2 MSTORE PUSH1 0x4 SWAP1 DUP2 CALLDATASIZE LT ISZERO PUSH2 0x15 JUMPI PUSH1 0x0 DUP1 REVERT JUMPDEST PUSH1 0x0 SWAP2 DUP3 CALLDATALOAD PUSH1 0xE0 SHR SWAP1 DUP2 PUSH4 0xCEE1725 EQ PUSH2 0xE44 JUMPI DUP2 PUSH4 0x1157B267 EQ PUSH2 0xDE3 JUMPI DUP2 PUSH4 0x1617F190 EQ PUSH2 0xDC4 JUMPI DUP2 PUSH4 0x22F0F2F9 EQ PUSH2 0xD67 JUMPI DUP2 PUSH4 0x26782247 EQ PUSH2 0xD3F JUMPI DUP2 PUSH4 0x28FC8B68 EQ PUSH2 0xCA0 JUMPI DUP2 PUSH4 0x3AB0F330 EQ PUSH2 0xC81 JUMPI DUP2 PUSH4 0x452A9320 EQ PUSH2 0xC58 JUMPI DUP2 PUSH4 0x4ADDD5F6 EQ PUSH2 0xC03 JUMPI DUP2 PUSH4 0x677660E0 EQ PUSH2 0xB34 JUMPI DUP2 PUSH4 0x69F2941D EQ PUSH2 0xB15 JUMPI DUP2 PUSH4 0x71D00086 EQ PUSH2 0xA6F JUMPI DUP2 PUSH4 0x753868E3 EQ PUSH2 0xA0F JUMPI DUP2 PUSH4 0x762C31BA EQ PUSH2 0x9E6 JUMPI DUP2 PUSH4 0x7CE3C6DC EQ PUSH2 0x948 JUMPI DUP2 PUSH4 0x847D1E90 EQ PUSH2 0x89A JUMPI DUP2 PUSH4 0x8C51D1E4 EQ PUSH2 0x7F8 JUMPI DUP2 PUSH4 0x9A138974 EQ PUSH2 0x6FB JUMPI DUP2 PUSH4 0x9D1C35E2 EQ PUSH2 0x583 JUMPI DUP2 PUSH4 0x9E090628 EQ PUSH2 0x532 JUMPI DUP2 PUSH4 0xA48158E5 EQ PUSH2 0x4F7 JUMPI DUP2 PUSH4 0xA4E2D634 EQ PUSH2 0x4D3 JUMPI DUP2 PUSH4 0xA74B6783 EQ PUSH2 0x413 JUMPI DUP2 PUSH4 0xA9860B97 EQ PUSH2 0x3F4 JUMPI DUP2 PUSH4 0xBA8A305C EQ PUSH2 0x3D5 JUMPI DUP2 PUSH4 0xBFF42FE4 EQ PUSH2 0x3B6 JUMPI DUP2 PUSH4 0xDCCFAC82 EQ PUSH2 0x37C JUMPI DUP2 PUSH4 0xE065FC93 EQ PUSH2 0x2A3 JUMPI POP DUP1 PUSH4 0xE1D8192C EQ PUSH2 0x285 JUMPI DUP1 PUSH4 0xED3CACC1 EQ PUSH2 0x267 JUMPI DUP1 PUSH4 0xF851A440 EQ PUSH2 0x23F JUMPI DUP1 PUSH4 0xFB49FE27 EQ PUSH2 0x1D4 JUMPI PUSH4 0xFC0C546A EQ PUSH2 0x18E JUMPI PUSH1 0x0 DUP1 REVERT JUMPDEST CALLVALUE PUSH2 0x1D0 JUMPI DUP2 PUSH1 0x3 NOT CALLDATASIZE ADD SLT PUSH2 0x1D0 JUMPI MLOAD PUSH32 0x0 PUSH1 0x1 PUSH1 0x1 PUSH1 0xA0 SHL SUB AND DUP2 MSTORE PUSH1 0x20 SWAP1 RETURN JUMPDEST POP DUP1 REVERT JUMPDEST DUP3 CALLVALUE PUSH2 0x23C JUMPI DUP1 PUSH1 0x3 NOT CALLDATASIZE ADD SLT PUSH2 0x23C JUMPI PUSH2 0x1FA PUSH1 0x1 DUP1 PUSH1 0xA0 SHL SUB PUSH1 0x3 SLOAD AND CALLER EQ PUSH2 0x10BF JUMP JUMPDEST PUSH12 0xFFFFFFFFFFFFFFFFFFFFFFFF PUSH1 0xA0 SHL PUSH1 0x6 SLOAD AND PUSH1 0x6 SSTORE DUP1 PUSH1 0x7 SSTORE PUSH32 0x7A81C642828249AE51A34CF52E35EBBF08BD3CB36FB5A4B4C8E80261893F5B81 DUP2 DUP1 LOG1 DUP1 RETURN JUMPDEST DUP1 REVERT JUMPDEST POP CALLVALUE PUSH2 0x1D0 JUMPI DUP2 PUSH1 0x3 NOT CALLDATASIZE ADD SLT PUSH2 0x1D0 JUMPI PUSH1 0x2 SLOAD SWAP1 MLOAD PUSH1 0x1 PUSH1 0x1 PUSH1 0xA0 SHL SUB SWAP1 SWAP2 AND DUP2 MSTORE PUSH1 0x20 SWAP1 RETURN JUMPDEST POP CALLVALUE PUSH2 0x1D0 JUMPI DUP2 PUSH1 0x3 NOT CALLDATASIZE ADD SLT PUSH2 0x1D0 JUMPI PUSH1 0x20 SWAP1 PUSH1 0x7 SLOAD SWAP1 MLOAD SWAP1 DUP2 MSTORE RETURN JUMPDEST POP CALLVALUE PUSH2 0x1D0 JUMPI DUP2 PUSH1 0x3 NOT CALLDATASIZE ADD SLT PUSH2 0x1D0 JUMPI PUSH1 0x20 SWAP1 PUSH1 0x9 SLOAD SWAP1 MLOAD SWAP1 DUP2 MSTORE RETURN JUMPDEST SWAP2 SWAP1 POP CALLVALUE PUSH2 0x378 JUMPI PUSH1 0x20 CALLDATASIZE PUSH1 0x3 NOT ADD SLT PUSH2 0x378 JUMPI DUP2 CALLDATALOAD SWAP2 PUSH2 0x2CF PUSH1 0x1 DUP1 PUSH1 0xA0 SHL SUB PUSH1 0x2 SLOAD AND CALLER EQ PUSH2 0x100F JUMP JUMPDEST DUP3 ISZERO PUSH2 0x32A JUMPI POP PUSH32 0xA9F6EF469A02717105903BBCE25C47A4DB6A0D759D929C5CD9BF295A7033B174 SWAP2 PUSH2 0x324 SWAP2 PUSH2 0x309 PUSH1 0xC SLOAD DUP4 GT PUSH2 0x1149 JUMP JUMPDEST PUSH1 0xB DUP3 SWAP1 SSTORE MLOAD CALLER DUP2 MSTORE PUSH1 0x20 DUP2 ADD SWAP2 SWAP1 SWAP2 MSTORE SWAP1 DUP2 SWAP1 PUSH1 0x40 DUP3 ADD SWAP1 JUMP JUMPDEST SUB SWAP1 LOG1 DUP1 RETURN JUMPDEST PUSH1 0x20 PUSH1 0x84 SWAP3 MLOAD SWAP2 PUSH3 0x461BCD PUSH1 0xE5 SHL DUP4 MSTORE DUP3 ADD MSTORE PUSH1 0x23 PUSH1 0x24 DUP3 ADD MSTORE PUSH32 0x546865206D617869756D206265742076616C7565206772656174657220746861 PUSH1 0x44 DUP3 ADD MSTORE PUSH3 0x6E203 PUSH1 0xEC SHL PUSH1 0x64 DUP3 ADD MSTORE REVERT JUMPDEST DUP3 DUP1 REVERT JUMPDEST SWAP1 POP CALLVALUE PUSH2 0x378 JUMPI PUSH1 0x20 CALLDATASIZE PUSH1 0x3 NOT ADD SLT PUSH2 0x378 JUMPI CALLDATALOAD PUSH1 0x1 PUSH1 0x1 PUSH1 0xA0 SHL SUB DUP2 AND SWAP1 DUP2 SWAP1 SUB PUSH2 0x378 JUMPI DUP3 DUP3 SWAP2 PUSH1 0x20 SWAP5 MSTORE PUSH1 0xD DUP5 MSTORE KECCAK256 SLOAD SWAP1 MLOAD SWAP1 DUP2 MSTORE RETURN JUMPDEST POP POP CALLVALUE PUSH2 0x1D0 JUMPI DUP2 PUSH1 0x3 NOT CALLDATASIZE ADD SLT PUSH2 0x1D0 JUMPI PUSH1 0x20 SWAP1 PUSH1 0x5 SLOAD SWAP1 MLOAD SWAP1 DUP2 MSTORE RETURN JUMPDEST POP POP CALLVALUE PUSH2 0x1D0 JUMPI DUP2 PUSH1 0x3 NOT CALLDATASIZE ADD SLT PUSH2 0x1D0 JUMPI PUSH1 0x20 SWAP1 PUSH1 0xB SLOAD SWAP1 MLOAD SWAP1 DUP2 MSTORE RETURN JUMPDEST POP POP CALLVALUE PUSH2 0x1D0 JUMPI DUP2 PUSH1 0x3 NOT CALLDATASIZE ADD SLT PUSH2 0x1D0 JUMPI PUSH1 0x20 SWAP1 PUSH1 0xA SLOAD SWAP1 MLOAD SWAP1 DUP2 MSTORE RETURN JUMPDEST DUP4 DUP4 CALLVALUE PUSH2 0x1D0 JUMPI DUP2 PUSH1 0x3 NOT CALLDATASIZE ADD SLT PUSH2 0x1D0 JUMPI PUSH1 0x2 SLOAD PUSH1 0x1 PUSH1 0x1 PUSH1 0xA0 SHL SUB SWAP2 SWAP1 PUSH2 0x43F CALLER DUP5 DUP4 AND EQ PUSH2 0x100F JUMP JUMPDEST DUP5 SLOAD SWAP3 DUP4 AND SWAP3 PUSH2 0x450 DUP5 ISZERO ISZERO PUSH2 0x2233 JUMP JUMPDEST PUSH1 0x5 SLOAD PUSH2 0x45E DUP2 ISZERO ISZERO PUSH2 0x2233 JUMP JUMPDEST PUSH3 0x3F480 DUP2 ADD DUP1 SWAP2 GT PUSH2 0x4C0 JUMPI PUSH32 0x7CE7EC0B50378FB6C0186FFB5F48325F6593FCB4CA4386F21861AF3129188F5C SWAP5 SWAP3 PUSH1 0x20 SWAP5 SWAP3 PUSH2 0x49F DUP10 SWAP4 TIMESTAMP LT ISZERO PUSH2 0x2180 JUMP JUMPDEST PUSH1 0x1 PUSH1 0x1 PUSH1 0xA0 SHL SUB NOT SWAP2 DUP3 AND DUP6 OR PUSH1 0x2 SSTORE AND SWAP1 SSTORE PUSH1 0x5 DUP6 SWAP1 SSTORE MLOAD SWAP1 DUP2 MSTORE LOG1 DUP1 RETURN JUMPDEST PUSH4 0x4E487B71 PUSH1 0xE0 SHL DUP7 MSTORE PUSH1 0x11 DUP8 MSTORE PUSH1 0x24 DUP7 REVERT JUMPDEST POP POP CALLVALUE PUSH2 0x1D0 JUMPI DUP2 PUSH1 0x3 NOT CALLDATASIZE ADD SLT PUSH2 0x1D0 JUMPI PUSH1 0x20 SWAP1 PUSH1 0xFF PUSH1 0xF SLOAD AND SWAP1 MLOAD SWAP1 ISZERO ISZERO DUP2 MSTORE RETURN JUMPDEST POP POP CALLVALUE PUSH2 0x1D0 JUMPI DUP2 PUSH1 0x3 NOT CALLDATASIZE ADD SLT PUSH2 0x1D0 JUMPI PUSH1 0x20 SWAP1 MLOAD PUSH32 0x0 DUP2 MSTORE RETURN JUMPDEST DUP4 CALLVALUE PUSH2 0x23C JUMPI DUP1 PUSH1 0x3 NOT CALLDATASIZE ADD SLT PUSH2 0x23C JUMPI PUSH2 0x558 PUSH1 0x1 DUP1 PUSH1 0xA0 SHL SUB PUSH1 0x3 SLOAD AND CALLER EQ PUSH2 0x10BF JUMP JUMPDEST DUP1 PUSH1 0x8 SSTORE PUSH32 0x94A9B8FB6E694C6C0FBEE0E13E1C5B9AE2DDA4395E3495228A46DC717617C6FA DUP2 DUP1 LOG1 DUP1 RETURN JUMPDEST DUP4 SWAP2 POP CALLVALUE PUSH2 0x1D0 JUMPI DUP2 PUSH1 0x3 NOT CALLDATASIZE ADD SLT PUSH2 0x1D0 JUMPI PUSH1 0x2 SLOAD PUSH1 0x1 PUSH1 0x1 PUSH1 0xA0 SHL SUB SWAP2 SWAP1 PUSH2 0x5B0 SWAP1 DUP4 AND CALLER EQ PUSH2 0x100F JUMP JUMPDEST PUSH1 0x8 SLOAD PUSH2 0x6AE JUMPI DUP4 MLOAD DUP1 SWAP3 PUSH4 0x70A08231 PUSH1 0xE0 SHL DUP3 MSTORE ADDRESS DUP4 DUP4 ADD MSTORE DUP2 PUSH1 0x24 PUSH1 0x20 SWAP6 DUP7 SWAP4 PUSH32 0x0 AND GAS STATICCALL SWAP1 DUP2 ISZERO PUSH2 0x6A4 JUMPI DUP5 SWAP2 PUSH2 0x673 JUMPI JUMPDEST POP ISZERO PUSH2 0x63A JUMPI POP PUSH32 0xE20350BD5FF90B7BDBCB8229CF46C222A5F5B18F094A1AC5962451445FDA1076 SWAP2 SWAP3 TIMESTAMP PUSH1 0x8 SSTORE MLOAD TIMESTAMP DUP2 MSTORE LOG1 DUP1 RETURN JUMPDEST PUSH1 0x64 SWAP2 DUP5 MLOAD SWAP2 PUSH3 0x461BCD PUSH1 0xE5 SHL DUP4 MSTORE DUP3 ADD MSTORE PUSH1 0x15 PUSH1 0x24 DUP3 ADD MSTORE PUSH21 0x4E6F20746F6B656E7320746F207769746864726177 PUSH1 0x58 SHL PUSH1 0x44 DUP3 ADD MSTORE REVERT JUMPDEST SWAP1 POP DUP3 DUP2 DUP2 RETURNDATASIZE DUP4 GT PUSH2 0x69D JUMPI JUMPDEST PUSH2 0x68A DUP2 DUP4 PUSH2 0x1253 JUMP JUMPDEST DUP2 ADD SUB SLT PUSH2 0x699 JUMPI MLOAD DUP6 PUSH2 0x604 JUMP JUMPDEST DUP4 DUP1 REVERT JUMPDEST POP RETURNDATASIZE PUSH2 0x680 JUMP JUMPDEST DUP6 MLOAD RETURNDATASIZE DUP7 DUP3 RETURNDATACOPY RETURNDATASIZE SWAP1 REVERT JUMPDEST PUSH1 0x84 SWAP1 PUSH1 0x20 DUP6 MLOAD SWAP2 PUSH3 0x461BCD PUSH1 0xE5 SHL DUP4 MSTORE DUP3 ADD MSTORE PUSH1 0x21 PUSH1 0x24 DUP3 ADD MSTORE PUSH32 0x5769746864726177616C207265717565737420697320696E2070726F67726573 PUSH1 0x44 DUP3 ADD MSTORE PUSH1 0x73 PUSH1 0xF8 SHL PUSH1 0x64 DUP3 ADD MSTORE REVERT JUMPDEST SWAP2 SWAP1 POP CALLVALUE PUSH2 0x378 JUMPI DUP3 PUSH1 0x3 NOT CALLDATASIZE ADD SLT PUSH2 0x378 JUMPI PUSH2 0x723 PUSH1 0x1 DUP1 PUSH1 0xA0 SHL SUB PUSH1 0x2 SLOAD AND CALLER EQ PUSH2 0x100F JUMP JUMPDEST PUSH1 0x9 SLOAD SWAP2 PUSH2 0x732 DUP4 ISZERO ISZERO PUSH2 0x21DD JUMP JUMPDEST PUSH1 0xA SLOAD PUSH2 0x740 DUP2 ISZERO ISZERO PUSH2 0x21DD JUMP JUMPDEST PUSH3 0x3F480 DUP2 ADD DUP1 SWAP2 GT PUSH2 0x7E5 JUMPI TIMESTAMP LT PUSH2 0x78D JUMPI POP DUP2 PUSH1 0x20 SWAP2 PUSH32 0x9DC86596CA5F70A96C96B2CB0BE04F02B7DA0A6261F97D43CEBCC921020B1925 SWAP4 PUSH1 0x1 SSTORE DUP5 PUSH1 0x9 SSTORE DUP5 PUSH1 0xA SSTORE MLOAD SWAP1 DUP2 MSTORE LOG1 DUP1 RETURN JUMPDEST PUSH1 0x20 PUSH1 0x84 SWAP3 MLOAD SWAP2 PUSH3 0x461BCD PUSH1 0xE5 SHL DUP4 MSTORE DUP3 ADD MSTORE PUSH1 0x2D PUSH1 0x24 DUP3 ADD MSTORE PUSH32 0x4D75737420776169742033206461797320746F20636F6E6669726D2073656564 PUSH1 0x44 DUP3 ADD MSTORE PUSH13 0x207265656C73206368616E6765 PUSH1 0x98 SHL PUSH1 0x64 DUP3 ADD MSTORE REVERT JUMPDEST PUSH4 0x4E487B71 PUSH1 0xE0 SHL DUP6 MSTORE PUSH1 0x11 DUP3 MSTORE PUSH1 0x24 DUP6 REVERT JUMPDEST SWAP2 SWAP1 POP CALLVALUE PUSH2 0x378 JUMPI PUSH1 0x20 CALLDATASIZE PUSH1 0x3 NOT ADD SLT PUSH2 0x378 JUMPI DUP2 CALLDATALOAD PUSH1 0x1 PUSH1 0x1 PUSH1 0xA0 SHL SUB DUP2 DUP2 AND SWAP4 SWAP1 SWAP3 SWAP1 DUP5 DUP4 SUB PUSH2 0x896 JUMPI PUSH32 0x72B357B8C271031AAD940E03E51F8C172B495A1DD60D6E902D339C7F49604102 SWAP5 PUSH2 0x858 PUSH2 0x324 SWAP6 PUSH1 0x2 SLOAD AND CALLER EQ PUSH2 0x100F JUMP JUMPDEST PUSH2 0x863 DUP2 ISZERO ISZERO PUSH2 0x110B JUMP JUMPDEST DUP2 SLOAD PUSH1 0x1 PUSH1 0x1 PUSH1 0xA0 SHL SUB NOT AND OR SWAP1 SSTORE TIMESTAMP PUSH1 0x5 DUP2 SWAP1 SSTORE SWAP1 MLOAD PUSH1 0x1 PUSH1 0x1 PUSH1 0xA0 SHL SUB SWAP1 SWAP3 AND DUP3 MSTORE PUSH1 0x20 DUP3 ADD MSTORE SWAP1 DUP2 SWAP1 PUSH1 0x40 DUP3 ADD SWAP1 JUMP JUMPDEST DUP6 DUP1 REVERT JUMPDEST DUP4 DUP4 CALLVALUE PUSH2 0x1D0 JUMPI DUP2 PUSH1 0x3 NOT CALLDATASIZE ADD SLT PUSH2 0x1D0 JUMPI PUSH1 0x3 SLOAD PUSH1 0x1 PUSH1 0x1 PUSH1 0xA0 SHL SUB SWAP2 SWAP1 PUSH2 0x8C6 CALLER DUP5 DUP4 AND EQ PUSH2 0x10BF JUMP JUMPDEST PUSH1 0x6 SLOAD SWAP3 DUP4 AND SWAP3 PUSH2 0x8D8 DUP5 ISZERO ISZERO PUSH2 0x2134 JUMP JUMPDEST PUSH1 0x7 SLOAD PUSH2 0x8E6 DUP2 ISZERO ISZERO PUSH2 0x2134 JUMP JUMPDEST PUSH3 0x3F480 DUP2 ADD DUP1 SWAP2 GT PUSH2 0x4C0 JUMPI SWAP2 PUSH1 0x20 SWAP4 SWAP2 PUSH2 0x926 PUSH32 0x1C6520CF747E4632B43B535B91AFE3950CCABC4AB29BBD89E3C1F6B0BA05655 SWAP7 SWAP5 TIMESTAMP LT ISZERO PUSH2 0x2180 JUMP JUMPDEST PUSH1 0x1 PUSH1 0x1 PUSH1 0xA0 SHL SUB NOT SWAP2 DUP3 AND DUP5 OR PUSH1 0x3 SSTORE AND PUSH1 0x6 SSTORE PUSH1 0x7 DUP6 SWAP1 SSTORE MLOAD SWAP1 DUP2 MSTORE LOG1 DUP1 RETURN JUMPDEST DUP4 SWAP1 PUSH1 0x80 CALLDATASIZE PUSH1 0x3 NOT ADD SLT PUSH2 0x1D0 JUMPI PUSH8 0xFFFFFFFFFFFFFFFF DUP2 CALLDATALOAD DUP2 DUP2 GT PUSH2 0x699 JUMPI CALLDATASIZE PUSH1 0x23 DUP3 ADD SLT ISZERO PUSH2 0x699 JUMPI DUP1 DUP4 ADD CALLDATALOAD DUP3 DUP2 GT PUSH2 0x9E2 JUMPI CALLDATASIZE PUSH1 0x24 DUP3 PUSH1 0x6 SHL DUP5 ADD ADD GT PUSH2 0x9E2 JUMPI PUSH1 0x64 CALLDATALOAD SWAP4 DUP4 DUP6 GT PUSH2 0x896 JUMPI CALLDATASIZE PUSH1 0x23 DUP7 ADD SLT ISZERO PUSH2 0x896 JUMPI DUP5 ADD CALLDATALOAD SWAP3 DUP4 GT PUSH2 0x9E2 JUMPI CALLDATASIZE PUSH1 0x24 DUP5 DUP7 ADD ADD GT PUSH2 0x9E2 JUMPI PUSH1 0x24 PUSH2 0x9DF SWAP5 PUSH2 0x9CE PUSH1 0xFF PUSH1 0xF SLOAD AND ISZERO PUSH2 0x105B JUMP JUMPDEST ADD SWAP2 PUSH1 0x44 CALLDATALOAD SWAP2 PUSH1 0x24 DUP1 CALLDATALOAD SWAP3 ADD PUSH2 0x12DE JUMP JUMPDEST DUP1 RETURN JUMPDEST DUP5 DUP1 REVERT JUMPDEST POP POP CALLVALUE PUSH2 0x1D0 JUMPI DUP2 PUSH1 0x3 NOT CALLDATASIZE ADD SLT PUSH2 0x1D0 JUMPI PUSH1 0x6 SLOAD SWAP1 MLOAD PUSH1 0x1 PUSH1 0x1 PUSH1 0xA0 SHL SUB SWAP1 SWAP2 AND DUP2 MSTORE PUSH1 0x20 SWAP1 RETURN JUMPDEST POP POP CALLVALUE PUSH2 0x1D0 JUMPI DUP2 PUSH1 0x3 NOT CALLDATASIZE ADD SLT PUSH2 0x1D0 JUMPI PUSH1 0x20 PUSH32 0x46A289A85516D6B63CEC7F685E3F5398070F9FC5FB8E3D14021ADD023FEC568F SWAP2 PUSH2 0xA5A PUSH1 0x1 DUP1 PUSH1 0xA0 SHL SUB PUSH1 0x3 SLOAD AND CALLER EQ PUSH2 0x10BF JUMP JUMPDEST PUSH1 0x1 PUSH1 0xFF NOT PUSH1 0xF SLOAD AND OR PUSH1 0xF SSTORE MLOAD CALLER DUP2 MSTORE LOG1 DUP1 RETURN JUMPDEST SWAP2 SWAP1 POP CALLVALUE PUSH2 0x378 JUMPI PUSH1 0x20 CALLDATASIZE PUSH1 0x3 NOT ADD SLT PUSH2 0x378 JUMPI DUP2 CALLDATALOAD SWAP2 PUSH2 0xA9B PUSH1 0x1 DUP1 PUSH1 0xA0 SHL SUB PUSH1 0x2 SLOAD AND CALLER EQ PUSH2 0x100F JUMP JUMPDEST PUSH1 0x32 DUP4 LT ISZERO PUSH2 0xADA JUMPI POP DUP2 PUSH1 0x20 SWAP2 PUSH32 0x9B161A37C93B297FE93D8F6F47F959BB91BD34A421B3892B0C91674CE107FB24 SWAP4 PUSH1 0x9 SSTORE TIMESTAMP PUSH1 0xA SSTORE MLOAD SWAP1 DUP2 MSTORE LOG1 DUP1 RETURN JUMPDEST PUSH1 0x20 PUSH1 0x64 SWAP3 MLOAD SWAP2 PUSH3 0x461BCD PUSH1 0xE5 SHL DUP4 MSTORE DUP3 ADD MSTORE PUSH1 0x16 PUSH1 0x24 DUP3 ADD MSTORE PUSH22 0x496E76616C69642077696E50726F626162696C697479 PUSH1 0x50 SHL PUSH1 0x44 DUP3 ADD MSTORE REVERT JUMPDEST POP POP CALLVALUE PUSH2 0x1D0 JUMPI DUP2 PUSH1 0x3 NOT CALLDATASIZE ADD SLT PUSH2 0x1D0 JUMPI PUSH1 0x20 SWAP1 PUSH1 0x1 SLOAD SWAP1 MLOAD SWAP1 DUP2 MSTORE RETURN JUMPDEST SWAP2 SWAP1 POP CALLVALUE PUSH2 0x378 JUMPI PUSH1 0x20 CALLDATASIZE PUSH1 0x3 NOT ADD SLT PUSH2 0x378 JUMPI DUP2 CALLDATALOAD SWAP2 PUSH2 0xB60 PUSH1 0x1 DUP1 PUSH1 0xA0 SHL SUB PUSH1 0x2 SLOAD AND CALLER EQ PUSH2 0x100F JUMP JUMPDEST DUP3 ISZERO PUSH2 0xBB5 JUMPI POP DUP2 PUSH2 0x324 SWAP2 PUSH2 0xB9A PUSH32 0x96FD935283EBE139EFF1231BA7E60B91334B7E1E1C67C91C68B58F8D4A7B211F SWAP5 PUSH1 0xB SLOAD GT PUSH2 0x1149 JUMP JUMPDEST PUSH1 0xC DUP3 SWAP1 SSTORE MLOAD CALLER DUP2 MSTORE PUSH1 0x20 DUP2 ADD SWAP2 SWAP1 SWAP2 MSTORE SWAP1 DUP2 SWAP1 PUSH1 0x40 DUP3 ADD SWAP1 JUMP JUMPDEST PUSH1 0x20 PUSH1 0x84 SWAP3 MLOAD SWAP2 PUSH3 0x461BCD PUSH1 0xE5 SHL DUP4 MSTORE DUP3 ADD MSTORE PUSH1 0x23 PUSH1 0x24 DUP3 ADD MSTORE PUSH32 0x546865206D696E69756D206265742076616C7565206772656174657220746861 PUSH1 0x44 DUP3 ADD MSTORE PUSH3 0x6E203 PUSH1 0xEC SHL PUSH1 0x64 DUP3 ADD MSTORE REVERT JUMPDEST DUP4 CALLVALUE PUSH2 0x23C JUMPI DUP1 PUSH1 0x3 NOT CALLDATASIZE ADD SLT PUSH2 0x23C JUMPI PUSH2 0xC29 PUSH1 0x1 DUP1 PUSH1 0xA0 SHL SUB PUSH1 0x2 SLOAD AND CALLER EQ PUSH2 0x100F JUMP JUMPDEST DUP1 PUSH1 0x9 SSTORE DUP1 PUSH1 0xA SSTORE PUSH32 0x9EF48CACEFE12AB0A801D57BC51BEB3A36523278E29346ED7824936443456502 DUP2 DUP1 LOG1 DUP1 RETURN JUMPDEST POP POP CALLVALUE PUSH2 0x1D0 JUMPI DUP2 PUSH1 0x3 NOT CALLDATASIZE ADD SLT PUSH2 0x1D0 JUMPI PUSH1 0x3 SLOAD SWAP1 MLOAD PUSH1 0x1 PUSH1 0x1 PUSH1 0xA0 SHL SUB SWAP1 SWAP2 AND DUP2 MSTORE PUSH1 0x20 SWAP1 RETURN JUMPDEST POP POP CALLVALUE PUSH2 0x1D0 JUMPI DUP2 PUSH1 0x3 NOT CALLDATASIZE ADD SLT PUSH2 0x1D0 JUMPI PUSH1 0x20 SWAP1 PUSH1 0x8 SLOAD SWAP1 MLOAD SWAP1 DUP2 MSTORE RETURN JUMPDEST SWAP1 POP CALLVALUE PUSH2 0x378 JUMPI PUSH1 0x20 CALLDATASIZE PUSH1 0x3 NOT ADD SLT PUSH2 0x378 JUMPI PUSH1 0x1 PUSH1 0x1 PUSH1 0xA0 SHL SUB SWAP1 CALLDATALOAD DUP2 DUP2 AND SWAP3 DUP4 DUP3 SUB PUSH2 0x9E2 JUMPI PUSH32 0x6C437B1584202B77482374DD2215B75E975B0BE0768B92ED5E4B048B0E109879 SWAP4 PUSH2 0xCFC PUSH2 0x324 SWAP5 PUSH1 0x3 SLOAD AND CALLER EQ PUSH2 0x10BF JUMP JUMPDEST PUSH2 0xD07 DUP2 ISZERO ISZERO PUSH2 0x110B JUMP JUMPDEST PUSH1 0x6 DUP1 SLOAD PUSH1 0x1 PUSH1 0x1 PUSH1 0xA0 SHL SUB NOT AND SWAP2 SWAP1 SWAP2 OR SWAP1 SSTORE TIMESTAMP PUSH1 0x7 DUP2 SWAP1 SSTORE SWAP1 MLOAD PUSH1 0x1 PUSH1 0x1 PUSH1 0xA0 SHL SUB SWAP1 SWAP3 AND DUP3 MSTORE PUSH1 0x20 DUP3 ADD MSTORE SWAP1 DUP2 SWAP1 PUSH1 0x40 DUP3 ADD SWAP1 JUMP JUMPDEST SWAP1 POP CALLVALUE PUSH2 0x378 JUMPI DUP3 PUSH1 0x3 NOT CALLDATASIZE ADD SLT PUSH2 0x378 JUMPI SLOAD SWAP1 MLOAD PUSH1 0x1 PUSH1 0x1 PUSH1 0xA0 SHL SUB SWAP1 SWAP2 AND DUP2 MSTORE PUSH1 0x20 SWAP2 POP RETURN JUMPDEST POP POP CALLVALUE PUSH2 0x1D0 JUMPI DUP2 PUSH1 0x3 NOT CALLDATASIZE ADD SLT PUSH2 0x1D0 JUMPI PUSH1 0x20 PUSH32 0xF08396B9FD122C2EF99AEC183D994D39FA54CC25773E4B8A6ED20AD08AEF02C9 SWAP2 PUSH2 0xDB2 PUSH1 0x1 DUP1 PUSH1 0xA0 SHL SUB PUSH1 0x3 SLOAD AND CALLER EQ PUSH2 0x10BF JUMP JUMPDEST PUSH1 0xFF NOT PUSH1 0xF SLOAD AND PUSH1 0xF SSTORE MLOAD CALLER DUP2 MSTORE LOG1 DUP1 RETURN JUMPDEST POP POP CALLVALUE PUSH2 0x1D0 JUMPI DUP2 PUSH1 0x3 NOT CALLDATASIZE ADD SLT PUSH2 0x1D0 JUMPI PUSH1 0x20 SWAP1 PUSH1 0xC SLOAD SWAP1 MLOAD SWAP1 DUP2 MSTORE RETURN JUMPDEST DUP4 SWAP1 CALLVALUE PUSH2 0x1D0 JUMPI DUP2 PUSH1 0x3 NOT CALLDATASIZE ADD SLT PUSH2 0x1D0 JUMPI PUSH2 0xE0A PUSH1 0x1 DUP1 PUSH1 0xA0 SHL SUB PUSH1 0x3 SLOAD AND CALLER EQ PUSH2 0x10BF JUMP JUMPDEST DUP1 SLOAD PUSH1 0x1 PUSH1 0x1 PUSH1 0xA0 SHL SUB NOT AND SWAP1 SSTORE PUSH1 0x5 DUP2 SWAP1 SSTORE PUSH32 0x7AD662E4DB36FE46EE1697376F8457B103123C200DE262CA4BAF9F5CAD0A1E8 DUP2 DUP1 LOG1 DUP1 RETURN JUMPDEST DUP4 SWAP2 POP CALLVALUE PUSH2 0x1D0 JUMPI PUSH1 0x20 CALLDATASIZE PUSH1 0x3 NOT ADD SLT PUSH2 0x1D0 JUMPI PUSH1 0x2 SLOAD DUP2 CALLDATALOAD SWAP2 PUSH1 0x1 PUSH1 0x1 PUSH1 0xA0 SHL SUB SWAP2 DUP3 AND SWAP1 PUSH2 0xE75 CALLER DUP4 EQ PUSH2 0x100F JUMP JUMPDEST PUSH1 0x2 DUP6 SLOAD EQ PUSH2 0xFCC JUMPI PUSH1 0x2 DUP6 SSTORE PUSH2 0xE91 PUSH1 0xFF PUSH1 0xF SLOAD AND ISZERO PUSH2 0x105B JUMP JUMPDEST PUSH1 0x8 SLOAD DUP1 ISZERO PUSH2 0xF93 JUMPI PUSH3 0x93A80 DUP2 ADD DUP1 SWAP2 GT PUSH2 0xF80 JUMPI TIMESTAMP LT PUSH2 0xF32 JUMPI POP DUP4 SWAP5 SWAP2 PUSH2 0xF04 DUP5 PUSH2 0xF28 SWAP4 PUSH32 0x9AD672D4E7C4892DA934D1051932EBE9EC4B6EC8C3F40D569176DB3E93E5ABE SWAP8 PUSH1 0x8 SSTORE PUSH32 0x0 PUSH2 0x227F JUMP JUMPDEST PUSH1 0x2 SLOAD SWAP3 MLOAD SWAP3 AND PUSH1 0x1 PUSH1 0x1 PUSH1 0xA0 SHL SUB AND DUP3 MSTORE PUSH1 0x20 DUP3 ADD SWAP3 SWAP1 SWAP3 MSTORE SWAP1 DUP2 SWAP1 PUSH1 0x40 DUP3 ADD SWAP1 JUMP JUMPDEST SUB SWAP1 LOG1 PUSH1 0x1 DUP2 SSTORE DUP1 RETURN JUMPDEST PUSH1 0x84 SWAP1 PUSH1 0x20 DUP8 MLOAD SWAP2 PUSH3 0x461BCD PUSH1 0xE5 SHL DUP4 MSTORE DUP3 ADD MSTORE PUSH1 0x22 PUSH1 0x24 DUP3 ADD MSTORE PUSH32 0x4D75737420776169742037206461797320746F2077697468647261772066756E PUSH1 0x44 DUP3 ADD MSTORE PUSH2 0x6473 PUSH1 0xF0 SHL PUSH1 0x64 DUP3 ADD MSTORE REVERT JUMPDEST PUSH4 0x4E487B71 PUSH1 0xE0 SHL DUP7 MSTORE PUSH1 0x11 DUP3 MSTORE PUSH1 0x24 DUP7 REVERT JUMPDEST DUP7 MLOAD PUSH3 0x461BCD PUSH1 0xE5 SHL DUP2 MSTORE PUSH1 0x20 DUP2 DUP5 ADD MSTORE PUSH1 0x13 PUSH1 0x24 DUP3 ADD MSTORE PUSH19 0x4E6F2070656E64696E67207769746864726177 PUSH1 0x68 SHL PUSH1 0x44 DUP3 ADD MSTORE PUSH1 0x64 SWAP1 REVERT JUMPDEST PUSH1 0x64 SWAP1 PUSH1 0x20 DUP8 MLOAD SWAP2 PUSH3 0x461BCD PUSH1 0xE5 SHL DUP4 MSTORE DUP3 ADD MSTORE PUSH1 0x1F PUSH1 0x24 DUP3 ADD MSTORE PUSH32 0x5265656E7472616E637947756172643A207265656E7472616E742063616C6C00 PUSH1 0x44 DUP3 ADD MSTORE REVERT JUMPDEST ISZERO PUSH2 0x1016 JUMPI JUMP JUMPDEST PUSH1 0x40 MLOAD PUSH3 0x461BCD PUSH1 0xE5 SHL DUP2 MSTORE PUSH1 0x20 PUSH1 0x4 DUP3 ADD MSTORE PUSH1 0x1B PUSH1 0x24 DUP3 ADD MSTORE PUSH32 0x4F6E6C792061646D696E2063616E206578656375746520746869730000000000 PUSH1 0x44 DUP3 ADD MSTORE PUSH1 0x64 SWAP1 REVERT JUMPDEST ISZERO PUSH2 0x1062 JUMPI JUMP JUMPDEST PUSH1 0x40 MLOAD PUSH3 0x461BCD PUSH1 0xE5 SHL DUP2 MSTORE PUSH1 0x20 PUSH1 0x4 DUP3 ADD MSTORE PUSH1 0x12 PUSH1 0x24 DUP3 ADD MSTORE PUSH18 0x10DBDB9D1C9858DD081A5CC81B1BD8DAD959 PUSH1 0x72 SHL PUSH1 0x44 DUP3 ADD MSTORE PUSH1 0x64 SWAP1 REVERT JUMPDEST SWAP2 SWAP1 DUP3 ADD DUP1 SWAP3 GT PUSH2 0x10A9 JUMPI JUMP JUMPDEST PUSH4 0x4E487B71 PUSH1 0xE0 SHL PUSH1 0x0 MSTORE PUSH1 0x11 PUSH1 0x4 MSTORE PUSH1 0x24 PUSH1 0x0 REVERT JUMPDEST ISZERO PUSH2 0x10C6 JUMPI JUMP JUMPDEST PUSH1 0x40 MLOAD PUSH3 0x461BCD PUSH1 0xE5 SHL DUP2 MSTORE PUSH1 0x20 PUSH1 0x4 DUP3 ADD MSTORE PUSH1 0x1E PUSH1 0x24 DUP3 ADD MSTORE PUSH32 0x4F6E6C7920677561726469616E2063616E206578656375746520746869730000 PUSH1 0x44 DUP3 ADD MSTORE PUSH1 0x64 SWAP1 REVERT JUMPDEST ISZERO PUSH2 0x1112 JUMPI JUMP JUMPDEST PUSH1 0x40 MLOAD PUSH3 0x461BCD PUSH1 0xE5 SHL DUP2 MSTORE PUSH1 0x20 PUSH1 0x4 DUP3 ADD MSTORE PUSH1 0xF PUSH1 0x24 DUP3 ADD MSTORE PUSH15 0x496E76616C69642061646472657373 PUSH1 0x88 SHL PUSH1 0x44 DUP3 ADD MSTORE PUSH1 0x64 SWAP1 REVERT JUMPDEST ISZERO PUSH2 0x1150 JUMPI JUMP JUMPDEST PUSH1 0x40 MLOAD PUSH3 0x461BCD PUSH1 0xE5 SHL DUP2 MSTORE PUSH1 0x20 PUSH1 0x4 DUP3 ADD MSTORE PUSH1 0x32 PUSH1 0x24 DUP3 ADD MSTORE PUSH32 0x546865206D617869756D206265742076616C7565206772656174657220746861 PUSH1 0x44 DUP3 ADD MSTORE PUSH18 0x6E206D696E69756D206265742076616C7565 PUSH1 0x70 SHL PUSH1 0x64 DUP3 ADD MSTORE PUSH1 0x84 SWAP1 REVERT JUMPDEST SWAP2 SWAP1 DUP2 LT ISZERO PUSH2 0x11C0 JUMPI PUSH1 0x6 SHL ADD SWAP1 JUMP JUMPDEST PUSH4 0x4E487B71 PUSH1 0xE0 SHL PUSH1 0x0 MSTORE PUSH1 0x32 PUSH1 0x4 MSTORE PUSH1 0x24 PUSH1 0x0 REVERT JUMPDEST DUP2 DUP2 MUL SWAP3 SWAP2 DUP2 ISZERO SWAP2 DUP5 DIV EQ OR ISZERO PUSH2 0x10A9 JUMPI JUMP JUMPDEST PUSH1 0x40 DUP2 ADD SWAP1 DUP2 LT PUSH8 0xFFFFFFFFFFFFFFFF DUP3 GT OR PUSH2 0x1205 JUMPI PUSH1 0x40 MSTORE JUMP JUMPDEST PUSH4 0x4E487B71 PUSH1 0xE0 SHL PUSH1 0x0 MSTORE PUSH1 0x41 PUSH1 0x4 MSTORE PUSH1 0x24 PUSH1 0x0 REVERT JUMPDEST PUSH1 0xA0 DUP2 ADD SWAP1 DUP2 LT PUSH8 0xFFFFFFFFFFFFFFFF DUP3 GT OR PUSH2 0x1205 JUMPI PUSH1 0x40 MSTORE JUMP JUMPDEST PUSH1 0x60 DUP2 ADD SWAP1 DUP2 LT PUSH8 0xFFFFFFFFFFFFFFFF DUP3 GT OR PUSH2 0x1205 JUMPI PUSH1 0x40 MSTORE JUMP JUMPDEST SWAP1 PUSH1 0x1F DUP1 NOT SWAP2 ADD AND DUP2 ADD SWAP1 DUP2 LT PUSH8 0xFFFFFFFFFFFFFFFF DUP3 GT OR PUSH2 0x1205 JUMPI PUSH1 0x40 MSTORE JUMP JUMPDEST SWAP2 SWAP1 DUP3 PUSH1 0x40 SWAP2 SUB SLT PUSH2 0x12A6 JUMPI PUSH1 0x40 MLOAD PUSH2 0x128D DUP2 PUSH2 0x11E9 JUMP JUMPDEST DUP3 CALLDATALOAD DUP2 MSTORE SWAP2 PUSH1 0x20 ADD CALLDATALOAD DUP3 PUSH1 0x3 DUP3 LT ISZERO PUSH2 0x12A6 JUMPI PUSH1 0x20 ADD MSTORE JUMP JUMPDEST PUSH1 0x0 DUP1 REVERT JUMPDEST PUSH1 0x0 SWAP2 JUMPDEST PUSH1 0x3 DUP4 LT PUSH2 0x12BC JUMPI POP POP POP JUMP JUMPDEST PUSH1 0x1 SWAP1 PUSH1 0x40 DUP4 MLOAD SWAP2 DUP3 MLOAD DUP2 MSTORE PUSH1 0x20 DUP1 SWAP4 ADD MLOAD DUP4 DUP3 ADD MSTORE ADD SWAP3 ADD SWAP3 ADD SWAP2 SWAP1 PUSH2 0x12AF JUMP JUMPDEST SWAP4 SWAP6 SWAP5 SWAP1 SWAP2 SWAP3 SWAP6 PUSH1 0xC SLOAD DUP5 LT PUSH2 0x20C9 JUMPI PUSH1 0xB SLOAD DUP5 GT PUSH2 0x2084 JUMPI DUP4 PUSH1 0x0 DUP1 JUMPDEST DUP6 DUP2 LT PUSH2 0x2060 JUMPI POP SUB PUSH2 0x200C JUMPI PUSH2 0x1333 PUSH32 0x0 DUP6 PUSH2 0x11D6 JUMP JUMPDEST PUSH1 0x40 MLOAD PUSH4 0x70A08231 PUSH1 0xE0 SHL DUP2 MSTORE ADDRESS PUSH1 0x4 DUP3 ADD MSTORE PUSH1 0x20 DUP2 PUSH1 0x24 DUP2 PUSH32 0x0 PUSH1 0x1 PUSH1 0x1 PUSH1 0xA0 SHL SUB AND GAS STATICCALL SWAP1 DUP2 ISZERO PUSH2 0x1ABD JUMPI PUSH1 0x0 SWAP2 PUSH2 0x1FDA JUMPI JUMPDEST POP LT PUSH2 0x1F95 JUMPI DUP7 TIMESTAMP LT PUSH2 0x1F50 JUMPI PUSH1 0x3C DUP8 ADD DUP1 DUP9 GT PUSH2 0x10A9 JUMPI TIMESTAMP GT PUSH2 0x1F17 JUMPI CALLER PUSH1 0x0 MSTORE PUSH1 0xD PUSH1 0x20 MSTORE PUSH1 0x40 PUSH1 0x0 KECCAK256 SLOAD DUP8 GT ISZERO PUSH2 0x1ED2 JUMPI PUSH1 0x40 MLOAD DUP1 PUSH1 0x60 DUP2 ADD LT PUSH8 0xFFFFFFFFFFFFFFFF PUSH1 0x60 DUP4 ADD GT OR PUSH2 0x1205 JUMPI PUSH1 0x40 DUP2 PUSH1 0x60 DUP11 SWAP4 ADD DUP3 MSTORE CALLER DUP2 MSTORE DUP7 PUSH1 0x20 DUP3 ADD MSTORE ADD MSTORE PUSH1 0x40 MLOAD PUSH1 0x20 DUP2 ADD SWAP1 PUSH32 0xE81D1CDF23BDC0A6BEF5035503A1014285A41CC67C1E91E29D9211B707E3CF9 DUP3 MSTORE CALLER PUSH1 0x40 DUP3 ADD MSTORE DUP6 PUSH1 0x60 DUP3 ADD MSTORE DUP9 PUSH1 0x80 DUP3 ADD MSTORE PUSH1 0x80 DUP2 MSTORE PUSH2 0x1436 DUP2 PUSH2 0x121B JUMP JUMPDEST MLOAD SWAP1 KECCAK256 PUSH1 0x40 MLOAD SWAP1 PUSH2 0x1901 PUSH1 0xF0 SHL PUSH1 0x20 DUP4 ADD MSTORE PUSH32 0x0 PUSH1 0x22 DUP4 ADD MSTORE PUSH1 0x42 DUP3 ADD MSTORE PUSH1 0x42 DUP2 MSTORE DUP1 PUSH1 0x80 DUP2 ADD LT PUSH8 0xFFFFFFFFFFFFFFFF PUSH1 0x80 DUP4 ADD GT OR PUSH2 0x1205 JUMPI PUSH1 0x80 DUP2 ADD PUSH1 0x40 MSTORE PUSH1 0x20 DUP2 MLOAD SWAP2 ADD KECCAK256 PUSH2 0x14A7 DUP4 PUSH2 0x22C2 JUMP JUMPDEST SWAP1 PUSH2 0x14B5 PUSH1 0x40 MLOAD SWAP3 DUP4 PUSH2 0x1253 JUMP JUMPDEST DUP4 DUP3 MSTORE CALLDATASIZE DUP5 DUP5 ADD GT PUSH2 0x12A6 JUMPI PUSH1 0x0 PUSH1 0x20 DUP6 PUSH2 0x14E3 SWAP7 PUSH2 0x14DB SWAP7 DUP4 DUP8 ADD CALLDATACOPY DUP5 ADD ADD MSTORE PUSH2 0x2517 JUMP JUMPDEST SWAP2 SWAP1 SWAP2 PUSH2 0x254F JUMP JUMPDEST PUSH1 0x2 SLOAD PUSH1 0x1 PUSH1 0x1 PUSH1 0xA0 SHL SUB SWAP1 DUP2 AND SWAP2 AND SUB PUSH2 0x1E99 JUMPI CALLER PUSH1 0x0 MSTORE PUSH1 0xD PUSH1 0x20 MSTORE DUP5 PUSH1 0x40 PUSH1 0x0 KECCAK256 SSTORE PUSH2 0x1560 PUSH1 0x40 MLOAD PUSH4 0x23B872DD PUSH1 0xE0 SHL PUSH1 0x20 DUP3 ADD MSTORE CALLER PUSH1 0x24 DUP3 ADD MSTORE ADDRESS PUSH1 0x44 DUP3 ADD MSTORE DUP4 PUSH1 0x64 DUP3 ADD MSTORE PUSH1 0x64 DUP2 MSTORE PUSH2 0x153A DUP2 PUSH2 0x121B JUMP JUMPDEST PUSH32 0x0 PUSH2 0x23FC JUMP JUMPDEST PUSH2 0x1574 PUSH1 0x40 MLOAD PUSH2 0x156F DUP2 PUSH2 0x1237 JUMP JUMPDEST PUSH2 0x22DE JUMP JUMPDEST PUSH2 0x1583 PUSH1 0x40 MLOAD PUSH2 0x156F DUP2 PUSH2 0x1237 JUMP JUMPDEST PUSH1 0x40 MLOAD SWAP5 PUSH2 0x1590 DUP7 PUSH2 0x1237 JUMP JUMPDEST PUSH2 0x1599 DUP7 PUSH2 0x22DE JUMP JUMPDEST PUSH1 0x40 MLOAD SWAP1 PUSH2 0x15A6 DUP3 PUSH2 0x1237 JUMP JUMPDEST PUSH2 0x15AF DUP3 PUSH2 0x22DE JUMP JUMPDEST PUSH1 0x40 MLOAD DUP1 PUSH1 0xC0 DUP2 ADD LT PUSH8 0xFFFFFFFFFFFFFFFF PUSH1 0xC0 DUP4 ADD GT OR PUSH2 0x1205 JUMPI PUSH1 0xC0 DUP2 ADD PUSH1 0x40 MSTORE PUSH1 0x0 JUMPDEST PUSH1 0xC0 DUP2 LT PUSH2 0x1E76 JUMPI POP PUSH1 0x0 DUP1 NOT NUMBER ADD SWAP2 NUMBER DUP4 GT SWAP2 JUMPDEST PUSH1 0x6 DUP2 LT PUSH2 0x1D92 JUMPI POP DUP1 PUSH1 0xA0 SWAP2 MLOAD DUP12 MSTORE PUSH1 0x20 DUP2 ADD MLOAD PUSH1 0x20 DUP13 ADD MSTORE PUSH1 0x40 DUP2 ADD MLOAD PUSH1 0x40 DUP13 ADD MSTORE PUSH1 0x60 DUP2 ADD MLOAD DUP7 MSTORE PUSH1 0x80 DUP2 ADD MLOAD PUSH1 0x20 DUP8 ADD MSTORE ADD MLOAD PUSH1 0x40 DUP6 ADD MSTORE PUSH2 0x1635 PUSH1 0x40 MLOAD PUSH2 0x156F DUP2 PUSH2 0x1237 JUMP JUMPDEST PUSH2 0x1644 PUSH1 0x40 MLOAD PUSH2 0x156F DUP2 PUSH2 0x1237 JUMP JUMPDEST PUSH1 0x0 SWAP1 PUSH2 0x1656 PUSH1 0x40 MLOAD PUSH2 0x156F DUP2 PUSH2 0x1237 JUMP JUMPDEST PUSH2 0x1665 PUSH1 0x40 MLOAD PUSH2 0x156F DUP2 PUSH2 0x1237 JUMP JUMPDEST PUSH2 0x1D7E JUMPI PUSH1 0x64 PUSH1 0x40 MLOAD PUSH1 0x20 DUP2 ADD SWAP1 CALLER PUSH1 0x60 SHL DUP3 MSTORE DUP5 BLOCKHASH PUSH1 0x34 DUP3 ADD MSTORE PREVRANDAO PUSH1 0x54 DUP3 ADD MSTORE DUP6 PUSH1 0x74 DUP3 ADD MSTORE PUSH1 0x74 DUP2 MSTORE PUSH2 0x1699 DUP2 PUSH2 0x121B JUMP JUMPDEST MLOAD SWAP1 KECCAK256 MOD PUSH1 0x1 SLOAD GT SWAP2 PUSH2 0x16AC DUP6 DUP12 PUSH2 0x233F JUMP JUMPDEST SWAP5 SWAP1 SWAP4 PUSH1 0x40 MLOAD PUSH2 0x16BB DUP2 PUSH2 0x11E9 JUMP JUMPDEST DUP5 DUP2 MSTORE DUP5 PUSH1 0x20 DUP3 ADD MSTORE SWAP1 PUSH1 0x0 EQ PUSH2 0x1BDC JUMPI POP PUSH1 0x1 DUP8 SUB PUSH2 0x1B74 JUMPI POP POP DUP5 ISZERO PUSH2 0x1B60 JUMPI PUSH1 0x20 PUSH2 0x16E9 CALLDATASIZE DUP10 PUSH2 0x1275 JUMP JUMPDEST ADD DUP1 MLOAD PUSH1 0x3 DUP2 LT ISZERO PUSH2 0x1B4C JUMPI PUSH2 0x1AF0 JUMPI POP POP GT SWAP6 DUP7 ISZERO PUSH2 0x1AEA JUMPI DUP1 JUMPDEST SWAP7 ISZERO PUSH2 0x1AE3 JUMPI POP JUMPDEST SWAP4 JUMPDEST PUSH2 0x1719 DUP6 DUP8 PUSH2 0x233F JUMP JUMPDEST SWAP4 SWAP1 SWAP3 PUSH8 0xFFFFFFFFFFFFFFFF DUP2 GT PUSH2 0x1205 JUMPI PUSH1 0x40 MLOAD SWAP6 PUSH2 0x173F PUSH1 0x20 DUP4 PUSH1 0x5 SHL ADD DUP9 PUSH2 0x1253 JUMP JUMPDEST DUP2 DUP8 MSTORE PUSH1 0x20 DUP8 ADD SWAP1 CALLDATASIZE DUP4 PUSH1 0x6 SHL DUP3 ADD GT PUSH2 0x12A6 JUMPI DUP1 SWAP2 JUMPDEST DUP4 PUSH1 0x6 SHL DUP3 ADD DUP4 LT PUSH2 0x1AC9 JUMPI POP POP POP POP PUSH1 0x0 SWAP7 DUP8 JUMPDEST DUP7 MLOAD DUP10 LT ISZERO PUSH2 0x18FA JUMPI PUSH2 0x178A PUSH1 0x20 PUSH2 0x1783 DUP12 DUP11 PUSH2 0x23E8 JUMP JUMPDEST MLOAD ADD PUSH2 0x2332 JUMP JUMPDEST PUSH1 0x3 DUP2 LT ISZERO PUSH2 0x18D2 JUMPI ISZERO DUP1 PUSH2 0x18F1 JUMPI JUMPDEST ISZERO PUSH2 0x17F4 JUMPI PUSH2 0x17EB PUSH1 0x1 SWAP2 PUSH2 0x17E5 PUSH2 0x17B2 DUP13 DUP12 PUSH2 0x23E8 JUMP JUMPDEST MLOAD MLOAD PUSH1 0x0 DUP1 MSTORE PUSH1 0xE PUSH1 0x20 MSTORE PUSH32 0xE710864318D4A32F37D6CE54CB3FADBEF648DD12D8DBDF53973564D56B7F881C SLOAD SWAP1 PUSH2 0x11D6 JUMP JUMPDEST SWAP1 PUSH2 0x109C JUMP JUMPDEST SWAP9 JUMPDEST ADD SWAP8 PUSH2 0x176B JUMP JUMPDEST PUSH2 0x1803 PUSH1 0x20 PUSH2 0x1783 DUP12 DUP11 PUSH2 0x23E8 JUMP JUMPDEST PUSH1 0x3 DUP2 LT ISZERO PUSH2 0x18D2 JUMPI PUSH1 0x2 EQ DUP1 PUSH2 0x18E8 JUMPI JUMPDEST ISZERO PUSH2 0x1867 JUMPI PUSH2 0x1861 PUSH1 0x1 SWAP2 PUSH2 0x17E5 PUSH2 0x182D DUP13 DUP12 PUSH2 0x23E8 JUMP JUMPDEST MLOAD MLOAD PUSH1 0x2 PUSH1 0x0 MSTORE PUSH1 0xE PUSH1 0x20 MSTORE PUSH32 0x9ADB202B1492743BC00C81D33CDC6423FA8C79109027EB6A845391E8FC1F0481 SLOAD SWAP1 PUSH2 0x11D6 JUMP JUMPDEST SWAP9 PUSH2 0x17ED JUMP JUMPDEST SWAP8 PUSH2 0x1877 PUSH1 0x20 PUSH2 0x1783 DUP4 DUP11 PUSH2 0x23E8 JUMP JUMPDEST PUSH1 0x3 DUP2 LT ISZERO PUSH2 0x18D2 JUMPI PUSH1 0x1 EQ DUP1 PUSH2 0x18C9 JUMPI JUMPDEST PUSH2 0x1896 JUMPI JUMPDEST PUSH1 0x1 SWAP1 PUSH2 0x17ED JUMP JUMPDEST SWAP8 PUSH2 0x18C1 PUSH1 0x1 SWAP2 PUSH2 0x17E5 PUSH2 0x18AA DUP13 DUP12 PUSH2 0x23E8 JUMP JUMPDEST MLOAD MLOAD DUP5 PUSH1 0x0 MSTORE PUSH1 0xE PUSH1 0x20 MSTORE PUSH1 0x40 PUSH1 0x0 KECCAK256 SLOAD SWAP1 PUSH2 0x11D6 JUMP JUMPDEST SWAP9 SWAP1 POP PUSH2 0x188E JUMP JUMPDEST POP DUP6 DUP6 EQ PUSH2 0x1889 JUMP JUMPDEST PUSH4 0x4E487B71 PUSH1 0xE0 SHL PUSH1 0x0 MSTORE PUSH1 0x21 PUSH1 0x4 MSTORE PUSH1 0x24 PUSH1 0x0 REVERT JUMPDEST POP DUP5 DUP7 GT PUSH2 0x1815 JUMP JUMPDEST POP DUP6 DUP6 GT PUSH2 0x179A JUMP JUMPDEST PUSH1 0x40 MLOAD PUSH4 0x70A08231 PUSH1 0xE0 SHL DUP2 MSTORE ADDRESS PUSH1 0x4 DUP3 ADD MSTORE SWAP4 SWAP9 POP SWAP2 SWAP7 SWAP1 SWAP6 POP SWAP1 SWAP2 PUSH1 0x20 DUP2 PUSH1 0x24 DUP2 PUSH32 0x0 PUSH1 0x1 PUSH1 0x1 PUSH1 0xA0 SHL SUB AND GAS STATICCALL SWAP1 DUP2 ISZERO PUSH2 0x1ABD JUMPI PUSH1 0x0 SWAP2 PUSH2 0x1A5D JUMPI JUMPDEST POP SWAP1 PUSH32 0x8E3897E7EC1B94C33E7A96847F87C200C4A4B55135AC87BC06946C2E91BE755F SWAP7 DUP4 SWAP3 PUSH2 0x200 SWAP8 SWAP7 SWAP6 SWAP5 GT PUSH2 0x19F8 JUMPI POP PUSH2 0x19B3 SWAP1 DUP3 PUSH2 0x19C8 JUMPI JUMPDEST PUSH2 0x19A9 PUSH1 0x40 MLOAD SWAP7 CALLER DUP9 MSTORE PUSH1 0x20 DUP9 ADD SWAP1 PUSH2 0x12AB JUMP JUMPDEST PUSH1 0xE0 DUP7 ADD SWAP1 PUSH2 0x12AB JUMP JUMPDEST PUSH2 0x1A0 DUP5 ADD MSTORE PUSH2 0x1C0 DUP4 ADD MSTORE PUSH2 0x1E0 DUP3 ADD MSTORE LOG1 JUMP JUMPDEST PUSH2 0x19F3 DUP4 CALLER PUSH32 0x0 PUSH2 0x227F JUMP JUMPDEST PUSH2 0x1995 JUMP JUMPDEST PUSH2 0x1A46 SWAP3 POP PUSH2 0x1A28 SWAP1 CALLER PUSH32 0x0 PUSH2 0x227F JUMP JUMPDEST PUSH2 0x1A3C PUSH1 0x40 MLOAD SWAP6 CALLER DUP8 MSTORE PUSH1 0x20 DUP8 ADD SWAP1 PUSH2 0x12AB JUMP JUMPDEST PUSH1 0xE0 DUP6 ADD SWAP1 PUSH2 0x12AB JUMP JUMPDEST PUSH1 0x0 PUSH2 0x1A0 DUP5 ADD MSTORE PUSH2 0x1C0 DUP4 ADD MSTORE PUSH2 0x1E0 DUP3 ADD MSTORE LOG1 JUMP JUMPDEST SWAP6 SWAP5 SWAP4 SWAP3 SWAP2 SWAP1 POP PUSH1 0x20 DUP7 RETURNDATASIZE PUSH1 0x20 GT PUSH2 0x1AB5 JUMPI JUMPDEST DUP2 PUSH2 0x1A7D PUSH1 0x20 SWAP4 DUP4 PUSH2 0x1253 JUMP JUMPDEST DUP2 ADD SUB SLT PUSH2 0x12A6 JUMPI SWAP5 MLOAD SWAP4 SWAP5 SWAP3 SWAP4 SWAP2 SWAP3 SWAP1 SWAP2 PUSH32 0x8E3897E7EC1B94C33E7A96847F87C200C4A4B55135AC87BC06946C2E91BE755F PUSH2 0x1958 JUMP JUMPDEST RETURNDATASIZE SWAP2 POP PUSH2 0x1A70 JUMP JUMPDEST PUSH1 0x40 MLOAD RETURNDATASIZE PUSH1 0x0 DUP3 RETURNDATACOPY RETURNDATASIZE SWAP1 REVERT JUMPDEST PUSH1 0x20 PUSH1 0x40 SWAP2 PUSH2 0x1AD8 CALLDATASIZE DUP7 PUSH2 0x1275 JUMP JUMPDEST DUP2 MSTORE ADD SWAP3 ADD SWAP2 PUSH2 0x1756 JUMP JUMPDEST SWAP1 POP PUSH2 0x170D JUMP JUMPDEST DUP2 PUSH2 0x1705 JUMP JUMPDEST SWAP9 SWAP8 SWAP9 MLOAD SWAP1 PUSH1 0x3 DUP3 LT ISZERO PUSH2 0x1B38 JUMPI POP PUSH1 0x2 SUB PUSH2 0x1B2B JUMPI GT SWAP5 DUP6 ISZERO PUSH2 0x1B25 JUMPI DUP1 JUMPDEST SWAP6 ISZERO PUSH2 0x1B1E JUMPI POP JUMPDEST SWAP5 PUSH2 0x170F JUMP JUMPDEST SWAP1 POP PUSH2 0x1B18 JUMP JUMPDEST DUP2 PUSH2 0x1B10 JUMP JUMPDEST POP POP POP DUP4 SWAP5 SWAP4 SWAP5 SWAP4 PUSH2 0x170F JUMP JUMPDEST PUSH4 0x4E487B71 PUSH1 0xE0 SHL DUP2 MSTORE PUSH1 0x21 PUSH1 0x4 MSTORE PUSH1 0x24 SWAP1 REVERT JUMPDEST PUSH4 0x4E487B71 PUSH1 0xE0 SHL DUP4 MSTORE PUSH1 0x21 PUSH1 0x4 MSTORE PUSH1 0x24 DUP4 REVERT JUMPDEST PUSH4 0x4E487B71 PUSH1 0xE0 SHL DUP2 MSTORE PUSH1 0x32 PUSH1 0x4 MSTORE PUSH1 0x24 SWAP1 REVERT JUMPDEST PUSH1 0x40 MLOAD SWAP1 PUSH1 0x20 DUP3 ADD SWAP3 CALLER PUSH1 0x60 SHL DUP5 MSTORE BLOCKHASH PUSH1 0x34 DUP4 ADD MSTORE PREVRANDAO PUSH1 0x54 DUP4 ADD MSTORE PUSH1 0x74 DUP3 ADD MSTORE PUSH1 0x74 DUP2 MSTORE PUSH2 0x1BA1 DUP2 PUSH2 0x121B JUMP JUMPDEST MLOAD SWAP1 KECCAK256 DUP6 ISZERO PUSH2 0x1BC8 JUMPI PUSH2 0x1BC3 PUSH1 0x20 SWAP2 PUSH2 0x1BBE DUP9 CALLDATASIZE SWAP3 MOD DUP10 DUP13 PUSH2 0x11B0 JUMP JUMPDEST PUSH2 0x1275 JUMP JUMPDEST PUSH2 0x16E9 JUMP JUMPDEST PUSH4 0x4E487B71 PUSH1 0xE0 SHL DUP3 MSTORE PUSH1 0x12 PUSH1 0x4 MSTORE PUSH1 0x24 DUP3 REVERT JUMPDEST SWAP10 SWAP9 SWAP8 SWAP7 SWAP6 SWAP5 SWAP4 SWAP3 SWAP2 POP POP PUSH1 0x3 DUP6 LT ISZERO PUSH2 0x1CFA JUMPI PUSH1 0x40 MLOAD SWAP9 PUSH2 0x1BFD DUP11 PUSH2 0x1237 JUMP JUMPDEST PUSH1 0x60 CALLDATASIZE DUP12 CALLDATACOPY DUP2 JUMPDEST DUP7 DUP2 LT PUSH2 0x1CCD JUMPI POP DUP2 JUMPDEST PUSH1 0x3 DUP2 LT PUSH2 0x1C29 JUMPI JUMPDEST POP PUSH1 0x20 SWAP2 SWAP3 SWAP4 SWAP5 SWAP6 SWAP7 SWAP8 SWAP9 SWAP10 POP PUSH2 0x16E9 JUMP JUMPDEST PUSH2 0x1C33 DUP2 DUP13 PUSH2 0x2321 JUMP JUMPDEST MLOAD ISZERO PUSH2 0x1C42 JUMPI JUMPDEST PUSH1 0x1 ADD PUSH2 0x1C0E JUMP JUMPDEST SWAP1 POP DUP1 PUSH2 0x1C77 JUMPI POP SWAP1 SWAP2 SWAP3 SWAP4 SWAP5 SWAP6 SWAP7 SWAP8 POP PUSH1 0x20 PUSH1 0x40 MLOAD PUSH2 0x1C61 DUP2 PUSH2 0x11E9 JUMP JUMPDEST DUP3 DUP2 MSTORE DUP3 DUP3 DUP3 ADD MSTORE DUP10 SWAP9 SWAP8 SWAP7 SWAP6 SWAP5 SWAP4 SWAP3 SWAP2 PUSH2 0x1C17 JUMP JUMPDEST PUSH1 0x2 DUP2 SUB PUSH2 0x1CAE JUMPI POP SWAP1 SWAP2 SWAP3 SWAP4 SWAP5 SWAP6 SWAP7 SWAP8 POP PUSH1 0x20 PUSH1 0x40 MLOAD PUSH2 0x1C97 DUP2 PUSH2 0x11E9 JUMP JUMPDEST DUP3 DUP2 MSTORE PUSH1 0x2 DUP3 DUP3 ADD MSTORE DUP10 SWAP9 SWAP8 SWAP7 SWAP6 SWAP5 SWAP4 SWAP3 SWAP2 PUSH2 0x1C17 JUMP JUMPDEST PUSH1 0x1 PUSH1 0x40 MLOAD PUSH2 0x1CBC DUP2 PUSH2 0x11E9 JUMP JUMPDEST DUP4 DUP2 MSTORE DUP2 PUSH1 0x20 DUP3 ADD MSTORE SWAP2 SWAP1 POP PUSH2 0x1C3A JUMP JUMPDEST PUSH1 0x20 PUSH2 0x1CDA DUP3 DUP10 DUP13 PUSH2 0x11B0 JUMP JUMPDEST ADD CALLDATALOAD PUSH1 0x3 DUP2 LT ISZERO PUSH2 0x699 JUMPI SWAP1 PUSH1 0x1 PUSH2 0x1CF3 DUP2 SWAP4 DUP15 PUSH2 0x2321 JUMP JUMPDEST MSTORE ADD PUSH2 0x1C04 JUMP JUMPDEST SWAP1 SWAP2 SWAP3 SWAP4 SWAP5 SWAP6 SWAP7 SWAP8 DUP2 DUP3 JUMPDEST DUP8 DUP2 LT PUSH2 0x1D16 JUMPI POP POP PUSH1 0x20 SWAP1 PUSH2 0x16E9 JUMP JUMPDEST DUP10 PUSH1 0x20 PUSH2 0x1D30 DUP4 DUP12 PUSH2 0x1D29 DUP3 DUP3 DUP8 PUSH2 0x11B0 JUMP JUMPDEST CALLDATALOAD SWAP5 PUSH2 0x11B0 JUMP JUMPDEST ADD CALLDATALOAD PUSH1 0x3 DUP2 LT ISZERO PUSH2 0x896 JUMPI DUP6 MSTORE PUSH1 0xE PUSH1 0x20 MSTORE PUSH1 0x40 DUP6 KECCAK256 SLOAD PUSH2 0x1D50 SWAP2 PUSH2 0x11D6 JUMP JUMPDEST DUP3 DUP2 LT PUSH2 0x1D61 JUMPI JUMPDEST POP PUSH1 0x1 ADD PUSH2 0x1D05 JUMP JUMPDEST SWAP2 POP SWAP2 POP PUSH1 0x1 PUSH2 0x1D77 DUP11 PUSH2 0x1BBE DUP6 DUP12 CALLDATASIZE SWAP4 PUSH2 0x11B0 JUMP JUMPDEST SWAP3 SWAP1 PUSH2 0x1D58 JUMP JUMPDEST PUSH4 0x4E487B71 PUSH1 0xE0 SHL DUP2 MSTORE PUSH1 0x11 PUSH1 0x4 MSTORE PUSH1 0x24 SWAP1 REVERT JUMPDEST SWAP2 PUSH1 0x2 DUP4 ADD DUP4 GT PUSH2 0x10A9 JUMPI PUSH2 0x10A9 JUMPI PUSH1 0x40 MLOAD SWAP2 PUSH1 0xD PUSH1 0x20 DUP5 ADD CALLER PUSH1 0x60 SHL DUP2 MSTORE PUSH1 0x34 SWAP1 DUP7 BLOCKHASH DUP3 DUP8 ADD MSTORE PUSH2 0x1DE9 PUSH2 0x3E8 PUSH1 0x54 SWAP3 PREVRANDAO DUP5 DUP11 ADD MSTORE PUSH1 0x74 SWAP9 PUSH1 0x2 DUP9 ADD DUP11 DUP3 ADD MSTORE DUP10 DUP2 MSTORE PUSH2 0x1DDF DUP2 PUSH2 0x121B JUMP JUMPDEST MLOAD SWAP1 KECCAK256 MOD DUP10 PUSH2 0x109C JUMP JUMPDEST SWAP6 PUSH1 0x0 SWAP7 PUSH1 0x40 MLOAD SWAP3 PUSH1 0x20 DUP5 ADD SWAP5 CALLER PUSH1 0x60 SHL DUP7 MSTORE DUP11 BLOCKHASH SWAP1 DUP6 ADD MSTORE PREVRANDAO SWAP1 DUP5 ADD MSTORE DUP2 DUP4 ADD MSTORE DUP2 MSTORE PUSH2 0x1E16 DUP2 PUSH2 0x121B JUMP JUMPDEST MLOAD SWAP1 KECCAK256 MOD PUSH1 0xD DUP2 LT ISZERO PUSH2 0x1E62 JUMPI SWAP1 PUSH1 0x1 SWAP2 DUP3 SHL PUSH1 0x11 PUSH1 0x40 MLOAD SWAP2 PUSH2 0x1E38 DUP4 PUSH2 0x11E9 JUMP JUMPDEST DUP1 PUSH1 0x10 ADD SLOAD DUP4 MSTORE ADD SLOAD PUSH1 0x20 DUP3 ADD MSTORE PUSH2 0x1E50 DUP3 DUP6 PUSH2 0x2310 JUMP JUMPDEST MSTORE PUSH2 0x1E5B DUP2 DUP5 PUSH2 0x2310 JUMP JUMPDEST POP ADD PUSH2 0x15EA JUMP JUMPDEST PUSH4 0x4E487B71 PUSH1 0xE0 SHL DUP5 MSTORE PUSH1 0x32 PUSH1 0x4 MSTORE PUSH1 0x24 DUP5 REVERT JUMPDEST PUSH1 0x20 SWAP1 PUSH1 0x40 MLOAD PUSH2 0x1E85 DUP2 PUSH2 0x11E9 JUMP JUMPDEST PUSH1 0x0 DUP2 MSTORE PUSH1 0x0 DUP4 DUP3 ADD MSTORE DUP2 DUP5 ADD MSTORE ADD PUSH2 0x15D5 JUMP JUMPDEST PUSH1 0x40 MLOAD PUSH3 0x461BCD PUSH1 0xE5 SHL DUP2 MSTORE PUSH1 0x20 PUSH1 0x4 DUP3 ADD MSTORE PUSH1 0x11 PUSH1 0x24 DUP3 ADD MSTORE PUSH17 0x496E76616C6964207369676E6174757265 PUSH1 0x78 SHL PUSH1 0x44 DUP3 ADD MSTORE PUSH1 0x64 SWAP1 REVERT JUMPDEST PUSH1 0x40 MLOAD PUSH3 0x461BCD PUSH1 0xE5 SHL DUP2 MSTORE PUSH1 0x20 PUSH1 0x4 DUP3 ADD MSTORE PUSH1 0x17 PUSH1 0x24 DUP3 ADD MSTORE PUSH32 0x54696D657374616D70206D757374206265206E65776572000000000000000000 PUSH1 0x44 DUP3 ADD MSTORE PUSH1 0x64 SWAP1 REVERT JUMPDEST PUSH1 0x40 MLOAD PUSH3 0x461BCD PUSH1 0xE5 SHL DUP2 MSTORE PUSH1 0x20 PUSH1 0x4 DUP3 ADD MSTORE PUSH1 0x11 PUSH1 0x24 DUP3 ADD MSTORE PUSH17 0x151A5B595CDD185B5C08195E1C1A5C9959 PUSH1 0x7A SHL PUSH1 0x44 DUP3 ADD MSTORE PUSH1 0x64 SWAP1 REVERT JUMPDEST PUSH1 0x40 MLOAD PUSH3 0x461BCD PUSH1 0xE5 SHL DUP2 MSTORE PUSH1 0x20 PUSH1 0x4 DUP3 ADD MSTORE PUSH1 0x19 PUSH1 0x24 DUP3 ADD MSTORE PUSH32 0x54696D657374616D702066726F6D207468652066757475726500000000000000 PUSH1 0x44 DUP3 ADD MSTORE PUSH1 0x64 SWAP1 REVERT JUMPDEST PUSH1 0x40 MLOAD PUSH3 0x461BCD PUSH1 0xE5 SHL DUP2 MSTORE PUSH1 0x20 PUSH1 0x4 DUP3 ADD MSTORE PUSH1 0x1F PUSH1 0x24 DUP3 ADD MSTORE PUSH32 0x436F6E74726163742068617320696E73756666696369656E742066756E647300 PUSH1 0x44 DUP3 ADD MSTORE PUSH1 0x64 SWAP1 REVERT JUMPDEST SWAP1 POP PUSH1 0x20 DUP2 RETURNDATASIZE PUSH1 0x20 GT PUSH2 0x2004 JUMPI JUMPDEST DUP2 PUSH2 0x1FF5 PUSH1 0x20 SWAP4 DUP4 PUSH2 0x1253 JUMP JUMPDEST DUP2 ADD SUB SLT PUSH2 0x12A6 JUMPI MLOAD CODESIZE PUSH2 0x1387 JUMP JUMPDEST RETURNDATASIZE SWAP2 POP PUSH2 0x1FE8 JUMP JUMPDEST PUSH1 0x40 MLOAD PUSH3 0x461BCD PUSH1 0xE5 SHL DUP2 MSTORE PUSH1 0x20 PUSH1 0x4 DUP3 ADD MSTORE PUSH1 0x26 PUSH1 0x24 DUP3 ADD MSTORE PUSH32 0x546F74616C2062657420616D6F756E74206D757374206D617463682073656E74 PUSH1 0x44 DUP3 ADD MSTORE PUSH6 0x2076616C7565 PUSH1 0xD0 SHL PUSH1 0x64 DUP3 ADD MSTORE PUSH1 0x84 SWAP1 REVERT JUMPDEST SWAP2 POP PUSH2 0x207A PUSH1 0x1 SWAP2 PUSH2 0x2073 DUP5 DUP9 DUP12 PUSH2 0x11B0 JUMP JUMPDEST CALLDATALOAD SWAP1 PUSH2 0x109C JUMP JUMPDEST SWAP2 ADD SWAP1 DUP6 SWAP2 PUSH2 0x12FC JUMP JUMPDEST PUSH1 0x40 MLOAD PUSH3 0x461BCD PUSH1 0xE5 SHL DUP2 MSTORE PUSH1 0x20 PUSH1 0x4 DUP3 ADD MSTORE PUSH1 0x19 PUSH1 0x24 DUP3 ADD MSTORE PUSH32 0x4265742065786365656473206D6178696D756D206C696D697400000000000000 PUSH1 0x44 DUP3 ADD MSTORE PUSH1 0x64 SWAP1 REVERT JUMPDEST PUSH1 0x40 MLOAD PUSH3 0x461BCD PUSH1 0xE5 SHL DUP2 MSTORE PUSH1 0x20 PUSH1 0x4 DUP3 ADD MSTORE PUSH1 0x3E PUSH1 0x24 DUP3 ADD MSTORE PUSH32 0x5468652062657420616D6F756E74206D75737420626520677265617465722074 PUSH1 0x44 DUP3 ADD MSTORE PUSH32 0x68616E20746865206D696E696D756D2072657175697265642076616C75650000 PUSH1 0x64 DUP3 ADD MSTORE PUSH1 0x84 SWAP1 REVERT JUMPDEST ISZERO PUSH2 0x213B JUMPI JUMP JUMPDEST PUSH1 0x40 MLOAD PUSH3 0x461BCD PUSH1 0xE5 SHL DUP2 MSTORE PUSH1 0x20 PUSH1 0x4 DUP3 ADD MSTORE PUSH1 0x1A PUSH1 0x24 DUP3 ADD MSTORE PUSH32 0x4E6F2070656E64696E6720677561726469616E206368616E6765000000000000 PUSH1 0x44 DUP3 ADD MSTORE PUSH1 0x64 SWAP1 REVERT JUMPDEST ISZERO PUSH2 0x2187 JUMPI JUMP JUMPDEST PUSH1 0x40 MLOAD PUSH3 0x461BCD PUSH1 0xE5 SHL DUP2 MSTORE PUSH1 0x20 PUSH1 0x4 DUP3 ADD MSTORE PUSH1 0x28 PUSH1 0x24 DUP3 ADD MSTORE PUSH32 0x4D75737420776169742033206461797320746F20636F6E6669726D2061646D69 PUSH1 0x44 DUP3 ADD MSTORE PUSH8 0x6E206368616E6765 PUSH1 0xC0 SHL PUSH1 0x64 DUP3 ADD MSTORE PUSH1 0x84 SWAP1 REVERT JUMPDEST ISZERO PUSH2 0x21E4 JUMPI JUMP JUMPDEST PUSH1 0x40 MLOAD PUSH3 0x461BCD PUSH1 0xE5 SHL DUP2 MSTORE PUSH1 0x20 PUSH1 0x4 DUP3 ADD MSTORE PUSH1 0x21 PUSH1 0x24 DUP3 ADD MSTORE PUSH32 0x4E6F2070656E64696E672077696E2070726F626162696C697479206368616E67 PUSH1 0x44 DUP3 ADD MSTORE PUSH1 0x65 PUSH1 0xF8 SHL PUSH1 0x64 DUP3 ADD MSTORE PUSH1 0x84 SWAP1 REVERT JUMPDEST ISZERO PUSH2 0x223A JUMPI JUMP JUMPDEST PUSH1 0x40 MLOAD PUSH3 0x461BCD PUSH1 0xE5 SHL DUP2 MSTORE PUSH1 0x20 PUSH1 0x4 DUP3 ADD MSTORE PUSH1 0x17 PUSH1 0x24 DUP3 ADD MSTORE PUSH32 0x4E6F2070656E64696E672061646D696E206368616E6765000000000000000000 PUSH1 0x44 DUP3 ADD MSTORE PUSH1 0x64 SWAP1 REVERT JUMPDEST PUSH1 0x40 MLOAD PUSH4 0xA9059CBB PUSH1 0xE0 SHL PUSH1 0x20 DUP3 ADD MSTORE PUSH1 0x1 PUSH1 0x1 PUSH1 0xA0 SHL SUB SWAP3 SWAP1 SWAP3 AND PUSH1 0x24 DUP4 ADD MSTORE PUSH1 0x44 DUP1 DUP4 ADD SWAP4 SWAP1 SWAP4 MSTORE SWAP2 DUP2 MSTORE PUSH2 0x22C0 SWAP2 PUSH2 0x22BB PUSH1 0x64 DUP4 PUSH2 0x1253 JUMP JUMPDEST PUSH2 0x23FC JUMP JUMPDEST JUMP JUMPDEST PUSH8 0xFFFFFFFFFFFFFFFF DUP2 GT PUSH2 0x1205 JUMPI PUSH1 0x1F ADD PUSH1 0x1F NOT AND PUSH1 0x20 ADD SWAP1 JUMP JUMPDEST PUSH1 0x0 DUP1 JUMPDEST PUSH1 0x60 DUP2 LT PUSH2 0x22EF JUMPI POP POP POP JUMP JUMPDEST PUSH1 0x20 SWAP1 PUSH1 0x40 MLOAD PUSH2 0x22FE DUP2 PUSH2 0x11E9 JUMP JUMPDEST DUP4 DUP2 MSTORE DUP4 DUP4 DUP3 ADD MSTORE DUP2 DUP6 ADD MSTORE ADD PUSH2 0x22E2 JUMP JUMPDEST SWAP1 PUSH1 0x6 DUP2 LT ISZERO PUSH2 0x11C0 JUMPI PUSH1 0x5 SHL ADD SWAP1 JUMP JUMPDEST SWAP1 PUSH1 0x3 DUP2 LT ISZERO PUSH2 0x11C0 JUMPI PUSH1 0x5 SHL ADD SWAP1 JUMP JUMPDEST MLOAD PUSH1 0x3 DUP2 LT ISZERO PUSH2 0x18D2 JUMPI SWAP1 JUMP JUMPDEST SWAP2 SWAP1 PUSH1 0x20 PUSH1 0xA PUSH2 0x235A DUP3 DUP7 MLOAD ADD MLOAD DUP4 DUP1 DUP9 ADD MLOAD ADD MLOAD SWAP1 PUSH2 0x109C JUMP JUMPDEST MOD SWAP2 PUSH1 0xA PUSH2 0x2373 DUP4 DUP4 MLOAD ADD MLOAD DUP5 DUP1 DUP6 ADD MLOAD ADD MLOAD SWAP1 PUSH2 0x109C JUMP JUMPDEST MOD SWAP5 PUSH1 0x8 DUP5 LT DUP1 PUSH2 0x23DE JUMPI JUMPDEST PUSH2 0x238B JUMPI JUMPDEST POP POP POP SWAP2 SWAP1 JUMP JUMPDEST PUSH1 0x6 DUP5 LT PUSH2 0x23C1 JUMPI JUMPDEST POP PUSH1 0x6 DUP6 LT PUSH2 0x23A4 JUMPI JUMPDEST DUP1 PUSH2 0x2384 JUMP JUMPDEST PUSH1 0x40 ADD MLOAD ADD MLOAD SWAP1 SWAP3 PUSH1 0xA SWAP2 PUSH2 0x23B8 SWAP2 PUSH2 0x109C JUMP JUMPDEST MOD SWAP2 CODESIZE DUP1 PUSH2 0x239E JUMP JUMPDEST PUSH1 0xA SWAP2 SWAP4 DUP4 PUSH1 0x40 PUSH2 0x23D6 SWAP4 ADD MLOAD ADD MLOAD SWAP1 PUSH2 0x109C JUMP JUMPDEST MOD SWAP2 CODESIZE PUSH2 0x2394 JUMP JUMPDEST POP PUSH1 0x8 DUP7 LT PUSH2 0x237F JUMP JUMPDEST DUP1 MLOAD DUP3 LT ISZERO PUSH2 0x11C0 JUMPI PUSH1 0x20 SWAP2 PUSH1 0x5 SHL ADD ADD SWAP1 JUMP JUMPDEST PUSH1 0x1 DUP1 PUSH1 0xA0 SHL SUB AND SWAP1 PUSH2 0x2479 PUSH1 0x40 MLOAD PUSH2 0x2414 DUP2 PUSH2 0x11E9 JUMP JUMPDEST PUSH1 0x20 SWAP4 DUP5 DUP3 MSTORE PUSH32 0x5361666545524332303A206C6F772D6C6576656C2063616C6C206661696C6564 DUP6 DUP4 ADD MSTORE PUSH1 0x0 DUP1 DUP6 DUP8 DUP3 SWAP8 MLOAD SWAP2 ADD DUP3 DUP6 GAS CALL RETURNDATASIZE ISZERO PUSH2 0x250F JUMPI RETURNDATASIZE SWAP2 PUSH2 0x245E DUP4 PUSH2 0x22C2 JUMP JUMPDEST SWAP3 PUSH2 0x246C PUSH1 0x40 MLOAD SWAP5 DUP6 PUSH2 0x1253 JUMP JUMPDEST DUP4 MSTORE RETURNDATASIZE DUP7 DUP9 DUP6 ADD RETURNDATACOPY PUSH2 0x26E2 JUMP JUMPDEST DUP1 MLOAD SWAP2 DUP3 ISZERO SWAP2 DUP5 DUP4 ISZERO PUSH2 0x24EB JUMPI JUMPDEST POP POP POP SWAP1 POP ISZERO PUSH2 0x2494 JUMPI POP JUMP JUMPDEST PUSH1 0x84 SWAP1 PUSH1 0x40 MLOAD SWAP1 PUSH3 0x461BCD PUSH1 0xE5 SHL DUP3 MSTORE PUSH1 0x4 DUP3 ADD MSTORE PUSH1 0x2A PUSH1 0x24 DUP3 ADD MSTORE PUSH32 0x5361666545524332303A204552433230206F7065726174696F6E20646964206E PUSH1 0x44 DUP3 ADD MSTORE PUSH10 0x1BDD081CDD58D8D95959 PUSH1 0xB2 SHL PUSH1 0x64 DUP3 ADD MSTORE REVERT JUMPDEST SWAP2 SWAP4 DUP2 DUP1 SWAP5 POP ADD SUB SLT PUSH2 0x1D0 JUMPI DUP3 ADD MLOAD SWAP1 DUP2 ISZERO ISZERO DUP3 SUB PUSH2 0x23C JUMPI POP DUP1 CODESIZE DUP1 DUP5 PUSH2 0x2487 JUMP JUMPDEST PUSH1 0x60 SWAP2 PUSH2 0x26E2 JUMP JUMPDEST SWAP1 PUSH1 0x41 DUP2 MLOAD EQ PUSH1 0x0 EQ PUSH2 0x2545 JUMPI PUSH2 0x2541 SWAP2 PUSH1 0x20 DUP3 ADD MLOAD SWAP1 PUSH1 0x60 PUSH1 0x40 DUP5 ADD MLOAD SWAP4 ADD MLOAD PUSH1 0x0 BYTE SWAP1 PUSH2 0x2653 JUMP JUMPDEST SWAP1 SWAP2 JUMP JUMPDEST POP POP PUSH1 0x0 SWAP1 PUSH1 0x2 SWAP1 JUMP JUMPDEST PUSH1 0x5 DUP2 LT ISZERO PUSH2 0x18D2 JUMPI DUP1 PUSH2 0x2560 JUMPI POP JUMP JUMPDEST PUSH1 0x1 DUP2 SUB PUSH2 0x25AD JUMPI PUSH1 0x40 MLOAD PUSH3 0x461BCD PUSH1 0xE5 SHL DUP2 MSTORE PUSH1 0x20 PUSH1 0x4 DUP3 ADD MSTORE PUSH1 0x18 PUSH1 0x24 DUP3 ADD MSTORE PUSH32 0x45434453413A20696E76616C6964207369676E61747572650000000000000000 PUSH1 0x44 DUP3 ADD MSTORE PUSH1 0x64 SWAP1 REVERT JUMPDEST PUSH1 0x2 DUP2 SUB PUSH2 0x25FA JUMPI PUSH1 0x40 MLOAD PUSH3 0x461BCD PUSH1 0xE5 SHL DUP2 MSTORE PUSH1 0x20 PUSH1 0x4 DUP3 ADD MSTORE PUSH1 0x1F PUSH1 0x24 DUP3 ADD MSTORE PUSH32 0x45434453413A20696E76616C6964207369676E6174757265206C656E67746800 PUSH1 0x44 DUP3 ADD MSTORE PUSH1 0x64 SWAP1 REVERT JUMPDEST PUSH1 0x3 EQ PUSH2 0x2603 JUMPI JUMP JUMPDEST PUSH1 0x40 MLOAD PUSH3 0x461BCD PUSH1 0xE5 SHL DUP2 MSTORE PUSH1 0x20 PUSH1 0x4 DUP3 ADD MSTORE PUSH1 0x22 PUSH1 0x24 DUP3 ADD MSTORE PUSH32 0x45434453413A20696E76616C6964207369676E6174757265202773272076616C PUSH1 0x44 DUP3 ADD MSTORE PUSH2 0x7565 PUSH1 0xF0 SHL PUSH1 0x64 DUP3 ADD MSTORE PUSH1 0x84 SWAP1 REVERT JUMPDEST SWAP3 SWAP2 SWAP1 PUSH32 0x7FFFFFFFFFFFFFFFFFFFFFFFFFFFFFFF5D576E7357A4501DDFE92F46681B20A0 DUP4 GT PUSH2 0x26D6 JUMPI SWAP2 PUSH1 0x80 SWAP5 SWAP4 SWAP2 PUSH1 0xFF PUSH1 0x20 SWAP5 PUSH1 0x40 MLOAD SWAP5 DUP6 MSTORE AND DUP5 DUP5 ADD MSTORE PUSH1 0x40 DUP4 ADD MSTORE PUSH1 0x60 DUP3 ADD MSTORE PUSH1 0x0 SWAP4 DUP5 SWAP2 DUP3 DUP1 MSTORE PUSH1 0x1 GAS STATICCALL ISZERO PUSH2 0x26C9 JUMPI DUP2 MLOAD PUSH1 0x1 PUSH1 0x1 PUSH1 0xA0 SHL SUB DUP2 AND ISZERO PUSH2 0x26C3 JUMPI SWAP2 SWAP1 JUMP JUMPDEST POP PUSH1 0x1 SWAP1 JUMP JUMPDEST POP PUSH1 0x40 MLOAD SWAP1 RETURNDATASIZE SWAP1 DUP3 RETURNDATACOPY RETURNDATASIZE SWAP1 REVERT JUMPDEST POP POP POP POP PUSH1 0x0 SWAP1 PUSH1 0x3 SWAP1 JUMP JUMPDEST SWAP2 SWAP3 SWAP1 ISZERO PUSH2 0x2744 JUMPI POP DUP2 MLOAD ISZERO PUSH2 0x26F6 JUMPI POP SWAP1 JUMP JUMPDEST EXTCODESIZE ISZERO PUSH2 0x26FF JUMPI SWAP1 JUMP JUMPDEST PUSH1 0x40 MLOAD PUSH3 0x461BCD PUSH1 0xE5 SHL DUP2 MSTORE PUSH1 0x20 PUSH1 0x4 DUP3 ADD MSTORE PUSH1 0x1D PUSH1 0x24 DUP3 ADD MSTORE PUSH32 0x416464726573733A2063616C6C20746F206E6F6E2D636F6E7472616374000000 PUSH1 0x44 DUP3 ADD MSTORE PUSH1 0x64 SWAP1 REVERT JUMPDEST DUP3 MLOAD SWAP1 SWAP2 POP ISZERO PUSH2 0x2757 JUMPI POP DUP1 MLOAD SWAP1 PUSH1 0x20 ADD REVERT JUMPDEST PUSH1 0x40 MLOAD SWAP1 PUSH3 0x461BCD PUSH1 0xE5 SHL DUP3 MSTORE DUP2 PUSH1 0x20 DUP1 PUSH1 0x4 DUP4 ADD MSTORE DUP3 MLOAD SWAP1 DUP2 PUSH1 0x24 DUP5 ADD MSTORE PUSH1 0x0 SWAP4 JUMPDEST DUP3 DUP6 LT PUSH2 0x279D JUMPI POP POP PUSH1 0x44 SWAP3 POP PUSH1 0x0 DUP4 DUP3 DUP5 ADD ADD MSTORE PUSH1 0x1F DUP1 NOT SWAP2 ADD AND DUP2 ADD SUB ADD SWAP1 REVERT JUMPDEST DUP5 DUP2 ADD DUP3 ADD MLOAD DUP7 DUP7 ADD PUSH1 0x44 ADD MSTORE SWAP4 DUP2 ADD SWAP4 DUP6 SWAP4 POP PUSH2 0x277A JUMP INVALID LOG2 PUSH5 0x6970667358 0x22 SLT KECCAK256 SWAP12 0xD2 BLOCKHASH RETURN GASLIMIT 0xE PUSH29 0xD88F07EDE3B5CDDBE740490F788C52561A71A2A88FBA98FAEF64736F6C PUSH4 0x43000818 STOP CALLER SLOAD PUSH9 0x65206D6178696D756D KECCAK256 PUSH3 0x657420 PUSH23 0x616C7565206D7573742062652067720000000000000000 "},"methodIdentifiers":{"admin()":"f851a440","cancelAdminChange()":"1157b267","cancelGuardianChange()":"fb49fe27","cancelWinProbabilityChange()":"4addd5f6","cancelWithdrawFund()":"9e090628","changeMaxBetValue(uint256)":"e065fc93","changeMinBetValue(uint256)":"677660e0","confirmAdminChange()":"a74b6783","confirmChangeGuardian()":"847d1e90","confirmChangeWinProbability()":"9a138974","guardian()":"452a9320","isLocked()":"a4e2d634","lastTimestamp(address)":"dccfac82","lockContract()":"753868e3","maxRewardMultiply()":"a48158e5","maxiumBetValue()":"ba8a305c","miniumBetValue()":"1617f190","pendingAdmin()":"26782247","pendingAdminChangeTime()":"bff42fe4","pendingGuardian()":"762c31ba","pendingGuardianChangeTime()":"ed3cacc1","pendingWinProbability()":"e1d8192c","pendingWinProbabilityChangeTime()":"a9860b97","pendingWithdrawFundTime()":"3ab0f330","placeBet((uint256,uint8)[],uint256,uint256,bytes)":"7ce3c6dc","requestAdminChange(address)":"8c51d1e4","requestChangeGuardian(address)":"28fc8b68","requestChangeWinProbability(uint256)":"71d00086","requestWithdrawFund()":"9d1c35e2","token()":"fc0c546a","unlockContract()":"22f0f2f9","winProbability()":"69f2941d","withdrawFund(uint256)":"0cee1725"}}}}}