{"contracts/SlotMachine.sol":{"SlotMachine":{"abi":[{"inputs":[{"internalType":"address","name":"_guardian","type":"address"},{"internalType":"address","name":"_admin","type":"address"},{"internalType":"address","name":"_token","type":"address"},{"internalType":"uint256","name":"_minBetValue","type":"uint256"},{"internalType":"uint256","name":"_maxBetValue","type":"uint256"}],"stateMutability":"nonpayable","type":"constructor"},{"anonymous":false,"inputs":[],"name":"AdminChangeCancelled","type":"event"},{"anonymous":false,"inputs":[{"indexed":false,"internalType":"address","name":"newAdmin","type":"address"},{"indexed":false,"internalType":"uint256","name":"requestTime","type":"uint256"}],"name":"AdminChangeRequested","type":"event"},{"anonymous":false,"inputs":[{"indexed":false,"internalType":"address","name":"newAdmin","type":"address"}],"name":"AdminChanged","type":"event"},{"anonymous":false,"inputs":[{"indexed":false,"internalType":"address","name":"admin","type":"address"},{"indexed":false,"internalType":"uint256","name":"maxBetValue","type":"uint256"}],"name":"ChangedMaxBetValue","type":"event"},{"anonymous":false,"inputs":[{"indexed":false,"internalType":"address","name":"admin","type":"address"},{"indexed":false,"internalType":"uint256","name":"minBetValue","type":"uint256"}],"name":"ChangedMinBetValue","type":"event"},{"anonymous":false,"inputs":[{"indexed":false,"internalType":"address","name":"by","type":"address"}],"name":"ContractLocked","type":"event"},{"anonymous":false,"inputs":[{"indexed":false,"internalType":"address","name":"by","type":"address"}],"name":"ContractUnlocked","type":"event"},{"anonymous":false,"inputs":[],"name":"GuardianChangeCancelled","type":"event"},{"anonymous":false,"inputs":[{"indexed":false,"internalType":"address","name":"newGuardian","type":"address"},{"indexed":false,"internalType":"uint256","name":"requestTime","type":"uint256"}],"name":"GuardianChangeRequested","type":"event"},{"anonymous":false,"inputs":[{"indexed":false,"internalType":"address","name":"newGuardian","type":"address"}],"name":"GuardianChanged","type":"event"},{"anonymous":false,"inputs":[{"indexed":false,"internalType":"address","name":"user","type":"address"},{"indexed":false,"internalType":"enum SlotMachine.Reels[3]","name":"reels","type":"uint8[3]"},{"indexed":false,"internalType":"uint256","name":"amountWon","type":"uint256"}],"name":"Result","type":"event"},{"anonymous":false,"inputs":[],"name":"SeedReelsChangeCancelled","type":"event"},{"anonymous":false,"inputs":[{"indexed":false,"internalType":"uint256[3]","name":"seedReels","type":"uint256[3]"}],"name":"SeedReelsChanged","type":"event"},{"anonymous":false,"inputs":[{"indexed":false,"internalType":"uint256[3]","name":"seedReels","type":"uint256[3]"}],"name":"SeedReelsRequested","type":"event"},{"anonymous":false,"inputs":[{"indexed":false,"internalType":"address","name":"to","type":"address"},{"indexed":false,"internalType":"uint256","name":"amount","type":"uint256"}],"name":"WithdrawFund","type":"event"},{"anonymous":false,"inputs":[],"name":"WithdrawFundCancelled","type":"event"},{"anonymous":false,"inputs":[{"indexed":false,"internalType":"uint256","name":"requestTime","type":"uint256"}],"name":"WithdrawFundRequested","type":"event"},{"inputs":[],"name":"admin","outputs":[{"internalType":"address","name":"","type":"address"}],"stateMutability":"view","type":"function"},{"inputs":[],"name":"cancelAdminChange","outputs":[],"stateMutability":"nonpayable","type":"function"},{"inputs":[],"name":"cancelGuardianChange","outputs":[],"stateMutability":"nonpayable","type":"function"},{"inputs":[],"name":"cancelSeedReelsChange","outputs":[],"stateMutability":"nonpayable","type":"function"},{"inputs":[],"name":"cancelWithdrawFund","outputs":[],"stateMutability":"nonpayable","type":"function"},{"inputs":[{"internalType":"uint256","name":"_maxBetValue","type":"uint256"}],"name":"changeMaxBetValue","outputs":[],"stateMutability":"nonpayable","type":"function"},{"inputs":[{"internalType":"uint256","name":"_minBetValue","type":"uint256"}],"name":"changeMinBetValue","outputs":[],"stateMutability":"nonpayable","type":"function"},{"inputs":[],"name":"confirmAdminChange","outputs":[],"stateMutability":"nonpayable","type":"function"},{"inputs":[],"name":"confirmChangeGuardian","outputs":[],"stateMutability":"nonpayable","type":"function"},{"inputs":[],"name":"confirmChangeSeedReels","outputs":[],"stateMutability":"nonpayable","type":"function"},{"inputs":[],"name":"guardian","outputs":[{"internalType":"address","name":"","type":"address"}],"stateMutability":"view","type":"function"},{"inputs":[],"name":"isLocked","outputs":[{"internalType":"bool","name":"","type":"bool"}],"stateMutability":"view","type":"function"},{"inputs":[{"internalType":"address","name":"","type":"address"}],"name":"lastTimestamp","outputs":[{"internalType":"uint256","name":"","type":"uint256"}],"stateMutability":"view","type":"function"},{"inputs":[],"name":"lockContract","outputs":[],"stateMutability":"nonpayable","type":"function"},{"inputs":[],"name":"maxBetValue","outputs":[{"internalType":"uint256","name":"","type":"uint256"}],"stateMutability":"view","type":"function"},{"inputs":[],"name":"maxRewardMultiply","outputs":[{"internalType":"uint256","name":"","type":"uint256"}],"stateMutability":"view","type":"function"},{"inputs":[],"name":"minBetValue","outputs":[{"internalType":"uint256","name":"","type":"uint256"}],"stateMutability":"view","type":"function"},{"inputs":[],"name":"pendingAdmin","outputs":[{"internalType":"address","name":"","type":"address"}],"stateMutability":"view","type":"function"},{"inputs":[],"name":"pendingAdminChangeTime","outputs":[{"internalType":"uint256","name":"","type":"uint256"}],"stateMutability":"view","type":"function"},{"inputs":[],"name":"pendingGuardian","outputs":[{"internalType":"address","name":"","type":"address"}],"stateMutability":"view","type":"function"},{"inputs":[],"name":"pendingGuardianChangeTime","outputs":[{"internalType":"uint256","name":"","type":"uint256"}],"stateMutability":"view","type":"function"},{"inputs":[{"internalType":"uint256","name":"","type":"uint256"}],"name":"pendingSeedReels","outputs":[{"internalType":"uint256","name":"","type":"uint256"}],"stateMutability":"view","type":"function"},{"inputs":[],"name":"pendingSeedReelsChangeTime","outputs":[{"internalType":"uint256","name":"","type":"uint256"}],"stateMutability":"view","type":"function"},{"inputs":[],"name":"pendingWithdrawFundTime","outputs":[{"internalType":"uint256","name":"","type":"uint256"}],"stateMutability":"view","type":"function"},{"inputs":[{"internalType":"uint256","name":"amount","type":"uint256"},{"internalType":"uint256","name":"_timestamp","type":"uint256"},{"internalType":"bytes","name":"signature","type":"bytes"}],"name":"placeBet","outputs":[],"stateMutability":"nonpayable","type":"function"},{"inputs":[{"internalType":"address","name":"newAdmin","type":"address"}],"name":"requestAdminChange","outputs":[],"stateMutability":"nonpayable","type":"function"},{"inputs":[{"internalType":"address","name":"newGuardian","type":"address"}],"name":"requestChangeGuardian","outputs":[],"stateMutability":"nonpayable","type":"function"},{"inputs":[{"internalType":"uint256","name":"_seedReel1","type":"uint256"},{"internalType":"uint256","name":"_seedReel2","type":"uint256"},{"internalType":"uint256","name":"_seedReel3","type":"uint256"}],"name":"requestChangeSeedReels","outputs":[],"stateMutability":"nonpayable","type":"function"},{"inputs":[],"name":"requestWithdrawFund","outputs":[],"stateMutability":"nonpayable","type":"function"},{"inputs":[{"internalType":"uint256","name":"","type":"uint256"}],"name":"rewards","outputs":[{"internalType":"uint256","name":"multiply","type":"uint256"}],"stateMutability":"view","type":"function"},{"inputs":[{"internalType":"uint256","name":"","type":"uint256"}],"name":"seedReels","outputs":[{"internalType":"uint256","name":"","type":"uint256"}],"stateMutability":"view","type":"function"},{"inputs":[],"name":"token","outputs":[{"internalType":"contract IERC20","name":"","type":"address"}],"stateMutability":"view","type":"function"},{"inputs":[],"name":"unlockContract","outputs":[],"stateMutability":"nonpayable","type":"function"},{"inputs":[{"internalType":"uint256","name":"amount","type":"uint256"}],"name":"withdrawFund","outputs":[],"stateMutability":"nonpayable","type":"function"}],"evm":{"bytecode":{"linkReferences":{},"object":"60e0346200062557601f62002a6f38819003918201601f1916830192916001600160401b0391828511848610176200062a578160a092859260409788528339810103126200062557620000528262000678565b916020916200006383830162000678565b906200007186840162000678565b926080606082015191015160019460009486865560ff196012541660125560018060a01b03809116988915620005e15781169182156200059d57169081156200055957821515806200054f575b8062000544575b156200050b57600280546001600160a01b0319908116909a17905560038054909916178855608052600d55600e558551620001008162000640565b600a81526103e8858201526127108782015283835b878110620004f357505050601384875162000130816200065c565b828152017f536c6f744d616368696e6542726f6b65725634000000000000000000000000008152208385885162000167816200065c565b82815201603160f81b81522090875191868301917f8b73c3c69bb8fe3d512ecc4cf759cc79239f7b179b0ffacaa9a75d522b39400f83528984015260608301524660808301523060a083015260a0825260c082019282841090841117620004df576101008392859262000214958b528151902060a052600f60c052620001ed8462000640565b8284528260e0820152015286519062000206826200065c565b8152600f858201526200068d565b620002438551620002258162000640565b6007815260078582015260078782015286519062000206826200065c565b845190620002518262000640565b600882526008848301526008868301528551916200026f836200065c565b825283820190600f8252835468010000000000000000811015620004cb57848101808655811015620004b75784825285822090851b01925181805b8881106200046b5789620004268a600a8b620003b68c8c818d8d835551910155620003078751620002db8162000640565b60058152600585820152600589820152885190620002f9826200065c565b8152600f8582015262000745565b620003448751620003188162000640565b6006815260068582015260068982015288519062000336826200065c565b815260088582015262000745565b620003808751620003558162000640565b6004815260048582015260048982015288519062000373826200065c565b8152868582015262000745565b8651906200038e8262000640565b808252808483015287820152865190620003a8826200065c565b815260058382015262000745565b620003f38551620003c78162000640565b60028152600283820152600287820152865190620003e5826200065c565b8152600c8382015262000745565b845192620004018462000640565b8084528082850152858401528451926200041b846200065c565b835282015262000745565b5161229b9081620007d482396080518181816101ac01528181610607015281816110a501526114c3015260a051816115cb015260c051818181610542015261149b0152f35b9091928351906009821015620004a357620004988892848b939060ff809160031b9316831b921b19161790565b9401929101620002aa565b634e487b7160e01b84526021600452602484fd5b634e487b7160e01b82526032600452602482fd5b634e487b7160e01b82526041600452602482fd5b634e487b7160e01b84526041600452602484fd5b8661ffff84511693019281600f015501849062000115565b895162461bcd60e51b8152600481018990526012602482015271496e76616c6964206265742076616c75657360701b6044820152606490fd5b5083831015620000c5565b50831515620000be565b895162461bcd60e51b815260048101899052601560248201527f496e76616c696420746f6b656e206164647265737300000000000000000000006044820152606490fd5b8a5162461bcd60e51b8152600481018a9052601860248201527f496e76616c696420677561726469616e206164647265737300000000000000006044820152606490fd5b8a5162461bcd60e51b8152600481018a9052601560248201527f496e76616c69642061646d696e206164647265737300000000000000000000006044820152606490fd5b600080fd5b634e487b7160e01b600052604160045260246000fd5b606081019081106001600160401b038211176200062a57604052565b604081019081106001600160401b038211176200062a57604052565b51906001600160a01b03821682036200062557565b6001805491680100000000000000008310156200062a578183018083558310156200072f5760008281526020808220835195851b0194908290815b60038110620006e1575050509084555060200151910155565b9091929384519060098210156200071b576200070f88928486939060ff809160031b9316831b921b19161790565b950193929101620006c8565b634e487b7160e01b85526021600452602485fd5b634e487b7160e01b600052603260045260246000fd5b6001805491680100000000000000008310156200062a578183018083558310156200072f5760008281526020808220835195851b0194908290815b6003811062000799575050509084555060200151910155565b9091929384519060098210156200071b57620007c788928486939060ff809160031b9316831b921b19161790565b9501939291016200078056fe6040608081526004908136101561001557600080fd5b600091823560e01c9081630cee17251461100b5781631157b26714610faa578163116c6fb214610f8b57816322f0f2f914610f2e5781632678224714610f0657816328fc8b6814610e635781632e57d86114610ce35781633ab0f33014610cc45781634126fb3114610c4a578163452a932014610c2157816356136d8914610ab0578163677660e0146109e0578163753868e314610980578163762c31ba1461095757816376f084d814610938578163847d1e901461088a5781638c51d1e4146107e85781639734953c1461075a5781639d166de71461072e5781639d1c35e2146105b65781639e09062814610565578163a48158e51461052a578163a4e2d63414610506578163a74b678314610446578163bff42fe414610427578163dccfac82146103ed578163e065fc9314610317578163ed3cacc1146102f8578163ed8bd530146102d9578163f1aaf226146102ad578163f301af421461027257508063f851a4401461024a578063fb49fe27146101df5763fc0c546a1461019957600080fd5b346101db57816003193601126101db57517f00000000000000000000000000000000000000000000000000000000000000006001600160a01b03168152602090f35b5080fd5b823461024757806003193601126102475761020560018060a01b0360035416331461125b565b6bffffffffffffffffffffffff60a01b60065416600655806007557f7a81c642828249ae51a34cf52e35ebbf08bd3cb36fb5a4b4c8e80261893f5b818180a180f35b80fd5b50346101db57816003193601126101db5760025490516001600160a01b039091168152602090f35b9050346102a95760203660031901126102a95735916001548310156102475750600161029f60209361117e565b5001549051908152f35b8280fd5b9050346102a95760203660031901126102a9573560038110156102a95760209250600901549051908152f35b5050346101db57816003193601126101db57602090600c549051908152f35b5050346101db57816003193601126101db576020906007549051908152f35b919050346102a95760203660031901126102a95781359161034360018060a01b036002541633146111ce565b821561039f57507fa9f6ef469a02717105903bbce25c47a4db6a0d759d929c5cd9bf295a7033b174916103999161037e600e54831015611bda565b600d8290555133815260208101919091529081906040820190565b0390a180f35b6020608492519162461bcd60e51b8352820152602360248201527f546865206d617869756d206265742076616c756520677265617465722074686160448201526206e20360ec1b6064820152fd5b9050346102a95760203660031901126102a957356001600160a01b038116908190036102a957828291602094526013845220549051908152f35b5050346101db57816003193601126101db576020906005549051908152f35b8383346101db57816003193601126101db576002546001600160a01b03919061047233848316146111ce565b845492831692610483841515611cea565b600554610491811515611cea565b6203f48081018091116104f3577f7ce7ec0b50378fb6c0186ffb5f48325f6593fcb4ca4386f21861af3129188f5c9492602094926104d28993421015611c8d565b6001600160a01b03199182168517600255169055600585905551908152a180f35b634e487b7160e01b865260118752602486fd5b5050346101db57816003193601126101db5760209060ff6012541690519015158152f35b5050346101db57816003193601126101db57602090517f00000000000000000000000000000000000000000000000000000000000000008152f35b833461024757806003193601126102475761058b60018060a01b0360035416331461125b565b806008557f94a9b8fb6e694c6c0fbee0e13e1c5b9ae2dda4395e3495228a46dc717617c6fa8180a180f35b839150346101db57816003193601126101db576002546001600160a01b0391906105e390831633146111ce565b6008546106e157835180926370a0823160e01b8252308383015281602460209586937f0000000000000000000000000000000000000000000000000000000000000000165afa9081156106d75784916106a6575b501561066d57507fe20350bd5ff90b7bdbcb8229cf46c222a5f5b18f094a1ac5962451445fda107691924260085551428152a180f35b60649184519162461bcd60e51b835282015260156024820152744e6f20746f6b656e7320746f20776974686472617760581b6044820152fd5b90508281813d83116106d0575b6106bd81836113a8565b810103126106cc575185610637565b8380fd5b503d6106b3565b85513d86823e3d90fd5b608490602085519162461bcd60e51b8352820152602160248201527f5769746864726177616c207265717565737420697320696e2070726f677265736044820152607360f81b6064820152fd5b9050346102a95760203660031901126102a9573560038110156102a95760209250600f01549051908152f35b5050346101db57816003193601126101db5761078160018060a01b036002541633146111ce565b805161078c8161135a565b82815282602092816020840152820152825b600381106107d25783806007557f6b3b6211c28a53f750e60b8522a5bbaafe92f1174f1db1dc2fb4f2e5300ca7f08180a180f35b815160ff1660098201559082019060010161079e565b919050346102a95760203660031901126102a95781356001600160a01b0381811693909290848303610886577f72b357b8c271031aad940e03e51f8c172b495a1dd60d6e902d339c7f4960410294610848610399956002541633146111ce565b6108538115156112a7565b81546001600160a01b03191617905542600581905590516001600160a01b03909216825260208201529081906040820190565b8580fd5b8383346101db57816003193601126101db576003546001600160a01b0391906108b6338483161461125b565b600654928316926108c8841515611c41565b6007546108d6811515611c41565b6203f48081018091116104f35791602093916109167f01c6520cf747e4632b43b535b91afe3950ccabc4ab29bbd89e3c1f6b0ba056559694421015611c8d565b6001600160a01b0319918216841760035516600655600785905551908152a180f35b5050346101db57816003193601126101db57602090600d549051908152f35b5050346101db57816003193601126101db5760065490516001600160a01b039091168152602090f35b5050346101db57816003193601126101db5760207f46a289a85516d6b63cec7f685e3f5398070f9fc5fb8e3d14021add023fec568f916109cb60018060a01b0360035416331461125b565b600160ff19601254161760125551338152a180f35b919050346102a95760203660031901126102a957813591610a0c60018060a01b036002541633146111ce565b8215610a6257508161039991610a477f96fd935283ebe139eff1231ba7e60b91334b7e1e1c67c91c68b58f8d4a7b211f94600d541015611bda565b600e8290555133815260208101919091529081906040820190565b6020608492519162461bcd60e51b8352820152602360248201527f546865206d696e69756d206265742076616c756520677265617465722074686160448201526206e20360ec1b6064820152fd5b9050346102a95760603660031901126102a95780356024359160443590610ae260018060a01b036002541633146111ce565b8383141580610c17575b80610c0d575b15610bca5782151580610bc1575b80610bb8575b15610b755750835191610b188361135a565b8252602092602083015283820152835b60038110610b6257847f9c812434a88877c411e67add81a31b539d84c530e2b1c560720763d8e490d94b8542600c555180610399816113ca565b8151600982015590820190600101610b28565b606490602086519162461bcd60e51b8352820152602060248201527f53656564207265656c206d7573742062652067726561746572207468616e20306044820152fd5b50811515610b06565b50831515610b00565b606490602086519162461bcd60e51b8352820152602060248201527f416c6c2074687265652073656564206d75737420626520646966666572656e746044820152fd5b5081831415610af2565b5081841415610aec565b5050346101db57816003193601126101db5760035490516001600160a01b039091168152602090f35b8390346101db5760603660031901126101db576044359067ffffffffffffffff908183116106cc57366023840112156106cc57828101359182116106cc5736602483850101116106cc576024610cbd93610ca960ff601254161561121a565b610cb1611d36565b01906024359035611480565b6001815580f35b5050346101db57816003193601126101db576020906008549051908152f35b8383346101db57816003193601126101db57610d0a60018060a01b036002541633146111ce565b6009926009549081151580610e58575b80610e4d575b610d29906112e5565b600c54610d378115156112e5565b6203f4808101809111610e3a574210610de1575060099083905b60038210610dca575050508051610d678161135a565b828152602090836020820152838382015293835b60038110610db557847fe89d359024e64cc0ed2ffe1225ef913ca02189157a553dc7134c4aaa2fe5a4f18582600c555180610399816113ca565b855160ff168282015594820194600101610d7b565b6001809193019182549381600f0155019091610d51565b608490602084519162461bcd60e51b8352820152602d60248201527f4d75737420776169742033206461797320746f20636f6e6669726d207365656460448201526c207265656c73206368616e676560981b6064820152fd5b634e487b7160e01b855260118252602485fd5b50600b541515610d20565b50600a541515610d1a565b9050346102a95760203660031901126102a9576001600160a01b03903581811692838203610f02577f6c437b1584202b77482374dd2215b75e975b0be0768b92ed5e4b048b0e10987993610ebf6103999460035416331461125b565b610eca8115156112a7565b600680546001600160a01b03191691909117905542600781905590516001600160a01b03909216825260208201529081906040820190565b8480fd5b9050346102a957826003193601126102a9575490516001600160a01b03909116815260209150f35b5050346101db57816003193601126101db5760207ff08396b9fd122c2ef99aec183d994d39fa54cc25773e4b8a6ed20ad08aef02c991610f7960018060a01b0360035416331461125b565b60ff196012541660125551338152a180f35b5050346101db57816003193601126101db57602090600e549051908152f35b8390346101db57816003193601126101db57610fd160018060a01b0360035416331461125b565b80546001600160a01b031916905560058190557f07ad662e4db36fe46ee1697376f8457b103123c200de262ca4baf9f5cad0a1e88180a180f35b839150346101db5760203660031901126101db576002548135916001600160a01b039161103b90831633146111ce565b611043611d36565b61105260ff601254161561121a565b60085480156111455762093a808101809111610e3a5742106110f75750926110ed83947f09ad672d4e7c4892da934d1051932ebe9ec4b6ec8c3f40d569176db3e93e5abe946008556110c98482600254167f0000000000000000000000000000000000000000000000000000000000000000611d8c565b600254925192166001600160a01b0316825260208201929092529081906040820190565b0390a16001815580f35b608490602086519162461bcd60e51b8352820152602260248201527f4d75737420776169742037206461797320746f2077697468647261772066756e604482015261647360f01b6064820152fd5b855162461bcd60e51b815260208184015260136024820152724e6f2070656e64696e6720776974686472617760681b6044820152606490fd5b6001548110156111b857600160005260011b7fb10e2d527612073b26eecdfd717e6a320cf44b4afac2b0732d9fcbe2b7fa0cf60190600090565b634e487b7160e01b600052603260045260246000fd5b156111d557565b60405162461bcd60e51b815260206004820152601b60248201527f4f6e6c792061646d696e2063616e2065786563757465207468697300000000006044820152606490fd5b1561122157565b60405162461bcd60e51b815260206004820152601260248201527110dbdb9d1c9858dd081a5cc81b1bd8dad95960721b6044820152606490fd5b1561126257565b60405162461bcd60e51b815260206004820152601e60248201527f4f6e6c7920677561726469616e2063616e2065786563757465207468697300006044820152606490fd5b156112ae57565b60405162461bcd60e51b815260206004820152600f60248201526e496e76616c6964206164647265737360881b6044820152606490fd5b156112ec57565b60405162461bcd60e51b815260206004820152601c60248201527f4e6f2070656e64696e672073656564207265656c73206368616e6765000000006044820152606490fd5b8181029291811591840414171561134457565b634e487b7160e01b600052601160045260246000fd5b6060810190811067ffffffffffffffff82111761137657604052565b634e487b7160e01b600052604160045260246000fd5b60a0810190811067ffffffffffffffff82111761137657604052565b90601f8019910116810190811067ffffffffffffffff82111761137657604052565b906060820191600f906000905b600382106113e457505050565b60016020819285548152019301910190916113d7565b5160098110156114075790565b634e487b7160e01b600052602160045260246000fd5b6001600160a01b03909116815260a0810193929160006020818185015b6003821061144d57505050505060800152565b8451600981101561146c5783828192600194520195019101909361143a565b634e487b7160e01b85526021600452602485fd5b92919091600e548410611b6f57600d548411611b2a576114c07f000000000000000000000000000000000000000000000000000000000000000085611331565b937f00000000000000000000000000000000000000000000000000000000000000009060018060a01b03928383169660409485519283916370a0823160e01b988984526004943086860152848d602098899160249889915afa908115611b1f57600091611af2575b5010611ab0578a4210611a6e57603c8b01808c11611a5a574211611a2457336000526013865288600020548b11156119e2578a8980516115678161135a565b338152898982015201528851868101907f0e81d1cdf23bdc0a6bef5035503a1014285a41cc67c1e91e29d9211b707e3cf98252338b8201528860608201528c6080820152608081526115b88161138c565b51902089518781019161190160f01b83527f000000000000000000000000000000000000000000000000000000000000000060228301526042820152604281526080810181811067ffffffffffffffff8211176119ce578b5251902061161d84611dcf565b9061162a8b5192836113a8565b848252368584011161184157600088866116579761164f968387013784010152611fc6565b929092611ffe565b806002541691160361199a5733600052601383528786600020556116a686516323b872dd60e01b858201523383820152306044820152856064820152606481526116a08161138c565b86611df7565b606086516116b38161135a565b3690376116c288600f54611f68565b9660106116dd6116d48b601054611f68565b9a601154611f68565b906116f289519a6116ed8c61135a565b611f25565b9a60099b8c81101561198657906116ed61170c928d611deb565b918b83101561197257611726906116ed888d019485611deb565b918b831015611972579186959493928b929c6117458c85019384611deb565b60009d8e9360019560015495905b868210611858575b505050505050505087519a8b938492835230908301525afa90811561184d576000916117fa575b507fd72e31f1d3eb925a37a1e52e74189cbc3bc8ca2290fbab21eba1d59ebe556040965085116117dd5750906117c69184806117cb575b505051928392338461141d565b0390a1565b6117d6913390611d8c565b38846117b9565b9350906117ef846117c6933390611d8c565b51928392338461141d565b905086813d8311611846575b61181081836113a8565b81010312611841577fd72e31f1d3eb925a37a1e52e74189cbc3bc8ca2290fbab21eba1d59ebe556040955138611782565b600080fd5b503d611806565b84513d6000823e3d90fd5b61186c9192939495969798999a9b506113fa565b6118758261117e565b509060ff80925416908682101561195e578681101561195e5714908161192b575b816118e5575b506118b4578601908a9998979695949392918f611753565b92505050879695949c506118d79392506118ce915061117e565b50015486611331565b98388080808080808f61175b565b90506118f0836113fa565b906118fa8361117e565b5054851c169085821015611917578581101561191757143861189c565b8a60218d634e487b7160e01b600052526000fd5b9050611936866113fa565b816119408461117e565b505460081c16908682101561195e578681101561195e571490611896565b8b60218e634e487b7160e01b600052526000fd5b84602187634e487b7160e01b600052526000fd5b85602188634e487b7160e01b600052526000fd5b60119060649387519362461bcd60e51b855284015282015270496e76616c6964207369676e617475726560781b6044820152fd5b86604189634e487b7160e01b600052526000fd5b885162461bcd60e51b81528086018790526017818601527f54696d657374616d70206d757374206265206e657765720000000000000000006044820152606490fd5b885162461bcd60e51b815280860187905260118186015270151a5b595cdd185b5c08195e1c1a5c9959607a1b6044820152606490fd5b84601187634e487b7160e01b600052526000fd5b885162461bcd60e51b81528086018790526019818601527f54696d657374616d702066726f6d2074686520667574757265000000000000006044820152606490fd5b885162461bcd60e51b8152808601879052601f818601527f436f6e74726163742068617320696e73756666696369656e742066756e6473006044820152606490fd5b90508781813d8311611b18575b611b0981836113a8565b81010312611841575138611528565b503d611aff565b8b513d6000823e3d90fd5b60405162461bcd60e51b815260206004820152601960248201527f4265742065786365656473206d6178696d756d206c696d6974000000000000006044820152606490fd5b60405162461bcd60e51b815260206004820152603e60248201527f5468652062657420616d6f756e74206d7573742062652067726561746572207460448201527f68616e20746865206d696e696d756d2072657175697265642076616c756500006064820152608490fd5b15611be157565b60405162461bcd60e51b815260206004820152603260248201527f546865206d617869756d206265742076616c75652067726561746572207468616044820152716e206d696e69756d206265742076616c756560701b6064820152608490fd5b15611c4857565b60405162461bcd60e51b815260206004820152601a60248201527f4e6f2070656e64696e6720677561726469616e206368616e67650000000000006044820152606490fd5b15611c9457565b60405162461bcd60e51b815260206004820152602860248201527f4d75737420776169742033206461797320746f20636f6e6669726d2061646d696044820152676e206368616e676560c01b6064820152608490fd5b15611cf157565b60405162461bcd60e51b815260206004820152601760248201527f4e6f2070656e64696e672061646d696e206368616e67650000000000000000006044820152606490fd5b600260005414611d47576002600055565b60405162461bcd60e51b815260206004820152601f60248201527f5265656e7472616e637947756172643a207265656e7472616e742063616c6c006044820152606490fd5b60405163a9059cbb60e01b60208201526001600160a01b03929092166024830152604480830193909352918152611dcd91611dc86064836113a8565b611df7565b565b67ffffffffffffffff811161137657601f01601f191660200190565b60098210156114075752565b60018060a01b031690604051604081019080821067ffffffffffffffff83111761137657611e87916040526020938482527f5361666545524332303a206c6f772d6c6576656c2063616c6c206661696c6564858301526000808587829751910182855af13d15611f1d573d91611e6c83611dcf565b92611e7a60405194856113a8565b83523d868885013e612191565b805191821591848315611ef9575b505050905015611ea25750565b6084906040519062461bcd60e51b82526004820152602a60248201527f5361666545524332303a204552433230206f7065726174696f6e20646964206e6044820152691bdd081cdd58d8d9595960b21b6064820152fd5b9193818094500103126101db57820151908115158203610247575080388084611e95565b606091612191565b6000194301438111611344576009916040519060208201923360601b8452406034830152446054830152607482015260748152611f618161138c565b5190200690565b90600019430190438211611344576040519060208201923360601b8452406034830152446054830152607482015260748152611fa38161138c565b5190208115611fb0570690565b634e487b7160e01b600052601260045260246000fd5b906041815114600014611ff457611ff0916020820151906060604084015193015160001a90612102565b9091565b5050600090600290565b6005811015611407578061200f5750565b6001810361205c5760405162461bcd60e51b815260206004820152601860248201527f45434453413a20696e76616c6964207369676e617475726500000000000000006044820152606490fd5b600281036120a95760405162461bcd60e51b815260206004820152601f60248201527f45434453413a20696e76616c6964207369676e6174757265206c656e677468006044820152606490fd5b6003146120b257565b60405162461bcd60e51b815260206004820152602260248201527f45434453413a20696e76616c6964207369676e6174757265202773272076616c604482015261756560f01b6064820152608490fd5b9291907f7fffffffffffffffffffffffffffffff5d576e7357a4501ddfe92f46681b20a083116121855791608094939160ff602094604051948552168484015260408301526060820152600093849182805260015afa156121785781516001600160a01b03811615612172579190565b50600190565b50604051903d90823e3d90fd5b50505050600090600390565b919290156121f357508151156121a5575090565b3b156121ae5790565b60405162461bcd60e51b815260206004820152601d60248201527f416464726573733a2063616c6c20746f206e6f6e2d636f6e74726163740000006044820152606490fd5b8251909150156122065750805190602001fd5b6040519062461bcd60e51b82528160208060048301528251908160248401526000935b82851061224c575050604492506000838284010152601f80199101168101030190fd5b848101820151868601604401529381019385935061222956fea264697066735822122005d61cd71976f07fd01058bdd9054e33923c612678361d4b915fc073221d052764736f6c63430008180033","opcodes":"PUSH1 0xE0 CALLVALUE PUSH3 0x625 JUMPI PUSH1 0x1F PUSH3 0x2A6F CODESIZE DUP2 SWAP1 SUB SWAP2 DUP3 ADD PUSH1 0x1F NOT AND DUP4 ADD SWAP3 SWAP2 PUSH1 0x1 PUSH1 0x1 PUSH1 0x40 SHL SUB SWAP2 DUP3 DUP6 GT DUP5 DUP7 LT OR PUSH3 0x62A JUMPI DUP2 PUSH1 0xA0 SWAP3 DUP6 SWAP3 PUSH1 0x40 SWAP8 DUP9 MSTORE DUP4 CODECOPY DUP2 ADD SUB SLT PUSH3 0x625 JUMPI PUSH3 0x52 DUP3 PUSH3 0x678 JUMP JUMPDEST SWAP2 PUSH1 0x20 SWAP2 PUSH3 0x63 DUP4 DUP4 ADD PUSH3 0x678 JUMP JUMPDEST SWAP1 PUSH3 0x71 DUP7 DUP5 ADD PUSH3 0x678 JUMP JUMPDEST SWAP3 PUSH1 0x80 PUSH1 0x60 DUP3 ADD MLOAD SWAP2 ADD MLOAD PUSH1 0x1 SWAP5 PUSH1 0x0 SWAP5 DUP7 DUP7 SSTORE PUSH1 0xFF NOT PUSH1 0x12 SLOAD AND PUSH1 0x12 SSTORE PUSH1 0x1 DUP1 PUSH1 0xA0 SHL SUB DUP1 SWAP2 AND SWAP9 DUP10 ISZERO PUSH3 0x5E1 JUMPI DUP2 AND SWAP2 DUP3 ISZERO PUSH3 0x59D JUMPI AND SWAP1 DUP2 ISZERO PUSH3 0x559 JUMPI DUP3 ISZERO ISZERO DUP1 PUSH3 0x54F JUMPI JUMPDEST DUP1 PUSH3 0x544 JUMPI JUMPDEST ISZERO PUSH3 0x50B JUMPI PUSH1 0x2 DUP1 SLOAD PUSH1 0x1 PUSH1 0x1 PUSH1 0xA0 SHL SUB NOT SWAP1 DUP2 AND SWAP1 SWAP11 OR SWAP1 SSTORE PUSH1 0x3 DUP1 SLOAD SWAP1 SWAP10 AND OR DUP9 SSTORE PUSH1 0x80 MSTORE PUSH1 0xD SSTORE PUSH1 0xE SSTORE DUP6 MLOAD PUSH3 0x100 DUP2 PUSH3 0x640 JUMP JUMPDEST PUSH1 0xA DUP2 MSTORE PUSH2 0x3E8 DUP6 DUP3 ADD MSTORE PUSH2 0x2710 DUP8 DUP3 ADD MSTORE DUP4 DUP4 JUMPDEST DUP8 DUP2 LT PUSH3 0x4F3 JUMPI POP POP POP PUSH1 0x13 DUP5 DUP8 MLOAD PUSH3 0x130 DUP2 PUSH3 0x65C JUMP JUMPDEST DUP3 DUP2 MSTORE ADD PUSH32 0x536C6F744D616368696E6542726F6B6572563400000000000000000000000000 DUP2 MSTORE KECCAK256 DUP4 DUP6 DUP9 MLOAD PUSH3 0x167 DUP2 PUSH3 0x65C JUMP JUMPDEST DUP3 DUP2 MSTORE ADD PUSH1 0x31 PUSH1 0xF8 SHL DUP2 MSTORE KECCAK256 SWAP1 DUP8 MLOAD SWAP2 DUP7 DUP4 ADD SWAP2 PUSH32 0x8B73C3C69BB8FE3D512ECC4CF759CC79239F7B179B0FFACAA9A75D522B39400F DUP4 MSTORE DUP10 DUP5 ADD MSTORE PUSH1 0x60 DUP4 ADD MSTORE CHAINID PUSH1 0x80 DUP4 ADD MSTORE ADDRESS PUSH1 0xA0 DUP4 ADD MSTORE PUSH1 0xA0 DUP3 MSTORE PUSH1 0xC0 DUP3 ADD SWAP3 DUP3 DUP5 LT SWAP1 DUP5 GT OR PUSH3 0x4DF JUMPI PUSH2 0x100 DUP4 SWAP3 DUP6 SWAP3 PUSH3 0x214 SWAP6 DUP12 MSTORE DUP2 MLOAD SWAP1 KECCAK256 PUSH1 0xA0 MSTORE PUSH1 0xF PUSH1 0xC0 MSTORE PUSH3 0x1ED DUP5 PUSH3 0x640 JUMP JUMPDEST DUP3 DUP5 MSTORE DUP3 PUSH1 0xE0 DUP3 ADD MSTORE ADD MSTORE DUP7 MLOAD SWAP1 PUSH3 0x206 DUP3 PUSH3 0x65C JUMP JUMPDEST DUP2 MSTORE PUSH1 0xF DUP6 DUP3 ADD MSTORE PUSH3 0x68D JUMP JUMPDEST PUSH3 0x243 DUP6 MLOAD PUSH3 0x225 DUP2 PUSH3 0x640 JUMP JUMPDEST PUSH1 0x7 DUP2 MSTORE PUSH1 0x7 DUP6 DUP3 ADD MSTORE PUSH1 0x7 DUP8 DUP3 ADD MSTORE DUP7 MLOAD SWAP1 PUSH3 0x206 DUP3 PUSH3 0x65C JUMP JUMPDEST DUP5 MLOAD SWAP1 PUSH3 0x251 DUP3 PUSH3 0x640 JUMP JUMPDEST PUSH1 0x8 DUP3 MSTORE PUSH1 0x8 DUP5 DUP4 ADD MSTORE PUSH1 0x8 DUP7 DUP4 ADD MSTORE DUP6 MLOAD SWAP2 PUSH3 0x26F DUP4 PUSH3 0x65C JUMP JUMPDEST DUP3 MSTORE DUP4 DUP3 ADD SWAP1 PUSH1 0xF DUP3 MSTORE DUP4 SLOAD PUSH9 0x10000000000000000 DUP2 LT ISZERO PUSH3 0x4CB JUMPI DUP5 DUP2 ADD DUP1 DUP7 SSTORE DUP2 LT ISZERO PUSH3 0x4B7 JUMPI DUP5 DUP3 MSTORE DUP6 DUP3 KECCAK256 SWAP1 DUP6 SHL ADD SWAP3 MLOAD DUP2 DUP1 JUMPDEST DUP9 DUP2 LT PUSH3 0x46B JUMPI DUP10 PUSH3 0x426 DUP11 PUSH1 0xA DUP12 PUSH3 0x3B6 DUP13 DUP13 DUP2 DUP14 DUP14 DUP4 SSTORE MLOAD SWAP2 ADD SSTORE PUSH3 0x307 DUP8 MLOAD PUSH3 0x2DB DUP2 PUSH3 0x640 JUMP JUMPDEST PUSH1 0x5 DUP2 MSTORE PUSH1 0x5 DUP6 DUP3 ADD MSTORE PUSH1 0x5 DUP10 DUP3 ADD MSTORE DUP9 MLOAD SWAP1 PUSH3 0x2F9 DUP3 PUSH3 0x65C JUMP JUMPDEST DUP2 MSTORE PUSH1 0xF DUP6 DUP3 ADD MSTORE PUSH3 0x745 JUMP JUMPDEST PUSH3 0x344 DUP8 MLOAD PUSH3 0x318 DUP2 PUSH3 0x640 JUMP JUMPDEST PUSH1 0x6 DUP2 MSTORE PUSH1 0x6 DUP6 DUP3 ADD MSTORE PUSH1 0x6 DUP10 DUP3 ADD MSTORE DUP9 MLOAD SWAP1 PUSH3 0x336 DUP3 PUSH3 0x65C JUMP JUMPDEST DUP2 MSTORE PUSH1 0x8 DUP6 DUP3 ADD MSTORE PUSH3 0x745 JUMP JUMPDEST PUSH3 0x380 DUP8 MLOAD PUSH3 0x355 DUP2 PUSH3 0x640 JUMP JUMPDEST PUSH1 0x4 DUP2 MSTORE PUSH1 0x4 DUP6 DUP3 ADD MSTORE PUSH1 0x4 DUP10 DUP3 ADD MSTORE DUP9 MLOAD SWAP1 PUSH3 0x373 DUP3 PUSH3 0x65C JUMP JUMPDEST DUP2 MSTORE DUP7 DUP6 DUP3 ADD MSTORE PUSH3 0x745 JUMP JUMPDEST DUP7 MLOAD SWAP1 PUSH3 0x38E DUP3 PUSH3 0x640 JUMP JUMPDEST DUP1 DUP3 MSTORE DUP1 DUP5 DUP4 ADD MSTORE DUP8 DUP3 ADD MSTORE DUP7 MLOAD SWAP1 PUSH3 0x3A8 DUP3 PUSH3 0x65C JUMP JUMPDEST DUP2 MSTORE PUSH1 0x5 DUP4 DUP3 ADD MSTORE PUSH3 0x745 JUMP JUMPDEST PUSH3 0x3F3 DUP6 MLOAD PUSH3 0x3C7 DUP2 PUSH3 0x640 JUMP JUMPDEST PUSH1 0x2 DUP2 MSTORE PUSH1 0x2 DUP4 DUP3 ADD MSTORE PUSH1 0x2 DUP8 DUP3 ADD MSTORE DUP7 MLOAD SWAP1 PUSH3 0x3E5 DUP3 PUSH3 0x65C JUMP JUMPDEST DUP2 MSTORE PUSH1 0xC DUP4 DUP3 ADD MSTORE PUSH3 0x745 JUMP JUMPDEST DUP5 MLOAD SWAP3 PUSH3 0x401 DUP5 PUSH3 0x640 JUMP JUMPDEST DUP1 DUP5 MSTORE DUP1 DUP3 DUP6 ADD MSTORE DUP6 DUP5 ADD MSTORE DUP5 MLOAD SWAP3 PUSH3 0x41B DUP5 PUSH3 0x65C JUMP JUMPDEST DUP4 MSTORE DUP3 ADD MSTORE PUSH3 0x745 JUMP JUMPDEST MLOAD PUSH2 0x229B SWAP1 DUP2 PUSH3 0x7D4 DUP3 CODECOPY PUSH1 0x80 MLOAD DUP2 DUP2 DUP2 PUSH2 0x1AC ADD MSTORE DUP2 DUP2 PUSH2 0x607 ADD MSTORE DUP2 DUP2 PUSH2 0x10A5 ADD MSTORE PUSH2 0x14C3 ADD MSTORE PUSH1 0xA0 MLOAD DUP2 PUSH2 0x15CB ADD MSTORE PUSH1 0xC0 MLOAD DUP2 DUP2 DUP2 PUSH2 0x542 ADD MSTORE PUSH2 0x149B ADD MSTORE RETURN JUMPDEST SWAP1 SWAP2 SWAP3 DUP4 MLOAD SWAP1 PUSH1 0x9 DUP3 LT ISZERO PUSH3 0x4A3 JUMPI PUSH3 0x498 DUP9 SWAP3 DUP5 DUP12 SWAP4 SWAP1 PUSH1 0xFF DUP1 SWAP2 PUSH1 0x3 SHL SWAP4 AND DUP4 SHL SWAP3 SHL NOT AND OR SWAP1 JUMP JUMPDEST SWAP5 ADD SWAP3 SWAP2 ADD PUSH3 0x2AA JUMP JUMPDEST PUSH4 0x4E487B71 PUSH1 0xE0 SHL DUP5 MSTORE PUSH1 0x21 PUSH1 0x4 MSTORE PUSH1 0x24 DUP5 REVERT JUMPDEST PUSH4 0x4E487B71 PUSH1 0xE0 SHL DUP3 MSTORE PUSH1 0x32 PUSH1 0x4 MSTORE PUSH1 0x24 DUP3 REVERT JUMPDEST PUSH4 0x4E487B71 PUSH1 0xE0 SHL DUP3 MSTORE PUSH1 0x41 PUSH1 0x4 MSTORE PUSH1 0x24 DUP3 REVERT JUMPDEST PUSH4 0x4E487B71 PUSH1 0xE0 SHL DUP5 MSTORE PUSH1 0x41 PUSH1 0x4 MSTORE PUSH1 0x24 DUP5 REVERT JUMPDEST DUP7 PUSH2 0xFFFF DUP5 MLOAD AND SWAP4 ADD SWAP3 DUP2 PUSH1 0xF ADD SSTORE ADD DUP5 SWAP1 PUSH3 0x115 JUMP JUMPDEST DUP10 MLOAD PUSH3 0x461BCD PUSH1 0xE5 SHL DUP2 MSTORE PUSH1 0x4 DUP2 ADD DUP10 SWAP1 MSTORE PUSH1 0x12 PUSH1 0x24 DUP3 ADD MSTORE PUSH18 0x496E76616C6964206265742076616C756573 PUSH1 0x70 SHL PUSH1 0x44 DUP3 ADD MSTORE PUSH1 0x64 SWAP1 REVERT JUMPDEST POP DUP4 DUP4 LT ISZERO PUSH3 0xC5 JUMP JUMPDEST POP DUP4 ISZERO ISZERO PUSH3 0xBE JUMP JUMPDEST DUP10 MLOAD PUSH3 0x461BCD PUSH1 0xE5 SHL DUP2 MSTORE PUSH1 0x4 DUP2 ADD DUP10 SWAP1 MSTORE PUSH1 0x15 PUSH1 0x24 DUP3 ADD MSTORE PUSH32 0x496E76616C696420746F6B656E20616464726573730000000000000000000000 PUSH1 0x44 DUP3 ADD MSTORE PUSH1 0x64 SWAP1 REVERT JUMPDEST DUP11 MLOAD PUSH3 0x461BCD PUSH1 0xE5 SHL DUP2 MSTORE PUSH1 0x4 DUP2 ADD DUP11 SWAP1 MSTORE PUSH1 0x18 PUSH1 0x24 DUP3 ADD MSTORE PUSH32 0x496E76616C696420677561726469616E20616464726573730000000000000000 PUSH1 0x44 DUP3 ADD MSTORE PUSH1 0x64 SWAP1 REVERT JUMPDEST DUP11 MLOAD PUSH3 0x461BCD PUSH1 0xE5 SHL DUP2 MSTORE PUSH1 0x4 DUP2 ADD DUP11 SWAP1 MSTORE PUSH1 0x15 PUSH1 0x24 DUP3 ADD MSTORE PUSH32 0x496E76616C69642061646D696E20616464726573730000000000000000000000 PUSH1 0x44 DUP3 ADD MSTORE PUSH1 0x64 SWAP1 REVERT JUMPDEST PUSH1 0x0 DUP1 REVERT JUMPDEST PUSH4 0x4E487B71 PUSH1 0xE0 SHL PUSH1 0x0 MSTORE PUSH1 0x41 PUSH1 0x4 MSTORE PUSH1 0x24 PUSH1 0x0 REVERT JUMPDEST PUSH1 0x60 DUP2 ADD SWAP1 DUP2 LT PUSH1 0x1 PUSH1 0x1 PUSH1 0x40 SHL SUB DUP3 GT OR PUSH3 0x62A JUMPI PUSH1 0x40 MSTORE JUMP JUMPDEST PUSH1 0x40 DUP2 ADD SWAP1 DUP2 LT PUSH1 0x1 PUSH1 0x1 PUSH1 0x40 SHL SUB DUP3 GT OR PUSH3 0x62A JUMPI PUSH1 0x40 MSTORE JUMP JUMPDEST MLOAD SWAP1 PUSH1 0x1 PUSH1 0x1 PUSH1 0xA0 SHL SUB DUP3 AND DUP3 SUB PUSH3 0x625 JUMPI JUMP JUMPDEST PUSH1 0x1 DUP1 SLOAD SWAP2 PUSH9 0x10000000000000000 DUP4 LT ISZERO PUSH3 0x62A JUMPI DUP2 DUP4 ADD DUP1 DUP4 SSTORE DUP4 LT ISZERO PUSH3 0x72F JUMPI PUSH1 0x0 DUP3 DUP2 MSTORE PUSH1 0x20 DUP1 DUP3 KECCAK256 DUP4 MLOAD SWAP6 DUP6 SHL ADD SWAP5 SWAP1 DUP3 SWAP1 DUP2 JUMPDEST PUSH1 0x3 DUP2 LT PUSH3 0x6E1 JUMPI POP POP POP SWAP1 DUP5 SSTORE POP PUSH1 0x20 ADD MLOAD SWAP2 ADD SSTORE JUMP JUMPDEST SWAP1 SWAP2 SWAP3 SWAP4 DUP5 MLOAD SWAP1 PUSH1 0x9 DUP3 LT ISZERO PUSH3 0x71B JUMPI PUSH3 0x70F DUP9 SWAP3 DUP5 DUP7 SWAP4 SWAP1 PUSH1 0xFF DUP1 SWAP2 PUSH1 0x3 SHL SWAP4 AND DUP4 SHL SWAP3 SHL NOT AND OR SWAP1 JUMP JUMPDEST SWAP6 ADD SWAP4 SWAP3 SWAP2 ADD PUSH3 0x6C8 JUMP JUMPDEST PUSH4 0x4E487B71 PUSH1 0xE0 SHL DUP6 MSTORE PUSH1 0x21 PUSH1 0x4 MSTORE PUSH1 0x24 DUP6 REVERT JUMPDEST PUSH4 0x4E487B71 PUSH1 0xE0 SHL PUSH1 0x0 MSTORE PUSH1 0x32 PUSH1 0x4 MSTORE PUSH1 0x24 PUSH1 0x0 REVERT JUMPDEST PUSH1 0x1 DUP1 SLOAD SWAP2 PUSH9 0x10000000000000000 DUP4 LT ISZERO PUSH3 0x62A JUMPI DUP2 DUP4 ADD DUP1 DUP4 SSTORE DUP4 LT ISZERO PUSH3 0x72F JUMPI PUSH1 0x0 DUP3 DUP2 MSTORE PUSH1 0x20 DUP1 DUP3 KECCAK256 DUP4 MLOAD SWAP6 DUP6 SHL ADD SWAP5 SWAP1 DUP3 SWAP1 DUP2 JUMPDEST PUSH1 0x3 DUP2 LT PUSH3 0x799 JUMPI POP POP POP SWAP1 DUP5 SSTORE POP PUSH1 0x20 ADD MLOAD SWAP2 ADD SSTORE JUMP JUMPDEST SWAP1 SWAP2 SWAP3 SWAP4 DUP5 MLOAD SWAP1 PUSH1 0x9 DUP3 LT ISZERO PUSH3 0x71B JUMPI PUSH3 0x7C7 DUP9 SWAP3 DUP5 DUP7 SWAP4 SWAP1 PUSH1 0xFF DUP1 SWAP2 PUSH1 0x3 SHL SWAP4 AND DUP4 SHL SWAP3 SHL NOT AND OR SWAP1 JUMP JUMPDEST SWAP6 ADD SWAP4 SWAP3 SWAP2 ADD PUSH3 0x780 JUMP INVALID PUSH1 0x40 PUSH1 0x80 DUP2 MSTORE PUSH1 0x4 SWAP1 DUP2 CALLDATASIZE LT ISZERO PUSH2 0x15 JUMPI PUSH1 0x0 DUP1 REVERT JUMPDEST PUSH1 0x0 SWAP2 DUP3 CALLDATALOAD PUSH1 0xE0 SHR SWAP1 DUP2 PUSH4 0xCEE1725 EQ PUSH2 0x100B JUMPI DUP2 PUSH4 0x1157B267 EQ PUSH2 0xFAA JUMPI DUP2 PUSH4 0x116C6FB2 EQ PUSH2 0xF8B JUMPI DUP2 PUSH4 0x22F0F2F9 EQ PUSH2 0xF2E JUMPI DUP2 PUSH4 0x26782247 EQ PUSH2 0xF06 JUMPI DUP2 PUSH4 0x28FC8B68 EQ PUSH2 0xE63 JUMPI DUP2 PUSH4 0x2E57D861 EQ PUSH2 0xCE3 JUMPI DUP2 PUSH4 0x3AB0F330 EQ PUSH2 0xCC4 JUMPI DUP2 PUSH4 0x4126FB31 EQ PUSH2 0xC4A JUMPI DUP2 PUSH4 0x452A9320 EQ PUSH2 0xC21 JUMPI DUP2 PUSH4 0x56136D89 EQ PUSH2 0xAB0 JUMPI DUP2 PUSH4 0x677660E0 EQ PUSH2 0x9E0 JUMPI DUP2 PUSH4 0x753868E3 EQ PUSH2 0x980 JUMPI DUP2 PUSH4 0x762C31BA EQ PUSH2 0x957 JUMPI DUP2 PUSH4 0x76F084D8 EQ PUSH2 0x938 JUMPI DUP2 PUSH4 0x847D1E90 EQ PUSH2 0x88A JUMPI DUP2 PUSH4 0x8C51D1E4 EQ PUSH2 0x7E8 JUMPI DUP2 PUSH4 0x9734953C EQ PUSH2 0x75A JUMPI DUP2 PUSH4 0x9D166DE7 EQ PUSH2 0x72E JUMPI DUP2 PUSH4 0x9D1C35E2 EQ PUSH2 0x5B6 JUMPI DUP2 PUSH4 0x9E090628 EQ PUSH2 0x565 JUMPI DUP2 PUSH4 0xA48158E5 EQ PUSH2 0x52A JUMPI DUP2 PUSH4 0xA4E2D634 EQ PUSH2 0x506 JUMPI DUP2 PUSH4 0xA74B6783 EQ PUSH2 0x446 JUMPI DUP2 PUSH4 0xBFF42FE4 EQ PUSH2 0x427 JUMPI DUP2 PUSH4 0xDCCFAC82 EQ PUSH2 0x3ED JUMPI DUP2 PUSH4 0xE065FC93 EQ PUSH2 0x317 JUMPI DUP2 PUSH4 0xED3CACC1 EQ PUSH2 0x2F8 JUMPI DUP2 PUSH4 0xED8BD530 EQ PUSH2 0x2D9 JUMPI DUP2 PUSH4 0xF1AAF226 EQ PUSH2 0x2AD JUMPI DUP2 PUSH4 0xF301AF42 EQ PUSH2 0x272 JUMPI POP DUP1 PUSH4 0xF851A440 EQ PUSH2 0x24A JUMPI DUP1 PUSH4 0xFB49FE27 EQ PUSH2 0x1DF JUMPI PUSH4 0xFC0C546A EQ PUSH2 0x199 JUMPI PUSH1 0x0 DUP1 REVERT JUMPDEST CALLVALUE PUSH2 0x1DB JUMPI DUP2 PUSH1 0x3 NOT CALLDATASIZE ADD SLT PUSH2 0x1DB JUMPI MLOAD PUSH32 0x0 PUSH1 0x1 PUSH1 0x1 PUSH1 0xA0 SHL SUB AND DUP2 MSTORE PUSH1 0x20 SWAP1 RETURN JUMPDEST POP DUP1 REVERT JUMPDEST DUP3 CALLVALUE PUSH2 0x247 JUMPI DUP1 PUSH1 0x3 NOT CALLDATASIZE ADD SLT PUSH2 0x247 JUMPI PUSH2 0x205 PUSH1 0x1 DUP1 PUSH1 0xA0 SHL SUB PUSH1 0x3 SLOAD AND CALLER EQ PUSH2 0x125B JUMP JUMPDEST PUSH12 0xFFFFFFFFFFFFFFFFFFFFFFFF PUSH1 0xA0 SHL PUSH1 0x6 SLOAD AND PUSH1 0x6 SSTORE DUP1 PUSH1 0x7 SSTORE PUSH32 0x7A81C642828249AE51A34CF52E35EBBF08BD3CB36FB5A4B4C8E80261893F5B81 DUP2 DUP1 LOG1 DUP1 RETURN JUMPDEST DUP1 REVERT JUMPDEST POP CALLVALUE PUSH2 0x1DB JUMPI DUP2 PUSH1 0x3 NOT CALLDATASIZE ADD SLT PUSH2 0x1DB JUMPI PUSH1 0x2 SLOAD SWAP1 MLOAD PUSH1 0x1 PUSH1 0x1 PUSH1 0xA0 SHL SUB SWAP1 SWAP2 AND DUP2 MSTORE PUSH1 0x20 SWAP1 RETURN JUMPDEST SWAP1 POP CALLVALUE PUSH2 0x2A9 JUMPI PUSH1 0x20 CALLDATASIZE PUSH1 0x3 NOT ADD SLT PUSH2 0x2A9 JUMPI CALLDATALOAD SWAP2 PUSH1 0x1 SLOAD DUP4 LT ISZERO PUSH2 0x247 JUMPI POP PUSH1 0x1 PUSH2 0x29F PUSH1 0x20 SWAP4 PUSH2 0x117E JUMP JUMPDEST POP ADD SLOAD SWAP1 MLOAD SWAP1 DUP2 MSTORE RETURN JUMPDEST DUP3 DUP1 REVERT JUMPDEST SWAP1 POP CALLVALUE PUSH2 0x2A9 JUMPI PUSH1 0x20 CALLDATASIZE PUSH1 0x3 NOT ADD SLT PUSH2 0x2A9 JUMPI CALLDATALOAD PUSH1 0x3 DUP2 LT ISZERO PUSH2 0x2A9 JUMPI PUSH1 0x20 SWAP3 POP PUSH1 0x9 ADD SLOAD SWAP1 MLOAD SWAP1 DUP2 MSTORE RETURN JUMPDEST POP POP CALLVALUE PUSH2 0x1DB JUMPI DUP2 PUSH1 0x3 NOT CALLDATASIZE ADD SLT PUSH2 0x1DB JUMPI PUSH1 0x20 SWAP1 PUSH1 0xC SLOAD SWAP1 MLOAD SWAP1 DUP2 MSTORE RETURN JUMPDEST POP POP CALLVALUE PUSH2 0x1DB JUMPI DUP2 PUSH1 0x3 NOT CALLDATASIZE ADD SLT PUSH2 0x1DB JUMPI PUSH1 0x20 SWAP1 PUSH1 0x7 SLOAD SWAP1 MLOAD SWAP1 DUP2 MSTORE RETURN JUMPDEST SWAP2 SWAP1 POP CALLVALUE PUSH2 0x2A9 JUMPI PUSH1 0x20 CALLDATASIZE PUSH1 0x3 NOT ADD SLT PUSH2 0x2A9 JUMPI DUP2 CALLDATALOAD SWAP2 PUSH2 0x343 PUSH1 0x1 DUP1 PUSH1 0xA0 SHL SUB PUSH1 0x2 SLOAD AND CALLER EQ PUSH2 0x11CE JUMP JUMPDEST DUP3 ISZERO PUSH2 0x39F JUMPI POP PUSH32 0xA9F6EF469A02717105903BBCE25C47A4DB6A0D759D929C5CD9BF295A7033B174 SWAP2 PUSH2 0x399 SWAP2 PUSH2 0x37E PUSH1 0xE SLOAD DUP4 LT ISZERO PUSH2 0x1BDA JUMP JUMPDEST PUSH1 0xD DUP3 SWAP1 SSTORE MLOAD CALLER DUP2 MSTORE PUSH1 0x20 DUP2 ADD SWAP2 SWAP1 SWAP2 MSTORE SWAP1 DUP2 SWAP1 PUSH1 0x40 DUP3 ADD SWAP1 JUMP JUMPDEST SUB SWAP1 LOG1 DUP1 RETURN JUMPDEST PUSH1 0x20 PUSH1 0x84 SWAP3 MLOAD SWAP2 PUSH3 0x461BCD PUSH1 0xE5 SHL DUP4 MSTORE DUP3 ADD MSTORE PUSH1 0x23 PUSH1 0x24 DUP3 ADD MSTORE PUSH32 0x546865206D617869756D206265742076616C7565206772656174657220746861 PUSH1 0x44 DUP3 ADD MSTORE PUSH3 0x6E203 PUSH1 0xEC SHL PUSH1 0x64 DUP3 ADD MSTORE REVERT JUMPDEST SWAP1 POP CALLVALUE PUSH2 0x2A9 JUMPI PUSH1 0x20 CALLDATASIZE PUSH1 0x3 NOT ADD SLT PUSH2 0x2A9 JUMPI CALLDATALOAD PUSH1 0x1 PUSH1 0x1 PUSH1 0xA0 SHL SUB DUP2 AND SWAP1 DUP2 SWAP1 SUB PUSH2 0x2A9 JUMPI DUP3 DUP3 SWAP2 PUSH1 0x20 SWAP5 MSTORE PUSH1 0x13 DUP5 MSTORE KECCAK256 SLOAD SWAP1 MLOAD SWAP1 DUP2 MSTORE RETURN JUMPDEST POP POP CALLVALUE PUSH2 0x1DB JUMPI DUP2 PUSH1 0x3 NOT CALLDATASIZE ADD SLT PUSH2 0x1DB JUMPI PUSH1 0x20 SWAP1 PUSH1 0x5 SLOAD SWAP1 MLOAD SWAP1 DUP2 MSTORE RETURN JUMPDEST DUP4 DUP4 CALLVALUE PUSH2 0x1DB JUMPI DUP2 PUSH1 0x3 NOT CALLDATASIZE ADD SLT PUSH2 0x1DB JUMPI PUSH1 0x2 SLOAD PUSH1 0x1 PUSH1 0x1 PUSH1 0xA0 SHL SUB SWAP2 SWAP1 PUSH2 0x472 CALLER DUP5 DUP4 AND EQ PUSH2 0x11CE JUMP JUMPDEST DUP5 SLOAD SWAP3 DUP4 AND SWAP3 PUSH2 0x483 DUP5 ISZERO ISZERO PUSH2 0x1CEA JUMP JUMPDEST PUSH1 0x5 SLOAD PUSH2 0x491 DUP2 ISZERO ISZERO PUSH2 0x1CEA JUMP JUMPDEST PUSH3 0x3F480 DUP2 ADD DUP1 SWAP2 GT PUSH2 0x4F3 JUMPI PUSH32 0x7CE7EC0B50378FB6C0186FFB5F48325F6593FCB4CA4386F21861AF3129188F5C SWAP5 SWAP3 PUSH1 0x20 SWAP5 SWAP3 PUSH2 0x4D2 DUP10 SWAP4 TIMESTAMP LT ISZERO PUSH2 0x1C8D JUMP JUMPDEST PUSH1 0x1 PUSH1 0x1 PUSH1 0xA0 SHL SUB NOT SWAP2 DUP3 AND DUP6 OR PUSH1 0x2 SSTORE AND SWAP1 SSTORE PUSH1 0x5 DUP6 SWAP1 SSTORE MLOAD SWAP1 DUP2 MSTORE LOG1 DUP1 RETURN JUMPDEST PUSH4 0x4E487B71 PUSH1 0xE0 SHL DUP7 MSTORE PUSH1 0x11 DUP8 MSTORE PUSH1 0x24 DUP7 REVERT JUMPDEST POP POP CALLVALUE PUSH2 0x1DB JUMPI DUP2 PUSH1 0x3 NOT CALLDATASIZE ADD SLT PUSH2 0x1DB JUMPI PUSH1 0x20 SWAP1 PUSH1 0xFF PUSH1 0x12 SLOAD AND SWAP1 MLOAD SWAP1 ISZERO ISZERO DUP2 MSTORE RETURN JUMPDEST POP POP CALLVALUE PUSH2 0x1DB JUMPI DUP2 PUSH1 0x3 NOT CALLDATASIZE ADD SLT PUSH2 0x1DB JUMPI PUSH1 0x20 SWAP1 MLOAD PUSH32 0x0 DUP2 MSTORE RETURN JUMPDEST DUP4 CALLVALUE PUSH2 0x247 JUMPI DUP1 PUSH1 0x3 NOT CALLDATASIZE ADD SLT PUSH2 0x247 JUMPI PUSH2 0x58B PUSH1 0x1 DUP1 PUSH1 0xA0 SHL SUB PUSH1 0x3 SLOAD AND CALLER EQ PUSH2 0x125B JUMP JUMPDEST DUP1 PUSH1 0x8 SSTORE PUSH32 0x94A9B8FB6E694C6C0FBEE0E13E1C5B9AE2DDA4395E3495228A46DC717617C6FA DUP2 DUP1 LOG1 DUP1 RETURN JUMPDEST DUP4 SWAP2 POP CALLVALUE PUSH2 0x1DB JUMPI DUP2 PUSH1 0x3 NOT CALLDATASIZE ADD SLT PUSH2 0x1DB JUMPI PUSH1 0x2 SLOAD PUSH1 0x1 PUSH1 0x1 PUSH1 0xA0 SHL SUB SWAP2 SWAP1 PUSH2 0x5E3 SWAP1 DUP4 AND CALLER EQ PUSH2 0x11CE JUMP JUMPDEST PUSH1 0x8 SLOAD PUSH2 0x6E1 JUMPI DUP4 MLOAD DUP1 SWAP3 PUSH4 0x70A08231 PUSH1 0xE0 SHL DUP3 MSTORE ADDRESS DUP4 DUP4 ADD MSTORE DUP2 PUSH1 0x24 PUSH1 0x20 SWAP6 DUP7 SWAP4 PUSH32 0x0 AND GAS STATICCALL SWAP1 DUP2 ISZERO PUSH2 0x6D7 JUMPI DUP5 SWAP2 PUSH2 0x6A6 JUMPI JUMPDEST POP ISZERO PUSH2 0x66D JUMPI POP PUSH32 0xE20350BD5FF90B7BDBCB8229CF46C222A5F5B18F094A1AC5962451445FDA1076 SWAP2 SWAP3 TIMESTAMP PUSH1 0x8 SSTORE MLOAD TIMESTAMP DUP2 MSTORE LOG1 DUP1 RETURN JUMPDEST PUSH1 0x64 SWAP2 DUP5 MLOAD SWAP2 PUSH3 0x461BCD PUSH1 0xE5 SHL DUP4 MSTORE DUP3 ADD MSTORE PUSH1 0x15 PUSH1 0x24 DUP3 ADD MSTORE PUSH21 0x4E6F20746F6B656E7320746F207769746864726177 PUSH1 0x58 SHL PUSH1 0x44 DUP3 ADD MSTORE REVERT JUMPDEST SWAP1 POP DUP3 DUP2 DUP2 RETURNDATASIZE DUP4 GT PUSH2 0x6D0 JUMPI JUMPDEST PUSH2 0x6BD DUP2 DUP4 PUSH2 0x13A8 JUMP JUMPDEST DUP2 ADD SUB SLT PUSH2 0x6CC JUMPI MLOAD DUP6 PUSH2 0x637 JUMP JUMPDEST DUP4 DUP1 REVERT JUMPDEST POP RETURNDATASIZE PUSH2 0x6B3 JUMP JUMPDEST DUP6 MLOAD RETURNDATASIZE DUP7 DUP3 RETURNDATACOPY RETURNDATASIZE SWAP1 REVERT JUMPDEST PUSH1 0x84 SWAP1 PUSH1 0x20 DUP6 MLOAD SWAP2 PUSH3 0x461BCD PUSH1 0xE5 SHL DUP4 MSTORE DUP3 ADD MSTORE PUSH1 0x21 PUSH1 0x24 DUP3 ADD MSTORE PUSH32 0x5769746864726177616C207265717565737420697320696E2070726F67726573 PUSH1 0x44 DUP3 ADD MSTORE PUSH1 0x73 PUSH1 0xF8 SHL PUSH1 0x64 DUP3 ADD MSTORE REVERT JUMPDEST SWAP1 POP CALLVALUE PUSH2 0x2A9 JUMPI PUSH1 0x20 CALLDATASIZE PUSH1 0x3 NOT ADD SLT PUSH2 0x2A9 JUMPI CALLDATALOAD PUSH1 0x3 DUP2 LT ISZERO PUSH2 0x2A9 JUMPI PUSH1 0x20 SWAP3 POP PUSH1 0xF ADD SLOAD SWAP1 MLOAD SWAP1 DUP2 MSTORE RETURN JUMPDEST POP POP CALLVALUE PUSH2 0x1DB JUMPI DUP2 PUSH1 0x3 NOT CALLDATASIZE ADD SLT PUSH2 0x1DB JUMPI PUSH2 0x781 PUSH1 0x1 DUP1 PUSH1 0xA0 SHL SUB PUSH1 0x2 SLOAD AND CALLER EQ PUSH2 0x11CE JUMP JUMPDEST DUP1 MLOAD PUSH2 0x78C DUP2 PUSH2 0x135A JUMP JUMPDEST DUP3 DUP2 MSTORE DUP3 PUSH1 0x20 SWAP3 DUP2 PUSH1 0x20 DUP5 ADD MSTORE DUP3 ADD MSTORE DUP3 JUMPDEST PUSH1 0x3 DUP2 LT PUSH2 0x7D2 JUMPI DUP4 DUP1 PUSH1 0x7 SSTORE PUSH32 0x6B3B6211C28A53F750E60B8522A5BBAAFE92F1174F1DB1DC2FB4F2E5300CA7F0 DUP2 DUP1 LOG1 DUP1 RETURN JUMPDEST DUP2 MLOAD PUSH1 0xFF AND PUSH1 0x9 DUP3 ADD SSTORE SWAP1 DUP3 ADD SWAP1 PUSH1 0x1 ADD PUSH2 0x79E JUMP JUMPDEST SWAP2 SWAP1 POP CALLVALUE PUSH2 0x2A9 JUMPI PUSH1 0x20 CALLDATASIZE PUSH1 0x3 NOT ADD SLT PUSH2 0x2A9 JUMPI DUP2 CALLDATALOAD PUSH1 0x1 PUSH1 0x1 PUSH1 0xA0 SHL SUB DUP2 DUP2 AND SWAP4 SWAP1 SWAP3 SWAP1 DUP5 DUP4 SUB PUSH2 0x886 JUMPI PUSH32 0x72B357B8C271031AAD940E03E51F8C172B495A1DD60D6E902D339C7F49604102 SWAP5 PUSH2 0x848 PUSH2 0x399 SWAP6 PUSH1 0x2 SLOAD AND CALLER EQ PUSH2 0x11CE JUMP JUMPDEST PUSH2 0x853 DUP2 ISZERO ISZERO PUSH2 0x12A7 JUMP JUMPDEST DUP2 SLOAD PUSH1 0x1 PUSH1 0x1 PUSH1 0xA0 SHL SUB NOT AND OR SWAP1 SSTORE TIMESTAMP PUSH1 0x5 DUP2 SWAP1 SSTORE SWAP1 MLOAD PUSH1 0x1 PUSH1 0x1 PUSH1 0xA0 SHL SUB SWAP1 SWAP3 AND DUP3 MSTORE PUSH1 0x20 DUP3 ADD MSTORE SWAP1 DUP2 SWAP1 PUSH1 0x40 DUP3 ADD SWAP1 JUMP JUMPDEST DUP6 DUP1 REVERT JUMPDEST DUP4 DUP4 CALLVALUE PUSH2 0x1DB JUMPI DUP2 PUSH1 0x3 NOT CALLDATASIZE ADD SLT PUSH2 0x1DB JUMPI PUSH1 0x3 SLOAD PUSH1 0x1 PUSH1 0x1 PUSH1 0xA0 SHL SUB SWAP2 SWAP1 PUSH2 0x8B6 CALLER DUP5 DUP4 AND EQ PUSH2 0x125B JUMP JUMPDEST PUSH1 0x6 SLOAD SWAP3 DUP4 AND SWAP3 PUSH2 0x8C8 DUP5 ISZERO ISZERO PUSH2 0x1C41 JUMP JUMPDEST PUSH1 0x7 SLOAD PUSH2 0x8D6 DUP2 ISZERO ISZERO PUSH2 0x1C41 JUMP JUMPDEST PUSH3 0x3F480 DUP2 ADD DUP1 SWAP2 GT PUSH2 0x4F3 JUMPI SWAP2 PUSH1 0x20 SWAP4 SWAP2 PUSH2 0x916 PUSH32 0x1C6520CF747E4632B43B535B91AFE3950CCABC4AB29BBD89E3C1F6B0BA05655 SWAP7 SWAP5 TIMESTAMP LT ISZERO PUSH2 0x1C8D JUMP JUMPDEST PUSH1 0x1 PUSH1 0x1 PUSH1 0xA0 SHL SUB NOT SWAP2 DUP3 AND DUP5 OR PUSH1 0x3 SSTORE AND PUSH1 0x6 SSTORE PUSH1 0x7 DUP6 SWAP1 SSTORE MLOAD SWAP1 DUP2 MSTORE LOG1 DUP1 RETURN JUMPDEST POP POP CALLVALUE PUSH2 0x1DB JUMPI DUP2 PUSH1 0x3 NOT CALLDATASIZE ADD SLT PUSH2 0x1DB JUMPI PUSH1 0x20 SWAP1 PUSH1 0xD SLOAD SWAP1 MLOAD SWAP1 DUP2 MSTORE RETURN JUMPDEST POP POP CALLVALUE PUSH2 0x1DB JUMPI DUP2 PUSH1 0x3 NOT CALLDATASIZE ADD SLT PUSH2 0x1DB JUMPI PUSH1 0x6 SLOAD SWAP1 MLOAD PUSH1 0x1 PUSH1 0x1 PUSH1 0xA0 SHL SUB SWAP1 SWAP2 AND DUP2 MSTORE PUSH1 0x20 SWAP1 RETURN JUMPDEST POP POP CALLVALUE PUSH2 0x1DB JUMPI DUP2 PUSH1 0x3 NOT CALLDATASIZE ADD SLT PUSH2 0x1DB JUMPI PUSH1 0x20 PUSH32 0x46A289A85516D6B63CEC7F685E3F5398070F9FC5FB8E3D14021ADD023FEC568F SWAP2 PUSH2 0x9CB PUSH1 0x1 DUP1 PUSH1 0xA0 SHL SUB PUSH1 0x3 SLOAD AND CALLER EQ PUSH2 0x125B JUMP JUMPDEST PUSH1 0x1 PUSH1 0xFF NOT PUSH1 0x12 SLOAD AND OR PUSH1 0x12 SSTORE MLOAD CALLER DUP2 MSTORE LOG1 DUP1 RETURN JUMPDEST SWAP2 SWAP1 POP CALLVALUE PUSH2 0x2A9 JUMPI PUSH1 0x20 CALLDATASIZE PUSH1 0x3 NOT ADD SLT PUSH2 0x2A9 JUMPI DUP2 CALLDATALOAD SWAP2 PUSH2 0xA0C PUSH1 0x1 DUP1 PUSH1 0xA0 SHL SUB PUSH1 0x2 SLOAD AND CALLER EQ PUSH2 0x11CE JUMP JUMPDEST DUP3 ISZERO PUSH2 0xA62 JUMPI POP DUP2 PUSH2 0x399 SWAP2 PUSH2 0xA47 PUSH32 0x96FD935283EBE139EFF1231BA7E60B91334B7E1E1C67C91C68B58F8D4A7B211F SWAP5 PUSH1 0xD SLOAD LT ISZERO PUSH2 0x1BDA JUMP JUMPDEST PUSH1 0xE DUP3 SWAP1 SSTORE MLOAD CALLER DUP2 MSTORE PUSH1 0x20 DUP2 ADD SWAP2 SWAP1 SWAP2 MSTORE SWAP1 DUP2 SWAP1 PUSH1 0x40 DUP3 ADD SWAP1 JUMP JUMPDEST PUSH1 0x20 PUSH1 0x84 SWAP3 MLOAD SWAP2 PUSH3 0x461BCD PUSH1 0xE5 SHL DUP4 MSTORE DUP3 ADD MSTORE PUSH1 0x23 PUSH1 0x24 DUP3 ADD MSTORE PUSH32 0x546865206D696E69756D206265742076616C7565206772656174657220746861 PUSH1 0x44 DUP3 ADD MSTORE PUSH3 0x6E203 PUSH1 0xEC SHL PUSH1 0x64 DUP3 ADD MSTORE REVERT JUMPDEST SWAP1 POP CALLVALUE PUSH2 0x2A9 JUMPI PUSH1 0x60 CALLDATASIZE PUSH1 0x3 NOT ADD SLT PUSH2 0x2A9 JUMPI DUP1 CALLDATALOAD PUSH1 0x24 CALLDATALOAD SWAP2 PUSH1 0x44 CALLDATALOAD SWAP1 PUSH2 0xAE2 PUSH1 0x1 DUP1 PUSH1 0xA0 SHL SUB PUSH1 0x2 SLOAD AND CALLER EQ PUSH2 0x11CE JUMP JUMPDEST DUP4 DUP4 EQ ISZERO DUP1 PUSH2 0xC17 JUMPI JUMPDEST DUP1 PUSH2 0xC0D JUMPI JUMPDEST ISZERO PUSH2 0xBCA JUMPI DUP3 ISZERO ISZERO DUP1 PUSH2 0xBC1 JUMPI JUMPDEST DUP1 PUSH2 0xBB8 JUMPI JUMPDEST ISZERO PUSH2 0xB75 JUMPI POP DUP4 MLOAD SWAP2 PUSH2 0xB18 DUP4 PUSH2 0x135A JUMP JUMPDEST DUP3 MSTORE PUSH1 0x20 SWAP3 PUSH1 0x20 DUP4 ADD MSTORE DUP4 DUP3 ADD MSTORE DUP4 JUMPDEST PUSH1 0x3 DUP2 LT PUSH2 0xB62 JUMPI DUP5 PUSH32 0x9C812434A88877C411E67ADD81A31B539D84C530E2B1C560720763D8E490D94B DUP6 TIMESTAMP PUSH1 0xC SSTORE MLOAD DUP1 PUSH2 0x399 DUP2 PUSH2 0x13CA JUMP JUMPDEST DUP2 MLOAD PUSH1 0x9 DUP3 ADD SSTORE SWAP1 DUP3 ADD SWAP1 PUSH1 0x1 ADD PUSH2 0xB28 JUMP JUMPDEST PUSH1 0x64 SWAP1 PUSH1 0x20 DUP7 MLOAD SWAP2 PUSH3 0x461BCD PUSH1 0xE5 SHL DUP4 MSTORE DUP3 ADD MSTORE PUSH1 0x20 PUSH1 0x24 DUP3 ADD MSTORE PUSH32 0x53656564207265656C206D7573742062652067726561746572207468616E2030 PUSH1 0x44 DUP3 ADD MSTORE REVERT JUMPDEST POP DUP2 ISZERO ISZERO PUSH2 0xB06 JUMP JUMPDEST POP DUP4 ISZERO ISZERO PUSH2 0xB00 JUMP JUMPDEST PUSH1 0x64 SWAP1 PUSH1 0x20 DUP7 MLOAD SWAP2 PUSH3 0x461BCD PUSH1 0xE5 SHL DUP4 MSTORE DUP3 ADD MSTORE PUSH1 0x20 PUSH1 0x24 DUP3 ADD MSTORE PUSH32 0x416C6C2074687265652073656564206D75737420626520646966666572656E74 PUSH1 0x44 DUP3 ADD MSTORE REVERT JUMPDEST POP DUP2 DUP4 EQ ISZERO PUSH2 0xAF2 JUMP JUMPDEST POP DUP2 DUP5 EQ ISZERO PUSH2 0xAEC JUMP JUMPDEST POP POP CALLVALUE PUSH2 0x1DB JUMPI DUP2 PUSH1 0x3 NOT CALLDATASIZE ADD SLT PUSH2 0x1DB JUMPI PUSH1 0x3 SLOAD SWAP1 MLOAD PUSH1 0x1 PUSH1 0x1 PUSH1 0xA0 SHL SUB SWAP1 SWAP2 AND DUP2 MSTORE PUSH1 0x20 SWAP1 RETURN JUMPDEST DUP4 SWAP1 CALLVALUE PUSH2 0x1DB JUMPI PUSH1 0x60 CALLDATASIZE PUSH1 0x3 NOT ADD SLT PUSH2 0x1DB JUMPI PUSH1 0x44 CALLDATALOAD SWAP1 PUSH8 0xFFFFFFFFFFFFFFFF SWAP1 DUP2 DUP4 GT PUSH2 0x6CC JUMPI CALLDATASIZE PUSH1 0x23 DUP5 ADD SLT ISZERO PUSH2 0x6CC JUMPI DUP3 DUP2 ADD CALLDATALOAD SWAP2 DUP3 GT PUSH2 0x6CC JUMPI CALLDATASIZE PUSH1 0x24 DUP4 DUP6 ADD ADD GT PUSH2 0x6CC JUMPI PUSH1 0x24 PUSH2 0xCBD SWAP4 PUSH2 0xCA9 PUSH1 0xFF PUSH1 0x12 SLOAD AND ISZERO PUSH2 0x121A JUMP JUMPDEST PUSH2 0xCB1 PUSH2 0x1D36 JUMP JUMPDEST ADD SWAP1 PUSH1 0x24 CALLDATALOAD SWAP1 CALLDATALOAD PUSH2 0x1480 JUMP JUMPDEST PUSH1 0x1 DUP2 SSTORE DUP1 RETURN JUMPDEST POP POP CALLVALUE PUSH2 0x1DB JUMPI DUP2 PUSH1 0x3 NOT CALLDATASIZE ADD SLT PUSH2 0x1DB JUMPI PUSH1 0x20 SWAP1 PUSH1 0x8 SLOAD SWAP1 MLOAD SWAP1 DUP2 MSTORE RETURN JUMPDEST DUP4 DUP4 CALLVALUE PUSH2 0x1DB JUMPI DUP2 PUSH1 0x3 NOT CALLDATASIZE ADD SLT PUSH2 0x1DB JUMPI PUSH2 0xD0A PUSH1 0x1 DUP1 PUSH1 0xA0 SHL SUB PUSH1 0x2 SLOAD AND CALLER EQ PUSH2 0x11CE JUMP JUMPDEST PUSH1 0x9 SWAP3 PUSH1 0x9 SLOAD SWAP1 DUP2 ISZERO ISZERO DUP1 PUSH2 0xE58 JUMPI JUMPDEST DUP1 PUSH2 0xE4D JUMPI JUMPDEST PUSH2 0xD29 SWAP1 PUSH2 0x12E5 JUMP JUMPDEST PUSH1 0xC SLOAD PUSH2 0xD37 DUP2 ISZERO ISZERO PUSH2 0x12E5 JUMP JUMPDEST PUSH3 0x3F480 DUP2 ADD DUP1 SWAP2 GT PUSH2 0xE3A JUMPI TIMESTAMP LT PUSH2 0xDE1 JUMPI POP PUSH1 0x9 SWAP1 DUP4 SWAP1 JUMPDEST PUSH1 0x3 DUP3 LT PUSH2 0xDCA JUMPI POP POP POP DUP1 MLOAD PUSH2 0xD67 DUP2 PUSH2 0x135A JUMP JUMPDEST DUP3 DUP2 MSTORE PUSH1 0x20 SWAP1 DUP4 PUSH1 0x20 DUP3 ADD MSTORE DUP4 DUP4 DUP3 ADD MSTORE SWAP4 DUP4 JUMPDEST PUSH1 0x3 DUP2 LT PUSH2 0xDB5 JUMPI DUP5 PUSH32 0xE89D359024E64CC0ED2FFE1225EF913CA02189157A553DC7134C4AAA2FE5A4F1 DUP6 DUP3 PUSH1 0xC SSTORE MLOAD DUP1 PUSH2 0x399 DUP2 PUSH2 0x13CA JUMP JUMPDEST DUP6 MLOAD PUSH1 0xFF AND DUP3 DUP3 ADD SSTORE SWAP5 DUP3 ADD SWAP5 PUSH1 0x1 ADD PUSH2 0xD7B JUMP JUMPDEST PUSH1 0x1 DUP1 SWAP2 SWAP4 ADD SWAP2 DUP3 SLOAD SWAP4 DUP2 PUSH1 0xF ADD SSTORE ADD SWAP1 SWAP2 PUSH2 0xD51 JUMP JUMPDEST PUSH1 0x84 SWAP1 PUSH1 0x20 DUP5 MLOAD SWAP2 PUSH3 0x461BCD PUSH1 0xE5 SHL DUP4 MSTORE DUP3 ADD MSTORE PUSH1 0x2D PUSH1 0x24 DUP3 ADD MSTORE PUSH32 0x4D75737420776169742033206461797320746F20636F6E6669726D2073656564 PUSH1 0x44 DUP3 ADD MSTORE PUSH13 0x207265656C73206368616E6765 PUSH1 0x98 SHL PUSH1 0x64 DUP3 ADD MSTORE REVERT JUMPDEST PUSH4 0x4E487B71 PUSH1 0xE0 SHL DUP6 MSTORE PUSH1 0x11 DUP3 MSTORE PUSH1 0x24 DUP6 REVERT JUMPDEST POP PUSH1 0xB SLOAD ISZERO ISZERO PUSH2 0xD20 JUMP JUMPDEST POP PUSH1 0xA SLOAD ISZERO ISZERO PUSH2 0xD1A JUMP JUMPDEST SWAP1 POP CALLVALUE PUSH2 0x2A9 JUMPI PUSH1 0x20 CALLDATASIZE PUSH1 0x3 NOT ADD SLT PUSH2 0x2A9 JUMPI PUSH1 0x1 PUSH1 0x1 PUSH1 0xA0 SHL SUB SWAP1 CALLDATALOAD DUP2 DUP2 AND SWAP3 DUP4 DUP3 SUB PUSH2 0xF02 JUMPI PUSH32 0x6C437B1584202B77482374DD2215B75E975B0BE0768B92ED5E4B048B0E109879 SWAP4 PUSH2 0xEBF PUSH2 0x399 SWAP5 PUSH1 0x3 SLOAD AND CALLER EQ PUSH2 0x125B JUMP JUMPDEST PUSH2 0xECA DUP2 ISZERO ISZERO PUSH2 0x12A7 JUMP JUMPDEST PUSH1 0x6 DUP1 SLOAD PUSH1 0x1 PUSH1 0x1 PUSH1 0xA0 SHL SUB NOT AND SWAP2 SWAP1 SWAP2 OR SWAP1 SSTORE TIMESTAMP PUSH1 0x7 DUP2 SWAP1 SSTORE SWAP1 MLOAD PUSH1 0x1 PUSH1 0x1 PUSH1 0xA0 SHL SUB SWAP1 SWAP3 AND DUP3 MSTORE PUSH1 0x20 DUP3 ADD MSTORE SWAP1 DUP2 SWAP1 PUSH1 0x40 DUP3 ADD SWAP1 JUMP JUMPDEST DUP5 DUP1 REVERT JUMPDEST SWAP1 POP CALLVALUE PUSH2 0x2A9 JUMPI DUP3 PUSH1 0x3 NOT CALLDATASIZE ADD SLT PUSH2 0x2A9 JUMPI SLOAD SWAP1 MLOAD PUSH1 0x1 PUSH1 0x1 PUSH1 0xA0 SHL SUB SWAP1 SWAP2 AND DUP2 MSTORE PUSH1 0x20 SWAP2 POP RETURN JUMPDEST POP POP CALLVALUE PUSH2 0x1DB JUMPI DUP2 PUSH1 0x3 NOT CALLDATASIZE ADD SLT PUSH2 0x1DB JUMPI PUSH1 0x20 PUSH32 0xF08396B9FD122C2EF99AEC183D994D39FA54CC25773E4B8A6ED20AD08AEF02C9 SWAP2 PUSH2 0xF79 PUSH1 0x1 DUP1 PUSH1 0xA0 SHL SUB PUSH1 0x3 SLOAD AND CALLER EQ PUSH2 0x125B JUMP JUMPDEST PUSH1 0xFF NOT PUSH1 0x12 SLOAD AND PUSH1 0x12 SSTORE MLOAD CALLER DUP2 MSTORE LOG1 DUP1 RETURN JUMPDEST POP POP CALLVALUE PUSH2 0x1DB JUMPI DUP2 PUSH1 0x3 NOT CALLDATASIZE ADD SLT PUSH2 0x1DB JUMPI PUSH1 0x20 SWAP1 PUSH1 0xE SLOAD SWAP1 MLOAD SWAP1 DUP2 MSTORE RETURN JUMPDEST DUP4 SWAP1 CALLVALUE PUSH2 0x1DB JUMPI DUP2 PUSH1 0x3 NOT CALLDATASIZE ADD SLT PUSH2 0x1DB JUMPI PUSH2 0xFD1 PUSH1 0x1 DUP1 PUSH1 0xA0 SHL SUB PUSH1 0x3 SLOAD AND CALLER EQ PUSH2 0x125B JUMP JUMPDEST DUP1 SLOAD PUSH1 0x1 PUSH1 0x1 PUSH1 0xA0 SHL SUB NOT AND SWAP1 SSTORE PUSH1 0x5 DUP2 SWAP1 SSTORE PUSH32 0x7AD662E4DB36FE46EE1697376F8457B103123C200DE262CA4BAF9F5CAD0A1E8 DUP2 DUP1 LOG1 DUP1 RETURN JUMPDEST DUP4 SWAP2 POP CALLVALUE PUSH2 0x1DB JUMPI PUSH1 0x20 CALLDATASIZE PUSH1 0x3 NOT ADD SLT PUSH2 0x1DB JUMPI PUSH1 0x2 SLOAD DUP2 CALLDATALOAD SWAP2 PUSH1 0x1 PUSH1 0x1 PUSH1 0xA0 SHL SUB SWAP2 PUSH2 0x103B SWAP1 DUP4 AND CALLER EQ PUSH2 0x11CE JUMP JUMPDEST PUSH2 0x1043 PUSH2 0x1D36 JUMP JUMPDEST PUSH2 0x1052 PUSH1 0xFF PUSH1 0x12 SLOAD AND ISZERO PUSH2 0x121A JUMP JUMPDEST PUSH1 0x8 SLOAD DUP1 ISZERO PUSH2 0x1145 JUMPI PUSH3 0x93A80 DUP2 ADD DUP1 SWAP2 GT PUSH2 0xE3A JUMPI TIMESTAMP LT PUSH2 0x10F7 JUMPI POP SWAP3 PUSH2 0x10ED DUP4 SWAP5 PUSH32 0x9AD672D4E7C4892DA934D1051932EBE9EC4B6EC8C3F40D569176DB3E93E5ABE SWAP5 PUSH1 0x8 SSTORE PUSH2 0x10C9 DUP5 DUP3 PUSH1 0x2 SLOAD AND PUSH32 0x0 PUSH2 0x1D8C JUMP JUMPDEST PUSH1 0x2 SLOAD SWAP3 MLOAD SWAP3 AND PUSH1 0x1 PUSH1 0x1 PUSH1 0xA0 SHL SUB AND DUP3 MSTORE PUSH1 0x20 DUP3 ADD SWAP3 SWAP1 SWAP3 MSTORE SWAP1 DUP2 SWAP1 PUSH1 0x40 DUP3 ADD SWAP1 JUMP JUMPDEST SUB SWAP1 LOG1 PUSH1 0x1 DUP2 SSTORE DUP1 RETURN JUMPDEST PUSH1 0x84 SWAP1 PUSH1 0x20 DUP7 MLOAD SWAP2 PUSH3 0x461BCD PUSH1 0xE5 SHL DUP4 MSTORE DUP3 ADD MSTORE PUSH1 0x22 PUSH1 0x24 DUP3 ADD MSTORE PUSH32 0x4D75737420776169742037206461797320746F2077697468647261772066756E PUSH1 0x44 DUP3 ADD MSTORE PUSH2 0x6473 PUSH1 0xF0 SHL PUSH1 0x64 DUP3 ADD MSTORE REVERT JUMPDEST DUP6 MLOAD PUSH3 0x461BCD PUSH1 0xE5 SHL DUP2 MSTORE PUSH1 0x20 DUP2 DUP5 ADD MSTORE PUSH1 0x13 PUSH1 0x24 DUP3 ADD MSTORE PUSH19 0x4E6F2070656E64696E67207769746864726177 PUSH1 0x68 SHL PUSH1 0x44 DUP3 ADD MSTORE PUSH1 0x64 SWAP1 REVERT JUMPDEST PUSH1 0x1 SLOAD DUP2 LT ISZERO PUSH2 0x11B8 JUMPI PUSH1 0x1 PUSH1 0x0 MSTORE PUSH1 0x1 SHL PUSH32 0xB10E2D527612073B26EECDFD717E6A320CF44B4AFAC2B0732D9FCBE2B7FA0CF6 ADD SWAP1 PUSH1 0x0 SWAP1 JUMP JUMPDEST PUSH4 0x4E487B71 PUSH1 0xE0 SHL PUSH1 0x0 MSTORE PUSH1 0x32 PUSH1 0x4 MSTORE PUSH1 0x24 PUSH1 0x0 REVERT JUMPDEST ISZERO PUSH2 0x11D5 JUMPI JUMP JUMPDEST PUSH1 0x40 MLOAD PUSH3 0x461BCD PUSH1 0xE5 SHL DUP2 MSTORE PUSH1 0x20 PUSH1 0x4 DUP3 ADD MSTORE PUSH1 0x1B PUSH1 0x24 DUP3 ADD MSTORE PUSH32 0x4F6E6C792061646D696E2063616E206578656375746520746869730000000000 PUSH1 0x44 DUP3 ADD MSTORE PUSH1 0x64 SWAP1 REVERT JUMPDEST ISZERO PUSH2 0x1221 JUMPI JUMP JUMPDEST PUSH1 0x40 MLOAD PUSH3 0x461BCD PUSH1 0xE5 SHL DUP2 MSTORE PUSH1 0x20 PUSH1 0x4 DUP3 ADD MSTORE PUSH1 0x12 PUSH1 0x24 DUP3 ADD MSTORE PUSH18 0x10DBDB9D1C9858DD081A5CC81B1BD8DAD959 PUSH1 0x72 SHL PUSH1 0x44 DUP3 ADD MSTORE PUSH1 0x64 SWAP1 REVERT JUMPDEST ISZERO PUSH2 0x1262 JUMPI JUMP JUMPDEST PUSH1 0x40 MLOAD PUSH3 0x461BCD PUSH1 0xE5 SHL DUP2 MSTORE PUSH1 0x20 PUSH1 0x4 DUP3 ADD MSTORE PUSH1 0x1E PUSH1 0x24 DUP3 ADD MSTORE PUSH32 0x4F6E6C7920677561726469616E2063616E206578656375746520746869730000 PUSH1 0x44 DUP3 ADD MSTORE PUSH1 0x64 SWAP1 REVERT JUMPDEST ISZERO PUSH2 0x12AE JUMPI JUMP JUMPDEST PUSH1 0x40 MLOAD PUSH3 0x461BCD PUSH1 0xE5 SHL DUP2 MSTORE PUSH1 0x20 PUSH1 0x4 DUP3 ADD MSTORE PUSH1 0xF PUSH1 0x24 DUP3 ADD MSTORE PUSH15 0x496E76616C69642061646472657373 PUSH1 0x88 SHL PUSH1 0x44 DUP3 ADD MSTORE PUSH1 0x64 SWAP1 REVERT JUMPDEST ISZERO PUSH2 0x12EC JUMPI JUMP JUMPDEST PUSH1 0x40 MLOAD PUSH3 0x461BCD PUSH1 0xE5 SHL DUP2 MSTORE PUSH1 0x20 PUSH1 0x4 DUP3 ADD MSTORE PUSH1 0x1C PUSH1 0x24 DUP3 ADD MSTORE PUSH32 0x4E6F2070656E64696E672073656564207265656C73206368616E676500000000 PUSH1 0x44 DUP3 ADD MSTORE PUSH1 0x64 SWAP1 REVERT JUMPDEST DUP2 DUP2 MUL SWAP3 SWAP2 DUP2 ISZERO SWAP2 DUP5 DIV EQ OR ISZERO PUSH2 0x1344 JUMPI JUMP JUMPDEST PUSH4 0x4E487B71 PUSH1 0xE0 SHL PUSH1 0x0 MSTORE PUSH1 0x11 PUSH1 0x4 MSTORE PUSH1 0x24 PUSH1 0x0 REVERT JUMPDEST PUSH1 0x60 DUP2 ADD SWAP1 DUP2 LT PUSH8 0xFFFFFFFFFFFFFFFF DUP3 GT OR PUSH2 0x1376 JUMPI PUSH1 0x40 MSTORE JUMP JUMPDEST PUSH4 0x4E487B71 PUSH1 0xE0 SHL PUSH1 0x0 MSTORE PUSH1 0x41 PUSH1 0x4 MSTORE PUSH1 0x24 PUSH1 0x0 REVERT JUMPDEST PUSH1 0xA0 DUP2 ADD SWAP1 DUP2 LT PUSH8 0xFFFFFFFFFFFFFFFF DUP3 GT OR PUSH2 0x1376 JUMPI PUSH1 0x40 MSTORE JUMP JUMPDEST SWAP1 PUSH1 0x1F DUP1 NOT SWAP2 ADD AND DUP2 ADD SWAP1 DUP2 LT PUSH8 0xFFFFFFFFFFFFFFFF DUP3 GT OR PUSH2 0x1376 JUMPI PUSH1 0x40 MSTORE JUMP JUMPDEST SWAP1 PUSH1 0x60 DUP3 ADD SWAP2 PUSH1 0xF SWAP1 PUSH1 0x0 SWAP1 JUMPDEST PUSH1 0x3 DUP3 LT PUSH2 0x13E4 JUMPI POP POP POP JUMP JUMPDEST PUSH1 0x1 PUSH1 0x20 DUP2 SWAP3 DUP6 SLOAD DUP2 MSTORE ADD SWAP4 ADD SWAP2 ADD SWAP1 SWAP2 PUSH2 0x13D7 JUMP JUMPDEST MLOAD PUSH1 0x9 DUP2 LT ISZERO PUSH2 0x1407 JUMPI SWAP1 JUMP JUMPDEST PUSH4 0x4E487B71 PUSH1 0xE0 SHL PUSH1 0x0 MSTORE PUSH1 0x21 PUSH1 0x4 MSTORE PUSH1 0x24 PUSH1 0x0 REVERT JUMPDEST PUSH1 0x1 PUSH1 0x1 PUSH1 0xA0 SHL SUB SWAP1 SWAP2 AND DUP2 MSTORE PUSH1 0xA0 DUP2 ADD SWAP4 SWAP3 SWAP2 PUSH1 0x0 PUSH1 0x20 DUP2 DUP2 DUP6 ADD JUMPDEST PUSH1 0x3 DUP3 LT PUSH2 0x144D JUMPI POP POP POP POP POP PUSH1 0x80 ADD MSTORE JUMP JUMPDEST DUP5 MLOAD PUSH1 0x9 DUP2 LT ISZERO PUSH2 0x146C JUMPI DUP4 DUP3 DUP2 SWAP3 PUSH1 0x1 SWAP5 MSTORE ADD SWAP6 ADD SWAP2 ADD SWAP1 SWAP4 PUSH2 0x143A JUMP JUMPDEST PUSH4 0x4E487B71 PUSH1 0xE0 SHL DUP6 MSTORE PUSH1 0x21 PUSH1 0x4 MSTORE PUSH1 0x24 DUP6 REVERT JUMPDEST SWAP3 SWAP2 SWAP1 SWAP2 PUSH1 0xE SLOAD DUP5 LT PUSH2 0x1B6F JUMPI PUSH1 0xD SLOAD DUP5 GT PUSH2 0x1B2A JUMPI PUSH2 0x14C0 PUSH32 0x0 DUP6 PUSH2 0x1331 JUMP JUMPDEST SWAP4 PUSH32 0x0 SWAP1 PUSH1 0x1 DUP1 PUSH1 0xA0 SHL SUB SWAP3 DUP4 DUP4 AND SWAP7 PUSH1 0x40 SWAP5 DUP6 MLOAD SWAP3 DUP4 SWAP2 PUSH4 0x70A08231 PUSH1 0xE0 SHL SWAP9 DUP10 DUP5 MSTORE PUSH1 0x4 SWAP5 ADDRESS DUP7 DUP7 ADD MSTORE DUP5 DUP14 PUSH1 0x20 SWAP9 DUP10 SWAP2 PUSH1 0x24 SWAP9 DUP10 SWAP2 GAS STATICCALL SWAP1 DUP2 ISZERO PUSH2 0x1B1F JUMPI PUSH1 0x0 SWAP2 PUSH2 0x1AF2 JUMPI JUMPDEST POP LT PUSH2 0x1AB0 JUMPI DUP11 TIMESTAMP LT PUSH2 0x1A6E JUMPI PUSH1 0x3C DUP12 ADD DUP1 DUP13 GT PUSH2 0x1A5A JUMPI TIMESTAMP GT PUSH2 0x1A24 JUMPI CALLER PUSH1 0x0 MSTORE PUSH1 0x13 DUP7 MSTORE DUP9 PUSH1 0x0 KECCAK256 SLOAD DUP12 GT ISZERO PUSH2 0x19E2 JUMPI DUP11 DUP10 DUP1 MLOAD PUSH2 0x1567 DUP2 PUSH2 0x135A JUMP JUMPDEST CALLER DUP2 MSTORE DUP10 DUP10 DUP3 ADD MSTORE ADD MSTORE DUP9 MLOAD DUP7 DUP2 ADD SWAP1 PUSH32 0xE81D1CDF23BDC0A6BEF5035503A1014285A41CC67C1E91E29D9211B707E3CF9 DUP3 MSTORE CALLER DUP12 DUP3 ADD MSTORE DUP9 PUSH1 0x60 DUP3 ADD MSTORE DUP13 PUSH1 0x80 DUP3 ADD MSTORE PUSH1 0x80 DUP2 MSTORE PUSH2 0x15B8 DUP2 PUSH2 0x138C JUMP JUMPDEST MLOAD SWAP1 KECCAK256 DUP10 MLOAD DUP8 DUP2 ADD SWAP2 PUSH2 0x1901 PUSH1 0xF0 SHL DUP4 MSTORE PUSH32 0x0 PUSH1 0x22 DUP4 ADD MSTORE PUSH1 0x42 DUP3 ADD MSTORE PUSH1 0x42 DUP2 MSTORE PUSH1 0x80 DUP2 ADD DUP2 DUP2 LT PUSH8 0xFFFFFFFFFFFFFFFF DUP3 GT OR PUSH2 0x19CE JUMPI DUP12 MSTORE MLOAD SWAP1 KECCAK256 PUSH2 0x161D DUP5 PUSH2 0x1DCF JUMP JUMPDEST SWAP1 PUSH2 0x162A DUP12 MLOAD SWAP3 DUP4 PUSH2 0x13A8 JUMP JUMPDEST DUP5 DUP3 MSTORE CALLDATASIZE DUP6 DUP5 ADD GT PUSH2 0x1841 JUMPI PUSH1 0x0 DUP9 DUP7 PUSH2 0x1657 SWAP8 PUSH2 0x164F SWAP7 DUP4 DUP8 ADD CALLDATACOPY DUP5 ADD ADD MSTORE PUSH2 0x1FC6 JUMP JUMPDEST SWAP3 SWAP1 SWAP3 PUSH2 0x1FFE JUMP JUMPDEST DUP1 PUSH1 0x2 SLOAD AND SWAP2 AND SUB PUSH2 0x199A JUMPI CALLER PUSH1 0x0 MSTORE PUSH1 0x13 DUP4 MSTORE DUP8 DUP7 PUSH1 0x0 KECCAK256 SSTORE PUSH2 0x16A6 DUP7 MLOAD PUSH4 0x23B872DD PUSH1 0xE0 SHL DUP6 DUP3 ADD MSTORE CALLER DUP4 DUP3 ADD MSTORE ADDRESS PUSH1 0x44 DUP3 ADD MSTORE DUP6 PUSH1 0x64 DUP3 ADD MSTORE PUSH1 0x64 DUP2 MSTORE PUSH2 0x16A0 DUP2 PUSH2 0x138C JUMP JUMPDEST DUP7 PUSH2 0x1DF7 JUMP JUMPDEST PUSH1 0x60 DUP7 MLOAD PUSH2 0x16B3 DUP2 PUSH2 0x135A JUMP JUMPDEST CALLDATASIZE SWAP1 CALLDATACOPY PUSH2 0x16C2 DUP9 PUSH1 0xF SLOAD PUSH2 0x1F68 JUMP JUMPDEST SWAP7 PUSH1 0x10 PUSH2 0x16DD PUSH2 0x16D4 DUP12 PUSH1 0x10 SLOAD PUSH2 0x1F68 JUMP JUMPDEST SWAP11 PUSH1 0x11 SLOAD PUSH2 0x1F68 JUMP JUMPDEST SWAP1 PUSH2 0x16F2 DUP10 MLOAD SWAP11 PUSH2 0x16ED DUP13 PUSH2 0x135A JUMP JUMPDEST PUSH2 0x1F25 JUMP JUMPDEST SWAP11 PUSH1 0x9 SWAP12 DUP13 DUP2 LT ISZERO PUSH2 0x1986 JUMPI SWAP1 PUSH2 0x16ED PUSH2 0x170C SWAP3 DUP14 PUSH2 0x1DEB JUMP JUMPDEST SWAP2 DUP12 DUP4 LT ISZERO PUSH2 0x1972 JUMPI PUSH2 0x1726 SWAP1 PUSH2 0x16ED DUP9 DUP14 ADD SWAP5 DUP6 PUSH2 0x1DEB JUMP JUMPDEST SWAP2 DUP12 DUP4 LT ISZERO PUSH2 0x1972 JUMPI SWAP2 DUP7 SWAP6 SWAP5 SWAP4 SWAP3 DUP12 SWAP3 SWAP13 PUSH2 0x1745 DUP13 DUP6 ADD SWAP4 DUP5 PUSH2 0x1DEB JUMP JUMPDEST PUSH1 0x0 SWAP14 DUP15 SWAP4 PUSH1 0x1 SWAP6 PUSH1 0x1 SLOAD SWAP6 SWAP1 JUMPDEST DUP7 DUP3 LT PUSH2 0x1858 JUMPI JUMPDEST POP POP POP POP POP POP POP POP DUP8 MLOAD SWAP11 DUP12 SWAP4 DUP5 SWAP3 DUP4 MSTORE ADDRESS SWAP1 DUP4 ADD MSTORE GAS STATICCALL SWAP1 DUP2 ISZERO PUSH2 0x184D JUMPI PUSH1 0x0 SWAP2 PUSH2 0x17FA JUMPI JUMPDEST POP PUSH32 0xD72E31F1D3EB925A37A1E52E74189CBC3BC8CA2290FBAB21EBA1D59EBE556040 SWAP7 POP DUP6 GT PUSH2 0x17DD JUMPI POP SWAP1 PUSH2 0x17C6 SWAP2 DUP5 DUP1 PUSH2 0x17CB JUMPI JUMPDEST POP POP MLOAD SWAP3 DUP4 SWAP3 CALLER DUP5 PUSH2 0x141D JUMP JUMPDEST SUB SWAP1 LOG1 JUMP JUMPDEST PUSH2 0x17D6 SWAP2 CALLER SWAP1 PUSH2 0x1D8C JUMP JUMPDEST CODESIZE DUP5 PUSH2 0x17B9 JUMP JUMPDEST SWAP4 POP SWAP1 PUSH2 0x17EF DUP5 PUSH2 0x17C6 SWAP4 CALLER SWAP1 PUSH2 0x1D8C JUMP JUMPDEST MLOAD SWAP3 DUP4 SWAP3 CALLER DUP5 PUSH2 0x141D JUMP JUMPDEST SWAP1 POP DUP7 DUP2 RETURNDATASIZE DUP4 GT PUSH2 0x1846 JUMPI JUMPDEST PUSH2 0x1810 DUP2 DUP4 PUSH2 0x13A8 JUMP JUMPDEST DUP2 ADD SUB SLT PUSH2 0x1841 JUMPI PUSH32 0xD72E31F1D3EB925A37A1E52E74189CBC3BC8CA2290FBAB21EBA1D59EBE556040 SWAP6 MLOAD CODESIZE PUSH2 0x1782 JUMP JUMPDEST PUSH1 0x0 DUP1 REVERT JUMPDEST POP RETURNDATASIZE PUSH2 0x1806 JUMP JUMPDEST DUP5 MLOAD RETURNDATASIZE PUSH1 0x0 DUP3 RETURNDATACOPY RETURNDATASIZE SWAP1 REVERT JUMPDEST PUSH2 0x186C SWAP2 SWAP3 SWAP4 SWAP5 SWAP6 SWAP7 SWAP8 SWAP9 SWAP10 SWAP11 SWAP12 POP PUSH2 0x13FA JUMP JUMPDEST PUSH2 0x1875 DUP3 PUSH2 0x117E JUMP JUMPDEST POP SWAP1 PUSH1 0xFF DUP1 SWAP3 SLOAD AND SWAP1 DUP7 DUP3 LT ISZERO PUSH2 0x195E JUMPI DUP7 DUP2 LT ISZERO PUSH2 0x195E JUMPI EQ SWAP1 DUP2 PUSH2 0x192B JUMPI JUMPDEST DUP2 PUSH2 0x18E5 JUMPI JUMPDEST POP PUSH2 0x18B4 JUMPI DUP7 ADD SWAP1 DUP11 SWAP10 SWAP9 SWAP8 SWAP7 SWAP6 SWAP5 SWAP4 SWAP3 SWAP2 DUP16 PUSH2 0x1753 JUMP JUMPDEST SWAP3 POP POP POP DUP8 SWAP7 SWAP6 SWAP5 SWAP13 POP PUSH2 0x18D7 SWAP4 SWAP3 POP PUSH2 0x18CE SWAP2 POP PUSH2 0x117E JUMP JUMPDEST POP ADD SLOAD DUP7 PUSH2 0x1331 JUMP JUMPDEST SWAP9 CODESIZE DUP1 DUP1 DUP1 DUP1 DUP1 DUP1 DUP16 PUSH2 0x175B JUMP JUMPDEST SWAP1 POP PUSH2 0x18F0 DUP4 PUSH2 0x13FA JUMP JUMPDEST SWAP1 PUSH2 0x18FA DUP4 PUSH2 0x117E JUMP JUMPDEST POP SLOAD DUP6 SHR AND SWAP1 DUP6 DUP3 LT ISZERO PUSH2 0x1917 JUMPI DUP6 DUP2 LT ISZERO PUSH2 0x1917 JUMPI EQ CODESIZE PUSH2 0x189C JUMP JUMPDEST DUP11 PUSH1 0x21 DUP14 PUSH4 0x4E487B71 PUSH1 0xE0 SHL PUSH1 0x0 MSTORE MSTORE PUSH1 0x0 REVERT JUMPDEST SWAP1 POP PUSH2 0x1936 DUP7 PUSH2 0x13FA JUMP JUMPDEST DUP2 PUSH2 0x1940 DUP5 PUSH2 0x117E JUMP JUMPDEST POP SLOAD PUSH1 0x8 SHR AND SWAP1 DUP7 DUP3 LT ISZERO PUSH2 0x195E JUMPI DUP7 DUP2 LT ISZERO PUSH2 0x195E JUMPI EQ SWAP1 PUSH2 0x1896 JUMP JUMPDEST DUP12 PUSH1 0x21 DUP15 PUSH4 0x4E487B71 PUSH1 0xE0 SHL PUSH1 0x0 MSTORE MSTORE PUSH1 0x0 REVERT JUMPDEST DUP5 PUSH1 0x21 DUP8 PUSH4 0x4E487B71 PUSH1 0xE0 SHL PUSH1 0x0 MSTORE MSTORE PUSH1 0x0 REVERT JUMPDEST DUP6 PUSH1 0x21 DUP9 PUSH4 0x4E487B71 PUSH1 0xE0 SHL PUSH1 0x0 MSTORE MSTORE PUSH1 0x0 REVERT JUMPDEST PUSH1 0x11 SWAP1 PUSH1 0x64 SWAP4 DUP8 MLOAD SWAP4 PUSH3 0x461BCD PUSH1 0xE5 SHL DUP6 MSTORE DUP5 ADD MSTORE DUP3 ADD MSTORE PUSH17 0x496E76616C6964207369676E6174757265 PUSH1 0x78 SHL PUSH1 0x44 DUP3 ADD MSTORE REVERT JUMPDEST DUP7 PUSH1 0x41 DUP10 PUSH4 0x4E487B71 PUSH1 0xE0 SHL PUSH1 0x0 MSTORE MSTORE PUSH1 0x0 REVERT JUMPDEST DUP9 MLOAD PUSH3 0x461BCD PUSH1 0xE5 SHL DUP2 MSTORE DUP1 DUP7 ADD DUP8 SWAP1 MSTORE PUSH1 0x17 DUP2 DUP7 ADD MSTORE PUSH32 0x54696D657374616D70206D757374206265206E65776572000000000000000000 PUSH1 0x44 DUP3 ADD MSTORE PUSH1 0x64 SWAP1 REVERT JUMPDEST DUP9 MLOAD PUSH3 0x461BCD PUSH1 0xE5 SHL DUP2 MSTORE DUP1 DUP7 ADD DUP8 SWAP1 MSTORE PUSH1 0x11 DUP2 DUP7 ADD MSTORE PUSH17 0x151A5B595CDD185B5C08195E1C1A5C9959 PUSH1 0x7A SHL PUSH1 0x44 DUP3 ADD MSTORE PUSH1 0x64 SWAP1 REVERT JUMPDEST DUP5 PUSH1 0x11 DUP8 PUSH4 0x4E487B71 PUSH1 0xE0 SHL PUSH1 0x0 MSTORE MSTORE PUSH1 0x0 REVERT JUMPDEST DUP9 MLOAD PUSH3 0x461BCD PUSH1 0xE5 SHL DUP2 MSTORE DUP1 DUP7 ADD DUP8 SWAP1 MSTORE PUSH1 0x19 DUP2 DUP7 ADD MSTORE PUSH32 0x54696D657374616D702066726F6D207468652066757475726500000000000000 PUSH1 0x44 DUP3 ADD MSTORE PUSH1 0x64 SWAP1 REVERT JUMPDEST DUP9 MLOAD PUSH3 0x461BCD PUSH1 0xE5 SHL DUP2 MSTORE DUP1 DUP7 ADD DUP8 SWAP1 MSTORE PUSH1 0x1F DUP2 DUP7 ADD MSTORE PUSH32 0x436F6E74726163742068617320696E73756666696369656E742066756E647300 PUSH1 0x44 DUP3 ADD MSTORE PUSH1 0x64 SWAP1 REVERT JUMPDEST SWAP1 POP DUP8 DUP2 DUP2 RETURNDATASIZE DUP4 GT PUSH2 0x1B18 JUMPI JUMPDEST PUSH2 0x1B09 DUP2 DUP4 PUSH2 0x13A8 JUMP JUMPDEST DUP2 ADD SUB SLT PUSH2 0x1841 JUMPI MLOAD CODESIZE PUSH2 0x1528 JUMP JUMPDEST POP RETURNDATASIZE PUSH2 0x1AFF JUMP JUMPDEST DUP12 MLOAD RETURNDATASIZE PUSH1 0x0 DUP3 RETURNDATACOPY RETURNDATASIZE SWAP1 REVERT JUMPDEST PUSH1 0x40 MLOAD PUSH3 0x461BCD PUSH1 0xE5 SHL DUP2 MSTORE PUSH1 0x20 PUSH1 0x4 DUP3 ADD MSTORE PUSH1 0x19 PUSH1 0x24 DUP3 ADD MSTORE PUSH32 0x4265742065786365656473206D6178696D756D206C696D697400000000000000 PUSH1 0x44 DUP3 ADD MSTORE PUSH1 0x64 SWAP1 REVERT JUMPDEST PUSH1 0x40 MLOAD PUSH3 0x461BCD PUSH1 0xE5 SHL DUP2 MSTORE PUSH1 0x20 PUSH1 0x4 DUP3 ADD MSTORE PUSH1 0x3E PUSH1 0x24 DUP3 ADD MSTORE PUSH32 0x5468652062657420616D6F756E74206D75737420626520677265617465722074 PUSH1 0x44 DUP3 ADD MSTORE PUSH32 0x68616E20746865206D696E696D756D2072657175697265642076616C75650000 PUSH1 0x64 DUP3 ADD MSTORE PUSH1 0x84 SWAP1 REVERT JUMPDEST ISZERO PUSH2 0x1BE1 JUMPI JUMP JUMPDEST PUSH1 0x40 MLOAD PUSH3 0x461BCD PUSH1 0xE5 SHL DUP2 MSTORE PUSH1 0x20 PUSH1 0x4 DUP3 ADD MSTORE PUSH1 0x32 PUSH1 0x24 DUP3 ADD MSTORE PUSH32 0x546865206D617869756D206265742076616C7565206772656174657220746861 PUSH1 0x44 DUP3 ADD MSTORE PUSH18 0x6E206D696E69756D206265742076616C7565 PUSH1 0x70 SHL PUSH1 0x64 DUP3 ADD MSTORE PUSH1 0x84 SWAP1 REVERT JUMPDEST ISZERO PUSH2 0x1C48 JUMPI JUMP JUMPDEST PUSH1 0x40 MLOAD PUSH3 0x461BCD PUSH1 0xE5 SHL DUP2 MSTORE PUSH1 0x20 PUSH1 0x4 DUP3 ADD MSTORE PUSH1 0x1A PUSH1 0x24 DUP3 ADD MSTORE PUSH32 0x4E6F2070656E64696E6720677561726469616E206368616E6765000000000000 PUSH1 0x44 DUP3 ADD MSTORE PUSH1 0x64 SWAP1 REVERT JUMPDEST ISZERO PUSH2 0x1C94 JUMPI JUMP JUMPDEST PUSH1 0x40 MLOAD PUSH3 0x461BCD PUSH1 0xE5 SHL DUP2 MSTORE PUSH1 0x20 PUSH1 0x4 DUP3 ADD MSTORE PUSH1 0x28 PUSH1 0x24 DUP3 ADD MSTORE PUSH32 0x4D75737420776169742033206461797320746F20636F6E6669726D2061646D69 PUSH1 0x44 DUP3 ADD MSTORE PUSH8 0x6E206368616E6765 PUSH1 0xC0 SHL PUSH1 0x64 DUP3 ADD MSTORE PUSH1 0x84 SWAP1 REVERT JUMPDEST ISZERO PUSH2 0x1CF1 JUMPI JUMP JUMPDEST PUSH1 0x40 MLOAD PUSH3 0x461BCD PUSH1 0xE5 SHL DUP2 MSTORE PUSH1 0x20 PUSH1 0x4 DUP3 ADD MSTORE PUSH1 0x17 PUSH1 0x24 DUP3 ADD MSTORE PUSH32 0x4E6F2070656E64696E672061646D696E206368616E6765000000000000000000 PUSH1 0x44 DUP3 ADD MSTORE PUSH1 0x64 SWAP1 REVERT JUMPDEST PUSH1 0x2 PUSH1 0x0 SLOAD EQ PUSH2 0x1D47 JUMPI PUSH1 0x2 PUSH1 0x0 SSTORE JUMP JUMPDEST PUSH1 0x40 MLOAD PUSH3 0x461BCD PUSH1 0xE5 SHL DUP2 MSTORE PUSH1 0x20 PUSH1 0x4 DUP3 ADD MSTORE PUSH1 0x1F PUSH1 0x24 DUP3 ADD MSTORE PUSH32 0x5265656E7472616E637947756172643A207265656E7472616E742063616C6C00 PUSH1 0x44 DUP3 ADD MSTORE PUSH1 0x64 SWAP1 REVERT JUMPDEST PUSH1 0x40 MLOAD PUSH4 0xA9059CBB PUSH1 0xE0 SHL PUSH1 0x20 DUP3 ADD MSTORE PUSH1 0x1 PUSH1 0x1 PUSH1 0xA0 SHL SUB SWAP3 SWAP1 SWAP3 AND PUSH1 0x24 DUP4 ADD MSTORE PUSH1 0x44 DUP1 DUP4 ADD SWAP4 SWAP1 SWAP4 MSTORE SWAP2 DUP2 MSTORE PUSH2 0x1DCD SWAP2 PUSH2 0x1DC8 PUSH1 0x64 DUP4 PUSH2 0x13A8 JUMP JUMPDEST PUSH2 0x1DF7 JUMP JUMPDEST JUMP JUMPDEST PUSH8 0xFFFFFFFFFFFFFFFF DUP2 GT PUSH2 0x1376 JUMPI PUSH1 0x1F ADD PUSH1 0x1F NOT AND PUSH1 0x20 ADD SWAP1 JUMP JUMPDEST PUSH1 0x9 DUP3 LT ISZERO PUSH2 0x1407 JUMPI MSTORE JUMP JUMPDEST PUSH1 0x1 DUP1 PUSH1 0xA0 SHL SUB AND SWAP1 PUSH1 0x40 MLOAD PUSH1 0x40 DUP2 ADD SWAP1 DUP1 DUP3 LT PUSH8 0xFFFFFFFFFFFFFFFF DUP4 GT OR PUSH2 0x1376 JUMPI PUSH2 0x1E87 SWAP2 PUSH1 0x40 MSTORE PUSH1 0x20 SWAP4 DUP5 DUP3 MSTORE PUSH32 0x5361666545524332303A206C6F772D6C6576656C2063616C6C206661696C6564 DUP6 DUP4 ADD MSTORE PUSH1 0x0 DUP1 DUP6 DUP8 DUP3 SWAP8 MLOAD SWAP2 ADD DUP3 DUP6 GAS CALL RETURNDATASIZE ISZERO PUSH2 0x1F1D JUMPI RETURNDATASIZE SWAP2 PUSH2 0x1E6C DUP4 PUSH2 0x1DCF JUMP JUMPDEST SWAP3 PUSH2 0x1E7A PUSH1 0x40 MLOAD SWAP5 DUP6 PUSH2 0x13A8 JUMP JUMPDEST DUP4 MSTORE RETURNDATASIZE DUP7 DUP9 DUP6 ADD RETURNDATACOPY PUSH2 0x2191 JUMP JUMPDEST DUP1 MLOAD SWAP2 DUP3 ISZERO SWAP2 DUP5 DUP4 ISZERO PUSH2 0x1EF9 JUMPI JUMPDEST POP POP POP SWAP1 POP ISZERO PUSH2 0x1EA2 JUMPI POP JUMP JUMPDEST PUSH1 0x84 SWAP1 PUSH1 0x40 MLOAD SWAP1 PUSH3 0x461BCD PUSH1 0xE5 SHL DUP3 MSTORE PUSH1 0x4 DUP3 ADD MSTORE PUSH1 0x2A PUSH1 0x24 DUP3 ADD MSTORE PUSH32 0x5361666545524332303A204552433230206F7065726174696F6E20646964206E PUSH1 0x44 DUP3 ADD MSTORE PUSH10 0x1BDD081CDD58D8D95959 PUSH1 0xB2 SHL PUSH1 0x64 DUP3 ADD MSTORE REVERT JUMPDEST SWAP2 SWAP4 DUP2 DUP1 SWAP5 POP ADD SUB SLT PUSH2 0x1DB JUMPI DUP3 ADD MLOAD SWAP1 DUP2 ISZERO ISZERO DUP3 SUB PUSH2 0x247 JUMPI POP DUP1 CODESIZE DUP1 DUP5 PUSH2 0x1E95 JUMP JUMPDEST PUSH1 0x60 SWAP2 PUSH2 0x2191 JUMP JUMPDEST PUSH1 0x0 NOT NUMBER ADD NUMBER DUP2 GT PUSH2 0x1344 JUMPI PUSH1 0x9 SWAP2 PUSH1 0x40 MLOAD SWAP1 PUSH1 0x20 DUP3 ADD SWAP3 CALLER PUSH1 0x60 SHL DUP5 MSTORE BLOCKHASH PUSH1 0x34 DUP4 ADD MSTORE PREVRANDAO PUSH1 0x54 DUP4 ADD MSTORE PUSH1 0x74 DUP3 ADD MSTORE PUSH1 0x74 DUP2 MSTORE PUSH2 0x1F61 DUP2 PUSH2 0x138C JUMP JUMPDEST MLOAD SWAP1 KECCAK256 MOD SWAP1 JUMP JUMPDEST SWAP1 PUSH1 0x0 NOT NUMBER ADD SWAP1 NUMBER DUP3 GT PUSH2 0x1344 JUMPI PUSH1 0x40 MLOAD SWAP1 PUSH1 0x20 DUP3 ADD SWAP3 CALLER PUSH1 0x60 SHL DUP5 MSTORE BLOCKHASH PUSH1 0x34 DUP4 ADD MSTORE PREVRANDAO PUSH1 0x54 DUP4 ADD MSTORE PUSH1 0x74 DUP3 ADD MSTORE PUSH1 0x74 DUP2 MSTORE PUSH2 0x1FA3 DUP2 PUSH2 0x138C JUMP JUMPDEST MLOAD SWAP1 KECCAK256 DUP2 ISZERO PUSH2 0x1FB0 JUMPI MOD SWAP1 JUMP JUMPDEST PUSH4 0x4E487B71 PUSH1 0xE0 SHL PUSH1 0x0 MSTORE PUSH1 0x12 PUSH1 0x4 MSTORE PUSH1 0x24 PUSH1 0x0 REVERT JUMPDEST SWAP1 PUSH1 0x41 DUP2 MLOAD EQ PUSH1 0x0 EQ PUSH2 0x1FF4 JUMPI PUSH2 0x1FF0 SWAP2 PUSH1 0x20 DUP3 ADD MLOAD SWAP1 PUSH1 0x60 PUSH1 0x40 DUP5 ADD MLOAD SWAP4 ADD MLOAD PUSH1 0x0 BYTE SWAP1 PUSH2 0x2102 JUMP JUMPDEST SWAP1 SWAP2 JUMP JUMPDEST POP POP PUSH1 0x0 SWAP1 PUSH1 0x2 SWAP1 JUMP JUMPDEST PUSH1 0x5 DUP2 LT ISZERO PUSH2 0x1407 JUMPI DUP1 PUSH2 0x200F JUMPI POP JUMP JUMPDEST PUSH1 0x1 DUP2 SUB PUSH2 0x205C JUMPI PUSH1 0x40 MLOAD PUSH3 0x461BCD PUSH1 0xE5 SHL DUP2 MSTORE PUSH1 0x20 PUSH1 0x4 DUP3 ADD MSTORE PUSH1 0x18 PUSH1 0x24 DUP3 ADD MSTORE PUSH32 0x45434453413A20696E76616C6964207369676E61747572650000000000000000 PUSH1 0x44 DUP3 ADD MSTORE PUSH1 0x64 SWAP1 REVERT JUMPDEST PUSH1 0x2 DUP2 SUB PUSH2 0x20A9 JUMPI PUSH1 0x40 MLOAD PUSH3 0x461BCD PUSH1 0xE5 SHL DUP2 MSTORE PUSH1 0x20 PUSH1 0x4 DUP3 ADD MSTORE PUSH1 0x1F PUSH1 0x24 DUP3 ADD MSTORE PUSH32 0x45434453413A20696E76616C6964207369676E6174757265206C656E67746800 PUSH1 0x44 DUP3 ADD MSTORE PUSH1 0x64 SWAP1 REVERT JUMPDEST PUSH1 0x3 EQ PUSH2 0x20B2 JUMPI JUMP JUMPDEST PUSH1 0x40 MLOAD PUSH3 0x461BCD PUSH1 0xE5 SHL DUP2 MSTORE PUSH1 0x20 PUSH1 0x4 DUP3 ADD MSTORE PUSH1 0x22 PUSH1 0x24 DUP3 ADD MSTORE PUSH32 0x45434453413A20696E76616C6964207369676E6174757265202773272076616C PUSH1 0x44 DUP3 ADD MSTORE PUSH2 0x7565 PUSH1 0xF0 SHL PUSH1 0x64 DUP3 ADD MSTORE PUSH1 0x84 SWAP1 REVERT JUMPDEST SWAP3 SWAP2 SWAP1 PUSH32 0x7FFFFFFFFFFFFFFFFFFFFFFFFFFFFFFF5D576E7357A4501DDFE92F46681B20A0 DUP4 GT PUSH2 0x2185 JUMPI SWAP2 PUSH1 0x80 SWAP5 SWAP4 SWAP2 PUSH1 0xFF PUSH1 0x20 SWAP5 PUSH1 0x40 MLOAD SWAP5 DUP6 MSTORE AND DUP5 DUP5 ADD MSTORE PUSH1 0x40 DUP4 ADD MSTORE PUSH1 0x60 DUP3 ADD MSTORE PUSH1 0x0 SWAP4 DUP5 SWAP2 DUP3 DUP1 MSTORE PUSH1 0x1 GAS STATICCALL ISZERO PUSH2 0x2178 JUMPI DUP2 MLOAD PUSH1 0x1 PUSH1 0x1 PUSH1 0xA0 SHL SUB DUP2 AND ISZERO PUSH2 0x2172 JUMPI SWAP2 SWAP1 JUMP JUMPDEST POP PUSH1 0x1 SWAP1 JUMP JUMPDEST POP PUSH1 0x40 MLOAD SWAP1 RETURNDATASIZE SWAP1 DUP3 RETURNDATACOPY RETURNDATASIZE SWAP1 REVERT JUMPDEST POP POP POP POP PUSH1 0x0 SWAP1 PUSH1 0x3 SWAP1 JUMP JUMPDEST SWAP2 SWAP3 SWAP1 ISZERO PUSH2 0x21F3 JUMPI POP DUP2 MLOAD ISZERO PUSH2 0x21A5 JUMPI POP SWAP1 JUMP JUMPDEST EXTCODESIZE ISZERO PUSH2 0x21AE JUMPI SWAP1 JUMP JUMPDEST PUSH1 0x40 MLOAD PUSH3 0x461BCD PUSH1 0xE5 SHL DUP2 MSTORE PUSH1 0x20 PUSH1 0x4 DUP3 ADD MSTORE PUSH1 0x1D PUSH1 0x24 DUP3 ADD MSTORE PUSH32 0x416464726573733A2063616C6C20746F206E6F6E2D636F6E7472616374000000 PUSH1 0x44 DUP3 ADD MSTORE PUSH1 0x64 SWAP1 REVERT JUMPDEST DUP3 MLOAD SWAP1 SWAP2 POP ISZERO PUSH2 0x2206 JUMPI POP DUP1 MLOAD SWAP1 PUSH1 0x20 ADD REVERT JUMPDEST PUSH1 0x40 MLOAD SWAP1 PUSH3 0x461BCD PUSH1 0xE5 SHL DUP3 MSTORE DUP2 PUSH1 0x20 DUP1 PUSH1 0x4 DUP4 ADD MSTORE DUP3 MLOAD SWAP1 DUP2 PUSH1 0x24 DUP5 ADD MSTORE PUSH1 0x0 SWAP4 JUMPDEST DUP3 DUP6 LT PUSH2 0x224C JUMPI POP POP PUSH1 0x44 SWAP3 POP PUSH1 0x0 DUP4 DUP3 DUP5 ADD ADD MSTORE PUSH1 0x1F DUP1 NOT SWAP2 ADD AND DUP2 ADD SUB ADD SWAP1 REVERT JUMPDEST DUP5 DUP2 ADD DUP3 ADD MLOAD DUP7 DUP7 ADD PUSH1 0x44 ADD MSTORE SWAP4 DUP2 ADD SWAP4 DUP6 SWAP4 POP PUSH2 0x2229 JUMP INVALID LOG2 PUSH5 0x6970667358 0x22 SLT KECCAK256 SDIV 0xD6 SHR 0xD7 NOT PUSH23 0xF07FD01058BDD9054E33923C612678361D4B915FC07322 SAR SDIV 0x27 PUSH5 0x736F6C6343 STOP ADDMOD XOR STOP CALLER "},"methodIdentifiers":{"admin()":"f851a440","cancelAdminChange()":"1157b267","cancelGuardianChange()":"fb49fe27","cancelSeedReelsChange()":"9734953c","cancelWithdrawFund()":"9e090628","changeMaxBetValue(uint256)":"e065fc93","changeMinBetValue(uint256)":"677660e0","confirmAdminChange()":"a74b6783","confirmChangeGuardian()":"847d1e90","confirmChangeSeedReels()":"2e57d861","guardian()":"452a9320","isLocked()":"a4e2d634","lastTimestamp(address)":"dccfac82","lockContract()":"753868e3","maxBetValue()":"76f084d8","maxRewardMultiply()":"a48158e5","minBetValue()":"116c6fb2","pendingAdmin()":"26782247","pendingAdminChangeTime()":"bff42fe4","pendingGuardian()":"762c31ba","pendingGuardianChangeTime()":"ed3cacc1","pendingSeedReels(uint256)":"f1aaf226","pendingSeedReelsChangeTime()":"ed8bd530","pendingWithdrawFundTime()":"3ab0f330","placeBet(uint256,uint256,bytes)":"4126fb31","requestAdminChange(address)":"8c51d1e4","requestChangeGuardian(address)":"28fc8b68","requestChangeSeedReels(uint256,uint256,uint256)":"56136d89","requestWithdrawFund()":"9d1c35e2","rewards(uint256)":"f301af42","seedReels(uint256)":"9d166de7","token()":"fc0c546a","unlockContract()":"22f0f2f9","withdrawFund(uint256)":"0cee1725"}}}}}