{
  "_format": "hh-sol-artifact-1",
  "contractName": "Baccarat",
  "sourceName": "contracts/Baccarat.sol",
  "abi": [
    {
      "inputs": [
        {
          "internalType": "address",
          "name": "_guardian",
          "type": "address"
        },
        {
          "internalType": "address",
          "name": "_admin",
          "type": "address"
        },
        {
          "internalType": "address",
          "name": "_token",
          "type": "address"
        },
        {
          "internalType": "uint256",
          "name": "_minBetValue",
          "type": "uint256"
        },
        {
          "internalType": "uint256",
          "name": "_maxBetValue",
          "type": "uint256"
        }
      ],
      "stateMutability": "payable",
      "type": "constructor"
    },
    {
      "anonymous": false,
      "inputs": [],
      "name": "AdminChangeCancelled",
      "type": "event"
    },
    {
      "anonymous": false,
      "inputs": [
        {
          "indexed": false,
          "internalType": "address",
          "name": "newAdmin",
          "type": "address"
        },
        {
          "indexed": false,
          "internalType": "uint256",
          "name": "requestTime",
          "type": "uint256"
        }
      ],
      "name": "AdminChangeRequested",
      "type": "event"
    },
    {
      "anonymous": false,
      "inputs": [
        {
          "indexed": false,
          "internalType": "address",
          "name": "newAdmin",
          "type": "address"
        }
      ],
      "name": "AdminChanged",
      "type": "event"
    },
    {
      "anonymous": false,
      "inputs": [
        {
          "indexed": false,
          "internalType": "address",
          "name": "admin",
          "type": "address"
        },
        {
          "indexed": false,
          "internalType": "uint256",
          "name": "maxBetValue",
          "type": "uint256"
        }
      ],
      "name": "ChangedMaxBetValue",
      "type": "event"
    },
    {
      "anonymous": false,
      "inputs": [
        {
          "indexed": false,
          "internalType": "address",
          "name": "admin",
          "type": "address"
        },
        {
          "indexed": false,
          "internalType": "uint256",
          "name": "minBetValue",
          "type": "uint256"
        }
      ],
      "name": "ChangedMinBetValue",
      "type": "event"
    },
    {
      "anonymous": false,
      "inputs": [
        {
          "indexed": false,
          "internalType": "address",
          "name": "by",
          "type": "address"
        }
      ],
      "name": "ContractLocked",
      "type": "event"
    },
    {
      "anonymous": false,
      "inputs": [
        {
          "indexed": false,
          "internalType": "address",
          "name": "by",
          "type": "address"
        }
      ],
      "name": "ContractUnlocked",
      "type": "event"
    },
    {
      "anonymous": false,
      "inputs": [],
      "name": "GuardianChangeCancelled",
      "type": "event"
    },
    {
      "anonymous": false,
      "inputs": [
        {
          "indexed": false,
          "internalType": "address",
          "name": "newGuardian",
          "type": "address"
        },
        {
          "indexed": false,
          "internalType": "uint256",
          "name": "requestTime",
          "type": "uint256"
        }
      ],
      "name": "GuardianChangeRequested",
      "type": "event"
    },
    {
      "anonymous": false,
      "inputs": [
        {
          "indexed": false,
          "internalType": "address",
          "name": "newGuardian",
          "type": "address"
        }
      ],
      "name": "GuardianChanged",
      "type": "event"
    },
    {
      "anonymous": false,
      "inputs": [
        {
          "indexed": false,
          "internalType": "address",
          "name": "from",
          "type": "address"
        },
        {
          "indexed": false,
          "internalType": "uint256",
          "name": "amount",
          "type": "uint256"
        }
      ],
      "name": "Received",
      "type": "event"
    },
    {
      "anonymous": false,
      "inputs": [
        {
          "indexed": false,
          "internalType": "address",
          "name": "user",
          "type": "address"
        },
        {
          "components": [
            {
              "internalType": "uint256",
              "name": "id",
              "type": "uint256"
            },
            {
              "internalType": "uint256",
              "name": "value",
              "type": "uint256"
            }
          ],
          "indexed": false,
          "internalType": "struct Baccarat.Card[3]",
          "name": "playerCards",
          "type": "tuple[3]"
        },
        {
          "components": [
            {
              "internalType": "uint256",
              "name": "id",
              "type": "uint256"
            },
            {
              "internalType": "uint256",
              "name": "value",
              "type": "uint256"
            }
          ],
          "indexed": false,
          "internalType": "struct Baccarat.Card[3]",
          "name": "bankerCards",
          "type": "tuple[3]"
        },
        {
          "indexed": false,
          "internalType": "uint256",
          "name": "wonAmount",
          "type": "uint256"
        },
        {
          "indexed": false,
          "internalType": "uint256",
          "name": "playerScore",
          "type": "uint256"
        },
        {
          "indexed": false,
          "internalType": "uint256",
          "name": "bankerScore",
          "type": "uint256"
        }
      ],
      "name": "Result",
      "type": "event"
    },
    {
      "anonymous": false,
      "inputs": [],
      "name": "WinProbabilityChangeCancelled",
      "type": "event"
    },
    {
      "anonymous": false,
      "inputs": [
        {
          "indexed": false,
          "internalType": "uint256",
          "name": "winProbability",
          "type": "uint256"
        }
      ],
      "name": "WinProbabilityChanged",
      "type": "event"
    },
    {
      "anonymous": false,
      "inputs": [
        {
          "indexed": false,
          "internalType": "uint256",
          "name": "winProbability",
          "type": "uint256"
        }
      ],
      "name": "WinProbabilityRequested",
      "type": "event"
    },
    {
      "anonymous": false,
      "inputs": [
        {
          "indexed": false,
          "internalType": "address",
          "name": "to",
          "type": "address"
        },
        {
          "indexed": false,
          "internalType": "uint256",
          "name": "amount",
          "type": "uint256"
        }
      ],
      "name": "WithdrawFund",
      "type": "event"
    },
    {
      "anonymous": false,
      "inputs": [],
      "name": "WithdrawFundCancelled",
      "type": "event"
    },
    {
      "anonymous": false,
      "inputs": [
        {
          "indexed": false,
          "internalType": "uint256",
          "name": "requestTime",
          "type": "uint256"
        }
      ],
      "name": "WithdrawFundRequested",
      "type": "event"
    },
    {
      "inputs": [],
      "name": "admin",
      "outputs": [
        {
          "internalType": "address",
          "name": "",
          "type": "address"
        }
      ],
      "stateMutability": "view",
      "type": "function"
    },
    {
      "inputs": [],
      "name": "cancelAdminChange",
      "outputs": [],
      "stateMutability": "nonpayable",
      "type": "function"
    },
    {
      "inputs": [],
      "name": "cancelGuardianChange",
      "outputs": [],
      "stateMutability": "nonpayable",
      "type": "function"
    },
    {
      "inputs": [],
      "name": "cancelWinProbabilityChange",
      "outputs": [],
      "stateMutability": "nonpayable",
      "type": "function"
    },
    {
      "inputs": [],
      "name": "cancelWithdrawFund",
      "outputs": [],
      "stateMutability": "nonpayable",
      "type": "function"
    },
    {
      "inputs": [
        {
          "internalType": "uint256",
          "name": "_maxBetValue",
          "type": "uint256"
        }
      ],
      "name": "changeMaxBetValue",
      "outputs": [],
      "stateMutability": "nonpayable",
      "type": "function"
    },
    {
      "inputs": [
        {
          "internalType": "uint256",
          "name": "_minBetValue",
          "type": "uint256"
        }
      ],
      "name": "changeMinBetValue",
      "outputs": [],
      "stateMutability": "nonpayable",
      "type": "function"
    },
    {
      "inputs": [],
      "name": "confirmAdminChange",
      "outputs": [],
      "stateMutability": "nonpayable",
      "type": "function"
    },
    {
      "inputs": [],
      "name": "confirmChangeGuardian",
      "outputs": [],
      "stateMutability": "nonpayable",
      "type": "function"
    },
    {
      "inputs": [],
      "name": "confirmChangeWinProbability",
      "outputs": [],
      "stateMutability": "nonpayable",
      "type": "function"
    },
    {
      "inputs": [],
      "name": "guardian",
      "outputs": [
        {
          "internalType": "address",
          "name": "",
          "type": "address"
        }
      ],
      "stateMutability": "view",
      "type": "function"
    },
    {
      "inputs": [],
      "name": "isLocked",
      "outputs": [
        {
          "internalType": "bool",
          "name": "",
          "type": "bool"
        }
      ],
      "stateMutability": "view",
      "type": "function"
    },
    {
      "inputs": [
        {
          "internalType": "address",
          "name": "",
          "type": "address"
        }
      ],
      "name": "lastTimestamp",
      "outputs": [
        {
          "internalType": "uint256",
          "name": "",
          "type": "uint256"
        }
      ],
      "stateMutability": "view",
      "type": "function"
    },
    {
      "inputs": [],
      "name": "lockContract",
      "outputs": [],
      "stateMutability": "nonpayable",
      "type": "function"
    },
    {
      "inputs": [],
      "name": "maxRewardMultiply",
      "outputs": [
        {
          "internalType": "uint256",
          "name": "",
          "type": "uint256"
        }
      ],
      "stateMutability": "view",
      "type": "function"
    },
    {
      "inputs": [],
      "name": "maxiumBetValue",
      "outputs": [
        {
          "internalType": "uint256",
          "name": "",
          "type": "uint256"
        }
      ],
      "stateMutability": "view",
      "type": "function"
    },
    {
      "inputs": [],
      "name": "miniumBetValue",
      "outputs": [
        {
          "internalType": "uint256",
          "name": "",
          "type": "uint256"
        }
      ],
      "stateMutability": "view",
      "type": "function"
    },
    {
      "inputs": [],
      "name": "pendingAdmin",
      "outputs": [
        {
          "internalType": "address",
          "name": "",
          "type": "address"
        }
      ],
      "stateMutability": "view",
      "type": "function"
    },
    {
      "inputs": [],
      "name": "pendingAdminChangeTime",
      "outputs": [
        {
          "internalType": "uint256",
          "name": "",
          "type": "uint256"
        }
      ],
      "stateMutability": "view",
      "type": "function"
    },
    {
      "inputs": [],
      "name": "pendingGuardian",
      "outputs": [
        {
          "internalType": "address",
          "name": "",
          "type": "address"
        }
      ],
      "stateMutability": "view",
      "type": "function"
    },
    {
      "inputs": [],
      "name": "pendingGuardianChangeTime",
      "outputs": [
        {
          "internalType": "uint256",
          "name": "",
          "type": "uint256"
        }
      ],
      "stateMutability": "view",
      "type": "function"
    },
    {
      "inputs": [],
      "name": "pendingWinProbability",
      "outputs": [
        {
          "internalType": "uint256",
          "name": "",
          "type": "uint256"
        }
      ],
      "stateMutability": "view",
      "type": "function"
    },
    {
      "inputs": [],
      "name": "pendingWinProbabilityChangeTime",
      "outputs": [
        {
          "internalType": "uint256",
          "name": "",
          "type": "uint256"
        }
      ],
      "stateMutability": "view",
      "type": "function"
    },
    {
      "inputs": [],
      "name": "pendingWithdrawFundTime",
      "outputs": [
        {
          "internalType": "uint256",
          "name": "",
          "type": "uint256"
        }
      ],
      "stateMutability": "view",
      "type": "function"
    },
    {
      "inputs": [
        {
          "components": [
            {
              "internalType": "uint256",
              "name": "amount",
              "type": "uint256"
            },
            {
              "internalType": "enum Baccarat.BetType",
              "name": "betType",
              "type": "uint8"
            }
          ],
          "internalType": "struct Baccarat.Bet[]",
          "name": "bets",
          "type": "tuple[]"
        },
        {
          "internalType": "uint256",
          "name": "_amount",
          "type": "uint256"
        },
        {
          "internalType": "uint256",
          "name": "_timestamp",
          "type": "uint256"
        },
        {
          "internalType": "bytes",
          "name": "signature",
          "type": "bytes"
        }
      ],
      "name": "placeBet",
      "outputs": [],
      "stateMutability": "payable",
      "type": "function"
    },
    {
      "inputs": [
        {
          "internalType": "address",
          "name": "newAdmin",
          "type": "address"
        }
      ],
      "name": "requestAdminChange",
      "outputs": [],
      "stateMutability": "nonpayable",
      "type": "function"
    },
    {
      "inputs": [
        {
          "internalType": "address",
          "name": "newGuardian",
          "type": "address"
        }
      ],
      "name": "requestChangeGuardian",
      "outputs": [],
      "stateMutability": "nonpayable",
      "type": "function"
    },
    {
      "inputs": [
        {
          "internalType": "uint256",
          "name": "_winProbability",
          "type": "uint256"
        }
      ],
      "name": "requestChangeWinProbability",
      "outputs": [],
      "stateMutability": "nonpayable",
      "type": "function"
    },
    {
      "inputs": [],
      "name": "requestWithdrawFund",
      "outputs": [],
      "stateMutability": "nonpayable",
      "type": "function"
    },
    {
      "inputs": [],
      "name": "token",
      "outputs": [
        {
          "internalType": "contract IERC20",
          "name": "",
          "type": "address"
        }
      ],
      "stateMutability": "view",
      "type": "function"
    },
    {
      "inputs": [],
      "name": "unlockContract",
      "outputs": [],
      "stateMutability": "nonpayable",
      "type": "function"
    },
    {
      "inputs": [],
      "name": "winProbability",
      "outputs": [
        {
          "internalType": "uint256",
          "name": "",
          "type": "uint256"
        }
      ],
      "stateMutability": "view",
      "type": "function"
    },
    {
      "inputs": [
        {
          "internalType": "uint256",
          "name": "amount",
          "type": "uint256"
        }
      ],
      "name": "withdrawFund",
      "outputs": [],
      "stateMutability": "nonpayable",
      "type": "function"
    }
  ],
  "bytecode": "0x60e06001600160401b03601f62002ce238819003918201601f191684019190838311858410176200048e578160a0928692604095865283398101031262000489576200004b83620004c0565b9260206200005b818301620004c0565b9462000069848401620004c0565b95608060608501519401519360019060009582875560ff19600f5416600f55801562000441578115620003e8578181106200039157859697989960018060a01b0380911660805260018060a01b0319908060029616828754161786556003961690865416178555600a8355600b55600c558651620000e781620004a4565b60089481868093520167109858d8d85c985d60c21b81522097818689516200010f81620004a4565b82815201603160f81b81522098885199878b01917f8b73c3c69bb8fe3d512ecc4cf759cc79239f7b179b0ffacaa9a75d522b39400f83528a8c015260608b01524660808b01523060a08b015260a08a5260c08a01918a8310908311176200037d57918060e08b8285888e818f9e9d9c9a8f908f9d9b84528751902060a052600e60049d8e60c0528280525281838220558581528c83822055528d2055620001b681620004a4565b5201528060105560115580858951620001cf81620004a4565b82815201528060125560135580848851620001ea81620004a4565b828152015280601455601555808387516200020581620004a4565b82815201528060165560175560058286516200022181620004a4565b82815201526005601855600560195560068286516200024081620004a4565b82815201526006601a556006601b5560078286516200025f81620004a4565b82815201526007601c556007601d55808286516200027d81620004a4565b828152015280601e55601f5560098185516200029981620004a4565b828152015260098155600960215581818551620002b681620004a4565b600a81520152600a6022558160235581818551620002d481620004a4565b600b81520152600b6024558160255581818551620002f281620004a4565b600c81520152600c6026558160275583516200030e81620004a4565b600d81520152600d602855602955516127ec9081620004d682396080518181816101a1015281816105d401528181610ee00152818161134e0152818161153c0152818161191f015281816119cf0152611a04015260a0518161144a015260c05181818161050f015261130e0152f35b634e487b7160e01b88526041600452602488fd5b6084868980519162461bcd60e51b83526004830152602482015260008051602062002cc283398151915260448201527f6561746572207468616e20746865206d696e696d756d206265742076616c75656064820152fd5b875162461bcd60e51b815260048101879052602c60248201527f546865206d696e696d756d206265742076616c7565206d75737420626520677260448201526b06561746572207468616e20360a41b6064820152608490fd5b875162461bcd60e51b815260048101879052602c602482015260008051602062002cc283398151915260448201526b06561746572207468616e20360a41b6064820152608490fd5b600080fd5b634e487b7160e01b600052604160045260246000fd5b604081019081106001600160401b038211176200048e57604052565b51906001600160a01b0382168203620004895756fe6040608081526004908136101561001557600080fd5b600091823560e01c9081630cee172514610e445781631157b26714610de35781631617f19014610dc457816322f0f2f914610d675781632678224714610d3f57816328fc8b6814610ca05781633ab0f33014610c81578163452a932014610c585781634addd5f614610c03578163677660e014610b3457816369f2941d14610b1557816371d0008614610a6f578163753868e314610a0f578163762c31ba146109e65781637ce3c6dc14610948578163847d1e901461089a5781638c51d1e4146107f85781639a138974146106fb5781639d1c35e2146105835781639e09062814610532578163a48158e5146104f7578163a4e2d634146104d3578163a74b678314610413578163a9860b97146103f4578163ba8a305c146103d5578163bff42fe4146103b6578163dccfac821461037c578163e065fc93146102a357508063e1d8192c14610285578063ed3cacc114610267578063f851a4401461023f578063fb49fe27146101d45763fc0c546a1461018e57600080fd5b346101d057816003193601126101d057517f00000000000000000000000000000000000000000000000000000000000000006001600160a01b03168152602090f35b5080fd5b823461023c578060031936011261023c576101fa60018060a01b036003541633146110bf565b6bffffffffffffffffffffffff60a01b60065416600655806007557f7a81c642828249ae51a34cf52e35ebbf08bd3cb36fb5a4b4c8e80261893f5b818180a180f35b80fd5b50346101d057816003193601126101d05760025490516001600160a01b039091168152602090f35b50346101d057816003193601126101d0576020906007549051908152f35b50346101d057816003193601126101d0576020906009549051908152f35b91905034610378576020366003190112610378578135916102cf60018060a01b0360025416331461100f565b821561032a57507fa9f6ef469a02717105903bbce25c47a4db6a0d759d929c5cd9bf295a7033b1749161032491610309600c548311611149565b600b8290555133815260208101919091529081906040820190565b0390a180f35b6020608492519162461bcd60e51b8352820152602360248201527f546865206d617869756d206265742076616c756520677265617465722074686160448201526206e20360ec1b6064820152fd5b8280fd5b90503461037857602036600319011261037857356001600160a01b038116908190036103785782829160209452600d845220549051908152f35b5050346101d057816003193601126101d0576020906005549051908152f35b5050346101d057816003193601126101d057602090600b549051908152f35b5050346101d057816003193601126101d057602090600a549051908152f35b8383346101d057816003193601126101d0576002546001600160a01b03919061043f338483161461100f565b845492831692610450841515612233565b60055461045e811515612233565b6203f48081018091116104c0577f7ce7ec0b50378fb6c0186ffb5f48325f6593fcb4ca4386f21861af3129188f5c94926020949261049f8993421015612180565b6001600160a01b03199182168517600255169055600585905551908152a180f35b634e487b7160e01b865260118752602486fd5b5050346101d057816003193601126101d05760209060ff600f541690519015158152f35b5050346101d057816003193601126101d057602090517f00000000000000000000000000000000000000000000000000000000000000008152f35b833461023c578060031936011261023c5761055860018060a01b036003541633146110bf565b806008557f94a9b8fb6e694c6c0fbee0e13e1c5b9ae2dda4395e3495228a46dc717617c6fa8180a180f35b839150346101d057816003193601126101d0576002546001600160a01b0391906105b0908316331461100f565b6008546106ae57835180926370a0823160e01b8252308383015281602460209586937f0000000000000000000000000000000000000000000000000000000000000000165afa9081156106a4578491610673575b501561063a57507fe20350bd5ff90b7bdbcb8229cf46c222a5f5b18f094a1ac5962451445fda107691924260085551428152a180f35b60649184519162461bcd60e51b835282015260156024820152744e6f20746f6b656e7320746f20776974686472617760581b6044820152fd5b90508281813d831161069d575b61068a8183611253565b81010312610699575185610604565b8380fd5b503d610680565b85513d86823e3d90fd5b608490602085519162461bcd60e51b8352820152602160248201527f5769746864726177616c207265717565737420697320696e2070726f677265736044820152607360f81b6064820152fd5b9190503461037857826003193601126103785761072360018060a01b0360025416331461100f565b600954916107328315156121dd565b600a546107408115156121dd565b6203f48081018091116107e557421061078d5750816020917f9dc86596ca5f70a96c96b2cb0be04f02b7da0a6261f97d43cebcc921020b1925936001558460095584600a5551908152a180f35b6020608492519162461bcd60e51b8352820152602d60248201527f4d75737420776169742033206461797320746f20636f6e6669726d207365656460448201526c207265656c73206368616e676560981b6064820152fd5b634e487b7160e01b855260118252602485fd5b919050346103785760203660031901126103785781356001600160a01b0381811693909290848303610896577f72b357b8c271031aad940e03e51f8c172b495a1dd60d6e902d339c7f49604102946108586103249560025416331461100f565b61086381151561110b565b81546001600160a01b03191617905542600581905590516001600160a01b03909216825260208201529081906040820190565b8580fd5b8383346101d057816003193601126101d0576003546001600160a01b0391906108c633848316146110bf565b600654928316926108d8841515612134565b6007546108e6811515612134565b6203f48081018091116104c05791602093916109267f01c6520cf747e4632b43b535b91afe3950ccabc4ab29bbd89e3c1f6b0ba056559694421015612180565b6001600160a01b0319918216841760035516600655600785905551908152a180f35b839060803660031901126101d05767ffffffffffffffff8135818111610699573660238201121561069957808301358281116109e2573660248260061b840101116109e257606435938385116108965736602386011215610896578401359283116109e25736602484860101116109e25760246109df946109ce60ff600f54161561105b565b0191604435916024803592016112de565b80f35b8480fd5b5050346101d057816003193601126101d05760065490516001600160a01b039091168152602090f35b5050346101d057816003193601126101d05760207f46a289a85516d6b63cec7f685e3f5398070f9fc5fb8e3d14021add023fec568f91610a5a60018060a01b036003541633146110bf565b600160ff19600f541617600f5551338152a180f35b9190503461037857602036600319011261037857813591610a9b60018060a01b0360025416331461100f565b6032831015610ada5750816020917f9b161a37c93b297fe93d8f6f47f959bb91bd34a421b3892b0c91674ce107fb249360095542600a5551908152a180f35b6020606492519162461bcd60e51b83528201526016602482015275496e76616c69642077696e50726f626162696c69747960501b6044820152fd5b5050346101d057816003193601126101d0576020906001549051908152f35b9190503461037857602036600319011261037857813591610b6060018060a01b0360025416331461100f565b8215610bb557508161032491610b9a7f96fd935283ebe139eff1231ba7e60b91334b7e1e1c67c91c68b58f8d4a7b211f94600b5411611149565b600c8290555133815260208101919091529081906040820190565b6020608492519162461bcd60e51b8352820152602360248201527f546865206d696e69756d206265742076616c756520677265617465722074686160448201526206e20360ec1b6064820152fd5b833461023c578060031936011261023c57610c2960018060a01b0360025416331461100f565b8060095580600a557f9ef48cacefe12ab0a801d57bc51beb3a36523278e29346ed78249364434565028180a180f35b5050346101d057816003193601126101d05760035490516001600160a01b039091168152602090f35b5050346101d057816003193601126101d0576020906008549051908152f35b905034610378576020366003190112610378576001600160a01b039035818116928382036109e2577f6c437b1584202b77482374dd2215b75e975b0be0768b92ed5e4b048b0e10987993610cfc610324946003541633146110bf565b610d0781151561110b565b600680546001600160a01b03191691909117905542600781905590516001600160a01b03909216825260208201529081906040820190565b9050346103785782600319360112610378575490516001600160a01b03909116815260209150f35b5050346101d057816003193601126101d05760207ff08396b9fd122c2ef99aec183d994d39fa54cc25773e4b8a6ed20ad08aef02c991610db260018060a01b036003541633146110bf565b60ff19600f5416600f5551338152a180f35b5050346101d057816003193601126101d057602090600c549051908152f35b8390346101d057816003193601126101d057610e0a60018060a01b036003541633146110bf565b80546001600160a01b031916905560058190557f07ad662e4db36fe46ee1697376f8457b103123c200de262ca4baf9f5cad0a1e88180a180f35b839150346101d05760203660031901126101d0576002548135916001600160a01b0391821690610e7533831461100f565b6002855414610fcc5760028555610e9160ff600f54161561105b565b6008548015610f935762093a808101809111610f80574210610f325750839491610f0484610f28937f09ad672d4e7c4892da934d1051932ebe9ec4b6ec8c3f40d569176db3e93e5abe976008557f000000000000000000000000000000000000000000000000000000000000000061227f565b600254925192166001600160a01b0316825260208201929092529081906040820190565b0390a16001815580f35b608490602087519162461bcd60e51b8352820152602260248201527f4d75737420776169742037206461797320746f2077697468647261772066756e604482015261647360f01b6064820152fd5b634e487b7160e01b865260118252602486fd5b865162461bcd60e51b815260208184015260136024820152724e6f2070656e64696e6720776974686472617760681b6044820152606490fd5b606490602087519162461bcd60e51b8352820152601f60248201527f5265656e7472616e637947756172643a207265656e7472616e742063616c6c006044820152fd5b1561101657565b60405162461bcd60e51b815260206004820152601b60248201527f4f6e6c792061646d696e2063616e2065786563757465207468697300000000006044820152606490fd5b1561106257565b60405162461bcd60e51b815260206004820152601260248201527110dbdb9d1c9858dd081a5cc81b1bd8dad95960721b6044820152606490fd5b919082018092116110a957565b634e487b7160e01b600052601160045260246000fd5b156110c657565b60405162461bcd60e51b815260206004820152601e60248201527f4f6e6c7920677561726469616e2063616e2065786563757465207468697300006044820152606490fd5b1561111257565b60405162461bcd60e51b815260206004820152600f60248201526e496e76616c6964206164647265737360881b6044820152606490fd5b1561115057565b60405162461bcd60e51b815260206004820152603260248201527f546865206d617869756d206265742076616c75652067726561746572207468616044820152716e206d696e69756d206265742076616c756560701b6064820152608490fd5b91908110156111c05760061b0190565b634e487b7160e01b600052603260045260246000fd5b818102929181159184041417156110a957565b6040810190811067ffffffffffffffff82111761120557604052565b634e487b7160e01b600052604160045260246000fd5b60a0810190811067ffffffffffffffff82111761120557604052565b6060810190811067ffffffffffffffff82111761120557604052565b90601f8019910116810190811067ffffffffffffffff82111761120557604052565b91908260409103126112a65760405161128d816111e9565b8235815291602001358260038210156112a65760200152565b600080fd5b6000915b600383106112bc57505050565b60019060408351918251815260208093015183820152019201920191906112af565b93959490919295600c5484106120c957600b54841161208457836000805b85811061206057500361200c576113337f0000000000000000000000000000000000000000000000000000000000000000856111d6565b6040516370a0823160e01b81523060048201526020816024817f00000000000000000000000000000000000000000000000000000000000000006001600160a01b03165afa908115611abd57600091611fda575b5010611f9557864210611f5057603c87018088116110a9574211611f175733600052600d602052604060002054871115611ed25760405180606081011067ffffffffffffffff6060830111176112055760408160608a93018252338152866020820152015260405160208101907f0e81d1cdf23bdc0a6bef5035503a1014285a41cc67c1e91e29d9211b707e3cf98252336040820152856060820152886080820152608081526114368161121b565b5190206040519061190160f01b60208301527f0000000000000000000000000000000000000000000000000000000000000000602283015260428201526042815280608081011067ffffffffffffffff6080830111176112055760808101604052602081519101206114a7836122c2565b906114b56040519283611253565b83825236848401116112a65760006020856114e3966114db968387013784010152612517565b91909161254f565b6002546001600160a01b03908116911603611e995733600052600d602052846040600020556115606040516323b872dd60e01b60208201523360248201523060448201528360648201526064815261153a8161121b565b7f00000000000000000000000000000000000000000000000000000000000000006123fc565b61157460405161156f81611237565b6122de565b61158360405161156f81611237565b6040519461159086611237565b611599866122de565b604051906115a682611237565b6115af826122de565b6040518060c081011067ffffffffffffffff60c0830111176112055760c0810160405260005b60c08110611e76575060008019430191438311915b60068110611d9257508060a091518b52602081015160208c0152604081015160408c015260608101518652608081015160208701520151604085015261163560405161156f81611237565b61164460405161156f81611237565b60009061165660405161156f81611237565b61166560405161156f81611237565b611d7e57606460405160208101903360601b825284406034820152446054820152856074820152607481526116998161121b565b5190200660015411916116ac858b61233f565b9490936040516116bb816111e9565b84815284602082015290600014611bdc575060018703611b745750508415611b605760206116e93689611275565b0180516003811015611b4c57611af057505011958615611aea57805b9615611ae357505b935b611719858761233f565b93909267ffffffffffffffff8111611205576040519561173f60208360051b0188611253565b8187526020870190368360061b8201116112a65780915b8360061b82018310611ac95750505050600096875b86518910156118fa5761178a60206117838b8a6123e8565b5101612332565b60038110156118d25715806118f1575b156117f4576117eb6001916117e56117b28c8b6123e8565b515160008052600e6020527fe710864318d4a32f37d6ce54cb3fadbef648dd12d8dbdf53973564d56b7f881c54906111d6565b9061109c565b985b019761176b565b61180360206117838b8a6123e8565b60038110156118d257600214806118e8575b15611867576118616001916117e561182d8c8b6123e8565b51516002600052600e6020527f9adb202b1492743bc00c81d33cdc6423fa8c79109027eb6a845391e8fc1f048154906111d6565b986117ed565b976118776020611783838a6123e8565b60038110156118d257600114806118c9575b611896575b6001906117ed565b976118c16001916117e56118aa8c8b6123e8565b515184600052600e602052604060002054906111d6565b98905061188e565b50858514611889565b634e487b7160e01b600052602160045260246000fd5b50848611611815565b5085851161179a565b6040516370a0823160e01b8152306004820152939850919690955090916020816024817f00000000000000000000000000000000000000000000000000000000000000006001600160a01b03165afa908115611abd57600091611a5d575b50907f8e3897e7ec1b94c33e7a96847f87c200c4a4b55135ac87bc06946c2e91be755f96839261020097969594116119f857506119b390826119c8575b6119a96040519633885260208801906112ab565b60e08601906112ab565b6101a08401526101c08301526101e0820152a1565b6119f383337f000000000000000000000000000000000000000000000000000000000000000061227f565b611995565b611a469250611a2890337f000000000000000000000000000000000000000000000000000000000000000061227f565b611a3c6040519533875260208701906112ab565b60e08501906112ab565b60006101a08401526101c08301526101e0820152a1565b959493929190506020863d602011611ab5575b81611a7d60209383611253565b810103126112a657945193949293919290917f8e3897e7ec1b94c33e7a96847f87c200c4a4b55135ac87bc06946c2e91be755f611958565b3d9150611a70565b6040513d6000823e3d90fd5b6020604091611ad83686611275565b815201920191611756565b905061170d565b81611705565b98979851906003821015611b385750600203611b2b5711948515611b2557805b9515611b1e57505b9461170f565b9050611b18565b81611b10565b505050839493949361170f565b634e487b7160e01b81526021600452602490fd5b634e487b7160e01b83526021600452602483fd5b634e487b7160e01b81526032600452602490fd5b6040519060208201923360601b8452406034830152446054830152607482015260748152611ba18161121b565b5190208515611bc857611bc3602091611bbe88369206898c6111b0565b611275565b6116e9565b634e487b7160e01b82526012600452602482fd5b99989796959493929150506003851015611cfa5760405198611bfd8a611237565b6060368b37815b868110611ccd5750815b60038110611c29575b506020919293949596979899506116e9565b611c33818c612321565b5115611c42575b600101611c0e565b905080611c7757509091929394959697506020604051611c61816111e9565b8281528282820152899897969594939291611c17565b60028103611cae57509091929394959697506020604051611c97816111e9565b828152600282820152899897969594939291611c17565b6001604051611cbc816111e9565b838152816020820152919050611c3a565b6020611cda82898c6111b0565b0135600381101561069957906001611cf381938e612321565b5201611c04565b909192939495969781825b878110611d165750506020906116e9565b896020611d30838b611d298282876111b0565b35946111b0565b01356003811015610896578552600e6020526040852054611d50916111d6565b828110611d61575b50600101611d05565b915091506001611d778a611bbe858b36936111b0565b9290611d58565b634e487b7160e01b81526011600452602490fd5b916002830183116110a9576110a95760405191600d602084013360601b8152603490864082870152611de96103e860549244848a0152607498600288018a820152898152611ddf8161121b565b519020068961109c565b956000966040519260208401943360601b86528a40908501524490840152818301528152611e168161121b565b51902006600d811015611e625790600191821b601160405191611e38836111e9565b8060100154835201546020820152611e508285612310565b52611e5b8184612310565b50016115ea565b634e487b7160e01b84526032600452602484fd5b602090604051611e85816111e9565b6000815260008382015281840152016115d5565b60405162461bcd60e51b8152602060048201526011602482015270496e76616c6964207369676e617475726560781b6044820152606490fd5b60405162461bcd60e51b815260206004820152601760248201527f54696d657374616d70206d757374206265206e657765720000000000000000006044820152606490fd5b60405162461bcd60e51b8152602060048201526011602482015270151a5b595cdd185b5c08195e1c1a5c9959607a1b6044820152606490fd5b60405162461bcd60e51b815260206004820152601960248201527f54696d657374616d702066726f6d2074686520667574757265000000000000006044820152606490fd5b60405162461bcd60e51b815260206004820152601f60248201527f436f6e74726163742068617320696e73756666696369656e742066756e6473006044820152606490fd5b90506020813d602011612004575b81611ff560209383611253565b810103126112a6575138611387565b3d9150611fe8565b60405162461bcd60e51b815260206004820152602660248201527f546f74616c2062657420616d6f756e74206d757374206d617463682073656e746044820152652076616c756560d01b6064820152608490fd5b915061207a60019161207384888b6111b0565b359061109c565b91019085916112fc565b60405162461bcd60e51b815260206004820152601960248201527f4265742065786365656473206d6178696d756d206c696d6974000000000000006044820152606490fd5b60405162461bcd60e51b815260206004820152603e60248201527f5468652062657420616d6f756e74206d7573742062652067726561746572207460448201527f68616e20746865206d696e696d756d2072657175697265642076616c756500006064820152608490fd5b1561213b57565b60405162461bcd60e51b815260206004820152601a60248201527f4e6f2070656e64696e6720677561726469616e206368616e67650000000000006044820152606490fd5b1561218757565b60405162461bcd60e51b815260206004820152602860248201527f4d75737420776169742033206461797320746f20636f6e6669726d2061646d696044820152676e206368616e676560c01b6064820152608490fd5b156121e457565b60405162461bcd60e51b815260206004820152602160248201527f4e6f2070656e64696e672077696e2070726f626162696c697479206368616e676044820152606560f81b6064820152608490fd5b1561223a57565b60405162461bcd60e51b815260206004820152601760248201527f4e6f2070656e64696e672061646d696e206368616e67650000000000000000006044820152606490fd5b60405163a9059cbb60e01b60208201526001600160a01b039290921660248301526044808301939093529181526122c0916122bb606483611253565b6123fc565b565b67ffffffffffffffff811161120557601f01601f191660200190565b6000805b606081106122ef57505050565b6020906040516122fe816111e9565b838152838382015281850152016122e2565b9060068110156111c05760051b0190565b9060038110156111c05760051b0190565b5160038110156118d25790565b91906020600a61235a8286510151838088015101519061109c565b0691600a6123738383510151848085015101519061109c565b069460088410806123de575b61238b575b5050509190565b600684106123c1575b50600685106123a4575b80612384565b6040015101519092600a916123b89161109c565b0691388061239e565b600a91938360406123d693015101519061109c565b069138612394565b506008861061237f565b80518210156111c05760209160051b010190565b60018060a01b031690612479604051612414816111e9565b6020938482527f5361666545524332303a206c6f772d6c6576656c2063616c6c206661696c6564858301526000808587829751910182855af13d1561250f573d9161245e836122c2565b9261246c6040519485611253565b83523d868885013e6126e2565b8051918215918483156124eb575b5050509050156124945750565b6084906040519062461bcd60e51b82526004820152602a60248201527f5361666545524332303a204552433230206f7065726174696f6e20646964206e6044820152691bdd081cdd58d8d9595960b21b6064820152fd5b9193818094500103126101d05782015190811515820361023c575080388084612487565b6060916126e2565b90604181511460001461254557612541916020820151906060604084015193015160001a90612653565b9091565b5050600090600290565b60058110156118d257806125605750565b600181036125ad5760405162461bcd60e51b815260206004820152601860248201527f45434453413a20696e76616c6964207369676e617475726500000000000000006044820152606490fd5b600281036125fa5760405162461bcd60e51b815260206004820152601f60248201527f45434453413a20696e76616c6964207369676e6174757265206c656e677468006044820152606490fd5b60031461260357565b60405162461bcd60e51b815260206004820152602260248201527f45434453413a20696e76616c6964207369676e6174757265202773272076616c604482015261756560f01b6064820152608490fd5b9291907f7fffffffffffffffffffffffffffffff5d576e7357a4501ddfe92f46681b20a083116126d65791608094939160ff602094604051948552168484015260408301526060820152600093849182805260015afa156126c95781516001600160a01b038116156126c3579190565b50600190565b50604051903d90823e3d90fd5b50505050600090600390565b9192901561274457508151156126f6575090565b3b156126ff5790565b60405162461bcd60e51b815260206004820152601d60248201527f416464726573733a2063616c6c20746f206e6f6e2d636f6e74726163740000006044820152606490fd5b8251909150156127575750805190602001fd5b6040519062461bcd60e51b82528160208060048301528251908160248401526000935b82851061279d575050604492506000838284010152601f80199101168101030190fd5b848101820151868601604401529381019385935061277a56fea26469706673582212209bd240f3450e7cd88f07ede3b5cddbe740490f788c52561a71a2a88fba98faef64736f6c63430008180033546865206d6178696d756d206265742076616c7565206d757374206265206772",
  "linkReferences": {},
  "deployedLinkReferences": {}
}