{
  "_format": "hh-sol-artifact-1",
  "contractName": "SlotMachine",
  "sourceName": "contracts/SlotMachine.sol",
  "abi": [
    {
      "inputs": [
        {
          "internalType": "address",
          "name": "_guardian",
          "type": "address"
        },
        {
          "internalType": "address",
          "name": "_admin",
          "type": "address"
        },
        {
          "internalType": "address",
          "name": "_token",
          "type": "address"
        },
        {
          "internalType": "uint256",
          "name": "_minBetValue",
          "type": "uint256"
        },
        {
          "internalType": "uint256",
          "name": "_maxBetValue",
          "type": "uint256"
        }
      ],
      "stateMutability": "nonpayable",
      "type": "constructor"
    },
    {
      "anonymous": false,
      "inputs": [],
      "name": "AdminChangeCancelled",
      "type": "event"
    },
    {
      "anonymous": false,
      "inputs": [
        {
          "indexed": false,
          "internalType": "address",
          "name": "newAdmin",
          "type": "address"
        },
        {
          "indexed": false,
          "internalType": "uint256",
          "name": "requestTime",
          "type": "uint256"
        }
      ],
      "name": "AdminChangeRequested",
      "type": "event"
    },
    {
      "anonymous": false,
      "inputs": [
        {
          "indexed": false,
          "internalType": "address",
          "name": "newAdmin",
          "type": "address"
        }
      ],
      "name": "AdminChanged",
      "type": "event"
    },
    {
      "anonymous": false,
      "inputs": [
        {
          "indexed": false,
          "internalType": "address",
          "name": "admin",
          "type": "address"
        },
        {
          "indexed": false,
          "internalType": "uint256",
          "name": "maxBetValue",
          "type": "uint256"
        }
      ],
      "name": "ChangedMaxBetValue",
      "type": "event"
    },
    {
      "anonymous": false,
      "inputs": [
        {
          "indexed": false,
          "internalType": "address",
          "name": "admin",
          "type": "address"
        },
        {
          "indexed": false,
          "internalType": "uint256",
          "name": "minBetValue",
          "type": "uint256"
        }
      ],
      "name": "ChangedMinBetValue",
      "type": "event"
    },
    {
      "anonymous": false,
      "inputs": [
        {
          "indexed": false,
          "internalType": "address",
          "name": "by",
          "type": "address"
        }
      ],
      "name": "ContractLocked",
      "type": "event"
    },
    {
      "anonymous": false,
      "inputs": [
        {
          "indexed": false,
          "internalType": "address",
          "name": "by",
          "type": "address"
        }
      ],
      "name": "ContractUnlocked",
      "type": "event"
    },
    {
      "anonymous": false,
      "inputs": [],
      "name": "GuardianChangeCancelled",
      "type": "event"
    },
    {
      "anonymous": false,
      "inputs": [
        {
          "indexed": false,
          "internalType": "address",
          "name": "newGuardian",
          "type": "address"
        },
        {
          "indexed": false,
          "internalType": "uint256",
          "name": "requestTime",
          "type": "uint256"
        }
      ],
      "name": "GuardianChangeRequested",
      "type": "event"
    },
    {
      "anonymous": false,
      "inputs": [
        {
          "indexed": false,
          "internalType": "address",
          "name": "newGuardian",
          "type": "address"
        }
      ],
      "name": "GuardianChanged",
      "type": "event"
    },
    {
      "anonymous": false,
      "inputs": [
        {
          "indexed": false,
          "internalType": "address",
          "name": "user",
          "type": "address"
        },
        {
          "indexed": false,
          "internalType": "enum SlotMachine.Reels[3]",
          "name": "reels",
          "type": "uint8[3]"
        },
        {
          "indexed": false,
          "internalType": "uint256",
          "name": "amountWon",
          "type": "uint256"
        }
      ],
      "name": "Result",
      "type": "event"
    },
    {
      "anonymous": false,
      "inputs": [],
      "name": "SeedReelsChangeCancelled",
      "type": "event"
    },
    {
      "anonymous": false,
      "inputs": [
        {
          "indexed": false,
          "internalType": "uint256[3]",
          "name": "seedReels",
          "type": "uint256[3]"
        }
      ],
      "name": "SeedReelsChanged",
      "type": "event"
    },
    {
      "anonymous": false,
      "inputs": [
        {
          "indexed": false,
          "internalType": "uint256[3]",
          "name": "seedReels",
          "type": "uint256[3]"
        }
      ],
      "name": "SeedReelsRequested",
      "type": "event"
    },
    {
      "anonymous": false,
      "inputs": [
        {
          "indexed": false,
          "internalType": "address",
          "name": "to",
          "type": "address"
        },
        {
          "indexed": false,
          "internalType": "uint256",
          "name": "amount",
          "type": "uint256"
        }
      ],
      "name": "WithdrawFund",
      "type": "event"
    },
    {
      "anonymous": false,
      "inputs": [],
      "name": "WithdrawFundCancelled",
      "type": "event"
    },
    {
      "anonymous": false,
      "inputs": [
        {
          "indexed": false,
          "internalType": "uint256",
          "name": "requestTime",
          "type": "uint256"
        }
      ],
      "name": "WithdrawFundRequested",
      "type": "event"
    },
    {
      "inputs": [],
      "name": "admin",
      "outputs": [
        {
          "internalType": "address",
          "name": "",
          "type": "address"
        }
      ],
      "stateMutability": "view",
      "type": "function"
    },
    {
      "inputs": [],
      "name": "cancelAdminChange",
      "outputs": [],
      "stateMutability": "nonpayable",
      "type": "function"
    },
    {
      "inputs": [],
      "name": "cancelGuardianChange",
      "outputs": [],
      "stateMutability": "nonpayable",
      "type": "function"
    },
    {
      "inputs": [],
      "name": "cancelSeedReelsChange",
      "outputs": [],
      "stateMutability": "nonpayable",
      "type": "function"
    },
    {
      "inputs": [],
      "name": "cancelWithdrawFund",
      "outputs": [],
      "stateMutability": "nonpayable",
      "type": "function"
    },
    {
      "inputs": [
        {
          "internalType": "uint256",
          "name": "_maxBetValue",
          "type": "uint256"
        }
      ],
      "name": "changeMaxBetValue",
      "outputs": [],
      "stateMutability": "nonpayable",
      "type": "function"
    },
    {
      "inputs": [
        {
          "internalType": "uint256",
          "name": "_minBetValue",
          "type": "uint256"
        }
      ],
      "name": "changeMinBetValue",
      "outputs": [],
      "stateMutability": "nonpayable",
      "type": "function"
    },
    {
      "inputs": [],
      "name": "confirmAdminChange",
      "outputs": [],
      "stateMutability": "nonpayable",
      "type": "function"
    },
    {
      "inputs": [],
      "name": "confirmChangeGuardian",
      "outputs": [],
      "stateMutability": "nonpayable",
      "type": "function"
    },
    {
      "inputs": [],
      "name": "confirmChangeSeedReels",
      "outputs": [],
      "stateMutability": "nonpayable",
      "type": "function"
    },
    {
      "inputs": [],
      "name": "guardian",
      "outputs": [
        {
          "internalType": "address",
          "name": "",
          "type": "address"
        }
      ],
      "stateMutability": "view",
      "type": "function"
    },
    {
      "inputs": [],
      "name": "isLocked",
      "outputs": [
        {
          "internalType": "bool",
          "name": "",
          "type": "bool"
        }
      ],
      "stateMutability": "view",
      "type": "function"
    },
    {
      "inputs": [
        {
          "internalType": "address",
          "name": "",
          "type": "address"
        }
      ],
      "name": "lastTimestamp",
      "outputs": [
        {
          "internalType": "uint256",
          "name": "",
          "type": "uint256"
        }
      ],
      "stateMutability": "view",
      "type": "function"
    },
    {
      "inputs": [],
      "name": "lockContract",
      "outputs": [],
      "stateMutability": "nonpayable",
      "type": "function"
    },
    {
      "inputs": [],
      "name": "maxBetValue",
      "outputs": [
        {
          "internalType": "uint256",
          "name": "",
          "type": "uint256"
        }
      ],
      "stateMutability": "view",
      "type": "function"
    },
    {
      "inputs": [],
      "name": "maxRewardMultiply",
      "outputs": [
        {
          "internalType": "uint256",
          "name": "",
          "type": "uint256"
        }
      ],
      "stateMutability": "view",
      "type": "function"
    },
    {
      "inputs": [],
      "name": "minBetValue",
      "outputs": [
        {
          "internalType": "uint256",
          "name": "",
          "type": "uint256"
        }
      ],
      "stateMutability": "view",
      "type": "function"
    },
    {
      "inputs": [],
      "name": "pendingAdmin",
      "outputs": [
        {
          "internalType": "address",
          "name": "",
          "type": "address"
        }
      ],
      "stateMutability": "view",
      "type": "function"
    },
    {
      "inputs": [],
      "name": "pendingAdminChangeTime",
      "outputs": [
        {
          "internalType": "uint256",
          "name": "",
          "type": "uint256"
        }
      ],
      "stateMutability": "view",
      "type": "function"
    },
    {
      "inputs": [],
      "name": "pendingGuardian",
      "outputs": [
        {
          "internalType": "address",
          "name": "",
          "type": "address"
        }
      ],
      "stateMutability": "view",
      "type": "function"
    },
    {
      "inputs": [],
      "name": "pendingGuardianChangeTime",
      "outputs": [
        {
          "internalType": "uint256",
          "name": "",
          "type": "uint256"
        }
      ],
      "stateMutability": "view",
      "type": "function"
    },
    {
      "inputs": [
        {
          "internalType": "uint256",
          "name": "",
          "type": "uint256"
        }
      ],
      "name": "pendingSeedReels",
      "outputs": [
        {
          "internalType": "uint256",
          "name": "",
          "type": "uint256"
        }
      ],
      "stateMutability": "view",
      "type": "function"
    },
    {
      "inputs": [],
      "name": "pendingSeedReelsChangeTime",
      "outputs": [
        {
          "internalType": "uint256",
          "name": "",
          "type": "uint256"
        }
      ],
      "stateMutability": "view",
      "type": "function"
    },
    {
      "inputs": [],
      "name": "pendingWithdrawFundTime",
      "outputs": [
        {
          "internalType": "uint256",
          "name": "",
          "type": "uint256"
        }
      ],
      "stateMutability": "view",
      "type": "function"
    },
    {
      "inputs": [
        {
          "internalType": "uint256",
          "name": "amount",
          "type": "uint256"
        },
        {
          "internalType": "uint256",
          "name": "_timestamp",
          "type": "uint256"
        },
        {
          "internalType": "bytes",
          "name": "signature",
          "type": "bytes"
        }
      ],
      "name": "placeBet",
      "outputs": [],
      "stateMutability": "nonpayable",
      "type": "function"
    },
    {
      "inputs": [
        {
          "internalType": "address",
          "name": "newAdmin",
          "type": "address"
        }
      ],
      "name": "requestAdminChange",
      "outputs": [],
      "stateMutability": "nonpayable",
      "type": "function"
    },
    {
      "inputs": [
        {
          "internalType": "address",
          "name": "newGuardian",
          "type": "address"
        }
      ],
      "name": "requestChangeGuardian",
      "outputs": [],
      "stateMutability": "nonpayable",
      "type": "function"
    },
    {
      "inputs": [
        {
          "internalType": "uint256",
          "name": "_seedReel1",
          "type": "uint256"
        },
        {
          "internalType": "uint256",
          "name": "_seedReel2",
          "type": "uint256"
        },
        {
          "internalType": "uint256",
          "name": "_seedReel3",
          "type": "uint256"
        }
      ],
      "name": "requestChangeSeedReels",
      "outputs": [],
      "stateMutability": "nonpayable",
      "type": "function"
    },
    {
      "inputs": [],
      "name": "requestWithdrawFund",
      "outputs": [],
      "stateMutability": "nonpayable",
      "type": "function"
    },
    {
      "inputs": [
        {
          "internalType": "uint256",
          "name": "",
          "type": "uint256"
        }
      ],
      "name": "rewards",
      "outputs": [
        {
          "internalType": "uint256",
          "name": "multiply",
          "type": "uint256"
        }
      ],
      "stateMutability": "view",
      "type": "function"
    },
    {
      "inputs": [
        {
          "internalType": "uint256",
          "name": "",
          "type": "uint256"
        }
      ],
      "name": "seedReels",
      "outputs": [
        {
          "internalType": "uint256",
          "name": "",
          "type": "uint256"
        }
      ],
      "stateMutability": "view",
      "type": "function"
    },
    {
      "inputs": [],
      "name": "token",
      "outputs": [
        {
          "internalType": "contract IERC20",
          "name": "",
          "type": "address"
        }
      ],
      "stateMutability": "view",
      "type": "function"
    },
    {
      "inputs": [],
      "name": "unlockContract",
      "outputs": [],
      "stateMutability": "nonpayable",
      "type": "function"
    },
    {
      "inputs": [
        {
          "internalType": "uint256",
          "name": "amount",
          "type": "uint256"
        }
      ],
      "name": "withdrawFund",
      "outputs": [],
      "stateMutability": "nonpayable",
      "type": "function"
    }
  ],
  "bytecode": "0x60e0346200062557601f62002a5b38819003918201601f1916830192916001600160401b0391828511848610176200062a578160a092859260409788528339810103126200062557620000528262000678565b916020916200006383830162000678565b906200007186840162000678565b926080606082015191015160019460009486865560ff196012541660125560018060a01b03809116988915620005e15781169182156200059d57169081156200055957821515806200054f575b8062000544575b156200050b57600280546001600160a01b0319908116909a17905560038054909916178855608052600d55600e558551620001008162000640565b600a81526103e8858201526127108782015283835b878110620004f357505050601384875162000130816200065c565b828152017f536c6f744d616368696e6542726f6b65725634000000000000000000000000008152208385885162000167816200065c565b82815201603160f81b81522090875191868301917f8b73c3c69bb8fe3d512ecc4cf759cc79239f7b179b0ffacaa9a75d522b39400f83528984015260608301524660808301523060a083015260a0825260c082019282841090841117620004df576101008392859262000214958b528151902060a052600f60c052620001ed8462000640565b8284528260e0820152015286519062000206826200065c565b8152600f858201526200068d565b620002438551620002258162000640565b6007815260078582015260078782015286519062000206826200065c565b845190620002518262000640565b600882526008848301526008868301528551916200026f836200065c565b825283820190600f8252835468010000000000000000811015620004cb57848101808655811015620004b75784825285822090851b01925181805b8881106200046b5789620004268a600a8b620003b68c8c818d8d835551910155620003078751620002db8162000640565b60058152600585820152600589820152885190620002f9826200065c565b8152600f8582015262000745565b620003448751620003188162000640565b6006815260068582015260068982015288519062000336826200065c565b815260088582015262000745565b620003808751620003558162000640565b6004815260048582015260048982015288519062000373826200065c565b8152868582015262000745565b8651906200038e8262000640565b808252808483015287820152865190620003a8826200065c565b815260058382015262000745565b620003f38551620003c78162000640565b60028152600283820152600287820152865190620003e5826200065c565b8152600c8382015262000745565b845192620004018462000640565b8084528082850152858401528451926200041b846200065c565b835282015262000745565b516122879081620007d482396080518181816101ac01528181610607015281816110a501526114df015260a051816115e7015260c05181818161054201526114b70152f35b9091928351906009821015620004a357620004988892848b939060ff809160031b9316831b921b19161790565b9401929101620002aa565b634e487b7160e01b84526021600452602484fd5b634e487b7160e01b82526032600452602482fd5b634e487b7160e01b82526041600452602482fd5b634e487b7160e01b84526041600452602484fd5b8661ffff84511693019281600f015501849062000115565b895162461bcd60e51b8152600481018990526012602482015271496e76616c6964206265742076616c75657360701b6044820152606490fd5b5083831015620000c5565b50831515620000be565b895162461bcd60e51b815260048101899052601560248201527f496e76616c696420746f6b656e206164647265737300000000000000000000006044820152606490fd5b8a5162461bcd60e51b8152600481018a9052601860248201527f496e76616c696420677561726469616e206164647265737300000000000000006044820152606490fd5b8a5162461bcd60e51b8152600481018a9052601560248201527f496e76616c69642061646d696e206164647265737300000000000000000000006044820152606490fd5b600080fd5b634e487b7160e01b600052604160045260246000fd5b606081019081106001600160401b038211176200062a57604052565b604081019081106001600160401b038211176200062a57604052565b51906001600160a01b03821682036200062557565b6001805491680100000000000000008310156200062a578183018083558310156200072f5760008281526020808220835195851b0194908290815b60038110620006e1575050509084555060200151910155565b9091929384519060098210156200071b576200070f88928486939060ff809160031b9316831b921b19161790565b950193929101620006c8565b634e487b7160e01b85526021600452602485fd5b634e487b7160e01b600052603260045260246000fd5b6001805491680100000000000000008310156200062a578183018083558310156200072f5760008281526020808220835195851b0194908290815b6003811062000799575050509084555060200151910155565b9091929384519060098210156200071b57620007c788928486939060ff809160031b9316831b921b19161790565b9501939291016200078056fe6040608081526004908136101561001557600080fd5b600091823560e01c9081630cee17251461100b5781631157b26714610faa578163116c6fb214610f8b57816322f0f2f914610f2e5781632678224714610f0657816328fc8b6814610e635781632e57d86114610ce35781633ab0f33014610cc45781634126fb3114610c4a578163452a932014610c2157816356136d8914610ab0578163677660e0146109e0578163753868e314610980578163762c31ba1461095757816376f084d814610938578163847d1e901461088a5781638c51d1e4146107e85781639734953c1461075a5781639d166de71461072e5781639d1c35e2146105b65781639e09062814610565578163a48158e51461052a578163a4e2d63414610506578163a74b678314610446578163bff42fe414610427578163dccfac82146103ed578163e065fc9314610317578163ed3cacc1146102f8578163ed8bd530146102d9578163f1aaf226146102ad578163f301af421461027257508063f851a4401461024a578063fb49fe27146101df5763fc0c546a1461019957600080fd5b346101db57816003193601126101db57517f00000000000000000000000000000000000000000000000000000000000000006001600160a01b03168152602090f35b5080fd5b823461024757806003193601126102475761020560018060a01b0360035416331461125b565b6bffffffffffffffffffffffff60a01b60065416600655806007557f7a81c642828249ae51a34cf52e35ebbf08bd3cb36fb5a4b4c8e80261893f5b818180a180f35b80fd5b50346101db57816003193601126101db5760025490516001600160a01b039091168152602090f35b9050346102a95760203660031901126102a95735916001548310156102475750600161029f60209361117e565b5001549051908152f35b8280fd5b9050346102a95760203660031901126102a9573560038110156102a95760209250600901549051908152f35b5050346101db57816003193601126101db57602090600c549051908152f35b5050346101db57816003193601126101db576020906007549051908152f35b919050346102a95760203660031901126102a95781359161034360018060a01b036002541633146111ce565b821561039f57507fa9f6ef469a02717105903bbce25c47a4db6a0d759d929c5cd9bf295a7033b174916103999161037e600e54831015611bd2565b600d8290555133815260208101919091529081906040820190565b0390a180f35b6020608492519162461bcd60e51b8352820152602360248201527f546865206d617869756d206265742076616c756520677265617465722074686160448201526206e20360ec1b6064820152fd5b9050346102a95760203660031901126102a957356001600160a01b038116908190036102a957828291602094526013845220549051908152f35b5050346101db57816003193601126101db576020906005549051908152f35b8383346101db57816003193601126101db576002546001600160a01b03919061047233848316146111ce565b845492831692610483841515611ce2565b600554610491811515611ce2565b6203f48081018091116104f3577f7ce7ec0b50378fb6c0186ffb5f48325f6593fcb4ca4386f21861af3129188f5c9492602094926104d28993421015611c85565b6001600160a01b03199182168517600255169055600585905551908152a180f35b634e487b7160e01b865260118752602486fd5b5050346101db57816003193601126101db5760209060ff6012541690519015158152f35b5050346101db57816003193601126101db57602090517f00000000000000000000000000000000000000000000000000000000000000008152f35b833461024757806003193601126102475761058b60018060a01b0360035416331461125b565b806008557f94a9b8fb6e694c6c0fbee0e13e1c5b9ae2dda4395e3495228a46dc717617c6fa8180a180f35b839150346101db57816003193601126101db576002546001600160a01b0391906105e390831633146111ce565b6008546106e157835180926370a0823160e01b8252308383015281602460209586937f0000000000000000000000000000000000000000000000000000000000000000165afa9081156106d75784916106a6575b501561066d57507fe20350bd5ff90b7bdbcb8229cf46c222a5f5b18f094a1ac5962451445fda107691924260085551428152a180f35b60649184519162461bcd60e51b835282015260156024820152744e6f20746f6b656e7320746f20776974686472617760581b6044820152fd5b90508281813d83116106d0575b6106bd81836113c4565b810103126106cc575185610637565b8380fd5b503d6106b3565b85513d86823e3d90fd5b608490602085519162461bcd60e51b8352820152602160248201527f5769746864726177616c207265717565737420697320696e2070726f677265736044820152607360f81b6064820152fd5b9050346102a95760203660031901126102a9573560038110156102a95760209250600f01549051908152f35b5050346101db57816003193601126101db5761078160018060a01b036002541633146111ce565b805161078c8161135a565b82815282602092816020840152820152825b600381106107d25783806007557f6b3b6211c28a53f750e60b8522a5bbaafe92f1174f1db1dc2fb4f2e5300ca7f08180a180f35b815160ff1660098201559082019060010161079e565b919050346102a95760203660031901126102a95781356001600160a01b0381811693909290848303610886577f72b357b8c271031aad940e03e51f8c172b495a1dd60d6e902d339c7f4960410294610848610399956002541633146111ce565b6108538115156112a7565b81546001600160a01b03191617905542600581905590516001600160a01b03909216825260208201529081906040820190565b8580fd5b8383346101db57816003193601126101db576003546001600160a01b0391906108b6338483161461125b565b600654928316926108c8841515611c39565b6007546108d6811515611c39565b6203f48081018091116104f35791602093916109167f01c6520cf747e4632b43b535b91afe3950ccabc4ab29bbd89e3c1f6b0ba056559694421015611c85565b6001600160a01b0319918216841760035516600655600785905551908152a180f35b5050346101db57816003193601126101db57602090600d549051908152f35b5050346101db57816003193601126101db5760065490516001600160a01b039091168152602090f35b5050346101db57816003193601126101db5760207f46a289a85516d6b63cec7f685e3f5398070f9fc5fb8e3d14021add023fec568f916109cb60018060a01b0360035416331461125b565b600160ff19601254161760125551338152a180f35b919050346102a95760203660031901126102a957813591610a0c60018060a01b036002541633146111ce565b8215610a6257508161039991610a477f96fd935283ebe139eff1231ba7e60b91334b7e1e1c67c91c68b58f8d4a7b211f94600d541015611bd2565b600e8290555133815260208101919091529081906040820190565b6020608492519162461bcd60e51b8352820152602360248201527f546865206d696e69756d206265742076616c756520677265617465722074686160448201526206e20360ec1b6064820152fd5b9050346102a95760603660031901126102a95780356024359160443590610ae260018060a01b036002541633146111ce565b8383141580610c17575b80610c0d575b15610bca5782151580610bc1575b80610bb8575b15610b755750835191610b188361135a565b8252602092602083015283820152835b60038110610b6257847f9c812434a88877c411e67add81a31b539d84c530e2b1c560720763d8e490d94b8542600c555180610399816113e6565b8151600982015590820190600101610b28565b606490602086519162461bcd60e51b8352820152602060248201527f53656564207265656c206d7573742062652067726561746572207468616e20306044820152fd5b50811515610b06565b50831515610b00565b606490602086519162461bcd60e51b8352820152602060248201527f416c6c2074687265652073656564206d75737420626520646966666572656e746044820152fd5b5081831415610af2565b5081841415610aec565b5050346101db57816003193601126101db5760035490516001600160a01b039091168152602090f35b8390346101db5760603660031901126101db576044359067ffffffffffffffff908183116106cc57366023840112156106cc57828101359182116106cc5736602483850101116106cc576024610cbd93610ca960ff601254161561121a565b610cb1611d2e565b0190602435903561149c565b6001815580f35b5050346101db57816003193601126101db576020906008549051908152f35b8383346101db57816003193601126101db57610d0a60018060a01b036002541633146111ce565b6009926009549081151580610e58575b80610e4d575b610d29906112e5565b600c54610d378115156112e5565b6203f4808101809111610e3a574210610de1575060099083905b60038210610dca575050508051610d678161135a565b828152602090836020820152838382015293835b60038110610db557847fe89d359024e64cc0ed2ffe1225ef913ca02189157a553dc7134c4aaa2fe5a4f18582600c555180610399816113e6565b855160ff168282015594820194600101610d7b565b6001809193019182549381600f0155019091610d51565b608490602084519162461bcd60e51b8352820152602d60248201527f4d75737420776169742033206461797320746f20636f6e6669726d207365656460448201526c207265656c73206368616e676560981b6064820152fd5b634e487b7160e01b855260118252602485fd5b50600b541515610d20565b50600a541515610d1a565b9050346102a95760203660031901126102a9576001600160a01b03903581811692838203610f02577f6c437b1584202b77482374dd2215b75e975b0be0768b92ed5e4b048b0e10987993610ebf6103999460035416331461125b565b610eca8115156112a7565b600680546001600160a01b03191691909117905542600781905590516001600160a01b03909216825260208201529081906040820190565b8480fd5b9050346102a957826003193601126102a9575490516001600160a01b03909116815260209150f35b5050346101db57816003193601126101db5760207ff08396b9fd122c2ef99aec183d994d39fa54cc25773e4b8a6ed20ad08aef02c991610f7960018060a01b0360035416331461125b565b60ff196012541660125551338152a180f35b5050346101db57816003193601126101db57602090600e549051908152f35b8390346101db57816003193601126101db57610fd160018060a01b0360035416331461125b565b80546001600160a01b031916905560058190557f07ad662e4db36fe46ee1697376f8457b103123c200de262ca4baf9f5cad0a1e88180a180f35b839150346101db5760203660031901126101db576002548135916001600160a01b039161103b90831633146111ce565b611043611d2e565b61105260ff601254161561121a565b60085480156111455762093a808101809111610e3a5742106110f75750926110ed83947f09ad672d4e7c4892da934d1051932ebe9ec4b6ec8c3f40d569176db3e93e5abe946008556110c98482600254167f0000000000000000000000000000000000000000000000000000000000000000611d84565b600254925192166001600160a01b0316825260208201929092529081906040820190565b0390a16001815580f35b608490602086519162461bcd60e51b8352820152602260248201527f4d75737420776169742037206461797320746f2077697468647261772066756e604482015261647360f01b6064820152fd5b855162461bcd60e51b815260208184015260136024820152724e6f2070656e64696e6720776974686472617760681b6044820152606490fd5b6001548110156111b857600160005260011b7fb10e2d527612073b26eecdfd717e6a320cf44b4afac2b0732d9fcbe2b7fa0cf60190600090565b634e487b7160e01b600052603260045260246000fd5b156111d557565b60405162461bcd60e51b815260206004820152601b60248201527f4f6e6c792061646d696e2063616e2065786563757465207468697300000000006044820152606490fd5b1561122157565b60405162461bcd60e51b815260206004820152601260248201527110dbdb9d1c9858dd081a5cc81b1bd8dad95960721b6044820152606490fd5b1561126257565b60405162461bcd60e51b815260206004820152601e60248201527f4f6e6c7920677561726469616e2063616e2065786563757465207468697300006044820152606490fd5b156112ae57565b60405162461bcd60e51b815260206004820152600f60248201526e496e76616c6964206164647265737360881b6044820152606490fd5b156112ec57565b60405162461bcd60e51b815260206004820152601c60248201527f4e6f2070656e64696e672073656564207265656c73206368616e6765000000006044820152606490fd5b8181029291811591840414171561134457565b634e487b7160e01b600052601160045260246000fd5b6060810190811067ffffffffffffffff82111761137657604052565b634e487b7160e01b600052604160045260246000fd5b60a0810190811067ffffffffffffffff82111761137657604052565b6080810190811067ffffffffffffffff82111761137657604052565b90601f8019910116810190811067ffffffffffffffff82111761137657604052565b906060820191600f906000905b6003821061140057505050565b60016020819285548152019301910190916113f3565b5160098110156114235790565b634e487b7160e01b600052602160045260246000fd5b6001600160a01b03909116815260a0810193929160006020818185015b6003821061146957505050505060800152565b8451600981101561148857838281926001945201950191019093611456565b634e487b7160e01b85526021600452602485fd5b92919091600e548410611b6757600d548411611b22576114dc7f000000000000000000000000000000000000000000000000000000000000000085611331565b937f00000000000000000000000000000000000000000000000000000000000000009060018060a01b03928383169660409485519283916370a0823160e01b988984526004943086860152848d602098899160249889915afa908115611b1757600091611aea575b5010611aa8578a4210611a6657603c8b01808c11611a52574211611a1c57336000526013865288600020548b11156119da578a8980516115838161135a565b338152898982015201528851868101907f0e81d1cdf23bdc0a6bef5035503a1014285a41cc67c1e91e29d9211b707e3cf98252338b8201528860608201528c6080820152608081526115d48161138c565b51902089518781019161190160f01b83527f0000000000000000000000000000000000000000000000000000000000000000602283015260428201526042815261161d816113a8565b51902061162984611dc7565b906116368b5192836113c4565b848252368584011161184d57600088866116639761165b968387013784010152611fb2565b929092611fea565b80600254169116036119a65733600052601383528786600020556116b286516323b872dd60e01b858201523383820152306044820152856064820152606481526116ac8161138c565b86611def565b606086516116bf8161135a565b3690376116ce88600f54611f5a565b9660106116e96116e08b601054611f5a565b9a601154611f5a565b906116fe89519a6116f98c61135a565b611f1d565b9a60099b8c81101561199257906116f9611718928d611de3565b918b83101561197e57611732906116f9888d019485611de3565b918b83101561197e579186959493928b929c6117518c85019384611de3565b60009d8e9360019560015495905b868210611864575b505050505050505087519a8b938492835230908301525afa90811561185957600091611806575b507fd72e31f1d3eb925a37a1e52e74189cbc3bc8ca2290fbab21eba1d59ebe556040965085116117e95750906117d29184806117d7575b5050519283923384611439565b0390a1565b6117e2913390611d84565b38846117c5565b9350906117fb846117d2933390611d84565b519283923384611439565b905086813d8311611852575b61181c81836113c4565b8101031261184d577fd72e31f1d3eb925a37a1e52e74189cbc3bc8ca2290fbab21eba1d59ebe55604095513861178e565b600080fd5b503d611812565b84513d6000823e3d90fd5b6118789192939495969798999a9b50611416565b6118818261117e565b509060ff80925416908682101561196a578681101561196a57149081611937575b816118f1575b506118c0578601908a9998979695949392918f61175f565b92505050879695949c506118e39392506118da915061117e565b50015486611331565b98388080808080808f611767565b90506118fc83611416565b906119068361117e565b5054851c16908582101561192357858110156119235714386118a8565b8a60218d634e487b7160e01b600052526000fd5b905061194286611416565b8161194c8461117e565b505460081c16908682101561196a578681101561196a5714906118a2565b8b60218e634e487b7160e01b600052526000fd5b84602187634e487b7160e01b600052526000fd5b85602188634e487b7160e01b600052526000fd5b60119060649387519362461bcd60e51b855284015282015270496e76616c6964207369676e617475726560781b6044820152fd5b885162461bcd60e51b81528086018790526017818601527f54696d657374616d70206d757374206265206e657765720000000000000000006044820152606490fd5b885162461bcd60e51b815280860187905260118186015270151a5b595cdd185b5c08195e1c1a5c9959607a1b6044820152606490fd5b84601187634e487b7160e01b600052526000fd5b885162461bcd60e51b81528086018790526019818601527f54696d657374616d702066726f6d2074686520667574757265000000000000006044820152606490fd5b885162461bcd60e51b8152808601879052601f818601527f436f6e74726163742068617320696e73756666696369656e742066756e6473006044820152606490fd5b90508781813d8311611b10575b611b0181836113c4565b8101031261184d575138611544565b503d611af7565b8b513d6000823e3d90fd5b60405162461bcd60e51b815260206004820152601960248201527f4265742065786365656473206d6178696d756d206c696d6974000000000000006044820152606490fd5b60405162461bcd60e51b815260206004820152603f60248201527f5468652062657420616d6f756e74206d7573742062652067726561746572207460448201527f68616e20746865206d696e696d756d2072657175697265642076616c75652e006064820152608490fd5b15611bd957565b60405162461bcd60e51b815260206004820152603260248201527f546865206d617869756d206265742076616c75652067726561746572207468616044820152716e206d696e69756d206265742076616c756560701b6064820152608490fd5b15611c4057565b60405162461bcd60e51b815260206004820152601a60248201527f4e6f2070656e64696e6720677561726469616e206368616e67650000000000006044820152606490fd5b15611c8c57565b60405162461bcd60e51b815260206004820152602860248201527f4d75737420776169742033206461797320746f20636f6e6669726d2061646d696044820152676e206368616e676560c01b6064820152608490fd5b15611ce957565b60405162461bcd60e51b815260206004820152601760248201527f4e6f2070656e64696e672061646d696e206368616e67650000000000000000006044820152606490fd5b600260005414611d3f576002600055565b60405162461bcd60e51b815260206004820152601f60248201527f5265656e7472616e637947756172643a207265656e7472616e742063616c6c006044820152606490fd5b60405163a9059cbb60e01b60208201526001600160a01b03929092166024830152604480830193909352918152611dc591611dc06064836113c4565b611def565b565b67ffffffffffffffff811161137657601f01601f191660200190565b60098210156114235752565b60018060a01b031690604051604081019080821067ffffffffffffffff83111761137657611e7f916040526020938482527f5361666545524332303a206c6f772d6c6576656c2063616c6c206661696c6564858301526000808587829751910182855af13d15611f15573d91611e6483611dc7565b92611e7260405194856113c4565b83523d868885013e61217d565b805191821591848315611ef1575b505050905015611e9a5750565b6084906040519062461bcd60e51b82526004820152602a60248201527f5361666545524332303a204552433230206f7065726174696f6e20646964206e6044820152691bdd081cdd58d8d9595960b21b6064820152fd5b9193818094500103126101db57820151908115158203610247575080388084611e8d565b60609161217d565b6000194301438111611344576009916040519060208201923360601b8452406034830152605482015260548152611f53816113a8565b5190200690565b90600019430190438211611344576040519060208201923360601b8452406034830152605482015260548152611f8f816113a8565b5190208115611f9c570690565b634e487b7160e01b600052601260045260246000fd5b906041815114600014611fe057611fdc916020820151906060604084015193015160001a906120ee565b9091565b5050600090600290565b60058110156114235780611ffb5750565b600181036120485760405162461bcd60e51b815260206004820152601860248201527f45434453413a20696e76616c6964207369676e617475726500000000000000006044820152606490fd5b600281036120955760405162461bcd60e51b815260206004820152601f60248201527f45434453413a20696e76616c6964207369676e6174757265206c656e677468006044820152606490fd5b60031461209e57565b60405162461bcd60e51b815260206004820152602260248201527f45434453413a20696e76616c6964207369676e6174757265202773272076616c604482015261756560f01b6064820152608490fd5b9291907f7fffffffffffffffffffffffffffffff5d576e7357a4501ddfe92f46681b20a083116121715791608094939160ff602094604051948552168484015260408301526060820152600093849182805260015afa156121645781516001600160a01b0381161561215e579190565b50600190565b50604051903d90823e3d90fd5b50505050600090600390565b919290156121df5750815115612191575090565b3b1561219a5790565b60405162461bcd60e51b815260206004820152601d60248201527f416464726573733a2063616c6c20746f206e6f6e2d636f6e74726163740000006044820152606490fd5b8251909150156121f25750805190602001fd5b6040519062461bcd60e51b82528160208060048301528251908160248401526000935b828510612238575050604492506000838284010152601f80199101168101030190fd5b848101820151868601604401529381019385935061221556fea2646970667358221220bbce848d642cde83f9f497e05fae790789d583cd408d035d3570d926d612107c64736f6c63430008180033",
  "linkReferences": {},
  "deployedLinkReferences": {}
}