{
  "_format": "hh-sol-artifact-1",
  "contractName": "Plinko",
  "sourceName": "contracts/Plinko.sol",
  "abi": [
    {
      "inputs": [
        {
          "internalType": "address",
          "name": "_guardian",
          "type": "address"
        },
        {
          "internalType": "address",
          "name": "_admin",
          "type": "address"
        },
        {
          "internalType": "address",
          "name": "_token",
          "type": "address"
        },
        {
          "internalType": "uint256",
          "name": "_minBetValue",
          "type": "uint256"
        },
        {
          "internalType": "uint256",
          "name": "_maxBetValue",
          "type": "uint256"
        }
      ],
      "stateMutability": "payable",
      "type": "constructor"
    },
    {
      "anonymous": false,
      "inputs": [],
      "name": "AdminChangeCancelled",
      "type": "event"
    },
    {
      "anonymous": false,
      "inputs": [
        {
          "indexed": false,
          "internalType": "address",
          "name": "newAdmin",
          "type": "address"
        },
        {
          "indexed": false,
          "internalType": "uint256",
          "name": "requestTime",
          "type": "uint256"
        }
      ],
      "name": "AdminChangeRequested",
      "type": "event"
    },
    {
      "anonymous": false,
      "inputs": [
        {
          "indexed": false,
          "internalType": "address",
          "name": "newAdmin",
          "type": "address"
        }
      ],
      "name": "AdminChanged",
      "type": "event"
    },
    {
      "anonymous": false,
      "inputs": [
        {
          "indexed": false,
          "internalType": "address",
          "name": "admin",
          "type": "address"
        },
        {
          "indexed": false,
          "internalType": "uint256",
          "name": "maxBetValue",
          "type": "uint256"
        }
      ],
      "name": "ChangedMaxBetValue",
      "type": "event"
    },
    {
      "anonymous": false,
      "inputs": [
        {
          "indexed": false,
          "internalType": "address",
          "name": "admin",
          "type": "address"
        },
        {
          "indexed": false,
          "internalType": "uint256",
          "name": "minBetValue",
          "type": "uint256"
        }
      ],
      "name": "ChangedMinBetValue",
      "type": "event"
    },
    {
      "anonymous": false,
      "inputs": [
        {
          "indexed": false,
          "internalType": "address",
          "name": "by",
          "type": "address"
        }
      ],
      "name": "ContractLocked",
      "type": "event"
    },
    {
      "anonymous": false,
      "inputs": [
        {
          "indexed": false,
          "internalType": "address",
          "name": "by",
          "type": "address"
        }
      ],
      "name": "ContractUnlocked",
      "type": "event"
    },
    {
      "anonymous": false,
      "inputs": [],
      "name": "GuardianChangeCancelled",
      "type": "event"
    },
    {
      "anonymous": false,
      "inputs": [
        {
          "indexed": false,
          "internalType": "address",
          "name": "newGuardian",
          "type": "address"
        },
        {
          "indexed": false,
          "internalType": "uint256",
          "name": "requestTime",
          "type": "uint256"
        }
      ],
      "name": "GuardianChangeRequested",
      "type": "event"
    },
    {
      "anonymous": false,
      "inputs": [
        {
          "indexed": false,
          "internalType": "address",
          "name": "newGuardian",
          "type": "address"
        }
      ],
      "name": "GuardianChanged",
      "type": "event"
    },
    {
      "anonymous": false,
      "inputs": [
        {
          "indexed": false,
          "internalType": "address",
          "name": "user",
          "type": "address"
        },
        {
          "indexed": false,
          "internalType": "uint256[]",
          "name": "balls",
          "type": "uint256[]"
        },
        {
          "indexed": false,
          "internalType": "uint256",
          "name": "amount",
          "type": "uint256"
        }
      ],
      "name": "Result",
      "type": "event"
    },
    {
      "anonymous": false,
      "inputs": [],
      "name": "WinProbabilityChangeCancelled",
      "type": "event"
    },
    {
      "anonymous": false,
      "inputs": [
        {
          "indexed": false,
          "internalType": "uint256",
          "name": "winProbability",
          "type": "uint256"
        }
      ],
      "name": "WinProbabilityChanged",
      "type": "event"
    },
    {
      "anonymous": false,
      "inputs": [
        {
          "indexed": false,
          "internalType": "uint256",
          "name": "winProbability",
          "type": "uint256"
        }
      ],
      "name": "WinProbabilityRequested",
      "type": "event"
    },
    {
      "anonymous": false,
      "inputs": [
        {
          "indexed": false,
          "internalType": "address",
          "name": "to",
          "type": "address"
        },
        {
          "indexed": false,
          "internalType": "uint256",
          "name": "amount",
          "type": "uint256"
        }
      ],
      "name": "WithdrawFund",
      "type": "event"
    },
    {
      "anonymous": false,
      "inputs": [],
      "name": "WithdrawFundCancelled",
      "type": "event"
    },
    {
      "anonymous": false,
      "inputs": [
        {
          "indexed": false,
          "internalType": "uint256",
          "name": "requestTime",
          "type": "uint256"
        }
      ],
      "name": "WithdrawFundRequested",
      "type": "event"
    },
    {
      "inputs": [],
      "name": "admin",
      "outputs": [
        {
          "internalType": "address",
          "name": "",
          "type": "address"
        }
      ],
      "stateMutability": "view",
      "type": "function"
    },
    {
      "inputs": [],
      "name": "cancelAdminChange",
      "outputs": [],
      "stateMutability": "nonpayable",
      "type": "function"
    },
    {
      "inputs": [],
      "name": "cancelGuardianChange",
      "outputs": [],
      "stateMutability": "nonpayable",
      "type": "function"
    },
    {
      "inputs": [],
      "name": "cancelWinProbabilityChange",
      "outputs": [],
      "stateMutability": "nonpayable",
      "type": "function"
    },
    {
      "inputs": [],
      "name": "cancelWithdrawFund",
      "outputs": [],
      "stateMutability": "nonpayable",
      "type": "function"
    },
    {
      "inputs": [
        {
          "internalType": "uint256",
          "name": "_maxBetValue",
          "type": "uint256"
        }
      ],
      "name": "changeMaxBetValue",
      "outputs": [],
      "stateMutability": "nonpayable",
      "type": "function"
    },
    {
      "inputs": [
        {
          "internalType": "uint256",
          "name": "_minBetValue",
          "type": "uint256"
        }
      ],
      "name": "changeMinBetValue",
      "outputs": [],
      "stateMutability": "nonpayable",
      "type": "function"
    },
    {
      "inputs": [],
      "name": "confirmAdminChange",
      "outputs": [],
      "stateMutability": "nonpayable",
      "type": "function"
    },
    {
      "inputs": [],
      "name": "confirmChangeGuardian",
      "outputs": [],
      "stateMutability": "nonpayable",
      "type": "function"
    },
    {
      "inputs": [],
      "name": "confirmChangeWinProbability",
      "outputs": [],
      "stateMutability": "nonpayable",
      "type": "function"
    },
    {
      "inputs": [],
      "name": "guardian",
      "outputs": [
        {
          "internalType": "address",
          "name": "",
          "type": "address"
        }
      ],
      "stateMutability": "view",
      "type": "function"
    },
    {
      "inputs": [],
      "name": "isLocked",
      "outputs": [
        {
          "internalType": "bool",
          "name": "",
          "type": "bool"
        }
      ],
      "stateMutability": "view",
      "type": "function"
    },
    {
      "inputs": [
        {
          "internalType": "address",
          "name": "",
          "type": "address"
        }
      ],
      "name": "lastTimestamp",
      "outputs": [
        {
          "internalType": "uint256",
          "name": "",
          "type": "uint256"
        }
      ],
      "stateMutability": "view",
      "type": "function"
    },
    {
      "inputs": [],
      "name": "lockContract",
      "outputs": [],
      "stateMutability": "nonpayable",
      "type": "function"
    },
    {
      "inputs": [],
      "name": "maxRewardMultiply",
      "outputs": [
        {
          "internalType": "uint256",
          "name": "",
          "type": "uint256"
        }
      ],
      "stateMutability": "view",
      "type": "function"
    },
    {
      "inputs": [],
      "name": "maxiumBetPerBall",
      "outputs": [
        {
          "internalType": "uint256",
          "name": "",
          "type": "uint256"
        }
      ],
      "stateMutability": "view",
      "type": "function"
    },
    {
      "inputs": [],
      "name": "maxiumBetValue",
      "outputs": [
        {
          "internalType": "uint256",
          "name": "",
          "type": "uint256"
        }
      ],
      "stateMutability": "view",
      "type": "function"
    },
    {
      "inputs": [],
      "name": "maxiumPlacedBall",
      "outputs": [
        {
          "internalType": "uint256",
          "name": "",
          "type": "uint256"
        }
      ],
      "stateMutability": "view",
      "type": "function"
    },
    {
      "inputs": [],
      "name": "miniumBetValue",
      "outputs": [
        {
          "internalType": "uint256",
          "name": "",
          "type": "uint256"
        }
      ],
      "stateMutability": "view",
      "type": "function"
    },
    {
      "inputs": [],
      "name": "pendingAdmin",
      "outputs": [
        {
          "internalType": "address",
          "name": "",
          "type": "address"
        }
      ],
      "stateMutability": "view",
      "type": "function"
    },
    {
      "inputs": [],
      "name": "pendingAdminChangeTime",
      "outputs": [
        {
          "internalType": "uint256",
          "name": "",
          "type": "uint256"
        }
      ],
      "stateMutability": "view",
      "type": "function"
    },
    {
      "inputs": [],
      "name": "pendingGuardian",
      "outputs": [
        {
          "internalType": "address",
          "name": "",
          "type": "address"
        }
      ],
      "stateMutability": "view",
      "type": "function"
    },
    {
      "inputs": [],
      "name": "pendingGuardianChangeTime",
      "outputs": [
        {
          "internalType": "uint256",
          "name": "",
          "type": "uint256"
        }
      ],
      "stateMutability": "view",
      "type": "function"
    },
    {
      "inputs": [],
      "name": "pendingWinProbability",
      "outputs": [
        {
          "internalType": "uint256",
          "name": "",
          "type": "uint256"
        }
      ],
      "stateMutability": "view",
      "type": "function"
    },
    {
      "inputs": [],
      "name": "pendingWinProbabilityChangeTime",
      "outputs": [
        {
          "internalType": "uint256",
          "name": "",
          "type": "uint256"
        }
      ],
      "stateMutability": "view",
      "type": "function"
    },
    {
      "inputs": [],
      "name": "pendingWithdrawFundTime",
      "outputs": [
        {
          "internalType": "uint256",
          "name": "",
          "type": "uint256"
        }
      ],
      "stateMutability": "view",
      "type": "function"
    },
    {
      "inputs": [
        {
          "internalType": "uint256",
          "name": "_numBall",
          "type": "uint256"
        },
        {
          "internalType": "uint256",
          "name": "_amount",
          "type": "uint256"
        },
        {
          "internalType": "uint256",
          "name": "_timestamp",
          "type": "uint256"
        },
        {
          "internalType": "bytes",
          "name": "signature",
          "type": "bytes"
        }
      ],
      "name": "placeBet",
      "outputs": [],
      "stateMutability": "payable",
      "type": "function"
    },
    {
      "inputs": [
        {
          "internalType": "address",
          "name": "newAdmin",
          "type": "address"
        }
      ],
      "name": "requestAdminChange",
      "outputs": [],
      "stateMutability": "nonpayable",
      "type": "function"
    },
    {
      "inputs": [
        {
          "internalType": "address",
          "name": "newGuardian",
          "type": "address"
        }
      ],
      "name": "requestChangeGuardian",
      "outputs": [],
      "stateMutability": "nonpayable",
      "type": "function"
    },
    {
      "inputs": [
        {
          "internalType": "uint256",
          "name": "_winProbability",
          "type": "uint256"
        }
      ],
      "name": "requestChangeWinProbability",
      "outputs": [],
      "stateMutability": "nonpayable",
      "type": "function"
    },
    {
      "inputs": [],
      "name": "requestWithdrawFund",
      "outputs": [],
      "stateMutability": "nonpayable",
      "type": "function"
    },
    {
      "inputs": [
        {
          "internalType": "uint256",
          "name": "",
          "type": "uint256"
        }
      ],
      "name": "rewards",
      "outputs": [
        {
          "internalType": "uint256",
          "name": "",
          "type": "uint256"
        }
      ],
      "stateMutability": "view",
      "type": "function"
    },
    {
      "inputs": [],
      "name": "token",
      "outputs": [
        {
          "internalType": "contract IERC20",
          "name": "",
          "type": "address"
        }
      ],
      "stateMutability": "view",
      "type": "function"
    },
    {
      "inputs": [],
      "name": "unlockContract",
      "outputs": [],
      "stateMutability": "nonpayable",
      "type": "function"
    },
    {
      "inputs": [],
      "name": "winProbability",
      "outputs": [
        {
          "internalType": "uint256",
          "name": "",
          "type": "uint256"
        }
      ],
      "stateMutability": "view",
      "type": "function"
    },
    {
      "inputs": [
        {
          "internalType": "uint256",
          "name": "amount",
          "type": "uint256"
        }
      ],
      "name": "withdrawFund",
      "outputs": [],
      "stateMutability": "nonpayable",
      "type": "function"
    }
  ],
  "bytecode": "0x60e0604090808252806200278980380380916200001d82856200046d565b833960a0928391810103126200043657620000388162000491565b926020906200004982840162000491565b926200005782820162000491565b906080606082015191015160019560009387855560ff19601054166010558215620003ee57831562000395578383106200033e576001600160a01b039081166080819052600280546001600160a01b03199081169484169490941790556003805490931691909a16179055600a8655600b55600c55815163313ce56760e01b815294958390869060049082905afa94851562000332578195620002ee575b5060ff809516604d8111620002da57600a0a600d556005600e81905582516001600160401b03969088810188811182821017620002c6578552838152600a86820152600b858201526015606082015260386080820152600f546005600f55806005106200029a575b5090600f84528584209087855b8581106200028557505050505050603860c05260068383516200018d816200043b565b8281520165506c696e6b6f60d01b81522093838351620001ad816200043b565b82815201603160f81b8152208251938401947f8b73c3c69bb8fe3d512ecc4cf759cc79239f7b179b0ffacaa9a75d522b39400f8652838501526060840152466080840152308684015285835260c08301948386109086111762000271575083905251902082526122c29182620004a783396080518281816101c20152818161063001528181610f4d0152818161130c015281816114d5015281816115c20152818161167a01526116ac015251816113eb015260c05181818161056b01526112be0152f35b634e487b7160e01b81526041600452602490fd5b8883865116950194818501550188906200016a565b600f855287600588872092830192015b828110620002ba5750506200015d565b868155018890620002aa565b634e487b7160e01b85526041600452602485fd5b634e487b7160e01b82526011600452602482fd5b9094508281813d83116200032a575b6200030981836200046d565b8101031262000326575160ff8116810362000326579338620000f5565b8480fd5b503d620002fd565b509051903d90823e3d90fd5b6084878780519162461bcd60e51b8352600483015260248201526000805160206200276983398151915260448201527f6561746572207468616e20746865206d696e696d756d206265742076616c75656064820152fd5b855162461bcd60e51b815260048101889052602c60248201527f546865206d696e696d756d206265742076616c7565206d75737420626520677260448201526b06561746572207468616e20360a41b6064820152608490fd5b855162461bcd60e51b815260048101889052602c60248201526000805160206200276983398151915260448201526b06561746572207468616e20360a41b6064820152608490fd5b600080fd5b604081019081106001600160401b038211176200045757604052565b634e487b7160e01b600052604160045260246000fd5b601f909101601f19168101906001600160401b038211908210176200045757604052565b51906001600160a01b0382168203620004365756fe6040608081526004908136101561001557600080fd5b600091823560e01c9081630cee172514610eb15781631157b26714610e505781631617f19014610e3157816322f0f2f914610dd45781632678224714610dac57816328fc8b6814610d095781632e02394e14610cea5781633ab0f33014610ccb5781633b116d2714610c5e578163452a932014610c355781634addd5f614610be0578163677660e014610b1157816369f2941d14610af257816371d0008614610a4c578163753868e3146109ec578163762c31ba146109c357816376a4b8ae146109a4578163847d1e90146108f65781638c51d1e4146108545781639a138974146107575781639d1c35e2146105df5781639e0906281461058e578163a48158e514610553578163a4e2d6341461052f578163a74b67831461046f578163a9860b9714610450578163ba8a305c14610431578163bff42fe414610412578163dccfac82146103d8578163e065fc9314610303578163e1d8192c146102e4578163ed3cacc1146102c5578163f301af421461028857508063f851a44014610260578063fb49fe27146101f55763fc0c546a146101af57600080fd5b346101f157816003193601126101f157517f00000000000000000000000000000000000000000000000000000000000000006001600160a01b03168152602090f35b5080fd5b823461025d578060031936011261025d5761021b60018060a01b03600354163314611179565b6bffffffffffffffffffffffff60a01b60065416600655806007557f7a81c642828249ae51a34cf52e35ebbf08bd3cb36fb5a4b4c8e80261893f5b818180a180f35b80fd5b50346101f157816003193601126101f15760025490516001600160a01b039091168152602090f35b9050346102c15760203660031901126102c1573591600f5483101561025d57506102b360209261107c565b91905490519160031b1c8152f35b8280fd5b5050346101f157816003193601126101f1576020906007549051908152f35b5050346101f157816003193601126101f1576020906009549051908152f35b919050346102c15760203660031901126102c15781359161032f60018060a01b036002541633146110c9565b821561038a57507fa9f6ef469a02717105903bbce25c47a4db6a0d759d929c5cd9bf295a7033b1749161038491610369600c548311611c6c565b600b8290555133815260208101919091529081906040820190565b0390a180f35b6020608492519162461bcd60e51b8352820152602360248201527f546865206d617869756d206265742076616c756520677265617465722074686160448201526206e20360ec1b6064820152fd5b9050346102c15760203660031901126102c157356001600160a01b038116908190036102c157828291602094526011845220549051908152f35b5050346101f157816003193601126101f1576020906005549051908152f35b5050346101f157816003193601126101f157602090600b549051908152f35b5050346101f157816003193601126101f157602090600a549051908152f35b8383346101f157816003193601126101f1576002546001600160a01b03919061049b33848316146110c9565b8454928316926104ac841515611dd2565b6005546104ba811515611dd2565b6203f480810180911161051c577f7ce7ec0b50378fb6c0186ffb5f48325f6593fcb4ca4386f21861af3129188f5c9492602094926104fb8993421015611d1f565b6001600160a01b03199182168517600255169055600585905551908152a180f35b634e487b7160e01b865260118752602486fd5b5050346101f157816003193601126101f15760209060ff6010541690519015158152f35b5050346101f157816003193601126101f157602090517f00000000000000000000000000000000000000000000000000000000000000008152f35b833461025d578060031936011261025d576105b460018060a01b03600354163314611179565b806008557f94a9b8fb6e694c6c0fbee0e13e1c5b9ae2dda4395e3495228a46dc717617c6fa8180a180f35b839150346101f157816003193601126101f1576002546001600160a01b03919061060c90831633146110c9565b60085461070a57835180926370a0823160e01b8252308383015281602460209586937f0000000000000000000000000000000000000000000000000000000000000000165afa9081156107005784916106cf575b501561069657507fe20350bd5ff90b7bdbcb8229cf46c222a5f5b18f094a1ac5962451445fda107691924260085551428152a180f35b60649184519162461bcd60e51b835282015260156024820152744e6f20746f6b656e7320746f20776974686472617760581b6044820152fd5b90508281813d83116106f9575b6106e68183611264565b810103126106f5575185610660565b8380fd5b503d6106dc565b85513d86823e3d90fd5b608490602085519162461bcd60e51b8352820152602160248201527f5769746864726177616c207265717565737420697320696e2070726f677265736044820152607360f81b6064820152fd5b919050346102c157826003193601126102c15761077f60018060a01b036002541633146110c9565b6009549161078e831515611d7c565b600a5461079c811515611d7c565b6203f48081018091116108415742106107e95750816020917f9dc86596ca5f70a96c96b2cb0be04f02b7da0a6261f97d43cebcc921020b1925936001558460095584600a5551908152a180f35b6020608492519162461bcd60e51b8352820152602d60248201527f4d75737420776169742033206461797320746f20636f6e6669726d207365656460448201526c207265656c73206368616e676560981b6064820152fd5b634e487b7160e01b855260118252602485fd5b919050346102c15760203660031901126102c15781356001600160a01b03818116939092908483036108f2577f72b357b8c271031aad940e03e51f8c172b495a1dd60d6e902d339c7f49604102946108b4610384956002541633146110c9565b6108bf8115156111c5565b81546001600160a01b03191617905542600581905590516001600160a01b03909216825260208201529081906040820190565b8580fd5b8383346101f157816003193601126101f1576003546001600160a01b0391906109223384831614611179565b60065492831692610934841515611cd3565b600754610942811515611cd3565b6203f480810180911161051c5791602093916109827f01c6520cf747e4632b43b535b91afe3950ccabc4ab29bbd89e3c1f6b0ba056559694421015611d1f565b6001600160a01b0319918216841760035516600655600785905551908152a180f35b5050346101f157816003193601126101f157602090600e549051908152f35b5050346101f157816003193601126101f15760065490516001600160a01b039091168152602090f35b5050346101f157816003193601126101f15760207f46a289a85516d6b63cec7f685e3f5398070f9fc5fb8e3d14021add023fec568f91610a3760018060a01b03600354163314611179565b600160ff19601054161760105551338152a180f35b919050346102c15760203660031901126102c157813591610a7860018060a01b036002541633146110c9565b6032831015610ab75750816020917f9b161a37c93b297fe93d8f6f47f959bb91bd34a421b3892b0c91674ce107fb249360095542600a5551908152a180f35b6020606492519162461bcd60e51b83528201526016602482015275496e76616c69642077696e50726f626162696c69747960501b6044820152fd5b5050346101f157816003193601126101f1576020906001549051908152f35b919050346102c15760203660031901126102c157813591610b3d60018060a01b036002541633146110c9565b8215610b9257508161038491610b777f96fd935283ebe139eff1231ba7e60b91334b7e1e1c67c91c68b58f8d4a7b211f94600b5411611c6c565b600c8290555133815260208101919091529081906040820190565b6020608492519162461bcd60e51b8352820152602360248201527f546865206d696e69756d206265742076616c756520677265617465722074686160448201526206e20360ec1b6064820152fd5b833461025d578060031936011261025d57610c0660018060a01b036002541633146110c9565b8060095580600a557f9ef48cacefe12ab0a801d57bc51beb3a36523278e29346ed78249364434565028180a180f35b5050346101f157816003193601126101f15760035490516001600160a01b039091168152602090f35b839060803660031901126101f1576064359067ffffffffffffffff908183116106f557366023840112156106f557828101359182116106f55736602483850101116106f5576024610cc893610cb860ff6010541615611115565b0190604435906024359035611286565b80f35b5050346101f157816003193601126101f1576020906008549051908152f35b5050346101f157816003193601126101f157602090600d549051908152f35b9050346102c15760203660031901126102c1576001600160a01b03903581811692838203610da8577f6c437b1584202b77482374dd2215b75e975b0be0768b92ed5e4b048b0e10987993610d6561038494600354163314611179565b610d708115156111c5565b600680546001600160a01b03191691909117905542600781905590516001600160a01b03909216825260208201529081906040820190565b8480fd5b9050346102c157826003193601126102c1575490516001600160a01b03909116815260209150f35b5050346101f157816003193601126101f15760207ff08396b9fd122c2ef99aec183d994d39fa54cc25773e4b8a6ed20ad08aef02c991610e1f60018060a01b03600354163314611179565b60ff196010541660105551338152a180f35b5050346101f157816003193601126101f157602090600c549051908152f35b8390346101f157816003193601126101f157610e7760018060a01b03600354163314611179565b80546001600160a01b031916905560058190557f07ad662e4db36fe46ee1697376f8457b103123c200de262ca4baf9f5cad0a1e88180a180f35b839150346101f15760203660031901126101f1576002548135916001600160a01b0391821690610ee23383146110c9565b60028554146110395760028555610efe60ff6010541615611115565b60085480156110005762093a808101809111610fed574210610f9f5750839491610f7184610f95937f09ad672d4e7c4892da934d1051932ebe9ec4b6ec8c3f40d569176db3e93e5abe976008557f0000000000000000000000000000000000000000000000000000000000000000611e1e565b600254925192166001600160a01b0316825260208201929092529081906040820190565b0390a16001815580f35b608490602087519162461bcd60e51b8352820152602260248201527f4d75737420776169742037206461797320746f2077697468647261772066756e604482015261647360f01b6064820152fd5b634e487b7160e01b865260118252602486fd5b865162461bcd60e51b815260208184015260136024820152724e6f2070656e64696e6720776974686472617760681b6044820152606490fd5b606490602087519162461bcd60e51b8352820152601f60248201527f5265656e7472616e637947756172643a207265656e7472616e742063616c6c006044820152fd5b600f548110156110b357600f6000527f8d1108e10bcb7c27dddfc02ed9d693a074039d026cf4ea4240b40f7d581ac8020190600090565b634e487b7160e01b600052603260045260246000fd5b156110d057565b60405162461bcd60e51b815260206004820152601b60248201527f4f6e6c792061646d696e2063616e2065786563757465207468697300000000006044820152606490fd5b1561111c57565b60405162461bcd60e51b815260206004820152601260248201527110dbdb9d1c9858dd081a5cc81b1bd8dad95960721b6044820152606490fd5b9190820180921161116357565b634e487b7160e01b600052601160045260246000fd5b1561118057565b60405162461bcd60e51b815260206004820152601e60248201527f4f6e6c7920677561726469616e2063616e2065786563757465207468697300006044820152606490fd5b156111cc57565b60405162461bcd60e51b815260206004820152600f60248201526e496e76616c6964206164647265737360881b6044820152606490fd5b8181029291811591840414171561116357565b6060810190811067ffffffffffffffff82111761123257604052565b634e487b7160e01b600052604160045260246000fd5b60a0810190811067ffffffffffffffff82111761123257604052565b90601f8019910116810190811067ffffffffffffffff82111761123257604052565b9392909192600c548310611c0157600b548311611bbc578415611b6457600e548511611b0257600d5485840411611a9757600a6112e37f000000000000000000000000000000000000000000000000000000000000000085611203565b6040516370a0823160e01b81523060048201526001600160a01b039492909104906020816024817f000000000000000000000000000000000000000000000000000000000000000089165afa90811561177a57600091611a65575b5010611a20578442106119db57603c85018086116111635742116119a25733600052601160205260406000205485111561195d57846040805161138081611216565b33815286602082015201526040517f0e81d1cdf23bdc0a6bef5035503a1014285a41cc67c1e91e29d9211b707e3cf96020820152336040820152846060820152856080820152608081526113d381611248565b602081519101206040519061190160f01b60208301527f0000000000000000000000000000000000000000000000000000000000000000602283015260428201526042815280608081011067ffffffffffffffff60808301111761123257608081016040526020815191012061144883611e61565b906114566040519283611264565b838252368484011161176d5760006020856114849661147c968387013784010152611fd7565b91909161200f565b81806002541691160361192457336000526011602052826040600020556114f96040516323b872dd60e01b6020820152336024820152306044820152836064820152606481526114d381611248565b7f0000000000000000000000000000000000000000000000000000000000000000611ea9565b61150284611e7d565b926115106040519485611264565b84845261151c85611e7d565b601f19013660208601376040519061153382611216565b60048252600260208301526003604083015260405180604081011067ffffffffffffffff60408301111761123257604081016040526001815260006020820152600091600154916000194301914383115b8a86106117c65750505050505050600093835185915b818310611786575050506020602491604051928380926370a0823160e01b82523060048301527f0000000000000000000000000000000000000000000000000000000000000000165afa90811561177a57600091611743575b5083116116a3575081611673575b604051916060830133845260606020850152825180915260206080850193019060005b81811061165d575050509180917fa7770222a2f5520a0254ee36217269a0af4529aceacbce72c4a9dbb4f26af6719360408301520390a1565b8251855260209485019490920191600101611624565b61169e82337f0000000000000000000000000000000000000000000000000000000000000000611e1e565b611601565b6116d0919250337f0000000000000000000000000000000000000000000000000000000000000000611e1e565b604051906060820133835260606020840152815180915260206080840192019060005b81811061172d5750505090807fa7770222a2f5520a0254ee36217269a0af4529aceacbce72c4a9dbb4f26af67192600060408301520390a1565b82518452602093840193909201916001016116f3565b90506020813d602011611772575b8161175e60209383611264565b8101031261176d5751386115f3565b600080fd5b3d9150611751565b6040513d6000823e3d90fd5b9091956117bd600191600a6117b66117a76117a18c8c611e95565b5161107c565b90549060031b1c868a04611203565b0490611156565b9601919061159a565b60028601861161116357611163576064946103e860405160208101903360601b8252864060348201524460548201526002840160748201526074815261180b81611248565b519020066118198184611156565b9086600098899360405160208101913360601b83528a40603483015244605483015260748201526074815261184d81611248565b5190200610156118c0576118619084611156565b906111635760039060405160208101913360601b83528740603483015244605483015260748201526074815261189681611248565b519020069060038210156110b35760019160051b8801516118b7828d611e95565b525b0194611584565b6118cb915083611156565b60405160208101913360601b8352864060348301524460548301526074820152607481526118f881611248565b5190209060026001831610156110b357602060019260051b1684015161191e828d611e95565b526118b9565b60405162461bcd60e51b8152602060048201526011602482015270496e76616c6964207369676e617475726560781b6044820152606490fd5b60405162461bcd60e51b815260206004820152601760248201527f54696d657374616d70206d757374206265206e657765720000000000000000006044820152606490fd5b60405162461bcd60e51b8152602060048201526011602482015270151a5b595cdd185b5c08195e1c1a5c9959607a1b6044820152606490fd5b60405162461bcd60e51b815260206004820152601960248201527f54696d657374616d702066726f6d2074686520667574757265000000000000006044820152606490fd5b60405162461bcd60e51b815260206004820152601f60248201527f436f6e74726163742068617320696e73756666696369656e742066756e6473006044820152606490fd5b90506020813d602011611a8f575b81611a8060209383611264565b8101031261176d57513861133e565b3d9150611a73565b60405162461bcd60e51b815260206004820152603760248201527f5468652062657420616d6f756e74207065722062616c6c2063616e6e6f74206560448201527f78636565642074686520616c6c6f776564206c696d69740000000000000000006064820152608490fd5b60405162461bcd60e51b815260206004820152603460248201527f546865206d6178696d756d20616c6c6f776564206e756d626572206f662062616044820152731b1b1cc81a185cc81899595b881c995858da195960621b6064820152608490fd5b60405162461bcd60e51b815260206004820152602a60248201527f546865206e756d626572206f662062616c6c73206d75737420626520677265616044820152690746572207468616e20360b41b6064820152608490fd5b60405162461bcd60e51b815260206004820152601960248201527f4265742065786365656473206d6178696d756d206c696d6974000000000000006044820152606490fd5b60405162461bcd60e51b815260206004820152603e60248201527f5468652062657420616d6f756e74206d7573742062652067726561746572207460448201527f68616e20746865206d696e696d756d2072657175697265642076616c756500006064820152608490fd5b15611c7357565b60405162461bcd60e51b815260206004820152603260248201527f546865206d617869756d206265742076616c75652067726561746572207468616044820152716e206d696e69756d206265742076616c756560701b6064820152608490fd5b15611cda57565b60405162461bcd60e51b815260206004820152601a60248201527f4e6f2070656e64696e6720677561726469616e206368616e67650000000000006044820152606490fd5b15611d2657565b60405162461bcd60e51b815260206004820152602860248201527f4d75737420776169742033206461797320746f20636f6e6669726d2061646d696044820152676e206368616e676560c01b6064820152608490fd5b15611d8357565b60405162461bcd60e51b815260206004820152602160248201527f4e6f2070656e64696e672077696e2070726f626162696c697479206368616e676044820152606560f81b6064820152608490fd5b15611dd957565b60405162461bcd60e51b815260206004820152601760248201527f4e6f2070656e64696e672061646d696e206368616e67650000000000000000006044820152606490fd5b60405163a9059cbb60e01b60208201526001600160a01b03929092166024830152604480830193909352918152611e5f91611e5a606483611264565b611ea9565b565b67ffffffffffffffff811161123257601f01601f191660200190565b67ffffffffffffffff81116112325760051b60200190565b80518210156110b35760209160051b010190565b60018060a01b031690604051604081019080821067ffffffffffffffff83111761123257611f39916040526020938482527f5361666545524332303a206c6f772d6c6576656c2063616c6c206661696c6564858301526000808587829751910182855af13d15611fcf573d91611f1e83611e61565b92611f2c6040519485611264565b83523d868885013e6121b8565b805191821591848315611fab575b505050905015611f545750565b6084906040519062461bcd60e51b82526004820152602a60248201527f5361666545524332303a204552433230206f7065726174696f6e20646964206e6044820152691bdd081cdd58d8d9595960b21b6064820152fd5b9193818094500103126101f15782015190811515820361025d575080388084611f47565b6060916121b8565b90604181511460001461200557612001916020820151906060604084015193015160001a90612129565b9091565b5050600090600290565b600581101561211357806120205750565b6001810361206d5760405162461bcd60e51b815260206004820152601860248201527f45434453413a20696e76616c6964207369676e617475726500000000000000006044820152606490fd5b600281036120ba5760405162461bcd60e51b815260206004820152601f60248201527f45434453413a20696e76616c6964207369676e6174757265206c656e677468006044820152606490fd5b6003146120c357565b60405162461bcd60e51b815260206004820152602260248201527f45434453413a20696e76616c6964207369676e6174757265202773272076616c604482015261756560f01b6064820152608490fd5b634e487b7160e01b600052602160045260246000fd5b9291907f7fffffffffffffffffffffffffffffff5d576e7357a4501ddfe92f46681b20a083116121ac5791608094939160ff602094604051948552168484015260408301526060820152600093849182805260015afa1561219f5781516001600160a01b03811615612199579190565b50600190565b50604051903d90823e3d90fd5b50505050600090600390565b9192901561221a57508151156121cc575090565b3b156121d55790565b60405162461bcd60e51b815260206004820152601d60248201527f416464726573733a2063616c6c20746f206e6f6e2d636f6e74726163740000006044820152606490fd5b82519091501561222d5750805190602001fd5b6040519062461bcd60e51b82528160208060048301528251908160248401526000935b828510612273575050604492506000838284010152601f80199101168101030190fd5b848101820151868601604401529381019385935061225056fea2646970667358221220bedc6e412b86072189862a6cfe2d11d940a0155d2865d7b459c2ce1ba20d2d4964736f6c63430008180033546865206d6178696d756d206265742076616c7565206d757374206265206772",
  "linkReferences": {},
  "deployedLinkReferences": {}
}