{
  "_format": "hh-sol-artifact-1",
  "contractName": "Highlow",
  "sourceName": "contracts/Highlow.sol",
  "abi": [
    {
      "inputs": [
        {
          "internalType": "address",
          "name": "_guardian",
          "type": "address"
        },
        {
          "internalType": "address",
          "name": "_admin",
          "type": "address"
        },
        {
          "internalType": "address",
          "name": "_token",
          "type": "address"
        },
        {
          "internalType": "uint256",
          "name": "_minBetValue",
          "type": "uint256"
        },
        {
          "internalType": "uint256",
          "name": "_maxBetValue",
          "type": "uint256"
        }
      ],
      "stateMutability": "payable",
      "type": "constructor"
    },
    {
      "anonymous": false,
      "inputs": [],
      "name": "AdminChangeCancelled",
      "type": "event"
    },
    {
      "anonymous": false,
      "inputs": [
        {
          "indexed": false,
          "internalType": "address",
          "name": "newAdmin",
          "type": "address"
        },
        {
          "indexed": false,
          "internalType": "uint256",
          "name": "requestTime",
          "type": "uint256"
        }
      ],
      "name": "AdminChangeRequested",
      "type": "event"
    },
    {
      "anonymous": false,
      "inputs": [
        {
          "indexed": false,
          "internalType": "address",
          "name": "newAdmin",
          "type": "address"
        }
      ],
      "name": "AdminChanged",
      "type": "event"
    },
    {
      "anonymous": false,
      "inputs": [
        {
          "indexed": false,
          "internalType": "address",
          "name": "admin",
          "type": "address"
        },
        {
          "indexed": false,
          "internalType": "uint256",
          "name": "maxBetValue",
          "type": "uint256"
        }
      ],
      "name": "ChangedMaxBetValue",
      "type": "event"
    },
    {
      "anonymous": false,
      "inputs": [
        {
          "indexed": false,
          "internalType": "address",
          "name": "admin",
          "type": "address"
        },
        {
          "indexed": false,
          "internalType": "uint256",
          "name": "minBetValue",
          "type": "uint256"
        }
      ],
      "name": "ChangedMinBetValue",
      "type": "event"
    },
    {
      "anonymous": false,
      "inputs": [
        {
          "indexed": false,
          "internalType": "address",
          "name": "by",
          "type": "address"
        }
      ],
      "name": "ContractLocked",
      "type": "event"
    },
    {
      "anonymous": false,
      "inputs": [
        {
          "indexed": false,
          "internalType": "address",
          "name": "by",
          "type": "address"
        }
      ],
      "name": "ContractUnlocked",
      "type": "event"
    },
    {
      "anonymous": false,
      "inputs": [],
      "name": "GuardianChangeCancelled",
      "type": "event"
    },
    {
      "anonymous": false,
      "inputs": [
        {
          "indexed": false,
          "internalType": "address",
          "name": "newGuardian",
          "type": "address"
        },
        {
          "indexed": false,
          "internalType": "uint256",
          "name": "requestTime",
          "type": "uint256"
        }
      ],
      "name": "GuardianChangeRequested",
      "type": "event"
    },
    {
      "anonymous": false,
      "inputs": [
        {
          "indexed": false,
          "internalType": "address",
          "name": "newGuardian",
          "type": "address"
        }
      ],
      "name": "GuardianChanged",
      "type": "event"
    },
    {
      "anonymous": false,
      "inputs": [
        {
          "indexed": false,
          "internalType": "address",
          "name": "user",
          "type": "address"
        },
        {
          "indexed": false,
          "internalType": "uint256",
          "name": "ssid",
          "type": "uint256"
        },
        {
          "components": [
            {
              "internalType": "uint256",
              "name": "id",
              "type": "uint256"
            },
            {
              "internalType": "uint256",
              "name": "value",
              "type": "uint256"
            }
          ],
          "indexed": false,
          "internalType": "struct Highlow.Card",
          "name": "betCard",
          "type": "tuple"
        },
        {
          "components": [
            {
              "internalType": "uint256",
              "name": "id",
              "type": "uint256"
            },
            {
              "internalType": "uint256",
              "name": "value",
              "type": "uint256"
            }
          ],
          "indexed": false,
          "internalType": "struct Highlow.Card",
          "name": "nextCard",
          "type": "tuple"
        },
        {
          "indexed": false,
          "internalType": "uint256",
          "name": "amount",
          "type": "uint256"
        }
      ],
      "name": "Result",
      "type": "event"
    },
    {
      "anonymous": false,
      "inputs": [
        {
          "indexed": false,
          "internalType": "uint256[3]",
          "name": "seedReels",
          "type": "uint256[3]"
        }
      ],
      "name": "SeedReelsChanged",
      "type": "event"
    },
    {
      "anonymous": false,
      "inputs": [
        {
          "indexed": false,
          "internalType": "uint256",
          "name": "ssid",
          "type": "uint256"
        },
        {
          "components": [
            {
              "internalType": "uint256",
              "name": "id",
              "type": "uint256"
            },
            {
              "internalType": "uint256",
              "name": "value",
              "type": "uint256"
            }
          ],
          "indexed": false,
          "internalType": "struct Highlow.Card",
          "name": "card",
          "type": "tuple"
        }
      ],
      "name": "StartGame",
      "type": "event"
    },
    {
      "anonymous": false,
      "inputs": [],
      "name": "WinProbabilityChangeCancelled",
      "type": "event"
    },
    {
      "anonymous": false,
      "inputs": [
        {
          "indexed": false,
          "internalType": "uint256",
          "name": "winProbability",
          "type": "uint256"
        }
      ],
      "name": "WinProbabilityChanged",
      "type": "event"
    },
    {
      "anonymous": false,
      "inputs": [
        {
          "indexed": false,
          "internalType": "uint256",
          "name": "winProbability",
          "type": "uint256"
        }
      ],
      "name": "WinProbabilityRequested",
      "type": "event"
    },
    {
      "anonymous": false,
      "inputs": [
        {
          "indexed": false,
          "internalType": "address",
          "name": "to",
          "type": "address"
        },
        {
          "indexed": false,
          "internalType": "uint256",
          "name": "amount",
          "type": "uint256"
        }
      ],
      "name": "WithdrawFund",
      "type": "event"
    },
    {
      "anonymous": false,
      "inputs": [],
      "name": "WithdrawFundCancelled",
      "type": "event"
    },
    {
      "anonymous": false,
      "inputs": [
        {
          "indexed": false,
          "internalType": "uint256",
          "name": "requestTime",
          "type": "uint256"
        }
      ],
      "name": "WithdrawFundRequested",
      "type": "event"
    },
    {
      "inputs": [],
      "name": "admin",
      "outputs": [
        {
          "internalType": "address",
          "name": "",
          "type": "address"
        }
      ],
      "stateMutability": "view",
      "type": "function"
    },
    {
      "inputs": [],
      "name": "cancelAdminChange",
      "outputs": [],
      "stateMutability": "nonpayable",
      "type": "function"
    },
    {
      "inputs": [],
      "name": "cancelGuardianChange",
      "outputs": [],
      "stateMutability": "nonpayable",
      "type": "function"
    },
    {
      "inputs": [],
      "name": "cancelWinProbabilityChange",
      "outputs": [],
      "stateMutability": "nonpayable",
      "type": "function"
    },
    {
      "inputs": [],
      "name": "cancelWithdrawFund",
      "outputs": [],
      "stateMutability": "nonpayable",
      "type": "function"
    },
    {
      "inputs": [
        {
          "internalType": "uint256",
          "name": "_maxBetValue",
          "type": "uint256"
        }
      ],
      "name": "changeMaxBetValue",
      "outputs": [],
      "stateMutability": "nonpayable",
      "type": "function"
    },
    {
      "inputs": [
        {
          "internalType": "uint256",
          "name": "_minBetValue",
          "type": "uint256"
        }
      ],
      "name": "changeMinBetValue",
      "outputs": [],
      "stateMutability": "nonpayable",
      "type": "function"
    },
    {
      "inputs": [],
      "name": "confirmAdminChange",
      "outputs": [],
      "stateMutability": "nonpayable",
      "type": "function"
    },
    {
      "inputs": [],
      "name": "confirmChangeGuardian",
      "outputs": [],
      "stateMutability": "nonpayable",
      "type": "function"
    },
    {
      "inputs": [],
      "name": "confirmChangeWinProbability",
      "outputs": [],
      "stateMutability": "nonpayable",
      "type": "function"
    },
    {
      "inputs": [],
      "name": "guardian",
      "outputs": [
        {
          "internalType": "address",
          "name": "",
          "type": "address"
        }
      ],
      "stateMutability": "view",
      "type": "function"
    },
    {
      "inputs": [],
      "name": "isLocked",
      "outputs": [
        {
          "internalType": "bool",
          "name": "",
          "type": "bool"
        }
      ],
      "stateMutability": "view",
      "type": "function"
    },
    {
      "inputs": [
        {
          "internalType": "address",
          "name": "",
          "type": "address"
        }
      ],
      "name": "lastTimestamp",
      "outputs": [
        {
          "internalType": "uint256",
          "name": "",
          "type": "uint256"
        }
      ],
      "stateMutability": "view",
      "type": "function"
    },
    {
      "inputs": [],
      "name": "lockContract",
      "outputs": [],
      "stateMutability": "nonpayable",
      "type": "function"
    },
    {
      "inputs": [],
      "name": "maxiumBetValue",
      "outputs": [
        {
          "internalType": "uint256",
          "name": "",
          "type": "uint256"
        }
      ],
      "stateMutability": "view",
      "type": "function"
    },
    {
      "inputs": [],
      "name": "miniumBetValue",
      "outputs": [
        {
          "internalType": "uint256",
          "name": "",
          "type": "uint256"
        }
      ],
      "stateMutability": "view",
      "type": "function"
    },
    {
      "inputs": [],
      "name": "pendingAdmin",
      "outputs": [
        {
          "internalType": "address",
          "name": "",
          "type": "address"
        }
      ],
      "stateMutability": "view",
      "type": "function"
    },
    {
      "inputs": [],
      "name": "pendingAdminChangeTime",
      "outputs": [
        {
          "internalType": "uint256",
          "name": "",
          "type": "uint256"
        }
      ],
      "stateMutability": "view",
      "type": "function"
    },
    {
      "inputs": [],
      "name": "pendingGuardian",
      "outputs": [
        {
          "internalType": "address",
          "name": "",
          "type": "address"
        }
      ],
      "stateMutability": "view",
      "type": "function"
    },
    {
      "inputs": [],
      "name": "pendingGuardianChangeTime",
      "outputs": [
        {
          "internalType": "uint256",
          "name": "",
          "type": "uint256"
        }
      ],
      "stateMutability": "view",
      "type": "function"
    },
    {
      "inputs": [],
      "name": "pendingWinProbability",
      "outputs": [
        {
          "internalType": "uint256",
          "name": "",
          "type": "uint256"
        }
      ],
      "stateMutability": "view",
      "type": "function"
    },
    {
      "inputs": [],
      "name": "pendingWinProbabilityChangeTime",
      "outputs": [
        {
          "internalType": "uint256",
          "name": "",
          "type": "uint256"
        }
      ],
      "stateMutability": "view",
      "type": "function"
    },
    {
      "inputs": [],
      "name": "pendingWithdrawFundTime",
      "outputs": [
        {
          "internalType": "uint256",
          "name": "",
          "type": "uint256"
        }
      ],
      "stateMutability": "view",
      "type": "function"
    },
    {
      "inputs": [
        {
          "internalType": "uint256",
          "name": "_ssid",
          "type": "uint256"
        },
        {
          "internalType": "enum Highlow.BetType",
          "name": "_betType",
          "type": "uint8"
        },
        {
          "internalType": "uint256",
          "name": "_amount",
          "type": "uint256"
        },
        {
          "internalType": "uint256",
          "name": "_timestamp",
          "type": "uint256"
        },
        {
          "internalType": "bytes",
          "name": "signature",
          "type": "bytes"
        }
      ],
      "name": "placeBet",
      "outputs": [],
      "stateMutability": "payable",
      "type": "function"
    },
    {
      "inputs": [
        {
          "internalType": "address",
          "name": "newAdmin",
          "type": "address"
        }
      ],
      "name": "requestAdminChange",
      "outputs": [],
      "stateMutability": "nonpayable",
      "type": "function"
    },
    {
      "inputs": [
        {
          "internalType": "address",
          "name": "newGuardian",
          "type": "address"
        }
      ],
      "name": "requestChangeGuardian",
      "outputs": [],
      "stateMutability": "nonpayable",
      "type": "function"
    },
    {
      "inputs": [
        {
          "internalType": "uint256",
          "name": "_winProbability",
          "type": "uint256"
        }
      ],
      "name": "requestChangeWinProbability",
      "outputs": [],
      "stateMutability": "nonpayable",
      "type": "function"
    },
    {
      "inputs": [],
      "name": "requestWithdrawFund",
      "outputs": [],
      "stateMutability": "nonpayable",
      "type": "function"
    },
    {
      "inputs": [],
      "name": "rewardMultiply",
      "outputs": [
        {
          "internalType": "uint256",
          "name": "",
          "type": "uint256"
        }
      ],
      "stateMutability": "view",
      "type": "function"
    },
    {
      "inputs": [
        {
          "internalType": "uint256",
          "name": "_timestamp",
          "type": "uint256"
        },
        {
          "internalType": "bytes",
          "name": "signature",
          "type": "bytes"
        }
      ],
      "name": "startGame",
      "outputs": [],
      "stateMutability": "nonpayable",
      "type": "function"
    },
    {
      "inputs": [],
      "name": "token",
      "outputs": [
        {
          "internalType": "contract IERC20",
          "name": "",
          "type": "address"
        }
      ],
      "stateMutability": "view",
      "type": "function"
    },
    {
      "inputs": [],
      "name": "unlockContract",
      "outputs": [],
      "stateMutability": "nonpayable",
      "type": "function"
    },
    {
      "inputs": [],
      "name": "winProbability",
      "outputs": [
        {
          "internalType": "uint256",
          "name": "",
          "type": "uint256"
        }
      ],
      "stateMutability": "view",
      "type": "function"
    },
    {
      "inputs": [
        {
          "internalType": "uint256",
          "name": "amount",
          "type": "uint256"
        }
      ],
      "name": "withdrawFund",
      "outputs": [],
      "stateMutability": "nonpayable",
      "type": "function"
    }
  ],
  "bytecode": "0x60e0601f1962002a8038819003601f810192909216830192916001600160401b03918385108386111762000373578160a0928592604097885283398101031262000481576200004e82620004a2565b6020906200005e828501620004a2565b6200006b868601620004a2565b60806060870151960151956001918260005560ff19600d5416600d55871562000439578115620003e05781881062000389576001600160a01b03908116608052600280546001600160a01b03199081169583169590951781556003805490951691909516178355600a808355600b97909755600c5560c0839052865184939190620000f68162000486565b60079481868093520166486967686c6f7760c81b81522081868a516200011c8162000486565b82815201603160f81b81522096895197878901927f8b73c3c69bb8fe3d512ecc4cf759cc79239f7b179b0ffacaa9a75d522b39400f84528b8a015260608901524660808901523060a089015260a0885260c088019088821090821117620003735788978382600b9460e0948e528351902060a0526200019b8162000486565b520152600f55600b60105580848851620001b58162000486565b82815201528060115560125580838751620001d08162000486565b8281520152806013556014556004828651620001ec8162000486565b82815201526004601555600460165560058286516200020b8162000486565b82815201526005601755600560185560068286516200022a8162000486565b828152015260066019556006601a5580828651620002488162000486565b828152015280601b55601c556008818551620002648162000486565b82815201526008601d556008601e556009818551620002838162000486565b82815201526009601f556009815581818551620002a08162000486565b8281520152816021558160225581818551620002bc8162000486565b600b81520152600b6023558160245581818551620002da8162000486565b600c81520152600c602555816026558351620002f68162000486565b600d81520152600d602755602855516125a89081620004b882396080518181816101ac015281816105a401528181610bc5015281816110970152818161156c01528181611653015281816117fe015281816118de015261190f015260a05181611ffa015260c051818181610f580152818161152c01526119bf0152f35b634e487b7160e01b600052604160045260246000fd5b6084868a80519162461bcd60e51b83526004830152602482015260008051602062002a6083398151915260448201527f6561746572207468616e20746865206d696e696d756d206265742076616c75656064820152fd5b885162461bcd60e51b815260048101879052602c60248201527f546865206d696e696d756d206265742076616c7565206d75737420626520677260448201526b06561746572207468616e20360a41b6064820152608490fd5b885162461bcd60e51b815260048101879052602c602482015260008051602062002a6083398151915260448201526b06561746572207468616e20360a41b6064820152608490fd5b600080fd5b604081019081106001600160401b038211176200037357604052565b51906001600160a01b0382168203620004815756fe6040608081526004908136101561001557600080fd5b600091823560e01c9081630cee172514610ffb5781631157b26714610f9a5781631617f19014610f7b5781631966ae4914610f4057816322f0f2f914610ee35781632678224714610ebb57816328fc8b6814610e1857816332b031a314610db85781633ab0f33014610d99578163452a932014610d705781634addd5f614610d1b57816351903bd914610b35578163677660e014610a6657816369f2941d14610a4757816371d00086146109a1578163753868e314610941578163762c31ba14610918578163847d1e901461086a5781638c51d1e4146107c85781639a138974146106cb5781639d1c35e2146105535781639e09062814610502578163a4e2d634146104de578163a74b67831461041e578163a9860b97146103ff578163ba8a305c146103e0578163bff42fe4146103c1578163dccfac8214610387578163e065fc93146102ae57508063e1d8192c14610290578063ed3cacc114610272578063f851a4401461024a578063fb49fe27146101df5763fc0c546a1461019957600080fd5b346101db57816003193601126101db57517f00000000000000000000000000000000000000000000000000000000000000006001600160a01b03168152602090f35b5080fd5b823461024757806003193601126102475761020560018060a01b03600354163314611286565b6bffffffffffffffffffffffff60a01b60065416600655806007557f7a81c642828249ae51a34cf52e35ebbf08bd3cb36fb5a4b4c8e80261893f5b818180a180f35b80fd5b50346101db57816003193601126101db5760025490516001600160a01b039091168152602090f35b50346101db57816003193601126101db576020906007549051908152f35b50346101db57816003193601126101db576020906009549051908152f35b91905034610383576020366003190112610383578135916102da60018060a01b036002541633146111f9565b821561033557507fa9f6ef469a02717105903bbce25c47a4db6a0d759d929c5cd9bf295a7033b1749161032f91610314600c548311611d77565b600b8290555133815260208101919091529081906040820190565b0390a180f35b6020608492519162461bcd60e51b8352820152602360248201527f546865206d617869756d206265742076616c756520677265617465722074686160448201526206e20360ec1b6064820152fd5b8280fd5b90503461038357602036600319011261038357356001600160a01b038116908190036103835782829160209452600e845220549051908152f35b5050346101db57816003193601126101db576020906005549051908152f35b5050346101db57816003193601126101db57602090600b549051908152f35b5050346101db57816003193601126101db57602090600a549051908152f35b8383346101db57816003193601126101db576002546001600160a01b03919061044a33848316146111f9565b84549283169261045b841515611edd565b600554610469811515611edd565b6203f48081018091116104cb577f7ce7ec0b50378fb6c0186ffb5f48325f6593fcb4ca4386f21861af3129188f5c9492602094926104aa8993421015611e2a565b6001600160a01b03199182168517600255169055600585905551908152a180f35b634e487b7160e01b865260118752602486fd5b5050346101db57816003193601126101db5760209060ff600d541690519015158152f35b833461024757806003193601126102475761052860018060a01b03600354163314611286565b806008557f94a9b8fb6e694c6c0fbee0e13e1c5b9ae2dda4395e3495228a46dc717617c6fa8180a180f35b839150346101db57816003193601126101db576002546001600160a01b03919061058090831633146111f9565b60085461067e57835180926370a0823160e01b8252308383015281602460209586937f0000000000000000000000000000000000000000000000000000000000000000165afa908115610674578491610643575b501561060a57507fe20350bd5ff90b7bdbcb8229cf46c222a5f5b18f094a1ac5962451445fda107691924260085551428152a180f35b60649184519162461bcd60e51b835282015260156024820152744e6f20746f6b656e7320746f20776974686472617760581b6044820152fd5b90508281813d831161066d575b61065a81836113a3565b810103126106695751856105d4565b8380fd5b503d610650565b85513d86823e3d90fd5b608490602085519162461bcd60e51b8352820152602160248201527f5769746864726177616c207265717565737420697320696e2070726f677265736044820152607360f81b6064820152fd5b919050346103835782600319360112610383576106f360018060a01b036002541633146111f9565b60095491610702831515611e87565b600a54610710811515611e87565b6203f48081018091116107b557421061075d5750816020917f9dc86596ca5f70a96c96b2cb0be04f02b7da0a6261f97d43cebcc921020b1925936001558460095584600a5551908152a180f35b6020608492519162461bcd60e51b8352820152602d60248201527f4d75737420776169742033206461797320746f20636f6e6669726d207365656460448201526c207265656c73206368616e676560981b6064820152fd5b634e487b7160e01b855260118252602485fd5b919050346103835760203660031901126103835781356001600160a01b0381811693909290848303610866577f72b357b8c271031aad940e03e51f8c172b495a1dd60d6e902d339c7f496041029461082861032f956002541633146111f9565b6108338115156112d2565b81546001600160a01b03191617905542600581905590516001600160a01b03909216825260208201529081906040820190565b8580fd5b8383346101db57816003193601126101db576003546001600160a01b0391906108963384831614611286565b600654928316926108a8841515611dde565b6007546108b6811515611dde565b6203f48081018091116104cb5791602093916108f67f01c6520cf747e4632b43b535b91afe3950ccabc4ab29bbd89e3c1f6b0ba056559694421015611e2a565b6001600160a01b0319918216841760035516600655600785905551908152a180f35b5050346101db57816003193601126101db5760065490516001600160a01b039091168152602090f35b5050346101db57816003193601126101db5760207f46a289a85516d6b63cec7f685e3f5398070f9fc5fb8e3d14021add023fec568f9161098c60018060a01b03600354163314611286565b600160ff19600d541617600d5551338152a180f35b91905034610383576020366003190112610383578135916109cd60018060a01b036002541633146111f9565b6032831015610a0c5750816020917f9b161a37c93b297fe93d8f6f47f959bb91bd34a421b3892b0c91674ce107fb249360095542600a5551908152a180f35b6020606492519162461bcd60e51b83528201526016602482015275496e76616c69642077696e50726f626162696c69747960501b6044820152fd5b5050346101db57816003193601126101db576020906001549051908152f35b9190503461038357602036600319011261038357813591610a9260018060a01b036002541633146111f9565b8215610ae757508161032f91610acc7f96fd935283ebe139eff1231ba7e60b91334b7e1e1c67c91c68b58f8d4a7b211f94600b5411611d77565b600c8290555133815260208101919091529081906040820190565b6020608492519162461bcd60e51b8352820152602360248201527f546865206d696e69756d206265742076616c756520677265617465722074686160448201526206e20360ec1b6064820152fd5b8383346101db57806003193601126101db5782359060243567ffffffffffffffff811161066957610b6990369086016111c6565b610b7860ff600d541615611245565b610b84844210156113c5565b603c84018085116104cb57610b9b90421115611411565b338552602091600e8352610bb3848720548611611451565b835163313ce56760e01b8152838189817f00000000000000000000000000000000000000000000000000000000000000006001600160a01b03165afa8015610d11578790610cd5575b60ff915016604d8111610cc257610c5885937fe62b3b98deefd8f43cf76a15e0c191fa45e18bc954d5ec8a1e36c8baeec616ab979593610c5d936060985190610c4482611339565b338252600a0a868201528787820152611f88565b61149d565b338652600e81528282872055610c7b610c7584612173565b936120b4565b8251610c868161136b565b848152600283808301848152338b5260298252868b2093518455518051600185015501519101558251938452805182850152015190820152a180f35b634e487b7160e01b875260118852602487fd5b508381813d8311610d0a575b610ceb81836113a3565b81010312610d06575160ff81168103610d065760ff90610bfc565b8680fd5b503d610ce1565b85513d89823e3d90fd5b8334610247578060031936011261024757610d4160018060a01b036002541633146111f9565b8060095580600a557f9ef48cacefe12ab0a801d57bc51beb3a36523278e29346ed78249364434565028180a180f35b5050346101db57816003193601126101db5760035490516001600160a01b039091168152602090f35b5050346101db57816003193601126101db576020906008549051908152f35b839060a03660031901126101db576024356002811015610383576084359167ffffffffffffffff831161066957610df5610e1593369083016111c6565b929091610e0760ff600d541615611245565b6064359160443591356114fb565b80f35b905034610383576020366003190112610383576001600160a01b03903581811692838203610eb7577f6c437b1584202b77482374dd2215b75e975b0be0768b92ed5e4b048b0e10987993610e7461032f94600354163314611286565b610e7f8115156112d2565b600680546001600160a01b03191691909117905542600781905590516001600160a01b03909216825260208201529081906040820190565b8480fd5b9050346103835782600319360112610383575490516001600160a01b03909116815260209150f35b5050346101db57816003193601126101db5760207ff08396b9fd122c2ef99aec183d994d39fa54cc25773e4b8a6ed20ad08aef02c991610f2e60018060a01b03600354163314611286565b60ff19600d5416600d5551338152a180f35b5050346101db57816003193601126101db57602090517f00000000000000000000000000000000000000000000000000000000000000008152f35b5050346101db57816003193601126101db57602090600c549051908152f35b8390346101db57816003193601126101db57610fc160018060a01b03600354163314611286565b80546001600160a01b031916905560058190557f07ad662e4db36fe46ee1697376f8457b103123c200de262ca4baf9f5cad0a1e88180a180f35b839150346101db5760203660031901126101db576002548135916001600160a01b039182169061102c3383146111f9565b6002855414611183576002855561104860ff600d541615611245565b600854801561114a5762093a8081018091116111375742106110e957508394916110bb846110df937f09ad672d4e7c4892da934d1051932ebe9ec4b6ec8c3f40d569176db3e93e5abe976008557f0000000000000000000000000000000000000000000000000000000000000000611f29565b600254925192166001600160a01b0316825260208201929092529081906040820190565b0390a16001815580f35b608490602087519162461bcd60e51b8352820152602260248201527f4d75737420776169742037206461797320746f2077697468647261772066756e604482015261647360f01b6064820152fd5b634e487b7160e01b865260118252602486fd5b865162461bcd60e51b815260208184015260136024820152724e6f2070656e64696e6720776974686472617760681b6044820152606490fd5b606490602087519162461bcd60e51b8352820152601f60248201527f5265656e7472616e637947756172643a207265656e7472616e742063616c6c006044820152fd5b9181601f840112156111f45782359167ffffffffffffffff83116111f457602083818601950101116111f457565b600080fd5b1561120057565b60405162461bcd60e51b815260206004820152601b60248201527f4f6e6c792061646d696e2063616e2065786563757465207468697300000000006044820152606490fd5b1561124c57565b60405162461bcd60e51b815260206004820152601260248201527110dbdb9d1c9858dd081a5cc81b1bd8dad95960721b6044820152606490fd5b1561128d57565b60405162461bcd60e51b815260206004820152601e60248201527f4f6e6c7920677561726469616e2063616e2065786563757465207468697300006044820152606490fd5b156112d957565b60405162461bcd60e51b815260206004820152600f60248201526e496e76616c6964206164647265737360881b6044820152606490fd5b8181029291811591840414171561132357565b634e487b7160e01b600052601160045260246000fd5b6060810190811067ffffffffffffffff82111761135557604052565b634e487b7160e01b600052604160045260246000fd5b6040810190811067ffffffffffffffff82111761135557604052565b60a0810190811067ffffffffffffffff82111761135557604052565b90601f8019910116810190811067ffffffffffffffff82111761135557604052565b156113cc57565b60405162461bcd60e51b815260206004820152601960248201527f54696d657374616d702066726f6d2074686520667574757265000000000000006044820152606490fd5b1561141857565b60405162461bcd60e51b8152602060048201526011602482015270151a5b595cdd185b5c08195e1c1a5c9959607a1b6044820152606490fd5b1561145857565b60405162461bcd60e51b815260206004820152601760248201527f54696d657374616d70206d757374206265206e657765720000000000000000006044820152606490fd5b156114a457565b60405162461bcd60e51b8152602060048201526011602482015270496e76616c6964207369676e617475726560781b6044820152606490fd5b906040516114ea8161136b565b602060018294805484520154910152565b949094939193600c548510611d0c57600b548511611cc75733600052602960205260406000205403611c82576115517f000000000000000000000000000000000000000000000000000000000000000085611310565b6040516370a0823160e01b81523060048201526020816024817f00000000000000000000000000000000000000000000000000000000000000006001600160a01b03165afa9081156119ac57600091611c50575b5010611c0b576115b7834210156113c5565b603c8301908184116113235761160f926115d6610c5893421115611411565b33600052600e6020526115ef6040600020548611611451565b6040516115fb81611339565b338152866020820152856040820152611f88565b33600052600e602052806040600020556116776040516323b872dd60e01b60208201523360248201523060448201528360648201526064815261165181611387565b7f00000000000000000000000000000000000000000000000000000000000000006121b8565b33600052602960205261169060016040600020016114dd565b600060206040516116a08161136b565b8281520152600060206040516116b58161136b565b8281520152600019430143811161132357606460405160208101903360601b825283406034820152446054820152856074820152607481526116f681611387565b5190200660015411600060405191826101c081011067ffffffffffffffff6101c085011117611355576101c08301604052600d835260005b6101a08110611be6575015611b46576002871015611a225786611afe5760005b600d8110611aac57505b80611a4e575050600d9060405160208101913360601b83524060348201524460548201528460748201526074815261178f81611387565b51902006600d811015611a38576117ab9060011b600f016114dd565b925b6117bf6117b9846120b4565b93612173565b946000926002821015611a225781159182611a0f575b82156119ea575b50506119b8575b6040516370a0823160e01b81523060048201526020816024817f00000000000000000000000000000000000000000000000000000000000000006001600160a01b03165afa9081156119ac57600091611973575b50600294837f32d9b2d25d1f9cf3a167cfeb80d45c711f98b6ab4a5c9cdb91395f58007e82f99360e09360209796116119075750806118d7575b856040519233845289828501528051604085015201516060830152845160808301528585015160a083015260c0820152a1604051936118af8561136b565b8452818401908152336000526029825260406000209351845551805160018501550151910155565b61190281337f0000000000000000000000000000000000000000000000000000000000000000611f29565b611871565b6119339150337f0000000000000000000000000000000000000000000000000000000000000000611f29565b846040519133835288828401528051604084015201516060820152835160808201528484015160a0820152600060c0820152a1604051936118af8561136b565b90506020939293813d6020116119a4575b81611991602093836113a3565b810103126111f457519192916002611837565b3d9150611984565b6040513d6000823e3d90fd5b90506119e47f000000000000000000000000000000000000000000000000000000000000000082611310565b906117e3565b6001149150816119fd575b5038806117dc565b602091500151602085015111386119f5565b91506020810151602087015110916117d5565b634e487b7160e01b600052602160045260246000fd5b634e487b7160e01b600052603260045260246000fd5b60018103611a6a57508091505115611a385760200151926117ad565b611aa59260405160208101913360601b835240603482015244605482015286607482015260748152611a9b81611387565b5190200690612091565b51926117ad565b8060011b6010810154602087015111611ac9575b5060010161174e565b60019192611adc611af792600f016114dd565b611ae68287612091565b52611af18186612091565b506120a5565b9190611ac0565b60005b600d8110611b0f5750611758565b8060011b6010810154602087015110611b2c575b50600101611b01565b60019192611adc611b3f92600f016114dd565b9190611b23565b6002871015611a225786611b9d5760005b600d8110611b655750611758565b8060011b601081015460208701511115611b83575b50600101611b57565b60019192611adc611b9692600f016114dd565b9190611b7a565b60005b600d8110611bae5750611758565b8060011b601081015460208701511015611bcc575b50600101611ba0565b60019192611adc611bdf92600f016114dd565b9190611bc3565b602090604051611bf58161136b565b600081526000838201528282870101520161172e565b60405162461bcd60e51b815260206004820152601f60248201527f436f6e74726163742068617320696e73756666696369656e742066756e6473006044820152606490fd5b90506020813d602011611c7a575b81611c6b602093836113a3565b810103126111f45751386115a5565b3d9150611c5e565b60405162461bcd60e51b815260206004820152601860248201527f5468652073657373696f6e206973206e6f74206d6174636800000000000000006044820152606490fd5b60405162461bcd60e51b815260206004820152601960248201527f4265742065786365656473206d6178696d756d206c696d6974000000000000006044820152606490fd5b60405162461bcd60e51b815260206004820152603e60248201527f5468652062657420616d6f756e74206d7573742062652067726561746572207460448201527f68616e20746865206d696e696d756d2072657175697265642076616c756500006064820152608490fd5b15611d7e57565b60405162461bcd60e51b815260206004820152603260248201527f546865206d617869756d206265742076616c75652067726561746572207468616044820152716e206d696e69756d206265742076616c756560701b6064820152608490fd5b15611de557565b60405162461bcd60e51b815260206004820152601a60248201527f4e6f2070656e64696e6720677561726469616e206368616e67650000000000006044820152606490fd5b15611e3157565b60405162461bcd60e51b815260206004820152602860248201527f4d75737420776169742033206461797320746f20636f6e6669726d2061646d696044820152676e206368616e676560c01b6064820152608490fd5b15611e8e57565b60405162461bcd60e51b815260206004820152602160248201527f4e6f2070656e64696e672077696e2070726f626162696c697479206368616e676044820152606560f81b6064820152608490fd5b15611ee457565b60405162461bcd60e51b815260206004820152601760248201527f4e6f2070656e64696e672061646d696e206368616e67650000000000000000006044820152606490fd5b60405163a9059cbb60e01b60208201526001600160a01b03929092166024830152604480830193909352918152611f6a91611f656064836113a3565b6121b8565b565b67ffffffffffffffff811161135557601f01601f191660200190565b9060018060a01b039182815116602082015160408093015183519160208301937f0e81d1cdf23bdc0a6bef5035503a1014285a41cc67c1e91e29d9211b707e3cf98552858401526060830152608082015260808152611fe681611387565b5190208151602081019161190160f01b83527f000000000000000000000000000000000000000000000000000000000000000060228301526042820152604281526080810181811067ffffffffffffffff82111761135557835251902061205861204f86611f6c565b925192836113a3565b84825236858401116111f45760006020866120869761207e9683870137840101526122d3565b92909261230b565b806002541691161490565b8051821015611a385760209160051b010190565b60001981146113235760010190565b6020906040516120c38161136b565b6000928184809352015260001943019043821161215f57906003916040519060208201923360601b845240603483015244605483015260748201526074815261210b81611387565b51902016906004820180921161214b57600d82101561213757506121349060011b600f016114dd565b90565b634e487b7160e01b81526032600452602490fd5b634e487b7160e01b81526011600452602490fd5b634e487b7160e01b83526011600452602483fd5b600019430143811161132357620186a0916040519060208201923360601b84524060348301524460548301526074820152607481526121b181611387565b5190200690565b60018060a01b0316906122356040516121d08161136b565b6020938482527f5361666545524332303a206c6f772d6c6576656c2063616c6c206661696c6564858301526000808587829751910182855af13d156122cb573d9161221a83611f6c565b9261222860405194856113a3565b83523d868885013e61249e565b8051918215918483156122a7575b5050509050156122505750565b6084906040519062461bcd60e51b82526004820152602a60248201527f5361666545524332303a204552433230206f7065726174696f6e20646964206e6044820152691bdd081cdd58d8d9595960b21b6064820152fd5b9193818094500103126101db57820151908115158203610247575080388084612243565b60609161249e565b906041815114600014612301576122fd916020820151906060604084015193015160001a9061240f565b9091565b5050600090600290565b6005811015611a22578061231c5750565b600181036123695760405162461bcd60e51b815260206004820152601860248201527f45434453413a20696e76616c6964207369676e617475726500000000000000006044820152606490fd5b600281036123b65760405162461bcd60e51b815260206004820152601f60248201527f45434453413a20696e76616c6964207369676e6174757265206c656e677468006044820152606490fd5b6003146123bf57565b60405162461bcd60e51b815260206004820152602260248201527f45434453413a20696e76616c6964207369676e6174757265202773272076616c604482015261756560f01b6064820152608490fd5b9291907f7fffffffffffffffffffffffffffffff5d576e7357a4501ddfe92f46681b20a083116124925791608094939160ff602094604051948552168484015260408301526060820152600093849182805260015afa156124855781516001600160a01b0381161561247f579190565b50600190565b50604051903d90823e3d90fd5b50505050600090600390565b9192901561250057508151156124b2575090565b3b156124bb5790565b60405162461bcd60e51b815260206004820152601d60248201527f416464726573733a2063616c6c20746f206e6f6e2d636f6e74726163740000006044820152606490fd5b8251909150156125135750805190602001fd5b6040519062461bcd60e51b82528160208060048301528251908160248401526000935b828510612559575050604492506000838284010152601f80199101168101030190fd5b848101820151868601604401529381019385935061253656fea26469706673582212204ae0a75cd52a17e202cb4763378c18825b686ff18aa3bf29d08adf267ef720f764736f6c63430008180033546865206d6178696d756d206265742076616c7565206d757374206265206772",
  "linkReferences": {},
  "deployedLinkReferences": {}
}